
dhrystone.riscv:     file format elf32-littleriscv


Disassembly of section .text.init:

80000000 <_start>:
80000000:	00000093          	li	ra,0
80000004:	00000113          	li	sp,0
80000008:	00000193          	li	gp,0
8000000c:	00000213          	li	tp,0
80000010:	00000293          	li	t0,0
80000014:	00000313          	li	t1,0
80000018:	00000393          	li	t2,0
8000001c:	00000413          	li	s0,0
80000020:	00000493          	li	s1,0
80000024:	00000513          	li	a0,0
80000028:	00000593          	li	a1,0
8000002c:	00000613          	li	a2,0
80000030:	00000693          	li	a3,0
80000034:	00000713          	li	a4,0
80000038:	00000793          	li	a5,0
8000003c:	00000813          	li	a6,0
80000040:	00000893          	li	a7,0
80000044:	00000913          	li	s2,0
80000048:	00000993          	li	s3,0
8000004c:	00000a13          	li	s4,0
80000050:	00000a93          	li	s5,0
80000054:	00000b13          	li	s6,0
80000058:	00000b93          	li	s7,0
8000005c:	00000c13          	li	s8,0
80000060:	00000c93          	li	s9,0
80000064:	00000d13          	li	s10,0
80000068:	00000d93          	li	s11,0
8000006c:	00000e13          	li	t3,0
80000070:	00000e93          	li	t4,0
80000074:	00000f13          	li	t5,0
80000078:	00000f93          	li	t6,0
8000007c:	0001e2b7          	lui	t0,0x1e
80000080:	3002a073          	csrs	mstatus,t0
80000084:	00100293          	li	t0,1
80000088:	01f29293          	slli	t0,t0,0x1f
8000008c:	0002ca63          	bltz	t0,800000a0 <_start+0xa0>
80000090:	00100513          	li	a0,1
80000094:	00001297          	auipc	t0,0x1
80000098:	f6a2a623          	sw	a0,-148(t0) # 80001000 <tohost>
8000009c:	ff5ff06f          	j	80000090 <_start+0x90>
800000a0:	00000297          	auipc	t0,0x0
800000a4:	04428293          	addi	t0,t0,68 # 800000e4 <trap_entry>
800000a8:	30529073          	csrw	mtvec,t0
800000ac:	00005197          	auipc	gp,0x5
800000b0:	9c018193          	addi	gp,gp,-1600 # 80004a6c <__global_pointer$>
800000b4:	00007217          	auipc	tp,0x7
800000b8:	a4b20213          	addi	tp,tp,-1461 # 80006aff <_end+0x3f>
800000bc:	fc027213          	andi	tp,tp,-64
800000c0:	f1402573          	csrr	a0,mhartid
800000c4:	00100593          	li	a1,1
800000c8:	00b57063          	bgeu	a0,a1,800000c8 <_start+0xc8>
800000cc:	01151613          	slli	a2,a0,0x11
800000d0:	00c20233          	add	tp,tp,a2
800000d4:	00150113          	addi	sp,a0,1
800000d8:	01111113          	slli	sp,sp,0x11
800000dc:	00410133          	add	sp,sp,tp
800000e0:	46d0106f          	j	80001d4c <_init>

800000e4 <trap_entry>:
800000e4:	ef010113          	addi	sp,sp,-272
800000e8:	00112223          	sw	ra,4(sp)
800000ec:	00212423          	sw	sp,8(sp)
800000f0:	00312623          	sw	gp,12(sp)
800000f4:	00412823          	sw	tp,16(sp)
800000f8:	00512a23          	sw	t0,20(sp)
800000fc:	00612c23          	sw	t1,24(sp)
80000100:	00712e23          	sw	t2,28(sp)
80000104:	02812023          	sw	s0,32(sp)
80000108:	02912223          	sw	s1,36(sp)
8000010c:	02a12423          	sw	a0,40(sp)
80000110:	02b12623          	sw	a1,44(sp)
80000114:	02c12823          	sw	a2,48(sp)
80000118:	02d12a23          	sw	a3,52(sp)
8000011c:	02e12c23          	sw	a4,56(sp)
80000120:	02f12e23          	sw	a5,60(sp)
80000124:	05012023          	sw	a6,64(sp)
80000128:	05112223          	sw	a7,68(sp)
8000012c:	05212423          	sw	s2,72(sp)
80000130:	05312623          	sw	s3,76(sp)
80000134:	05412823          	sw	s4,80(sp)
80000138:	05512a23          	sw	s5,84(sp)
8000013c:	05612c23          	sw	s6,88(sp)
80000140:	05712e23          	sw	s7,92(sp)
80000144:	07812023          	sw	s8,96(sp)
80000148:	07912223          	sw	s9,100(sp)
8000014c:	07a12423          	sw	s10,104(sp)
80000150:	07b12623          	sw	s11,108(sp)
80000154:	07c12823          	sw	t3,112(sp)
80000158:	07d12a23          	sw	t4,116(sp)
8000015c:	07e12c23          	sw	t5,120(sp)
80000160:	07f12e23          	sw	t6,124(sp)
80000164:	34202573          	csrr	a0,mcause
80000168:	341025f3          	csrr	a1,mepc
8000016c:	00010613          	mv	a2,sp
80000170:	16d010ef          	jal	ra,80001adc <handle_trap>
80000174:	34151073          	csrw	mepc,a0
80000178:	000022b7          	lui	t0,0x2
8000017c:	80028293          	addi	t0,t0,-2048 # 1800 <buflen.2941+0x17c0>
80000180:	3002a073          	csrs	mstatus,t0
80000184:	00412083          	lw	ra,4(sp)
80000188:	00812103          	lw	sp,8(sp)
8000018c:	00c12183          	lw	gp,12(sp)
80000190:	01012203          	lw	tp,16(sp)
80000194:	01412283          	lw	t0,20(sp)
80000198:	01812303          	lw	t1,24(sp)
8000019c:	01c12383          	lw	t2,28(sp)
800001a0:	02012403          	lw	s0,32(sp)
800001a4:	02412483          	lw	s1,36(sp)
800001a8:	02812503          	lw	a0,40(sp)
800001ac:	02c12583          	lw	a1,44(sp)
800001b0:	03012603          	lw	a2,48(sp)
800001b4:	03412683          	lw	a3,52(sp)
800001b8:	03812703          	lw	a4,56(sp)
800001bc:	03c12783          	lw	a5,60(sp)
800001c0:	04012803          	lw	a6,64(sp)
800001c4:	04412883          	lw	a7,68(sp)
800001c8:	04812903          	lw	s2,72(sp)
800001cc:	04c12983          	lw	s3,76(sp)
800001d0:	05012a03          	lw	s4,80(sp)
800001d4:	05412a83          	lw	s5,84(sp)
800001d8:	05812b03          	lw	s6,88(sp)
800001dc:	05c12b83          	lw	s7,92(sp)
800001e0:	06012c03          	lw	s8,96(sp)
800001e4:	06412c83          	lw	s9,100(sp)
800001e8:	06812d03          	lw	s10,104(sp)
800001ec:	06c12d83          	lw	s11,108(sp)
800001f0:	07012e03          	lw	t3,112(sp)
800001f4:	07412e83          	lw	t4,116(sp)
800001f8:	07812f03          	lw	t5,120(sp)
800001fc:	07c12f83          	lw	t6,124(sp)
80000200:	11010113          	addi	sp,sp,272
80000204:	30200073          	mret

Disassembly of section .text:

80001048 <Proc_7>:
80001048:	00250513          	addi	a0,a0,2
8000104c:	00b505b3          	add	a1,a0,a1
80001050:	00b62023          	sw	a1,0(a2)
80001054:	00008067          	ret

80001058 <Proc_8>:
80001058:	00560713          	addi	a4,a2,5
8000105c:	00171793          	slli	a5,a4,0x1
80001060:	00e787b3          	add	a5,a5,a4
80001064:	00379793          	slli	a5,a5,0x3
80001068:	00e787b3          	add	a5,a5,a4
8000106c:	00261613          	slli	a2,a2,0x2
80001070:	00271813          	slli	a6,a4,0x2
80001074:	00379793          	slli	a5,a5,0x3
80001078:	01050533          	add	a0,a0,a6
8000107c:	00c78833          	add	a6,a5,a2
80001080:	00d52023          	sw	a3,0(a0)
80001084:	00d52223          	sw	a3,4(a0)
80001088:	06e52c23          	sw	a4,120(a0)
8000108c:	010586b3          	add	a3,a1,a6
80001090:	0106a803          	lw	a6,16(a3)
80001094:	00e6aa23          	sw	a4,20(a3)
80001098:	00e6ac23          	sw	a4,24(a3)
8000109c:	00180713          	addi	a4,a6,1
800010a0:	00e6a823          	sw	a4,16(a3)
800010a4:	00052703          	lw	a4,0(a0)
800010a8:	00f587b3          	add	a5,a1,a5
800010ac:	00c787b3          	add	a5,a5,a2
800010b0:	000015b7          	lui	a1,0x1
800010b4:	00f587b3          	add	a5,a1,a5
800010b8:	fae7aa23          	sw	a4,-76(a5)
800010bc:	00500793          	li	a5,5
800010c0:	00003717          	auipc	a4,0x3
800010c4:	1cf72823          	sw	a5,464(a4) # 80004290 <Int_Glob>
800010c8:	00008067          	ret

800010cc <Func_1>:
800010cc:	0ff57513          	andi	a0,a0,255
800010d0:	0ff5f593          	andi	a1,a1,255
800010d4:	00b50663          	beq	a0,a1,800010e0 <Func_1+0x14>
800010d8:	00000513          	li	a0,0
800010dc:	00008067          	ret
800010e0:	00003797          	auipc	a5,0x3
800010e4:	1aa784a3          	sb	a0,425(a5) # 80004289 <Ch_1_Glob>
800010e8:	00100513          	li	a0,1
800010ec:	00008067          	ret

800010f0 <Func_2>:
800010f0:	ff010113          	addi	sp,sp,-16
800010f4:	00812423          	sw	s0,8(sp)
800010f8:	00912223          	sw	s1,4(sp)
800010fc:	00112623          	sw	ra,12(sp)
80001100:	00050413          	mv	s0,a0
80001104:	00058493          	mv	s1,a1
80001108:	0034c583          	lbu	a1,3(s1)
8000110c:	00244503          	lbu	a0,2(s0)
80001110:	fbdff0ef          	jal	ra,800010cc <Func_1>
80001114:	fe051ae3          	bnez	a0,80001108 <Func_2+0x18>
80001118:	00048593          	mv	a1,s1
8000111c:	00040513          	mv	a0,s0
80001120:	595000ef          	jal	ra,80001eb4 <strcmp>
80001124:	00000793          	li	a5,0
80001128:	00a05a63          	blez	a0,8000113c <Func_2+0x4c>
8000112c:	00a00793          	li	a5,10
80001130:	00003717          	auipc	a4,0x3
80001134:	16f72023          	sw	a5,352(a4) # 80004290 <Int_Glob>
80001138:	00100793          	li	a5,1
8000113c:	00c12083          	lw	ra,12(sp)
80001140:	00812403          	lw	s0,8(sp)
80001144:	00412483          	lw	s1,4(sp)
80001148:	00078513          	mv	a0,a5
8000114c:	01010113          	addi	sp,sp,16
80001150:	00008067          	ret

80001154 <Func_3>:
80001154:	ffe50513          	addi	a0,a0,-2
80001158:	00153513          	seqz	a0,a0
8000115c:	00008067          	ret

80001160 <Proc_6>:
80001160:	ff010113          	addi	sp,sp,-16
80001164:	00812423          	sw	s0,8(sp)
80001168:	00912223          	sw	s1,4(sp)
8000116c:	00050413          	mv	s0,a0
80001170:	00112623          	sw	ra,12(sp)
80001174:	00058493          	mv	s1,a1
80001178:	fddff0ef          	jal	ra,80001154 <Func_3>
8000117c:	00040793          	mv	a5,s0
80001180:	00051463          	bnez	a0,80001188 <Proc_6+0x28>
80001184:	00300793          	li	a5,3
80001188:	00f4a023          	sw	a5,0(s1)
8000118c:	00200793          	li	a5,2
80001190:	04f40a63          	beq	s0,a5,800011e4 <Proc_6+0x84>
80001194:	0287e863          	bltu	a5,s0,800011c4 <Proc_6+0x64>
80001198:	00040a63          	beqz	s0,800011ac <Proc_6+0x4c>
8000119c:	00003717          	auipc	a4,0x3
800011a0:	0f472703          	lw	a4,244(a4) # 80004290 <Int_Glob>
800011a4:	06400793          	li	a5,100
800011a8:	04e7dc63          	bge	a5,a4,80001200 <Proc_6+0xa0>
800011ac:	0004a023          	sw	zero,0(s1)
800011b0:	00c12083          	lw	ra,12(sp)
800011b4:	00812403          	lw	s0,8(sp)
800011b8:	00412483          	lw	s1,4(sp)
800011bc:	01010113          	addi	sp,sp,16
800011c0:	00008067          	ret
800011c4:	00400713          	li	a4,4
800011c8:	fee414e3          	bne	s0,a4,800011b0 <Proc_6+0x50>
800011cc:	00c12083          	lw	ra,12(sp)
800011d0:	00812403          	lw	s0,8(sp)
800011d4:	00f4a023          	sw	a5,0(s1)
800011d8:	00412483          	lw	s1,4(sp)
800011dc:	01010113          	addi	sp,sp,16
800011e0:	00008067          	ret
800011e4:	00c12083          	lw	ra,12(sp)
800011e8:	00812403          	lw	s0,8(sp)
800011ec:	00100793          	li	a5,1
800011f0:	00f4a023          	sw	a5,0(s1)
800011f4:	00412483          	lw	s1,4(sp)
800011f8:	01010113          	addi	sp,sp,16
800011fc:	00008067          	ret
80001200:	00c12083          	lw	ra,12(sp)
80001204:	00812403          	lw	s0,8(sp)
80001208:	00300793          	li	a5,3
8000120c:	00f4a023          	sw	a5,0(s1)
80001210:	00412483          	lw	s1,4(sp)
80001214:	01010113          	addi	sp,sp,16
80001218:	00008067          	ret

8000121c <debug_printf>:
8000121c:	fe010113          	addi	sp,sp,-32
80001220:	00b12223          	sw	a1,4(sp)
80001224:	00c12423          	sw	a2,8(sp)
80001228:	00d12623          	sw	a3,12(sp)
8000122c:	00e12823          	sw	a4,16(sp)
80001230:	00f12a23          	sw	a5,20(sp)
80001234:	01012c23          	sw	a6,24(sp)
80001238:	01112e23          	sw	a7,28(sp)
8000123c:	02010113          	addi	sp,sp,32
80001240:	00008067          	ret

80001244 <Proc_2>:
80001244:	00003717          	auipc	a4,0x3
80001248:	04574703          	lbu	a4,69(a4) # 80004289 <Ch_1_Glob>
8000124c:	04100793          	li	a5,65
80001250:	00f70463          	beq	a4,a5,80001258 <Proc_2+0x14>
80001254:	00008067          	ret
80001258:	00052783          	lw	a5,0(a0)
8000125c:	00003717          	auipc	a4,0x3
80001260:	03472703          	lw	a4,52(a4) # 80004290 <Int_Glob>
80001264:	00978793          	addi	a5,a5,9
80001268:	40e787b3          	sub	a5,a5,a4
8000126c:	00f52023          	sw	a5,0(a0)
80001270:	00008067          	ret

80001274 <Proc_3>:
80001274:	00003797          	auipc	a5,0x3
80001278:	02478793          	addi	a5,a5,36 # 80004298 <Ptr_Glob>
8000127c:	0007a603          	lw	a2,0(a5)
80001280:	00060863          	beqz	a2,80001290 <Proc_3+0x1c>
80001284:	00062703          	lw	a4,0(a2)
80001288:	00e52023          	sw	a4,0(a0)
8000128c:	0007a603          	lw	a2,0(a5)
80001290:	00c60613          	addi	a2,a2,12
80001294:	00003597          	auipc	a1,0x3
80001298:	ffc5a583          	lw	a1,-4(a1) # 80004290 <Int_Glob>
8000129c:	00a00513          	li	a0,10
800012a0:	da9ff06f          	j	80001048 <Proc_7>

800012a4 <Proc_1>:
800012a4:	ff010113          	addi	sp,sp,-16
800012a8:	01212023          	sw	s2,0(sp)
800012ac:	00003917          	auipc	s2,0x3
800012b0:	fec90913          	addi	s2,s2,-20 # 80004298 <Ptr_Glob>
800012b4:	00092783          	lw	a5,0(s2)
800012b8:	00812423          	sw	s0,8(sp)
800012bc:	00052403          	lw	s0,0(a0)
800012c0:	0007a703          	lw	a4,0(a5)
800012c4:	0047ae83          	lw	t4,4(a5)
800012c8:	0087ae03          	lw	t3,8(a5)
800012cc:	0107a303          	lw	t1,16(a5)
800012d0:	0147a883          	lw	a7,20(a5)
800012d4:	0187a803          	lw	a6,24(a5)
800012d8:	0207a583          	lw	a1,32(a5)
800012dc:	0247a603          	lw	a2,36(a5)
800012e0:	0287a683          	lw	a3,40(a5)
800012e4:	00912223          	sw	s1,4(sp)
800012e8:	00112623          	sw	ra,12(sp)
800012ec:	00050493          	mv	s1,a0
800012f0:	01c7a503          	lw	a0,28(a5)
800012f4:	02c7a783          	lw	a5,44(a5)
800012f8:	00e42023          	sw	a4,0(s0)
800012fc:	0004a703          	lw	a4,0(s1)
80001300:	00a42e23          	sw	a0,28(s0)
80001304:	02f42623          	sw	a5,44(s0)
80001308:	01d42223          	sw	t4,4(s0)
8000130c:	00500793          	li	a5,5
80001310:	01c42423          	sw	t3,8(s0)
80001314:	00642823          	sw	t1,16(s0)
80001318:	01142a23          	sw	a7,20(s0)
8000131c:	01042c23          	sw	a6,24(s0)
80001320:	02b42023          	sw	a1,32(s0)
80001324:	02c42223          	sw	a2,36(s0)
80001328:	02d42423          	sw	a3,40(s0)
8000132c:	00f4a623          	sw	a5,12(s1)
80001330:	00f42623          	sw	a5,12(s0)
80001334:	00e42023          	sw	a4,0(s0)
80001338:	00040513          	mv	a0,s0
8000133c:	f39ff0ef          	jal	ra,80001274 <Proc_3>
80001340:	00442783          	lw	a5,4(s0)
80001344:	08078063          	beqz	a5,800013c4 <Proc_1+0x120>
80001348:	0004a783          	lw	a5,0(s1)
8000134c:	00c12083          	lw	ra,12(sp)
80001350:	00812403          	lw	s0,8(sp)
80001354:	0007af83          	lw	t6,0(a5)
80001358:	0047af03          	lw	t5,4(a5)
8000135c:	0087ae83          	lw	t4,8(a5)
80001360:	00c7ae03          	lw	t3,12(a5)
80001364:	0107a303          	lw	t1,16(a5)
80001368:	0147a883          	lw	a7,20(a5)
8000136c:	0187a803          	lw	a6,24(a5)
80001370:	01c7a583          	lw	a1,28(a5)
80001374:	0207a603          	lw	a2,32(a5)
80001378:	0247a683          	lw	a3,36(a5)
8000137c:	0287a703          	lw	a4,40(a5)
80001380:	02c7a783          	lw	a5,44(a5)
80001384:	01f4a023          	sw	t6,0(s1)
80001388:	01e4a223          	sw	t5,4(s1)
8000138c:	01d4a423          	sw	t4,8(s1)
80001390:	01c4a623          	sw	t3,12(s1)
80001394:	0064a823          	sw	t1,16(s1)
80001398:	0114aa23          	sw	a7,20(s1)
8000139c:	0104ac23          	sw	a6,24(s1)
800013a0:	00b4ae23          	sw	a1,28(s1)
800013a4:	02c4a023          	sw	a2,32(s1)
800013a8:	02d4a223          	sw	a3,36(s1)
800013ac:	02e4a423          	sw	a4,40(s1)
800013b0:	02f4a623          	sw	a5,44(s1)
800013b4:	00012903          	lw	s2,0(sp)
800013b8:	00412483          	lw	s1,4(sp)
800013bc:	01010113          	addi	sp,sp,16
800013c0:	00008067          	ret
800013c4:	0084a503          	lw	a0,8(s1)
800013c8:	00600793          	li	a5,6
800013cc:	00840593          	addi	a1,s0,8
800013d0:	00f42623          	sw	a5,12(s0)
800013d4:	d8dff0ef          	jal	ra,80001160 <Proc_6>
800013d8:	00092783          	lw	a5,0(s2)
800013dc:	00c42503          	lw	a0,12(s0)
800013e0:	00c40613          	addi	a2,s0,12
800013e4:	0007a783          	lw	a5,0(a5)
800013e8:	00c12083          	lw	ra,12(sp)
800013ec:	00412483          	lw	s1,4(sp)
800013f0:	00f42023          	sw	a5,0(s0)
800013f4:	00812403          	lw	s0,8(sp)
800013f8:	00012903          	lw	s2,0(sp)
800013fc:	00a00593          	li	a1,10
80001400:	01010113          	addi	sp,sp,16
80001404:	c45ff06f          	j	80001048 <Proc_7>

80001408 <Proc_4>:
80001408:	00003717          	auipc	a4,0x3
8000140c:	e8470713          	addi	a4,a4,-380 # 8000428c <Bool_Glob>
80001410:	00072683          	lw	a3,0(a4)
80001414:	00003797          	auipc	a5,0x3
80001418:	e757c783          	lbu	a5,-395(a5) # 80004289 <Ch_1_Glob>
8000141c:	fbf78793          	addi	a5,a5,-65
80001420:	0017b793          	seqz	a5,a5
80001424:	00d7e7b3          	or	a5,a5,a3
80001428:	00f72023          	sw	a5,0(a4)
8000142c:	04200793          	li	a5,66
80001430:	00003717          	auipc	a4,0x3
80001434:	e4f70c23          	sb	a5,-424(a4) # 80004288 <Ch_2_Glob>
80001438:	00008067          	ret

8000143c <Proc_5>:
8000143c:	04100793          	li	a5,65
80001440:	00003717          	auipc	a4,0x3
80001444:	e4f704a3          	sb	a5,-439(a4) # 80004289 <Ch_1_Glob>
80001448:	00003797          	auipc	a5,0x3
8000144c:	e407a223          	sw	zero,-444(a5) # 8000428c <Bool_Glob>
80001450:	00008067          	ret

80001454 <vprintfmt>:
80001454:	eb010113          	addi	sp,sp,-336
80001458:	13912223          	sw	s9,292(sp)
8000145c:	40000cb7          	lui	s9,0x40000
80001460:	fffc8793          	addi	a5,s9,-1 # 3fffffff <buflen.2941+0x3fffffbf>
80001464:	14812423          	sw	s0,328(sp)
80001468:	14912223          	sw	s1,324(sp)
8000146c:	15212023          	sw	s2,320(sp)
80001470:	13512a23          	sw	s5,308(sp)
80001474:	14112623          	sw	ra,332(sp)
80001478:	13312e23          	sw	s3,316(sp)
8000147c:	13412c23          	sw	s4,312(sp)
80001480:	13612823          	sw	s6,304(sp)
80001484:	13712623          	sw	s7,300(sp)
80001488:	13812423          	sw	s8,296(sp)
8000148c:	13a12023          	sw	s10,288(sp)
80001490:	11b12e23          	sw	s11,284(sp)
80001494:	00050913          	mv	s2,a0
80001498:	00058493          	mv	s1,a1
8000149c:	00060413          	mv	s0,a2
800014a0:	00d12423          	sw	a3,8(sp)
800014a4:	02500a93          	li	s5,37
800014a8:	00f12623          	sw	a5,12(sp)
800014ac:	0140006f          	j	800014c0 <vprintfmt+0x6c>
800014b0:	06050463          	beqz	a0,80001518 <vprintfmt+0xc4>
800014b4:	00048593          	mv	a1,s1
800014b8:	00140413          	addi	s0,s0,1
800014bc:	000900e7          	jalr	s2
800014c0:	00044503          	lbu	a0,0(s0)
800014c4:	ff5516e3          	bne	a0,s5,800014b0 <vprintfmt+0x5c>
800014c8:	00144683          	lbu	a3,1(s0)
800014cc:	00140d93          	addi	s11,s0,1
800014d0:	000d8713          	mv	a4,s11
800014d4:	02000b93          	li	s7,32
800014d8:	fff00993          	li	s3,-1
800014dc:	fff00a13          	li	s4,-1
800014e0:	00000593          	li	a1,0
800014e4:	05500613          	li	a2,85
800014e8:	00900513          	li	a0,9
800014ec:	fdd68793          	addi	a5,a3,-35
800014f0:	0ff7f793          	andi	a5,a5,255
800014f4:	00170413          	addi	s0,a4,1
800014f8:	06f66c63          	bltu	a2,a5,80001570 <vprintfmt+0x11c>
800014fc:	00003817          	auipc	a6,0x3
80001500:	a1480813          	addi	a6,a6,-1516 # 80003f10 <main+0xe70>
80001504:	00279793          	slli	a5,a5,0x2
80001508:	010787b3          	add	a5,a5,a6
8000150c:	0007a783          	lw	a5,0(a5)
80001510:	010787b3          	add	a5,a5,a6
80001514:	00078067          	jr	a5
80001518:	14c12083          	lw	ra,332(sp)
8000151c:	14812403          	lw	s0,328(sp)
80001520:	14412483          	lw	s1,324(sp)
80001524:	14012903          	lw	s2,320(sp)
80001528:	13c12983          	lw	s3,316(sp)
8000152c:	13812a03          	lw	s4,312(sp)
80001530:	13412a83          	lw	s5,308(sp)
80001534:	13012b03          	lw	s6,304(sp)
80001538:	12c12b83          	lw	s7,300(sp)
8000153c:	12812c03          	lw	s8,296(sp)
80001540:	12412c83          	lw	s9,292(sp)
80001544:	12012d03          	lw	s10,288(sp)
80001548:	11c12d83          	lw	s11,284(sp)
8000154c:	15010113          	addi	sp,sp,336
80001550:	00008067          	ret
80001554:	00068b93          	mv	s7,a3
80001558:	00174683          	lbu	a3,1(a4)
8000155c:	00040713          	mv	a4,s0
80001560:	00170413          	addi	s0,a4,1
80001564:	fdd68793          	addi	a5,a3,-35
80001568:	0ff7f793          	andi	a5,a5,255
8000156c:	f8f678e3          	bgeu	a2,a5,800014fc <vprintfmt+0xa8>
80001570:	00048593          	mv	a1,s1
80001574:	02500513          	li	a0,37
80001578:	000900e7          	jalr	s2
8000157c:	000d8413          	mv	s0,s11
80001580:	f41ff06f          	j	800014c0 <vprintfmt+0x6c>
80001584:	00174803          	lbu	a6,1(a4)
80001588:	fd068993          	addi	s3,a3,-48
8000158c:	00040713          	mv	a4,s0
80001590:	fd080793          	addi	a5,a6,-48
80001594:	00080693          	mv	a3,a6
80001598:	02f56663          	bltu	a0,a5,800015c4 <vprintfmt+0x170>
8000159c:	00299793          	slli	a5,s3,0x2
800015a0:	013789b3          	add	s3,a5,s3
800015a4:	00170713          	addi	a4,a4,1
800015a8:	00199993          	slli	s3,s3,0x1
800015ac:	010989b3          	add	s3,s3,a6
800015b0:	00074803          	lbu	a6,0(a4)
800015b4:	fd098993          	addi	s3,s3,-48
800015b8:	fd080793          	addi	a5,a6,-48
800015bc:	00080693          	mv	a3,a6
800015c0:	fcf57ee3          	bgeu	a0,a5,8000159c <vprintfmt+0x148>
800015c4:	f20a54e3          	bgez	s4,800014ec <vprintfmt+0x98>
800015c8:	00098a13          	mv	s4,s3
800015cc:	fff00993          	li	s3,-1
800015d0:	f1dff06f          	j	800014ec <vprintfmt+0x98>
800015d4:	00174683          	lbu	a3,1(a4)
800015d8:	00040713          	mv	a4,s0
800015dc:	f11ff06f          	j	800014ec <vprintfmt+0x98>
800015e0:	00048593          	mv	a1,s1
800015e4:	02500513          	li	a0,37
800015e8:	000900e7          	jalr	s2
800015ec:	ed5ff06f          	j	800014c0 <vprintfmt+0x6c>
800015f0:	00812783          	lw	a5,8(sp)
800015f4:	00174683          	lbu	a3,1(a4)
800015f8:	00040713          	mv	a4,s0
800015fc:	0007a983          	lw	s3,0(a5)
80001600:	00478793          	addi	a5,a5,4
80001604:	00f12423          	sw	a5,8(sp)
80001608:	fbdff06f          	j	800015c4 <vprintfmt+0x170>
8000160c:	03000513          	li	a0,48
80001610:	00048593          	mv	a1,s1
80001614:	000900e7          	jalr	s2
80001618:	00048593          	mv	a1,s1
8000161c:	07800513          	li	a0,120
80001620:	000900e7          	jalr	s2
80001624:	00812783          	lw	a5,8(sp)
80001628:	01000c13          	li	s8,16
8000162c:	00012223          	sw	zero,4(sp)
80001630:	00478713          	addi	a4,a5,4
80001634:	00812783          	lw	a5,8(sp)
80001638:	00000d93          	li	s11,0
8000163c:	0007a983          	lw	s3,0(a5)
80001640:	00e12423          	sw	a4,8(sp)
80001644:	000c0613          	mv	a2,s8
80001648:	00000693          	li	a3,0
8000164c:	00098513          	mv	a0,s3
80001650:	000d8593          	mv	a1,s11
80001654:	484010ef          	jal	ra,80002ad8 <__umoddi3>
80001658:	00a12823          	sw	a0,16(sp)
8000165c:	00000793          	li	a5,0
80001660:	00050c93          	mv	s9,a0
80001664:	23b78063          	beq	a5,s11,80001884 <vprintfmt+0x430>
80001668:	01410b13          	addi	s6,sp,20
8000166c:	00100d13          	li	s10,1
80001670:	000c0613          	mv	a2,s8
80001674:	00000693          	li	a3,0
80001678:	00098513          	mv	a0,s3
8000167c:	000d8593          	mv	a1,s11
80001680:	681000ef          	jal	ra,80002500 <__udivdi3>
80001684:	000c0613          	mv	a2,s8
80001688:	00000693          	li	a3,0
8000168c:	00050993          	mv	s3,a0
80001690:	00058d93          	mv	s11,a1
80001694:	444010ef          	jal	ra,80002ad8 <__umoddi3>
80001698:	00412783          	lw	a5,4(sp)
8000169c:	00ab2023          	sw	a0,0(s6)
800016a0:	01a12023          	sw	s10,0(sp)
800016a4:	00050c93          	mv	s9,a0
800016a8:	004b0b13          	addi	s6,s6,4
800016ac:	001d0d13          	addi	s10,s10,1
800016b0:	fdb790e3          	bne	a5,s11,80001670 <vprintfmt+0x21c>
800016b4:	fb89fee3          	bgeu	s3,s8,80001670 <vprintfmt+0x21c>
800016b8:	014d5c63          	bge	s10,s4,800016d0 <vprintfmt+0x27c>
800016bc:	fffa0a13          	addi	s4,s4,-1
800016c0:	00048593          	mv	a1,s1
800016c4:	000b8513          	mv	a0,s7
800016c8:	000900e7          	jalr	s2
800016cc:	ff4d48e3          	blt	s10,s4,800016bc <vprintfmt+0x268>
800016d0:	00012783          	lw	a5,0(sp)
800016d4:	00c12703          	lw	a4,12(sp)
800016d8:	00900993          	li	s3,9
800016dc:	00e78a33          	add	s4,a5,a4
800016e0:	002a1a13          	slli	s4,s4,0x2
800016e4:	01010793          	addi	a5,sp,16
800016e8:	01478a33          	add	s4,a5,s4
800016ec:	00c0006f          	j	800016f8 <vprintfmt+0x2a4>
800016f0:	000a2c83          	lw	s9,0(s4)
800016f4:	ffca0a13          	addi	s4,s4,-4
800016f8:	0199b7b3          	sltu	a5,s3,s9
800016fc:	40f007b3          	neg	a5,a5
80001700:	0277f793          	andi	a5,a5,39
80001704:	03078793          	addi	a5,a5,48
80001708:	01978533          	add	a0,a5,s9
8000170c:	00048593          	mv	a1,s1
80001710:	000900e7          	jalr	s2
80001714:	00c10793          	addi	a5,sp,12
80001718:	fd479ce3          	bne	a5,s4,800016f0 <vprintfmt+0x29c>
8000171c:	da5ff06f          	j	800014c0 <vprintfmt+0x6c>
80001720:	00100793          	li	a5,1
80001724:	16b7cc63          	blt	a5,a1,8000189c <vprintfmt+0x448>
80001728:	00812703          	lw	a4,8(sp)
8000172c:	00470793          	addi	a5,a4,4
80001730:	18058663          	beqz	a1,800018bc <vprintfmt+0x468>
80001734:	00072983          	lw	s3,0(a4)
80001738:	00f12423          	sw	a5,8(sp)
8000173c:	41f9dc13          	srai	s8,s3,0x1f
80001740:	180c4e63          	bltz	s8,800018dc <vprintfmt+0x488>
80001744:	000c0d93          	mv	s11,s8
80001748:	00012223          	sw	zero,4(sp)
8000174c:	00a00c13          	li	s8,10
80001750:	ef5ff06f          	j	80001644 <vprintfmt+0x1f0>
80001754:	01000c13          	li	s8,16
80001758:	00012223          	sw	zero,4(sp)
8000175c:	00100793          	li	a5,1
80001760:	10b7c263          	blt	a5,a1,80001864 <vprintfmt+0x410>
80001764:	00812783          	lw	a5,8(sp)
80001768:	00478713          	addi	a4,a5,4
8000176c:	ec9ff06f          	j	80001634 <vprintfmt+0x1e0>
80001770:	00812783          	lw	a5,8(sp)
80001774:	0007ad83          	lw	s11,0(a5)
80001778:	00478b13          	addi	s6,a5,4
8000177c:	180d8463          	beqz	s11,80001904 <vprintfmt+0x4b0>
80001780:	09405863          	blez	s4,80001810 <vprintfmt+0x3bc>
80001784:	02d00793          	li	a5,45
80001788:	04fb9e63          	bne	s7,a5,800017e4 <vprintfmt+0x390>
8000178c:	000dc503          	lbu	a0,0(s11)
80001790:	02050863          	beqz	a0,800017c0 <vprintfmt+0x36c>
80001794:	fff00b93          	li	s7,-1
80001798:	0009c663          	bltz	s3,800017a4 <vprintfmt+0x350>
8000179c:	fff98993          	addi	s3,s3,-1
800017a0:	01798e63          	beq	s3,s7,800017bc <vprintfmt+0x368>
800017a4:	00048593          	mv	a1,s1
800017a8:	001d8d93          	addi	s11,s11,1
800017ac:	000900e7          	jalr	s2
800017b0:	000dc503          	lbu	a0,0(s11)
800017b4:	fffa0a13          	addi	s4,s4,-1
800017b8:	fe0510e3          	bnez	a0,80001798 <vprintfmt+0x344>
800017bc:	01405c63          	blez	s4,800017d4 <vprintfmt+0x380>
800017c0:	fffa0a13          	addi	s4,s4,-1
800017c4:	00048593          	mv	a1,s1
800017c8:	02000513          	li	a0,32
800017cc:	000900e7          	jalr	s2
800017d0:	fe0a18e3          	bnez	s4,800017c0 <vprintfmt+0x36c>
800017d4:	01612423          	sw	s6,8(sp)
800017d8:	ce9ff06f          	j	800014c0 <vprintfmt+0x6c>
800017dc:	00002d97          	auipc	s11,0x2
800017e0:	6f4d8d93          	addi	s11,s11,1780 # 80003ed0 <main+0xe30>
800017e4:	000d8793          	mv	a5,s11
800017e8:	013d86b3          	add	a3,s11,s3
800017ec:	00099863          	bnez	s3,800017fc <vprintfmt+0x3a8>
800017f0:	1340006f          	j	80001924 <vprintfmt+0x4d0>
800017f4:	00178793          	addi	a5,a5,1
800017f8:	00d78663          	beq	a5,a3,80001804 <vprintfmt+0x3b0>
800017fc:	0007c703          	lbu	a4,0(a5)
80001800:	fe071ae3          	bnez	a4,800017f4 <vprintfmt+0x3a0>
80001804:	41b787b3          	sub	a5,a5,s11
80001808:	40fa0a33          	sub	s4,s4,a5
8000180c:	11404c63          	bgtz	s4,80001924 <vprintfmt+0x4d0>
80001810:	000dc503          	lbu	a0,0(s11)
80001814:	fc0500e3          	beqz	a0,800017d4 <vprintfmt+0x380>
80001818:	fff00b93          	li	s7,-1
8000181c:	f7dff06f          	j	80001798 <vprintfmt+0x344>
80001820:	fffa4793          	not	a5,s4
80001824:	41f7d793          	srai	a5,a5,0x1f
80001828:	00174683          	lbu	a3,1(a4)
8000182c:	00fa7a33          	and	s4,s4,a5
80001830:	00040713          	mv	a4,s0
80001834:	cb9ff06f          	j	800014ec <vprintfmt+0x98>
80001838:	00812783          	lw	a5,8(sp)
8000183c:	00048593          	mv	a1,s1
80001840:	0007a503          	lw	a0,0(a5)
80001844:	00478b13          	addi	s6,a5,4
80001848:	000900e7          	jalr	s2
8000184c:	01612423          	sw	s6,8(sp)
80001850:	c71ff06f          	j	800014c0 <vprintfmt+0x6c>
80001854:	00174683          	lbu	a3,1(a4)
80001858:	00158593          	addi	a1,a1,1
8000185c:	00040713          	mv	a4,s0
80001860:	c8dff06f          	j	800014ec <vprintfmt+0x98>
80001864:	00812783          	lw	a5,8(sp)
80001868:	00778b13          	addi	s6,a5,7
8000186c:	ff8b7b13          	andi	s6,s6,-8
80001870:	008b0793          	addi	a5,s6,8
80001874:	000b2983          	lw	s3,0(s6)
80001878:	004b2d83          	lw	s11,4(s6)
8000187c:	00f12423          	sw	a5,8(sp)
80001880:	dc5ff06f          	j	80001644 <vprintfmt+0x1f0>
80001884:	df89f2e3          	bgeu	s3,s8,80001668 <vprintfmt+0x214>
80001888:	00100793          	li	a5,1
8000188c:	00012023          	sw	zero,0(sp)
80001890:	00100d13          	li	s10,1
80001894:	e347c4e3          	blt	a5,s4,800016bc <vprintfmt+0x268>
80001898:	e39ff06f          	j	800016d0 <vprintfmt+0x27c>
8000189c:	00812783          	lw	a5,8(sp)
800018a0:	00778b13          	addi	s6,a5,7
800018a4:	ff8b7b13          	andi	s6,s6,-8
800018a8:	008b0793          	addi	a5,s6,8
800018ac:	000b2983          	lw	s3,0(s6)
800018b0:	004b2c03          	lw	s8,4(s6)
800018b4:	00f12423          	sw	a5,8(sp)
800018b8:	e89ff06f          	j	80001740 <vprintfmt+0x2ec>
800018bc:	00812703          	lw	a4,8(sp)
800018c0:	e75ff06f          	j	80001734 <vprintfmt+0x2e0>
800018c4:	00800c13          	li	s8,8
800018c8:	00012223          	sw	zero,4(sp)
800018cc:	e91ff06f          	j	8000175c <vprintfmt+0x308>
800018d0:	00a00c13          	li	s8,10
800018d4:	00012223          	sw	zero,4(sp)
800018d8:	e85ff06f          	j	8000175c <vprintfmt+0x308>
800018dc:	00048593          	mv	a1,s1
800018e0:	02d00513          	li	a0,45
800018e4:	000900e7          	jalr	s2
800018e8:	01303733          	snez	a4,s3
800018ec:	418007b3          	neg	a5,s8
800018f0:	413009b3          	neg	s3,s3
800018f4:	40e78db3          	sub	s11,a5,a4
800018f8:	00a00c13          	li	s8,10
800018fc:	00012223          	sw	zero,4(sp)
80001900:	d45ff06f          	j	80001644 <vprintfmt+0x1f0>
80001904:	01405663          	blez	s4,80001910 <vprintfmt+0x4bc>
80001908:	02d00793          	li	a5,45
8000190c:	ecfb98e3          	bne	s7,a5,800017dc <vprintfmt+0x388>
80001910:	00002d97          	auipc	s11,0x2
80001914:	5c0d8d93          	addi	s11,s11,1472 # 80003ed0 <main+0xe30>
80001918:	02800513          	li	a0,40
8000191c:	fff00b93          	li	s7,-1
80001920:	e79ff06f          	j	80001798 <vprintfmt+0x344>
80001924:	fffa0a13          	addi	s4,s4,-1
80001928:	00048593          	mv	a1,s1
8000192c:	000b8513          	mv	a0,s7
80001930:	000900e7          	jalr	s2
80001934:	ec0a0ee3          	beqz	s4,80001810 <vprintfmt+0x3bc>
80001938:	fffa0a13          	addi	s4,s4,-1
8000193c:	00048593          	mv	a1,s1
80001940:	000b8513          	mv	a0,s7
80001944:	000900e7          	jalr	s2
80001948:	fc0a1ee3          	bnez	s4,80001924 <vprintfmt+0x4d0>
8000194c:	ec5ff06f          	j	80001810 <vprintfmt+0x3bc>

80001950 <sprintf_putch.3055>:
80001950:	0005a783          	lw	a5,0(a1)
80001954:	00a78023          	sb	a0,0(a5)
80001958:	0005a783          	lw	a5,0(a1)
8000195c:	00178793          	addi	a5,a5,1
80001960:	00f5a023          	sw	a5,0(a1)
80001964:	00008067          	ret

80001968 <syscall.constprop.0>:
80001968:	f8010113          	addi	sp,sp,-128
8000196c:	03f10813          	addi	a6,sp,63
80001970:	fc087813          	andi	a6,a6,-64
80001974:	04000713          	li	a4,64
80001978:	00e82023          	sw	a4,0(a6)
8000197c:	00000793          	li	a5,0
80001980:	00f82223          	sw	a5,4(a6)
80001984:	00100713          	li	a4,1
80001988:	00e82423          	sw	a4,8(a6)
8000198c:	00000793          	li	a5,0
80001990:	00f82623          	sw	a5,12(a6)
80001994:	00a82823          	sw	a0,16(a6)
80001998:	00b82a23          	sw	a1,20(a6)
8000199c:	00c82c23          	sw	a2,24(a6)
800019a0:	00d82e23          	sw	a3,28(a6)
800019a4:	0ff0000f          	fence
800019a8:	fffff697          	auipc	a3,0xfffff
800019ac:	65868693          	addi	a3,a3,1624 # 80001000 <tohost>
800019b0:	0106a023          	sw	a6,0(a3)
800019b4:	00000793          	li	a5,0
800019b8:	00f6a223          	sw	a5,4(a3)
800019bc:	fffff697          	auipc	a3,0xfffff
800019c0:	68468693          	addi	a3,a3,1668 # 80001040 <fromhost>
800019c4:	0006a703          	lw	a4,0(a3)
800019c8:	0046a783          	lw	a5,4(a3)
800019cc:	00f76733          	or	a4,a4,a5
800019d0:	fe070ae3          	beqz	a4,800019c4 <syscall.constprop.0+0x5c>
800019d4:	00000713          	li	a4,0
800019d8:	00e6a023          	sw	a4,0(a3)
800019dc:	00000793          	li	a5,0
800019e0:	00f6a223          	sw	a5,4(a3)
800019e4:	0ff0000f          	fence
800019e8:	00082503          	lw	a0,0(a6)
800019ec:	00482583          	lw	a1,4(a6)
800019f0:	08010113          	addi	sp,sp,128
800019f4:	00008067          	ret

800019f8 <putchar>:
800019f8:	ff010113          	addi	sp,sp,-16
800019fc:	00812423          	sw	s0,8(sp)
80001a00:	04022583          	lw	a1,64(tp) # 40 <buflen.2941>
80001a04:	00020793          	mv	a5,tp
80001a08:	00112623          	sw	ra,12(sp)
80001a0c:	00b787b3          	add	a5,a5,a1
80001a10:	00158613          	addi	a2,a1,1
80001a14:	00a78023          	sb	a0,0(a5)
80001a18:	04c22023          	sw	a2,64(tp) # 40 <buflen.2941>
80001a1c:	00a00793          	li	a5,10
80001a20:	02f50063          	beq	a0,a5,80001a40 <putchar+0x48>
80001a24:	04000793          	li	a5,64
80001a28:	00f60c63          	beq	a2,a5,80001a40 <putchar+0x48>
80001a2c:	00c12083          	lw	ra,12(sp)
80001a30:	00812403          	lw	s0,8(sp)
80001a34:	00000513          	li	a0,0
80001a38:	01010113          	addi	sp,sp,16
80001a3c:	00008067          	ret
80001a40:	41f65693          	srai	a3,a2,0x1f
80001a44:	00020513          	mv	a0,tp
80001a48:	00000593          	li	a1,0
80001a4c:	f1dff0ef          	jal	ra,80001968 <syscall.constprop.0>
80001a50:	00c12083          	lw	ra,12(sp)
80001a54:	04022023          	sw	zero,64(tp) # 40 <buflen.2941>
80001a58:	00812403          	lw	s0,8(sp)
80001a5c:	00000513          	li	a0,0
80001a60:	01010113          	addi	sp,sp,16
80001a64:	00008067          	ret

80001a68 <setStats>:
80001a68:	b0002773          	csrr	a4,mcycle
80001a6c:	00003797          	auipc	a5,0x3
80001a70:	83878793          	addi	a5,a5,-1992 # 800042a4 <counters>
80001a74:	00051e63          	bnez	a0,80001a90 <setStats+0x28>
80001a78:	0007a683          	lw	a3,0(a5)
80001a7c:	00002617          	auipc	a2,0x2
80001a80:	45c60613          	addi	a2,a2,1116 # 80003ed8 <main+0xe38>
80001a84:	00003597          	auipc	a1,0x3
80001a88:	80c5ac23          	sw	a2,-2024(a1) # 8000429c <counter_names>
80001a8c:	40d70733          	sub	a4,a4,a3
80001a90:	00e7a023          	sw	a4,0(a5)
80001a94:	b0202773          	csrr	a4,minstret
80001a98:	00051e63          	bnez	a0,80001ab4 <setStats+0x4c>
80001a9c:	0047a683          	lw	a3,4(a5)
80001aa0:	00002617          	auipc	a2,0x2
80001aa4:	44060613          	addi	a2,a2,1088 # 80003ee0 <main+0xe40>
80001aa8:	00002597          	auipc	a1,0x2
80001aac:	7ec5ac23          	sw	a2,2040(a1) # 800042a0 <counter_names+0x4>
80001ab0:	40d70733          	sub	a4,a4,a3
80001ab4:	00e7a223          	sw	a4,4(a5)
80001ab8:	00008067          	ret

80001abc <tohost_exit>:
80001abc:	00151693          	slli	a3,a0,0x1
80001ac0:	0016e713          	ori	a4,a3,1
80001ac4:	fffff697          	auipc	a3,0xfffff
80001ac8:	53c68693          	addi	a3,a3,1340 # 80001000 <tohost>
80001acc:	00000793          	li	a5,0
80001ad0:	00e6a023          	sw	a4,0(a3)
80001ad4:	00f6a223          	sw	a5,4(a3)
80001ad8:	0000006f          	j	80001ad8 <tohost_exit+0x1c>

80001adc <handle_trap>:
80001adc:	00001637          	lui	a2,0x1
80001ae0:	fffff797          	auipc	a5,0xfffff
80001ae4:	52078793          	addi	a5,a5,1312 # 80001000 <tohost>
80001ae8:	a7360613          	addi	a2,a2,-1421 # a73 <buflen.2941+0xa33>
80001aec:	00000693          	li	a3,0
80001af0:	00c7a023          	sw	a2,0(a5)
80001af4:	00d7a223          	sw	a3,4(a5)
80001af8:	0000006f          	j	80001af8 <handle_trap+0x1c>

80001afc <exit>:
80001afc:	ff010113          	addi	sp,sp,-16
80001b00:	00112623          	sw	ra,12(sp)
80001b04:	fb9ff0ef          	jal	ra,80001abc <tohost_exit>

80001b08 <abort>:
80001b08:	fffff797          	auipc	a5,0xfffff
80001b0c:	4f878793          	addi	a5,a5,1272 # 80001000 <tohost>
80001b10:	10d00613          	li	a2,269
80001b14:	00000693          	li	a3,0
80001b18:	00c7a023          	sw	a2,0(a5)
80001b1c:	00d7a223          	sw	a3,4(a5)
80001b20:	0000006f          	j	80001b20 <abort+0x18>

80001b24 <printstr>:
80001b24:	00054783          	lbu	a5,0(a0)
80001b28:	02078263          	beqz	a5,80001b4c <printstr+0x28>
80001b2c:	00050613          	mv	a2,a0
80001b30:	00164783          	lbu	a5,1(a2)
80001b34:	00160613          	addi	a2,a2,1
80001b38:	fe079ce3          	bnez	a5,80001b30 <printstr+0xc>
80001b3c:	40a60633          	sub	a2,a2,a0
80001b40:	00000693          	li	a3,0
80001b44:	00000593          	li	a1,0
80001b48:	e21ff06f          	j	80001968 <syscall.constprop.0>
80001b4c:	00000613          	li	a2,0
80001b50:	00000693          	li	a3,0
80001b54:	00000593          	li	a1,0
80001b58:	e11ff06f          	j	80001968 <syscall.constprop.0>

80001b5c <thread_entry>:
80001b5c:	00051063          	bnez	a0,80001b5c <thread_entry>
80001b60:	00008067          	ret

80001b64 <printhex>:
80001b64:	fd010113          	addi	sp,sp,-48
80001b68:	00050713          	mv	a4,a0
80001b6c:	02112623          	sw	ra,44(sp)
80001b70:	00c10513          	addi	a0,sp,12
80001b74:	01b10613          	addi	a2,sp,27
80001b78:	00900813          	li	a6,9
80001b7c:	0080006f          	j	80001b84 <printhex+0x20>
80001b80:	00078613          	mv	a2,a5
80001b84:	00f77793          	andi	a5,a4,15
80001b88:	00f837b3          	sltu	a5,a6,a5
80001b8c:	40f007b3          	neg	a5,a5
80001b90:	0277f793          	andi	a5,a5,39
80001b94:	00f77693          	andi	a3,a4,15
80001b98:	03078793          	addi	a5,a5,48
80001b9c:	00f687b3          	add	a5,a3,a5
80001ba0:	00f60023          	sb	a5,0(a2)
80001ba4:	01c59693          	slli	a3,a1,0x1c
80001ba8:	00475713          	srli	a4,a4,0x4
80001bac:	fff60793          	addi	a5,a2,-1
80001bb0:	00e6e733          	or	a4,a3,a4
80001bb4:	0045d593          	srli	a1,a1,0x4
80001bb8:	fcc514e3          	bne	a0,a2,80001b80 <printhex+0x1c>
80001bbc:	00010e23          	sb	zero,28(sp)
80001bc0:	f65ff0ef          	jal	ra,80001b24 <printstr>
80001bc4:	02c12083          	lw	ra,44(sp)
80001bc8:	03010113          	addi	sp,sp,48
80001bcc:	00008067          	ret

80001bd0 <printf>:
80001bd0:	fc010113          	addi	sp,sp,-64
80001bd4:	02410313          	addi	t1,sp,36
80001bd8:	00050e13          	mv	t3,a0
80001bdc:	02b12223          	sw	a1,36(sp)
80001be0:	02c12423          	sw	a2,40(sp)
80001be4:	02d12623          	sw	a3,44(sp)
80001be8:	00000517          	auipc	a0,0x0
80001bec:	e1050513          	addi	a0,a0,-496 # 800019f8 <putchar>
80001bf0:	00030693          	mv	a3,t1
80001bf4:	000e0613          	mv	a2,t3
80001bf8:	00000593          	li	a1,0
80001bfc:	00112e23          	sw	ra,28(sp)
80001c00:	02e12823          	sw	a4,48(sp)
80001c04:	02f12a23          	sw	a5,52(sp)
80001c08:	03012c23          	sw	a6,56(sp)
80001c0c:	03112e23          	sw	a7,60(sp)
80001c10:	00612623          	sw	t1,12(sp)
80001c14:	841ff0ef          	jal	ra,80001454 <vprintfmt>
80001c18:	01c12083          	lw	ra,28(sp)
80001c1c:	00000513          	li	a0,0
80001c20:	04010113          	addi	sp,sp,64
80001c24:	00008067          	ret

80001c28 <sprintf>:
80001c28:	fb010113          	addi	sp,sp,-80
80001c2c:	03810313          	addi	t1,sp,56
80001c30:	02812423          	sw	s0,40(sp)
80001c34:	00a12623          	sw	a0,12(sp)
80001c38:	02c12c23          	sw	a2,56(sp)
80001c3c:	02d12e23          	sw	a3,60(sp)
80001c40:	00050413          	mv	s0,a0
80001c44:	00058613          	mv	a2,a1
80001c48:	00000517          	auipc	a0,0x0
80001c4c:	d0850513          	addi	a0,a0,-760 # 80001950 <sprintf_putch.3055>
80001c50:	00c10593          	addi	a1,sp,12
80001c54:	00030693          	mv	a3,t1
80001c58:	02112623          	sw	ra,44(sp)
80001c5c:	04f12223          	sw	a5,68(sp)
80001c60:	04e12023          	sw	a4,64(sp)
80001c64:	05012423          	sw	a6,72(sp)
80001c68:	05112623          	sw	a7,76(sp)
80001c6c:	00612e23          	sw	t1,28(sp)
80001c70:	fe4ff0ef          	jal	ra,80001454 <vprintfmt>
80001c74:	00c12783          	lw	a5,12(sp)
80001c78:	00078023          	sb	zero,0(a5)
80001c7c:	00c12503          	lw	a0,12(sp)
80001c80:	02c12083          	lw	ra,44(sp)
80001c84:	40850533          	sub	a0,a0,s0
80001c88:	02812403          	lw	s0,40(sp)
80001c8c:	05010113          	addi	sp,sp,80
80001c90:	00008067          	ret

80001c94 <memcpy>:
80001c94:	00c5e7b3          	or	a5,a1,a2
80001c98:	00f567b3          	or	a5,a0,a5
80001c9c:	0037f793          	andi	a5,a5,3
80001ca0:	00c506b3          	add	a3,a0,a2
80001ca4:	02078463          	beqz	a5,80001ccc <memcpy+0x38>
80001ca8:	00c58633          	add	a2,a1,a2
80001cac:	00050793          	mv	a5,a0
80001cb0:	02d57e63          	bgeu	a0,a3,80001cec <memcpy+0x58>
80001cb4:	0005c703          	lbu	a4,0(a1)
80001cb8:	00158593          	addi	a1,a1,1
80001cbc:	00178793          	addi	a5,a5,1
80001cc0:	fee78fa3          	sb	a4,-1(a5)
80001cc4:	feb618e3          	bne	a2,a1,80001cb4 <memcpy+0x20>
80001cc8:	00008067          	ret
80001ccc:	fed57ee3          	bgeu	a0,a3,80001cc8 <memcpy+0x34>
80001cd0:	00050793          	mv	a5,a0
80001cd4:	0005a703          	lw	a4,0(a1)
80001cd8:	00478793          	addi	a5,a5,4
80001cdc:	00458593          	addi	a1,a1,4
80001ce0:	fee7ae23          	sw	a4,-4(a5)
80001ce4:	fed7e8e3          	bltu	a5,a3,80001cd4 <memcpy+0x40>
80001ce8:	00008067          	ret
80001cec:	00008067          	ret

80001cf0 <memset>:
80001cf0:	00c567b3          	or	a5,a0,a2
80001cf4:	0037f793          	andi	a5,a5,3
80001cf8:	00c50633          	add	a2,a0,a2
80001cfc:	02078063          	beqz	a5,80001d1c <memset+0x2c>
80001d00:	0ff5f593          	andi	a1,a1,255
80001d04:	00050793          	mv	a5,a0
80001d08:	04c57063          	bgeu	a0,a2,80001d48 <memset+0x58>
80001d0c:	00178793          	addi	a5,a5,1
80001d10:	feb78fa3          	sb	a1,-1(a5)
80001d14:	fef61ce3          	bne	a2,a5,80001d0c <memset+0x1c>
80001d18:	00008067          	ret
80001d1c:	0ff5f593          	andi	a1,a1,255
80001d20:	00859713          	slli	a4,a1,0x8
80001d24:	00e5e733          	or	a4,a1,a4
80001d28:	01071793          	slli	a5,a4,0x10
80001d2c:	00f76733          	or	a4,a4,a5
80001d30:	fec574e3          	bgeu	a0,a2,80001d18 <memset+0x28>
80001d34:	00050793          	mv	a5,a0
80001d38:	00478793          	addi	a5,a5,4
80001d3c:	fee7ae23          	sw	a4,-4(a5)
80001d40:	fec7ece3          	bltu	a5,a2,80001d38 <memset+0x48>
80001d44:	00008067          	ret
80001d48:	00008067          	ret

80001d4c <_init>:
80001d4c:	f6010113          	addi	sp,sp,-160
80001d50:	00005797          	auipc	a5,0x5
80001d54:	d3478793          	addi	a5,a5,-716 # 80006a84 <_tdata_begin>
80001d58:	09412423          	sw	s4,136(sp)
80001d5c:	00005a17          	auipc	s4,0x5
80001d60:	d28a0a13          	addi	s4,s4,-728 # 80006a84 <_tdata_begin>
80001d64:	09312623          	sw	s3,140(sp)
80001d68:	40fa09b3          	sub	s3,s4,a5
80001d6c:	08912a23          	sw	s1,148(sp)
80001d70:	09212823          	sw	s2,144(sp)
80001d74:	00050493          	mv	s1,a0
80001d78:	00058913          	mv	s2,a1
80001d7c:	00020513          	mv	a0,tp
80001d80:	00078593          	mv	a1,a5
80001d84:	00098613          	mv	a2,s3
80001d88:	08112e23          	sw	ra,156(sp)
80001d8c:	08812c23          	sw	s0,152(sp)
80001d90:	09512223          	sw	s5,132(sp)
80001d94:	00020a93          	mv	s5,tp
80001d98:	efdff0ef          	jal	ra,80001c94 <memcpy>
80001d9c:	00005617          	auipc	a2,0x5
80001da0:	d6860613          	addi	a2,a2,-664 # 80006b04 <_tbss_end>
80001da4:	41460633          	sub	a2,a2,s4
80001da8:	00000593          	li	a1,0
80001dac:	013a8533          	add	a0,s5,s3
80001db0:	f41ff0ef          	jal	ra,80001cf0 <memset>
80001db4:	00090593          	mv	a1,s2
80001db8:	00048513          	mv	a0,s1
80001dbc:	da1ff0ef          	jal	ra,80001b5c <thread_entry>
80001dc0:	00000593          	li	a1,0
80001dc4:	00000513          	li	a0,0
80001dc8:	2d8010ef          	jal	ra,800030a0 <main>
80001dcc:	00002917          	auipc	s2,0x2
80001dd0:	4d890913          	addi	s2,s2,1240 # 800042a4 <counters>
80001dd4:	00092683          	lw	a3,0(s2)
80001dd8:	03f10413          	addi	s0,sp,63
80001ddc:	fc047413          	andi	s0,s0,-64
80001de0:	00050493          	mv	s1,a0
80001de4:	04069463          	bnez	a3,80001e2c <_init+0xe0>
80001de8:	00492683          	lw	a3,4(s2)
80001dec:	00069663          	bnez	a3,80001df8 <_init+0xac>
80001df0:	00048513          	mv	a0,s1
80001df4:	cc9ff0ef          	jal	ra,80001abc <tohost_exit>
80001df8:	00040913          	mv	s2,s0
80001dfc:	00002997          	auipc	s3,0x2
80001e00:	4a098993          	addi	s3,s3,1184 # 8000429c <counter_names>
80001e04:	0049a603          	lw	a2,4(s3)
80001e08:	00090513          	mv	a0,s2
80001e0c:	00002597          	auipc	a1,0x2
80001e10:	0f858593          	addi	a1,a1,248 # 80003f04 <main+0xe64>
80001e14:	e15ff0ef          	jal	ra,80001c28 <sprintf>
80001e18:	00a90933          	add	s2,s2,a0
80001e1c:	fd240ae3          	beq	s0,s2,80001df0 <_init+0xa4>
80001e20:	00040513          	mv	a0,s0
80001e24:	d01ff0ef          	jal	ra,80001b24 <printstr>
80001e28:	fc9ff06f          	j	80001df0 <_init+0xa4>
80001e2c:	00002997          	auipc	s3,0x2
80001e30:	47098993          	addi	s3,s3,1136 # 8000429c <counter_names>
80001e34:	0009a603          	lw	a2,0(s3)
80001e38:	00002597          	auipc	a1,0x2
80001e3c:	0cc58593          	addi	a1,a1,204 # 80003f04 <main+0xe64>
80001e40:	00040513          	mv	a0,s0
80001e44:	de5ff0ef          	jal	ra,80001c28 <sprintf>
80001e48:	00492683          	lw	a3,4(s2)
80001e4c:	00a40933          	add	s2,s0,a0
80001e50:	fc0686e3          	beqz	a3,80001e1c <_init+0xd0>
80001e54:	fb1ff06f          	j	80001e04 <_init+0xb8>

80001e58 <strlen>:
80001e58:	00054783          	lbu	a5,0(a0)
80001e5c:	00078e63          	beqz	a5,80001e78 <strlen+0x20>
80001e60:	00050793          	mv	a5,a0
80001e64:	0017c703          	lbu	a4,1(a5)
80001e68:	00178793          	addi	a5,a5,1
80001e6c:	fe071ce3          	bnez	a4,80001e64 <strlen+0xc>
80001e70:	40a78533          	sub	a0,a5,a0
80001e74:	00008067          	ret
80001e78:	00000513          	li	a0,0
80001e7c:	00008067          	ret

80001e80 <strnlen>:
80001e80:	00050613          	mv	a2,a0
80001e84:	00b606b3          	add	a3,a2,a1
80001e88:	00058513          	mv	a0,a1
80001e8c:	00060793          	mv	a5,a2
80001e90:	00059863          	bnez	a1,80001ea0 <strnlen+0x20>
80001e94:	01c0006f          	j	80001eb0 <strnlen+0x30>
80001e98:	00178793          	addi	a5,a5,1
80001e9c:	00f68863          	beq	a3,a5,80001eac <strnlen+0x2c>
80001ea0:	0007c703          	lbu	a4,0(a5)
80001ea4:	fe071ae3          	bnez	a4,80001e98 <strnlen+0x18>
80001ea8:	40c78533          	sub	a0,a5,a2
80001eac:	00008067          	ret
80001eb0:	00008067          	ret

80001eb4 <strcmp>:
80001eb4:	00054783          	lbu	a5,0(a0)
80001eb8:	00158593          	addi	a1,a1,1
80001ebc:	00150513          	addi	a0,a0,1
80001ec0:	fff5c703          	lbu	a4,-1(a1)
80001ec4:	00078863          	beqz	a5,80001ed4 <strcmp+0x20>
80001ec8:	fee786e3          	beq	a5,a4,80001eb4 <strcmp>
80001ecc:	40e78533          	sub	a0,a5,a4
80001ed0:	00008067          	ret
80001ed4:	00000793          	li	a5,0
80001ed8:	ff5ff06f          	j	80001ecc <strcmp+0x18>

80001edc <strcpy>:
80001edc:	00050793          	mv	a5,a0
80001ee0:	0005c703          	lbu	a4,0(a1)
80001ee4:	00178793          	addi	a5,a5,1
80001ee8:	00158593          	addi	a1,a1,1
80001eec:	fee78fa3          	sb	a4,-1(a5)
80001ef0:	fe0718e3          	bnez	a4,80001ee0 <strcpy+0x4>
80001ef4:	00008067          	ret

80001ef8 <atol>:
80001ef8:	00054703          	lbu	a4,0(a0)
80001efc:	02000693          	li	a3,32
80001f00:	00050793          	mv	a5,a0
80001f04:	00d71863          	bne	a4,a3,80001f14 <atol+0x1c>
80001f08:	0017c703          	lbu	a4,1(a5)
80001f0c:	00178793          	addi	a5,a5,1
80001f10:	fed70ce3          	beq	a4,a3,80001f08 <atol+0x10>
80001f14:	02d00693          	li	a3,45
80001f18:	06d70063          	beq	a4,a3,80001f78 <atol+0x80>
80001f1c:	02b00693          	li	a3,43
80001f20:	04d70063          	beq	a4,a3,80001f60 <atol+0x68>
80001f24:	0007c683          	lbu	a3,0(a5)
80001f28:	00000593          	li	a1,0
80001f2c:	04068263          	beqz	a3,80001f70 <atol+0x78>
80001f30:	00000513          	li	a0,0
80001f34:	00178793          	addi	a5,a5,1
80001f38:	fd068613          	addi	a2,a3,-48
80001f3c:	00251713          	slli	a4,a0,0x2
80001f40:	0007c683          	lbu	a3,0(a5)
80001f44:	00a70533          	add	a0,a4,a0
80001f48:	00151513          	slli	a0,a0,0x1
80001f4c:	00a60533          	add	a0,a2,a0
80001f50:	fe0692e3          	bnez	a3,80001f34 <atol+0x3c>
80001f54:	02058063          	beqz	a1,80001f74 <atol+0x7c>
80001f58:	40a00533          	neg	a0,a0
80001f5c:	00008067          	ret
80001f60:	0017c683          	lbu	a3,1(a5)
80001f64:	00000593          	li	a1,0
80001f68:	00178793          	addi	a5,a5,1
80001f6c:	fc0692e3          	bnez	a3,80001f30 <atol+0x38>
80001f70:	00000513          	li	a0,0
80001f74:	00008067          	ret
80001f78:	0017c683          	lbu	a3,1(a5)
80001f7c:	00100593          	li	a1,1
80001f80:	00178793          	addi	a5,a5,1
80001f84:	fa0696e3          	bnez	a3,80001f30 <atol+0x38>
80001f88:	00000513          	li	a0,0
80001f8c:	fe9ff06f          	j	80001f74 <atol+0x7c>

80001f90 <__moddi3>:
80001f90:	fc010113          	addi	sp,sp,-64
80001f94:	02912a23          	sw	s1,52(sp)
80001f98:	01712e23          	sw	s7,28(sp)
80001f9c:	01912a23          	sw	s9,20(sp)
80001fa0:	02112e23          	sw	ra,60(sp)
80001fa4:	02812c23          	sw	s0,56(sp)
80001fa8:	03212823          	sw	s2,48(sp)
80001fac:	03312623          	sw	s3,44(sp)
80001fb0:	03412423          	sw	s4,40(sp)
80001fb4:	03512223          	sw	s5,36(sp)
80001fb8:	03612023          	sw	s6,32(sp)
80001fbc:	01812c23          	sw	s8,24(sp)
80001fc0:	01a12823          	sw	s10,16(sp)
80001fc4:	01b12623          	sw	s11,12(sp)
80001fc8:	00050b93          	mv	s7,a0
80001fcc:	00058c93          	mv	s9,a1
80001fd0:	00000493          	li	s1,0
80001fd4:	0005dc63          	bgez	a1,80001fec <__moddi3+0x5c>
80001fd8:	00a037b3          	snez	a5,a0
80001fdc:	40b00933          	neg	s2,a1
80001fe0:	40f90cb3          	sub	s9,s2,a5
80001fe4:	40a00bb3          	neg	s7,a0
80001fe8:	fff00493          	li	s1,-1
80001fec:	0006da63          	bgez	a3,80002000 <__moddi3+0x70>
80001ff0:	00c03933          	snez	s2,a2
80001ff4:	40d007b3          	neg	a5,a3
80001ff8:	412786b3          	sub	a3,a5,s2
80001ffc:	40c00633          	neg	a2,a2
80002000:	00060a93          	mv	s5,a2
80002004:	00068993          	mv	s3,a3
80002008:	000b8413          	mv	s0,s7
8000200c:	000c8913          	mv	s2,s9
80002010:	2a069863          	bnez	a3,800022c0 <__moddi3+0x330>
80002014:	80004a37          	lui	s4,0x80004
80002018:	068a0a13          	addi	s4,s4,104 # 80004068 <_tbss_end+0xffffd564>
8000201c:	14ccfe63          	bgeu	s9,a2,80002178 <__moddi3+0x1e8>
80002020:	000107b7          	lui	a5,0x10
80002024:	14f67063          	bgeu	a2,a5,80002164 <__moddi3+0x1d4>
80002028:	0ff00793          	li	a5,255
8000202c:	00c7f463          	bgeu	a5,a2,80002034 <__moddi3+0xa4>
80002030:	00800993          	li	s3,8
80002034:	013657b3          	srl	a5,a2,s3
80002038:	00fa0a33          	add	s4,s4,a5
8000203c:	000a4783          	lbu	a5,0(s4)
80002040:	02000713          	li	a4,32
80002044:	013787b3          	add	a5,a5,s3
80002048:	40f709b3          	sub	s3,a4,a5
8000204c:	00f70c63          	beq	a4,a5,80002064 <__moddi3+0xd4>
80002050:	013c96b3          	sll	a3,s9,s3
80002054:	00fbd7b3          	srl	a5,s7,a5
80002058:	01361ab3          	sll	s5,a2,s3
8000205c:	00d7e933          	or	s2,a5,a3
80002060:	013b9433          	sll	s0,s7,s3
80002064:	010adb13          	srli	s6,s5,0x10
80002068:	000b0593          	mv	a1,s6
8000206c:	00090513          	mv	a0,s2
80002070:	7cd000ef          	jal	ra,8000303c <__umodsi3>
80002074:	010a9b93          	slli	s7,s5,0x10
80002078:	00050a13          	mv	s4,a0
8000207c:	010bdb93          	srli	s7,s7,0x10
80002080:	000b0593          	mv	a1,s6
80002084:	00090513          	mv	a0,s2
80002088:	76d000ef          	jal	ra,80002ff4 <__udivsi3>
8000208c:	00050593          	mv	a1,a0
80002090:	000b8513          	mv	a0,s7
80002094:	735000ef          	jal	ra,80002fc8 <__mulsi3>
80002098:	010a1a13          	slli	s4,s4,0x10
8000209c:	01045793          	srli	a5,s0,0x10
800020a0:	00fa67b3          	or	a5,s4,a5
800020a4:	00a7fa63          	bgeu	a5,a0,800020b8 <__moddi3+0x128>
800020a8:	015787b3          	add	a5,a5,s5
800020ac:	0157e663          	bltu	a5,s5,800020b8 <__moddi3+0x128>
800020b0:	00a7f463          	bgeu	a5,a0,800020b8 <__moddi3+0x128>
800020b4:	015787b3          	add	a5,a5,s5
800020b8:	40a78933          	sub	s2,a5,a0
800020bc:	000b0593          	mv	a1,s6
800020c0:	00090513          	mv	a0,s2
800020c4:	779000ef          	jal	ra,8000303c <__umodsi3>
800020c8:	00050a13          	mv	s4,a0
800020cc:	000b0593          	mv	a1,s6
800020d0:	00090513          	mv	a0,s2
800020d4:	721000ef          	jal	ra,80002ff4 <__udivsi3>
800020d8:	01041413          	slli	s0,s0,0x10
800020dc:	00050593          	mv	a1,a0
800020e0:	010a1a13          	slli	s4,s4,0x10
800020e4:	000b8513          	mv	a0,s7
800020e8:	01045413          	srli	s0,s0,0x10
800020ec:	6dd000ef          	jal	ra,80002fc8 <__mulsi3>
800020f0:	008a6433          	or	s0,s4,s0
800020f4:	00a47a63          	bgeu	s0,a0,80002108 <__moddi3+0x178>
800020f8:	01540433          	add	s0,s0,s5
800020fc:	01546663          	bltu	s0,s5,80002108 <__moddi3+0x178>
80002100:	00a47463          	bgeu	s0,a0,80002108 <__moddi3+0x178>
80002104:	01540433          	add	s0,s0,s5
80002108:	40a40433          	sub	s0,s0,a0
8000210c:	01345533          	srl	a0,s0,s3
80002110:	00000593          	li	a1,0
80002114:	00048a63          	beqz	s1,80002128 <__moddi3+0x198>
80002118:	00a037b3          	snez	a5,a0
8000211c:	40b006b3          	neg	a3,a1
80002120:	40f685b3          	sub	a1,a3,a5
80002124:	40a00533          	neg	a0,a0
80002128:	03c12083          	lw	ra,60(sp)
8000212c:	03812403          	lw	s0,56(sp)
80002130:	03412483          	lw	s1,52(sp)
80002134:	03012903          	lw	s2,48(sp)
80002138:	02c12983          	lw	s3,44(sp)
8000213c:	02812a03          	lw	s4,40(sp)
80002140:	02412a83          	lw	s5,36(sp)
80002144:	02012b03          	lw	s6,32(sp)
80002148:	01c12b83          	lw	s7,28(sp)
8000214c:	01812c03          	lw	s8,24(sp)
80002150:	01412c83          	lw	s9,20(sp)
80002154:	01012d03          	lw	s10,16(sp)
80002158:	00c12d83          	lw	s11,12(sp)
8000215c:	04010113          	addi	sp,sp,64
80002160:	00008067          	ret
80002164:	010007b7          	lui	a5,0x1000
80002168:	01000993          	li	s3,16
8000216c:	ecf664e3          	bltu	a2,a5,80002034 <__moddi3+0xa4>
80002170:	01800993          	li	s3,24
80002174:	ec1ff06f          	j	80002034 <__moddi3+0xa4>
80002178:	00061a63          	bnez	a2,8000218c <__moddi3+0x1fc>
8000217c:	00000593          	li	a1,0
80002180:	00100513          	li	a0,1
80002184:	671000ef          	jal	ra,80002ff4 <__udivsi3>
80002188:	00050a93          	mv	s5,a0
8000218c:	000107b7          	lui	a5,0x10
80002190:	04fafc63          	bgeu	s5,a5,800021e8 <__moddi3+0x258>
80002194:	0ff00793          	li	a5,255
80002198:	0157f463          	bgeu	a5,s5,800021a0 <__moddi3+0x210>
8000219c:	00800993          	li	s3,8
800021a0:	013ad7b3          	srl	a5,s5,s3
800021a4:	00fa0a33          	add	s4,s4,a5
800021a8:	000a4783          	lbu	a5,0(s4)
800021ac:	02000713          	li	a4,32
800021b0:	013787b3          	add	a5,a5,s3
800021b4:	40f709b3          	sub	s3,a4,a5
800021b8:	04f71263          	bne	a4,a5,800021fc <__moddi3+0x26c>
800021bc:	415c8cb3          	sub	s9,s9,s5
800021c0:	010adb13          	srli	s6,s5,0x10
800021c4:	000b0593          	mv	a1,s6
800021c8:	000c8513          	mv	a0,s9
800021cc:	671000ef          	jal	ra,8000303c <__umodsi3>
800021d0:	010a9b93          	slli	s7,s5,0x10
800021d4:	00050a13          	mv	s4,a0
800021d8:	010bdb93          	srli	s7,s7,0x10
800021dc:	000b0593          	mv	a1,s6
800021e0:	000c8513          	mv	a0,s9
800021e4:	ea5ff06f          	j	80002088 <__moddi3+0xf8>
800021e8:	010007b7          	lui	a5,0x1000
800021ec:	01000993          	li	s3,16
800021f0:	fafae8e3          	bltu	s5,a5,800021a0 <__moddi3+0x210>
800021f4:	01800993          	li	s3,24
800021f8:	fa9ff06f          	j	800021a0 <__moddi3+0x210>
800021fc:	013a9ab3          	sll	s5,s5,s3
80002200:	00fcdb33          	srl	s6,s9,a5
80002204:	010ad913          	srli	s2,s5,0x10
80002208:	00fbd7b3          	srl	a5,s7,a5
8000220c:	013c96b3          	sll	a3,s9,s3
80002210:	00090593          	mv	a1,s2
80002214:	000b0513          	mv	a0,s6
80002218:	00d7ec33          	or	s8,a5,a3
8000221c:	621000ef          	jal	ra,8000303c <__umodsi3>
80002220:	00050a13          	mv	s4,a0
80002224:	00090593          	mv	a1,s2
80002228:	013b9433          	sll	s0,s7,s3
8000222c:	000b0513          	mv	a0,s6
80002230:	010a9b93          	slli	s7,s5,0x10
80002234:	5c1000ef          	jal	ra,80002ff4 <__udivsi3>
80002238:	010bdb93          	srli	s7,s7,0x10
8000223c:	00050593          	mv	a1,a0
80002240:	000b8513          	mv	a0,s7
80002244:	585000ef          	jal	ra,80002fc8 <__mulsi3>
80002248:	010a1a13          	slli	s4,s4,0x10
8000224c:	010c5793          	srli	a5,s8,0x10
80002250:	00fa67b3          	or	a5,s4,a5
80002254:	00a7fa63          	bgeu	a5,a0,80002268 <__moddi3+0x2d8>
80002258:	015787b3          	add	a5,a5,s5
8000225c:	0157e663          	bltu	a5,s5,80002268 <__moddi3+0x2d8>
80002260:	00a7f463          	bgeu	a5,a0,80002268 <__moddi3+0x2d8>
80002264:	015787b3          	add	a5,a5,s5
80002268:	40a78b33          	sub	s6,a5,a0
8000226c:	00090593          	mv	a1,s2
80002270:	000b0513          	mv	a0,s6
80002274:	5c9000ef          	jal	ra,8000303c <__umodsi3>
80002278:	00050a13          	mv	s4,a0
8000227c:	00090593          	mv	a1,s2
80002280:	000b0513          	mv	a0,s6
80002284:	571000ef          	jal	ra,80002ff4 <__udivsi3>
80002288:	00050593          	mv	a1,a0
8000228c:	000b8513          	mv	a0,s7
80002290:	539000ef          	jal	ra,80002fc8 <__mulsi3>
80002294:	010c1693          	slli	a3,s8,0x10
80002298:	010a1a13          	slli	s4,s4,0x10
8000229c:	0106d693          	srli	a3,a3,0x10
800022a0:	00da66b3          	or	a3,s4,a3
800022a4:	00a6fa63          	bgeu	a3,a0,800022b8 <__moddi3+0x328>
800022a8:	015686b3          	add	a3,a3,s5
800022ac:	0156e663          	bltu	a3,s5,800022b8 <__moddi3+0x328>
800022b0:	00a6f463          	bgeu	a3,a0,800022b8 <__moddi3+0x328>
800022b4:	015686b3          	add	a3,a3,s5
800022b8:	40a68cb3          	sub	s9,a3,a0
800022bc:	f05ff06f          	j	800021c0 <__moddi3+0x230>
800022c0:	00dcf863          	bgeu	s9,a3,800022d0 <__moddi3+0x340>
800022c4:	000b8513          	mv	a0,s7
800022c8:	000c8593          	mv	a1,s9
800022cc:	e49ff06f          	j	80002114 <__moddi3+0x184>
800022d0:	000107b7          	lui	a5,0x10
800022d4:	04f6fc63          	bgeu	a3,a5,8000232c <__moddi3+0x39c>
800022d8:	0ff00b13          	li	s6,255
800022dc:	00db3533          	sltu	a0,s6,a3
800022e0:	00351513          	slli	a0,a0,0x3
800022e4:	800047b7          	lui	a5,0x80004
800022e8:	00a6d733          	srl	a4,a3,a0
800022ec:	06878793          	addi	a5,a5,104 # 80004068 <_tbss_end+0xffffd564>
800022f0:	00e787b3          	add	a5,a5,a4
800022f4:	0007cb03          	lbu	s6,0(a5)
800022f8:	02000793          	li	a5,32
800022fc:	00ab0b33          	add	s6,s6,a0
80002300:	41678a33          	sub	s4,a5,s6
80002304:	03679e63          	bne	a5,s6,80002340 <__moddi3+0x3b0>
80002308:	0196e463          	bltu	a3,s9,80002310 <__moddi3+0x380>
8000230c:	00cbea63          	bltu	s7,a2,80002320 <__moddi3+0x390>
80002310:	40cb8433          	sub	s0,s7,a2
80002314:	40dc86b3          	sub	a3,s9,a3
80002318:	008bbbb3          	sltu	s7,s7,s0
8000231c:	41768933          	sub	s2,a3,s7
80002320:	00040513          	mv	a0,s0
80002324:	00090593          	mv	a1,s2
80002328:	dedff06f          	j	80002114 <__moddi3+0x184>
8000232c:	010007b7          	lui	a5,0x1000
80002330:	01000513          	li	a0,16
80002334:	faf6e8e3          	bltu	a3,a5,800022e4 <__moddi3+0x354>
80002338:	01800513          	li	a0,24
8000233c:	fa9ff06f          	j	800022e4 <__moddi3+0x354>
80002340:	016657b3          	srl	a5,a2,s6
80002344:	014696b3          	sll	a3,a3,s4
80002348:	00d7ed33          	or	s10,a5,a3
8000234c:	016cd433          	srl	s0,s9,s6
80002350:	010d5c13          	srli	s8,s10,0x10
80002354:	014c96b3          	sll	a3,s9,s4
80002358:	016bd933          	srl	s2,s7,s6
8000235c:	000c0593          	mv	a1,s8
80002360:	00040513          	mv	a0,s0
80002364:	00d96933          	or	s2,s2,a3
80002368:	01461db3          	sll	s11,a2,s4
8000236c:	4d1000ef          	jal	ra,8000303c <__umodsi3>
80002370:	00050a93          	mv	s5,a0
80002374:	000c0593          	mv	a1,s8
80002378:	00040513          	mv	a0,s0
8000237c:	010d1c93          	slli	s9,s10,0x10
80002380:	475000ef          	jal	ra,80002ff4 <__udivsi3>
80002384:	010cdc93          	srli	s9,s9,0x10
80002388:	00050413          	mv	s0,a0
8000238c:	00050593          	mv	a1,a0
80002390:	000c8513          	mv	a0,s9
80002394:	435000ef          	jal	ra,80002fc8 <__mulsi3>
80002398:	010a9a93          	slli	s5,s5,0x10
8000239c:	01095713          	srli	a4,s2,0x10
800023a0:	00eae733          	or	a4,s5,a4
800023a4:	014b9bb3          	sll	s7,s7,s4
800023a8:	00040a93          	mv	s5,s0
800023ac:	00a77e63          	bgeu	a4,a0,800023c8 <__moddi3+0x438>
800023b0:	01a70733          	add	a4,a4,s10
800023b4:	fff40a93          	addi	s5,s0,-1
800023b8:	01a76863          	bltu	a4,s10,800023c8 <__moddi3+0x438>
800023bc:	00a77663          	bgeu	a4,a0,800023c8 <__moddi3+0x438>
800023c0:	ffe40a93          	addi	s5,s0,-2
800023c4:	01a70733          	add	a4,a4,s10
800023c8:	40a709b3          	sub	s3,a4,a0
800023cc:	000c0593          	mv	a1,s8
800023d0:	00098513          	mv	a0,s3
800023d4:	469000ef          	jal	ra,8000303c <__umodsi3>
800023d8:	00050413          	mv	s0,a0
800023dc:	000c0593          	mv	a1,s8
800023e0:	00098513          	mv	a0,s3
800023e4:	411000ef          	jal	ra,80002ff4 <__udivsi3>
800023e8:	00050993          	mv	s3,a0
800023ec:	00050593          	mv	a1,a0
800023f0:	000c8513          	mv	a0,s9
800023f4:	3d5000ef          	jal	ra,80002fc8 <__mulsi3>
800023f8:	01091693          	slli	a3,s2,0x10
800023fc:	01041413          	slli	s0,s0,0x10
80002400:	0106d693          	srli	a3,a3,0x10
80002404:	00d466b3          	or	a3,s0,a3
80002408:	00098793          	mv	a5,s3
8000240c:	00a6fe63          	bgeu	a3,a0,80002428 <__moddi3+0x498>
80002410:	01a686b3          	add	a3,a3,s10
80002414:	fff98793          	addi	a5,s3,-1
80002418:	01a6e863          	bltu	a3,s10,80002428 <__moddi3+0x498>
8000241c:	00a6f663          	bgeu	a3,a0,80002428 <__moddi3+0x498>
80002420:	ffe98793          	addi	a5,s3,-2
80002424:	01a686b3          	add	a3,a3,s10
80002428:	00010337          	lui	t1,0x10
8000242c:	010a9a93          	slli	s5,s5,0x10
80002430:	00faeab3          	or	s5,s5,a5
80002434:	fff30813          	addi	a6,t1,-1 # ffff <buflen.2941+0xffbf>
80002438:	010af733          	and	a4,s5,a6
8000243c:	010df833          	and	a6,s11,a6
80002440:	40a68933          	sub	s2,a3,a0
80002444:	010ada93          	srli	s5,s5,0x10
80002448:	010dd893          	srli	a7,s11,0x10
8000244c:	00070513          	mv	a0,a4
80002450:	00080593          	mv	a1,a6
80002454:	375000ef          	jal	ra,80002fc8 <__mulsi3>
80002458:	00050793          	mv	a5,a0
8000245c:	00088593          	mv	a1,a7
80002460:	00070513          	mv	a0,a4
80002464:	365000ef          	jal	ra,80002fc8 <__mulsi3>
80002468:	00050713          	mv	a4,a0
8000246c:	00080593          	mv	a1,a6
80002470:	000a8513          	mv	a0,s5
80002474:	355000ef          	jal	ra,80002fc8 <__mulsi3>
80002478:	00050813          	mv	a6,a0
8000247c:	00088593          	mv	a1,a7
80002480:	000a8513          	mv	a0,s5
80002484:	345000ef          	jal	ra,80002fc8 <__mulsi3>
80002488:	01070733          	add	a4,a4,a6
8000248c:	0107d693          	srli	a3,a5,0x10
80002490:	00d70733          	add	a4,a4,a3
80002494:	01077463          	bgeu	a4,a6,8000249c <__moddi3+0x50c>
80002498:	00650533          	add	a0,a0,t1
8000249c:	01075593          	srli	a1,a4,0x10
800024a0:	00a585b3          	add	a1,a1,a0
800024a4:	00010537          	lui	a0,0x10
800024a8:	fff50513          	addi	a0,a0,-1 # ffff <buflen.2941+0xffbf>
800024ac:	00a77733          	and	a4,a4,a0
800024b0:	01071713          	slli	a4,a4,0x10
800024b4:	00a7f7b3          	and	a5,a5,a0
800024b8:	00f707b3          	add	a5,a4,a5
800024bc:	00b96663          	bltu	s2,a1,800024c8 <__moddi3+0x538>
800024c0:	00b91e63          	bne	s2,a1,800024dc <__moddi3+0x54c>
800024c4:	00fbfc63          	bgeu	s7,a5,800024dc <__moddi3+0x54c>
800024c8:	41b78633          	sub	a2,a5,s11
800024cc:	00c7b7b3          	sltu	a5,a5,a2
800024d0:	01a787b3          	add	a5,a5,s10
800024d4:	40f585b3          	sub	a1,a1,a5
800024d8:	00060793          	mv	a5,a2
800024dc:	40fb87b3          	sub	a5,s7,a5
800024e0:	00fbbbb3          	sltu	s7,s7,a5
800024e4:	40b905b3          	sub	a1,s2,a1
800024e8:	417585b3          	sub	a1,a1,s7
800024ec:	01659433          	sll	s0,a1,s6
800024f0:	0147d7b3          	srl	a5,a5,s4
800024f4:	00f46533          	or	a0,s0,a5
800024f8:	0145d5b3          	srl	a1,a1,s4
800024fc:	c19ff06f          	j	80002114 <__moddi3+0x184>

80002500 <__udivdi3>:
80002500:	fd010113          	addi	sp,sp,-48
80002504:	02812423          	sw	s0,40(sp)
80002508:	01712623          	sw	s7,12(sp)
8000250c:	02112623          	sw	ra,44(sp)
80002510:	02912223          	sw	s1,36(sp)
80002514:	03212023          	sw	s2,32(sp)
80002518:	01312e23          	sw	s3,28(sp)
8000251c:	01412c23          	sw	s4,24(sp)
80002520:	01512a23          	sw	s5,20(sp)
80002524:	01612823          	sw	s6,16(sp)
80002528:	01812423          	sw	s8,8(sp)
8000252c:	01912223          	sw	s9,4(sp)
80002530:	00050b93          	mv	s7,a0
80002534:	00058413          	mv	s0,a1
80002538:	38069c63          	bnez	a3,800028d0 <__udivdi3+0x3d0>
8000253c:	800044b7          	lui	s1,0x80004
80002540:	00060913          	mv	s2,a2
80002544:	00050a13          	mv	s4,a0
80002548:	06848493          	addi	s1,s1,104 # 80004068 <_tbss_end+0xffffd564>
8000254c:	12c5f863          	bgeu	a1,a2,8000267c <__udivdi3+0x17c>
80002550:	000107b7          	lui	a5,0x10
80002554:	00058c13          	mv	s8,a1
80002558:	10f67863          	bgeu	a2,a5,80002668 <__udivdi3+0x168>
8000255c:	0ff00713          	li	a4,255
80002560:	00c73733          	sltu	a4,a4,a2
80002564:	00371713          	slli	a4,a4,0x3
80002568:	00e657b3          	srl	a5,a2,a4
8000256c:	00f484b3          	add	s1,s1,a5
80002570:	0004c683          	lbu	a3,0(s1)
80002574:	00e68733          	add	a4,a3,a4
80002578:	02000693          	li	a3,32
8000257c:	40e687b3          	sub	a5,a3,a4
80002580:	00e68c63          	beq	a3,a4,80002598 <__udivdi3+0x98>
80002584:	00f41433          	sll	s0,s0,a5
80002588:	00ebd733          	srl	a4,s7,a4
8000258c:	00f61933          	sll	s2,a2,a5
80002590:	00876c33          	or	s8,a4,s0
80002594:	00fb9a33          	sll	s4,s7,a5
80002598:	01095b13          	srli	s6,s2,0x10
8000259c:	000b0593          	mv	a1,s6
800025a0:	000c0513          	mv	a0,s8
800025a4:	299000ef          	jal	ra,8000303c <__umodsi3>
800025a8:	00050493          	mv	s1,a0
800025ac:	000b0593          	mv	a1,s6
800025b0:	01091a93          	slli	s5,s2,0x10
800025b4:	000c0513          	mv	a0,s8
800025b8:	23d000ef          	jal	ra,80002ff4 <__udivsi3>
800025bc:	010ada93          	srli	s5,s5,0x10
800025c0:	00050413          	mv	s0,a0
800025c4:	00050593          	mv	a1,a0
800025c8:	000a8513          	mv	a0,s5
800025cc:	1fd000ef          	jal	ra,80002fc8 <__mulsi3>
800025d0:	01049493          	slli	s1,s1,0x10
800025d4:	010a5713          	srli	a4,s4,0x10
800025d8:	00e4e733          	or	a4,s1,a4
800025dc:	00040993          	mv	s3,s0
800025e0:	00a77e63          	bgeu	a4,a0,800025fc <__udivdi3+0xfc>
800025e4:	01270733          	add	a4,a4,s2
800025e8:	fff40993          	addi	s3,s0,-1
800025ec:	01276863          	bltu	a4,s2,800025fc <__udivdi3+0xfc>
800025f0:	00a77663          	bgeu	a4,a0,800025fc <__udivdi3+0xfc>
800025f4:	ffe40993          	addi	s3,s0,-2
800025f8:	01270733          	add	a4,a4,s2
800025fc:	40a70433          	sub	s0,a4,a0
80002600:	000b0593          	mv	a1,s6
80002604:	00040513          	mv	a0,s0
80002608:	235000ef          	jal	ra,8000303c <__umodsi3>
8000260c:	00050493          	mv	s1,a0
80002610:	000b0593          	mv	a1,s6
80002614:	00040513          	mv	a0,s0
80002618:	1dd000ef          	jal	ra,80002ff4 <__udivsi3>
8000261c:	010a1a13          	slli	s4,s4,0x10
80002620:	00050413          	mv	s0,a0
80002624:	00050593          	mv	a1,a0
80002628:	01049493          	slli	s1,s1,0x10
8000262c:	000a8513          	mv	a0,s5
80002630:	010a5a13          	srli	s4,s4,0x10
80002634:	195000ef          	jal	ra,80002fc8 <__mulsi3>
80002638:	0144ea33          	or	s4,s1,s4
8000263c:	00040613          	mv	a2,s0
80002640:	00aa7c63          	bgeu	s4,a0,80002658 <__udivdi3+0x158>
80002644:	01490a33          	add	s4,s2,s4
80002648:	fff40613          	addi	a2,s0,-1
8000264c:	012a6663          	bltu	s4,s2,80002658 <__udivdi3+0x158>
80002650:	00aa7463          	bgeu	s4,a0,80002658 <__udivdi3+0x158>
80002654:	ffe40613          	addi	a2,s0,-2
80002658:	01099793          	slli	a5,s3,0x10
8000265c:	00c7e7b3          	or	a5,a5,a2
80002660:	00000493          	li	s1,0
80002664:	1300006f          	j	80002794 <__udivdi3+0x294>
80002668:	010007b7          	lui	a5,0x1000
8000266c:	01000713          	li	a4,16
80002670:	eef66ce3          	bltu	a2,a5,80002568 <__udivdi3+0x68>
80002674:	01800713          	li	a4,24
80002678:	ef1ff06f          	j	80002568 <__udivdi3+0x68>
8000267c:	00068993          	mv	s3,a3
80002680:	00061a63          	bnez	a2,80002694 <__udivdi3+0x194>
80002684:	00000593          	li	a1,0
80002688:	00100513          	li	a0,1
8000268c:	169000ef          	jal	ra,80002ff4 <__udivsi3>
80002690:	00050913          	mv	s2,a0
80002694:	000107b7          	lui	a5,0x10
80002698:	12f97c63          	bgeu	s2,a5,800027d0 <__udivdi3+0x2d0>
8000269c:	0ff00793          	li	a5,255
800026a0:	0127f463          	bgeu	a5,s2,800026a8 <__udivdi3+0x1a8>
800026a4:	00800993          	li	s3,8
800026a8:	013957b3          	srl	a5,s2,s3
800026ac:	00f484b3          	add	s1,s1,a5
800026b0:	0004c783          	lbu	a5,0(s1)
800026b4:	02000693          	li	a3,32
800026b8:	013787b3          	add	a5,a5,s3
800026bc:	40f68733          	sub	a4,a3,a5
800026c0:	12f69263          	bne	a3,a5,800027e4 <__udivdi3+0x2e4>
800026c4:	41240433          	sub	s0,s0,s2
800026c8:	00100493          	li	s1,1
800026cc:	01095a93          	srli	s5,s2,0x10
800026d0:	000a8593          	mv	a1,s5
800026d4:	00040513          	mv	a0,s0
800026d8:	165000ef          	jal	ra,8000303c <__umodsi3>
800026dc:	00050993          	mv	s3,a0
800026e0:	000a8593          	mv	a1,s5
800026e4:	00040513          	mv	a0,s0
800026e8:	01091b13          	slli	s6,s2,0x10
800026ec:	109000ef          	jal	ra,80002ff4 <__udivsi3>
800026f0:	010b5b13          	srli	s6,s6,0x10
800026f4:	00050413          	mv	s0,a0
800026f8:	00050593          	mv	a1,a0
800026fc:	000b0513          	mv	a0,s6
80002700:	0c9000ef          	jal	ra,80002fc8 <__mulsi3>
80002704:	01099993          	slli	s3,s3,0x10
80002708:	010a5713          	srli	a4,s4,0x10
8000270c:	00e9e733          	or	a4,s3,a4
80002710:	00040b93          	mv	s7,s0
80002714:	00a77e63          	bgeu	a4,a0,80002730 <__udivdi3+0x230>
80002718:	01270733          	add	a4,a4,s2
8000271c:	fff40b93          	addi	s7,s0,-1
80002720:	01276863          	bltu	a4,s2,80002730 <__udivdi3+0x230>
80002724:	00a77663          	bgeu	a4,a0,80002730 <__udivdi3+0x230>
80002728:	ffe40b93          	addi	s7,s0,-2
8000272c:	01270733          	add	a4,a4,s2
80002730:	40a70433          	sub	s0,a4,a0
80002734:	000a8593          	mv	a1,s5
80002738:	00040513          	mv	a0,s0
8000273c:	101000ef          	jal	ra,8000303c <__umodsi3>
80002740:	00050993          	mv	s3,a0
80002744:	000a8593          	mv	a1,s5
80002748:	00040513          	mv	a0,s0
8000274c:	0a9000ef          	jal	ra,80002ff4 <__udivsi3>
80002750:	010a1a13          	slli	s4,s4,0x10
80002754:	00050413          	mv	s0,a0
80002758:	00050593          	mv	a1,a0
8000275c:	01099993          	slli	s3,s3,0x10
80002760:	000b0513          	mv	a0,s6
80002764:	010a5a13          	srli	s4,s4,0x10
80002768:	061000ef          	jal	ra,80002fc8 <__mulsi3>
8000276c:	0149ea33          	or	s4,s3,s4
80002770:	00040613          	mv	a2,s0
80002774:	00aa7c63          	bgeu	s4,a0,8000278c <__udivdi3+0x28c>
80002778:	01490a33          	add	s4,s2,s4
8000277c:	fff40613          	addi	a2,s0,-1
80002780:	012a6663          	bltu	s4,s2,8000278c <__udivdi3+0x28c>
80002784:	00aa7463          	bgeu	s4,a0,8000278c <__udivdi3+0x28c>
80002788:	ffe40613          	addi	a2,s0,-2
8000278c:	010b9793          	slli	a5,s7,0x10
80002790:	00c7e7b3          	or	a5,a5,a2
80002794:	00078513          	mv	a0,a5
80002798:	00048593          	mv	a1,s1
8000279c:	02c12083          	lw	ra,44(sp)
800027a0:	02812403          	lw	s0,40(sp)
800027a4:	02412483          	lw	s1,36(sp)
800027a8:	02012903          	lw	s2,32(sp)
800027ac:	01c12983          	lw	s3,28(sp)
800027b0:	01812a03          	lw	s4,24(sp)
800027b4:	01412a83          	lw	s5,20(sp)
800027b8:	01012b03          	lw	s6,16(sp)
800027bc:	00c12b83          	lw	s7,12(sp)
800027c0:	00812c03          	lw	s8,8(sp)
800027c4:	00412c83          	lw	s9,4(sp)
800027c8:	03010113          	addi	sp,sp,48
800027cc:	00008067          	ret
800027d0:	010007b7          	lui	a5,0x1000
800027d4:	01000993          	li	s3,16
800027d8:	ecf968e3          	bltu	s2,a5,800026a8 <__udivdi3+0x1a8>
800027dc:	01800993          	li	s3,24
800027e0:	ec9ff06f          	j	800026a8 <__udivdi3+0x1a8>
800027e4:	00e91933          	sll	s2,s2,a4
800027e8:	00f459b3          	srl	s3,s0,a5
800027ec:	00fbd7b3          	srl	a5,s7,a5
800027f0:	00e41433          	sll	s0,s0,a4
800027f4:	0087eab3          	or	s5,a5,s0
800027f8:	01095413          	srli	s0,s2,0x10
800027fc:	00040593          	mv	a1,s0
80002800:	00098513          	mv	a0,s3
80002804:	00eb9a33          	sll	s4,s7,a4
80002808:	035000ef          	jal	ra,8000303c <__umodsi3>
8000280c:	00050493          	mv	s1,a0
80002810:	00040593          	mv	a1,s0
80002814:	00098513          	mv	a0,s3
80002818:	01091b13          	slli	s6,s2,0x10
8000281c:	7d8000ef          	jal	ra,80002ff4 <__udivsi3>
80002820:	010b5b13          	srli	s6,s6,0x10
80002824:	00050993          	mv	s3,a0
80002828:	00050593          	mv	a1,a0
8000282c:	000b0513          	mv	a0,s6
80002830:	798000ef          	jal	ra,80002fc8 <__mulsi3>
80002834:	01049493          	slli	s1,s1,0x10
80002838:	010ad793          	srli	a5,s5,0x10
8000283c:	00f4e7b3          	or	a5,s1,a5
80002840:	00098b93          	mv	s7,s3
80002844:	00a7fe63          	bgeu	a5,a0,80002860 <__udivdi3+0x360>
80002848:	012787b3          	add	a5,a5,s2
8000284c:	fff98b93          	addi	s7,s3,-1
80002850:	0127e863          	bltu	a5,s2,80002860 <__udivdi3+0x360>
80002854:	00a7f663          	bgeu	a5,a0,80002860 <__udivdi3+0x360>
80002858:	ffe98b93          	addi	s7,s3,-2
8000285c:	012787b3          	add	a5,a5,s2
80002860:	40a789b3          	sub	s3,a5,a0
80002864:	00040593          	mv	a1,s0
80002868:	00098513          	mv	a0,s3
8000286c:	7d0000ef          	jal	ra,8000303c <__umodsi3>
80002870:	00040593          	mv	a1,s0
80002874:	00050493          	mv	s1,a0
80002878:	00098513          	mv	a0,s3
8000287c:	778000ef          	jal	ra,80002ff4 <__udivsi3>
80002880:	010a9413          	slli	s0,s5,0x10
80002884:	00050993          	mv	s3,a0
80002888:	00050593          	mv	a1,a0
8000288c:	01049493          	slli	s1,s1,0x10
80002890:	000b0513          	mv	a0,s6
80002894:	01045413          	srli	s0,s0,0x10
80002898:	730000ef          	jal	ra,80002fc8 <__mulsi3>
8000289c:	0084e433          	or	s0,s1,s0
800028a0:	00098793          	mv	a5,s3
800028a4:	00a47e63          	bgeu	s0,a0,800028c0 <__udivdi3+0x3c0>
800028a8:	01240433          	add	s0,s0,s2
800028ac:	fff98793          	addi	a5,s3,-1
800028b0:	01246863          	bltu	s0,s2,800028c0 <__udivdi3+0x3c0>
800028b4:	00a47663          	bgeu	s0,a0,800028c0 <__udivdi3+0x3c0>
800028b8:	ffe98793          	addi	a5,s3,-2
800028bc:	01240433          	add	s0,s0,s2
800028c0:	010b9493          	slli	s1,s7,0x10
800028c4:	40a40433          	sub	s0,s0,a0
800028c8:	00f4e4b3          	or	s1,s1,a5
800028cc:	e01ff06f          	j	800026cc <__udivdi3+0x1cc>
800028d0:	1ed5ee63          	bltu	a1,a3,80002acc <__udivdi3+0x5cc>
800028d4:	000107b7          	lui	a5,0x10
800028d8:	04f6f463          	bgeu	a3,a5,80002920 <__udivdi3+0x420>
800028dc:	0ff00a93          	li	s5,255
800028e0:	00dab733          	sltu	a4,s5,a3
800028e4:	00371713          	slli	a4,a4,0x3
800028e8:	800047b7          	lui	a5,0x80004
800028ec:	00e6d5b3          	srl	a1,a3,a4
800028f0:	06878793          	addi	a5,a5,104 # 80004068 <_tbss_end+0xffffd564>
800028f4:	00b787b3          	add	a5,a5,a1
800028f8:	0007ca83          	lbu	s5,0(a5)
800028fc:	02000793          	li	a5,32
80002900:	00ea8ab3          	add	s5,s5,a4
80002904:	415784b3          	sub	s1,a5,s5
80002908:	03579663          	bne	a5,s5,80002934 <__udivdi3+0x434>
8000290c:	00100793          	li	a5,1
80002910:	e886e2e3          	bltu	a3,s0,80002794 <__udivdi3+0x294>
80002914:	00cbb7b3          	sltu	a5,s7,a2
80002918:	0017c793          	xori	a5,a5,1
8000291c:	e79ff06f          	j	80002794 <__udivdi3+0x294>
80002920:	010007b7          	lui	a5,0x1000
80002924:	01000713          	li	a4,16
80002928:	fcf6e0e3          	bltu	a3,a5,800028e8 <__udivdi3+0x3e8>
8000292c:	01800713          	li	a4,24
80002930:	fb9ff06f          	j	800028e8 <__udivdi3+0x3e8>
80002934:	01565cb3          	srl	s9,a2,s5
80002938:	009696b3          	sll	a3,a3,s1
8000293c:	00dcecb3          	or	s9,s9,a3
80002940:	015459b3          	srl	s3,s0,s5
80002944:	00941433          	sll	s0,s0,s1
80002948:	015bdab3          	srl	s5,s7,s5
8000294c:	008aeab3          	or	s5,s5,s0
80002950:	010cd413          	srli	s0,s9,0x10
80002954:	00040593          	mv	a1,s0
80002958:	00098513          	mv	a0,s3
8000295c:	00961933          	sll	s2,a2,s1
80002960:	6dc000ef          	jal	ra,8000303c <__umodsi3>
80002964:	00050a13          	mv	s4,a0
80002968:	00040593          	mv	a1,s0
8000296c:	00098513          	mv	a0,s3
80002970:	010c9b13          	slli	s6,s9,0x10
80002974:	680000ef          	jal	ra,80002ff4 <__udivsi3>
80002978:	010b5b13          	srli	s6,s6,0x10
8000297c:	00050993          	mv	s3,a0
80002980:	00050593          	mv	a1,a0
80002984:	000b0513          	mv	a0,s6
80002988:	640000ef          	jal	ra,80002fc8 <__mulsi3>
8000298c:	010a1a13          	slli	s4,s4,0x10
80002990:	010ad713          	srli	a4,s5,0x10
80002994:	00ea6733          	or	a4,s4,a4
80002998:	00098c13          	mv	s8,s3
8000299c:	00a77e63          	bgeu	a4,a0,800029b8 <__udivdi3+0x4b8>
800029a0:	01970733          	add	a4,a4,s9
800029a4:	fff98c13          	addi	s8,s3,-1
800029a8:	01976863          	bltu	a4,s9,800029b8 <__udivdi3+0x4b8>
800029ac:	00a77663          	bgeu	a4,a0,800029b8 <__udivdi3+0x4b8>
800029b0:	ffe98c13          	addi	s8,s3,-2
800029b4:	01970733          	add	a4,a4,s9
800029b8:	40a709b3          	sub	s3,a4,a0
800029bc:	00040593          	mv	a1,s0
800029c0:	00098513          	mv	a0,s3
800029c4:	678000ef          	jal	ra,8000303c <__umodsi3>
800029c8:	00040593          	mv	a1,s0
800029cc:	00050a13          	mv	s4,a0
800029d0:	00098513          	mv	a0,s3
800029d4:	620000ef          	jal	ra,80002ff4 <__udivsi3>
800029d8:	010a9413          	slli	s0,s5,0x10
800029dc:	00050993          	mv	s3,a0
800029e0:	00050593          	mv	a1,a0
800029e4:	010a1a13          	slli	s4,s4,0x10
800029e8:	000b0513          	mv	a0,s6
800029ec:	01045413          	srli	s0,s0,0x10
800029f0:	5d8000ef          	jal	ra,80002fc8 <__mulsi3>
800029f4:	008a6433          	or	s0,s4,s0
800029f8:	00098613          	mv	a2,s3
800029fc:	00a47e63          	bgeu	s0,a0,80002a18 <__udivdi3+0x518>
80002a00:	01940433          	add	s0,s0,s9
80002a04:	fff98613          	addi	a2,s3,-1
80002a08:	01946863          	bltu	s0,s9,80002a18 <__udivdi3+0x518>
80002a0c:	00a47663          	bgeu	s0,a0,80002a18 <__udivdi3+0x518>
80002a10:	ffe98613          	addi	a2,s3,-2
80002a14:	01940433          	add	s0,s0,s9
80002a18:	010c1793          	slli	a5,s8,0x10
80002a1c:	00010e37          	lui	t3,0x10
80002a20:	00c7e7b3          	or	a5,a5,a2
80002a24:	fffe0313          	addi	t1,t3,-1 # ffff <buflen.2941+0xffbf>
80002a28:	0067f8b3          	and	a7,a5,t1
80002a2c:	00697333          	and	t1,s2,t1
80002a30:	40a40433          	sub	s0,s0,a0
80002a34:	0107de93          	srli	t4,a5,0x10
80002a38:	01095913          	srli	s2,s2,0x10
80002a3c:	00088513          	mv	a0,a7
80002a40:	00030593          	mv	a1,t1
80002a44:	584000ef          	jal	ra,80002fc8 <__mulsi3>
80002a48:	00050813          	mv	a6,a0
80002a4c:	00090593          	mv	a1,s2
80002a50:	00088513          	mv	a0,a7
80002a54:	574000ef          	jal	ra,80002fc8 <__mulsi3>
80002a58:	00050893          	mv	a7,a0
80002a5c:	00030593          	mv	a1,t1
80002a60:	000e8513          	mv	a0,t4
80002a64:	564000ef          	jal	ra,80002fc8 <__mulsi3>
80002a68:	00050313          	mv	t1,a0
80002a6c:	00090593          	mv	a1,s2
80002a70:	000e8513          	mv	a0,t4
80002a74:	554000ef          	jal	ra,80002fc8 <__mulsi3>
80002a78:	01085713          	srli	a4,a6,0x10
80002a7c:	006888b3          	add	a7,a7,t1
80002a80:	01170733          	add	a4,a4,a7
80002a84:	00050693          	mv	a3,a0
80002a88:	00677463          	bgeu	a4,t1,80002a90 <__udivdi3+0x590>
80002a8c:	01c506b3          	add	a3,a0,t3
80002a90:	01075513          	srli	a0,a4,0x10
80002a94:	00d506b3          	add	a3,a0,a3
80002a98:	02d46663          	bltu	s0,a3,80002ac4 <__udivdi3+0x5c4>
80002a9c:	bcd412e3          	bne	s0,a3,80002660 <__udivdi3+0x160>
80002aa0:	00010537          	lui	a0,0x10
80002aa4:	fff50513          	addi	a0,a0,-1 # ffff <buflen.2941+0xffbf>
80002aa8:	00a77733          	and	a4,a4,a0
80002aac:	01071713          	slli	a4,a4,0x10
80002ab0:	00a87833          	and	a6,a6,a0
80002ab4:	009b9bb3          	sll	s7,s7,s1
80002ab8:	01070733          	add	a4,a4,a6
80002abc:	00000493          	li	s1,0
80002ac0:	ccebfae3          	bgeu	s7,a4,80002794 <__udivdi3+0x294>
80002ac4:	fff78793          	addi	a5,a5,-1 # ffffff <buflen.2941+0xffffbf>
80002ac8:	b99ff06f          	j	80002660 <__udivdi3+0x160>
80002acc:	00000493          	li	s1,0
80002ad0:	00000793          	li	a5,0
80002ad4:	cc1ff06f          	j	80002794 <__udivdi3+0x294>

80002ad8 <__umoddi3>:
80002ad8:	fd010113          	addi	sp,sp,-48
80002adc:	02812423          	sw	s0,40(sp)
80002ae0:	02912223          	sw	s1,36(sp)
80002ae4:	03212023          	sw	s2,32(sp)
80002ae8:	01612823          	sw	s6,16(sp)
80002aec:	02112623          	sw	ra,44(sp)
80002af0:	01312e23          	sw	s3,28(sp)
80002af4:	01412c23          	sw	s4,24(sp)
80002af8:	01512a23          	sw	s5,20(sp)
80002afc:	01712623          	sw	s7,12(sp)
80002b00:	01812423          	sw	s8,8(sp)
80002b04:	01912223          	sw	s9,4(sp)
80002b08:	01a12023          	sw	s10,0(sp)
80002b0c:	00050913          	mv	s2,a0
80002b10:	00058b13          	mv	s6,a1
80002b14:	00050413          	mv	s0,a0
80002b18:	00058493          	mv	s1,a1
80002b1c:	26069c63          	bnez	a3,80002d94 <__umoddi3+0x2bc>
80002b20:	80004ab7          	lui	s5,0x80004
80002b24:	00060a13          	mv	s4,a2
80002b28:	00068993          	mv	s3,a3
80002b2c:	068a8a93          	addi	s5,s5,104 # 80004068 <_tbss_end+0xffffd564>
80002b30:	14c5f263          	bgeu	a1,a2,80002c74 <__umoddi3+0x19c>
80002b34:	000107b7          	lui	a5,0x10
80002b38:	12f67463          	bgeu	a2,a5,80002c60 <__umoddi3+0x188>
80002b3c:	0ff00793          	li	a5,255
80002b40:	00c7f463          	bgeu	a5,a2,80002b48 <__umoddi3+0x70>
80002b44:	00800993          	li	s3,8
80002b48:	013657b3          	srl	a5,a2,s3
80002b4c:	00fa8ab3          	add	s5,s5,a5
80002b50:	000ac783          	lbu	a5,0(s5)
80002b54:	02000713          	li	a4,32
80002b58:	013787b3          	add	a5,a5,s3
80002b5c:	40f709b3          	sub	s3,a4,a5
80002b60:	00f70c63          	beq	a4,a5,80002b78 <__umoddi3+0xa0>
80002b64:	013b15b3          	sll	a1,s6,s3
80002b68:	00f957b3          	srl	a5,s2,a5
80002b6c:	01361a33          	sll	s4,a2,s3
80002b70:	00b7e4b3          	or	s1,a5,a1
80002b74:	01391433          	sll	s0,s2,s3
80002b78:	010a5a93          	srli	s5,s4,0x10
80002b7c:	000a8593          	mv	a1,s5
80002b80:	00048513          	mv	a0,s1
80002b84:	4b8000ef          	jal	ra,8000303c <__umodsi3>
80002b88:	00050913          	mv	s2,a0
80002b8c:	000a8593          	mv	a1,s5
80002b90:	010a1b13          	slli	s6,s4,0x10
80002b94:	00048513          	mv	a0,s1
80002b98:	45c000ef          	jal	ra,80002ff4 <__udivsi3>
80002b9c:	010b5b13          	srli	s6,s6,0x10
80002ba0:	00050593          	mv	a1,a0
80002ba4:	000b0513          	mv	a0,s6
80002ba8:	420000ef          	jal	ra,80002fc8 <__mulsi3>
80002bac:	01091913          	slli	s2,s2,0x10
80002bb0:	01045793          	srli	a5,s0,0x10
80002bb4:	00f967b3          	or	a5,s2,a5
80002bb8:	00a7fa63          	bgeu	a5,a0,80002bcc <__umoddi3+0xf4>
80002bbc:	014787b3          	add	a5,a5,s4
80002bc0:	0147e663          	bltu	a5,s4,80002bcc <__umoddi3+0xf4>
80002bc4:	00a7f463          	bgeu	a5,a0,80002bcc <__umoddi3+0xf4>
80002bc8:	014787b3          	add	a5,a5,s4
80002bcc:	40a784b3          	sub	s1,a5,a0
80002bd0:	000a8593          	mv	a1,s5
80002bd4:	00048513          	mv	a0,s1
80002bd8:	464000ef          	jal	ra,8000303c <__umodsi3>
80002bdc:	00050913          	mv	s2,a0
80002be0:	000a8593          	mv	a1,s5
80002be4:	00048513          	mv	a0,s1
80002be8:	40c000ef          	jal	ra,80002ff4 <__udivsi3>
80002bec:	01041413          	slli	s0,s0,0x10
80002bf0:	00050593          	mv	a1,a0
80002bf4:	01091913          	slli	s2,s2,0x10
80002bf8:	000b0513          	mv	a0,s6
80002bfc:	01045413          	srli	s0,s0,0x10
80002c00:	3c8000ef          	jal	ra,80002fc8 <__mulsi3>
80002c04:	00896433          	or	s0,s2,s0
80002c08:	00a47a63          	bgeu	s0,a0,80002c1c <__umoddi3+0x144>
80002c0c:	01440433          	add	s0,s0,s4
80002c10:	01446663          	bltu	s0,s4,80002c1c <__umoddi3+0x144>
80002c14:	00a47463          	bgeu	s0,a0,80002c1c <__umoddi3+0x144>
80002c18:	01440433          	add	s0,s0,s4
80002c1c:	40a40433          	sub	s0,s0,a0
80002c20:	01345533          	srl	a0,s0,s3
80002c24:	00000593          	li	a1,0
80002c28:	02c12083          	lw	ra,44(sp)
80002c2c:	02812403          	lw	s0,40(sp)
80002c30:	02412483          	lw	s1,36(sp)
80002c34:	02012903          	lw	s2,32(sp)
80002c38:	01c12983          	lw	s3,28(sp)
80002c3c:	01812a03          	lw	s4,24(sp)
80002c40:	01412a83          	lw	s5,20(sp)
80002c44:	01012b03          	lw	s6,16(sp)
80002c48:	00c12b83          	lw	s7,12(sp)
80002c4c:	00812c03          	lw	s8,8(sp)
80002c50:	00412c83          	lw	s9,4(sp)
80002c54:	00012d03          	lw	s10,0(sp)
80002c58:	03010113          	addi	sp,sp,48
80002c5c:	00008067          	ret
80002c60:	010007b7          	lui	a5,0x1000
80002c64:	01000993          	li	s3,16
80002c68:	eef660e3          	bltu	a2,a5,80002b48 <__umoddi3+0x70>
80002c6c:	01800993          	li	s3,24
80002c70:	ed9ff06f          	j	80002b48 <__umoddi3+0x70>
80002c74:	00061a63          	bnez	a2,80002c88 <__umoddi3+0x1b0>
80002c78:	00000593          	li	a1,0
80002c7c:	00100513          	li	a0,1
80002c80:	374000ef          	jal	ra,80002ff4 <__udivsi3>
80002c84:	00050a13          	mv	s4,a0
80002c88:	000107b7          	lui	a5,0x10
80002c8c:	0efa7a63          	bgeu	s4,a5,80002d80 <__umoddi3+0x2a8>
80002c90:	0ff00793          	li	a5,255
80002c94:	0147f463          	bgeu	a5,s4,80002c9c <__umoddi3+0x1c4>
80002c98:	00800993          	li	s3,8
80002c9c:	013a57b3          	srl	a5,s4,s3
80002ca0:	00fa8ab3          	add	s5,s5,a5
80002ca4:	000ac783          	lbu	a5,0(s5)
80002ca8:	02000713          	li	a4,32
80002cac:	414b04b3          	sub	s1,s6,s4
80002cb0:	013787b3          	add	a5,a5,s3
80002cb4:	40f709b3          	sub	s3,a4,a5
80002cb8:	ecf700e3          	beq	a4,a5,80002b78 <__umoddi3+0xa0>
80002cbc:	013a1a33          	sll	s4,s4,s3
80002cc0:	00fb5ab3          	srl	s5,s6,a5
80002cc4:	013b15b3          	sll	a1,s6,s3
80002cc8:	00f957b3          	srl	a5,s2,a5
80002ccc:	010a5493          	srli	s1,s4,0x10
80002cd0:	00b7eb33          	or	s6,a5,a1
80002cd4:	000a8513          	mv	a0,s5
80002cd8:	00048593          	mv	a1,s1
80002cdc:	360000ef          	jal	ra,8000303c <__umodsi3>
80002ce0:	00048593          	mv	a1,s1
80002ce4:	01391433          	sll	s0,s2,s3
80002ce8:	010a1b93          	slli	s7,s4,0x10
80002cec:	00050913          	mv	s2,a0
80002cf0:	000a8513          	mv	a0,s5
80002cf4:	300000ef          	jal	ra,80002ff4 <__udivsi3>
80002cf8:	010bdb93          	srli	s7,s7,0x10
80002cfc:	00050593          	mv	a1,a0
80002d00:	000b8513          	mv	a0,s7
80002d04:	2c4000ef          	jal	ra,80002fc8 <__mulsi3>
80002d08:	01091913          	slli	s2,s2,0x10
80002d0c:	010b5793          	srli	a5,s6,0x10
80002d10:	00f967b3          	or	a5,s2,a5
80002d14:	00a7fa63          	bgeu	a5,a0,80002d28 <__umoddi3+0x250>
80002d18:	014787b3          	add	a5,a5,s4
80002d1c:	0147e663          	bltu	a5,s4,80002d28 <__umoddi3+0x250>
80002d20:	00a7f463          	bgeu	a5,a0,80002d28 <__umoddi3+0x250>
80002d24:	014787b3          	add	a5,a5,s4
80002d28:	40a78ab3          	sub	s5,a5,a0
80002d2c:	00048593          	mv	a1,s1
80002d30:	000a8513          	mv	a0,s5
80002d34:	308000ef          	jal	ra,8000303c <__umodsi3>
80002d38:	00050913          	mv	s2,a0
80002d3c:	00048593          	mv	a1,s1
80002d40:	000a8513          	mv	a0,s5
80002d44:	2b0000ef          	jal	ra,80002ff4 <__udivsi3>
80002d48:	00050593          	mv	a1,a0
80002d4c:	000b8513          	mv	a0,s7
80002d50:	278000ef          	jal	ra,80002fc8 <__mulsi3>
80002d54:	010b1593          	slli	a1,s6,0x10
80002d58:	01091913          	slli	s2,s2,0x10
80002d5c:	0105d593          	srli	a1,a1,0x10
80002d60:	00b965b3          	or	a1,s2,a1
80002d64:	00a5fa63          	bgeu	a1,a0,80002d78 <__umoddi3+0x2a0>
80002d68:	014585b3          	add	a1,a1,s4
80002d6c:	0145e663          	bltu	a1,s4,80002d78 <__umoddi3+0x2a0>
80002d70:	00a5f463          	bgeu	a1,a0,80002d78 <__umoddi3+0x2a0>
80002d74:	014585b3          	add	a1,a1,s4
80002d78:	40a584b3          	sub	s1,a1,a0
80002d7c:	dfdff06f          	j	80002b78 <__umoddi3+0xa0>
80002d80:	010007b7          	lui	a5,0x1000
80002d84:	01000993          	li	s3,16
80002d88:	f0fa6ae3          	bltu	s4,a5,80002c9c <__umoddi3+0x1c4>
80002d8c:	01800993          	li	s3,24
80002d90:	f0dff06f          	j	80002c9c <__umoddi3+0x1c4>
80002d94:	e8d5eae3          	bltu	a1,a3,80002c28 <__umoddi3+0x150>
80002d98:	000107b7          	lui	a5,0x10
80002d9c:	04f6fc63          	bgeu	a3,a5,80002df4 <__umoddi3+0x31c>
80002da0:	0ff00a93          	li	s5,255
80002da4:	00dab533          	sltu	a0,s5,a3
80002da8:	00351513          	slli	a0,a0,0x3
80002dac:	800047b7          	lui	a5,0x80004
80002db0:	00a6d733          	srl	a4,a3,a0
80002db4:	06878793          	addi	a5,a5,104 # 80004068 <_tbss_end+0xffffd564>
80002db8:	00e787b3          	add	a5,a5,a4
80002dbc:	0007ca83          	lbu	s5,0(a5)
80002dc0:	02000793          	li	a5,32
80002dc4:	00aa8ab3          	add	s5,s5,a0
80002dc8:	41578a33          	sub	s4,a5,s5
80002dcc:	03579e63          	bne	a5,s5,80002e08 <__umoddi3+0x330>
80002dd0:	0166e463          	bltu	a3,s6,80002dd8 <__umoddi3+0x300>
80002dd4:	00c96a63          	bltu	s2,a2,80002de8 <__umoddi3+0x310>
80002dd8:	40c90433          	sub	s0,s2,a2
80002ddc:	40db05b3          	sub	a1,s6,a3
80002de0:	008934b3          	sltu	s1,s2,s0
80002de4:	409584b3          	sub	s1,a1,s1
80002de8:	00040513          	mv	a0,s0
80002dec:	00048593          	mv	a1,s1
80002df0:	e39ff06f          	j	80002c28 <__umoddi3+0x150>
80002df4:	010007b7          	lui	a5,0x1000
80002df8:	01000513          	li	a0,16
80002dfc:	faf6e8e3          	bltu	a3,a5,80002dac <__umoddi3+0x2d4>
80002e00:	01800513          	li	a0,24
80002e04:	fa9ff06f          	j	80002dac <__umoddi3+0x2d4>
80002e08:	014696b3          	sll	a3,a3,s4
80002e0c:	015657b3          	srl	a5,a2,s5
80002e10:	00d7ecb3          	or	s9,a5,a3
80002e14:	015b5433          	srl	s0,s6,s5
80002e18:	014b15b3          	sll	a1,s6,s4
80002e1c:	010cdb93          	srli	s7,s9,0x10
80002e20:	01595b33          	srl	s6,s2,s5
80002e24:	00bb6b33          	or	s6,s6,a1
80002e28:	00040513          	mv	a0,s0
80002e2c:	000b8593          	mv	a1,s7
80002e30:	01461d33          	sll	s10,a2,s4
80002e34:	208000ef          	jal	ra,8000303c <__umodsi3>
80002e38:	00050993          	mv	s3,a0
80002e3c:	000b8593          	mv	a1,s7
80002e40:	00040513          	mv	a0,s0
80002e44:	010c9c13          	slli	s8,s9,0x10
80002e48:	1ac000ef          	jal	ra,80002ff4 <__udivsi3>
80002e4c:	010c5c13          	srli	s8,s8,0x10
80002e50:	00050593          	mv	a1,a0
80002e54:	014914b3          	sll	s1,s2,s4
80002e58:	00050913          	mv	s2,a0
80002e5c:	000c0513          	mv	a0,s8
80002e60:	168000ef          	jal	ra,80002fc8 <__mulsi3>
80002e64:	01099993          	slli	s3,s3,0x10
80002e68:	010b5713          	srli	a4,s6,0x10
80002e6c:	00e9e733          	or	a4,s3,a4
80002e70:	00090413          	mv	s0,s2
80002e74:	00a77e63          	bgeu	a4,a0,80002e90 <__umoddi3+0x3b8>
80002e78:	01970733          	add	a4,a4,s9
80002e7c:	fff90413          	addi	s0,s2,-1
80002e80:	01976863          	bltu	a4,s9,80002e90 <__umoddi3+0x3b8>
80002e84:	00a77663          	bgeu	a4,a0,80002e90 <__umoddi3+0x3b8>
80002e88:	ffe90413          	addi	s0,s2,-2
80002e8c:	01970733          	add	a4,a4,s9
80002e90:	40a70933          	sub	s2,a4,a0
80002e94:	000b8593          	mv	a1,s7
80002e98:	00090513          	mv	a0,s2
80002e9c:	1a0000ef          	jal	ra,8000303c <__umodsi3>
80002ea0:	00050993          	mv	s3,a0
80002ea4:	000b8593          	mv	a1,s7
80002ea8:	00090513          	mv	a0,s2
80002eac:	148000ef          	jal	ra,80002ff4 <__udivsi3>
80002eb0:	00050913          	mv	s2,a0
80002eb4:	00050593          	mv	a1,a0
80002eb8:	000c0513          	mv	a0,s8
80002ebc:	10c000ef          	jal	ra,80002fc8 <__mulsi3>
80002ec0:	010b1713          	slli	a4,s6,0x10
80002ec4:	01099993          	slli	s3,s3,0x10
80002ec8:	01075713          	srli	a4,a4,0x10
80002ecc:	00e9e733          	or	a4,s3,a4
80002ed0:	00090793          	mv	a5,s2
80002ed4:	00a77e63          	bgeu	a4,a0,80002ef0 <__umoddi3+0x418>
80002ed8:	01970733          	add	a4,a4,s9
80002edc:	fff90793          	addi	a5,s2,-1
80002ee0:	01976863          	bltu	a4,s9,80002ef0 <__umoddi3+0x418>
80002ee4:	00a77663          	bgeu	a4,a0,80002ef0 <__umoddi3+0x418>
80002ee8:	ffe90793          	addi	a5,s2,-2
80002eec:	01970733          	add	a4,a4,s9
80002ef0:	00010eb7          	lui	t4,0x10
80002ef4:	01041413          	slli	s0,s0,0x10
80002ef8:	40a70833          	sub	a6,a4,a0
80002efc:	00f46433          	or	s0,s0,a5
80002f00:	fffe8713          	addi	a4,t4,-1 # ffff <buflen.2941+0xffbf>
80002f04:	00e478b3          	and	a7,s0,a4
80002f08:	00ed7733          	and	a4,s10,a4
80002f0c:	01045413          	srli	s0,s0,0x10
80002f10:	010d5e13          	srli	t3,s10,0x10
80002f14:	00088513          	mv	a0,a7
80002f18:	00070593          	mv	a1,a4
80002f1c:	0ac000ef          	jal	ra,80002fc8 <__mulsi3>
80002f20:	00050793          	mv	a5,a0
80002f24:	000e0593          	mv	a1,t3
80002f28:	00088513          	mv	a0,a7
80002f2c:	09c000ef          	jal	ra,80002fc8 <__mulsi3>
80002f30:	00050893          	mv	a7,a0
80002f34:	00070593          	mv	a1,a4
80002f38:	00040513          	mv	a0,s0
80002f3c:	08c000ef          	jal	ra,80002fc8 <__mulsi3>
80002f40:	00050313          	mv	t1,a0
80002f44:	000e0593          	mv	a1,t3
80002f48:	00040513          	mv	a0,s0
80002f4c:	07c000ef          	jal	ra,80002fc8 <__mulsi3>
80002f50:	0107d713          	srli	a4,a5,0x10
80002f54:	006888b3          	add	a7,a7,t1
80002f58:	01170733          	add	a4,a4,a7
80002f5c:	00677463          	bgeu	a4,t1,80002f64 <__umoddi3+0x48c>
80002f60:	01d50533          	add	a0,a0,t4
80002f64:	01075593          	srli	a1,a4,0x10
80002f68:	00a585b3          	add	a1,a1,a0
80002f6c:	00010537          	lui	a0,0x10
80002f70:	fff50513          	addi	a0,a0,-1 # ffff <buflen.2941+0xffbf>
80002f74:	00a77733          	and	a4,a4,a0
80002f78:	01071713          	slli	a4,a4,0x10
80002f7c:	00a7f7b3          	and	a5,a5,a0
80002f80:	00f707b3          	add	a5,a4,a5
80002f84:	00b86663          	bltu	a6,a1,80002f90 <__umoddi3+0x4b8>
80002f88:	00b81e63          	bne	a6,a1,80002fa4 <__umoddi3+0x4cc>
80002f8c:	00f4fc63          	bgeu	s1,a5,80002fa4 <__umoddi3+0x4cc>
80002f90:	41a78633          	sub	a2,a5,s10
80002f94:	00c7b7b3          	sltu	a5,a5,a2
80002f98:	019787b3          	add	a5,a5,s9
80002f9c:	40f585b3          	sub	a1,a1,a5
80002fa0:	00060793          	mv	a5,a2
80002fa4:	40f487b3          	sub	a5,s1,a5
80002fa8:	00f4b4b3          	sltu	s1,s1,a5
80002fac:	40b805b3          	sub	a1,a6,a1
80002fb0:	409585b3          	sub	a1,a1,s1
80002fb4:	01559433          	sll	s0,a1,s5
80002fb8:	0147d7b3          	srl	a5,a5,s4
80002fbc:	00f46533          	or	a0,s0,a5
80002fc0:	0145d5b3          	srl	a1,a1,s4
80002fc4:	c65ff06f          	j	80002c28 <__umoddi3+0x150>

80002fc8 <__mulsi3>:
80002fc8:	00050613          	mv	a2,a0
80002fcc:	00000513          	li	a0,0
80002fd0:	0015f693          	andi	a3,a1,1
80002fd4:	00068463          	beqz	a3,80002fdc <__mulsi3+0x14>
80002fd8:	00c50533          	add	a0,a0,a2
80002fdc:	0015d593          	srli	a1,a1,0x1
80002fe0:	00161613          	slli	a2,a2,0x1
80002fe4:	fe0596e3          	bnez	a1,80002fd0 <__mulsi3+0x8>
80002fe8:	00008067          	ret

80002fec <__divsi3>:
80002fec:	06054063          	bltz	a0,8000304c <__umodsi3+0x10>
80002ff0:	0605c663          	bltz	a1,8000305c <__umodsi3+0x20>

80002ff4 <__udivsi3>:
80002ff4:	00058613          	mv	a2,a1
80002ff8:	00050593          	mv	a1,a0
80002ffc:	fff00513          	li	a0,-1
80003000:	02060c63          	beqz	a2,80003038 <__udivsi3+0x44>
80003004:	00100693          	li	a3,1
80003008:	00b67a63          	bgeu	a2,a1,8000301c <__udivsi3+0x28>
8000300c:	00c05863          	blez	a2,8000301c <__udivsi3+0x28>
80003010:	00161613          	slli	a2,a2,0x1
80003014:	00169693          	slli	a3,a3,0x1
80003018:	feb66ae3          	bltu	a2,a1,8000300c <__udivsi3+0x18>
8000301c:	00000513          	li	a0,0
80003020:	00c5e663          	bltu	a1,a2,8000302c <__udivsi3+0x38>
80003024:	40c585b3          	sub	a1,a1,a2
80003028:	00d56533          	or	a0,a0,a3
8000302c:	0016d693          	srli	a3,a3,0x1
80003030:	00165613          	srli	a2,a2,0x1
80003034:	fe0696e3          	bnez	a3,80003020 <__udivsi3+0x2c>
80003038:	00008067          	ret

8000303c <__umodsi3>:
8000303c:	00008293          	mv	t0,ra
80003040:	fb5ff0ef          	jal	ra,80002ff4 <__udivsi3>
80003044:	00058513          	mv	a0,a1
80003048:	00028067          	jr	t0
8000304c:	40a00533          	neg	a0,a0
80003050:	0005d863          	bgez	a1,80003060 <__umodsi3+0x24>
80003054:	40b005b3          	neg	a1,a1
80003058:	f9dff06f          	j	80002ff4 <__udivsi3>
8000305c:	40b005b3          	neg	a1,a1
80003060:	00008293          	mv	t0,ra
80003064:	f91ff0ef          	jal	ra,80002ff4 <__udivsi3>
80003068:	40a00533          	neg	a0,a0
8000306c:	00028067          	jr	t0

80003070 <__modsi3>:
80003070:	00008293          	mv	t0,ra
80003074:	0005ca63          	bltz	a1,80003088 <__modsi3+0x18>
80003078:	00054c63          	bltz	a0,80003090 <__modsi3+0x20>
8000307c:	f79ff0ef          	jal	ra,80002ff4 <__udivsi3>
80003080:	00058513          	mv	a0,a1
80003084:	00028067          	jr	t0
80003088:	40b005b3          	neg	a1,a1
8000308c:	fe0558e3          	bgez	a0,8000307c <__modsi3+0xc>
80003090:	40a00533          	neg	a0,a0
80003094:	f61ff0ef          	jal	ra,80002ff4 <__udivsi3>
80003098:	40b00533          	neg	a0,a1
8000309c:	00028067          	jr	t0

Disassembly of section .text.startup:

800030a0 <main>:
800030a0:	f6010113          	addi	sp,sp,-160
800030a4:	08112e23          	sw	ra,156(sp)
800030a8:	08812c23          	sw	s0,152(sp)
800030ac:	08912a23          	sw	s1,148(sp)
800030b0:	0a010413          	addi	s0,sp,160
800030b4:	09212823          	sw	s2,144(sp)
800030b8:	09312623          	sw	s3,140(sp)
800030bc:	09412423          	sw	s4,136(sp)
800030c0:	09512223          	sw	s5,132(sp)
800030c4:	09612023          	sw	s6,128(sp)
800030c8:	07712e23          	sw	s7,124(sp)
800030cc:	07812c23          	sw	s8,120(sp)
800030d0:	07912a23          	sw	s9,116(sp)
800030d4:	07a12823          	sw	s10,112(sp)
800030d8:	07b12623          	sw	s11,108(sp)
800030dc:	00001797          	auipc	a5,0x1
800030e0:	84c78793          	addi	a5,a5,-1972 # 80003928 <main+0x888>
800030e4:	fc010113          	addi	sp,sp,-64
800030e8:	0007a283          	lw	t0,0(a5)
800030ec:	00f10693          	addi	a3,sp,15
800030f0:	fc010113          	addi	sp,sp,-64
800030f4:	0047af03          	lw	t5,4(a5)
800030f8:	0087ae83          	lw	t4,8(a5)
800030fc:	00c7ae03          	lw	t3,12(a5)
80003100:	0107a303          	lw	t1,16(a5)
80003104:	0147a883          	lw	a7,20(a5)
80003108:	0187a803          	lw	a6,24(a5)
8000310c:	01c7d583          	lhu	a1,28(a5)
80003110:	01e7c603          	lbu	a2,30(a5)
80003114:	00f10793          	addi	a5,sp,15
80003118:	ff07f793          	andi	a5,a5,-16
8000311c:	00001717          	auipc	a4,0x1
80003120:	d5470713          	addi	a4,a4,-684 # 80003e70 <main+0xdd0>
80003124:	00072f83          	lw	t6,0(a4)
80003128:	ff06f693          	andi	a3,a3,-16
8000312c:	0057a823          	sw	t0,16(a5)
80003130:	00200393          	li	t2,2
80003134:	00001297          	auipc	t0,0x1
80003138:	16028293          	addi	t0,t0,352 # 80004294 <Next_Ptr_Glob>
8000313c:	00d2a023          	sw	a3,0(t0)
80003140:	00d7a023          	sw	a3,0(a5)
80003144:	0077a423          	sw	t2,8(a5)
80003148:	00001697          	auipc	a3,0x1
8000314c:	15068693          	addi	a3,a3,336 # 80004298 <Ptr_Glob>
80003150:	02800393          	li	t2,40
80003154:	0077a623          	sw	t2,12(a5)
80003158:	00f6a023          	sw	a5,0(a3)
8000315c:	0007a223          	sw	zero,4(a5)
80003160:	00472503          	lw	a0,4(a4)
80003164:	f9f42023          	sw	t6,-128(s0)
80003168:	01e7aa23          	sw	t5,20(a5)
8000316c:	01d7ac23          	sw	t4,24(a5)
80003170:	01c7ae23          	sw	t3,28(a5)
80003174:	0267a023          	sw	t1,32(a5)
80003178:	0317a223          	sw	a7,36(a5)
8000317c:	0307a423          	sw	a6,40(a5)
80003180:	02b79623          	sh	a1,44(a5)
80003184:	02c78723          	sb	a2,46(a5)
80003188:	01e74783          	lbu	a5,30(a4)
8000318c:	00872303          	lw	t1,8(a4)
80003190:	00c72883          	lw	a7,12(a4)
80003194:	01072803          	lw	a6,16(a4)
80003198:	01472583          	lw	a1,20(a4)
8000319c:	01872603          	lw	a2,24(a4)
800031a0:	01c75683          	lhu	a3,28(a4)
800031a4:	f8a42223          	sw	a0,-124(s0)
800031a8:	00001717          	auipc	a4,0x1
800031ac:	1cc70713          	addi	a4,a4,460 # 80004374 <Arr_2_Glob>
800031b0:	00001517          	auipc	a0,0x1
800031b4:	9e450513          	addi	a0,a0,-1564 # 80003b94 <main+0xaf4>
800031b8:	f8f40f23          	sb	a5,-98(s0)
800031bc:	00a00793          	li	a5,10
800031c0:	64f72e23          	sw	a5,1628(a4)
800031c4:	f8642423          	sw	t1,-120(s0)
800031c8:	f9142623          	sw	a7,-116(s0)
800031cc:	f9042823          	sw	a6,-112(s0)
800031d0:	f8b42a23          	sw	a1,-108(s0)
800031d4:	f8c42c23          	sw	a2,-104(s0)
800031d8:	f8d41e23          	sh	a3,-100(s0)
800031dc:	840fe0ef          	jal	ra,8000121c <debug_printf>
800031e0:	00000597          	auipc	a1,0x0
800031e4:	76858593          	addi	a1,a1,1896 # 80003948 <main+0x8a8>
800031e8:	00000517          	auipc	a0,0x0
800031ec:	77050513          	addi	a0,a0,1904 # 80003958 <main+0x8b8>
800031f0:	82cfe0ef          	jal	ra,8000121c <debug_printf>
800031f4:	00001797          	auipc	a5,0x1
800031f8:	0907a783          	lw	a5,144(a5) # 80004284 <Reg>
800031fc:	6e078c63          	beqz	a5,800038f4 <main+0x854>
80003200:	00000517          	auipc	a0,0x0
80003204:	77c50513          	addi	a0,a0,1916 # 8000397c <main+0x8dc>
80003208:	814fe0ef          	jal	ra,8000121c <debug_printf>
8000320c:	000f4637          	lui	a2,0xf4
80003210:	24060613          	addi	a2,a2,576 # f4240 <buflen.2941+0xf4200>
80003214:	00000597          	auipc	a1,0x0
80003218:	7c458593          	addi	a1,a1,1988 # 800039d8 <main+0x938>
8000321c:	00000517          	auipc	a0,0x0
80003220:	7c850513          	addi	a0,a0,1992 # 800039e4 <main+0x944>
80003224:	ff9fd0ef          	jal	ra,8000121c <debug_printf>
80003228:	00001517          	auipc	a0,0x1
8000322c:	96c50513          	addi	a0,a0,-1684 # 80003b94 <main+0xaf4>
80003230:	fedfd0ef          	jal	ra,8000121c <debug_printf>
80003234:	1f400793          	li	a5,500
80003238:	f6f42423          	sw	a5,-152(s0)
8000323c:	00001a17          	auipc	s4,0x1
80003240:	c54a0a13          	addi	s4,s4,-940 # 80003e90 <main+0xdf0>
80003244:	00001797          	auipc	a5,0x1
80003248:	0207ae23          	sw	zero,60(a5) # 80004280 <Done>
8000324c:	00001997          	auipc	s3,0x1
80003250:	03c98993          	addi	s3,s3,60 # 80004288 <Ch_2_Glob>
80003254:	00001c17          	auipc	s8,0x1
80003258:	03cc0c13          	addi	s8,s8,60 # 80004290 <Int_Glob>
8000325c:	00001d97          	auipc	s11,0x1
80003260:	118d8d93          	addi	s11,s11,280 # 80004374 <Arr_2_Glob>
80003264:	00001497          	auipc	s1,0x1
80003268:	c4c48493          	addi	s1,s1,-948 # 80003eb0 <main+0xe10>
8000326c:	f6842903          	lw	s2,-152(s0)
80003270:	00000517          	auipc	a0,0x0
80003274:	78850513          	addi	a0,a0,1928 # 800039f8 <main+0x958>
80003278:	00090593          	mv	a1,s2
8000327c:	fa1fd0ef          	jal	ra,8000121c <debug_printf>
80003280:	00100513          	li	a0,1
80003284:	fe4fe0ef          	jal	ra,80001a68 <setStats>
80003288:	b00027f3          	csrr	a5,mcycle
8000328c:	00001717          	auipc	a4,0x1
80003290:	ff070713          	addi	a4,a4,-16 # 8000427c <Begin_Time>
80003294:	00190b93          	addi	s7,s2,1
80003298:	00100a93          	li	s5,1
8000329c:	00f72023          	sw	a5,0(a4)
800032a0:	00200913          	li	s2,2
800032a4:	00100d13          	li	s10,1
800032a8:	994fe0ef          	jal	ra,8000143c <Proc_5>
800032ac:	95cfe0ef          	jal	ra,80001408 <Proc_4>
800032b0:	01ca5703          	lhu	a4,28(s4)
800032b4:	01ea4783          	lbu	a5,30(s4)
800032b8:	000a2e83          	lw	t4,0(s4)
800032bc:	004a2e03          	lw	t3,4(s4)
800032c0:	008a2303          	lw	t1,8(s4)
800032c4:	00ca2883          	lw	a7,12(s4)
800032c8:	010a2803          	lw	a6,16(s4)
800032cc:	014a2603          	lw	a2,20(s4)
800032d0:	018a2683          	lw	a3,24(s4)
800032d4:	fa040593          	addi	a1,s0,-96
800032d8:	f8040513          	addi	a0,s0,-128
800032dc:	fae41e23          	sh	a4,-68(s0)
800032e0:	faf40f23          	sb	a5,-66(s0)
800032e4:	f7242a23          	sw	s2,-140(s0)
800032e8:	fbd42023          	sw	t4,-96(s0)
800032ec:	fbc42223          	sw	t3,-92(s0)
800032f0:	fa642423          	sw	t1,-88(s0)
800032f4:	fb142623          	sw	a7,-84(s0)
800032f8:	fb042823          	sw	a6,-80(s0)
800032fc:	fac42a23          	sw	a2,-76(s0)
80003300:	fad42c23          	sw	a3,-72(s0)
80003304:	f7a42e23          	sw	s10,-132(s0)
80003308:	de9fd0ef          	jal	ra,800010f0 <Func_2>
8000330c:	00050793          	mv	a5,a0
80003310:	f7442503          	lw	a0,-140(s0)
80003314:	0017b793          	seqz	a5,a5
80003318:	00001717          	auipc	a4,0x1
8000331c:	f7470713          	addi	a4,a4,-140 # 8000428c <Bool_Glob>
80003320:	00f72023          	sw	a5,0(a4)
80003324:	02a94863          	blt	s2,a0,80003354 <main+0x2b4>
80003328:	00251793          	slli	a5,a0,0x2
8000332c:	00a787b3          	add	a5,a5,a0
80003330:	ffd78793          	addi	a5,a5,-3
80003334:	f7840613          	addi	a2,s0,-136
80003338:	00300593          	li	a1,3
8000333c:	f6f42c23          	sw	a5,-136(s0)
80003340:	d09fd0ef          	jal	ra,80001048 <Proc_7>
80003344:	f7442503          	lw	a0,-140(s0)
80003348:	00150513          	addi	a0,a0,1
8000334c:	f6a42a23          	sw	a0,-140(s0)
80003350:	fca95ce3          	bge	s2,a0,80003328 <main+0x288>
80003354:	f7842683          	lw	a3,-136(s0)
80003358:	00050613          	mv	a2,a0
8000335c:	000d8593          	mv	a1,s11
80003360:	84018513          	addi	a0,gp,-1984 # 800042ac <Arr_1_Glob>
80003364:	cf5fd0ef          	jal	ra,80001058 <Proc_8>
80003368:	00001797          	auipc	a5,0x1
8000336c:	f3078793          	addi	a5,a5,-208 # 80004298 <Ptr_Glob>
80003370:	0007a503          	lw	a0,0(a5)
80003374:	f31fd0ef          	jal	ra,800012a4 <Proc_1>
80003378:	0009c703          	lbu	a4,0(s3)
8000337c:	04000793          	li	a5,64
80003380:	52e7f463          	bgeu	a5,a4,800038a8 <main+0x808>
80003384:	04100b13          	li	s6,65
80003388:	00300c93          	li	s9,3
8000338c:	0140006f          	j	800033a0 <main+0x300>
80003390:	0009c783          	lbu	a5,0(s3)
80003394:	001b0b13          	addi	s6,s6,1
80003398:	0ffb7b13          	andi	s6,s6,255
8000339c:	0967e263          	bltu	a5,s6,80003420 <main+0x380>
800033a0:	04300593          	li	a1,67
800033a4:	000b0513          	mv	a0,s6
800033a8:	d25fd0ef          	jal	ra,800010cc <Func_1>
800033ac:	f7c42783          	lw	a5,-132(s0)
800033b0:	fef510e3          	bne	a0,a5,80003390 <main+0x2f0>
800033b4:	f7c40593          	addi	a1,s0,-132
800033b8:	00000513          	li	a0,0
800033bc:	da5fd0ef          	jal	ra,80001160 <Proc_6>
800033c0:	01e4c783          	lbu	a5,30(s1)
800033c4:	0004a303          	lw	t1,0(s1)
800033c8:	0044a883          	lw	a7,4(s1)
800033cc:	0084a803          	lw	a6,8(s1)
800033d0:	00c4a503          	lw	a0,12(s1)
800033d4:	0104a583          	lw	a1,16(s1)
800033d8:	0144a603          	lw	a2,20(s1)
800033dc:	0184a683          	lw	a3,24(s1)
800033e0:	01c4d703          	lhu	a4,28(s1)
800033e4:	faf40f23          	sb	a5,-66(s0)
800033e8:	0009c783          	lbu	a5,0(s3)
800033ec:	001b0b13          	addi	s6,s6,1
800033f0:	fa642023          	sw	t1,-96(s0)
800033f4:	fb142223          	sw	a7,-92(s0)
800033f8:	fb042423          	sw	a6,-88(s0)
800033fc:	faa42623          	sw	a0,-84(s0)
80003400:	fab42823          	sw	a1,-80(s0)
80003404:	fac42a23          	sw	a2,-76(s0)
80003408:	fad42c23          	sw	a3,-72(s0)
8000340c:	fae41e23          	sh	a4,-68(s0)
80003410:	015c2023          	sw	s5,0(s8)
80003414:	0ffb7b13          	andi	s6,s6,255
80003418:	000a8c93          	mv	s9,s5
8000341c:	f967f2e3          	bgeu	a5,s6,800033a0 <main+0x300>
80003420:	f7442583          	lw	a1,-140(s0)
80003424:	000c8513          	mv	a0,s9
80003428:	001a8a93          	addi	s5,s5,1
8000342c:	b9dff0ef          	jal	ra,80002fc8 <__mulsi3>
80003430:	f7842c83          	lw	s9,-136(s0)
80003434:	f6a42623          	sw	a0,-148(s0)
80003438:	000c8593          	mv	a1,s9
8000343c:	bb1ff0ef          	jal	ra,80002fec <__divsi3>
80003440:	00050b13          	mv	s6,a0
80003444:	f7440513          	addi	a0,s0,-140
80003448:	f7642a23          	sw	s6,-140(s0)
8000344c:	df9fd0ef          	jal	ra,80001244 <Proc_2>
80003450:	e55b9ce3          	bne	s7,s5,800032a8 <main+0x208>
80003454:	b00027f3          	csrr	a5,mcycle
80003458:	00001717          	auipc	a4,0x1
8000345c:	e2070713          	addi	a4,a4,-480 # 80004278 <End_Time>
80003460:	00000513          	li	a0,0
80003464:	00070913          	mv	s2,a4
80003468:	00f72023          	sw	a5,0(a4)
8000346c:	dfcfe0ef          	jal	ra,80001a68 <setStats>
80003470:	00001717          	auipc	a4,0x1
80003474:	e0c70713          	addi	a4,a4,-500 # 8000427c <Begin_Time>
80003478:	00072703          	lw	a4,0(a4)
8000347c:	00092783          	lw	a5,0(s2)
80003480:	40e787b3          	sub	a5,a5,a4
80003484:	00001717          	auipc	a4,0x1
80003488:	df070713          	addi	a4,a4,-528 # 80004274 <User_Time>
8000348c:	00f72023          	sw	a5,0(a4)
80003490:	42f05063          	blez	a5,800038b0 <main+0x810>
80003494:	00100713          	li	a4,1
80003498:	00001797          	auipc	a5,0x1
8000349c:	de878793          	addi	a5,a5,-536 # 80004280 <Done>
800034a0:	000c8b93          	mv	s7,s9
800034a4:	00e7a023          	sw	a4,0(a5)
800034a8:	00000517          	auipc	a0,0x0
800034ac:	5ac50513          	addi	a0,a0,1452 # 80003a54 <main+0x9b4>
800034b0:	d6dfd0ef          	jal	ra,8000121c <debug_printf>
800034b4:	00000517          	auipc	a0,0x0
800034b8:	6e050513          	addi	a0,a0,1760 # 80003b94 <main+0xaf4>
800034bc:	d61fd0ef          	jal	ra,8000121c <debug_printf>
800034c0:	000c2583          	lw	a1,0(s8)
800034c4:	00000517          	auipc	a0,0x0
800034c8:	5c850513          	addi	a0,a0,1480 # 80003a8c <main+0x9ec>
800034cc:	00001917          	auipc	s2,0x1
800034d0:	dcc90913          	addi	s2,s2,-564 # 80004298 <Ptr_Glob>
800034d4:	d49fd0ef          	jal	ra,8000121c <debug_printf>
800034d8:	00500593          	li	a1,5
800034dc:	00000517          	auipc	a0,0x0
800034e0:	5cc50513          	addi	a0,a0,1484 # 80003aa8 <main+0xa08>
800034e4:	d39fd0ef          	jal	ra,8000121c <debug_printf>
800034e8:	00001797          	auipc	a5,0x1
800034ec:	da478793          	addi	a5,a5,-604 # 8000428c <Bool_Glob>
800034f0:	0007a583          	lw	a1,0(a5)
800034f4:	00000517          	auipc	a0,0x0
800034f8:	5d050513          	addi	a0,a0,1488 # 80003ac4 <main+0xa24>
800034fc:	00001497          	auipc	s1,0x1
80003500:	d7048493          	addi	s1,s1,-656 # 8000426c <Dhrystones_Per_Second>
80003504:	d19fd0ef          	jal	ra,8000121c <debug_printf>
80003508:	00100593          	li	a1,1
8000350c:	00000517          	auipc	a0,0x0
80003510:	59c50513          	addi	a0,a0,1436 # 80003aa8 <main+0xa08>
80003514:	d09fd0ef          	jal	ra,8000121c <debug_printf>
80003518:	00001597          	auipc	a1,0x1
8000351c:	d715c583          	lbu	a1,-655(a1) # 80004289 <Ch_1_Glob>
80003520:	00000517          	auipc	a0,0x0
80003524:	5c050513          	addi	a0,a0,1472 # 80003ae0 <main+0xa40>
80003528:	cf5fd0ef          	jal	ra,8000121c <debug_printf>
8000352c:	04100593          	li	a1,65
80003530:	00000517          	auipc	a0,0x0
80003534:	5cc50513          	addi	a0,a0,1484 # 80003afc <main+0xa5c>
80003538:	ce5fd0ef          	jal	ra,8000121c <debug_printf>
8000353c:	0009c583          	lbu	a1,0(s3)
80003540:	00000517          	auipc	a0,0x0
80003544:	5d850513          	addi	a0,a0,1496 # 80003b18 <main+0xa78>
80003548:	cd5fd0ef          	jal	ra,8000121c <debug_printf>
8000354c:	04200593          	li	a1,66
80003550:	00000517          	auipc	a0,0x0
80003554:	5ac50513          	addi	a0,a0,1452 # 80003afc <main+0xa5c>
80003558:	cc5fd0ef          	jal	ra,8000121c <debug_printf>
8000355c:	8601a583          	lw	a1,-1952(gp) # 800042cc <Arr_1_Glob+0x20>
80003560:	00000517          	auipc	a0,0x0
80003564:	5d450513          	addi	a0,a0,1492 # 80003b34 <main+0xa94>
80003568:	cb5fd0ef          	jal	ra,8000121c <debug_printf>
8000356c:	00700593          	li	a1,7
80003570:	00000517          	auipc	a0,0x0
80003574:	53850513          	addi	a0,a0,1336 # 80003aa8 <main+0xa08>
80003578:	ca5fd0ef          	jal	ra,8000121c <debug_printf>
8000357c:	00001797          	auipc	a5,0x1
80003580:	df878793          	addi	a5,a5,-520 # 80004374 <Arr_2_Glob>
80003584:	65c7a583          	lw	a1,1628(a5)
80003588:	00000517          	auipc	a0,0x0
8000358c:	5c850513          	addi	a0,a0,1480 # 80003b50 <main+0xab0>
80003590:	c8dfd0ef          	jal	ra,8000121c <debug_printf>
80003594:	00000517          	auipc	a0,0x0
80003598:	5d850513          	addi	a0,a0,1496 # 80003b6c <main+0xacc>
8000359c:	c81fd0ef          	jal	ra,8000121c <debug_printf>
800035a0:	00000517          	auipc	a0,0x0
800035a4:	5f850513          	addi	a0,a0,1528 # 80003b98 <main+0xaf8>
800035a8:	c75fd0ef          	jal	ra,8000121c <debug_printf>
800035ac:	00092703          	lw	a4,0(s2)
800035b0:	00000517          	auipc	a0,0x0
800035b4:	5f450513          	addi	a0,a0,1524 # 80003ba4 <main+0xb04>
800035b8:	00072583          	lw	a1,0(a4)
800035bc:	c61fd0ef          	jal	ra,8000121c <debug_printf>
800035c0:	00000517          	auipc	a0,0x0
800035c4:	60050513          	addi	a0,a0,1536 # 80003bc0 <main+0xb20>
800035c8:	c55fd0ef          	jal	ra,8000121c <debug_printf>
800035cc:	00092703          	lw	a4,0(s2)
800035d0:	00000517          	auipc	a0,0x0
800035d4:	62450513          	addi	a0,a0,1572 # 80003bf4 <main+0xb54>
800035d8:	00472583          	lw	a1,4(a4)
800035dc:	c41fd0ef          	jal	ra,8000121c <debug_printf>
800035e0:	00000593          	li	a1,0
800035e4:	00000517          	auipc	a0,0x0
800035e8:	4c450513          	addi	a0,a0,1220 # 80003aa8 <main+0xa08>
800035ec:	c31fd0ef          	jal	ra,8000121c <debug_printf>
800035f0:	00092703          	lw	a4,0(s2)
800035f4:	00000517          	auipc	a0,0x0
800035f8:	61c50513          	addi	a0,a0,1564 # 80003c10 <main+0xb70>
800035fc:	00872583          	lw	a1,8(a4)
80003600:	c1dfd0ef          	jal	ra,8000121c <debug_printf>
80003604:	00200593          	li	a1,2
80003608:	00000517          	auipc	a0,0x0
8000360c:	4a050513          	addi	a0,a0,1184 # 80003aa8 <main+0xa08>
80003610:	c0dfd0ef          	jal	ra,8000121c <debug_printf>
80003614:	00092703          	lw	a4,0(s2)
80003618:	00000517          	auipc	a0,0x0
8000361c:	61450513          	addi	a0,a0,1556 # 80003c2c <main+0xb8c>
80003620:	00c72583          	lw	a1,12(a4)
80003624:	bf9fd0ef          	jal	ra,8000121c <debug_printf>
80003628:	01100593          	li	a1,17
8000362c:	00000517          	auipc	a0,0x0
80003630:	47c50513          	addi	a0,a0,1148 # 80003aa8 <main+0xa08>
80003634:	be9fd0ef          	jal	ra,8000121c <debug_printf>
80003638:	00092583          	lw	a1,0(s2)
8000363c:	00000517          	auipc	a0,0x0
80003640:	60c50513          	addi	a0,a0,1548 # 80003c48 <main+0xba8>
80003644:	00001917          	auipc	s2,0x1
80003648:	c5090913          	addi	s2,s2,-944 # 80004294 <Next_Ptr_Glob>
8000364c:	01058593          	addi	a1,a1,16
80003650:	bcdfd0ef          	jal	ra,8000121c <debug_printf>
80003654:	00000517          	auipc	a0,0x0
80003658:	61050513          	addi	a0,a0,1552 # 80003c64 <main+0xbc4>
8000365c:	bc1fd0ef          	jal	ra,8000121c <debug_printf>
80003660:	00000517          	auipc	a0,0x0
80003664:	63c50513          	addi	a0,a0,1596 # 80003c9c <main+0xbfc>
80003668:	bb5fd0ef          	jal	ra,8000121c <debug_printf>
8000366c:	00092703          	lw	a4,0(s2)
80003670:	00000517          	auipc	a0,0x0
80003674:	53450513          	addi	a0,a0,1332 # 80003ba4 <main+0xb04>
80003678:	00072583          	lw	a1,0(a4)
8000367c:	ba1fd0ef          	jal	ra,8000121c <debug_printf>
80003680:	00000517          	auipc	a0,0x0
80003684:	63050513          	addi	a0,a0,1584 # 80003cb0 <main+0xc10>
80003688:	b95fd0ef          	jal	ra,8000121c <debug_printf>
8000368c:	00092703          	lw	a4,0(s2)
80003690:	00000517          	auipc	a0,0x0
80003694:	56450513          	addi	a0,a0,1380 # 80003bf4 <main+0xb54>
80003698:	00472583          	lw	a1,4(a4)
8000369c:	b81fd0ef          	jal	ra,8000121c <debug_printf>
800036a0:	00000593          	li	a1,0
800036a4:	00000517          	auipc	a0,0x0
800036a8:	40450513          	addi	a0,a0,1028 # 80003aa8 <main+0xa08>
800036ac:	b71fd0ef          	jal	ra,8000121c <debug_printf>
800036b0:	00092703          	lw	a4,0(s2)
800036b4:	00000517          	auipc	a0,0x0
800036b8:	55c50513          	addi	a0,a0,1372 # 80003c10 <main+0xb70>
800036bc:	00872583          	lw	a1,8(a4)
800036c0:	b5dfd0ef          	jal	ra,8000121c <debug_printf>
800036c4:	00100593          	li	a1,1
800036c8:	00000517          	auipc	a0,0x0
800036cc:	3e050513          	addi	a0,a0,992 # 80003aa8 <main+0xa08>
800036d0:	b4dfd0ef          	jal	ra,8000121c <debug_printf>
800036d4:	00092703          	lw	a4,0(s2)
800036d8:	00000517          	auipc	a0,0x0
800036dc:	55450513          	addi	a0,a0,1364 # 80003c2c <main+0xb8c>
800036e0:	00c72583          	lw	a1,12(a4)
800036e4:	b39fd0ef          	jal	ra,8000121c <debug_printf>
800036e8:	01200593          	li	a1,18
800036ec:	00000517          	auipc	a0,0x0
800036f0:	3bc50513          	addi	a0,a0,956 # 80003aa8 <main+0xa08>
800036f4:	b29fd0ef          	jal	ra,8000121c <debug_printf>
800036f8:	00092583          	lw	a1,0(s2)
800036fc:	00000517          	auipc	a0,0x0
80003700:	54c50513          	addi	a0,a0,1356 # 80003c48 <main+0xba8>
80003704:	01058593          	addi	a1,a1,16
80003708:	b15fd0ef          	jal	ra,8000121c <debug_printf>
8000370c:	00000517          	auipc	a0,0x0
80003710:	55850513          	addi	a0,a0,1368 # 80003c64 <main+0xbc4>
80003714:	b09fd0ef          	jal	ra,8000121c <debug_printf>
80003718:	f7442583          	lw	a1,-140(s0)
8000371c:	00000517          	auipc	a0,0x0
80003720:	5d450513          	addi	a0,a0,1492 # 80003cf0 <main+0xc50>
80003724:	af9fd0ef          	jal	ra,8000121c <debug_printf>
80003728:	00500593          	li	a1,5
8000372c:	00000517          	auipc	a0,0x0
80003730:	37c50513          	addi	a0,a0,892 # 80003aa8 <main+0xa08>
80003734:	ae9fd0ef          	jal	ra,8000121c <debug_printf>
80003738:	f6c42783          	lw	a5,-148(s0)
8000373c:	00000517          	auipc	a0,0x0
80003740:	5d050513          	addi	a0,a0,1488 # 80003d0c <main+0xc6c>
80003744:	417787b3          	sub	a5,a5,s7
80003748:	00379713          	slli	a4,a5,0x3
8000374c:	40f707b3          	sub	a5,a4,a5
80003750:	416785b3          	sub	a1,a5,s6
80003754:	ac9fd0ef          	jal	ra,8000121c <debug_printf>
80003758:	00d00593          	li	a1,13
8000375c:	00000517          	auipc	a0,0x0
80003760:	34c50513          	addi	a0,a0,844 # 80003aa8 <main+0xa08>
80003764:	ab9fd0ef          	jal	ra,8000121c <debug_printf>
80003768:	f7842583          	lw	a1,-136(s0)
8000376c:	00000517          	auipc	a0,0x0
80003770:	5bc50513          	addi	a0,a0,1468 # 80003d28 <main+0xc88>
80003774:	aa9fd0ef          	jal	ra,8000121c <debug_printf>
80003778:	00700593          	li	a1,7
8000377c:	00000517          	auipc	a0,0x0
80003780:	32c50513          	addi	a0,a0,812 # 80003aa8 <main+0xa08>
80003784:	a99fd0ef          	jal	ra,8000121c <debug_printf>
80003788:	f7c42583          	lw	a1,-132(s0)
8000378c:	00000517          	auipc	a0,0x0
80003790:	5b850513          	addi	a0,a0,1464 # 80003d44 <main+0xca4>
80003794:	a89fd0ef          	jal	ra,8000121c <debug_printf>
80003798:	00000517          	auipc	a0,0x0
8000379c:	31050513          	addi	a0,a0,784 # 80003aa8 <main+0xa08>
800037a0:	00100593          	li	a1,1
800037a4:	a79fd0ef          	jal	ra,8000121c <debug_printf>
800037a8:	f8040593          	addi	a1,s0,-128
800037ac:	00000517          	auipc	a0,0x0
800037b0:	5b450513          	addi	a0,a0,1460 # 80003d60 <main+0xcc0>
800037b4:	a69fd0ef          	jal	ra,8000121c <debug_printf>
800037b8:	00000517          	auipc	a0,0x0
800037bc:	5c450513          	addi	a0,a0,1476 # 80003d7c <main+0xcdc>
800037c0:	a5dfd0ef          	jal	ra,8000121c <debug_printf>
800037c4:	fa040593          	addi	a1,s0,-96
800037c8:	00000517          	auipc	a0,0x0
800037cc:	5ec50513          	addi	a0,a0,1516 # 80003db4 <main+0xd14>
800037d0:	a4dfd0ef          	jal	ra,8000121c <debug_printf>
800037d4:	00000517          	auipc	a0,0x0
800037d8:	5fc50513          	addi	a0,a0,1532 # 80003dd0 <main+0xd30>
800037dc:	a41fd0ef          	jal	ra,8000121c <debug_printf>
800037e0:	00000517          	auipc	a0,0x0
800037e4:	3b450513          	addi	a0,a0,948 # 80003b94 <main+0xaf4>
800037e8:	a35fd0ef          	jal	ra,8000121c <debug_printf>
800037ec:	00001797          	auipc	a5,0x1
800037f0:	a8878793          	addi	a5,a5,-1400 # 80004274 <User_Time>
800037f4:	f6842903          	lw	s2,-152(s0)
800037f8:	0007a983          	lw	s3,0(a5)
800037fc:	00090593          	mv	a1,s2
80003800:	00098513          	mv	a0,s3
80003804:	fe8ff0ef          	jal	ra,80002fec <__divsi3>
80003808:	00591793          	slli	a5,s2,0x5
8000380c:	41278733          	sub	a4,a5,s2
80003810:	00671793          	slli	a5,a4,0x6
80003814:	40e787b3          	sub	a5,a5,a4
80003818:	00090693          	mv	a3,s2
8000381c:	00379793          	slli	a5,a5,0x3
80003820:	00050913          	mv	s2,a0
80003824:	00d78533          	add	a0,a5,a3
80003828:	00098593          	mv	a1,s3
8000382c:	00001797          	auipc	a5,0x1
80003830:	a527a223          	sw	s2,-1468(a5) # 80004270 <Microseconds>
80003834:	00651513          	slli	a0,a0,0x6
80003838:	fb4ff0ef          	jal	ra,80002fec <__divsi3>
8000383c:	00050793          	mv	a5,a0
80003840:	00090593          	mv	a1,s2
80003844:	00000517          	auipc	a0,0x0
80003848:	5c450513          	addi	a0,a0,1476 # 80003e08 <main+0xd68>
8000384c:	00f4a023          	sw	a5,0(s1)
80003850:	b80fe0ef          	jal	ra,80001bd0 <printf>
80003854:	0004a583          	lw	a1,0(s1)
80003858:	00000517          	auipc	a0,0x0
8000385c:	5e450513          	addi	a0,a0,1508 # 80003e3c <main+0xd9c>
80003860:	b70fe0ef          	jal	ra,80001bd0 <printf>
80003864:	f6040113          	addi	sp,s0,-160
80003868:	09c12083          	lw	ra,156(sp)
8000386c:	09812403          	lw	s0,152(sp)
80003870:	09412483          	lw	s1,148(sp)
80003874:	09012903          	lw	s2,144(sp)
80003878:	08c12983          	lw	s3,140(sp)
8000387c:	08812a03          	lw	s4,136(sp)
80003880:	08412a83          	lw	s5,132(sp)
80003884:	08012b03          	lw	s6,128(sp)
80003888:	07c12b83          	lw	s7,124(sp)
8000388c:	07812c03          	lw	s8,120(sp)
80003890:	07412c83          	lw	s9,116(sp)
80003894:	07012d03          	lw	s10,112(sp)
80003898:	06c12d83          	lw	s11,108(sp)
8000389c:	00000513          	li	a0,0
800038a0:	0a010113          	addi	sp,sp,160
800038a4:	00008067          	ret
800038a8:	00300c93          	li	s9,3
800038ac:	b75ff06f          	j	80003420 <main+0x380>
800038b0:	00000517          	auipc	a0,0x0
800038b4:	16c50513          	addi	a0,a0,364 # 80003a1c <main+0x97c>
800038b8:	b18fe0ef          	jal	ra,80001bd0 <printf>
800038bc:	f6842703          	lw	a4,-152(s0)
800038c0:	00000517          	auipc	a0,0x0
800038c4:	2d450513          	addi	a0,a0,724 # 80003b94 <main+0xaf4>
800038c8:	00271793          	slli	a5,a4,0x2
800038cc:	00e787b3          	add	a5,a5,a4
800038d0:	00179793          	slli	a5,a5,0x1
800038d4:	f6f42423          	sw	a5,-152(s0)
800038d8:	af8fe0ef          	jal	ra,80001bd0 <printf>
800038dc:	00001797          	auipc	a5,0x1
800038e0:	9a478793          	addi	a5,a5,-1628 # 80004280 <Done>
800038e4:	0007a783          	lw	a5,0(a5)
800038e8:	980782e3          	beqz	a5,8000326c <main+0x1cc>
800038ec:	000c8b93          	mv	s7,s9
800038f0:	bb9ff06f          	j	800034a8 <main+0x408>
800038f4:	00000517          	auipc	a0,0x0
800038f8:	0b450513          	addi	a0,a0,180 # 800039a8 <main+0x908>
800038fc:	921fd0ef          	jal	ra,8000121c <debug_printf>
80003900:	90dff06f          	j	8000320c <main+0x16c>
80003904:	ff010113          	addi	sp,sp,-16
80003908:	00000517          	auipc	a0,0x0
8000390c:	5e450513          	addi	a0,a0,1508 # 80003eec <main+0xe4c>
80003910:	00112623          	sw	ra,12(sp)
80003914:	a10fe0ef          	jal	ra,80001b24 <printstr>
80003918:	00c12083          	lw	ra,12(sp)
8000391c:	fff00513          	li	a0,-1
80003920:	01010113          	addi	sp,sp,16
80003924:	00008067          	ret
