
median.riscv:     file format elf32-littleriscv


Disassembly of section .text.init:

80000000 <_start>:
80000000:	00000093          	li	ra,0
80000004:	00000113          	li	sp,0
80000008:	00000193          	li	gp,0
8000000c:	00000213          	li	tp,0
80000010:	00000293          	li	t0,0
80000014:	00000313          	li	t1,0
80000018:	00000393          	li	t2,0
8000001c:	00000413          	li	s0,0
80000020:	00000493          	li	s1,0
80000024:	00000513          	li	a0,0
80000028:	00000593          	li	a1,0
8000002c:	00000613          	li	a2,0
80000030:	00000693          	li	a3,0
80000034:	00000713          	li	a4,0
80000038:	00000793          	li	a5,0
8000003c:	00000813          	li	a6,0
80000040:	00000893          	li	a7,0
80000044:	00000913          	li	s2,0
80000048:	00000993          	li	s3,0
8000004c:	00000a13          	li	s4,0
80000050:	00000a93          	li	s5,0
80000054:	00000b13          	li	s6,0
80000058:	00000b93          	li	s7,0
8000005c:	00000c13          	li	s8,0
80000060:	00000c93          	li	s9,0
80000064:	00000d13          	li	s10,0
80000068:	00000d93          	li	s11,0
8000006c:	00000e13          	li	t3,0
80000070:	00000e93          	li	t4,0
80000074:	00000f13          	li	t5,0
80000078:	00000f93          	li	t6,0
8000007c:	0001e2b7          	lui	t0,0x1e
80000080:	3002a073          	csrs	mstatus,t0
80000084:	00100293          	li	t0,1
80000088:	01f29293          	slli	t0,t0,0x1f
8000008c:	0002ca63          	bltz	t0,800000a0 <_start+0xa0>
80000090:	00100513          	li	a0,1
80000094:	00001297          	auipc	t0,0x1
80000098:	f6a2a623          	sw	a0,-148(t0) # 80001000 <tohost>
8000009c:	ff5ff06f          	j	80000090 <_start+0x90>
800000a0:	00000297          	auipc	t0,0x0
800000a4:	04028293          	addi	t0,t0,64 # 800000e0 <trap_entry>
800000a8:	30529073          	csrw	mtvec,t0
800000ac:	00004197          	auipc	gp,0x4
800000b0:	52418193          	addi	gp,gp,1316 # 800045d0 <__global_pointer$>
800000b4:	86f18213          	addi	tp,gp,-1937 # 80003e3f <_end+0x3f>
800000b8:	fc027213          	andi	tp,tp,-64
800000bc:	f1402573          	csrr	a0,mhartid
800000c0:	00100593          	li	a1,1
800000c4:	00b57063          	bgeu	a0,a1,800000c4 <_start+0xc4>
800000c8:	01151613          	slli	a2,a0,0x11
800000cc:	00c20233          	add	tp,tp,a2
800000d0:	00150113          	addi	sp,a0,1
800000d4:	01111113          	slli	sp,sp,0x11
800000d8:	00410133          	add	sp,sp,tp
800000dc:	0d10106f          	j	800019ac <_init>

800000e0 <trap_entry>:
800000e0:	ef010113          	addi	sp,sp,-272
800000e4:	00112223          	sw	ra,4(sp)
800000e8:	00212423          	sw	sp,8(sp)
800000ec:	00312623          	sw	gp,12(sp)
800000f0:	00412823          	sw	tp,16(sp)
800000f4:	00512a23          	sw	t0,20(sp)
800000f8:	00612c23          	sw	t1,24(sp)
800000fc:	00712e23          	sw	t2,28(sp)
80000100:	02812023          	sw	s0,32(sp)
80000104:	02912223          	sw	s1,36(sp)
80000108:	02a12423          	sw	a0,40(sp)
8000010c:	02b12623          	sw	a1,44(sp)
80000110:	02c12823          	sw	a2,48(sp)
80000114:	02d12a23          	sw	a3,52(sp)
80000118:	02e12c23          	sw	a4,56(sp)
8000011c:	02f12e23          	sw	a5,60(sp)
80000120:	05012023          	sw	a6,64(sp)
80000124:	05112223          	sw	a7,68(sp)
80000128:	05212423          	sw	s2,72(sp)
8000012c:	05312623          	sw	s3,76(sp)
80000130:	05412823          	sw	s4,80(sp)
80000134:	05512a23          	sw	s5,84(sp)
80000138:	05612c23          	sw	s6,88(sp)
8000013c:	05712e23          	sw	s7,92(sp)
80000140:	07812023          	sw	s8,96(sp)
80000144:	07912223          	sw	s9,100(sp)
80000148:	07a12423          	sw	s10,104(sp)
8000014c:	07b12623          	sw	s11,108(sp)
80000150:	07c12823          	sw	t3,112(sp)
80000154:	07d12a23          	sw	t4,116(sp)
80000158:	07e12c23          	sw	t5,120(sp)
8000015c:	07f12e23          	sw	t6,124(sp)
80000160:	34202573          	csrr	a0,mcause
80000164:	341025f3          	csrr	a1,mepc
80000168:	00010613          	mv	a2,sp
8000016c:	5d0010ef          	jal	ra,8000173c <handle_trap>
80000170:	34151073          	csrw	mepc,a0
80000174:	000022b7          	lui	t0,0x2
80000178:	80028293          	addi	t0,t0,-2048 # 1800 <buflen.2941+0x17c0>
8000017c:	3002a073          	csrs	mstatus,t0
80000180:	00412083          	lw	ra,4(sp)
80000184:	00812103          	lw	sp,8(sp)
80000188:	00c12183          	lw	gp,12(sp)
8000018c:	01012203          	lw	tp,16(sp)
80000190:	01412283          	lw	t0,20(sp)
80000194:	01812303          	lw	t1,24(sp)
80000198:	01c12383          	lw	t2,28(sp)
8000019c:	02012403          	lw	s0,32(sp)
800001a0:	02412483          	lw	s1,36(sp)
800001a4:	02812503          	lw	a0,40(sp)
800001a8:	02c12583          	lw	a1,44(sp)
800001ac:	03012603          	lw	a2,48(sp)
800001b0:	03412683          	lw	a3,52(sp)
800001b4:	03812703          	lw	a4,56(sp)
800001b8:	03c12783          	lw	a5,60(sp)
800001bc:	04012803          	lw	a6,64(sp)
800001c0:	04412883          	lw	a7,68(sp)
800001c4:	04812903          	lw	s2,72(sp)
800001c8:	04c12983          	lw	s3,76(sp)
800001cc:	05012a03          	lw	s4,80(sp)
800001d0:	05412a83          	lw	s5,84(sp)
800001d4:	05812b03          	lw	s6,88(sp)
800001d8:	05c12b83          	lw	s7,92(sp)
800001dc:	06012c03          	lw	s8,96(sp)
800001e0:	06412c83          	lw	s9,100(sp)
800001e4:	06812d03          	lw	s10,104(sp)
800001e8:	06c12d83          	lw	s11,108(sp)
800001ec:	07012e03          	lw	t3,112(sp)
800001f0:	07412e83          	lw	t4,116(sp)
800001f4:	07812f03          	lw	t5,120(sp)
800001f8:	07c12f83          	lw	t6,124(sp)
800001fc:	11010113          	addi	sp,sp,272
80000200:	30200073          	mret

Disassembly of section .text:

80001048 <median>:
80001048:	00251793          	slli	a5,a0,0x2
8000104c:	ffc78793          	addi	a5,a5,-4
80001050:	00f60733          	add	a4,a2,a5
80001054:	00062023          	sw	zero,0(a2)
80001058:	00072023          	sw	zero,0(a4)
8000105c:	00200713          	li	a4,2
80001060:	02a75c63          	bge	a4,a0,80001098 <median+0x50>
80001064:	00b78533          	add	a0,a5,a1
80001068:	00460613          	addi	a2,a2,4
8000106c:	ffc50513          	addi	a0,a0,-4
80001070:	0005a703          	lw	a4,0(a1)
80001074:	0045a783          	lw	a5,4(a1)
80001078:	0085a683          	lw	a3,8(a1)
8000107c:	02f75063          	bge	a4,a5,8000109c <median+0x54>
80001080:	02d7c663          	blt	a5,a3,800010ac <median+0x64>
80001084:	02e6d063          	bge	a3,a4,800010a4 <median+0x5c>
80001088:	00e62023          	sw	a4,0(a2)
8000108c:	00458593          	addi	a1,a1,4
80001090:	00460613          	addi	a2,a2,4
80001094:	fca59ee3          	bne	a1,a0,80001070 <median+0x28>
80001098:	00008067          	ret
8000109c:	fed746e3          	blt	a4,a3,80001088 <median+0x40>
800010a0:	00f6c663          	blt	a3,a5,800010ac <median+0x64>
800010a4:	00d62023          	sw	a3,0(a2)
800010a8:	fe5ff06f          	j	8000108c <median+0x44>
800010ac:	00f62023          	sw	a5,0(a2)
800010b0:	fddff06f          	j	8000108c <median+0x44>

800010b4 <vprintfmt>:
800010b4:	eb010113          	addi	sp,sp,-336
800010b8:	13912223          	sw	s9,292(sp)
800010bc:	40000cb7          	lui	s9,0x40000
800010c0:	fffc8793          	addi	a5,s9,-1 # 3fffffff <buflen.2941+0x3fffffbf>
800010c4:	14812423          	sw	s0,328(sp)
800010c8:	14912223          	sw	s1,324(sp)
800010cc:	15212023          	sw	s2,320(sp)
800010d0:	13512a23          	sw	s5,308(sp)
800010d4:	14112623          	sw	ra,332(sp)
800010d8:	13312e23          	sw	s3,316(sp)
800010dc:	13412c23          	sw	s4,312(sp)
800010e0:	13612823          	sw	s6,304(sp)
800010e4:	13712623          	sw	s7,300(sp)
800010e8:	13812423          	sw	s8,296(sp)
800010ec:	13a12023          	sw	s10,288(sp)
800010f0:	11b12e23          	sw	s11,284(sp)
800010f4:	00050913          	mv	s2,a0
800010f8:	00058493          	mv	s1,a1
800010fc:	00060413          	mv	s0,a2
80001100:	00d12423          	sw	a3,8(sp)
80001104:	02500a93          	li	s5,37
80001108:	00f12623          	sw	a5,12(sp)
8000110c:	0140006f          	j	80001120 <vprintfmt+0x6c>
80001110:	06050463          	beqz	a0,80001178 <vprintfmt+0xc4>
80001114:	00048593          	mv	a1,s1
80001118:	00140413          	addi	s0,s0,1
8000111c:	000900e7          	jalr	s2
80001120:	00044503          	lbu	a0,0(s0)
80001124:	ff5516e3          	bne	a0,s5,80001110 <vprintfmt+0x5c>
80001128:	00144683          	lbu	a3,1(s0)
8000112c:	00140d93          	addi	s11,s0,1
80001130:	000d8713          	mv	a4,s11
80001134:	02000b93          	li	s7,32
80001138:	fff00993          	li	s3,-1
8000113c:	fff00a13          	li	s4,-1
80001140:	00000593          	li	a1,0
80001144:	05500613          	li	a2,85
80001148:	00900513          	li	a0,9
8000114c:	fdd68793          	addi	a5,a3,-35
80001150:	0ff7f793          	andi	a5,a5,255
80001154:	00170413          	addi	s0,a4,1
80001158:	06f66c63          	bltu	a2,a5,800011d0 <vprintfmt+0x11c>
8000115c:	00002817          	auipc	a6,0x2
80001160:	c9880813          	addi	a6,a6,-872 # 80002df4 <main+0xf8>
80001164:	00279793          	slli	a5,a5,0x2
80001168:	010787b3          	add	a5,a5,a6
8000116c:	0007a783          	lw	a5,0(a5)
80001170:	010787b3          	add	a5,a5,a6
80001174:	00078067          	jr	a5
80001178:	14c12083          	lw	ra,332(sp)
8000117c:	14812403          	lw	s0,328(sp)
80001180:	14412483          	lw	s1,324(sp)
80001184:	14012903          	lw	s2,320(sp)
80001188:	13c12983          	lw	s3,316(sp)
8000118c:	13812a03          	lw	s4,312(sp)
80001190:	13412a83          	lw	s5,308(sp)
80001194:	13012b03          	lw	s6,304(sp)
80001198:	12c12b83          	lw	s7,300(sp)
8000119c:	12812c03          	lw	s8,296(sp)
800011a0:	12412c83          	lw	s9,292(sp)
800011a4:	12012d03          	lw	s10,288(sp)
800011a8:	11c12d83          	lw	s11,284(sp)
800011ac:	15010113          	addi	sp,sp,336
800011b0:	00008067          	ret
800011b4:	00068b93          	mv	s7,a3
800011b8:	00174683          	lbu	a3,1(a4)
800011bc:	00040713          	mv	a4,s0
800011c0:	00170413          	addi	s0,a4,1
800011c4:	fdd68793          	addi	a5,a3,-35
800011c8:	0ff7f793          	andi	a5,a5,255
800011cc:	f8f678e3          	bgeu	a2,a5,8000115c <vprintfmt+0xa8>
800011d0:	00048593          	mv	a1,s1
800011d4:	02500513          	li	a0,37
800011d8:	000900e7          	jalr	s2
800011dc:	000d8413          	mv	s0,s11
800011e0:	f41ff06f          	j	80001120 <vprintfmt+0x6c>
800011e4:	00174803          	lbu	a6,1(a4)
800011e8:	fd068993          	addi	s3,a3,-48
800011ec:	00040713          	mv	a4,s0
800011f0:	fd080793          	addi	a5,a6,-48
800011f4:	00080693          	mv	a3,a6
800011f8:	02f56663          	bltu	a0,a5,80001224 <vprintfmt+0x170>
800011fc:	00299793          	slli	a5,s3,0x2
80001200:	013789b3          	add	s3,a5,s3
80001204:	00170713          	addi	a4,a4,1
80001208:	00199993          	slli	s3,s3,0x1
8000120c:	010989b3          	add	s3,s3,a6
80001210:	00074803          	lbu	a6,0(a4)
80001214:	fd098993          	addi	s3,s3,-48
80001218:	fd080793          	addi	a5,a6,-48
8000121c:	00080693          	mv	a3,a6
80001220:	fcf57ee3          	bgeu	a0,a5,800011fc <vprintfmt+0x148>
80001224:	f20a54e3          	bgez	s4,8000114c <vprintfmt+0x98>
80001228:	00098a13          	mv	s4,s3
8000122c:	fff00993          	li	s3,-1
80001230:	f1dff06f          	j	8000114c <vprintfmt+0x98>
80001234:	00174683          	lbu	a3,1(a4)
80001238:	00040713          	mv	a4,s0
8000123c:	f11ff06f          	j	8000114c <vprintfmt+0x98>
80001240:	00048593          	mv	a1,s1
80001244:	02500513          	li	a0,37
80001248:	000900e7          	jalr	s2
8000124c:	ed5ff06f          	j	80001120 <vprintfmt+0x6c>
80001250:	00812783          	lw	a5,8(sp)
80001254:	00174683          	lbu	a3,1(a4)
80001258:	00040713          	mv	a4,s0
8000125c:	0007a983          	lw	s3,0(a5)
80001260:	00478793          	addi	a5,a5,4
80001264:	00f12423          	sw	a5,8(sp)
80001268:	fbdff06f          	j	80001224 <vprintfmt+0x170>
8000126c:	03000513          	li	a0,48
80001270:	00048593          	mv	a1,s1
80001274:	000900e7          	jalr	s2
80001278:	00048593          	mv	a1,s1
8000127c:	07800513          	li	a0,120
80001280:	000900e7          	jalr	s2
80001284:	00812783          	lw	a5,8(sp)
80001288:	01000c13          	li	s8,16
8000128c:	00012223          	sw	zero,4(sp)
80001290:	00478713          	addi	a4,a5,4
80001294:	00812783          	lw	a5,8(sp)
80001298:	00000d93          	li	s11,0
8000129c:	0007a983          	lw	s3,0(a5)
800012a0:	00e12423          	sw	a4,8(sp)
800012a4:	000c0613          	mv	a2,s8
800012a8:	00000693          	li	a3,0
800012ac:	00098513          	mv	a0,s3
800012b0:	000d8593          	mv	a1,s11
800012b4:	480010ef          	jal	ra,80002734 <__umoddi3>
800012b8:	00a12823          	sw	a0,16(sp)
800012bc:	00000793          	li	a5,0
800012c0:	00050c93          	mv	s9,a0
800012c4:	23b78063          	beq	a5,s11,800014e4 <vprintfmt+0x430>
800012c8:	01410b13          	addi	s6,sp,20
800012cc:	00100d13          	li	s10,1
800012d0:	000c0613          	mv	a2,s8
800012d4:	00000693          	li	a3,0
800012d8:	00098513          	mv	a0,s3
800012dc:	000d8593          	mv	a1,s11
800012e0:	67d000ef          	jal	ra,8000215c <__udivdi3>
800012e4:	000c0613          	mv	a2,s8
800012e8:	00000693          	li	a3,0
800012ec:	00050993          	mv	s3,a0
800012f0:	00058d93          	mv	s11,a1
800012f4:	440010ef          	jal	ra,80002734 <__umoddi3>
800012f8:	00412783          	lw	a5,4(sp)
800012fc:	00ab2023          	sw	a0,0(s6)
80001300:	01a12023          	sw	s10,0(sp)
80001304:	00050c93          	mv	s9,a0
80001308:	004b0b13          	addi	s6,s6,4
8000130c:	001d0d13          	addi	s10,s10,1
80001310:	fdb790e3          	bne	a5,s11,800012d0 <vprintfmt+0x21c>
80001314:	fb89fee3          	bgeu	s3,s8,800012d0 <vprintfmt+0x21c>
80001318:	014d5c63          	bge	s10,s4,80001330 <vprintfmt+0x27c>
8000131c:	fffa0a13          	addi	s4,s4,-1
80001320:	00048593          	mv	a1,s1
80001324:	000b8513          	mv	a0,s7
80001328:	000900e7          	jalr	s2
8000132c:	ff4d48e3          	blt	s10,s4,8000131c <vprintfmt+0x268>
80001330:	00012783          	lw	a5,0(sp)
80001334:	00c12703          	lw	a4,12(sp)
80001338:	00900993          	li	s3,9
8000133c:	00e78a33          	add	s4,a5,a4
80001340:	002a1a13          	slli	s4,s4,0x2
80001344:	01010793          	addi	a5,sp,16
80001348:	01478a33          	add	s4,a5,s4
8000134c:	00c0006f          	j	80001358 <vprintfmt+0x2a4>
80001350:	000a2c83          	lw	s9,0(s4)
80001354:	ffca0a13          	addi	s4,s4,-4
80001358:	0199b7b3          	sltu	a5,s3,s9
8000135c:	40f007b3          	neg	a5,a5
80001360:	0277f793          	andi	a5,a5,39
80001364:	03078793          	addi	a5,a5,48
80001368:	01978533          	add	a0,a5,s9
8000136c:	00048593          	mv	a1,s1
80001370:	000900e7          	jalr	s2
80001374:	00c10793          	addi	a5,sp,12
80001378:	fd479ce3          	bne	a5,s4,80001350 <vprintfmt+0x29c>
8000137c:	da5ff06f          	j	80001120 <vprintfmt+0x6c>
80001380:	00100793          	li	a5,1
80001384:	16b7cc63          	blt	a5,a1,800014fc <vprintfmt+0x448>
80001388:	00812703          	lw	a4,8(sp)
8000138c:	00470793          	addi	a5,a4,4
80001390:	18058663          	beqz	a1,8000151c <vprintfmt+0x468>
80001394:	00072983          	lw	s3,0(a4)
80001398:	00f12423          	sw	a5,8(sp)
8000139c:	41f9dc13          	srai	s8,s3,0x1f
800013a0:	180c4e63          	bltz	s8,8000153c <vprintfmt+0x488>
800013a4:	000c0d93          	mv	s11,s8
800013a8:	00012223          	sw	zero,4(sp)
800013ac:	00a00c13          	li	s8,10
800013b0:	ef5ff06f          	j	800012a4 <vprintfmt+0x1f0>
800013b4:	01000c13          	li	s8,16
800013b8:	00012223          	sw	zero,4(sp)
800013bc:	00100793          	li	a5,1
800013c0:	10b7c263          	blt	a5,a1,800014c4 <vprintfmt+0x410>
800013c4:	00812783          	lw	a5,8(sp)
800013c8:	00478713          	addi	a4,a5,4
800013cc:	ec9ff06f          	j	80001294 <vprintfmt+0x1e0>
800013d0:	00812783          	lw	a5,8(sp)
800013d4:	0007ad83          	lw	s11,0(a5)
800013d8:	00478b13          	addi	s6,a5,4
800013dc:	180d8463          	beqz	s11,80001564 <vprintfmt+0x4b0>
800013e0:	09405863          	blez	s4,80001470 <vprintfmt+0x3bc>
800013e4:	02d00793          	li	a5,45
800013e8:	04fb9e63          	bne	s7,a5,80001444 <vprintfmt+0x390>
800013ec:	000dc503          	lbu	a0,0(s11)
800013f0:	02050863          	beqz	a0,80001420 <vprintfmt+0x36c>
800013f4:	fff00b93          	li	s7,-1
800013f8:	0009c663          	bltz	s3,80001404 <vprintfmt+0x350>
800013fc:	fff98993          	addi	s3,s3,-1
80001400:	01798e63          	beq	s3,s7,8000141c <vprintfmt+0x368>
80001404:	00048593          	mv	a1,s1
80001408:	001d8d93          	addi	s11,s11,1
8000140c:	000900e7          	jalr	s2
80001410:	000dc503          	lbu	a0,0(s11)
80001414:	fffa0a13          	addi	s4,s4,-1
80001418:	fe0510e3          	bnez	a0,800013f8 <vprintfmt+0x344>
8000141c:	01405c63          	blez	s4,80001434 <vprintfmt+0x380>
80001420:	fffa0a13          	addi	s4,s4,-1
80001424:	00048593          	mv	a1,s1
80001428:	02000513          	li	a0,32
8000142c:	000900e7          	jalr	s2
80001430:	fe0a18e3          	bnez	s4,80001420 <vprintfmt+0x36c>
80001434:	01612423          	sw	s6,8(sp)
80001438:	ce9ff06f          	j	80001120 <vprintfmt+0x6c>
8000143c:	00002d97          	auipc	s11,0x2
80001440:	978d8d93          	addi	s11,s11,-1672 # 80002db4 <main+0xb8>
80001444:	000d8793          	mv	a5,s11
80001448:	013d86b3          	add	a3,s11,s3
8000144c:	00099863          	bnez	s3,8000145c <vprintfmt+0x3a8>
80001450:	1340006f          	j	80001584 <vprintfmt+0x4d0>
80001454:	00178793          	addi	a5,a5,1
80001458:	00d78663          	beq	a5,a3,80001464 <vprintfmt+0x3b0>
8000145c:	0007c703          	lbu	a4,0(a5)
80001460:	fe071ae3          	bnez	a4,80001454 <vprintfmt+0x3a0>
80001464:	41b787b3          	sub	a5,a5,s11
80001468:	40fa0a33          	sub	s4,s4,a5
8000146c:	11404c63          	bgtz	s4,80001584 <vprintfmt+0x4d0>
80001470:	000dc503          	lbu	a0,0(s11)
80001474:	fc0500e3          	beqz	a0,80001434 <vprintfmt+0x380>
80001478:	fff00b93          	li	s7,-1
8000147c:	f7dff06f          	j	800013f8 <vprintfmt+0x344>
80001480:	fffa4793          	not	a5,s4
80001484:	41f7d793          	srai	a5,a5,0x1f
80001488:	00174683          	lbu	a3,1(a4)
8000148c:	00fa7a33          	and	s4,s4,a5
80001490:	00040713          	mv	a4,s0
80001494:	cb9ff06f          	j	8000114c <vprintfmt+0x98>
80001498:	00812783          	lw	a5,8(sp)
8000149c:	00048593          	mv	a1,s1
800014a0:	0007a503          	lw	a0,0(a5)
800014a4:	00478b13          	addi	s6,a5,4
800014a8:	000900e7          	jalr	s2
800014ac:	01612423          	sw	s6,8(sp)
800014b0:	c71ff06f          	j	80001120 <vprintfmt+0x6c>
800014b4:	00174683          	lbu	a3,1(a4)
800014b8:	00158593          	addi	a1,a1,1
800014bc:	00040713          	mv	a4,s0
800014c0:	c8dff06f          	j	8000114c <vprintfmt+0x98>
800014c4:	00812783          	lw	a5,8(sp)
800014c8:	00778b13          	addi	s6,a5,7
800014cc:	ff8b7b13          	andi	s6,s6,-8
800014d0:	008b0793          	addi	a5,s6,8
800014d4:	000b2983          	lw	s3,0(s6)
800014d8:	004b2d83          	lw	s11,4(s6)
800014dc:	00f12423          	sw	a5,8(sp)
800014e0:	dc5ff06f          	j	800012a4 <vprintfmt+0x1f0>
800014e4:	df89f2e3          	bgeu	s3,s8,800012c8 <vprintfmt+0x214>
800014e8:	00100793          	li	a5,1
800014ec:	00012023          	sw	zero,0(sp)
800014f0:	00100d13          	li	s10,1
800014f4:	e347c4e3          	blt	a5,s4,8000131c <vprintfmt+0x268>
800014f8:	e39ff06f          	j	80001330 <vprintfmt+0x27c>
800014fc:	00812783          	lw	a5,8(sp)
80001500:	00778b13          	addi	s6,a5,7
80001504:	ff8b7b13          	andi	s6,s6,-8
80001508:	008b0793          	addi	a5,s6,8
8000150c:	000b2983          	lw	s3,0(s6)
80001510:	004b2c03          	lw	s8,4(s6)
80001514:	00f12423          	sw	a5,8(sp)
80001518:	e89ff06f          	j	800013a0 <vprintfmt+0x2ec>
8000151c:	00812703          	lw	a4,8(sp)
80001520:	e75ff06f          	j	80001394 <vprintfmt+0x2e0>
80001524:	00800c13          	li	s8,8
80001528:	00012223          	sw	zero,4(sp)
8000152c:	e91ff06f          	j	800013bc <vprintfmt+0x308>
80001530:	00a00c13          	li	s8,10
80001534:	00012223          	sw	zero,4(sp)
80001538:	e85ff06f          	j	800013bc <vprintfmt+0x308>
8000153c:	00048593          	mv	a1,s1
80001540:	02d00513          	li	a0,45
80001544:	000900e7          	jalr	s2
80001548:	01303733          	snez	a4,s3
8000154c:	418007b3          	neg	a5,s8
80001550:	413009b3          	neg	s3,s3
80001554:	40e78db3          	sub	s11,a5,a4
80001558:	00a00c13          	li	s8,10
8000155c:	00012223          	sw	zero,4(sp)
80001560:	d45ff06f          	j	800012a4 <vprintfmt+0x1f0>
80001564:	01405663          	blez	s4,80001570 <vprintfmt+0x4bc>
80001568:	02d00793          	li	a5,45
8000156c:	ecfb98e3          	bne	s7,a5,8000143c <vprintfmt+0x388>
80001570:	00002d97          	auipc	s11,0x2
80001574:	844d8d93          	addi	s11,s11,-1980 # 80002db4 <main+0xb8>
80001578:	02800513          	li	a0,40
8000157c:	fff00b93          	li	s7,-1
80001580:	e79ff06f          	j	800013f8 <vprintfmt+0x344>
80001584:	fffa0a13          	addi	s4,s4,-1
80001588:	00048593          	mv	a1,s1
8000158c:	000b8513          	mv	a0,s7
80001590:	000900e7          	jalr	s2
80001594:	ec0a0ee3          	beqz	s4,80001470 <vprintfmt+0x3bc>
80001598:	fffa0a13          	addi	s4,s4,-1
8000159c:	00048593          	mv	a1,s1
800015a0:	000b8513          	mv	a0,s7
800015a4:	000900e7          	jalr	s2
800015a8:	fc0a1ee3          	bnez	s4,80001584 <vprintfmt+0x4d0>
800015ac:	ec5ff06f          	j	80001470 <vprintfmt+0x3bc>

800015b0 <sprintf_putch.3055>:
800015b0:	0005a783          	lw	a5,0(a1)
800015b4:	00a78023          	sb	a0,0(a5)
800015b8:	0005a783          	lw	a5,0(a1)
800015bc:	00178793          	addi	a5,a5,1
800015c0:	00f5a023          	sw	a5,0(a1)
800015c4:	00008067          	ret

800015c8 <syscall.constprop.0>:
800015c8:	f8010113          	addi	sp,sp,-128
800015cc:	03f10813          	addi	a6,sp,63
800015d0:	fc087813          	andi	a6,a6,-64
800015d4:	04000713          	li	a4,64
800015d8:	00e82023          	sw	a4,0(a6)
800015dc:	00000793          	li	a5,0
800015e0:	00f82223          	sw	a5,4(a6)
800015e4:	00100713          	li	a4,1
800015e8:	00e82423          	sw	a4,8(a6)
800015ec:	00000793          	li	a5,0
800015f0:	00f82623          	sw	a5,12(a6)
800015f4:	00a82823          	sw	a0,16(a6)
800015f8:	00b82a23          	sw	a1,20(a6)
800015fc:	00c82c23          	sw	a2,24(a6)
80001600:	00d82e23          	sw	a3,28(a6)
80001604:	0ff0000f          	fence
80001608:	00000697          	auipc	a3,0x0
8000160c:	9f868693          	addi	a3,a3,-1544 # 80001000 <tohost>
80001610:	0106a023          	sw	a6,0(a3)
80001614:	00000793          	li	a5,0
80001618:	00f6a223          	sw	a5,4(a3)
8000161c:	00000697          	auipc	a3,0x0
80001620:	a2468693          	addi	a3,a3,-1500 # 80001040 <fromhost>
80001624:	0006a703          	lw	a4,0(a3)
80001628:	0046a783          	lw	a5,4(a3)
8000162c:	00f76733          	or	a4,a4,a5
80001630:	fe070ae3          	beqz	a4,80001624 <syscall.constprop.0+0x5c>
80001634:	00000713          	li	a4,0
80001638:	00e6a023          	sw	a4,0(a3)
8000163c:	00000793          	li	a5,0
80001640:	00f6a223          	sw	a5,4(a3)
80001644:	0ff0000f          	fence
80001648:	00082503          	lw	a0,0(a6)
8000164c:	00482583          	lw	a1,4(a6)
80001650:	08010113          	addi	sp,sp,128
80001654:	00008067          	ret

80001658 <putchar>:
80001658:	ff010113          	addi	sp,sp,-16
8000165c:	00812423          	sw	s0,8(sp)
80001660:	04022583          	lw	a1,64(tp) # 40 <buflen.2941>
80001664:	00020793          	mv	a5,tp
80001668:	00112623          	sw	ra,12(sp)
8000166c:	00b787b3          	add	a5,a5,a1
80001670:	00158613          	addi	a2,a1,1
80001674:	00a78023          	sb	a0,0(a5)
80001678:	04c22023          	sw	a2,64(tp) # 40 <buflen.2941>
8000167c:	00a00793          	li	a5,10
80001680:	02f50063          	beq	a0,a5,800016a0 <putchar+0x48>
80001684:	04000793          	li	a5,64
80001688:	00f60c63          	beq	a2,a5,800016a0 <putchar+0x48>
8000168c:	00c12083          	lw	ra,12(sp)
80001690:	00812403          	lw	s0,8(sp)
80001694:	00000513          	li	a0,0
80001698:	01010113          	addi	sp,sp,16
8000169c:	00008067          	ret
800016a0:	41f65693          	srai	a3,a2,0x1f
800016a4:	00020513          	mv	a0,tp
800016a8:	00000593          	li	a1,0
800016ac:	f1dff0ef          	jal	ra,800015c8 <syscall.constprop.0>
800016b0:	00c12083          	lw	ra,12(sp)
800016b4:	04022023          	sw	zero,64(tp) # 40 <buflen.2941>
800016b8:	00812403          	lw	s0,8(sp)
800016bc:	00000513          	li	a0,0
800016c0:	01010113          	addi	sp,sp,16
800016c4:	00008067          	ret

800016c8 <setStats>:
800016c8:	b0002773          	csrr	a4,mcycle
800016cc:	00002797          	auipc	a5,0x2
800016d0:	70c78793          	addi	a5,a5,1804 # 80003dd8 <counters>
800016d4:	00051e63          	bnez	a0,800016f0 <setStats+0x28>
800016d8:	0007a683          	lw	a3,0(a5)
800016dc:	00001617          	auipc	a2,0x1
800016e0:	6e060613          	addi	a2,a2,1760 # 80002dbc <main+0xc0>
800016e4:	00002597          	auipc	a1,0x2
800016e8:	6ec5a623          	sw	a2,1772(a1) # 80003dd0 <counter_names>
800016ec:	40d70733          	sub	a4,a4,a3
800016f0:	00e7a023          	sw	a4,0(a5)
800016f4:	b0202773          	csrr	a4,minstret
800016f8:	00051e63          	bnez	a0,80001714 <setStats+0x4c>
800016fc:	0047a683          	lw	a3,4(a5)
80001700:	00001617          	auipc	a2,0x1
80001704:	6c460613          	addi	a2,a2,1732 # 80002dc4 <main+0xc8>
80001708:	00002597          	auipc	a1,0x2
8000170c:	6cc5a623          	sw	a2,1740(a1) # 80003dd4 <counter_names+0x4>
80001710:	40d70733          	sub	a4,a4,a3
80001714:	00e7a223          	sw	a4,4(a5)
80001718:	00008067          	ret

8000171c <tohost_exit>:
8000171c:	00151693          	slli	a3,a0,0x1
80001720:	0016e713          	ori	a4,a3,1
80001724:	00000697          	auipc	a3,0x0
80001728:	8dc68693          	addi	a3,a3,-1828 # 80001000 <tohost>
8000172c:	00000793          	li	a5,0
80001730:	00e6a023          	sw	a4,0(a3)
80001734:	00f6a223          	sw	a5,4(a3)
80001738:	0000006f          	j	80001738 <tohost_exit+0x1c>

8000173c <handle_trap>:
8000173c:	00001637          	lui	a2,0x1
80001740:	00000797          	auipc	a5,0x0
80001744:	8c078793          	addi	a5,a5,-1856 # 80001000 <tohost>
80001748:	a7360613          	addi	a2,a2,-1421 # a73 <buflen.2941+0xa33>
8000174c:	00000693          	li	a3,0
80001750:	00c7a023          	sw	a2,0(a5)
80001754:	00d7a223          	sw	a3,4(a5)
80001758:	0000006f          	j	80001758 <handle_trap+0x1c>

8000175c <exit>:
8000175c:	ff010113          	addi	sp,sp,-16
80001760:	00112623          	sw	ra,12(sp)
80001764:	fb9ff0ef          	jal	ra,8000171c <tohost_exit>

80001768 <abort>:
80001768:	00000797          	auipc	a5,0x0
8000176c:	89878793          	addi	a5,a5,-1896 # 80001000 <tohost>
80001770:	10d00613          	li	a2,269
80001774:	00000693          	li	a3,0
80001778:	00c7a023          	sw	a2,0(a5)
8000177c:	00d7a223          	sw	a3,4(a5)
80001780:	0000006f          	j	80001780 <abort+0x18>

80001784 <printstr>:
80001784:	00054783          	lbu	a5,0(a0)
80001788:	02078263          	beqz	a5,800017ac <printstr+0x28>
8000178c:	00050613          	mv	a2,a0
80001790:	00164783          	lbu	a5,1(a2)
80001794:	00160613          	addi	a2,a2,1
80001798:	fe079ce3          	bnez	a5,80001790 <printstr+0xc>
8000179c:	40a60633          	sub	a2,a2,a0
800017a0:	00000693          	li	a3,0
800017a4:	00000593          	li	a1,0
800017a8:	e21ff06f          	j	800015c8 <syscall.constprop.0>
800017ac:	00000613          	li	a2,0
800017b0:	00000693          	li	a3,0
800017b4:	00000593          	li	a1,0
800017b8:	e11ff06f          	j	800015c8 <syscall.constprop.0>

800017bc <thread_entry>:
800017bc:	00051063          	bnez	a0,800017bc <thread_entry>
800017c0:	00008067          	ret

800017c4 <printhex>:
800017c4:	fd010113          	addi	sp,sp,-48
800017c8:	00050713          	mv	a4,a0
800017cc:	02112623          	sw	ra,44(sp)
800017d0:	00c10513          	addi	a0,sp,12
800017d4:	01b10613          	addi	a2,sp,27
800017d8:	00900813          	li	a6,9
800017dc:	0080006f          	j	800017e4 <printhex+0x20>
800017e0:	00078613          	mv	a2,a5
800017e4:	00f77793          	andi	a5,a4,15
800017e8:	00f837b3          	sltu	a5,a6,a5
800017ec:	40f007b3          	neg	a5,a5
800017f0:	0277f793          	andi	a5,a5,39
800017f4:	00f77693          	andi	a3,a4,15
800017f8:	03078793          	addi	a5,a5,48
800017fc:	00f687b3          	add	a5,a3,a5
80001800:	00f60023          	sb	a5,0(a2)
80001804:	01c59693          	slli	a3,a1,0x1c
80001808:	00475713          	srli	a4,a4,0x4
8000180c:	fff60793          	addi	a5,a2,-1
80001810:	00e6e733          	or	a4,a3,a4
80001814:	0045d593          	srli	a1,a1,0x4
80001818:	fcc514e3          	bne	a0,a2,800017e0 <printhex+0x1c>
8000181c:	00010e23          	sb	zero,28(sp)
80001820:	f65ff0ef          	jal	ra,80001784 <printstr>
80001824:	02c12083          	lw	ra,44(sp)
80001828:	03010113          	addi	sp,sp,48
8000182c:	00008067          	ret

80001830 <printf>:
80001830:	fc010113          	addi	sp,sp,-64
80001834:	02410313          	addi	t1,sp,36
80001838:	00050e13          	mv	t3,a0
8000183c:	02b12223          	sw	a1,36(sp)
80001840:	02c12423          	sw	a2,40(sp)
80001844:	02d12623          	sw	a3,44(sp)
80001848:	00000517          	auipc	a0,0x0
8000184c:	e1050513          	addi	a0,a0,-496 # 80001658 <putchar>
80001850:	00030693          	mv	a3,t1
80001854:	000e0613          	mv	a2,t3
80001858:	00000593          	li	a1,0
8000185c:	00112e23          	sw	ra,28(sp)
80001860:	02e12823          	sw	a4,48(sp)
80001864:	02f12a23          	sw	a5,52(sp)
80001868:	03012c23          	sw	a6,56(sp)
8000186c:	03112e23          	sw	a7,60(sp)
80001870:	00612623          	sw	t1,12(sp)
80001874:	841ff0ef          	jal	ra,800010b4 <vprintfmt>
80001878:	01c12083          	lw	ra,28(sp)
8000187c:	00000513          	li	a0,0
80001880:	04010113          	addi	sp,sp,64
80001884:	00008067          	ret

80001888 <sprintf>:
80001888:	fb010113          	addi	sp,sp,-80
8000188c:	03810313          	addi	t1,sp,56
80001890:	02812423          	sw	s0,40(sp)
80001894:	00a12623          	sw	a0,12(sp)
80001898:	02c12c23          	sw	a2,56(sp)
8000189c:	02d12e23          	sw	a3,60(sp)
800018a0:	00050413          	mv	s0,a0
800018a4:	00058613          	mv	a2,a1
800018a8:	00000517          	auipc	a0,0x0
800018ac:	d0850513          	addi	a0,a0,-760 # 800015b0 <sprintf_putch.3055>
800018b0:	00c10593          	addi	a1,sp,12
800018b4:	00030693          	mv	a3,t1
800018b8:	02112623          	sw	ra,44(sp)
800018bc:	04f12223          	sw	a5,68(sp)
800018c0:	04e12023          	sw	a4,64(sp)
800018c4:	05012423          	sw	a6,72(sp)
800018c8:	05112623          	sw	a7,76(sp)
800018cc:	00612e23          	sw	t1,28(sp)
800018d0:	fe4ff0ef          	jal	ra,800010b4 <vprintfmt>
800018d4:	00c12783          	lw	a5,12(sp)
800018d8:	00078023          	sb	zero,0(a5)
800018dc:	00c12503          	lw	a0,12(sp)
800018e0:	02c12083          	lw	ra,44(sp)
800018e4:	40850533          	sub	a0,a0,s0
800018e8:	02812403          	lw	s0,40(sp)
800018ec:	05010113          	addi	sp,sp,80
800018f0:	00008067          	ret

800018f4 <memcpy>:
800018f4:	00c5e7b3          	or	a5,a1,a2
800018f8:	00f567b3          	or	a5,a0,a5
800018fc:	0037f793          	andi	a5,a5,3
80001900:	00c506b3          	add	a3,a0,a2
80001904:	02078463          	beqz	a5,8000192c <memcpy+0x38>
80001908:	00c58633          	add	a2,a1,a2
8000190c:	00050793          	mv	a5,a0
80001910:	02d57e63          	bgeu	a0,a3,8000194c <memcpy+0x58>
80001914:	0005c703          	lbu	a4,0(a1)
80001918:	00158593          	addi	a1,a1,1
8000191c:	00178793          	addi	a5,a5,1
80001920:	fee78fa3          	sb	a4,-1(a5)
80001924:	feb618e3          	bne	a2,a1,80001914 <memcpy+0x20>
80001928:	00008067          	ret
8000192c:	fed57ee3          	bgeu	a0,a3,80001928 <memcpy+0x34>
80001930:	00050793          	mv	a5,a0
80001934:	0005a703          	lw	a4,0(a1)
80001938:	00478793          	addi	a5,a5,4
8000193c:	00458593          	addi	a1,a1,4
80001940:	fee7ae23          	sw	a4,-4(a5)
80001944:	fed7e8e3          	bltu	a5,a3,80001934 <memcpy+0x40>
80001948:	00008067          	ret
8000194c:	00008067          	ret

80001950 <memset>:
80001950:	00c567b3          	or	a5,a0,a2
80001954:	0037f793          	andi	a5,a5,3
80001958:	00c50633          	add	a2,a0,a2
8000195c:	02078063          	beqz	a5,8000197c <memset+0x2c>
80001960:	0ff5f593          	andi	a1,a1,255
80001964:	00050793          	mv	a5,a0
80001968:	04c57063          	bgeu	a0,a2,800019a8 <memset+0x58>
8000196c:	00178793          	addi	a5,a5,1
80001970:	feb78fa3          	sb	a1,-1(a5)
80001974:	fef61ce3          	bne	a2,a5,8000196c <memset+0x1c>
80001978:	00008067          	ret
8000197c:	0ff5f593          	andi	a1,a1,255
80001980:	00859713          	slli	a4,a1,0x8
80001984:	00e5e733          	or	a4,a1,a4
80001988:	01071793          	slli	a5,a4,0x10
8000198c:	00f76733          	or	a4,a4,a5
80001990:	fec574e3          	bgeu	a0,a2,80001978 <memset+0x28>
80001994:	00050793          	mv	a5,a0
80001998:	00478793          	addi	a5,a5,4
8000199c:	fee7ae23          	sw	a4,-4(a5)
800019a0:	fec7ece3          	bltu	a5,a2,80001998 <memset+0x48>
800019a4:	00008067          	ret
800019a8:	00008067          	ret

800019ac <_init>:
800019ac:	f6010113          	addi	sp,sp,-160
800019b0:	00002797          	auipc	a5,0x2
800019b4:	43078793          	addi	a5,a5,1072 # 80003de0 <_tdata_begin>
800019b8:	09412423          	sw	s4,136(sp)
800019bc:	00002a17          	auipc	s4,0x2
800019c0:	424a0a13          	addi	s4,s4,1060 # 80003de0 <_tdata_begin>
800019c4:	09312623          	sw	s3,140(sp)
800019c8:	40fa09b3          	sub	s3,s4,a5
800019cc:	08912a23          	sw	s1,148(sp)
800019d0:	09212823          	sw	s2,144(sp)
800019d4:	00050493          	mv	s1,a0
800019d8:	00058913          	mv	s2,a1
800019dc:	00020513          	mv	a0,tp
800019e0:	00078593          	mv	a1,a5
800019e4:	00098613          	mv	a2,s3
800019e8:	08112e23          	sw	ra,156(sp)
800019ec:	08812c23          	sw	s0,152(sp)
800019f0:	09512223          	sw	s5,132(sp)
800019f4:	00020a93          	mv	s5,tp
800019f8:	efdff0ef          	jal	ra,800018f4 <memcpy>
800019fc:	87418613          	addi	a2,gp,-1932 # 80003e44 <_tbss_end>
80001a00:	41460633          	sub	a2,a2,s4
80001a04:	00000593          	li	a1,0
80001a08:	013a8533          	add	a0,s5,s3
80001a0c:	f45ff0ef          	jal	ra,80001950 <memset>
80001a10:	00090593          	mv	a1,s2
80001a14:	00048513          	mv	a0,s1
80001a18:	da5ff0ef          	jal	ra,800017bc <thread_entry>
80001a1c:	00000593          	li	a1,0
80001a20:	00000513          	li	a0,0
80001a24:	2d8010ef          	jal	ra,80002cfc <main>
80001a28:	00002917          	auipc	s2,0x2
80001a2c:	3b090913          	addi	s2,s2,944 # 80003dd8 <counters>
80001a30:	00092683          	lw	a3,0(s2)
80001a34:	03f10413          	addi	s0,sp,63
80001a38:	fc047413          	andi	s0,s0,-64
80001a3c:	00050493          	mv	s1,a0
80001a40:	04069463          	bnez	a3,80001a88 <_init+0xdc>
80001a44:	00492683          	lw	a3,4(s2)
80001a48:	00069663          	bnez	a3,80001a54 <_init+0xa8>
80001a4c:	00048513          	mv	a0,s1
80001a50:	ccdff0ef          	jal	ra,8000171c <tohost_exit>
80001a54:	00040913          	mv	s2,s0
80001a58:	00002997          	auipc	s3,0x2
80001a5c:	37898993          	addi	s3,s3,888 # 80003dd0 <counter_names>
80001a60:	0049a603          	lw	a2,4(s3)
80001a64:	00090513          	mv	a0,s2
80001a68:	00001597          	auipc	a1,0x1
80001a6c:	38058593          	addi	a1,a1,896 # 80002de8 <main+0xec>
80001a70:	e19ff0ef          	jal	ra,80001888 <sprintf>
80001a74:	00a90933          	add	s2,s2,a0
80001a78:	fd240ae3          	beq	s0,s2,80001a4c <_init+0xa0>
80001a7c:	00040513          	mv	a0,s0
80001a80:	d05ff0ef          	jal	ra,80001784 <printstr>
80001a84:	fc9ff06f          	j	80001a4c <_init+0xa0>
80001a88:	00002997          	auipc	s3,0x2
80001a8c:	34898993          	addi	s3,s3,840 # 80003dd0 <counter_names>
80001a90:	0009a603          	lw	a2,0(s3)
80001a94:	00001597          	auipc	a1,0x1
80001a98:	35458593          	addi	a1,a1,852 # 80002de8 <main+0xec>
80001a9c:	00040513          	mv	a0,s0
80001aa0:	de9ff0ef          	jal	ra,80001888 <sprintf>
80001aa4:	00492683          	lw	a3,4(s2)
80001aa8:	00a40933          	add	s2,s0,a0
80001aac:	fc0686e3          	beqz	a3,80001a78 <_init+0xcc>
80001ab0:	fb1ff06f          	j	80001a60 <_init+0xb4>

80001ab4 <strlen>:
80001ab4:	00054783          	lbu	a5,0(a0)
80001ab8:	00078e63          	beqz	a5,80001ad4 <strlen+0x20>
80001abc:	00050793          	mv	a5,a0
80001ac0:	0017c703          	lbu	a4,1(a5)
80001ac4:	00178793          	addi	a5,a5,1
80001ac8:	fe071ce3          	bnez	a4,80001ac0 <strlen+0xc>
80001acc:	40a78533          	sub	a0,a5,a0
80001ad0:	00008067          	ret
80001ad4:	00000513          	li	a0,0
80001ad8:	00008067          	ret

80001adc <strnlen>:
80001adc:	00050613          	mv	a2,a0
80001ae0:	00b606b3          	add	a3,a2,a1
80001ae4:	00058513          	mv	a0,a1
80001ae8:	00060793          	mv	a5,a2
80001aec:	00059863          	bnez	a1,80001afc <strnlen+0x20>
80001af0:	01c0006f          	j	80001b0c <strnlen+0x30>
80001af4:	00178793          	addi	a5,a5,1
80001af8:	00f68863          	beq	a3,a5,80001b08 <strnlen+0x2c>
80001afc:	0007c703          	lbu	a4,0(a5)
80001b00:	fe071ae3          	bnez	a4,80001af4 <strnlen+0x18>
80001b04:	40c78533          	sub	a0,a5,a2
80001b08:	00008067          	ret
80001b0c:	00008067          	ret

80001b10 <strcmp>:
80001b10:	00054783          	lbu	a5,0(a0)
80001b14:	00158593          	addi	a1,a1,1
80001b18:	00150513          	addi	a0,a0,1
80001b1c:	fff5c703          	lbu	a4,-1(a1)
80001b20:	00078863          	beqz	a5,80001b30 <strcmp+0x20>
80001b24:	fee786e3          	beq	a5,a4,80001b10 <strcmp>
80001b28:	40e78533          	sub	a0,a5,a4
80001b2c:	00008067          	ret
80001b30:	00000793          	li	a5,0
80001b34:	ff5ff06f          	j	80001b28 <strcmp+0x18>

80001b38 <strcpy>:
80001b38:	00050793          	mv	a5,a0
80001b3c:	0005c703          	lbu	a4,0(a1)
80001b40:	00178793          	addi	a5,a5,1
80001b44:	00158593          	addi	a1,a1,1
80001b48:	fee78fa3          	sb	a4,-1(a5)
80001b4c:	fe0718e3          	bnez	a4,80001b3c <strcpy+0x4>
80001b50:	00008067          	ret

80001b54 <atol>:
80001b54:	00054703          	lbu	a4,0(a0)
80001b58:	02000693          	li	a3,32
80001b5c:	00050793          	mv	a5,a0
80001b60:	00d71863          	bne	a4,a3,80001b70 <atol+0x1c>
80001b64:	0017c703          	lbu	a4,1(a5)
80001b68:	00178793          	addi	a5,a5,1
80001b6c:	fed70ce3          	beq	a4,a3,80001b64 <atol+0x10>
80001b70:	02d00693          	li	a3,45
80001b74:	06d70063          	beq	a4,a3,80001bd4 <atol+0x80>
80001b78:	02b00693          	li	a3,43
80001b7c:	04d70063          	beq	a4,a3,80001bbc <atol+0x68>
80001b80:	0007c683          	lbu	a3,0(a5)
80001b84:	00000593          	li	a1,0
80001b88:	04068263          	beqz	a3,80001bcc <atol+0x78>
80001b8c:	00000513          	li	a0,0
80001b90:	00178793          	addi	a5,a5,1
80001b94:	fd068613          	addi	a2,a3,-48
80001b98:	00251713          	slli	a4,a0,0x2
80001b9c:	0007c683          	lbu	a3,0(a5)
80001ba0:	00a70533          	add	a0,a4,a0
80001ba4:	00151513          	slli	a0,a0,0x1
80001ba8:	00a60533          	add	a0,a2,a0
80001bac:	fe0692e3          	bnez	a3,80001b90 <atol+0x3c>
80001bb0:	02058063          	beqz	a1,80001bd0 <atol+0x7c>
80001bb4:	40a00533          	neg	a0,a0
80001bb8:	00008067          	ret
80001bbc:	0017c683          	lbu	a3,1(a5)
80001bc0:	00000593          	li	a1,0
80001bc4:	00178793          	addi	a5,a5,1
80001bc8:	fc0692e3          	bnez	a3,80001b8c <atol+0x38>
80001bcc:	00000513          	li	a0,0
80001bd0:	00008067          	ret
80001bd4:	0017c683          	lbu	a3,1(a5)
80001bd8:	00100593          	li	a1,1
80001bdc:	00178793          	addi	a5,a5,1
80001be0:	fa0696e3          	bnez	a3,80001b8c <atol+0x38>
80001be4:	00000513          	li	a0,0
80001be8:	fe9ff06f          	j	80001bd0 <atol+0x7c>

80001bec <__moddi3>:
80001bec:	fc010113          	addi	sp,sp,-64
80001bf0:	02912a23          	sw	s1,52(sp)
80001bf4:	01712e23          	sw	s7,28(sp)
80001bf8:	01912a23          	sw	s9,20(sp)
80001bfc:	02112e23          	sw	ra,60(sp)
80001c00:	02812c23          	sw	s0,56(sp)
80001c04:	03212823          	sw	s2,48(sp)
80001c08:	03312623          	sw	s3,44(sp)
80001c0c:	03412423          	sw	s4,40(sp)
80001c10:	03512223          	sw	s5,36(sp)
80001c14:	03612023          	sw	s6,32(sp)
80001c18:	01812c23          	sw	s8,24(sp)
80001c1c:	01a12823          	sw	s10,16(sp)
80001c20:	01b12623          	sw	s11,12(sp)
80001c24:	00050b93          	mv	s7,a0
80001c28:	00058c93          	mv	s9,a1
80001c2c:	00000493          	li	s1,0
80001c30:	0005dc63          	bgez	a1,80001c48 <__moddi3+0x5c>
80001c34:	00a037b3          	snez	a5,a0
80001c38:	40b00933          	neg	s2,a1
80001c3c:	40f90cb3          	sub	s9,s2,a5
80001c40:	40a00bb3          	neg	s7,a0
80001c44:	fff00493          	li	s1,-1
80001c48:	0006da63          	bgez	a3,80001c5c <__moddi3+0x70>
80001c4c:	00c03933          	snez	s2,a2
80001c50:	40d007b3          	neg	a5,a3
80001c54:	412786b3          	sub	a3,a5,s2
80001c58:	40c00633          	neg	a2,a2
80001c5c:	00060a93          	mv	s5,a2
80001c60:	00068993          	mv	s3,a3
80001c64:	000b8413          	mv	s0,s7
80001c68:	000c8913          	mv	s2,s9
80001c6c:	2a069863          	bnez	a3,80001f1c <__moddi3+0x330>
80001c70:	80003a37          	lui	s4,0x80003
80001c74:	f4ca0a13          	addi	s4,s4,-180 # 80002f4c <__global_pointer$+0xffffe97c>
80001c78:	14ccfe63          	bgeu	s9,a2,80001dd4 <__moddi3+0x1e8>
80001c7c:	000107b7          	lui	a5,0x10
80001c80:	14f67063          	bgeu	a2,a5,80001dc0 <__moddi3+0x1d4>
80001c84:	0ff00793          	li	a5,255
80001c88:	00c7f463          	bgeu	a5,a2,80001c90 <__moddi3+0xa4>
80001c8c:	00800993          	li	s3,8
80001c90:	013657b3          	srl	a5,a2,s3
80001c94:	00fa0a33          	add	s4,s4,a5
80001c98:	000a4783          	lbu	a5,0(s4)
80001c9c:	02000713          	li	a4,32
80001ca0:	013787b3          	add	a5,a5,s3
80001ca4:	40f709b3          	sub	s3,a4,a5
80001ca8:	00f70c63          	beq	a4,a5,80001cc0 <__moddi3+0xd4>
80001cac:	013c96b3          	sll	a3,s9,s3
80001cb0:	00fbd7b3          	srl	a5,s7,a5
80001cb4:	01361ab3          	sll	s5,a2,s3
80001cb8:	00d7e933          	or	s2,a5,a3
80001cbc:	013b9433          	sll	s0,s7,s3
80001cc0:	010adb13          	srli	s6,s5,0x10
80001cc4:	000b0593          	mv	a1,s6
80001cc8:	00090513          	mv	a0,s2
80001ccc:	7cd000ef          	jal	ra,80002c98 <__umodsi3>
80001cd0:	010a9b93          	slli	s7,s5,0x10
80001cd4:	00050a13          	mv	s4,a0
80001cd8:	010bdb93          	srli	s7,s7,0x10
80001cdc:	000b0593          	mv	a1,s6
80001ce0:	00090513          	mv	a0,s2
80001ce4:	76d000ef          	jal	ra,80002c50 <__udivsi3>
80001ce8:	00050593          	mv	a1,a0
80001cec:	000b8513          	mv	a0,s7
80001cf0:	735000ef          	jal	ra,80002c24 <__mulsi3>
80001cf4:	010a1a13          	slli	s4,s4,0x10
80001cf8:	01045793          	srli	a5,s0,0x10
80001cfc:	00fa67b3          	or	a5,s4,a5
80001d00:	00a7fa63          	bgeu	a5,a0,80001d14 <__moddi3+0x128>
80001d04:	015787b3          	add	a5,a5,s5
80001d08:	0157e663          	bltu	a5,s5,80001d14 <__moddi3+0x128>
80001d0c:	00a7f463          	bgeu	a5,a0,80001d14 <__moddi3+0x128>
80001d10:	015787b3          	add	a5,a5,s5
80001d14:	40a78933          	sub	s2,a5,a0
80001d18:	000b0593          	mv	a1,s6
80001d1c:	00090513          	mv	a0,s2
80001d20:	779000ef          	jal	ra,80002c98 <__umodsi3>
80001d24:	00050a13          	mv	s4,a0
80001d28:	000b0593          	mv	a1,s6
80001d2c:	00090513          	mv	a0,s2
80001d30:	721000ef          	jal	ra,80002c50 <__udivsi3>
80001d34:	01041413          	slli	s0,s0,0x10
80001d38:	00050593          	mv	a1,a0
80001d3c:	010a1a13          	slli	s4,s4,0x10
80001d40:	000b8513          	mv	a0,s7
80001d44:	01045413          	srli	s0,s0,0x10
80001d48:	6dd000ef          	jal	ra,80002c24 <__mulsi3>
80001d4c:	008a6433          	or	s0,s4,s0
80001d50:	00a47a63          	bgeu	s0,a0,80001d64 <__moddi3+0x178>
80001d54:	01540433          	add	s0,s0,s5
80001d58:	01546663          	bltu	s0,s5,80001d64 <__moddi3+0x178>
80001d5c:	00a47463          	bgeu	s0,a0,80001d64 <__moddi3+0x178>
80001d60:	01540433          	add	s0,s0,s5
80001d64:	40a40433          	sub	s0,s0,a0
80001d68:	01345533          	srl	a0,s0,s3
80001d6c:	00000593          	li	a1,0
80001d70:	00048a63          	beqz	s1,80001d84 <__moddi3+0x198>
80001d74:	00a037b3          	snez	a5,a0
80001d78:	40b006b3          	neg	a3,a1
80001d7c:	40f685b3          	sub	a1,a3,a5
80001d80:	40a00533          	neg	a0,a0
80001d84:	03c12083          	lw	ra,60(sp)
80001d88:	03812403          	lw	s0,56(sp)
80001d8c:	03412483          	lw	s1,52(sp)
80001d90:	03012903          	lw	s2,48(sp)
80001d94:	02c12983          	lw	s3,44(sp)
80001d98:	02812a03          	lw	s4,40(sp)
80001d9c:	02412a83          	lw	s5,36(sp)
80001da0:	02012b03          	lw	s6,32(sp)
80001da4:	01c12b83          	lw	s7,28(sp)
80001da8:	01812c03          	lw	s8,24(sp)
80001dac:	01412c83          	lw	s9,20(sp)
80001db0:	01012d03          	lw	s10,16(sp)
80001db4:	00c12d83          	lw	s11,12(sp)
80001db8:	04010113          	addi	sp,sp,64
80001dbc:	00008067          	ret
80001dc0:	010007b7          	lui	a5,0x1000
80001dc4:	01000993          	li	s3,16
80001dc8:	ecf664e3          	bltu	a2,a5,80001c90 <__moddi3+0xa4>
80001dcc:	01800993          	li	s3,24
80001dd0:	ec1ff06f          	j	80001c90 <__moddi3+0xa4>
80001dd4:	00061a63          	bnez	a2,80001de8 <__moddi3+0x1fc>
80001dd8:	00000593          	li	a1,0
80001ddc:	00100513          	li	a0,1
80001de0:	671000ef          	jal	ra,80002c50 <__udivsi3>
80001de4:	00050a93          	mv	s5,a0
80001de8:	000107b7          	lui	a5,0x10
80001dec:	04fafc63          	bgeu	s5,a5,80001e44 <__moddi3+0x258>
80001df0:	0ff00793          	li	a5,255
80001df4:	0157f463          	bgeu	a5,s5,80001dfc <__moddi3+0x210>
80001df8:	00800993          	li	s3,8
80001dfc:	013ad7b3          	srl	a5,s5,s3
80001e00:	00fa0a33          	add	s4,s4,a5
80001e04:	000a4783          	lbu	a5,0(s4)
80001e08:	02000713          	li	a4,32
80001e0c:	013787b3          	add	a5,a5,s3
80001e10:	40f709b3          	sub	s3,a4,a5
80001e14:	04f71263          	bne	a4,a5,80001e58 <__moddi3+0x26c>
80001e18:	415c8cb3          	sub	s9,s9,s5
80001e1c:	010adb13          	srli	s6,s5,0x10
80001e20:	000b0593          	mv	a1,s6
80001e24:	000c8513          	mv	a0,s9
80001e28:	671000ef          	jal	ra,80002c98 <__umodsi3>
80001e2c:	010a9b93          	slli	s7,s5,0x10
80001e30:	00050a13          	mv	s4,a0
80001e34:	010bdb93          	srli	s7,s7,0x10
80001e38:	000b0593          	mv	a1,s6
80001e3c:	000c8513          	mv	a0,s9
80001e40:	ea5ff06f          	j	80001ce4 <__moddi3+0xf8>
80001e44:	010007b7          	lui	a5,0x1000
80001e48:	01000993          	li	s3,16
80001e4c:	fafae8e3          	bltu	s5,a5,80001dfc <__moddi3+0x210>
80001e50:	01800993          	li	s3,24
80001e54:	fa9ff06f          	j	80001dfc <__moddi3+0x210>
80001e58:	013a9ab3          	sll	s5,s5,s3
80001e5c:	00fcdb33          	srl	s6,s9,a5
80001e60:	010ad913          	srli	s2,s5,0x10
80001e64:	00fbd7b3          	srl	a5,s7,a5
80001e68:	013c96b3          	sll	a3,s9,s3
80001e6c:	00090593          	mv	a1,s2
80001e70:	000b0513          	mv	a0,s6
80001e74:	00d7ec33          	or	s8,a5,a3
80001e78:	621000ef          	jal	ra,80002c98 <__umodsi3>
80001e7c:	00050a13          	mv	s4,a0
80001e80:	00090593          	mv	a1,s2
80001e84:	013b9433          	sll	s0,s7,s3
80001e88:	000b0513          	mv	a0,s6
80001e8c:	010a9b93          	slli	s7,s5,0x10
80001e90:	5c1000ef          	jal	ra,80002c50 <__udivsi3>
80001e94:	010bdb93          	srli	s7,s7,0x10
80001e98:	00050593          	mv	a1,a0
80001e9c:	000b8513          	mv	a0,s7
80001ea0:	585000ef          	jal	ra,80002c24 <__mulsi3>
80001ea4:	010a1a13          	slli	s4,s4,0x10
80001ea8:	010c5793          	srli	a5,s8,0x10
80001eac:	00fa67b3          	or	a5,s4,a5
80001eb0:	00a7fa63          	bgeu	a5,a0,80001ec4 <__moddi3+0x2d8>
80001eb4:	015787b3          	add	a5,a5,s5
80001eb8:	0157e663          	bltu	a5,s5,80001ec4 <__moddi3+0x2d8>
80001ebc:	00a7f463          	bgeu	a5,a0,80001ec4 <__moddi3+0x2d8>
80001ec0:	015787b3          	add	a5,a5,s5
80001ec4:	40a78b33          	sub	s6,a5,a0
80001ec8:	00090593          	mv	a1,s2
80001ecc:	000b0513          	mv	a0,s6
80001ed0:	5c9000ef          	jal	ra,80002c98 <__umodsi3>
80001ed4:	00050a13          	mv	s4,a0
80001ed8:	00090593          	mv	a1,s2
80001edc:	000b0513          	mv	a0,s6
80001ee0:	571000ef          	jal	ra,80002c50 <__udivsi3>
80001ee4:	00050593          	mv	a1,a0
80001ee8:	000b8513          	mv	a0,s7
80001eec:	539000ef          	jal	ra,80002c24 <__mulsi3>
80001ef0:	010c1693          	slli	a3,s8,0x10
80001ef4:	010a1a13          	slli	s4,s4,0x10
80001ef8:	0106d693          	srli	a3,a3,0x10
80001efc:	00da66b3          	or	a3,s4,a3
80001f00:	00a6fa63          	bgeu	a3,a0,80001f14 <__moddi3+0x328>
80001f04:	015686b3          	add	a3,a3,s5
80001f08:	0156e663          	bltu	a3,s5,80001f14 <__moddi3+0x328>
80001f0c:	00a6f463          	bgeu	a3,a0,80001f14 <__moddi3+0x328>
80001f10:	015686b3          	add	a3,a3,s5
80001f14:	40a68cb3          	sub	s9,a3,a0
80001f18:	f05ff06f          	j	80001e1c <__moddi3+0x230>
80001f1c:	00dcf863          	bgeu	s9,a3,80001f2c <__moddi3+0x340>
80001f20:	000b8513          	mv	a0,s7
80001f24:	000c8593          	mv	a1,s9
80001f28:	e49ff06f          	j	80001d70 <__moddi3+0x184>
80001f2c:	000107b7          	lui	a5,0x10
80001f30:	04f6fc63          	bgeu	a3,a5,80001f88 <__moddi3+0x39c>
80001f34:	0ff00b13          	li	s6,255
80001f38:	00db3533          	sltu	a0,s6,a3
80001f3c:	00351513          	slli	a0,a0,0x3
80001f40:	800037b7          	lui	a5,0x80003
80001f44:	00a6d733          	srl	a4,a3,a0
80001f48:	f4c78793          	addi	a5,a5,-180 # 80002f4c <__global_pointer$+0xffffe97c>
80001f4c:	00e787b3          	add	a5,a5,a4
80001f50:	0007cb03          	lbu	s6,0(a5)
80001f54:	02000793          	li	a5,32
80001f58:	00ab0b33          	add	s6,s6,a0
80001f5c:	41678a33          	sub	s4,a5,s6
80001f60:	03679e63          	bne	a5,s6,80001f9c <__moddi3+0x3b0>
80001f64:	0196e463          	bltu	a3,s9,80001f6c <__moddi3+0x380>
80001f68:	00cbea63          	bltu	s7,a2,80001f7c <__moddi3+0x390>
80001f6c:	40cb8433          	sub	s0,s7,a2
80001f70:	40dc86b3          	sub	a3,s9,a3
80001f74:	008bbbb3          	sltu	s7,s7,s0
80001f78:	41768933          	sub	s2,a3,s7
80001f7c:	00040513          	mv	a0,s0
80001f80:	00090593          	mv	a1,s2
80001f84:	dedff06f          	j	80001d70 <__moddi3+0x184>
80001f88:	010007b7          	lui	a5,0x1000
80001f8c:	01000513          	li	a0,16
80001f90:	faf6e8e3          	bltu	a3,a5,80001f40 <__moddi3+0x354>
80001f94:	01800513          	li	a0,24
80001f98:	fa9ff06f          	j	80001f40 <__moddi3+0x354>
80001f9c:	016657b3          	srl	a5,a2,s6
80001fa0:	014696b3          	sll	a3,a3,s4
80001fa4:	00d7ed33          	or	s10,a5,a3
80001fa8:	016cd433          	srl	s0,s9,s6
80001fac:	010d5c13          	srli	s8,s10,0x10
80001fb0:	014c96b3          	sll	a3,s9,s4
80001fb4:	016bd933          	srl	s2,s7,s6
80001fb8:	000c0593          	mv	a1,s8
80001fbc:	00040513          	mv	a0,s0
80001fc0:	00d96933          	or	s2,s2,a3
80001fc4:	01461db3          	sll	s11,a2,s4
80001fc8:	4d1000ef          	jal	ra,80002c98 <__umodsi3>
80001fcc:	00050a93          	mv	s5,a0
80001fd0:	000c0593          	mv	a1,s8
80001fd4:	00040513          	mv	a0,s0
80001fd8:	010d1c93          	slli	s9,s10,0x10
80001fdc:	475000ef          	jal	ra,80002c50 <__udivsi3>
80001fe0:	010cdc93          	srli	s9,s9,0x10
80001fe4:	00050413          	mv	s0,a0
80001fe8:	00050593          	mv	a1,a0
80001fec:	000c8513          	mv	a0,s9
80001ff0:	435000ef          	jal	ra,80002c24 <__mulsi3>
80001ff4:	010a9a93          	slli	s5,s5,0x10
80001ff8:	01095713          	srli	a4,s2,0x10
80001ffc:	00eae733          	or	a4,s5,a4
80002000:	014b9bb3          	sll	s7,s7,s4
80002004:	00040a93          	mv	s5,s0
80002008:	00a77e63          	bgeu	a4,a0,80002024 <__moddi3+0x438>
8000200c:	01a70733          	add	a4,a4,s10
80002010:	fff40a93          	addi	s5,s0,-1
80002014:	01a76863          	bltu	a4,s10,80002024 <__moddi3+0x438>
80002018:	00a77663          	bgeu	a4,a0,80002024 <__moddi3+0x438>
8000201c:	ffe40a93          	addi	s5,s0,-2
80002020:	01a70733          	add	a4,a4,s10
80002024:	40a709b3          	sub	s3,a4,a0
80002028:	000c0593          	mv	a1,s8
8000202c:	00098513          	mv	a0,s3
80002030:	469000ef          	jal	ra,80002c98 <__umodsi3>
80002034:	00050413          	mv	s0,a0
80002038:	000c0593          	mv	a1,s8
8000203c:	00098513          	mv	a0,s3
80002040:	411000ef          	jal	ra,80002c50 <__udivsi3>
80002044:	00050993          	mv	s3,a0
80002048:	00050593          	mv	a1,a0
8000204c:	000c8513          	mv	a0,s9
80002050:	3d5000ef          	jal	ra,80002c24 <__mulsi3>
80002054:	01091693          	slli	a3,s2,0x10
80002058:	01041413          	slli	s0,s0,0x10
8000205c:	0106d693          	srli	a3,a3,0x10
80002060:	00d466b3          	or	a3,s0,a3
80002064:	00098793          	mv	a5,s3
80002068:	00a6fe63          	bgeu	a3,a0,80002084 <__moddi3+0x498>
8000206c:	01a686b3          	add	a3,a3,s10
80002070:	fff98793          	addi	a5,s3,-1
80002074:	01a6e863          	bltu	a3,s10,80002084 <__moddi3+0x498>
80002078:	00a6f663          	bgeu	a3,a0,80002084 <__moddi3+0x498>
8000207c:	ffe98793          	addi	a5,s3,-2
80002080:	01a686b3          	add	a3,a3,s10
80002084:	00010337          	lui	t1,0x10
80002088:	010a9a93          	slli	s5,s5,0x10
8000208c:	00faeab3          	or	s5,s5,a5
80002090:	fff30813          	addi	a6,t1,-1 # ffff <buflen.2941+0xffbf>
80002094:	010af733          	and	a4,s5,a6
80002098:	010df833          	and	a6,s11,a6
8000209c:	40a68933          	sub	s2,a3,a0
800020a0:	010ada93          	srli	s5,s5,0x10
800020a4:	010dd893          	srli	a7,s11,0x10
800020a8:	00070513          	mv	a0,a4
800020ac:	00080593          	mv	a1,a6
800020b0:	375000ef          	jal	ra,80002c24 <__mulsi3>
800020b4:	00050793          	mv	a5,a0
800020b8:	00088593          	mv	a1,a7
800020bc:	00070513          	mv	a0,a4
800020c0:	365000ef          	jal	ra,80002c24 <__mulsi3>
800020c4:	00050713          	mv	a4,a0
800020c8:	00080593          	mv	a1,a6
800020cc:	000a8513          	mv	a0,s5
800020d0:	355000ef          	jal	ra,80002c24 <__mulsi3>
800020d4:	00050813          	mv	a6,a0
800020d8:	00088593          	mv	a1,a7
800020dc:	000a8513          	mv	a0,s5
800020e0:	345000ef          	jal	ra,80002c24 <__mulsi3>
800020e4:	01070733          	add	a4,a4,a6
800020e8:	0107d693          	srli	a3,a5,0x10
800020ec:	00d70733          	add	a4,a4,a3
800020f0:	01077463          	bgeu	a4,a6,800020f8 <__moddi3+0x50c>
800020f4:	00650533          	add	a0,a0,t1
800020f8:	01075593          	srli	a1,a4,0x10
800020fc:	00a585b3          	add	a1,a1,a0
80002100:	00010537          	lui	a0,0x10
80002104:	fff50513          	addi	a0,a0,-1 # ffff <buflen.2941+0xffbf>
80002108:	00a77733          	and	a4,a4,a0
8000210c:	01071713          	slli	a4,a4,0x10
80002110:	00a7f7b3          	and	a5,a5,a0
80002114:	00f707b3          	add	a5,a4,a5
80002118:	00b96663          	bltu	s2,a1,80002124 <__moddi3+0x538>
8000211c:	00b91e63          	bne	s2,a1,80002138 <__moddi3+0x54c>
80002120:	00fbfc63          	bgeu	s7,a5,80002138 <__moddi3+0x54c>
80002124:	41b78633          	sub	a2,a5,s11
80002128:	00c7b7b3          	sltu	a5,a5,a2
8000212c:	01a787b3          	add	a5,a5,s10
80002130:	40f585b3          	sub	a1,a1,a5
80002134:	00060793          	mv	a5,a2
80002138:	40fb87b3          	sub	a5,s7,a5
8000213c:	00fbbbb3          	sltu	s7,s7,a5
80002140:	40b905b3          	sub	a1,s2,a1
80002144:	417585b3          	sub	a1,a1,s7
80002148:	01659433          	sll	s0,a1,s6
8000214c:	0147d7b3          	srl	a5,a5,s4
80002150:	00f46533          	or	a0,s0,a5
80002154:	0145d5b3          	srl	a1,a1,s4
80002158:	c19ff06f          	j	80001d70 <__moddi3+0x184>

8000215c <__udivdi3>:
8000215c:	fd010113          	addi	sp,sp,-48
80002160:	02812423          	sw	s0,40(sp)
80002164:	01712623          	sw	s7,12(sp)
80002168:	02112623          	sw	ra,44(sp)
8000216c:	02912223          	sw	s1,36(sp)
80002170:	03212023          	sw	s2,32(sp)
80002174:	01312e23          	sw	s3,28(sp)
80002178:	01412c23          	sw	s4,24(sp)
8000217c:	01512a23          	sw	s5,20(sp)
80002180:	01612823          	sw	s6,16(sp)
80002184:	01812423          	sw	s8,8(sp)
80002188:	01912223          	sw	s9,4(sp)
8000218c:	00050b93          	mv	s7,a0
80002190:	00058413          	mv	s0,a1
80002194:	38069c63          	bnez	a3,8000252c <__udivdi3+0x3d0>
80002198:	800034b7          	lui	s1,0x80003
8000219c:	00060913          	mv	s2,a2
800021a0:	00050a13          	mv	s4,a0
800021a4:	f4c48493          	addi	s1,s1,-180 # 80002f4c <__global_pointer$+0xffffe97c>
800021a8:	12c5f863          	bgeu	a1,a2,800022d8 <__udivdi3+0x17c>
800021ac:	000107b7          	lui	a5,0x10
800021b0:	00058c13          	mv	s8,a1
800021b4:	10f67863          	bgeu	a2,a5,800022c4 <__udivdi3+0x168>
800021b8:	0ff00713          	li	a4,255
800021bc:	00c73733          	sltu	a4,a4,a2
800021c0:	00371713          	slli	a4,a4,0x3
800021c4:	00e657b3          	srl	a5,a2,a4
800021c8:	00f484b3          	add	s1,s1,a5
800021cc:	0004c683          	lbu	a3,0(s1)
800021d0:	00e68733          	add	a4,a3,a4
800021d4:	02000693          	li	a3,32
800021d8:	40e687b3          	sub	a5,a3,a4
800021dc:	00e68c63          	beq	a3,a4,800021f4 <__udivdi3+0x98>
800021e0:	00f41433          	sll	s0,s0,a5
800021e4:	00ebd733          	srl	a4,s7,a4
800021e8:	00f61933          	sll	s2,a2,a5
800021ec:	00876c33          	or	s8,a4,s0
800021f0:	00fb9a33          	sll	s4,s7,a5
800021f4:	01095b13          	srli	s6,s2,0x10
800021f8:	000b0593          	mv	a1,s6
800021fc:	000c0513          	mv	a0,s8
80002200:	299000ef          	jal	ra,80002c98 <__umodsi3>
80002204:	00050493          	mv	s1,a0
80002208:	000b0593          	mv	a1,s6
8000220c:	01091a93          	slli	s5,s2,0x10
80002210:	000c0513          	mv	a0,s8
80002214:	23d000ef          	jal	ra,80002c50 <__udivsi3>
80002218:	010ada93          	srli	s5,s5,0x10
8000221c:	00050413          	mv	s0,a0
80002220:	00050593          	mv	a1,a0
80002224:	000a8513          	mv	a0,s5
80002228:	1fd000ef          	jal	ra,80002c24 <__mulsi3>
8000222c:	01049493          	slli	s1,s1,0x10
80002230:	010a5713          	srli	a4,s4,0x10
80002234:	00e4e733          	or	a4,s1,a4
80002238:	00040993          	mv	s3,s0
8000223c:	00a77e63          	bgeu	a4,a0,80002258 <__udivdi3+0xfc>
80002240:	01270733          	add	a4,a4,s2
80002244:	fff40993          	addi	s3,s0,-1
80002248:	01276863          	bltu	a4,s2,80002258 <__udivdi3+0xfc>
8000224c:	00a77663          	bgeu	a4,a0,80002258 <__udivdi3+0xfc>
80002250:	ffe40993          	addi	s3,s0,-2
80002254:	01270733          	add	a4,a4,s2
80002258:	40a70433          	sub	s0,a4,a0
8000225c:	000b0593          	mv	a1,s6
80002260:	00040513          	mv	a0,s0
80002264:	235000ef          	jal	ra,80002c98 <__umodsi3>
80002268:	00050493          	mv	s1,a0
8000226c:	000b0593          	mv	a1,s6
80002270:	00040513          	mv	a0,s0
80002274:	1dd000ef          	jal	ra,80002c50 <__udivsi3>
80002278:	010a1a13          	slli	s4,s4,0x10
8000227c:	00050413          	mv	s0,a0
80002280:	00050593          	mv	a1,a0
80002284:	01049493          	slli	s1,s1,0x10
80002288:	000a8513          	mv	a0,s5
8000228c:	010a5a13          	srli	s4,s4,0x10
80002290:	195000ef          	jal	ra,80002c24 <__mulsi3>
80002294:	0144ea33          	or	s4,s1,s4
80002298:	00040613          	mv	a2,s0
8000229c:	00aa7c63          	bgeu	s4,a0,800022b4 <__udivdi3+0x158>
800022a0:	01490a33          	add	s4,s2,s4
800022a4:	fff40613          	addi	a2,s0,-1
800022a8:	012a6663          	bltu	s4,s2,800022b4 <__udivdi3+0x158>
800022ac:	00aa7463          	bgeu	s4,a0,800022b4 <__udivdi3+0x158>
800022b0:	ffe40613          	addi	a2,s0,-2
800022b4:	01099793          	slli	a5,s3,0x10
800022b8:	00c7e7b3          	or	a5,a5,a2
800022bc:	00000493          	li	s1,0
800022c0:	1300006f          	j	800023f0 <__udivdi3+0x294>
800022c4:	010007b7          	lui	a5,0x1000
800022c8:	01000713          	li	a4,16
800022cc:	eef66ce3          	bltu	a2,a5,800021c4 <__udivdi3+0x68>
800022d0:	01800713          	li	a4,24
800022d4:	ef1ff06f          	j	800021c4 <__udivdi3+0x68>
800022d8:	00068993          	mv	s3,a3
800022dc:	00061a63          	bnez	a2,800022f0 <__udivdi3+0x194>
800022e0:	00000593          	li	a1,0
800022e4:	00100513          	li	a0,1
800022e8:	169000ef          	jal	ra,80002c50 <__udivsi3>
800022ec:	00050913          	mv	s2,a0
800022f0:	000107b7          	lui	a5,0x10
800022f4:	12f97c63          	bgeu	s2,a5,8000242c <__udivdi3+0x2d0>
800022f8:	0ff00793          	li	a5,255
800022fc:	0127f463          	bgeu	a5,s2,80002304 <__udivdi3+0x1a8>
80002300:	00800993          	li	s3,8
80002304:	013957b3          	srl	a5,s2,s3
80002308:	00f484b3          	add	s1,s1,a5
8000230c:	0004c783          	lbu	a5,0(s1)
80002310:	02000693          	li	a3,32
80002314:	013787b3          	add	a5,a5,s3
80002318:	40f68733          	sub	a4,a3,a5
8000231c:	12f69263          	bne	a3,a5,80002440 <__udivdi3+0x2e4>
80002320:	41240433          	sub	s0,s0,s2
80002324:	00100493          	li	s1,1
80002328:	01095a93          	srli	s5,s2,0x10
8000232c:	000a8593          	mv	a1,s5
80002330:	00040513          	mv	a0,s0
80002334:	165000ef          	jal	ra,80002c98 <__umodsi3>
80002338:	00050993          	mv	s3,a0
8000233c:	000a8593          	mv	a1,s5
80002340:	00040513          	mv	a0,s0
80002344:	01091b13          	slli	s6,s2,0x10
80002348:	109000ef          	jal	ra,80002c50 <__udivsi3>
8000234c:	010b5b13          	srli	s6,s6,0x10
80002350:	00050413          	mv	s0,a0
80002354:	00050593          	mv	a1,a0
80002358:	000b0513          	mv	a0,s6
8000235c:	0c9000ef          	jal	ra,80002c24 <__mulsi3>
80002360:	01099993          	slli	s3,s3,0x10
80002364:	010a5713          	srli	a4,s4,0x10
80002368:	00e9e733          	or	a4,s3,a4
8000236c:	00040b93          	mv	s7,s0
80002370:	00a77e63          	bgeu	a4,a0,8000238c <__udivdi3+0x230>
80002374:	01270733          	add	a4,a4,s2
80002378:	fff40b93          	addi	s7,s0,-1
8000237c:	01276863          	bltu	a4,s2,8000238c <__udivdi3+0x230>
80002380:	00a77663          	bgeu	a4,a0,8000238c <__udivdi3+0x230>
80002384:	ffe40b93          	addi	s7,s0,-2
80002388:	01270733          	add	a4,a4,s2
8000238c:	40a70433          	sub	s0,a4,a0
80002390:	000a8593          	mv	a1,s5
80002394:	00040513          	mv	a0,s0
80002398:	101000ef          	jal	ra,80002c98 <__umodsi3>
8000239c:	00050993          	mv	s3,a0
800023a0:	000a8593          	mv	a1,s5
800023a4:	00040513          	mv	a0,s0
800023a8:	0a9000ef          	jal	ra,80002c50 <__udivsi3>
800023ac:	010a1a13          	slli	s4,s4,0x10
800023b0:	00050413          	mv	s0,a0
800023b4:	00050593          	mv	a1,a0
800023b8:	01099993          	slli	s3,s3,0x10
800023bc:	000b0513          	mv	a0,s6
800023c0:	010a5a13          	srli	s4,s4,0x10
800023c4:	061000ef          	jal	ra,80002c24 <__mulsi3>
800023c8:	0149ea33          	or	s4,s3,s4
800023cc:	00040613          	mv	a2,s0
800023d0:	00aa7c63          	bgeu	s4,a0,800023e8 <__udivdi3+0x28c>
800023d4:	01490a33          	add	s4,s2,s4
800023d8:	fff40613          	addi	a2,s0,-1
800023dc:	012a6663          	bltu	s4,s2,800023e8 <__udivdi3+0x28c>
800023e0:	00aa7463          	bgeu	s4,a0,800023e8 <__udivdi3+0x28c>
800023e4:	ffe40613          	addi	a2,s0,-2
800023e8:	010b9793          	slli	a5,s7,0x10
800023ec:	00c7e7b3          	or	a5,a5,a2
800023f0:	00078513          	mv	a0,a5
800023f4:	00048593          	mv	a1,s1
800023f8:	02c12083          	lw	ra,44(sp)
800023fc:	02812403          	lw	s0,40(sp)
80002400:	02412483          	lw	s1,36(sp)
80002404:	02012903          	lw	s2,32(sp)
80002408:	01c12983          	lw	s3,28(sp)
8000240c:	01812a03          	lw	s4,24(sp)
80002410:	01412a83          	lw	s5,20(sp)
80002414:	01012b03          	lw	s6,16(sp)
80002418:	00c12b83          	lw	s7,12(sp)
8000241c:	00812c03          	lw	s8,8(sp)
80002420:	00412c83          	lw	s9,4(sp)
80002424:	03010113          	addi	sp,sp,48
80002428:	00008067          	ret
8000242c:	010007b7          	lui	a5,0x1000
80002430:	01000993          	li	s3,16
80002434:	ecf968e3          	bltu	s2,a5,80002304 <__udivdi3+0x1a8>
80002438:	01800993          	li	s3,24
8000243c:	ec9ff06f          	j	80002304 <__udivdi3+0x1a8>
80002440:	00e91933          	sll	s2,s2,a4
80002444:	00f459b3          	srl	s3,s0,a5
80002448:	00fbd7b3          	srl	a5,s7,a5
8000244c:	00e41433          	sll	s0,s0,a4
80002450:	0087eab3          	or	s5,a5,s0
80002454:	01095413          	srli	s0,s2,0x10
80002458:	00040593          	mv	a1,s0
8000245c:	00098513          	mv	a0,s3
80002460:	00eb9a33          	sll	s4,s7,a4
80002464:	035000ef          	jal	ra,80002c98 <__umodsi3>
80002468:	00050493          	mv	s1,a0
8000246c:	00040593          	mv	a1,s0
80002470:	00098513          	mv	a0,s3
80002474:	01091b13          	slli	s6,s2,0x10
80002478:	7d8000ef          	jal	ra,80002c50 <__udivsi3>
8000247c:	010b5b13          	srli	s6,s6,0x10
80002480:	00050993          	mv	s3,a0
80002484:	00050593          	mv	a1,a0
80002488:	000b0513          	mv	a0,s6
8000248c:	798000ef          	jal	ra,80002c24 <__mulsi3>
80002490:	01049493          	slli	s1,s1,0x10
80002494:	010ad793          	srli	a5,s5,0x10
80002498:	00f4e7b3          	or	a5,s1,a5
8000249c:	00098b93          	mv	s7,s3
800024a0:	00a7fe63          	bgeu	a5,a0,800024bc <__udivdi3+0x360>
800024a4:	012787b3          	add	a5,a5,s2
800024a8:	fff98b93          	addi	s7,s3,-1
800024ac:	0127e863          	bltu	a5,s2,800024bc <__udivdi3+0x360>
800024b0:	00a7f663          	bgeu	a5,a0,800024bc <__udivdi3+0x360>
800024b4:	ffe98b93          	addi	s7,s3,-2
800024b8:	012787b3          	add	a5,a5,s2
800024bc:	40a789b3          	sub	s3,a5,a0
800024c0:	00040593          	mv	a1,s0
800024c4:	00098513          	mv	a0,s3
800024c8:	7d0000ef          	jal	ra,80002c98 <__umodsi3>
800024cc:	00040593          	mv	a1,s0
800024d0:	00050493          	mv	s1,a0
800024d4:	00098513          	mv	a0,s3
800024d8:	778000ef          	jal	ra,80002c50 <__udivsi3>
800024dc:	010a9413          	slli	s0,s5,0x10
800024e0:	00050993          	mv	s3,a0
800024e4:	00050593          	mv	a1,a0
800024e8:	01049493          	slli	s1,s1,0x10
800024ec:	000b0513          	mv	a0,s6
800024f0:	01045413          	srli	s0,s0,0x10
800024f4:	730000ef          	jal	ra,80002c24 <__mulsi3>
800024f8:	0084e433          	or	s0,s1,s0
800024fc:	00098793          	mv	a5,s3
80002500:	00a47e63          	bgeu	s0,a0,8000251c <__udivdi3+0x3c0>
80002504:	01240433          	add	s0,s0,s2
80002508:	fff98793          	addi	a5,s3,-1
8000250c:	01246863          	bltu	s0,s2,8000251c <__udivdi3+0x3c0>
80002510:	00a47663          	bgeu	s0,a0,8000251c <__udivdi3+0x3c0>
80002514:	ffe98793          	addi	a5,s3,-2
80002518:	01240433          	add	s0,s0,s2
8000251c:	010b9493          	slli	s1,s7,0x10
80002520:	40a40433          	sub	s0,s0,a0
80002524:	00f4e4b3          	or	s1,s1,a5
80002528:	e01ff06f          	j	80002328 <__udivdi3+0x1cc>
8000252c:	1ed5ee63          	bltu	a1,a3,80002728 <__udivdi3+0x5cc>
80002530:	000107b7          	lui	a5,0x10
80002534:	04f6f463          	bgeu	a3,a5,8000257c <__udivdi3+0x420>
80002538:	0ff00a93          	li	s5,255
8000253c:	00dab733          	sltu	a4,s5,a3
80002540:	00371713          	slli	a4,a4,0x3
80002544:	800037b7          	lui	a5,0x80003
80002548:	00e6d5b3          	srl	a1,a3,a4
8000254c:	f4c78793          	addi	a5,a5,-180 # 80002f4c <__global_pointer$+0xffffe97c>
80002550:	00b787b3          	add	a5,a5,a1
80002554:	0007ca83          	lbu	s5,0(a5)
80002558:	02000793          	li	a5,32
8000255c:	00ea8ab3          	add	s5,s5,a4
80002560:	415784b3          	sub	s1,a5,s5
80002564:	03579663          	bne	a5,s5,80002590 <__udivdi3+0x434>
80002568:	00100793          	li	a5,1
8000256c:	e886e2e3          	bltu	a3,s0,800023f0 <__udivdi3+0x294>
80002570:	00cbb7b3          	sltu	a5,s7,a2
80002574:	0017c793          	xori	a5,a5,1
80002578:	e79ff06f          	j	800023f0 <__udivdi3+0x294>
8000257c:	010007b7          	lui	a5,0x1000
80002580:	01000713          	li	a4,16
80002584:	fcf6e0e3          	bltu	a3,a5,80002544 <__udivdi3+0x3e8>
80002588:	01800713          	li	a4,24
8000258c:	fb9ff06f          	j	80002544 <__udivdi3+0x3e8>
80002590:	01565cb3          	srl	s9,a2,s5
80002594:	009696b3          	sll	a3,a3,s1
80002598:	00dcecb3          	or	s9,s9,a3
8000259c:	015459b3          	srl	s3,s0,s5
800025a0:	00941433          	sll	s0,s0,s1
800025a4:	015bdab3          	srl	s5,s7,s5
800025a8:	008aeab3          	or	s5,s5,s0
800025ac:	010cd413          	srli	s0,s9,0x10
800025b0:	00040593          	mv	a1,s0
800025b4:	00098513          	mv	a0,s3
800025b8:	00961933          	sll	s2,a2,s1
800025bc:	6dc000ef          	jal	ra,80002c98 <__umodsi3>
800025c0:	00050a13          	mv	s4,a0
800025c4:	00040593          	mv	a1,s0
800025c8:	00098513          	mv	a0,s3
800025cc:	010c9b13          	slli	s6,s9,0x10
800025d0:	680000ef          	jal	ra,80002c50 <__udivsi3>
800025d4:	010b5b13          	srli	s6,s6,0x10
800025d8:	00050993          	mv	s3,a0
800025dc:	00050593          	mv	a1,a0
800025e0:	000b0513          	mv	a0,s6
800025e4:	640000ef          	jal	ra,80002c24 <__mulsi3>
800025e8:	010a1a13          	slli	s4,s4,0x10
800025ec:	010ad713          	srli	a4,s5,0x10
800025f0:	00ea6733          	or	a4,s4,a4
800025f4:	00098c13          	mv	s8,s3
800025f8:	00a77e63          	bgeu	a4,a0,80002614 <__udivdi3+0x4b8>
800025fc:	01970733          	add	a4,a4,s9
80002600:	fff98c13          	addi	s8,s3,-1
80002604:	01976863          	bltu	a4,s9,80002614 <__udivdi3+0x4b8>
80002608:	00a77663          	bgeu	a4,a0,80002614 <__udivdi3+0x4b8>
8000260c:	ffe98c13          	addi	s8,s3,-2
80002610:	01970733          	add	a4,a4,s9
80002614:	40a709b3          	sub	s3,a4,a0
80002618:	00040593          	mv	a1,s0
8000261c:	00098513          	mv	a0,s3
80002620:	678000ef          	jal	ra,80002c98 <__umodsi3>
80002624:	00040593          	mv	a1,s0
80002628:	00050a13          	mv	s4,a0
8000262c:	00098513          	mv	a0,s3
80002630:	620000ef          	jal	ra,80002c50 <__udivsi3>
80002634:	010a9413          	slli	s0,s5,0x10
80002638:	00050993          	mv	s3,a0
8000263c:	00050593          	mv	a1,a0
80002640:	010a1a13          	slli	s4,s4,0x10
80002644:	000b0513          	mv	a0,s6
80002648:	01045413          	srli	s0,s0,0x10
8000264c:	5d8000ef          	jal	ra,80002c24 <__mulsi3>
80002650:	008a6433          	or	s0,s4,s0
80002654:	00098613          	mv	a2,s3
80002658:	00a47e63          	bgeu	s0,a0,80002674 <__udivdi3+0x518>
8000265c:	01940433          	add	s0,s0,s9
80002660:	fff98613          	addi	a2,s3,-1
80002664:	01946863          	bltu	s0,s9,80002674 <__udivdi3+0x518>
80002668:	00a47663          	bgeu	s0,a0,80002674 <__udivdi3+0x518>
8000266c:	ffe98613          	addi	a2,s3,-2
80002670:	01940433          	add	s0,s0,s9
80002674:	010c1793          	slli	a5,s8,0x10
80002678:	00010e37          	lui	t3,0x10
8000267c:	00c7e7b3          	or	a5,a5,a2
80002680:	fffe0313          	addi	t1,t3,-1 # ffff <buflen.2941+0xffbf>
80002684:	0067f8b3          	and	a7,a5,t1
80002688:	00697333          	and	t1,s2,t1
8000268c:	40a40433          	sub	s0,s0,a0
80002690:	0107de93          	srli	t4,a5,0x10
80002694:	01095913          	srli	s2,s2,0x10
80002698:	00088513          	mv	a0,a7
8000269c:	00030593          	mv	a1,t1
800026a0:	584000ef          	jal	ra,80002c24 <__mulsi3>
800026a4:	00050813          	mv	a6,a0
800026a8:	00090593          	mv	a1,s2
800026ac:	00088513          	mv	a0,a7
800026b0:	574000ef          	jal	ra,80002c24 <__mulsi3>
800026b4:	00050893          	mv	a7,a0
800026b8:	00030593          	mv	a1,t1
800026bc:	000e8513          	mv	a0,t4
800026c0:	564000ef          	jal	ra,80002c24 <__mulsi3>
800026c4:	00050313          	mv	t1,a0
800026c8:	00090593          	mv	a1,s2
800026cc:	000e8513          	mv	a0,t4
800026d0:	554000ef          	jal	ra,80002c24 <__mulsi3>
800026d4:	01085713          	srli	a4,a6,0x10
800026d8:	006888b3          	add	a7,a7,t1
800026dc:	01170733          	add	a4,a4,a7
800026e0:	00050693          	mv	a3,a0
800026e4:	00677463          	bgeu	a4,t1,800026ec <__udivdi3+0x590>
800026e8:	01c506b3          	add	a3,a0,t3
800026ec:	01075513          	srli	a0,a4,0x10
800026f0:	00d506b3          	add	a3,a0,a3
800026f4:	02d46663          	bltu	s0,a3,80002720 <__udivdi3+0x5c4>
800026f8:	bcd412e3          	bne	s0,a3,800022bc <__udivdi3+0x160>
800026fc:	00010537          	lui	a0,0x10
80002700:	fff50513          	addi	a0,a0,-1 # ffff <buflen.2941+0xffbf>
80002704:	00a77733          	and	a4,a4,a0
80002708:	01071713          	slli	a4,a4,0x10
8000270c:	00a87833          	and	a6,a6,a0
80002710:	009b9bb3          	sll	s7,s7,s1
80002714:	01070733          	add	a4,a4,a6
80002718:	00000493          	li	s1,0
8000271c:	ccebfae3          	bgeu	s7,a4,800023f0 <__udivdi3+0x294>
80002720:	fff78793          	addi	a5,a5,-1 # ffffff <buflen.2941+0xffffbf>
80002724:	b99ff06f          	j	800022bc <__udivdi3+0x160>
80002728:	00000493          	li	s1,0
8000272c:	00000793          	li	a5,0
80002730:	cc1ff06f          	j	800023f0 <__udivdi3+0x294>

80002734 <__umoddi3>:
80002734:	fd010113          	addi	sp,sp,-48
80002738:	02812423          	sw	s0,40(sp)
8000273c:	02912223          	sw	s1,36(sp)
80002740:	03212023          	sw	s2,32(sp)
80002744:	01612823          	sw	s6,16(sp)
80002748:	02112623          	sw	ra,44(sp)
8000274c:	01312e23          	sw	s3,28(sp)
80002750:	01412c23          	sw	s4,24(sp)
80002754:	01512a23          	sw	s5,20(sp)
80002758:	01712623          	sw	s7,12(sp)
8000275c:	01812423          	sw	s8,8(sp)
80002760:	01912223          	sw	s9,4(sp)
80002764:	01a12023          	sw	s10,0(sp)
80002768:	00050913          	mv	s2,a0
8000276c:	00058b13          	mv	s6,a1
80002770:	00050413          	mv	s0,a0
80002774:	00058493          	mv	s1,a1
80002778:	26069c63          	bnez	a3,800029f0 <__umoddi3+0x2bc>
8000277c:	80003ab7          	lui	s5,0x80003
80002780:	00060a13          	mv	s4,a2
80002784:	00068993          	mv	s3,a3
80002788:	f4ca8a93          	addi	s5,s5,-180 # 80002f4c <__global_pointer$+0xffffe97c>
8000278c:	14c5f263          	bgeu	a1,a2,800028d0 <__umoddi3+0x19c>
80002790:	000107b7          	lui	a5,0x10
80002794:	12f67463          	bgeu	a2,a5,800028bc <__umoddi3+0x188>
80002798:	0ff00793          	li	a5,255
8000279c:	00c7f463          	bgeu	a5,a2,800027a4 <__umoddi3+0x70>
800027a0:	00800993          	li	s3,8
800027a4:	013657b3          	srl	a5,a2,s3
800027a8:	00fa8ab3          	add	s5,s5,a5
800027ac:	000ac783          	lbu	a5,0(s5)
800027b0:	02000713          	li	a4,32
800027b4:	013787b3          	add	a5,a5,s3
800027b8:	40f709b3          	sub	s3,a4,a5
800027bc:	00f70c63          	beq	a4,a5,800027d4 <__umoddi3+0xa0>
800027c0:	013b15b3          	sll	a1,s6,s3
800027c4:	00f957b3          	srl	a5,s2,a5
800027c8:	01361a33          	sll	s4,a2,s3
800027cc:	00b7e4b3          	or	s1,a5,a1
800027d0:	01391433          	sll	s0,s2,s3
800027d4:	010a5a93          	srli	s5,s4,0x10
800027d8:	000a8593          	mv	a1,s5
800027dc:	00048513          	mv	a0,s1
800027e0:	4b8000ef          	jal	ra,80002c98 <__umodsi3>
800027e4:	00050913          	mv	s2,a0
800027e8:	000a8593          	mv	a1,s5
800027ec:	010a1b13          	slli	s6,s4,0x10
800027f0:	00048513          	mv	a0,s1
800027f4:	45c000ef          	jal	ra,80002c50 <__udivsi3>
800027f8:	010b5b13          	srli	s6,s6,0x10
800027fc:	00050593          	mv	a1,a0
80002800:	000b0513          	mv	a0,s6
80002804:	420000ef          	jal	ra,80002c24 <__mulsi3>
80002808:	01091913          	slli	s2,s2,0x10
8000280c:	01045793          	srli	a5,s0,0x10
80002810:	00f967b3          	or	a5,s2,a5
80002814:	00a7fa63          	bgeu	a5,a0,80002828 <__umoddi3+0xf4>
80002818:	014787b3          	add	a5,a5,s4
8000281c:	0147e663          	bltu	a5,s4,80002828 <__umoddi3+0xf4>
80002820:	00a7f463          	bgeu	a5,a0,80002828 <__umoddi3+0xf4>
80002824:	014787b3          	add	a5,a5,s4
80002828:	40a784b3          	sub	s1,a5,a0
8000282c:	000a8593          	mv	a1,s5
80002830:	00048513          	mv	a0,s1
80002834:	464000ef          	jal	ra,80002c98 <__umodsi3>
80002838:	00050913          	mv	s2,a0
8000283c:	000a8593          	mv	a1,s5
80002840:	00048513          	mv	a0,s1
80002844:	40c000ef          	jal	ra,80002c50 <__udivsi3>
80002848:	01041413          	slli	s0,s0,0x10
8000284c:	00050593          	mv	a1,a0
80002850:	01091913          	slli	s2,s2,0x10
80002854:	000b0513          	mv	a0,s6
80002858:	01045413          	srli	s0,s0,0x10
8000285c:	3c8000ef          	jal	ra,80002c24 <__mulsi3>
80002860:	00896433          	or	s0,s2,s0
80002864:	00a47a63          	bgeu	s0,a0,80002878 <__umoddi3+0x144>
80002868:	01440433          	add	s0,s0,s4
8000286c:	01446663          	bltu	s0,s4,80002878 <__umoddi3+0x144>
80002870:	00a47463          	bgeu	s0,a0,80002878 <__umoddi3+0x144>
80002874:	01440433          	add	s0,s0,s4
80002878:	40a40433          	sub	s0,s0,a0
8000287c:	01345533          	srl	a0,s0,s3
80002880:	00000593          	li	a1,0
80002884:	02c12083          	lw	ra,44(sp)
80002888:	02812403          	lw	s0,40(sp)
8000288c:	02412483          	lw	s1,36(sp)
80002890:	02012903          	lw	s2,32(sp)
80002894:	01c12983          	lw	s3,28(sp)
80002898:	01812a03          	lw	s4,24(sp)
8000289c:	01412a83          	lw	s5,20(sp)
800028a0:	01012b03          	lw	s6,16(sp)
800028a4:	00c12b83          	lw	s7,12(sp)
800028a8:	00812c03          	lw	s8,8(sp)
800028ac:	00412c83          	lw	s9,4(sp)
800028b0:	00012d03          	lw	s10,0(sp)
800028b4:	03010113          	addi	sp,sp,48
800028b8:	00008067          	ret
800028bc:	010007b7          	lui	a5,0x1000
800028c0:	01000993          	li	s3,16
800028c4:	eef660e3          	bltu	a2,a5,800027a4 <__umoddi3+0x70>
800028c8:	01800993          	li	s3,24
800028cc:	ed9ff06f          	j	800027a4 <__umoddi3+0x70>
800028d0:	00061a63          	bnez	a2,800028e4 <__umoddi3+0x1b0>
800028d4:	00000593          	li	a1,0
800028d8:	00100513          	li	a0,1
800028dc:	374000ef          	jal	ra,80002c50 <__udivsi3>
800028e0:	00050a13          	mv	s4,a0
800028e4:	000107b7          	lui	a5,0x10
800028e8:	0efa7a63          	bgeu	s4,a5,800029dc <__umoddi3+0x2a8>
800028ec:	0ff00793          	li	a5,255
800028f0:	0147f463          	bgeu	a5,s4,800028f8 <__umoddi3+0x1c4>
800028f4:	00800993          	li	s3,8
800028f8:	013a57b3          	srl	a5,s4,s3
800028fc:	00fa8ab3          	add	s5,s5,a5
80002900:	000ac783          	lbu	a5,0(s5)
80002904:	02000713          	li	a4,32
80002908:	414b04b3          	sub	s1,s6,s4
8000290c:	013787b3          	add	a5,a5,s3
80002910:	40f709b3          	sub	s3,a4,a5
80002914:	ecf700e3          	beq	a4,a5,800027d4 <__umoddi3+0xa0>
80002918:	013a1a33          	sll	s4,s4,s3
8000291c:	00fb5ab3          	srl	s5,s6,a5
80002920:	013b15b3          	sll	a1,s6,s3
80002924:	00f957b3          	srl	a5,s2,a5
80002928:	010a5493          	srli	s1,s4,0x10
8000292c:	00b7eb33          	or	s6,a5,a1
80002930:	000a8513          	mv	a0,s5
80002934:	00048593          	mv	a1,s1
80002938:	360000ef          	jal	ra,80002c98 <__umodsi3>
8000293c:	00048593          	mv	a1,s1
80002940:	01391433          	sll	s0,s2,s3
80002944:	010a1b93          	slli	s7,s4,0x10
80002948:	00050913          	mv	s2,a0
8000294c:	000a8513          	mv	a0,s5
80002950:	300000ef          	jal	ra,80002c50 <__udivsi3>
80002954:	010bdb93          	srli	s7,s7,0x10
80002958:	00050593          	mv	a1,a0
8000295c:	000b8513          	mv	a0,s7
80002960:	2c4000ef          	jal	ra,80002c24 <__mulsi3>
80002964:	01091913          	slli	s2,s2,0x10
80002968:	010b5793          	srli	a5,s6,0x10
8000296c:	00f967b3          	or	a5,s2,a5
80002970:	00a7fa63          	bgeu	a5,a0,80002984 <__umoddi3+0x250>
80002974:	014787b3          	add	a5,a5,s4
80002978:	0147e663          	bltu	a5,s4,80002984 <__umoddi3+0x250>
8000297c:	00a7f463          	bgeu	a5,a0,80002984 <__umoddi3+0x250>
80002980:	014787b3          	add	a5,a5,s4
80002984:	40a78ab3          	sub	s5,a5,a0
80002988:	00048593          	mv	a1,s1
8000298c:	000a8513          	mv	a0,s5
80002990:	308000ef          	jal	ra,80002c98 <__umodsi3>
80002994:	00050913          	mv	s2,a0
80002998:	00048593          	mv	a1,s1
8000299c:	000a8513          	mv	a0,s5
800029a0:	2b0000ef          	jal	ra,80002c50 <__udivsi3>
800029a4:	00050593          	mv	a1,a0
800029a8:	000b8513          	mv	a0,s7
800029ac:	278000ef          	jal	ra,80002c24 <__mulsi3>
800029b0:	010b1593          	slli	a1,s6,0x10
800029b4:	01091913          	slli	s2,s2,0x10
800029b8:	0105d593          	srli	a1,a1,0x10
800029bc:	00b965b3          	or	a1,s2,a1
800029c0:	00a5fa63          	bgeu	a1,a0,800029d4 <__umoddi3+0x2a0>
800029c4:	014585b3          	add	a1,a1,s4
800029c8:	0145e663          	bltu	a1,s4,800029d4 <__umoddi3+0x2a0>
800029cc:	00a5f463          	bgeu	a1,a0,800029d4 <__umoddi3+0x2a0>
800029d0:	014585b3          	add	a1,a1,s4
800029d4:	40a584b3          	sub	s1,a1,a0
800029d8:	dfdff06f          	j	800027d4 <__umoddi3+0xa0>
800029dc:	010007b7          	lui	a5,0x1000
800029e0:	01000993          	li	s3,16
800029e4:	f0fa6ae3          	bltu	s4,a5,800028f8 <__umoddi3+0x1c4>
800029e8:	01800993          	li	s3,24
800029ec:	f0dff06f          	j	800028f8 <__umoddi3+0x1c4>
800029f0:	e8d5eae3          	bltu	a1,a3,80002884 <__umoddi3+0x150>
800029f4:	000107b7          	lui	a5,0x10
800029f8:	04f6fc63          	bgeu	a3,a5,80002a50 <__umoddi3+0x31c>
800029fc:	0ff00a93          	li	s5,255
80002a00:	00dab533          	sltu	a0,s5,a3
80002a04:	00351513          	slli	a0,a0,0x3
80002a08:	800037b7          	lui	a5,0x80003
80002a0c:	00a6d733          	srl	a4,a3,a0
80002a10:	f4c78793          	addi	a5,a5,-180 # 80002f4c <__global_pointer$+0xffffe97c>
80002a14:	00e787b3          	add	a5,a5,a4
80002a18:	0007ca83          	lbu	s5,0(a5)
80002a1c:	02000793          	li	a5,32
80002a20:	00aa8ab3          	add	s5,s5,a0
80002a24:	41578a33          	sub	s4,a5,s5
80002a28:	03579e63          	bne	a5,s5,80002a64 <__umoddi3+0x330>
80002a2c:	0166e463          	bltu	a3,s6,80002a34 <__umoddi3+0x300>
80002a30:	00c96a63          	bltu	s2,a2,80002a44 <__umoddi3+0x310>
80002a34:	40c90433          	sub	s0,s2,a2
80002a38:	40db05b3          	sub	a1,s6,a3
80002a3c:	008934b3          	sltu	s1,s2,s0
80002a40:	409584b3          	sub	s1,a1,s1
80002a44:	00040513          	mv	a0,s0
80002a48:	00048593          	mv	a1,s1
80002a4c:	e39ff06f          	j	80002884 <__umoddi3+0x150>
80002a50:	010007b7          	lui	a5,0x1000
80002a54:	01000513          	li	a0,16
80002a58:	faf6e8e3          	bltu	a3,a5,80002a08 <__umoddi3+0x2d4>
80002a5c:	01800513          	li	a0,24
80002a60:	fa9ff06f          	j	80002a08 <__umoddi3+0x2d4>
80002a64:	014696b3          	sll	a3,a3,s4
80002a68:	015657b3          	srl	a5,a2,s5
80002a6c:	00d7ecb3          	or	s9,a5,a3
80002a70:	015b5433          	srl	s0,s6,s5
80002a74:	014b15b3          	sll	a1,s6,s4
80002a78:	010cdb93          	srli	s7,s9,0x10
80002a7c:	01595b33          	srl	s6,s2,s5
80002a80:	00bb6b33          	or	s6,s6,a1
80002a84:	00040513          	mv	a0,s0
80002a88:	000b8593          	mv	a1,s7
80002a8c:	01461d33          	sll	s10,a2,s4
80002a90:	208000ef          	jal	ra,80002c98 <__umodsi3>
80002a94:	00050993          	mv	s3,a0
80002a98:	000b8593          	mv	a1,s7
80002a9c:	00040513          	mv	a0,s0
80002aa0:	010c9c13          	slli	s8,s9,0x10
80002aa4:	1ac000ef          	jal	ra,80002c50 <__udivsi3>
80002aa8:	010c5c13          	srli	s8,s8,0x10
80002aac:	00050593          	mv	a1,a0
80002ab0:	014914b3          	sll	s1,s2,s4
80002ab4:	00050913          	mv	s2,a0
80002ab8:	000c0513          	mv	a0,s8
80002abc:	168000ef          	jal	ra,80002c24 <__mulsi3>
80002ac0:	01099993          	slli	s3,s3,0x10
80002ac4:	010b5713          	srli	a4,s6,0x10
80002ac8:	00e9e733          	or	a4,s3,a4
80002acc:	00090413          	mv	s0,s2
80002ad0:	00a77e63          	bgeu	a4,a0,80002aec <__umoddi3+0x3b8>
80002ad4:	01970733          	add	a4,a4,s9
80002ad8:	fff90413          	addi	s0,s2,-1
80002adc:	01976863          	bltu	a4,s9,80002aec <__umoddi3+0x3b8>
80002ae0:	00a77663          	bgeu	a4,a0,80002aec <__umoddi3+0x3b8>
80002ae4:	ffe90413          	addi	s0,s2,-2
80002ae8:	01970733          	add	a4,a4,s9
80002aec:	40a70933          	sub	s2,a4,a0
80002af0:	000b8593          	mv	a1,s7
80002af4:	00090513          	mv	a0,s2
80002af8:	1a0000ef          	jal	ra,80002c98 <__umodsi3>
80002afc:	00050993          	mv	s3,a0
80002b00:	000b8593          	mv	a1,s7
80002b04:	00090513          	mv	a0,s2
80002b08:	148000ef          	jal	ra,80002c50 <__udivsi3>
80002b0c:	00050913          	mv	s2,a0
80002b10:	00050593          	mv	a1,a0
80002b14:	000c0513          	mv	a0,s8
80002b18:	10c000ef          	jal	ra,80002c24 <__mulsi3>
80002b1c:	010b1713          	slli	a4,s6,0x10
80002b20:	01099993          	slli	s3,s3,0x10
80002b24:	01075713          	srli	a4,a4,0x10
80002b28:	00e9e733          	or	a4,s3,a4
80002b2c:	00090793          	mv	a5,s2
80002b30:	00a77e63          	bgeu	a4,a0,80002b4c <__umoddi3+0x418>
80002b34:	01970733          	add	a4,a4,s9
80002b38:	fff90793          	addi	a5,s2,-1
80002b3c:	01976863          	bltu	a4,s9,80002b4c <__umoddi3+0x418>
80002b40:	00a77663          	bgeu	a4,a0,80002b4c <__umoddi3+0x418>
80002b44:	ffe90793          	addi	a5,s2,-2
80002b48:	01970733          	add	a4,a4,s9
80002b4c:	00010eb7          	lui	t4,0x10
80002b50:	01041413          	slli	s0,s0,0x10
80002b54:	40a70833          	sub	a6,a4,a0
80002b58:	00f46433          	or	s0,s0,a5
80002b5c:	fffe8713          	addi	a4,t4,-1 # ffff <buflen.2941+0xffbf>
80002b60:	00e478b3          	and	a7,s0,a4
80002b64:	00ed7733          	and	a4,s10,a4
80002b68:	01045413          	srli	s0,s0,0x10
80002b6c:	010d5e13          	srli	t3,s10,0x10
80002b70:	00088513          	mv	a0,a7
80002b74:	00070593          	mv	a1,a4
80002b78:	0ac000ef          	jal	ra,80002c24 <__mulsi3>
80002b7c:	00050793          	mv	a5,a0
80002b80:	000e0593          	mv	a1,t3
80002b84:	00088513          	mv	a0,a7
80002b88:	09c000ef          	jal	ra,80002c24 <__mulsi3>
80002b8c:	00050893          	mv	a7,a0
80002b90:	00070593          	mv	a1,a4
80002b94:	00040513          	mv	a0,s0
80002b98:	08c000ef          	jal	ra,80002c24 <__mulsi3>
80002b9c:	00050313          	mv	t1,a0
80002ba0:	000e0593          	mv	a1,t3
80002ba4:	00040513          	mv	a0,s0
80002ba8:	07c000ef          	jal	ra,80002c24 <__mulsi3>
80002bac:	0107d713          	srli	a4,a5,0x10
80002bb0:	006888b3          	add	a7,a7,t1
80002bb4:	01170733          	add	a4,a4,a7
80002bb8:	00677463          	bgeu	a4,t1,80002bc0 <__umoddi3+0x48c>
80002bbc:	01d50533          	add	a0,a0,t4
80002bc0:	01075593          	srli	a1,a4,0x10
80002bc4:	00a585b3          	add	a1,a1,a0
80002bc8:	00010537          	lui	a0,0x10
80002bcc:	fff50513          	addi	a0,a0,-1 # ffff <buflen.2941+0xffbf>
80002bd0:	00a77733          	and	a4,a4,a0
80002bd4:	01071713          	slli	a4,a4,0x10
80002bd8:	00a7f7b3          	and	a5,a5,a0
80002bdc:	00f707b3          	add	a5,a4,a5
80002be0:	00b86663          	bltu	a6,a1,80002bec <__umoddi3+0x4b8>
80002be4:	00b81e63          	bne	a6,a1,80002c00 <__umoddi3+0x4cc>
80002be8:	00f4fc63          	bgeu	s1,a5,80002c00 <__umoddi3+0x4cc>
80002bec:	41a78633          	sub	a2,a5,s10
80002bf0:	00c7b7b3          	sltu	a5,a5,a2
80002bf4:	019787b3          	add	a5,a5,s9
80002bf8:	40f585b3          	sub	a1,a1,a5
80002bfc:	00060793          	mv	a5,a2
80002c00:	40f487b3          	sub	a5,s1,a5
80002c04:	00f4b4b3          	sltu	s1,s1,a5
80002c08:	40b805b3          	sub	a1,a6,a1
80002c0c:	409585b3          	sub	a1,a1,s1
80002c10:	01559433          	sll	s0,a1,s5
80002c14:	0147d7b3          	srl	a5,a5,s4
80002c18:	00f46533          	or	a0,s0,a5
80002c1c:	0145d5b3          	srl	a1,a1,s4
80002c20:	c65ff06f          	j	80002884 <__umoddi3+0x150>

80002c24 <__mulsi3>:
80002c24:	00050613          	mv	a2,a0
80002c28:	00000513          	li	a0,0
80002c2c:	0015f693          	andi	a3,a1,1
80002c30:	00068463          	beqz	a3,80002c38 <__mulsi3+0x14>
80002c34:	00c50533          	add	a0,a0,a2
80002c38:	0015d593          	srli	a1,a1,0x1
80002c3c:	00161613          	slli	a2,a2,0x1
80002c40:	fe0596e3          	bnez	a1,80002c2c <__mulsi3+0x8>
80002c44:	00008067          	ret

80002c48 <__divsi3>:
80002c48:	06054063          	bltz	a0,80002ca8 <__umodsi3+0x10>
80002c4c:	0605c663          	bltz	a1,80002cb8 <__umodsi3+0x20>

80002c50 <__udivsi3>:
80002c50:	00058613          	mv	a2,a1
80002c54:	00050593          	mv	a1,a0
80002c58:	fff00513          	li	a0,-1
80002c5c:	02060c63          	beqz	a2,80002c94 <__udivsi3+0x44>
80002c60:	00100693          	li	a3,1
80002c64:	00b67a63          	bgeu	a2,a1,80002c78 <__udivsi3+0x28>
80002c68:	00c05863          	blez	a2,80002c78 <__udivsi3+0x28>
80002c6c:	00161613          	slli	a2,a2,0x1
80002c70:	00169693          	slli	a3,a3,0x1
80002c74:	feb66ae3          	bltu	a2,a1,80002c68 <__udivsi3+0x18>
80002c78:	00000513          	li	a0,0
80002c7c:	00c5e663          	bltu	a1,a2,80002c88 <__udivsi3+0x38>
80002c80:	40c585b3          	sub	a1,a1,a2
80002c84:	00d56533          	or	a0,a0,a3
80002c88:	0016d693          	srli	a3,a3,0x1
80002c8c:	00165613          	srli	a2,a2,0x1
80002c90:	fe0696e3          	bnez	a3,80002c7c <__udivsi3+0x2c>
80002c94:	00008067          	ret

80002c98 <__umodsi3>:
80002c98:	00008293          	mv	t0,ra
80002c9c:	fb5ff0ef          	jal	ra,80002c50 <__udivsi3>
80002ca0:	00058513          	mv	a0,a1
80002ca4:	00028067          	jr	t0
80002ca8:	40a00533          	neg	a0,a0
80002cac:	0005d863          	bgez	a1,80002cbc <__umodsi3+0x24>
80002cb0:	40b005b3          	neg	a1,a1
80002cb4:	f9dff06f          	j	80002c50 <__udivsi3>
80002cb8:	40b005b3          	neg	a1,a1
80002cbc:	00008293          	mv	t0,ra
80002cc0:	f91ff0ef          	jal	ra,80002c50 <__udivsi3>
80002cc4:	40a00533          	neg	a0,a0
80002cc8:	00028067          	jr	t0

80002ccc <__modsi3>:
80002ccc:	00008293          	mv	t0,ra
80002cd0:	0005ca63          	bltz	a1,80002ce4 <__modsi3+0x18>
80002cd4:	00054c63          	bltz	a0,80002cec <__modsi3+0x20>
80002cd8:	f79ff0ef          	jal	ra,80002c50 <__udivsi3>
80002cdc:	00058513          	mv	a0,a1
80002ce0:	00028067          	jr	t0
80002ce4:	40b005b3          	neg	a1,a1
80002ce8:	fe0558e3          	bgez	a0,80002cd8 <__modsi3+0xc>
80002cec:	40a00533          	neg	a0,a0
80002cf0:	f61ff0ef          	jal	ra,80002c50 <__udivsi3>
80002cf4:	40b00533          	neg	a0,a1
80002cf8:	00028067          	jr	t0

Disassembly of section .text.startup:

80002cfc <main>:
80002cfc:	9b010113          	addi	sp,sp,-1616
80002d00:	00000597          	auipc	a1,0x0
80002d04:	45058593          	addi	a1,a1,1104 # 80003150 <input_data>
80002d08:	00010613          	mv	a2,sp
80002d0c:	19000513          	li	a0,400
80002d10:	64112623          	sw	ra,1612(sp)
80002d14:	b34fe0ef          	jal	ra,80001048 <median>
80002d18:	00100513          	li	a0,1
80002d1c:	9adfe0ef          	jal	ra,800016c8 <setStats>
80002d20:	00010613          	mv	a2,sp
80002d24:	00000597          	auipc	a1,0x0
80002d28:	42c58593          	addi	a1,a1,1068 # 80003150 <input_data>
80002d2c:	19000513          	li	a0,400
80002d30:	b18fe0ef          	jal	ra,80001048 <median>
80002d34:	00000513          	li	a0,0
80002d38:	991fe0ef          	jal	ra,800016c8 <setStats>
80002d3c:	00010793          	mv	a5,sp
80002d40:	00001717          	auipc	a4,0x1
80002d44:	a5070713          	addi	a4,a4,-1456 # 80003790 <verify_data>
80002d48:	00000513          	li	a0,0
80002d4c:	19000693          	li	a3,400
80002d50:	0007a883          	lw	a7,0(a5) # 1000000 <buflen.2941+0xffffc0>
80002d54:	00072803          	lw	a6,0(a4)
80002d58:	0047a583          	lw	a1,4(a5)
80002d5c:	00472603          	lw	a2,4(a4)
80002d60:	03089463          	bne	a7,a6,80002d88 <main+0x8c>
80002d64:	00250513          	addi	a0,a0,2
80002d68:	00c59a63          	bne	a1,a2,80002d7c <main+0x80>
80002d6c:	00878793          	addi	a5,a5,8
80002d70:	00870713          	addi	a4,a4,8
80002d74:	fcd51ee3          	bne	a0,a3,80002d50 <main+0x54>
80002d78:	00000513          	li	a0,0
80002d7c:	64c12083          	lw	ra,1612(sp)
80002d80:	65010113          	addi	sp,sp,1616
80002d84:	00008067          	ret
80002d88:	00150513          	addi	a0,a0,1
80002d8c:	ff1ff06f          	j	80002d7c <main+0x80>
80002d90:	ff010113          	addi	sp,sp,-16
80002d94:	00000517          	auipc	a0,0x0
80002d98:	03c50513          	addi	a0,a0,60 # 80002dd0 <main+0xd4>
80002d9c:	00112623          	sw	ra,12(sp)
80002da0:	9e5fe0ef          	jal	ra,80001784 <printstr>
80002da4:	00c12083          	lw	ra,12(sp)
80002da8:	fff00513          	li	a0,-1
80002dac:	01010113          	addi	sp,sp,16
80002db0:	00008067          	ret

Disassembly of section .data:

80003150 <input_data>:
80003150:	0029                	c.nop	10
80003152:	0000                	unimp
80003154:	01c6                	slli	gp,gp,0x11
80003156:	0000                	unimp
80003158:	0341                	addi	t1,t1,16
8000315a:	0000                	unimp
8000315c:	0000014f          	fnmadd.s	ft2,ft0,ft0,ft0,rne
80003160:	0234                	addi	a3,sp,264
80003162:	0000                	unimp
80003164:	0001                	nop
80003166:	0000                	unimp
80003168:	000000bb          	0xbb
8000316c:	03dd                	addi	t2,t2,23
8000316e:	0000                	unimp
80003170:	02ed                	addi	t0,t0,27
80003172:	0000                	unimp
80003174:	016d                	addi	sp,sp,27
80003176:	0000                	unimp
80003178:	015e                	slli	sp,sp,0x17
8000317a:	0000                	unimp
8000317c:	023c                	addi	a5,sp,264
8000317e:	0000                	unimp
80003180:	0084                	addi	s1,sp,64
80003182:	0000                	unimp
80003184:	0040                	addi	s0,sp,4
80003186:	0000                	unimp
80003188:	03b5                	addi	t2,t2,13
8000318a:	0000                	unimp
8000318c:	0099                	addi	ra,ra,6
8000318e:	0000                	unimp
80003190:	0248                	addi	a0,sp,260
80003192:	0000                	unimp
80003194:	00d8                	addi	a4,sp,68
80003196:	0000                	unimp
80003198:	0325                	addi	t1,t1,9
8000319a:	0000                	unimp
8000319c:	008c                	addi	a1,sp,64
8000319e:	0000                	unimp
800031a0:	026d                	addi	tp,tp,27
800031a2:	0000                	unimp
800031a4:	00d2                	slli	ra,ra,0x14
800031a6:	0000                	unimp
800031a8:	0006                	c.slli	zero,0x1
800031aa:	0000                	unimp
800031ac:	023c                	addi	a5,sp,264
800031ae:	0000                	unimp
800031b0:	000003a3          	sb	zero,7(zero) # 7 <buf.2940+0x7>
800031b4:	00000153          	fadd.s	ft2,ft0,ft0,rne
800031b8:	037a                	slli	t1,t1,0x1e
800031ba:	0000                	unimp
800031bc:	0251                	addi	tp,tp,20
800031be:	0000                	unimp
800031c0:	0188                	addi	a0,sp,192
800031c2:	0000                	unimp
800031c4:	0382                	c.slli64	t2
800031c6:	0000                	unimp
800031c8:	02b6                	slli	t0,t0,0xd
800031ca:	0000                	unimp
800031cc:	00e4                	addi	s1,sp,76
800031ce:	0000                	unimp
800031d0:	03c1                	addi	t2,t2,16
800031d2:	0000                	unimp
800031d4:	000c                	0xc
800031d6:	0000                	unimp
800031d8:	006e                	c.slli	zero,0x1b
800031da:	0000                	unimp
800031dc:	00000373          	0x373
800031e0:	0074                	addi	a3,sp,12
800031e2:	0000                	unimp
800031e4:	02ee                	slli	t0,t0,0x1b
800031e6:	0000                	unimp
800031e8:	0128                	addi	a0,sp,136
800031ea:	0000                	unimp
800031ec:	0286                	slli	t0,t0,0x1
800031ee:	0000                	unimp
800031f0:	01aa                	slli	gp,gp,0xa
800031f2:	0000                	unimp
800031f4:	01f4                	addi	a3,sp,204
800031f6:	0000                	unimp
800031f8:	013a                	slli	sp,sp,0xe
800031fa:	0000                	unimp
800031fc:	01b4                	addi	a3,sp,200
800031fe:	0000                	unimp
80003200:	00000293          	li	t0,0
80003204:	02bd                	addi	t0,t0,15
80003206:	0000                	unimp
80003208:	0306                	slli	t1,t1,0x1
8000320a:	0000                	unimp
8000320c:	032c                	addi	a1,sp,392
8000320e:	0000                	unimp
80003210:	0000013f 000003d5 	0x3d50000013f
80003218:	02a6                	slli	t0,t0,0x9
8000321a:	0000                	unimp
8000321c:	0096                	slli	ra,ra,0x5
8000321e:	0000                	unimp
80003220:	0000036b          	0x36b
80003224:	02b8                	addi	a4,sp,328
80003226:	0000                	unimp
80003228:	0178                	addi	a4,sp,140
8000322a:	0000                	unimp
8000322c:	0234                	addi	a3,sp,264
8000322e:	0000                	unimp
80003230:	01da                	slli	gp,gp,0x16
80003232:	0000                	unimp
80003234:	0110                	addi	a2,sp,128
80003236:	0000                	unimp
80003238:	03aa                	slli	t2,t2,0xa
8000323a:	0000                	unimp
8000323c:	0102                	c.slli64	sp
8000323e:	0000                	unimp
80003240:	0000021b          	0x21b
80003244:	00000287          	0x287
80003248:	0239                	addi	tp,tp,14
8000324a:	0000                	unimp
8000324c:	01fd                	addi	gp,gp,31
8000324e:	0000                	unimp
80003250:	000000cb          	fnmsub.s	ft1,ft0,ft0,ft0,rne
80003254:	0058                	addi	a4,sp,4
80003256:	0000                	unimp
80003258:	0118                	addi	a4,sp,128
8000325a:	0000                	unimp
8000325c:	000002bf 000002f7 	0x2f7000002bf
80003264:	029d                	addi	t0,t0,7
80003266:	0000                	unimp
80003268:	025e                	slli	tp,tp,0x17
8000326a:	0000                	unimp
8000326c:	00000177          	0x177
80003270:	01ff                	0x1ff
80003272:	0000                	unimp
80003274:	00000227          	0x227
80003278:	0291                	addi	t0,t0,4
8000327a:	0000                	unimp
8000327c:	03a8                	addi	a0,sp,456
8000327e:	0000                	unimp
80003280:	000000c3          	fmadd.s	ft1,ft0,ft0,ft0,rne
80003284:	0250                	addi	a2,sp,260
80003286:	0000                	unimp
80003288:	0051                	c.nop	20
8000328a:	0000                	unimp
8000328c:	0239                	addi	tp,tp,14
8000328e:	0000                	unimp
80003290:	0000010b          	0x10b
80003294:	03b8                	addi	a4,sp,456
80003296:	0000                	unimp
80003298:	00e5                	addi	ra,ra,25
8000329a:	0000                	unimp
8000329c:	0320                	addi	s0,sp,392
8000329e:	0000                	unimp
800032a0:	0151                	addi	sp,sp,20
800032a2:	0000                	unimp
800032a4:	0248                	addi	a0,sp,260
800032a6:	0000                	unimp
800032a8:	03b0                	addi	a2,sp,456
800032aa:	0000                	unimp
800032ac:	00000283          	lb	t0,0(zero) # 0 <buf.2940>
800032b0:	0386                	slli	t2,t2,0x1
800032b2:	0000                	unimp
800032b4:	0170                	addi	a2,sp,140
800032b6:	0000                	unimp
800032b8:	00f1                	addi	ra,ra,28
800032ba:	0000                	unimp
800032bc:	01e9                	addi	gp,gp,26
800032be:	0000                	unimp
800032c0:	0391                	addi	t2,t2,4
800032c2:	0000                	unimp
800032c4:	0148                	addi	a0,sp,132
800032c6:	0000                	unimp
800032c8:	033a                	slli	t1,t1,0xe
800032ca:	0000                	unimp
800032cc:	0139                	addi	sp,sp,14
800032ce:	0000                	unimp
800032d0:	03a5                	addi	t2,t2,9
800032d2:	0000                	unimp
800032d4:	0250                	addi	a2,sp,260
800032d6:	0000                	unimp
800032d8:	03d9                	addi	t2,t2,22
800032da:	0000                	unimp
800032dc:	0184                	addi	s1,sp,192
800032de:	0000                	unimp
800032e0:	000000c3          	fmadd.s	ft1,ft0,ft0,ft0,rne
800032e4:	021f 0000 03c0      	0x3c00000021f
800032ea:	0000                	unimp
800032ec:	0289                	addi	t0,t0,2
800032ee:	0000                	unimp
800032f0:	0236                	slli	tp,tp,0xd
800032f2:	0000                	unimp
800032f4:	000003d3          	fadd.s	ft7,ft0,ft0,rne
800032f8:	015e                	slli	sp,sp,0x17
800032fa:	0000                	unimp
800032fc:	03e5                	addi	t2,t2,25
800032fe:	0000                	unimp
80003300:	0289                	addi	t0,t0,2
80003302:	0000                	unimp
80003304:	032e                	slli	t1,t1,0xb
80003306:	0000                	unimp
80003308:	0291                	addi	t0,t0,4
8000330a:	0000                	unimp
8000330c:	0000004f          	fnmadd.s	ft0,ft0,ft0,ft0,rne
80003310:	00b5                	addi	ra,ra,13
80003312:	0000                	unimp
80003314:	00d0                	addi	a2,sp,68
80003316:	0000                	unimp
80003318:	0000006f          	j	80003318 <input_data+0x1c8>
8000331c:	03e6                	slli	t2,t2,0x19
8000331e:	0000                	unimp
80003320:	0000035b          	0x35b
80003324:	0275                	addi	tp,tp,29
80003326:	0000                	unimp
80003328:	0041                	c.nop	16
8000332a:	0000                	unimp
8000332c:	0000034f          	fnmadd.s	ft6,ft0,ft0,ft0,rne
80003330:	0120                	addi	s0,sp,136
80003332:	0000                	unimp
80003334:	02c0                	addi	s0,sp,324
80003336:	0000                	unimp
80003338:	015d                	addi	sp,sp,23
8000333a:	0000                	unimp
8000333c:	03e5                	addi	t2,t2,25
8000333e:	0000                	unimp
80003340:	008d                	addi	ra,ra,3
80003342:	0000                	unimp
80003344:	00fd                	addi	ra,ra,31
80003346:	0000                	unimp
80003348:	0389                	addi	t2,t2,2
8000334a:	0000                	unimp
8000334c:	000002cb          	fnmsub.s	ft5,ft0,ft0,ft0,rne
80003350:	0376                	slli	t1,t1,0x1d
80003352:	0000                	unimp
80003354:	01ae                	slli	gp,gp,0xb
80003356:	0000                	unimp
80003358:	0108                	addi	a0,sp,128
8000335a:	0000                	unimp
8000335c:	019f 0000 0240      	0x2400000019f
80003362:	0000                	unimp
80003364:	021a                	slli	tp,tp,0x6
80003366:	0000                	unimp
80003368:	000003d3          	fadd.s	ft7,ft0,ft0,rne
8000336c:	02bc                	addi	a5,sp,328
8000336e:	0000                	unimp
80003370:	02f9                	addi	t0,t0,30
80003372:	0000                	unimp
80003374:	0004                	0x4
80003376:	0000                	unimp
80003378:	00f1                	addi	ra,ra,28
8000337a:	0000                	unimp
8000337c:	01ee                	slli	gp,gp,0x1b
8000337e:	0000                	unimp
80003380:	01de                	slli	gp,gp,0x17
80003382:	0000                	unimp
80003384:	0064                	addi	s1,sp,12
80003386:	0000                	unimp
80003388:	000001f3          	0x1f3
8000338c:	0360                	addi	s0,sp,396
8000338e:	0000                	unimp
80003390:	00000193          	li	gp,0
80003394:	02b5                	addi	t0,t0,13
80003396:	0000                	unimp
80003398:	00de                	slli	ra,ra,0x17
8000339a:	0000                	unimp
8000339c:	01a0                	addi	s0,sp,200
8000339e:	0000                	unimp
800033a0:	01bc                	addi	a5,sp,200
800033a2:	0000                	unimp
800033a4:	0128                	addi	a0,sp,136
800033a6:	0000                	unimp
800033a8:	02d1                	addi	t0,t0,20
800033aa:	0000                	unimp
800033ac:	011d                	addi	sp,sp,7
800033ae:	0000                	unimp
800033b0:	02a4                	addi	s1,sp,328
800033b2:	0000                	unimp
800033b4:	026c                	addi	a1,sp,268
800033b6:	0000                	unimp
800033b8:	013d                	addi	sp,sp,15
800033ba:	0000                	unimp
800033bc:	004e                	c.slli	zero,0x13
800033be:	0000                	unimp
800033c0:	00e0                	addi	s0,sp,76
800033c2:	0000                	unimp
800033c4:	015f 0000 03a9      	0x3a90000015f
800033ca:	0000                	unimp
800033cc:	021c                	addi	a5,sp,256
800033ce:	0000                	unimp
800033d0:	0120                	addi	s0,sp,136
800033d2:	0000                	unimp
800033d4:	0286                	slli	t0,t0,0x1
800033d6:	0000                	unimp
800033d8:	00000077          	0x77
800033dc:	00a9                	addi	ra,ra,10
800033de:	0000                	unimp
800033e0:	00000267          	jalr	tp,zero # 0 <buf.2940>
800033e4:	0000020f          	0x20f
800033e8:	025e                	slli	tp,tp,0x17
800033ea:	0000                	unimp
800033ec:	0121                	addi	sp,sp,8
800033ee:	0000                	unimp
800033f0:	0185                	addi	gp,gp,1
800033f2:	0000                	unimp
800033f4:	031c                	addi	a5,sp,384
800033f6:	0000                	unimp
800033f8:	015f 0000 0321      	0x3210000015f
800033fe:	0000                	unimp
80003400:	000001c7          	fmsub.s	ft3,ft0,ft0,ft0,rne
80003404:	02d0                	addi	a2,sp,324
80003406:	0000                	unimp
80003408:	0116                	slli	sp,sp,0x5
8000340a:	0000                	unimp
8000340c:	02f6                	slli	t0,t0,0x1d
8000340e:	0000                	unimp
80003410:	0000016f          	jal	sp,80003410 <input_data+0x2c0>
80003414:	02e9                	addi	t0,t0,26
80003416:	0000                	unimp
80003418:	0166                	slli	sp,sp,0x19
8000341a:	0000                	unimp
8000341c:	005c                	addi	a5,sp,4
8000341e:	0000                	unimp
80003420:	0248                	addi	a0,sp,260
80003422:	0000                	unimp
80003424:	03dd                	addi	t2,t2,23
80003426:	0000                	unimp
80003428:	003e                	c.slli	zero,0xf
8000342a:	0000                	unimp
8000342c:	0000010f          	0x10f
80003430:	03d9                	addi	t2,t2,22
80003432:	0000                	unimp
80003434:	0355                	addi	t1,t1,21
80003436:	0000                	unimp
80003438:	00000193          	li	gp,0
8000343c:	0314                	addi	a3,sp,384
8000343e:	0000                	unimp
80003440:	015a                	slli	sp,sp,0x16
80003442:	0000                	unimp
80003444:	00000213          	li	tp,0
80003448:	0205                	addi	tp,tp,1
8000344a:	0000                	unimp
8000344c:	00de                	slli	ra,ra,0x17
8000344e:	0000                	unimp
80003450:	0000022f          	0x22f
80003454:	01cd                	addi	gp,gp,19
80003456:	0000                	unimp
80003458:	038c                	addi	a1,sp,448
8000345a:	0000                	unimp
8000345c:	00f1                	addi	ra,ra,28
8000345e:	0000                	unimp
80003460:	00000307          	0x307
80003464:	0166                	slli	sp,sp,0x19
80003466:	0000                	unimp
80003468:	00ff                	0xff
8000346a:	0000                	unimp
8000346c:	014c                	addi	a1,sp,132
8000346e:	0000                	unimp
80003470:	030a                	slli	t1,t1,0x2
80003472:	0000                	unimp
80003474:	02ac                	addi	a1,sp,328
80003476:	0000                	unimp
80003478:	0256                	slli	tp,tp,0x15
8000347a:	0000                	unimp
8000347c:	02e4                	addi	s1,sp,332
8000347e:	0000                	unimp
80003480:	0000008f          	0x8f
80003484:	01be                	slli	gp,gp,0xf
80003486:	0000                	unimp
80003488:	0021                	c.nop	8
8000348a:	0000                	unimp
8000348c:	00000137          	lui	sp,0x0
80003490:	007d                	c.nop	31
80003492:	0000                	unimp
80003494:	000002e7          	jalr	t0,zero # 0 <buf.2940>
80003498:	03ad                	addi	t2,t2,11
8000349a:	0000                	unimp
8000349c:	022d                	addi	tp,tp,11
8000349e:	0000                	unimp
800034a0:	03a5                	addi	t2,t2,9
800034a2:	0000                	unimp
800034a4:	01df 0000 031f      	0x31f000001df
800034aa:	0000                	unimp
800034ac:	022d                	addi	tp,tp,11
800034ae:	0000                	unimp
800034b0:	0229                	addi	tp,tp,10
800034b2:	0000                	unimp
800034b4:	039d                	addi	t2,t2,7
800034b6:	0000                	unimp
800034b8:	000001af          	0x1af
800034bc:	031c                	addi	a5,sp,384
800034be:	0000                	unimp
800034c0:	0288                	addi	a0,sp,320
800034c2:	0000                	unimp
800034c4:	0165                	addi	sp,sp,25
800034c6:	0000                	unimp
800034c8:	03b8                	addi	a4,sp,456
800034ca:	0000                	unimp
800034cc:	0000037b          	0x37b
800034d0:	011f 0000 029a      	0x29a0000011f
800034d6:	0000                	unimp
800034d8:	00000013          	nop
800034dc:	0202                	c.slli64	tp
800034de:	0000                	unimp
800034e0:	0031                	c.nop	12
800034e2:	0000                	unimp
800034e4:	022d                	addi	tp,tp,11
800034e6:	0000                	unimp
800034e8:	0056                	c.slli	zero,0x15
800034ea:	0000                	unimp
800034ec:	0366                	slli	t1,t1,0x19
800034ee:	0000                	unimp
800034f0:	005f 0000 0355      	0x3550000005f
800034f6:	0000                	unimp
800034f8:	01b9                	addi	gp,gp,14
800034fa:	0000                	unimp
800034fc:	01b8                	addi	a4,sp,200
800034fe:	0000                	unimp
80003500:	0000024b          	fnmsub.s	ft4,ft0,ft0,ft0,rne
80003504:	003d                	c.nop	15
80003506:	0000                	unimp
80003508:	0266                	slli	tp,tp,0x19
8000350a:	0000                	unimp
8000350c:	02a6                	slli	t0,t0,0x9
8000350e:	0000                	unimp
80003510:	017e                	slli	sp,sp,0x1f
80003512:	0000                	unimp
80003514:	018c                	addi	a1,sp,192
80003516:	0000                	unimp
80003518:	0118                	addi	a4,sp,128
8000351a:	0000                	unimp
8000351c:	0009                	c.nop	2
8000351e:	0000                	unimp
80003520:	0328                	addi	a0,sp,392
80003522:	0000                	unimp
80003524:	0011                	c.nop	4
80003526:	0000                	unimp
80003528:	000003cb          	fnmsub.s	ft7,ft0,ft0,ft0,rne
8000352c:	00aa                	slli	ra,ra,0xa
8000352e:	0000                	unimp
80003530:	00000333          	add	t1,zero,zero
80003534:	00000123          	sb	zero,2(zero) # 2 <buf.2940+0x2>
80003538:	0158                	addi	a4,sp,132
8000353a:	0000                	unimp
8000353c:	017c                	addi	a5,sp,140
8000353e:	0000                	unimp
80003540:	01c2                	slli	gp,gp,0x10
80003542:	0000                	unimp
80003544:	0218                	addi	a4,sp,256
80003546:	0000                	unimp
80003548:	0200                	addi	s0,sp,256
8000354a:	0000                	unimp
8000354c:	00b9                	addi	ra,ra,14
8000354e:	0000                	unimp
80003550:	03c5                	addi	t2,t2,17
80003552:	0000                	unimp
80003554:	0395                	addi	t2,t2,5
80003556:	0000                	unimp
80003558:	0000015b          	0x15b
8000355c:	0000021b          	0x21b
80003560:	0328                	addi	a0,sp,392
80003562:	0000                	unimp
80003564:	000003d7          	0x3d7
80003568:	0372                	slli	t1,t1,0x1c
8000356a:	0000                	unimp
8000356c:	00000377          	0x377
80003570:	0219                	addi	tp,tp,6
80003572:	0000                	unimp
80003574:	0036                	c.slli	zero,0xd
80003576:	0000                	unimp
80003578:	03b2                	slli	t2,t2,0xc
8000357a:	0000                	unimp
8000357c:	0264                	addi	s1,sp,268
8000357e:	0000                	unimp
80003580:	02bd                	addi	t0,t0,15
80003582:	0000                	unimp
80003584:	000003b7          	lui	t2,0x0
80003588:	0164                	addi	s1,sp,140
8000358a:	0000                	unimp
8000358c:	01df 0000 0237      	0x237000001df
80003592:	0000                	unimp
80003594:	00000097          	auipc	ra,0x0
80003598:	0000037b          	0x37b
8000359c:	00000007          	0x7
800035a0:	0016                	c.slli	zero,0x5
800035a2:	0000                	unimp
800035a4:	0281                	addi	t0,t0,0
800035a6:	0000                	unimp
800035a8:	0238                	addi	a4,sp,264
800035aa:	0000                	unimp
800035ac:	0000014f          	fnmadd.s	ft2,ft0,ft0,ft0,rne
800035b0:	0299                	addi	t0,t0,6
800035b2:	0000                	unimp
800035b4:	02da                	slli	t0,t0,0x16
800035b6:	0000                	unimp
800035b8:	000001a7          	0x1a7
800035bc:	005f 0000 01b2      	0x1b20000005f
800035c2:	0000                	unimp
800035c4:	02d8                	addi	a4,sp,324
800035c6:	0000                	unimp
800035c8:	009e                	slli	ra,ra,0x7
800035ca:	0000                	unimp
800035cc:	0118                	addi	a4,sp,128
800035ce:	0000                	unimp
800035d0:	0002                	c.slli64	zero
800035d2:	0000                	unimp
800035d4:	0000018b          	0x18b
800035d8:	0054                	addi	a3,sp,4
800035da:	0000                	unimp
800035dc:	02b0                	addi	a2,sp,328
800035de:	0000                	unimp
800035e0:	000000f7          	0xf7
800035e4:	0000038f          	0x38f
800035e8:	0031                	c.nop	12
800035ea:	0000                	unimp
800035ec:	01dc                	addi	a5,sp,196
800035ee:	0000                	unimp
800035f0:	000001b3          	add	gp,zero,zero
800035f4:	0000032f          	0x32f
800035f8:	0318                	addi	a4,sp,384
800035fa:	0000                	unimp
800035fc:	02d9                	addi	t0,t0,22
800035fe:	0000                	unimp
80003600:	0365                	addi	t1,t1,25
80003602:	0000                	unimp
80003604:	0109                	addi	sp,sp,2
80003606:	0000                	unimp
80003608:	01e6                	slli	gp,gp,0x19
8000360a:	0000                	unimp
8000360c:	007f                	0x7f
8000360e:	0000                	unimp
80003610:	019e                	slli	gp,gp,0x7
80003612:	0000                	unimp
80003614:	00ec                	addi	a1,sp,76
80003616:	0000                	unimp
80003618:	0171                	addi	sp,sp,28
8000361a:	0000                	unimp
8000361c:	00d6                	slli	ra,ra,0x15
8000361e:	0000                	unimp
80003620:	0224                	addi	s1,sp,264
80003622:	0000                	unimp
80003624:	00b4                	addi	a3,sp,72
80003626:	0000                	unimp
80003628:	0206                	slli	tp,tp,0x1
8000362a:	0000                	unimp
8000362c:	0006                	c.slli	zero,0x1
8000362e:	0000                	unimp
80003630:	0378                	addi	a4,sp,396
80003632:	0000                	unimp
80003634:	000001f7          	0x1f7
80003638:	02aa                	slli	t0,t0,0xa
8000363a:	0000                	unimp
8000363c:	0254                	addi	a3,sp,260
8000363e:	0000                	unimp
80003640:	011c                	addi	a5,sp,128
80003642:	0000                	unimp
80003644:	00ad                	addi	ra,ra,11
80003646:	0000                	unimp
80003648:	0108                	addi	a0,sp,128
8000364a:	0000                	unimp
8000364c:	00000283          	lb	t0,0(zero) # 0 <buf.2940>
80003650:	000001f3          	0x1f3
80003654:	015a                	slli	sp,sp,0x16
80003656:	0000                	unimp
80003658:	0122                	slli	sp,sp,0x8
8000365a:	0000                	unimp
8000365c:	00000257          	0x257
80003660:	0381                	addi	t2,t2,0
80003662:	0000                	unimp
80003664:	0044                	addi	s1,sp,4
80003666:	0000                	unimp
80003668:	000000d7          	0xd7
8000366c:	0351                	addi	t1,t1,20
8000366e:	0000                	unimp
80003670:	000002db          	0x2db
80003674:	0292                	slli	t0,t0,0x4
80003676:	0000                	unimp
80003678:	02b0                	addi	a2,sp,328
8000367a:	0000                	unimp
8000367c:	0000026b          	0x26b
80003680:	000000fb          	0xfb
80003684:	0079                	c.nop	30
80003686:	0000                	unimp
80003688:	0312                	slli	t1,t1,0x4
8000368a:	0000                	unimp
8000368c:	00000083          	lb	ra,0(zero) # 0 <buf.2940>
80003690:	0000022b          	0x22b
80003694:	033c                	addi	a5,sp,392
80003696:	0000                	unimp
80003698:	012e                	slli	sp,sp,0xb
8000369a:	0000                	unimp
8000369c:	0000029b          	0x29b
800036a0:	0210                	addi	a2,sp,256
800036a2:	0000                	unimp
800036a4:	01b1                	addi	gp,gp,12
800036a6:	0000                	unimp
800036a8:	0220                	addi	s0,sp,264
800036aa:	0000                	unimp
800036ac:	000001e7          	jalr	gp,zero # 0 <buf.2940>
800036b0:	0142                	slli	sp,sp,0x10
800036b2:	0000                	unimp
800036b4:	02f1                	addi	t0,t0,28
800036b6:	0000                	unimp
800036b8:	000003b3          	add	t2,zero,zero
800036bc:	007d                	c.nop	31
800036be:	0000                	unimp
800036c0:	011f 0000 0272      	0x2720000011f
800036c6:	0000                	unimp
800036c8:	0338                	addi	a4,sp,392
800036ca:	0000                	unimp
800036cc:	000e                	c.slli	zero,0x3
800036ce:	0000                	unimp
800036d0:	0130                	addi	a2,sp,136
800036d2:	0000                	unimp
800036d4:	000a                	c.slli	zero,0x2
800036d6:	0000                	unimp
800036d8:	0314                	addi	a3,sp,384
800036da:	0000                	unimp
800036dc:	00000193          	li	gp,0
800036e0:	02dd                	addi	t0,t0,23
800036e2:	0000                	unimp
800036e4:	006a                	c.slli	zero,0x1a
800036e6:	0000                	unimp
800036e8:	000003bf 000002bf 	0x2bf000003bf
800036f0:	016e                	slli	sp,sp,0x1b
800036f2:	0000                	unimp
800036f4:	0332                	slli	t1,t1,0xc
800036f6:	0000                	unimp
800036f8:	02d2                	slli	t0,t0,0x14
800036fa:	0000                	unimp
800036fc:	03c4                	addi	s1,sp,452
800036fe:	0000                	unimp
80003700:	0126                	slli	sp,sp,0x9
80003702:	0000                	unimp
80003704:	0196                	slli	gp,gp,0x5
80003706:	0000                	unimp
80003708:	000003cf          	fnmadd.s	ft7,ft0,ft0,ft0,rne
8000370c:	036a                	slli	t1,t1,0x1a
8000370e:	0000                	unimp
80003710:	028d                	addi	t0,t0,3
80003712:	0000                	unimp
80003714:	0358                	addi	a4,sp,388
80003716:	0000                	unimp
80003718:	02ec                	addi	a1,sp,332
8000371a:	0000                	unimp
8000371c:	0056                	c.slli	zero,0x15
8000371e:	0000                	unimp
80003720:	0000005b          	0x5b
80003724:	003c                	addi	a5,sp,8
80003726:	0000                	unimp
80003728:	017a                	slli	sp,sp,0x1e
8000372a:	0000                	unimp
8000372c:	0294                	addi	a3,sp,320
8000372e:	0000                	unimp
80003730:	0069                	c.nop	26
80003732:	0000                	unimp
80003734:	0000029b          	0x29b
80003738:	0066                	c.slli	zero,0x19
8000373a:	0000                	unimp
8000373c:	0099                	addi	ra,ra,6
8000373e:	0000                	unimp
80003740:	017d                	addi	sp,sp,31
80003742:	0000                	unimp
80003744:	0079                	c.nop	30
80003746:	0000                	unimp
80003748:	0000028b          	0x28b
8000374c:	0062                	c.slli	zero,0x18
8000374e:	0000                	unimp
80003750:	0339                	addi	t1,t1,14
80003752:	0000                	unimp
80003754:	019c                	addi	a5,sp,192
80003756:	0000                	unimp
80003758:	0348                	addi	a0,sp,388
8000375a:	0000                	unimp
8000375c:	00ec                	addi	a1,sp,76
8000375e:	0000                	unimp
80003760:	0164                	addi	s1,sp,140
80003762:	0000                	unimp
80003764:	000c                	0xc
80003766:	0000                	unimp
80003768:	0094                	addi	a3,sp,64
8000376a:	0000                	unimp
8000376c:	000001a7          	0x1a7
80003770:	0036                	c.slli	zero,0xd
80003772:	0000                	unimp
80003774:	03c5                	addi	t2,t2,17
80003776:	0000                	unimp
80003778:	008c                	addi	a1,sp,64
8000377a:	0000                	unimp
8000377c:	00d8                	addi	a4,sp,68
8000377e:	0000                	unimp
80003780:	000003bb          	0x3bb
80003784:	026d                	addi	tp,tp,27
80003786:	0000                	unimp
80003788:	00000157          	0x157
8000378c:	0169                	addi	sp,sp,26
8000378e:	0000                	unimp

80003790 <verify_data>:
80003790:	0000                	unimp
80003792:	0000                	unimp
80003794:	01c6                	slli	gp,gp,0x11
80003796:	0000                	unimp
80003798:	01c6                	slli	gp,gp,0x11
8000379a:	0000                	unimp
8000379c:	0234                	addi	a3,sp,264
8000379e:	0000                	unimp
800037a0:	0000014f          	fnmadd.s	ft2,ft0,ft0,ft0,rne
800037a4:	000000bb          	0xbb
800037a8:	000000bb          	0xbb
800037ac:	02ed                	addi	t0,t0,27
800037ae:	0000                	unimp
800037b0:	02ed                	addi	t0,t0,27
800037b2:	0000                	unimp
800037b4:	016d                	addi	sp,sp,27
800037b6:	0000                	unimp
800037b8:	016d                	addi	sp,sp,27
800037ba:	0000                	unimp
800037bc:	015e                	slli	sp,sp,0x17
800037be:	0000                	unimp
800037c0:	0084                	addi	s1,sp,64
800037c2:	0000                	unimp
800037c4:	0084                	addi	s1,sp,64
800037c6:	0000                	unimp
800037c8:	0099                	addi	ra,ra,6
800037ca:	0000                	unimp
800037cc:	0248                	addi	a0,sp,260
800037ce:	0000                	unimp
800037d0:	00d8                	addi	a4,sp,68
800037d2:	0000                	unimp
800037d4:	0248                	addi	a0,sp,260
800037d6:	0000                	unimp
800037d8:	00d8                	addi	a4,sp,68
800037da:	0000                	unimp
800037dc:	026d                	addi	tp,tp,27
800037de:	0000                	unimp
800037e0:	00d2                	slli	ra,ra,0x14
800037e2:	0000                	unimp
800037e4:	00d2                	slli	ra,ra,0x14
800037e6:	0000                	unimp
800037e8:	00d2                	slli	ra,ra,0x14
800037ea:	0000                	unimp
800037ec:	023c                	addi	a5,sp,264
800037ee:	0000                	unimp
800037f0:	023c                	addi	a5,sp,264
800037f2:	0000                	unimp
800037f4:	037a                	slli	t1,t1,0x1e
800037f6:	0000                	unimp
800037f8:	0251                	addi	tp,tp,20
800037fa:	0000                	unimp
800037fc:	0251                	addi	tp,tp,20
800037fe:	0000                	unimp
80003800:	0251                	addi	tp,tp,20
80003802:	0000                	unimp
80003804:	02b6                	slli	t0,t0,0xd
80003806:	0000                	unimp
80003808:	02b6                	slli	t0,t0,0xd
8000380a:	0000                	unimp
8000380c:	02b6                	slli	t0,t0,0xd
8000380e:	0000                	unimp
80003810:	00e4                	addi	s1,sp,76
80003812:	0000                	unimp
80003814:	006e                	c.slli	zero,0x1b
80003816:	0000                	unimp
80003818:	006e                	c.slli	zero,0x1b
8000381a:	0000                	unimp
8000381c:	0074                	addi	a3,sp,12
8000381e:	0000                	unimp
80003820:	02ee                	slli	t0,t0,0x1b
80003822:	0000                	unimp
80003824:	0128                	addi	a0,sp,136
80003826:	0000                	unimp
80003828:	0286                	slli	t0,t0,0x1
8000382a:	0000                	unimp
8000382c:	01aa                	slli	gp,gp,0xa
8000382e:	0000                	unimp
80003830:	01f4                	addi	a3,sp,204
80003832:	0000                	unimp
80003834:	01aa                	slli	gp,gp,0xa
80003836:	0000                	unimp
80003838:	01b4                	addi	a3,sp,200
8000383a:	0000                	unimp
8000383c:	01b4                	addi	a3,sp,200
8000383e:	0000                	unimp
80003840:	00000293          	li	t0,0
80003844:	02bd                	addi	t0,t0,15
80003846:	0000                	unimp
80003848:	0306                	slli	t1,t1,0x1
8000384a:	0000                	unimp
8000384c:	0306                	slli	t1,t1,0x1
8000384e:	0000                	unimp
80003850:	032c                	addi	a1,sp,392
80003852:	0000                	unimp
80003854:	02a6                	slli	t0,t0,0x9
80003856:	0000                	unimp
80003858:	02a6                	slli	t0,t0,0x9
8000385a:	0000                	unimp
8000385c:	02a6                	slli	t0,t0,0x9
8000385e:	0000                	unimp
80003860:	02b8                	addi	a4,sp,328
80003862:	0000                	unimp
80003864:	02b8                	addi	a4,sp,328
80003866:	0000                	unimp
80003868:	0234                	addi	a3,sp,264
8000386a:	0000                	unimp
8000386c:	01da                	slli	gp,gp,0x16
8000386e:	0000                	unimp
80003870:	01da                	slli	gp,gp,0x16
80003872:	0000                	unimp
80003874:	01da                	slli	gp,gp,0x16
80003876:	0000                	unimp
80003878:	0110                	addi	a2,sp,128
8000387a:	0000                	unimp
8000387c:	0000021b          	0x21b
80003880:	0000021b          	0x21b
80003884:	0239                	addi	tp,tp,14
80003886:	0000                	unimp
80003888:	0239                	addi	tp,tp,14
8000388a:	0000                	unimp
8000388c:	01fd                	addi	gp,gp,31
8000388e:	0000                	unimp
80003890:	000000cb          	fnmsub.s	ft1,ft0,ft0,ft0,rne
80003894:	000000cb          	fnmsub.s	ft1,ft0,ft0,ft0,rne
80003898:	0118                	addi	a4,sp,128
8000389a:	0000                	unimp
8000389c:	000002bf 000002bf 	0x2bf000002bf
800038a4:	029d                	addi	t0,t0,7
800038a6:	0000                	unimp
800038a8:	025e                	slli	tp,tp,0x17
800038aa:	0000                	unimp
800038ac:	01ff                	0x1ff
800038ae:	0000                	unimp
800038b0:	01ff                	0x1ff
800038b2:	0000                	unimp
800038b4:	00000227          	0x227
800038b8:	0291                	addi	t0,t0,4
800038ba:	0000                	unimp
800038bc:	0291                	addi	t0,t0,4
800038be:	0000                	unimp
800038c0:	0250                	addi	a2,sp,260
800038c2:	0000                	unimp
800038c4:	000000c3          	fmadd.s	ft1,ft0,ft0,ft0,rne
800038c8:	0239                	addi	tp,tp,14
800038ca:	0000                	unimp
800038cc:	0000010b          	0x10b
800038d0:	0239                	addi	tp,tp,14
800038d2:	0000                	unimp
800038d4:	0000010b          	0x10b
800038d8:	0320                	addi	s0,sp,392
800038da:	0000                	unimp
800038dc:	0151                	addi	sp,sp,20
800038de:	0000                	unimp
800038e0:	0248                	addi	a0,sp,260
800038e2:	0000                	unimp
800038e4:	0248                	addi	a0,sp,260
800038e6:	0000                	unimp
800038e8:	00000283          	lb	t0,0(zero) # 0 <buf.2940>
800038ec:	0386                	slli	t2,t2,0x1
800038ee:	0000                	unimp
800038f0:	00000283          	lb	t0,0(zero) # 0 <buf.2940>
800038f4:	0170                	addi	a2,sp,140
800038f6:	0000                	unimp
800038f8:	0170                	addi	a2,sp,140
800038fa:	0000                	unimp
800038fc:	01e9                	addi	gp,gp,26
800038fe:	0000                	unimp
80003900:	01e9                	addi	gp,gp,26
80003902:	0000                	unimp
80003904:	033a                	slli	t1,t1,0xe
80003906:	0000                	unimp
80003908:	0148                	addi	a0,sp,132
8000390a:	0000                	unimp
8000390c:	033a                	slli	t1,t1,0xe
8000390e:	0000                	unimp
80003910:	0250                	addi	a2,sp,260
80003912:	0000                	unimp
80003914:	03a5                	addi	t2,t2,9
80003916:	0000                	unimp
80003918:	0250                	addi	a2,sp,260
8000391a:	0000                	unimp
8000391c:	0184                	addi	s1,sp,192
8000391e:	0000                	unimp
80003920:	0184                	addi	s1,sp,192
80003922:	0000                	unimp
80003924:	021f 0000 0289      	0x2890000021f
8000392a:	0000                	unimp
8000392c:	0289                	addi	t0,t0,2
8000392e:	0000                	unimp
80003930:	0289                	addi	t0,t0,2
80003932:	0000                	unimp
80003934:	0236                	slli	tp,tp,0xd
80003936:	0000                	unimp
80003938:	000003d3          	fadd.s	ft7,ft0,ft0,rne
8000393c:	0289                	addi	t0,t0,2
8000393e:	0000                	unimp
80003940:	032e                	slli	t1,t1,0xb
80003942:	0000                	unimp
80003944:	0291                	addi	t0,t0,4
80003946:	0000                	unimp
80003948:	0291                	addi	t0,t0,4
8000394a:	0000                	unimp
8000394c:	00b5                	addi	ra,ra,13
8000394e:	0000                	unimp
80003950:	00b5                	addi	ra,ra,13
80003952:	0000                	unimp
80003954:	00b5                	addi	ra,ra,13
80003956:	0000                	unimp
80003958:	00d0                	addi	a2,sp,68
8000395a:	0000                	unimp
8000395c:	0000035b          	0x35b
80003960:	0000035b          	0x35b
80003964:	0275                	addi	tp,tp,29
80003966:	0000                	unimp
80003968:	0275                	addi	tp,tp,29
8000396a:	0000                	unimp
8000396c:	0120                	addi	s0,sp,136
8000396e:	0000                	unimp
80003970:	02c0                	addi	s0,sp,324
80003972:	0000                	unimp
80003974:	015d                	addi	sp,sp,23
80003976:	0000                	unimp
80003978:	02c0                	addi	s0,sp,324
8000397a:	0000                	unimp
8000397c:	015d                	addi	sp,sp,23
8000397e:	0000                	unimp
80003980:	00fd                	addi	ra,ra,31
80003982:	0000                	unimp
80003984:	00fd                	addi	ra,ra,31
80003986:	0000                	unimp
80003988:	000002cb          	fnmsub.s	ft5,ft0,ft0,ft0,rne
8000398c:	0376                	slli	t1,t1,0x1d
8000398e:	0000                	unimp
80003990:	000002cb          	fnmsub.s	ft5,ft0,ft0,ft0,rne
80003994:	01ae                	slli	gp,gp,0xb
80003996:	0000                	unimp
80003998:	019f 0000 019f      	0x19f0000019f
8000399e:	0000                	unimp
800039a0:	021a                	slli	tp,tp,0x6
800039a2:	0000                	unimp
800039a4:	0240                	addi	s0,sp,260
800039a6:	0000                	unimp
800039a8:	02bc                	addi	a5,sp,328
800039aa:	0000                	unimp
800039ac:	02f9                	addi	t0,t0,30
800039ae:	0000                	unimp
800039b0:	02bc                	addi	a5,sp,328
800039b2:	0000                	unimp
800039b4:	00f1                	addi	ra,ra,28
800039b6:	0000                	unimp
800039b8:	00f1                	addi	ra,ra,28
800039ba:	0000                	unimp
800039bc:	01de                	slli	gp,gp,0x17
800039be:	0000                	unimp
800039c0:	01de                	slli	gp,gp,0x17
800039c2:	0000                	unimp
800039c4:	01de                	slli	gp,gp,0x17
800039c6:	0000                	unimp
800039c8:	000001f3          	0x1f3
800039cc:	000001f3          	0x1f3
800039d0:	02b5                	addi	t0,t0,13
800039d2:	0000                	unimp
800039d4:	00000193          	li	gp,0
800039d8:	01a0                	addi	s0,sp,200
800039da:	0000                	unimp
800039dc:	01a0                	addi	s0,sp,200
800039de:	0000                	unimp
800039e0:	01a0                	addi	s0,sp,200
800039e2:	0000                	unimp
800039e4:	01bc                	addi	a5,sp,200
800039e6:	0000                	unimp
800039e8:	0128                	addi	a0,sp,136
800039ea:	0000                	unimp
800039ec:	02a4                	addi	s1,sp,328
800039ee:	0000                	unimp
800039f0:	026c                	addi	a1,sp,268
800039f2:	0000                	unimp
800039f4:	026c                	addi	a1,sp,268
800039f6:	0000                	unimp
800039f8:	013d                	addi	sp,sp,15
800039fa:	0000                	unimp
800039fc:	00e0                	addi	s0,sp,76
800039fe:	0000                	unimp
80003a00:	00e0                	addi	s0,sp,76
80003a02:	0000                	unimp
80003a04:	015f 0000 021c      	0x21c0000015f
80003a0a:	0000                	unimp
80003a0c:	021c                	addi	a5,sp,256
80003a0e:	0000                	unimp
80003a10:	021c                	addi	a5,sp,256
80003a12:	0000                	unimp
80003a14:	0120                	addi	s0,sp,136
80003a16:	0000                	unimp
80003a18:	00a9                	addi	ra,ra,10
80003a1a:	0000                	unimp
80003a1c:	00a9                	addi	ra,ra,10
80003a1e:	0000                	unimp
80003a20:	0000020f          	0x20f
80003a24:	025e                	slli	tp,tp,0x17
80003a26:	0000                	unimp
80003a28:	0000020f          	0x20f
80003a2c:	0185                	addi	gp,gp,1
80003a2e:	0000                	unimp
80003a30:	0185                	addi	gp,gp,1
80003a32:	0000                	unimp
80003a34:	0185                	addi	gp,gp,1
80003a36:	0000                	unimp
80003a38:	031c                	addi	a5,sp,384
80003a3a:	0000                	unimp
80003a3c:	000001c7          	fmsub.s	ft3,ft0,ft0,ft0,rne
80003a40:	02d0                	addi	a2,sp,324
80003a42:	0000                	unimp
80003a44:	000001c7          	fmsub.s	ft3,ft0,ft0,ft0,rne
80003a48:	02d0                	addi	a2,sp,324
80003a4a:	0000                	unimp
80003a4c:	0000016f          	jal	sp,80003a4c <verify_data+0x2bc>
80003a50:	02e9                	addi	t0,t0,26
80003a52:	0000                	unimp
80003a54:	0000016f          	jal	sp,80003a54 <verify_data+0x2c4>
80003a58:	0166                	slli	sp,sp,0x19
80003a5a:	0000                	unimp
80003a5c:	0166                	slli	sp,sp,0x19
80003a5e:	0000                	unimp
80003a60:	0248                	addi	a0,sp,260
80003a62:	0000                	unimp
80003a64:	0248                	addi	a0,sp,260
80003a66:	0000                	unimp
80003a68:	0000010f          	0x10f
80003a6c:	0000010f          	0x10f
80003a70:	0355                	addi	t1,t1,21
80003a72:	0000                	unimp
80003a74:	0355                	addi	t1,t1,21
80003a76:	0000                	unimp
80003a78:	0314                	addi	a3,sp,384
80003a7a:	0000                	unimp
80003a7c:	00000193          	li	gp,0
80003a80:	00000213          	li	tp,0
80003a84:	0205                	addi	tp,tp,1
80003a86:	0000                	unimp
80003a88:	0205                	addi	tp,tp,1
80003a8a:	0000                	unimp
80003a8c:	0205                	addi	tp,tp,1
80003a8e:	0000                	unimp
80003a90:	01cd                	addi	gp,gp,19
80003a92:	0000                	unimp
80003a94:	0000022f          	0x22f
80003a98:	01cd                	addi	gp,gp,19
80003a9a:	0000                	unimp
80003a9c:	00000307          	0x307
80003aa0:	0166                	slli	sp,sp,0x19
80003aa2:	0000                	unimp
80003aa4:	0166                	slli	sp,sp,0x19
80003aa6:	0000                	unimp
80003aa8:	014c                	addi	a1,sp,132
80003aaa:	0000                	unimp
80003aac:	014c                	addi	a1,sp,132
80003aae:	0000                	unimp
80003ab0:	02ac                	addi	a1,sp,328
80003ab2:	0000                	unimp
80003ab4:	02ac                	addi	a1,sp,328
80003ab6:	0000                	unimp
80003ab8:	02ac                	addi	a1,sp,328
80003aba:	0000                	unimp
80003abc:	0256                	slli	tp,tp,0x15
80003abe:	0000                	unimp
80003ac0:	01be                	slli	gp,gp,0xf
80003ac2:	0000                	unimp
80003ac4:	0000008f          	0x8f
80003ac8:	00000137          	lui	sp,0x0
80003acc:	007d                	c.nop	31
80003ace:	0000                	unimp
80003ad0:	00000137          	lui	sp,0x0
80003ad4:	000002e7          	jalr	t0,zero # 0 <buf.2940>
80003ad8:	000002e7          	jalr	t0,zero # 0 <buf.2940>
80003adc:	03a5                	addi	t2,t2,9
80003ade:	0000                	unimp
80003ae0:	022d                	addi	tp,tp,11
80003ae2:	0000                	unimp
80003ae4:	031f 0000 022d      	0x22d0000031f
80003aea:	0000                	unimp
80003aec:	022d                	addi	tp,tp,11
80003aee:	0000                	unimp
80003af0:	022d                	addi	tp,tp,11
80003af2:	0000                	unimp
80003af4:	0229                	addi	tp,tp,10
80003af6:	0000                	unimp
80003af8:	031c                	addi	a5,sp,384
80003afa:	0000                	unimp
80003afc:	0288                	addi	a0,sp,320
80003afe:	0000                	unimp
80003b00:	0288                	addi	a0,sp,320
80003b02:	0000                	unimp
80003b04:	0288                	addi	a0,sp,320
80003b06:	0000                	unimp
80003b08:	0000037b          	0x37b
80003b0c:	0000037b          	0x37b
80003b10:	029a                	slli	t0,t0,0x6
80003b12:	0000                	unimp
80003b14:	011f 0000 0202      	0x2020000011f
80003b1a:	0000                	unimp
80003b1c:	0031                	c.nop	12
80003b1e:	0000                	unimp
80003b20:	0202                	c.slli64	tp
80003b22:	0000                	unimp
80003b24:	0056                	c.slli	zero,0x15
80003b26:	0000                	unimp
80003b28:	022d                	addi	tp,tp,11
80003b2a:	0000                	unimp
80003b2c:	005f 0000 0355      	0x3550000005f
80003b32:	0000                	unimp
80003b34:	01b9                	addi	gp,gp,14
80003b36:	0000                	unimp
80003b38:	01b9                	addi	gp,gp,14
80003b3a:	0000                	unimp
80003b3c:	01b9                	addi	gp,gp,14
80003b3e:	0000                	unimp
80003b40:	01b8                	addi	a4,sp,200
80003b42:	0000                	unimp
80003b44:	0000024b          	fnmsub.s	ft4,ft0,ft0,ft0,rne
80003b48:	0266                	slli	tp,tp,0x19
80003b4a:	0000                	unimp
80003b4c:	0266                	slli	tp,tp,0x19
80003b4e:	0000                	unimp
80003b50:	018c                	addi	a1,sp,192
80003b52:	0000                	unimp
80003b54:	017e                	slli	sp,sp,0x1f
80003b56:	0000                	unimp
80003b58:	0118                	addi	a4,sp,128
80003b5a:	0000                	unimp
80003b5c:	0118                	addi	a4,sp,128
80003b5e:	0000                	unimp
80003b60:	0011                	c.nop	4
80003b62:	0000                	unimp
80003b64:	0328                	addi	a0,sp,392
80003b66:	0000                	unimp
80003b68:	00aa                	slli	ra,ra,0xa
80003b6a:	0000                	unimp
80003b6c:	00000333          	add	t1,zero,zero
80003b70:	00000123          	sb	zero,2(zero) # 2 <buf.2940+0x2>
80003b74:	0158                	addi	a4,sp,132
80003b76:	0000                	unimp
80003b78:	0158                	addi	a4,sp,132
80003b7a:	0000                	unimp
80003b7c:	017c                	addi	a5,sp,140
80003b7e:	0000                	unimp
80003b80:	01c2                	slli	gp,gp,0x10
80003b82:	0000                	unimp
80003b84:	0200                	addi	s0,sp,256
80003b86:	0000                	unimp
80003b88:	0200                	addi	s0,sp,256
80003b8a:	0000                	unimp
80003b8c:	0200                	addi	s0,sp,256
80003b8e:	0000                	unimp
80003b90:	0395                	addi	t2,t2,5
80003b92:	0000                	unimp
80003b94:	0395                	addi	t2,t2,5
80003b96:	0000                	unimp
80003b98:	0000021b          	0x21b
80003b9c:	0000021b          	0x21b
80003ba0:	0328                	addi	a0,sp,392
80003ba2:	0000                	unimp
80003ba4:	0372                	slli	t1,t1,0x1c
80003ba6:	0000                	unimp
80003ba8:	00000377          	0x377
80003bac:	0372                	slli	t1,t1,0x1c
80003bae:	0000                	unimp
80003bb0:	0219                	addi	tp,tp,6
80003bb2:	0000                	unimp
80003bb4:	0219                	addi	tp,tp,6
80003bb6:	0000                	unimp
80003bb8:	0264                	addi	s1,sp,268
80003bba:	0000                	unimp
80003bbc:	02bd                	addi	t0,t0,15
80003bbe:	0000                	unimp
80003bc0:	02bd                	addi	t0,t0,15
80003bc2:	0000                	unimp
80003bc4:	02bd                	addi	t0,t0,15
80003bc6:	0000                	unimp
80003bc8:	01df 0000 01df      	0x1df000001df
80003bce:	0000                	unimp
80003bd0:	01df 0000 0237      	0x237000001df
80003bd6:	0000                	unimp
80003bd8:	00000097          	auipc	ra,0x0
80003bdc:	0016                	c.slli	zero,0x5
80003bde:	0000                	unimp
80003be0:	0016                	c.slli	zero,0x5
80003be2:	0000                	unimp
80003be4:	0238                	addi	a4,sp,264
80003be6:	0000                	unimp
80003be8:	0238                	addi	a4,sp,264
80003bea:	0000                	unimp
80003bec:	0238                	addi	a4,sp,264
80003bee:	0000                	unimp
80003bf0:	0299                	addi	t0,t0,6
80003bf2:	0000                	unimp
80003bf4:	0299                	addi	t0,t0,6
80003bf6:	0000                	unimp
80003bf8:	000001a7          	0x1a7
80003bfc:	000001a7          	0x1a7
80003c00:	01b2                	slli	gp,gp,0xc
80003c02:	0000                	unimp
80003c04:	01b2                	slli	gp,gp,0xc
80003c06:	0000                	unimp
80003c08:	0118                	addi	a4,sp,128
80003c0a:	0000                	unimp
80003c0c:	009e                	slli	ra,ra,0x7
80003c0e:	0000                	unimp
80003c10:	0118                	addi	a4,sp,128
80003c12:	0000                	unimp
80003c14:	0054                	addi	a3,sp,4
80003c16:	0000                	unimp
80003c18:	0000018b          	0x18b
80003c1c:	000000f7          	0xf7
80003c20:	02b0                	addi	a2,sp,328
80003c22:	0000                	unimp
80003c24:	000000f7          	0xf7
80003c28:	01dc                	addi	a5,sp,196
80003c2a:	0000                	unimp
80003c2c:	000001b3          	add	gp,zero,zero
80003c30:	01dc                	addi	a5,sp,196
80003c32:	0000                	unimp
80003c34:	0318                	addi	a4,sp,384
80003c36:	0000                	unimp
80003c38:	0318                	addi	a4,sp,384
80003c3a:	0000                	unimp
80003c3c:	0318                	addi	a4,sp,384
80003c3e:	0000                	unimp
80003c40:	02d9                	addi	t0,t0,22
80003c42:	0000                	unimp
80003c44:	01e6                	slli	gp,gp,0x19
80003c46:	0000                	unimp
80003c48:	0109                	addi	sp,sp,2
80003c4a:	0000                	unimp
80003c4c:	019e                	slli	gp,gp,0x7
80003c4e:	0000                	unimp
80003c50:	00ec                	addi	a1,sp,76
80003c52:	0000                	unimp
80003c54:	0171                	addi	sp,sp,28
80003c56:	0000                	unimp
80003c58:	00ec                	addi	a1,sp,76
80003c5a:	0000                	unimp
80003c5c:	0171                	addi	sp,sp,28
80003c5e:	0000                	unimp
80003c60:	00d6                	slli	ra,ra,0x15
80003c62:	0000                	unimp
80003c64:	0206                	slli	tp,tp,0x1
80003c66:	0000                	unimp
80003c68:	00b4                	addi	a3,sp,72
80003c6a:	0000                	unimp
80003c6c:	0206                	slli	tp,tp,0x1
80003c6e:	0000                	unimp
80003c70:	000001f7          	0x1f7
80003c74:	02aa                	slli	t0,t0,0xa
80003c76:	0000                	unimp
80003c78:	0254                	addi	a3,sp,260
80003c7a:	0000                	unimp
80003c7c:	0254                	addi	a3,sp,260
80003c7e:	0000                	unimp
80003c80:	011c                	addi	a5,sp,128
80003c82:	0000                	unimp
80003c84:	0108                	addi	a0,sp,128
80003c86:	0000                	unimp
80003c88:	0108                	addi	a0,sp,128
80003c8a:	0000                	unimp
80003c8c:	000001f3          	0x1f3
80003c90:	000001f3          	0x1f3
80003c94:	015a                	slli	sp,sp,0x16
80003c96:	0000                	unimp
80003c98:	015a                	slli	sp,sp,0x16
80003c9a:	0000                	unimp
80003c9c:	00000257          	0x257
80003ca0:	00000257          	0x257
80003ca4:	000000d7          	0xd7
80003ca8:	000000d7          	0xd7
80003cac:	000002db          	0x2db
80003cb0:	000002db          	0x2db
80003cb4:	02b0                	addi	a2,sp,328
80003cb6:	0000                	unimp
80003cb8:	0292                	slli	t0,t0,0x4
80003cba:	0000                	unimp
80003cbc:	0000026b          	0x26b
80003cc0:	000000fb          	0xfb
80003cc4:	000000fb          	0xfb
80003cc8:	00000083          	lb	ra,0(zero) # 0 <buf.2940>
80003ccc:	0000022b          	0x22b
80003cd0:	0000022b          	0x22b
80003cd4:	0000022b          	0x22b
80003cd8:	0000029b          	0x29b
80003cdc:	0210                	addi	a2,sp,256
80003cde:	0000                	unimp
80003ce0:	0210                	addi	a2,sp,256
80003ce2:	0000                	unimp
80003ce4:	0210                	addi	a2,sp,256
80003ce6:	0000                	unimp
80003ce8:	000001e7          	jalr	gp,zero # 0 <buf.2940>
80003cec:	000001e7          	jalr	gp,zero # 0 <buf.2940>
80003cf0:	000001e7          	jalr	gp,zero # 0 <buf.2940>
80003cf4:	02f1                	addi	t0,t0,28
80003cf6:	0000                	unimp
80003cf8:	02f1                	addi	t0,t0,28
80003cfa:	0000                	unimp
80003cfc:	011f 0000 011f      	0x11f0000011f
80003d02:	0000                	unimp
80003d04:	0272                	slli	tp,tp,0x1c
80003d06:	0000                	unimp
80003d08:	0272                	slli	tp,tp,0x1c
80003d0a:	0000                	unimp
80003d0c:	0130                	addi	a2,sp,136
80003d0e:	0000                	unimp
80003d10:	000e                	c.slli	zero,0x3
80003d12:	0000                	unimp
80003d14:	0130                	addi	a2,sp,136
80003d16:	0000                	unimp
80003d18:	00000193          	li	gp,0
80003d1c:	02dd                	addi	t0,t0,23
80003d1e:	0000                	unimp
80003d20:	00000193          	li	gp,0
80003d24:	02dd                	addi	t0,t0,23
80003d26:	0000                	unimp
80003d28:	000002bf 000002bf 	0x2bf000002bf
80003d30:	000002bf 000002d2 	0x2d2000002bf
80003d38:	0332                	slli	t1,t1,0xc
80003d3a:	0000                	unimp
80003d3c:	02d2                	slli	t0,t0,0x14
80003d3e:	0000                	unimp
80003d40:	0196                	slli	gp,gp,0x5
80003d42:	0000                	unimp
80003d44:	0196                	slli	gp,gp,0x5
80003d46:	0000                	unimp
80003d48:	036a                	slli	t1,t1,0x1a
80003d4a:	0000                	unimp
80003d4c:	036a                	slli	t1,t1,0x1a
80003d4e:	0000                	unimp
80003d50:	0358                	addi	a4,sp,388
80003d52:	0000                	unimp
80003d54:	02ec                	addi	a1,sp,332
80003d56:	0000                	unimp
80003d58:	02ec                	addi	a1,sp,332
80003d5a:	0000                	unimp
80003d5c:	0000005b          	0x5b
80003d60:	0056                	c.slli	zero,0x15
80003d62:	0000                	unimp
80003d64:	0000005b          	0x5b
80003d68:	017a                	slli	sp,sp,0x1e
80003d6a:	0000                	unimp
80003d6c:	017a                	slli	sp,sp,0x1e
80003d6e:	0000                	unimp
80003d70:	0294                	addi	a3,sp,320
80003d72:	0000                	unimp
80003d74:	0069                	c.nop	26
80003d76:	0000                	unimp
80003d78:	0099                	addi	ra,ra,6
80003d7a:	0000                	unimp
80003d7c:	0099                	addi	ra,ra,6
80003d7e:	0000                	unimp
80003d80:	0099                	addi	ra,ra,6
80003d82:	0000                	unimp
80003d84:	017d                	addi	sp,sp,31
80003d86:	0000                	unimp
80003d88:	0079                	c.nop	30
80003d8a:	0000                	unimp
80003d8c:	0000028b          	0x28b
80003d90:	019c                	addi	a5,sp,192
80003d92:	0000                	unimp
80003d94:	0339                	addi	t1,t1,14
80003d96:	0000                	unimp
80003d98:	019c                	addi	a5,sp,192
80003d9a:	0000                	unimp
80003d9c:	0164                	addi	s1,sp,140
80003d9e:	0000                	unimp
80003da0:	00ec                	addi	a1,sp,76
80003da2:	0000                	unimp
80003da4:	0094                	addi	a3,sp,64
80003da6:	0000                	unimp
80003da8:	0094                	addi	a3,sp,64
80003daa:	0000                	unimp
80003dac:	0094                	addi	a3,sp,64
80003dae:	0000                	unimp
80003db0:	000001a7          	0x1a7
80003db4:	008c                	addi	a1,sp,64
80003db6:	0000                	unimp
80003db8:	00d8                	addi	a4,sp,68
80003dba:	0000                	unimp
80003dbc:	00d8                	addi	a4,sp,68
80003dbe:	0000                	unimp
80003dc0:	026d                	addi	tp,tp,27
80003dc2:	0000                	unimp
80003dc4:	026d                	addi	tp,tp,27
80003dc6:	0000                	unimp
80003dc8:	0169                	addi	sp,sp,26
80003dca:	0000                	unimp
80003dcc:	0000                	unimp
80003dce:	0000                	unimp
