
multiply.riscv:     file format elf32-littleriscv


Disassembly of section .text.init:

80000000 <_start>:
80000000:	00000093          	li	ra,0
80000004:	00000113          	li	sp,0
80000008:	00000193          	li	gp,0
8000000c:	00000213          	li	tp,0
80000010:	00000293          	li	t0,0
80000014:	00000313          	li	t1,0
80000018:	00000393          	li	t2,0
8000001c:	00000413          	li	s0,0
80000020:	00000493          	li	s1,0
80000024:	00000513          	li	a0,0
80000028:	00000593          	li	a1,0
8000002c:	00000613          	li	a2,0
80000030:	00000693          	li	a3,0
80000034:	00000713          	li	a4,0
80000038:	00000793          	li	a5,0
8000003c:	00000813          	li	a6,0
80000040:	00000893          	li	a7,0
80000044:	00000913          	li	s2,0
80000048:	00000993          	li	s3,0
8000004c:	00000a13          	li	s4,0
80000050:	00000a93          	li	s5,0
80000054:	00000b13          	li	s6,0
80000058:	00000b93          	li	s7,0
8000005c:	00000c13          	li	s8,0
80000060:	00000c93          	li	s9,0
80000064:	00000d13          	li	s10,0
80000068:	00000d93          	li	s11,0
8000006c:	00000e13          	li	t3,0
80000070:	00000e93          	li	t4,0
80000074:	00000f13          	li	t5,0
80000078:	00000f93          	li	t6,0
8000007c:	0001e2b7          	lui	t0,0x1e
80000080:	3002a073          	csrs	mstatus,t0
80000084:	00100293          	li	t0,1
80000088:	01f29293          	slli	t0,t0,0x1f
8000008c:	0002ca63          	bltz	t0,800000a0 <_start+0xa0>
80000090:	00100513          	li	a0,1
80000094:	00001297          	auipc	t0,0x1
80000098:	f6a2a623          	sw	a0,-148(t0) # 80001000 <tohost>
8000009c:	ff5ff06f          	j	80000090 <_start+0x90>
800000a0:	00000297          	auipc	t0,0x0
800000a4:	04028293          	addi	t0,t0,64 # 800000e0 <trap_entry>
800000a8:	30529073          	csrw	mtvec,t0
800000ac:	00004197          	auipc	gp,0x4
800000b0:	d8818193          	addi	gp,gp,-632 # 80003e34 <__global_pointer$>
800000b4:	88b18213          	addi	tp,gp,-1909 # 800036bf <_end+0x3f>
800000b8:	fc027213          	andi	tp,tp,-64
800000bc:	f1402573          	csrr	a0,mhartid
800000c0:	00100593          	li	a1,1
800000c4:	00b57063          	bgeu	a0,a1,800000c4 <_start+0xc4>
800000c8:	01151613          	slli	a2,a0,0x11
800000cc:	00c20233          	add	tp,tp,a2
800000d0:	00150113          	addi	sp,a0,1
800000d4:	01111113          	slli	sp,sp,0x11
800000d8:	00410133          	add	sp,sp,tp
800000dc:	0910106f          	j	8000196c <_init>

800000e0 <trap_entry>:
800000e0:	ef010113          	addi	sp,sp,-272
800000e4:	00112223          	sw	ra,4(sp)
800000e8:	00212423          	sw	sp,8(sp)
800000ec:	00312623          	sw	gp,12(sp)
800000f0:	00412823          	sw	tp,16(sp)
800000f4:	00512a23          	sw	t0,20(sp)
800000f8:	00612c23          	sw	t1,24(sp)
800000fc:	00712e23          	sw	t2,28(sp)
80000100:	02812023          	sw	s0,32(sp)
80000104:	02912223          	sw	s1,36(sp)
80000108:	02a12423          	sw	a0,40(sp)
8000010c:	02b12623          	sw	a1,44(sp)
80000110:	02c12823          	sw	a2,48(sp)
80000114:	02d12a23          	sw	a3,52(sp)
80000118:	02e12c23          	sw	a4,56(sp)
8000011c:	02f12e23          	sw	a5,60(sp)
80000120:	05012023          	sw	a6,64(sp)
80000124:	05112223          	sw	a7,68(sp)
80000128:	05212423          	sw	s2,72(sp)
8000012c:	05312623          	sw	s3,76(sp)
80000130:	05412823          	sw	s4,80(sp)
80000134:	05512a23          	sw	s5,84(sp)
80000138:	05612c23          	sw	s6,88(sp)
8000013c:	05712e23          	sw	s7,92(sp)
80000140:	07812023          	sw	s8,96(sp)
80000144:	07912223          	sw	s9,100(sp)
80000148:	07a12423          	sw	s10,104(sp)
8000014c:	07b12623          	sw	s11,108(sp)
80000150:	07c12823          	sw	t3,112(sp)
80000154:	07d12a23          	sw	t4,116(sp)
80000158:	07e12c23          	sw	t5,120(sp)
8000015c:	07f12e23          	sw	t6,124(sp)
80000160:	34202573          	csrr	a0,mcause
80000164:	341025f3          	csrr	a1,mepc
80000168:	00010613          	mv	a2,sp
8000016c:	590010ef          	jal	ra,800016fc <handle_trap>
80000170:	34151073          	csrw	mepc,a0
80000174:	000022b7          	lui	t0,0x2
80000178:	80028293          	addi	t0,t0,-2048 # 1800 <buflen.2941+0x17c0>
8000017c:	3002a073          	csrs	mstatus,t0
80000180:	00412083          	lw	ra,4(sp)
80000184:	00812103          	lw	sp,8(sp)
80000188:	00c12183          	lw	gp,12(sp)
8000018c:	01012203          	lw	tp,16(sp)
80000190:	01412283          	lw	t0,20(sp)
80000194:	01812303          	lw	t1,24(sp)
80000198:	01c12383          	lw	t2,28(sp)
8000019c:	02012403          	lw	s0,32(sp)
800001a0:	02412483          	lw	s1,36(sp)
800001a4:	02812503          	lw	a0,40(sp)
800001a8:	02c12583          	lw	a1,44(sp)
800001ac:	03012603          	lw	a2,48(sp)
800001b0:	03412683          	lw	a3,52(sp)
800001b4:	03812703          	lw	a4,56(sp)
800001b8:	03c12783          	lw	a5,60(sp)
800001bc:	04012803          	lw	a6,64(sp)
800001c0:	04412883          	lw	a7,68(sp)
800001c4:	04812903          	lw	s2,72(sp)
800001c8:	04c12983          	lw	s3,76(sp)
800001cc:	05012a03          	lw	s4,80(sp)
800001d0:	05412a83          	lw	s5,84(sp)
800001d4:	05812b03          	lw	s6,88(sp)
800001d8:	05c12b83          	lw	s7,92(sp)
800001dc:	06012c03          	lw	s8,96(sp)
800001e0:	06412c83          	lw	s9,100(sp)
800001e4:	06812d03          	lw	s10,104(sp)
800001e8:	06c12d83          	lw	s11,108(sp)
800001ec:	07012e03          	lw	t3,112(sp)
800001f0:	07412e83          	lw	t4,116(sp)
800001f4:	07812f03          	lw	t5,120(sp)
800001f8:	07c12f83          	lw	t6,124(sp)
800001fc:	11010113          	addi	sp,sp,272
80000200:	30200073          	mret

Disassembly of section .text:

80001048 <multiply>:
80001048:	00050713          	mv	a4,a0
8000104c:	02000693          	li	a3,32
80001050:	00000513          	li	a0,0
80001054:	00177793          	andi	a5,a4,1
80001058:	fff68693          	addi	a3,a3,-1
8000105c:	00078463          	beqz	a5,80001064 <multiply+0x1c>
80001060:	00b50533          	add	a0,a0,a1
80001064:	40175713          	srai	a4,a4,0x1
80001068:	00159593          	slli	a1,a1,0x1
8000106c:	fe0694e3          	bnez	a3,80001054 <multiply+0xc>
80001070:	00008067          	ret

80001074 <vprintfmt>:
80001074:	eb010113          	addi	sp,sp,-336
80001078:	13912223          	sw	s9,292(sp)
8000107c:	40000cb7          	lui	s9,0x40000
80001080:	fffc8793          	addi	a5,s9,-1 # 3fffffff <buflen.2941+0x3fffffbf>
80001084:	14812423          	sw	s0,328(sp)
80001088:	14912223          	sw	s1,324(sp)
8000108c:	15212023          	sw	s2,320(sp)
80001090:	13512a23          	sw	s5,308(sp)
80001094:	14112623          	sw	ra,332(sp)
80001098:	13312e23          	sw	s3,316(sp)
8000109c:	13412c23          	sw	s4,312(sp)
800010a0:	13612823          	sw	s6,304(sp)
800010a4:	13712623          	sw	s7,300(sp)
800010a8:	13812423          	sw	s8,296(sp)
800010ac:	13a12023          	sw	s10,288(sp)
800010b0:	11b12e23          	sw	s11,284(sp)
800010b4:	00050913          	mv	s2,a0
800010b8:	00058493          	mv	s1,a1
800010bc:	00060413          	mv	s0,a2
800010c0:	00d12423          	sw	a3,8(sp)
800010c4:	02500a93          	li	s5,37
800010c8:	00f12623          	sw	a5,12(sp)
800010cc:	0140006f          	j	800010e0 <vprintfmt+0x6c>
800010d0:	06050463          	beqz	a0,80001138 <vprintfmt+0xc4>
800010d4:	00048593          	mv	a1,s1
800010d8:	00140413          	addi	s0,s0,1
800010dc:	000900e7          	jalr	s2
800010e0:	00044503          	lbu	a0,0(s0)
800010e4:	ff5516e3          	bne	a0,s5,800010d0 <vprintfmt+0x5c>
800010e8:	00144683          	lbu	a3,1(s0)
800010ec:	00140d93          	addi	s11,s0,1
800010f0:	000d8713          	mv	a4,s11
800010f4:	02000b93          	li	s7,32
800010f8:	fff00993          	li	s3,-1
800010fc:	fff00a13          	li	s4,-1
80001100:	00000593          	li	a1,0
80001104:	05500613          	li	a2,85
80001108:	00900513          	li	a0,9
8000110c:	fdd68793          	addi	a5,a3,-35
80001110:	0ff7f793          	andi	a5,a5,255
80001114:	00170413          	addi	s0,a4,1
80001118:	06f66c63          	bltu	a2,a5,80001190 <vprintfmt+0x11c>
8000111c:	00002817          	auipc	a6,0x2
80001120:	d0c80813          	addi	a6,a6,-756 # 80002e28 <main+0x16c>
80001124:	00279793          	slli	a5,a5,0x2
80001128:	010787b3          	add	a5,a5,a6
8000112c:	0007a783          	lw	a5,0(a5)
80001130:	010787b3          	add	a5,a5,a6
80001134:	00078067          	jr	a5
80001138:	14c12083          	lw	ra,332(sp)
8000113c:	14812403          	lw	s0,328(sp)
80001140:	14412483          	lw	s1,324(sp)
80001144:	14012903          	lw	s2,320(sp)
80001148:	13c12983          	lw	s3,316(sp)
8000114c:	13812a03          	lw	s4,312(sp)
80001150:	13412a83          	lw	s5,308(sp)
80001154:	13012b03          	lw	s6,304(sp)
80001158:	12c12b83          	lw	s7,300(sp)
8000115c:	12812c03          	lw	s8,296(sp)
80001160:	12412c83          	lw	s9,292(sp)
80001164:	12012d03          	lw	s10,288(sp)
80001168:	11c12d83          	lw	s11,284(sp)
8000116c:	15010113          	addi	sp,sp,336
80001170:	00008067          	ret
80001174:	00068b93          	mv	s7,a3
80001178:	00174683          	lbu	a3,1(a4)
8000117c:	00040713          	mv	a4,s0
80001180:	00170413          	addi	s0,a4,1
80001184:	fdd68793          	addi	a5,a3,-35
80001188:	0ff7f793          	andi	a5,a5,255
8000118c:	f8f678e3          	bgeu	a2,a5,8000111c <vprintfmt+0xa8>
80001190:	00048593          	mv	a1,s1
80001194:	02500513          	li	a0,37
80001198:	000900e7          	jalr	s2
8000119c:	000d8413          	mv	s0,s11
800011a0:	f41ff06f          	j	800010e0 <vprintfmt+0x6c>
800011a4:	00174803          	lbu	a6,1(a4)
800011a8:	fd068993          	addi	s3,a3,-48
800011ac:	00040713          	mv	a4,s0
800011b0:	fd080793          	addi	a5,a6,-48
800011b4:	00080693          	mv	a3,a6
800011b8:	02f56663          	bltu	a0,a5,800011e4 <vprintfmt+0x170>
800011bc:	00299793          	slli	a5,s3,0x2
800011c0:	013789b3          	add	s3,a5,s3
800011c4:	00170713          	addi	a4,a4,1
800011c8:	00199993          	slli	s3,s3,0x1
800011cc:	010989b3          	add	s3,s3,a6
800011d0:	00074803          	lbu	a6,0(a4)
800011d4:	fd098993          	addi	s3,s3,-48
800011d8:	fd080793          	addi	a5,a6,-48
800011dc:	00080693          	mv	a3,a6
800011e0:	fcf57ee3          	bgeu	a0,a5,800011bc <vprintfmt+0x148>
800011e4:	f20a54e3          	bgez	s4,8000110c <vprintfmt+0x98>
800011e8:	00098a13          	mv	s4,s3
800011ec:	fff00993          	li	s3,-1
800011f0:	f1dff06f          	j	8000110c <vprintfmt+0x98>
800011f4:	00174683          	lbu	a3,1(a4)
800011f8:	00040713          	mv	a4,s0
800011fc:	f11ff06f          	j	8000110c <vprintfmt+0x98>
80001200:	00048593          	mv	a1,s1
80001204:	02500513          	li	a0,37
80001208:	000900e7          	jalr	s2
8000120c:	ed5ff06f          	j	800010e0 <vprintfmt+0x6c>
80001210:	00812783          	lw	a5,8(sp)
80001214:	00174683          	lbu	a3,1(a4)
80001218:	00040713          	mv	a4,s0
8000121c:	0007a983          	lw	s3,0(a5)
80001220:	00478793          	addi	a5,a5,4
80001224:	00f12423          	sw	a5,8(sp)
80001228:	fbdff06f          	j	800011e4 <vprintfmt+0x170>
8000122c:	03000513          	li	a0,48
80001230:	00048593          	mv	a1,s1
80001234:	000900e7          	jalr	s2
80001238:	00048593          	mv	a1,s1
8000123c:	07800513          	li	a0,120
80001240:	000900e7          	jalr	s2
80001244:	00812783          	lw	a5,8(sp)
80001248:	01000c13          	li	s8,16
8000124c:	00012223          	sw	zero,4(sp)
80001250:	00478713          	addi	a4,a5,4
80001254:	00812783          	lw	a5,8(sp)
80001258:	00000d93          	li	s11,0
8000125c:	0007a983          	lw	s3,0(a5)
80001260:	00e12423          	sw	a4,8(sp)
80001264:	000c0613          	mv	a2,s8
80001268:	00000693          	li	a3,0
8000126c:	00098513          	mv	a0,s3
80001270:	000d8593          	mv	a1,s11
80001274:	480010ef          	jal	ra,800026f4 <__umoddi3>
80001278:	00a12823          	sw	a0,16(sp)
8000127c:	00000793          	li	a5,0
80001280:	00050c93          	mv	s9,a0
80001284:	23b78063          	beq	a5,s11,800014a4 <vprintfmt+0x430>
80001288:	01410b13          	addi	s6,sp,20
8000128c:	00100d13          	li	s10,1
80001290:	000c0613          	mv	a2,s8
80001294:	00000693          	li	a3,0
80001298:	00098513          	mv	a0,s3
8000129c:	000d8593          	mv	a1,s11
800012a0:	67d000ef          	jal	ra,8000211c <__udivdi3>
800012a4:	000c0613          	mv	a2,s8
800012a8:	00000693          	li	a3,0
800012ac:	00050993          	mv	s3,a0
800012b0:	00058d93          	mv	s11,a1
800012b4:	440010ef          	jal	ra,800026f4 <__umoddi3>
800012b8:	00412783          	lw	a5,4(sp)
800012bc:	00ab2023          	sw	a0,0(s6)
800012c0:	01a12023          	sw	s10,0(sp)
800012c4:	00050c93          	mv	s9,a0
800012c8:	004b0b13          	addi	s6,s6,4
800012cc:	001d0d13          	addi	s10,s10,1
800012d0:	fdb790e3          	bne	a5,s11,80001290 <vprintfmt+0x21c>
800012d4:	fb89fee3          	bgeu	s3,s8,80001290 <vprintfmt+0x21c>
800012d8:	014d5c63          	bge	s10,s4,800012f0 <vprintfmt+0x27c>
800012dc:	fffa0a13          	addi	s4,s4,-1
800012e0:	00048593          	mv	a1,s1
800012e4:	000b8513          	mv	a0,s7
800012e8:	000900e7          	jalr	s2
800012ec:	ff4d48e3          	blt	s10,s4,800012dc <vprintfmt+0x268>
800012f0:	00012783          	lw	a5,0(sp)
800012f4:	00c12703          	lw	a4,12(sp)
800012f8:	00900993          	li	s3,9
800012fc:	00e78a33          	add	s4,a5,a4
80001300:	002a1a13          	slli	s4,s4,0x2
80001304:	01010793          	addi	a5,sp,16
80001308:	01478a33          	add	s4,a5,s4
8000130c:	00c0006f          	j	80001318 <vprintfmt+0x2a4>
80001310:	000a2c83          	lw	s9,0(s4)
80001314:	ffca0a13          	addi	s4,s4,-4
80001318:	0199b7b3          	sltu	a5,s3,s9
8000131c:	40f007b3          	neg	a5,a5
80001320:	0277f793          	andi	a5,a5,39
80001324:	03078793          	addi	a5,a5,48
80001328:	01978533          	add	a0,a5,s9
8000132c:	00048593          	mv	a1,s1
80001330:	000900e7          	jalr	s2
80001334:	00c10793          	addi	a5,sp,12
80001338:	fd479ce3          	bne	a5,s4,80001310 <vprintfmt+0x29c>
8000133c:	da5ff06f          	j	800010e0 <vprintfmt+0x6c>
80001340:	00100793          	li	a5,1
80001344:	16b7cc63          	blt	a5,a1,800014bc <vprintfmt+0x448>
80001348:	00812703          	lw	a4,8(sp)
8000134c:	00470793          	addi	a5,a4,4
80001350:	18058663          	beqz	a1,800014dc <vprintfmt+0x468>
80001354:	00072983          	lw	s3,0(a4)
80001358:	00f12423          	sw	a5,8(sp)
8000135c:	41f9dc13          	srai	s8,s3,0x1f
80001360:	180c4e63          	bltz	s8,800014fc <vprintfmt+0x488>
80001364:	000c0d93          	mv	s11,s8
80001368:	00012223          	sw	zero,4(sp)
8000136c:	00a00c13          	li	s8,10
80001370:	ef5ff06f          	j	80001264 <vprintfmt+0x1f0>
80001374:	01000c13          	li	s8,16
80001378:	00012223          	sw	zero,4(sp)
8000137c:	00100793          	li	a5,1
80001380:	10b7c263          	blt	a5,a1,80001484 <vprintfmt+0x410>
80001384:	00812783          	lw	a5,8(sp)
80001388:	00478713          	addi	a4,a5,4
8000138c:	ec9ff06f          	j	80001254 <vprintfmt+0x1e0>
80001390:	00812783          	lw	a5,8(sp)
80001394:	0007ad83          	lw	s11,0(a5)
80001398:	00478b13          	addi	s6,a5,4
8000139c:	180d8463          	beqz	s11,80001524 <vprintfmt+0x4b0>
800013a0:	09405863          	blez	s4,80001430 <vprintfmt+0x3bc>
800013a4:	02d00793          	li	a5,45
800013a8:	04fb9e63          	bne	s7,a5,80001404 <vprintfmt+0x390>
800013ac:	000dc503          	lbu	a0,0(s11)
800013b0:	02050863          	beqz	a0,800013e0 <vprintfmt+0x36c>
800013b4:	fff00b93          	li	s7,-1
800013b8:	0009c663          	bltz	s3,800013c4 <vprintfmt+0x350>
800013bc:	fff98993          	addi	s3,s3,-1
800013c0:	01798e63          	beq	s3,s7,800013dc <vprintfmt+0x368>
800013c4:	00048593          	mv	a1,s1
800013c8:	001d8d93          	addi	s11,s11,1
800013cc:	000900e7          	jalr	s2
800013d0:	000dc503          	lbu	a0,0(s11)
800013d4:	fffa0a13          	addi	s4,s4,-1
800013d8:	fe0510e3          	bnez	a0,800013b8 <vprintfmt+0x344>
800013dc:	01405c63          	blez	s4,800013f4 <vprintfmt+0x380>
800013e0:	fffa0a13          	addi	s4,s4,-1
800013e4:	00048593          	mv	a1,s1
800013e8:	02000513          	li	a0,32
800013ec:	000900e7          	jalr	s2
800013f0:	fe0a18e3          	bnez	s4,800013e0 <vprintfmt+0x36c>
800013f4:	01612423          	sw	s6,8(sp)
800013f8:	ce9ff06f          	j	800010e0 <vprintfmt+0x6c>
800013fc:	00002d97          	auipc	s11,0x2
80001400:	9ecd8d93          	addi	s11,s11,-1556 # 80002de8 <main+0x12c>
80001404:	000d8793          	mv	a5,s11
80001408:	013d86b3          	add	a3,s11,s3
8000140c:	00099863          	bnez	s3,8000141c <vprintfmt+0x3a8>
80001410:	1340006f          	j	80001544 <vprintfmt+0x4d0>
80001414:	00178793          	addi	a5,a5,1
80001418:	00d78663          	beq	a5,a3,80001424 <vprintfmt+0x3b0>
8000141c:	0007c703          	lbu	a4,0(a5)
80001420:	fe071ae3          	bnez	a4,80001414 <vprintfmt+0x3a0>
80001424:	41b787b3          	sub	a5,a5,s11
80001428:	40fa0a33          	sub	s4,s4,a5
8000142c:	11404c63          	bgtz	s4,80001544 <vprintfmt+0x4d0>
80001430:	000dc503          	lbu	a0,0(s11)
80001434:	fc0500e3          	beqz	a0,800013f4 <vprintfmt+0x380>
80001438:	fff00b93          	li	s7,-1
8000143c:	f7dff06f          	j	800013b8 <vprintfmt+0x344>
80001440:	fffa4793          	not	a5,s4
80001444:	41f7d793          	srai	a5,a5,0x1f
80001448:	00174683          	lbu	a3,1(a4)
8000144c:	00fa7a33          	and	s4,s4,a5
80001450:	00040713          	mv	a4,s0
80001454:	cb9ff06f          	j	8000110c <vprintfmt+0x98>
80001458:	00812783          	lw	a5,8(sp)
8000145c:	00048593          	mv	a1,s1
80001460:	0007a503          	lw	a0,0(a5)
80001464:	00478b13          	addi	s6,a5,4
80001468:	000900e7          	jalr	s2
8000146c:	01612423          	sw	s6,8(sp)
80001470:	c71ff06f          	j	800010e0 <vprintfmt+0x6c>
80001474:	00174683          	lbu	a3,1(a4)
80001478:	00158593          	addi	a1,a1,1
8000147c:	00040713          	mv	a4,s0
80001480:	c8dff06f          	j	8000110c <vprintfmt+0x98>
80001484:	00812783          	lw	a5,8(sp)
80001488:	00778b13          	addi	s6,a5,7
8000148c:	ff8b7b13          	andi	s6,s6,-8
80001490:	008b0793          	addi	a5,s6,8
80001494:	000b2983          	lw	s3,0(s6)
80001498:	004b2d83          	lw	s11,4(s6)
8000149c:	00f12423          	sw	a5,8(sp)
800014a0:	dc5ff06f          	j	80001264 <vprintfmt+0x1f0>
800014a4:	df89f2e3          	bgeu	s3,s8,80001288 <vprintfmt+0x214>
800014a8:	00100793          	li	a5,1
800014ac:	00012023          	sw	zero,0(sp)
800014b0:	00100d13          	li	s10,1
800014b4:	e347c4e3          	blt	a5,s4,800012dc <vprintfmt+0x268>
800014b8:	e39ff06f          	j	800012f0 <vprintfmt+0x27c>
800014bc:	00812783          	lw	a5,8(sp)
800014c0:	00778b13          	addi	s6,a5,7
800014c4:	ff8b7b13          	andi	s6,s6,-8
800014c8:	008b0793          	addi	a5,s6,8
800014cc:	000b2983          	lw	s3,0(s6)
800014d0:	004b2c03          	lw	s8,4(s6)
800014d4:	00f12423          	sw	a5,8(sp)
800014d8:	e89ff06f          	j	80001360 <vprintfmt+0x2ec>
800014dc:	00812703          	lw	a4,8(sp)
800014e0:	e75ff06f          	j	80001354 <vprintfmt+0x2e0>
800014e4:	00800c13          	li	s8,8
800014e8:	00012223          	sw	zero,4(sp)
800014ec:	e91ff06f          	j	8000137c <vprintfmt+0x308>
800014f0:	00a00c13          	li	s8,10
800014f4:	00012223          	sw	zero,4(sp)
800014f8:	e85ff06f          	j	8000137c <vprintfmt+0x308>
800014fc:	00048593          	mv	a1,s1
80001500:	02d00513          	li	a0,45
80001504:	000900e7          	jalr	s2
80001508:	01303733          	snez	a4,s3
8000150c:	418007b3          	neg	a5,s8
80001510:	413009b3          	neg	s3,s3
80001514:	40e78db3          	sub	s11,a5,a4
80001518:	00a00c13          	li	s8,10
8000151c:	00012223          	sw	zero,4(sp)
80001520:	d45ff06f          	j	80001264 <vprintfmt+0x1f0>
80001524:	01405663          	blez	s4,80001530 <vprintfmt+0x4bc>
80001528:	02d00793          	li	a5,45
8000152c:	ecfb98e3          	bne	s7,a5,800013fc <vprintfmt+0x388>
80001530:	00002d97          	auipc	s11,0x2
80001534:	8b8d8d93          	addi	s11,s11,-1864 # 80002de8 <main+0x12c>
80001538:	02800513          	li	a0,40
8000153c:	fff00b93          	li	s7,-1
80001540:	e79ff06f          	j	800013b8 <vprintfmt+0x344>
80001544:	fffa0a13          	addi	s4,s4,-1
80001548:	00048593          	mv	a1,s1
8000154c:	000b8513          	mv	a0,s7
80001550:	000900e7          	jalr	s2
80001554:	ec0a0ee3          	beqz	s4,80001430 <vprintfmt+0x3bc>
80001558:	fffa0a13          	addi	s4,s4,-1
8000155c:	00048593          	mv	a1,s1
80001560:	000b8513          	mv	a0,s7
80001564:	000900e7          	jalr	s2
80001568:	fc0a1ee3          	bnez	s4,80001544 <vprintfmt+0x4d0>
8000156c:	ec5ff06f          	j	80001430 <vprintfmt+0x3bc>

80001570 <sprintf_putch.3055>:
80001570:	0005a783          	lw	a5,0(a1)
80001574:	00a78023          	sb	a0,0(a5)
80001578:	0005a783          	lw	a5,0(a1)
8000157c:	00178793          	addi	a5,a5,1
80001580:	00f5a023          	sw	a5,0(a1)
80001584:	00008067          	ret

80001588 <syscall.constprop.0>:
80001588:	f8010113          	addi	sp,sp,-128
8000158c:	03f10813          	addi	a6,sp,63
80001590:	fc087813          	andi	a6,a6,-64
80001594:	04000713          	li	a4,64
80001598:	00e82023          	sw	a4,0(a6)
8000159c:	00000793          	li	a5,0
800015a0:	00f82223          	sw	a5,4(a6)
800015a4:	00100713          	li	a4,1
800015a8:	00e82423          	sw	a4,8(a6)
800015ac:	00000793          	li	a5,0
800015b0:	00f82623          	sw	a5,12(a6)
800015b4:	00a82823          	sw	a0,16(a6)
800015b8:	00b82a23          	sw	a1,20(a6)
800015bc:	00c82c23          	sw	a2,24(a6)
800015c0:	00d82e23          	sw	a3,28(a6)
800015c4:	0ff0000f          	fence
800015c8:	00000697          	auipc	a3,0x0
800015cc:	a3868693          	addi	a3,a3,-1480 # 80001000 <tohost>
800015d0:	0106a023          	sw	a6,0(a3)
800015d4:	00000793          	li	a5,0
800015d8:	00f6a223          	sw	a5,4(a3)
800015dc:	00000697          	auipc	a3,0x0
800015e0:	a6468693          	addi	a3,a3,-1436 # 80001040 <fromhost>
800015e4:	0006a703          	lw	a4,0(a3)
800015e8:	0046a783          	lw	a5,4(a3)
800015ec:	00f76733          	or	a4,a4,a5
800015f0:	fe070ae3          	beqz	a4,800015e4 <syscall.constprop.0+0x5c>
800015f4:	00000713          	li	a4,0
800015f8:	00e6a023          	sw	a4,0(a3)
800015fc:	00000793          	li	a5,0
80001600:	00f6a223          	sw	a5,4(a3)
80001604:	0ff0000f          	fence
80001608:	00082503          	lw	a0,0(a6)
8000160c:	00482583          	lw	a1,4(a6)
80001610:	08010113          	addi	sp,sp,128
80001614:	00008067          	ret

80001618 <putchar>:
80001618:	ff010113          	addi	sp,sp,-16
8000161c:	00812423          	sw	s0,8(sp)
80001620:	04022583          	lw	a1,64(tp) # 40 <buflen.2941>
80001624:	00020793          	mv	a5,tp
80001628:	00112623          	sw	ra,12(sp)
8000162c:	00b787b3          	add	a5,a5,a1
80001630:	00158613          	addi	a2,a1,1
80001634:	00a78023          	sb	a0,0(a5)
80001638:	04c22023          	sw	a2,64(tp) # 40 <buflen.2941>
8000163c:	00a00793          	li	a5,10
80001640:	02f50063          	beq	a0,a5,80001660 <putchar+0x48>
80001644:	04000793          	li	a5,64
80001648:	00f60c63          	beq	a2,a5,80001660 <putchar+0x48>
8000164c:	00c12083          	lw	ra,12(sp)
80001650:	00812403          	lw	s0,8(sp)
80001654:	00000513          	li	a0,0
80001658:	01010113          	addi	sp,sp,16
8000165c:	00008067          	ret
80001660:	41f65693          	srai	a3,a2,0x1f
80001664:	00020513          	mv	a0,tp
80001668:	00000593          	li	a1,0
8000166c:	f1dff0ef          	jal	ra,80001588 <syscall.constprop.0>
80001670:	00c12083          	lw	ra,12(sp)
80001674:	04022023          	sw	zero,64(tp) # 40 <buflen.2941>
80001678:	00812403          	lw	s0,8(sp)
8000167c:	00000513          	li	a0,0
80001680:	01010113          	addi	sp,sp,16
80001684:	00008067          	ret

80001688 <setStats>:
80001688:	b0002773          	csrr	a4,mcycle
8000168c:	00002797          	auipc	a5,0x2
80001690:	fb078793          	addi	a5,a5,-80 # 8000363c <counters>
80001694:	00051e63          	bnez	a0,800016b0 <setStats+0x28>
80001698:	0007a683          	lw	a3,0(a5)
8000169c:	00001617          	auipc	a2,0x1
800016a0:	75460613          	addi	a2,a2,1876 # 80002df0 <main+0x134>
800016a4:	00002597          	auipc	a1,0x2
800016a8:	f8c5a823          	sw	a2,-112(a1) # 80003634 <counter_names>
800016ac:	40d70733          	sub	a4,a4,a3
800016b0:	00e7a023          	sw	a4,0(a5)
800016b4:	b0202773          	csrr	a4,minstret
800016b8:	00051e63          	bnez	a0,800016d4 <setStats+0x4c>
800016bc:	0047a683          	lw	a3,4(a5)
800016c0:	00001617          	auipc	a2,0x1
800016c4:	73860613          	addi	a2,a2,1848 # 80002df8 <main+0x13c>
800016c8:	00002597          	auipc	a1,0x2
800016cc:	f6c5a823          	sw	a2,-144(a1) # 80003638 <counter_names+0x4>
800016d0:	40d70733          	sub	a4,a4,a3
800016d4:	00e7a223          	sw	a4,4(a5)
800016d8:	00008067          	ret

800016dc <tohost_exit>:
800016dc:	00151693          	slli	a3,a0,0x1
800016e0:	0016e713          	ori	a4,a3,1
800016e4:	00000697          	auipc	a3,0x0
800016e8:	91c68693          	addi	a3,a3,-1764 # 80001000 <tohost>
800016ec:	00000793          	li	a5,0
800016f0:	00e6a023          	sw	a4,0(a3)
800016f4:	00f6a223          	sw	a5,4(a3)
800016f8:	0000006f          	j	800016f8 <tohost_exit+0x1c>

800016fc <handle_trap>:
800016fc:	00001637          	lui	a2,0x1
80001700:	00000797          	auipc	a5,0x0
80001704:	90078793          	addi	a5,a5,-1792 # 80001000 <tohost>
80001708:	a7360613          	addi	a2,a2,-1421 # a73 <buflen.2941+0xa33>
8000170c:	00000693          	li	a3,0
80001710:	00c7a023          	sw	a2,0(a5)
80001714:	00d7a223          	sw	a3,4(a5)
80001718:	0000006f          	j	80001718 <handle_trap+0x1c>

8000171c <exit>:
8000171c:	ff010113          	addi	sp,sp,-16
80001720:	00112623          	sw	ra,12(sp)
80001724:	fb9ff0ef          	jal	ra,800016dc <tohost_exit>

80001728 <abort>:
80001728:	00000797          	auipc	a5,0x0
8000172c:	8d878793          	addi	a5,a5,-1832 # 80001000 <tohost>
80001730:	10d00613          	li	a2,269
80001734:	00000693          	li	a3,0
80001738:	00c7a023          	sw	a2,0(a5)
8000173c:	00d7a223          	sw	a3,4(a5)
80001740:	0000006f          	j	80001740 <abort+0x18>

80001744 <printstr>:
80001744:	00054783          	lbu	a5,0(a0)
80001748:	02078263          	beqz	a5,8000176c <printstr+0x28>
8000174c:	00050613          	mv	a2,a0
80001750:	00164783          	lbu	a5,1(a2)
80001754:	00160613          	addi	a2,a2,1
80001758:	fe079ce3          	bnez	a5,80001750 <printstr+0xc>
8000175c:	40a60633          	sub	a2,a2,a0
80001760:	00000693          	li	a3,0
80001764:	00000593          	li	a1,0
80001768:	e21ff06f          	j	80001588 <syscall.constprop.0>
8000176c:	00000613          	li	a2,0
80001770:	00000693          	li	a3,0
80001774:	00000593          	li	a1,0
80001778:	e11ff06f          	j	80001588 <syscall.constprop.0>

8000177c <thread_entry>:
8000177c:	00051063          	bnez	a0,8000177c <thread_entry>
80001780:	00008067          	ret

80001784 <printhex>:
80001784:	fd010113          	addi	sp,sp,-48
80001788:	00050713          	mv	a4,a0
8000178c:	02112623          	sw	ra,44(sp)
80001790:	00c10513          	addi	a0,sp,12
80001794:	01b10613          	addi	a2,sp,27
80001798:	00900813          	li	a6,9
8000179c:	0080006f          	j	800017a4 <printhex+0x20>
800017a0:	00078613          	mv	a2,a5
800017a4:	00f77793          	andi	a5,a4,15
800017a8:	00f837b3          	sltu	a5,a6,a5
800017ac:	40f007b3          	neg	a5,a5
800017b0:	0277f793          	andi	a5,a5,39
800017b4:	00f77693          	andi	a3,a4,15
800017b8:	03078793          	addi	a5,a5,48
800017bc:	00f687b3          	add	a5,a3,a5
800017c0:	00f60023          	sb	a5,0(a2)
800017c4:	01c59693          	slli	a3,a1,0x1c
800017c8:	00475713          	srli	a4,a4,0x4
800017cc:	fff60793          	addi	a5,a2,-1
800017d0:	00e6e733          	or	a4,a3,a4
800017d4:	0045d593          	srli	a1,a1,0x4
800017d8:	fcc514e3          	bne	a0,a2,800017a0 <printhex+0x1c>
800017dc:	00010e23          	sb	zero,28(sp)
800017e0:	f65ff0ef          	jal	ra,80001744 <printstr>
800017e4:	02c12083          	lw	ra,44(sp)
800017e8:	03010113          	addi	sp,sp,48
800017ec:	00008067          	ret

800017f0 <printf>:
800017f0:	fc010113          	addi	sp,sp,-64
800017f4:	02410313          	addi	t1,sp,36
800017f8:	00050e13          	mv	t3,a0
800017fc:	02b12223          	sw	a1,36(sp)
80001800:	02c12423          	sw	a2,40(sp)
80001804:	02d12623          	sw	a3,44(sp)
80001808:	00000517          	auipc	a0,0x0
8000180c:	e1050513          	addi	a0,a0,-496 # 80001618 <putchar>
80001810:	00030693          	mv	a3,t1
80001814:	000e0613          	mv	a2,t3
80001818:	00000593          	li	a1,0
8000181c:	00112e23          	sw	ra,28(sp)
80001820:	02e12823          	sw	a4,48(sp)
80001824:	02f12a23          	sw	a5,52(sp)
80001828:	03012c23          	sw	a6,56(sp)
8000182c:	03112e23          	sw	a7,60(sp)
80001830:	00612623          	sw	t1,12(sp)
80001834:	841ff0ef          	jal	ra,80001074 <vprintfmt>
80001838:	01c12083          	lw	ra,28(sp)
8000183c:	00000513          	li	a0,0
80001840:	04010113          	addi	sp,sp,64
80001844:	00008067          	ret

80001848 <sprintf>:
80001848:	fb010113          	addi	sp,sp,-80
8000184c:	03810313          	addi	t1,sp,56
80001850:	02812423          	sw	s0,40(sp)
80001854:	00a12623          	sw	a0,12(sp)
80001858:	02c12c23          	sw	a2,56(sp)
8000185c:	02d12e23          	sw	a3,60(sp)
80001860:	00050413          	mv	s0,a0
80001864:	00058613          	mv	a2,a1
80001868:	00000517          	auipc	a0,0x0
8000186c:	d0850513          	addi	a0,a0,-760 # 80001570 <sprintf_putch.3055>
80001870:	00c10593          	addi	a1,sp,12
80001874:	00030693          	mv	a3,t1
80001878:	02112623          	sw	ra,44(sp)
8000187c:	04f12223          	sw	a5,68(sp)
80001880:	04e12023          	sw	a4,64(sp)
80001884:	05012423          	sw	a6,72(sp)
80001888:	05112623          	sw	a7,76(sp)
8000188c:	00612e23          	sw	t1,28(sp)
80001890:	fe4ff0ef          	jal	ra,80001074 <vprintfmt>
80001894:	00c12783          	lw	a5,12(sp)
80001898:	00078023          	sb	zero,0(a5)
8000189c:	00c12503          	lw	a0,12(sp)
800018a0:	02c12083          	lw	ra,44(sp)
800018a4:	40850533          	sub	a0,a0,s0
800018a8:	02812403          	lw	s0,40(sp)
800018ac:	05010113          	addi	sp,sp,80
800018b0:	00008067          	ret

800018b4 <memcpy>:
800018b4:	00c5e7b3          	or	a5,a1,a2
800018b8:	00f567b3          	or	a5,a0,a5
800018bc:	0037f793          	andi	a5,a5,3
800018c0:	00c506b3          	add	a3,a0,a2
800018c4:	02078463          	beqz	a5,800018ec <memcpy+0x38>
800018c8:	00c58633          	add	a2,a1,a2
800018cc:	00050793          	mv	a5,a0
800018d0:	02d57e63          	bgeu	a0,a3,8000190c <memcpy+0x58>
800018d4:	0005c703          	lbu	a4,0(a1)
800018d8:	00158593          	addi	a1,a1,1
800018dc:	00178793          	addi	a5,a5,1
800018e0:	fee78fa3          	sb	a4,-1(a5)
800018e4:	feb618e3          	bne	a2,a1,800018d4 <memcpy+0x20>
800018e8:	00008067          	ret
800018ec:	fed57ee3          	bgeu	a0,a3,800018e8 <memcpy+0x34>
800018f0:	00050793          	mv	a5,a0
800018f4:	0005a703          	lw	a4,0(a1)
800018f8:	00478793          	addi	a5,a5,4
800018fc:	00458593          	addi	a1,a1,4
80001900:	fee7ae23          	sw	a4,-4(a5)
80001904:	fed7e8e3          	bltu	a5,a3,800018f4 <memcpy+0x40>
80001908:	00008067          	ret
8000190c:	00008067          	ret

80001910 <memset>:
80001910:	00c567b3          	or	a5,a0,a2
80001914:	0037f793          	andi	a5,a5,3
80001918:	00c50633          	add	a2,a0,a2
8000191c:	02078063          	beqz	a5,8000193c <memset+0x2c>
80001920:	0ff5f593          	andi	a1,a1,255
80001924:	00050793          	mv	a5,a0
80001928:	04c57063          	bgeu	a0,a2,80001968 <memset+0x58>
8000192c:	00178793          	addi	a5,a5,1
80001930:	feb78fa3          	sb	a1,-1(a5)
80001934:	fef61ce3          	bne	a2,a5,8000192c <memset+0x1c>
80001938:	00008067          	ret
8000193c:	0ff5f593          	andi	a1,a1,255
80001940:	00859713          	slli	a4,a1,0x8
80001944:	00e5e733          	or	a4,a1,a4
80001948:	01071793          	slli	a5,a4,0x10
8000194c:	00f76733          	or	a4,a4,a5
80001950:	fec574e3          	bgeu	a0,a2,80001938 <memset+0x28>
80001954:	00050793          	mv	a5,a0
80001958:	00478793          	addi	a5,a5,4
8000195c:	fee7ae23          	sw	a4,-4(a5)
80001960:	fec7ece3          	bltu	a5,a2,80001958 <memset+0x48>
80001964:	00008067          	ret
80001968:	00008067          	ret

8000196c <_init>:
8000196c:	f6010113          	addi	sp,sp,-160
80001970:	00002797          	auipc	a5,0x2
80001974:	cd478793          	addi	a5,a5,-812 # 80003644 <_tdata_begin>
80001978:	09412423          	sw	s4,136(sp)
8000197c:	00002a17          	auipc	s4,0x2
80001980:	cc8a0a13          	addi	s4,s4,-824 # 80003644 <_tdata_begin>
80001984:	09312623          	sw	s3,140(sp)
80001988:	40fa09b3          	sub	s3,s4,a5
8000198c:	08912a23          	sw	s1,148(sp)
80001990:	09212823          	sw	s2,144(sp)
80001994:	00050493          	mv	s1,a0
80001998:	00058913          	mv	s2,a1
8000199c:	00020513          	mv	a0,tp
800019a0:	00078593          	mv	a1,a5
800019a4:	00098613          	mv	a2,s3
800019a8:	08112e23          	sw	ra,156(sp)
800019ac:	08812c23          	sw	s0,152(sp)
800019b0:	09512223          	sw	s5,132(sp)
800019b4:	00020a93          	mv	s5,tp
800019b8:	efdff0ef          	jal	ra,800018b4 <memcpy>
800019bc:	89018613          	addi	a2,gp,-1904 # 800036c4 <_tbss_end>
800019c0:	41460633          	sub	a2,a2,s4
800019c4:	00000593          	li	a1,0
800019c8:	013a8533          	add	a0,s5,s3
800019cc:	f45ff0ef          	jal	ra,80001910 <memset>
800019d0:	00090593          	mv	a1,s2
800019d4:	00048513          	mv	a0,s1
800019d8:	da5ff0ef          	jal	ra,8000177c <thread_entry>
800019dc:	00000593          	li	a1,0
800019e0:	00000513          	li	a0,0
800019e4:	2d8010ef          	jal	ra,80002cbc <main>
800019e8:	00002917          	auipc	s2,0x2
800019ec:	c5490913          	addi	s2,s2,-940 # 8000363c <counters>
800019f0:	00092683          	lw	a3,0(s2)
800019f4:	03f10413          	addi	s0,sp,63
800019f8:	fc047413          	andi	s0,s0,-64
800019fc:	00050493          	mv	s1,a0
80001a00:	04069463          	bnez	a3,80001a48 <_init+0xdc>
80001a04:	00492683          	lw	a3,4(s2)
80001a08:	00069663          	bnez	a3,80001a14 <_init+0xa8>
80001a0c:	00048513          	mv	a0,s1
80001a10:	ccdff0ef          	jal	ra,800016dc <tohost_exit>
80001a14:	00040913          	mv	s2,s0
80001a18:	00002997          	auipc	s3,0x2
80001a1c:	c1c98993          	addi	s3,s3,-996 # 80003634 <counter_names>
80001a20:	0049a603          	lw	a2,4(s3)
80001a24:	00090513          	mv	a0,s2
80001a28:	00001597          	auipc	a1,0x1
80001a2c:	3f458593          	addi	a1,a1,1012 # 80002e1c <main+0x160>
80001a30:	e19ff0ef          	jal	ra,80001848 <sprintf>
80001a34:	00a90933          	add	s2,s2,a0
80001a38:	fd240ae3          	beq	s0,s2,80001a0c <_init+0xa0>
80001a3c:	00040513          	mv	a0,s0
80001a40:	d05ff0ef          	jal	ra,80001744 <printstr>
80001a44:	fc9ff06f          	j	80001a0c <_init+0xa0>
80001a48:	00002997          	auipc	s3,0x2
80001a4c:	bec98993          	addi	s3,s3,-1044 # 80003634 <counter_names>
80001a50:	0009a603          	lw	a2,0(s3)
80001a54:	00001597          	auipc	a1,0x1
80001a58:	3c858593          	addi	a1,a1,968 # 80002e1c <main+0x160>
80001a5c:	00040513          	mv	a0,s0
80001a60:	de9ff0ef          	jal	ra,80001848 <sprintf>
80001a64:	00492683          	lw	a3,4(s2)
80001a68:	00a40933          	add	s2,s0,a0
80001a6c:	fc0686e3          	beqz	a3,80001a38 <_init+0xcc>
80001a70:	fb1ff06f          	j	80001a20 <_init+0xb4>

80001a74 <strlen>:
80001a74:	00054783          	lbu	a5,0(a0)
80001a78:	00078e63          	beqz	a5,80001a94 <strlen+0x20>
80001a7c:	00050793          	mv	a5,a0
80001a80:	0017c703          	lbu	a4,1(a5)
80001a84:	00178793          	addi	a5,a5,1
80001a88:	fe071ce3          	bnez	a4,80001a80 <strlen+0xc>
80001a8c:	40a78533          	sub	a0,a5,a0
80001a90:	00008067          	ret
80001a94:	00000513          	li	a0,0
80001a98:	00008067          	ret

80001a9c <strnlen>:
80001a9c:	00050613          	mv	a2,a0
80001aa0:	00b606b3          	add	a3,a2,a1
80001aa4:	00058513          	mv	a0,a1
80001aa8:	00060793          	mv	a5,a2
80001aac:	00059863          	bnez	a1,80001abc <strnlen+0x20>
80001ab0:	01c0006f          	j	80001acc <strnlen+0x30>
80001ab4:	00178793          	addi	a5,a5,1
80001ab8:	00f68863          	beq	a3,a5,80001ac8 <strnlen+0x2c>
80001abc:	0007c703          	lbu	a4,0(a5)
80001ac0:	fe071ae3          	bnez	a4,80001ab4 <strnlen+0x18>
80001ac4:	40c78533          	sub	a0,a5,a2
80001ac8:	00008067          	ret
80001acc:	00008067          	ret

80001ad0 <strcmp>:
80001ad0:	00054783          	lbu	a5,0(a0)
80001ad4:	00158593          	addi	a1,a1,1
80001ad8:	00150513          	addi	a0,a0,1
80001adc:	fff5c703          	lbu	a4,-1(a1)
80001ae0:	00078863          	beqz	a5,80001af0 <strcmp+0x20>
80001ae4:	fee786e3          	beq	a5,a4,80001ad0 <strcmp>
80001ae8:	40e78533          	sub	a0,a5,a4
80001aec:	00008067          	ret
80001af0:	00000793          	li	a5,0
80001af4:	ff5ff06f          	j	80001ae8 <strcmp+0x18>

80001af8 <strcpy>:
80001af8:	00050793          	mv	a5,a0
80001afc:	0005c703          	lbu	a4,0(a1)
80001b00:	00178793          	addi	a5,a5,1
80001b04:	00158593          	addi	a1,a1,1
80001b08:	fee78fa3          	sb	a4,-1(a5)
80001b0c:	fe0718e3          	bnez	a4,80001afc <strcpy+0x4>
80001b10:	00008067          	ret

80001b14 <atol>:
80001b14:	00054703          	lbu	a4,0(a0)
80001b18:	02000693          	li	a3,32
80001b1c:	00050793          	mv	a5,a0
80001b20:	00d71863          	bne	a4,a3,80001b30 <atol+0x1c>
80001b24:	0017c703          	lbu	a4,1(a5)
80001b28:	00178793          	addi	a5,a5,1
80001b2c:	fed70ce3          	beq	a4,a3,80001b24 <atol+0x10>
80001b30:	02d00693          	li	a3,45
80001b34:	06d70063          	beq	a4,a3,80001b94 <atol+0x80>
80001b38:	02b00693          	li	a3,43
80001b3c:	04d70063          	beq	a4,a3,80001b7c <atol+0x68>
80001b40:	0007c683          	lbu	a3,0(a5)
80001b44:	00000593          	li	a1,0
80001b48:	04068263          	beqz	a3,80001b8c <atol+0x78>
80001b4c:	00000513          	li	a0,0
80001b50:	00178793          	addi	a5,a5,1
80001b54:	fd068613          	addi	a2,a3,-48
80001b58:	00251713          	slli	a4,a0,0x2
80001b5c:	0007c683          	lbu	a3,0(a5)
80001b60:	00a70533          	add	a0,a4,a0
80001b64:	00151513          	slli	a0,a0,0x1
80001b68:	00a60533          	add	a0,a2,a0
80001b6c:	fe0692e3          	bnez	a3,80001b50 <atol+0x3c>
80001b70:	02058063          	beqz	a1,80001b90 <atol+0x7c>
80001b74:	40a00533          	neg	a0,a0
80001b78:	00008067          	ret
80001b7c:	0017c683          	lbu	a3,1(a5)
80001b80:	00000593          	li	a1,0
80001b84:	00178793          	addi	a5,a5,1
80001b88:	fc0692e3          	bnez	a3,80001b4c <atol+0x38>
80001b8c:	00000513          	li	a0,0
80001b90:	00008067          	ret
80001b94:	0017c683          	lbu	a3,1(a5)
80001b98:	00100593          	li	a1,1
80001b9c:	00178793          	addi	a5,a5,1
80001ba0:	fa0696e3          	bnez	a3,80001b4c <atol+0x38>
80001ba4:	00000513          	li	a0,0
80001ba8:	fe9ff06f          	j	80001b90 <atol+0x7c>

80001bac <__moddi3>:
80001bac:	fc010113          	addi	sp,sp,-64
80001bb0:	02912a23          	sw	s1,52(sp)
80001bb4:	01712e23          	sw	s7,28(sp)
80001bb8:	01912a23          	sw	s9,20(sp)
80001bbc:	02112e23          	sw	ra,60(sp)
80001bc0:	02812c23          	sw	s0,56(sp)
80001bc4:	03212823          	sw	s2,48(sp)
80001bc8:	03312623          	sw	s3,44(sp)
80001bcc:	03412423          	sw	s4,40(sp)
80001bd0:	03512223          	sw	s5,36(sp)
80001bd4:	03612023          	sw	s6,32(sp)
80001bd8:	01812c23          	sw	s8,24(sp)
80001bdc:	01a12823          	sw	s10,16(sp)
80001be0:	01b12623          	sw	s11,12(sp)
80001be4:	00050b93          	mv	s7,a0
80001be8:	00058c93          	mv	s9,a1
80001bec:	00000493          	li	s1,0
80001bf0:	0005dc63          	bgez	a1,80001c08 <__moddi3+0x5c>
80001bf4:	00a037b3          	snez	a5,a0
80001bf8:	40b00933          	neg	s2,a1
80001bfc:	40f90cb3          	sub	s9,s2,a5
80001c00:	40a00bb3          	neg	s7,a0
80001c04:	fff00493          	li	s1,-1
80001c08:	0006da63          	bgez	a3,80001c1c <__moddi3+0x70>
80001c0c:	00c03933          	snez	s2,a2
80001c10:	40d007b3          	neg	a5,a3
80001c14:	412786b3          	sub	a3,a5,s2
80001c18:	40c00633          	neg	a2,a2
80001c1c:	00060a93          	mv	s5,a2
80001c20:	00068993          	mv	s3,a3
80001c24:	000b8413          	mv	s0,s7
80001c28:	000c8913          	mv	s2,s9
80001c2c:	2a069863          	bnez	a3,80001edc <__moddi3+0x330>
80001c30:	80003a37          	lui	s4,0x80003
80001c34:	f80a0a13          	addi	s4,s4,-128 # 80002f80 <__global_pointer$+0xfffff14c>
80001c38:	14ccfe63          	bgeu	s9,a2,80001d94 <__moddi3+0x1e8>
80001c3c:	000107b7          	lui	a5,0x10
80001c40:	14f67063          	bgeu	a2,a5,80001d80 <__moddi3+0x1d4>
80001c44:	0ff00793          	li	a5,255
80001c48:	00c7f463          	bgeu	a5,a2,80001c50 <__moddi3+0xa4>
80001c4c:	00800993          	li	s3,8
80001c50:	013657b3          	srl	a5,a2,s3
80001c54:	00fa0a33          	add	s4,s4,a5
80001c58:	000a4783          	lbu	a5,0(s4)
80001c5c:	02000713          	li	a4,32
80001c60:	013787b3          	add	a5,a5,s3
80001c64:	40f709b3          	sub	s3,a4,a5
80001c68:	00f70c63          	beq	a4,a5,80001c80 <__moddi3+0xd4>
80001c6c:	013c96b3          	sll	a3,s9,s3
80001c70:	00fbd7b3          	srl	a5,s7,a5
80001c74:	01361ab3          	sll	s5,a2,s3
80001c78:	00d7e933          	or	s2,a5,a3
80001c7c:	013b9433          	sll	s0,s7,s3
80001c80:	010adb13          	srli	s6,s5,0x10
80001c84:	000b0593          	mv	a1,s6
80001c88:	00090513          	mv	a0,s2
80001c8c:	7cd000ef          	jal	ra,80002c58 <__umodsi3>
80001c90:	010a9b93          	slli	s7,s5,0x10
80001c94:	00050a13          	mv	s4,a0
80001c98:	010bdb93          	srli	s7,s7,0x10
80001c9c:	000b0593          	mv	a1,s6
80001ca0:	00090513          	mv	a0,s2
80001ca4:	76d000ef          	jal	ra,80002c10 <__udivsi3>
80001ca8:	00050593          	mv	a1,a0
80001cac:	000b8513          	mv	a0,s7
80001cb0:	735000ef          	jal	ra,80002be4 <__mulsi3>
80001cb4:	010a1a13          	slli	s4,s4,0x10
80001cb8:	01045793          	srli	a5,s0,0x10
80001cbc:	00fa67b3          	or	a5,s4,a5
80001cc0:	00a7fa63          	bgeu	a5,a0,80001cd4 <__moddi3+0x128>
80001cc4:	015787b3          	add	a5,a5,s5
80001cc8:	0157e663          	bltu	a5,s5,80001cd4 <__moddi3+0x128>
80001ccc:	00a7f463          	bgeu	a5,a0,80001cd4 <__moddi3+0x128>
80001cd0:	015787b3          	add	a5,a5,s5
80001cd4:	40a78933          	sub	s2,a5,a0
80001cd8:	000b0593          	mv	a1,s6
80001cdc:	00090513          	mv	a0,s2
80001ce0:	779000ef          	jal	ra,80002c58 <__umodsi3>
80001ce4:	00050a13          	mv	s4,a0
80001ce8:	000b0593          	mv	a1,s6
80001cec:	00090513          	mv	a0,s2
80001cf0:	721000ef          	jal	ra,80002c10 <__udivsi3>
80001cf4:	01041413          	slli	s0,s0,0x10
80001cf8:	00050593          	mv	a1,a0
80001cfc:	010a1a13          	slli	s4,s4,0x10
80001d00:	000b8513          	mv	a0,s7
80001d04:	01045413          	srli	s0,s0,0x10
80001d08:	6dd000ef          	jal	ra,80002be4 <__mulsi3>
80001d0c:	008a6433          	or	s0,s4,s0
80001d10:	00a47a63          	bgeu	s0,a0,80001d24 <__moddi3+0x178>
80001d14:	01540433          	add	s0,s0,s5
80001d18:	01546663          	bltu	s0,s5,80001d24 <__moddi3+0x178>
80001d1c:	00a47463          	bgeu	s0,a0,80001d24 <__moddi3+0x178>
80001d20:	01540433          	add	s0,s0,s5
80001d24:	40a40433          	sub	s0,s0,a0
80001d28:	01345533          	srl	a0,s0,s3
80001d2c:	00000593          	li	a1,0
80001d30:	00048a63          	beqz	s1,80001d44 <__moddi3+0x198>
80001d34:	00a037b3          	snez	a5,a0
80001d38:	40b006b3          	neg	a3,a1
80001d3c:	40f685b3          	sub	a1,a3,a5
80001d40:	40a00533          	neg	a0,a0
80001d44:	03c12083          	lw	ra,60(sp)
80001d48:	03812403          	lw	s0,56(sp)
80001d4c:	03412483          	lw	s1,52(sp)
80001d50:	03012903          	lw	s2,48(sp)
80001d54:	02c12983          	lw	s3,44(sp)
80001d58:	02812a03          	lw	s4,40(sp)
80001d5c:	02412a83          	lw	s5,36(sp)
80001d60:	02012b03          	lw	s6,32(sp)
80001d64:	01c12b83          	lw	s7,28(sp)
80001d68:	01812c03          	lw	s8,24(sp)
80001d6c:	01412c83          	lw	s9,20(sp)
80001d70:	01012d03          	lw	s10,16(sp)
80001d74:	00c12d83          	lw	s11,12(sp)
80001d78:	04010113          	addi	sp,sp,64
80001d7c:	00008067          	ret
80001d80:	010007b7          	lui	a5,0x1000
80001d84:	01000993          	li	s3,16
80001d88:	ecf664e3          	bltu	a2,a5,80001c50 <__moddi3+0xa4>
80001d8c:	01800993          	li	s3,24
80001d90:	ec1ff06f          	j	80001c50 <__moddi3+0xa4>
80001d94:	00061a63          	bnez	a2,80001da8 <__moddi3+0x1fc>
80001d98:	00000593          	li	a1,0
80001d9c:	00100513          	li	a0,1
80001da0:	671000ef          	jal	ra,80002c10 <__udivsi3>
80001da4:	00050a93          	mv	s5,a0
80001da8:	000107b7          	lui	a5,0x10
80001dac:	04fafc63          	bgeu	s5,a5,80001e04 <__moddi3+0x258>
80001db0:	0ff00793          	li	a5,255
80001db4:	0157f463          	bgeu	a5,s5,80001dbc <__moddi3+0x210>
80001db8:	00800993          	li	s3,8
80001dbc:	013ad7b3          	srl	a5,s5,s3
80001dc0:	00fa0a33          	add	s4,s4,a5
80001dc4:	000a4783          	lbu	a5,0(s4)
80001dc8:	02000713          	li	a4,32
80001dcc:	013787b3          	add	a5,a5,s3
80001dd0:	40f709b3          	sub	s3,a4,a5
80001dd4:	04f71263          	bne	a4,a5,80001e18 <__moddi3+0x26c>
80001dd8:	415c8cb3          	sub	s9,s9,s5
80001ddc:	010adb13          	srli	s6,s5,0x10
80001de0:	000b0593          	mv	a1,s6
80001de4:	000c8513          	mv	a0,s9
80001de8:	671000ef          	jal	ra,80002c58 <__umodsi3>
80001dec:	010a9b93          	slli	s7,s5,0x10
80001df0:	00050a13          	mv	s4,a0
80001df4:	010bdb93          	srli	s7,s7,0x10
80001df8:	000b0593          	mv	a1,s6
80001dfc:	000c8513          	mv	a0,s9
80001e00:	ea5ff06f          	j	80001ca4 <__moddi3+0xf8>
80001e04:	010007b7          	lui	a5,0x1000
80001e08:	01000993          	li	s3,16
80001e0c:	fafae8e3          	bltu	s5,a5,80001dbc <__moddi3+0x210>
80001e10:	01800993          	li	s3,24
80001e14:	fa9ff06f          	j	80001dbc <__moddi3+0x210>
80001e18:	013a9ab3          	sll	s5,s5,s3
80001e1c:	00fcdb33          	srl	s6,s9,a5
80001e20:	010ad913          	srli	s2,s5,0x10
80001e24:	00fbd7b3          	srl	a5,s7,a5
80001e28:	013c96b3          	sll	a3,s9,s3
80001e2c:	00090593          	mv	a1,s2
80001e30:	000b0513          	mv	a0,s6
80001e34:	00d7ec33          	or	s8,a5,a3
80001e38:	621000ef          	jal	ra,80002c58 <__umodsi3>
80001e3c:	00050a13          	mv	s4,a0
80001e40:	00090593          	mv	a1,s2
80001e44:	013b9433          	sll	s0,s7,s3
80001e48:	000b0513          	mv	a0,s6
80001e4c:	010a9b93          	slli	s7,s5,0x10
80001e50:	5c1000ef          	jal	ra,80002c10 <__udivsi3>
80001e54:	010bdb93          	srli	s7,s7,0x10
80001e58:	00050593          	mv	a1,a0
80001e5c:	000b8513          	mv	a0,s7
80001e60:	585000ef          	jal	ra,80002be4 <__mulsi3>
80001e64:	010a1a13          	slli	s4,s4,0x10
80001e68:	010c5793          	srli	a5,s8,0x10
80001e6c:	00fa67b3          	or	a5,s4,a5
80001e70:	00a7fa63          	bgeu	a5,a0,80001e84 <__moddi3+0x2d8>
80001e74:	015787b3          	add	a5,a5,s5
80001e78:	0157e663          	bltu	a5,s5,80001e84 <__moddi3+0x2d8>
80001e7c:	00a7f463          	bgeu	a5,a0,80001e84 <__moddi3+0x2d8>
80001e80:	015787b3          	add	a5,a5,s5
80001e84:	40a78b33          	sub	s6,a5,a0
80001e88:	00090593          	mv	a1,s2
80001e8c:	000b0513          	mv	a0,s6
80001e90:	5c9000ef          	jal	ra,80002c58 <__umodsi3>
80001e94:	00050a13          	mv	s4,a0
80001e98:	00090593          	mv	a1,s2
80001e9c:	000b0513          	mv	a0,s6
80001ea0:	571000ef          	jal	ra,80002c10 <__udivsi3>
80001ea4:	00050593          	mv	a1,a0
80001ea8:	000b8513          	mv	a0,s7
80001eac:	539000ef          	jal	ra,80002be4 <__mulsi3>
80001eb0:	010c1693          	slli	a3,s8,0x10
80001eb4:	010a1a13          	slli	s4,s4,0x10
80001eb8:	0106d693          	srli	a3,a3,0x10
80001ebc:	00da66b3          	or	a3,s4,a3
80001ec0:	00a6fa63          	bgeu	a3,a0,80001ed4 <__moddi3+0x328>
80001ec4:	015686b3          	add	a3,a3,s5
80001ec8:	0156e663          	bltu	a3,s5,80001ed4 <__moddi3+0x328>
80001ecc:	00a6f463          	bgeu	a3,a0,80001ed4 <__moddi3+0x328>
80001ed0:	015686b3          	add	a3,a3,s5
80001ed4:	40a68cb3          	sub	s9,a3,a0
80001ed8:	f05ff06f          	j	80001ddc <__moddi3+0x230>
80001edc:	00dcf863          	bgeu	s9,a3,80001eec <__moddi3+0x340>
80001ee0:	000b8513          	mv	a0,s7
80001ee4:	000c8593          	mv	a1,s9
80001ee8:	e49ff06f          	j	80001d30 <__moddi3+0x184>
80001eec:	000107b7          	lui	a5,0x10
80001ef0:	04f6fc63          	bgeu	a3,a5,80001f48 <__moddi3+0x39c>
80001ef4:	0ff00b13          	li	s6,255
80001ef8:	00db3533          	sltu	a0,s6,a3
80001efc:	00351513          	slli	a0,a0,0x3
80001f00:	800037b7          	lui	a5,0x80003
80001f04:	00a6d733          	srl	a4,a3,a0
80001f08:	f8078793          	addi	a5,a5,-128 # 80002f80 <__global_pointer$+0xfffff14c>
80001f0c:	00e787b3          	add	a5,a5,a4
80001f10:	0007cb03          	lbu	s6,0(a5)
80001f14:	02000793          	li	a5,32
80001f18:	00ab0b33          	add	s6,s6,a0
80001f1c:	41678a33          	sub	s4,a5,s6
80001f20:	03679e63          	bne	a5,s6,80001f5c <__moddi3+0x3b0>
80001f24:	0196e463          	bltu	a3,s9,80001f2c <__moddi3+0x380>
80001f28:	00cbea63          	bltu	s7,a2,80001f3c <__moddi3+0x390>
80001f2c:	40cb8433          	sub	s0,s7,a2
80001f30:	40dc86b3          	sub	a3,s9,a3
80001f34:	008bbbb3          	sltu	s7,s7,s0
80001f38:	41768933          	sub	s2,a3,s7
80001f3c:	00040513          	mv	a0,s0
80001f40:	00090593          	mv	a1,s2
80001f44:	dedff06f          	j	80001d30 <__moddi3+0x184>
80001f48:	010007b7          	lui	a5,0x1000
80001f4c:	01000513          	li	a0,16
80001f50:	faf6e8e3          	bltu	a3,a5,80001f00 <__moddi3+0x354>
80001f54:	01800513          	li	a0,24
80001f58:	fa9ff06f          	j	80001f00 <__moddi3+0x354>
80001f5c:	016657b3          	srl	a5,a2,s6
80001f60:	014696b3          	sll	a3,a3,s4
80001f64:	00d7ed33          	or	s10,a5,a3
80001f68:	016cd433          	srl	s0,s9,s6
80001f6c:	010d5c13          	srli	s8,s10,0x10
80001f70:	014c96b3          	sll	a3,s9,s4
80001f74:	016bd933          	srl	s2,s7,s6
80001f78:	000c0593          	mv	a1,s8
80001f7c:	00040513          	mv	a0,s0
80001f80:	00d96933          	or	s2,s2,a3
80001f84:	01461db3          	sll	s11,a2,s4
80001f88:	4d1000ef          	jal	ra,80002c58 <__umodsi3>
80001f8c:	00050a93          	mv	s5,a0
80001f90:	000c0593          	mv	a1,s8
80001f94:	00040513          	mv	a0,s0
80001f98:	010d1c93          	slli	s9,s10,0x10
80001f9c:	475000ef          	jal	ra,80002c10 <__udivsi3>
80001fa0:	010cdc93          	srli	s9,s9,0x10
80001fa4:	00050413          	mv	s0,a0
80001fa8:	00050593          	mv	a1,a0
80001fac:	000c8513          	mv	a0,s9
80001fb0:	435000ef          	jal	ra,80002be4 <__mulsi3>
80001fb4:	010a9a93          	slli	s5,s5,0x10
80001fb8:	01095713          	srli	a4,s2,0x10
80001fbc:	00eae733          	or	a4,s5,a4
80001fc0:	014b9bb3          	sll	s7,s7,s4
80001fc4:	00040a93          	mv	s5,s0
80001fc8:	00a77e63          	bgeu	a4,a0,80001fe4 <__moddi3+0x438>
80001fcc:	01a70733          	add	a4,a4,s10
80001fd0:	fff40a93          	addi	s5,s0,-1
80001fd4:	01a76863          	bltu	a4,s10,80001fe4 <__moddi3+0x438>
80001fd8:	00a77663          	bgeu	a4,a0,80001fe4 <__moddi3+0x438>
80001fdc:	ffe40a93          	addi	s5,s0,-2
80001fe0:	01a70733          	add	a4,a4,s10
80001fe4:	40a709b3          	sub	s3,a4,a0
80001fe8:	000c0593          	mv	a1,s8
80001fec:	00098513          	mv	a0,s3
80001ff0:	469000ef          	jal	ra,80002c58 <__umodsi3>
80001ff4:	00050413          	mv	s0,a0
80001ff8:	000c0593          	mv	a1,s8
80001ffc:	00098513          	mv	a0,s3
80002000:	411000ef          	jal	ra,80002c10 <__udivsi3>
80002004:	00050993          	mv	s3,a0
80002008:	00050593          	mv	a1,a0
8000200c:	000c8513          	mv	a0,s9
80002010:	3d5000ef          	jal	ra,80002be4 <__mulsi3>
80002014:	01091693          	slli	a3,s2,0x10
80002018:	01041413          	slli	s0,s0,0x10
8000201c:	0106d693          	srli	a3,a3,0x10
80002020:	00d466b3          	or	a3,s0,a3
80002024:	00098793          	mv	a5,s3
80002028:	00a6fe63          	bgeu	a3,a0,80002044 <__moddi3+0x498>
8000202c:	01a686b3          	add	a3,a3,s10
80002030:	fff98793          	addi	a5,s3,-1
80002034:	01a6e863          	bltu	a3,s10,80002044 <__moddi3+0x498>
80002038:	00a6f663          	bgeu	a3,a0,80002044 <__moddi3+0x498>
8000203c:	ffe98793          	addi	a5,s3,-2
80002040:	01a686b3          	add	a3,a3,s10
80002044:	00010337          	lui	t1,0x10
80002048:	010a9a93          	slli	s5,s5,0x10
8000204c:	00faeab3          	or	s5,s5,a5
80002050:	fff30813          	addi	a6,t1,-1 # ffff <buflen.2941+0xffbf>
80002054:	010af733          	and	a4,s5,a6
80002058:	010df833          	and	a6,s11,a6
8000205c:	40a68933          	sub	s2,a3,a0
80002060:	010ada93          	srli	s5,s5,0x10
80002064:	010dd893          	srli	a7,s11,0x10
80002068:	00070513          	mv	a0,a4
8000206c:	00080593          	mv	a1,a6
80002070:	375000ef          	jal	ra,80002be4 <__mulsi3>
80002074:	00050793          	mv	a5,a0
80002078:	00088593          	mv	a1,a7
8000207c:	00070513          	mv	a0,a4
80002080:	365000ef          	jal	ra,80002be4 <__mulsi3>
80002084:	00050713          	mv	a4,a0
80002088:	00080593          	mv	a1,a6
8000208c:	000a8513          	mv	a0,s5
80002090:	355000ef          	jal	ra,80002be4 <__mulsi3>
80002094:	00050813          	mv	a6,a0
80002098:	00088593          	mv	a1,a7
8000209c:	000a8513          	mv	a0,s5
800020a0:	345000ef          	jal	ra,80002be4 <__mulsi3>
800020a4:	01070733          	add	a4,a4,a6
800020a8:	0107d693          	srli	a3,a5,0x10
800020ac:	00d70733          	add	a4,a4,a3
800020b0:	01077463          	bgeu	a4,a6,800020b8 <__moddi3+0x50c>
800020b4:	00650533          	add	a0,a0,t1
800020b8:	01075593          	srli	a1,a4,0x10
800020bc:	00a585b3          	add	a1,a1,a0
800020c0:	00010537          	lui	a0,0x10
800020c4:	fff50513          	addi	a0,a0,-1 # ffff <buflen.2941+0xffbf>
800020c8:	00a77733          	and	a4,a4,a0
800020cc:	01071713          	slli	a4,a4,0x10
800020d0:	00a7f7b3          	and	a5,a5,a0
800020d4:	00f707b3          	add	a5,a4,a5
800020d8:	00b96663          	bltu	s2,a1,800020e4 <__moddi3+0x538>
800020dc:	00b91e63          	bne	s2,a1,800020f8 <__moddi3+0x54c>
800020e0:	00fbfc63          	bgeu	s7,a5,800020f8 <__moddi3+0x54c>
800020e4:	41b78633          	sub	a2,a5,s11
800020e8:	00c7b7b3          	sltu	a5,a5,a2
800020ec:	01a787b3          	add	a5,a5,s10
800020f0:	40f585b3          	sub	a1,a1,a5
800020f4:	00060793          	mv	a5,a2
800020f8:	40fb87b3          	sub	a5,s7,a5
800020fc:	00fbbbb3          	sltu	s7,s7,a5
80002100:	40b905b3          	sub	a1,s2,a1
80002104:	417585b3          	sub	a1,a1,s7
80002108:	01659433          	sll	s0,a1,s6
8000210c:	0147d7b3          	srl	a5,a5,s4
80002110:	00f46533          	or	a0,s0,a5
80002114:	0145d5b3          	srl	a1,a1,s4
80002118:	c19ff06f          	j	80001d30 <__moddi3+0x184>

8000211c <__udivdi3>:
8000211c:	fd010113          	addi	sp,sp,-48
80002120:	02812423          	sw	s0,40(sp)
80002124:	01712623          	sw	s7,12(sp)
80002128:	02112623          	sw	ra,44(sp)
8000212c:	02912223          	sw	s1,36(sp)
80002130:	03212023          	sw	s2,32(sp)
80002134:	01312e23          	sw	s3,28(sp)
80002138:	01412c23          	sw	s4,24(sp)
8000213c:	01512a23          	sw	s5,20(sp)
80002140:	01612823          	sw	s6,16(sp)
80002144:	01812423          	sw	s8,8(sp)
80002148:	01912223          	sw	s9,4(sp)
8000214c:	00050b93          	mv	s7,a0
80002150:	00058413          	mv	s0,a1
80002154:	38069c63          	bnez	a3,800024ec <__udivdi3+0x3d0>
80002158:	800034b7          	lui	s1,0x80003
8000215c:	00060913          	mv	s2,a2
80002160:	00050a13          	mv	s4,a0
80002164:	f8048493          	addi	s1,s1,-128 # 80002f80 <__global_pointer$+0xfffff14c>
80002168:	12c5f863          	bgeu	a1,a2,80002298 <__udivdi3+0x17c>
8000216c:	000107b7          	lui	a5,0x10
80002170:	00058c13          	mv	s8,a1
80002174:	10f67863          	bgeu	a2,a5,80002284 <__udivdi3+0x168>
80002178:	0ff00713          	li	a4,255
8000217c:	00c73733          	sltu	a4,a4,a2
80002180:	00371713          	slli	a4,a4,0x3
80002184:	00e657b3          	srl	a5,a2,a4
80002188:	00f484b3          	add	s1,s1,a5
8000218c:	0004c683          	lbu	a3,0(s1)
80002190:	00e68733          	add	a4,a3,a4
80002194:	02000693          	li	a3,32
80002198:	40e687b3          	sub	a5,a3,a4
8000219c:	00e68c63          	beq	a3,a4,800021b4 <__udivdi3+0x98>
800021a0:	00f41433          	sll	s0,s0,a5
800021a4:	00ebd733          	srl	a4,s7,a4
800021a8:	00f61933          	sll	s2,a2,a5
800021ac:	00876c33          	or	s8,a4,s0
800021b0:	00fb9a33          	sll	s4,s7,a5
800021b4:	01095b13          	srli	s6,s2,0x10
800021b8:	000b0593          	mv	a1,s6
800021bc:	000c0513          	mv	a0,s8
800021c0:	299000ef          	jal	ra,80002c58 <__umodsi3>
800021c4:	00050493          	mv	s1,a0
800021c8:	000b0593          	mv	a1,s6
800021cc:	01091a93          	slli	s5,s2,0x10
800021d0:	000c0513          	mv	a0,s8
800021d4:	23d000ef          	jal	ra,80002c10 <__udivsi3>
800021d8:	010ada93          	srli	s5,s5,0x10
800021dc:	00050413          	mv	s0,a0
800021e0:	00050593          	mv	a1,a0
800021e4:	000a8513          	mv	a0,s5
800021e8:	1fd000ef          	jal	ra,80002be4 <__mulsi3>
800021ec:	01049493          	slli	s1,s1,0x10
800021f0:	010a5713          	srli	a4,s4,0x10
800021f4:	00e4e733          	or	a4,s1,a4
800021f8:	00040993          	mv	s3,s0
800021fc:	00a77e63          	bgeu	a4,a0,80002218 <__udivdi3+0xfc>
80002200:	01270733          	add	a4,a4,s2
80002204:	fff40993          	addi	s3,s0,-1
80002208:	01276863          	bltu	a4,s2,80002218 <__udivdi3+0xfc>
8000220c:	00a77663          	bgeu	a4,a0,80002218 <__udivdi3+0xfc>
80002210:	ffe40993          	addi	s3,s0,-2
80002214:	01270733          	add	a4,a4,s2
80002218:	40a70433          	sub	s0,a4,a0
8000221c:	000b0593          	mv	a1,s6
80002220:	00040513          	mv	a0,s0
80002224:	235000ef          	jal	ra,80002c58 <__umodsi3>
80002228:	00050493          	mv	s1,a0
8000222c:	000b0593          	mv	a1,s6
80002230:	00040513          	mv	a0,s0
80002234:	1dd000ef          	jal	ra,80002c10 <__udivsi3>
80002238:	010a1a13          	slli	s4,s4,0x10
8000223c:	00050413          	mv	s0,a0
80002240:	00050593          	mv	a1,a0
80002244:	01049493          	slli	s1,s1,0x10
80002248:	000a8513          	mv	a0,s5
8000224c:	010a5a13          	srli	s4,s4,0x10
80002250:	195000ef          	jal	ra,80002be4 <__mulsi3>
80002254:	0144ea33          	or	s4,s1,s4
80002258:	00040613          	mv	a2,s0
8000225c:	00aa7c63          	bgeu	s4,a0,80002274 <__udivdi3+0x158>
80002260:	01490a33          	add	s4,s2,s4
80002264:	fff40613          	addi	a2,s0,-1
80002268:	012a6663          	bltu	s4,s2,80002274 <__udivdi3+0x158>
8000226c:	00aa7463          	bgeu	s4,a0,80002274 <__udivdi3+0x158>
80002270:	ffe40613          	addi	a2,s0,-2
80002274:	01099793          	slli	a5,s3,0x10
80002278:	00c7e7b3          	or	a5,a5,a2
8000227c:	00000493          	li	s1,0
80002280:	1300006f          	j	800023b0 <__udivdi3+0x294>
80002284:	010007b7          	lui	a5,0x1000
80002288:	01000713          	li	a4,16
8000228c:	eef66ce3          	bltu	a2,a5,80002184 <__udivdi3+0x68>
80002290:	01800713          	li	a4,24
80002294:	ef1ff06f          	j	80002184 <__udivdi3+0x68>
80002298:	00068993          	mv	s3,a3
8000229c:	00061a63          	bnez	a2,800022b0 <__udivdi3+0x194>
800022a0:	00000593          	li	a1,0
800022a4:	00100513          	li	a0,1
800022a8:	169000ef          	jal	ra,80002c10 <__udivsi3>
800022ac:	00050913          	mv	s2,a0
800022b0:	000107b7          	lui	a5,0x10
800022b4:	12f97c63          	bgeu	s2,a5,800023ec <__udivdi3+0x2d0>
800022b8:	0ff00793          	li	a5,255
800022bc:	0127f463          	bgeu	a5,s2,800022c4 <__udivdi3+0x1a8>
800022c0:	00800993          	li	s3,8
800022c4:	013957b3          	srl	a5,s2,s3
800022c8:	00f484b3          	add	s1,s1,a5
800022cc:	0004c783          	lbu	a5,0(s1)
800022d0:	02000693          	li	a3,32
800022d4:	013787b3          	add	a5,a5,s3
800022d8:	40f68733          	sub	a4,a3,a5
800022dc:	12f69263          	bne	a3,a5,80002400 <__udivdi3+0x2e4>
800022e0:	41240433          	sub	s0,s0,s2
800022e4:	00100493          	li	s1,1
800022e8:	01095a93          	srli	s5,s2,0x10
800022ec:	000a8593          	mv	a1,s5
800022f0:	00040513          	mv	a0,s0
800022f4:	165000ef          	jal	ra,80002c58 <__umodsi3>
800022f8:	00050993          	mv	s3,a0
800022fc:	000a8593          	mv	a1,s5
80002300:	00040513          	mv	a0,s0
80002304:	01091b13          	slli	s6,s2,0x10
80002308:	109000ef          	jal	ra,80002c10 <__udivsi3>
8000230c:	010b5b13          	srli	s6,s6,0x10
80002310:	00050413          	mv	s0,a0
80002314:	00050593          	mv	a1,a0
80002318:	000b0513          	mv	a0,s6
8000231c:	0c9000ef          	jal	ra,80002be4 <__mulsi3>
80002320:	01099993          	slli	s3,s3,0x10
80002324:	010a5713          	srli	a4,s4,0x10
80002328:	00e9e733          	or	a4,s3,a4
8000232c:	00040b93          	mv	s7,s0
80002330:	00a77e63          	bgeu	a4,a0,8000234c <__udivdi3+0x230>
80002334:	01270733          	add	a4,a4,s2
80002338:	fff40b93          	addi	s7,s0,-1
8000233c:	01276863          	bltu	a4,s2,8000234c <__udivdi3+0x230>
80002340:	00a77663          	bgeu	a4,a0,8000234c <__udivdi3+0x230>
80002344:	ffe40b93          	addi	s7,s0,-2
80002348:	01270733          	add	a4,a4,s2
8000234c:	40a70433          	sub	s0,a4,a0
80002350:	000a8593          	mv	a1,s5
80002354:	00040513          	mv	a0,s0
80002358:	101000ef          	jal	ra,80002c58 <__umodsi3>
8000235c:	00050993          	mv	s3,a0
80002360:	000a8593          	mv	a1,s5
80002364:	00040513          	mv	a0,s0
80002368:	0a9000ef          	jal	ra,80002c10 <__udivsi3>
8000236c:	010a1a13          	slli	s4,s4,0x10
80002370:	00050413          	mv	s0,a0
80002374:	00050593          	mv	a1,a0
80002378:	01099993          	slli	s3,s3,0x10
8000237c:	000b0513          	mv	a0,s6
80002380:	010a5a13          	srli	s4,s4,0x10
80002384:	061000ef          	jal	ra,80002be4 <__mulsi3>
80002388:	0149ea33          	or	s4,s3,s4
8000238c:	00040613          	mv	a2,s0
80002390:	00aa7c63          	bgeu	s4,a0,800023a8 <__udivdi3+0x28c>
80002394:	01490a33          	add	s4,s2,s4
80002398:	fff40613          	addi	a2,s0,-1
8000239c:	012a6663          	bltu	s4,s2,800023a8 <__udivdi3+0x28c>
800023a0:	00aa7463          	bgeu	s4,a0,800023a8 <__udivdi3+0x28c>
800023a4:	ffe40613          	addi	a2,s0,-2
800023a8:	010b9793          	slli	a5,s7,0x10
800023ac:	00c7e7b3          	or	a5,a5,a2
800023b0:	00078513          	mv	a0,a5
800023b4:	00048593          	mv	a1,s1
800023b8:	02c12083          	lw	ra,44(sp)
800023bc:	02812403          	lw	s0,40(sp)
800023c0:	02412483          	lw	s1,36(sp)
800023c4:	02012903          	lw	s2,32(sp)
800023c8:	01c12983          	lw	s3,28(sp)
800023cc:	01812a03          	lw	s4,24(sp)
800023d0:	01412a83          	lw	s5,20(sp)
800023d4:	01012b03          	lw	s6,16(sp)
800023d8:	00c12b83          	lw	s7,12(sp)
800023dc:	00812c03          	lw	s8,8(sp)
800023e0:	00412c83          	lw	s9,4(sp)
800023e4:	03010113          	addi	sp,sp,48
800023e8:	00008067          	ret
800023ec:	010007b7          	lui	a5,0x1000
800023f0:	01000993          	li	s3,16
800023f4:	ecf968e3          	bltu	s2,a5,800022c4 <__udivdi3+0x1a8>
800023f8:	01800993          	li	s3,24
800023fc:	ec9ff06f          	j	800022c4 <__udivdi3+0x1a8>
80002400:	00e91933          	sll	s2,s2,a4
80002404:	00f459b3          	srl	s3,s0,a5
80002408:	00fbd7b3          	srl	a5,s7,a5
8000240c:	00e41433          	sll	s0,s0,a4
80002410:	0087eab3          	or	s5,a5,s0
80002414:	01095413          	srli	s0,s2,0x10
80002418:	00040593          	mv	a1,s0
8000241c:	00098513          	mv	a0,s3
80002420:	00eb9a33          	sll	s4,s7,a4
80002424:	035000ef          	jal	ra,80002c58 <__umodsi3>
80002428:	00050493          	mv	s1,a0
8000242c:	00040593          	mv	a1,s0
80002430:	00098513          	mv	a0,s3
80002434:	01091b13          	slli	s6,s2,0x10
80002438:	7d8000ef          	jal	ra,80002c10 <__udivsi3>
8000243c:	010b5b13          	srli	s6,s6,0x10
80002440:	00050993          	mv	s3,a0
80002444:	00050593          	mv	a1,a0
80002448:	000b0513          	mv	a0,s6
8000244c:	798000ef          	jal	ra,80002be4 <__mulsi3>
80002450:	01049493          	slli	s1,s1,0x10
80002454:	010ad793          	srli	a5,s5,0x10
80002458:	00f4e7b3          	or	a5,s1,a5
8000245c:	00098b93          	mv	s7,s3
80002460:	00a7fe63          	bgeu	a5,a0,8000247c <__udivdi3+0x360>
80002464:	012787b3          	add	a5,a5,s2
80002468:	fff98b93          	addi	s7,s3,-1
8000246c:	0127e863          	bltu	a5,s2,8000247c <__udivdi3+0x360>
80002470:	00a7f663          	bgeu	a5,a0,8000247c <__udivdi3+0x360>
80002474:	ffe98b93          	addi	s7,s3,-2
80002478:	012787b3          	add	a5,a5,s2
8000247c:	40a789b3          	sub	s3,a5,a0
80002480:	00040593          	mv	a1,s0
80002484:	00098513          	mv	a0,s3
80002488:	7d0000ef          	jal	ra,80002c58 <__umodsi3>
8000248c:	00040593          	mv	a1,s0
80002490:	00050493          	mv	s1,a0
80002494:	00098513          	mv	a0,s3
80002498:	778000ef          	jal	ra,80002c10 <__udivsi3>
8000249c:	010a9413          	slli	s0,s5,0x10
800024a0:	00050993          	mv	s3,a0
800024a4:	00050593          	mv	a1,a0
800024a8:	01049493          	slli	s1,s1,0x10
800024ac:	000b0513          	mv	a0,s6
800024b0:	01045413          	srli	s0,s0,0x10
800024b4:	730000ef          	jal	ra,80002be4 <__mulsi3>
800024b8:	0084e433          	or	s0,s1,s0
800024bc:	00098793          	mv	a5,s3
800024c0:	00a47e63          	bgeu	s0,a0,800024dc <__udivdi3+0x3c0>
800024c4:	01240433          	add	s0,s0,s2
800024c8:	fff98793          	addi	a5,s3,-1
800024cc:	01246863          	bltu	s0,s2,800024dc <__udivdi3+0x3c0>
800024d0:	00a47663          	bgeu	s0,a0,800024dc <__udivdi3+0x3c0>
800024d4:	ffe98793          	addi	a5,s3,-2
800024d8:	01240433          	add	s0,s0,s2
800024dc:	010b9493          	slli	s1,s7,0x10
800024e0:	40a40433          	sub	s0,s0,a0
800024e4:	00f4e4b3          	or	s1,s1,a5
800024e8:	e01ff06f          	j	800022e8 <__udivdi3+0x1cc>
800024ec:	1ed5ee63          	bltu	a1,a3,800026e8 <__udivdi3+0x5cc>
800024f0:	000107b7          	lui	a5,0x10
800024f4:	04f6f463          	bgeu	a3,a5,8000253c <__udivdi3+0x420>
800024f8:	0ff00a93          	li	s5,255
800024fc:	00dab733          	sltu	a4,s5,a3
80002500:	00371713          	slli	a4,a4,0x3
80002504:	800037b7          	lui	a5,0x80003
80002508:	00e6d5b3          	srl	a1,a3,a4
8000250c:	f8078793          	addi	a5,a5,-128 # 80002f80 <__global_pointer$+0xfffff14c>
80002510:	00b787b3          	add	a5,a5,a1
80002514:	0007ca83          	lbu	s5,0(a5)
80002518:	02000793          	li	a5,32
8000251c:	00ea8ab3          	add	s5,s5,a4
80002520:	415784b3          	sub	s1,a5,s5
80002524:	03579663          	bne	a5,s5,80002550 <__udivdi3+0x434>
80002528:	00100793          	li	a5,1
8000252c:	e886e2e3          	bltu	a3,s0,800023b0 <__udivdi3+0x294>
80002530:	00cbb7b3          	sltu	a5,s7,a2
80002534:	0017c793          	xori	a5,a5,1
80002538:	e79ff06f          	j	800023b0 <__udivdi3+0x294>
8000253c:	010007b7          	lui	a5,0x1000
80002540:	01000713          	li	a4,16
80002544:	fcf6e0e3          	bltu	a3,a5,80002504 <__udivdi3+0x3e8>
80002548:	01800713          	li	a4,24
8000254c:	fb9ff06f          	j	80002504 <__udivdi3+0x3e8>
80002550:	01565cb3          	srl	s9,a2,s5
80002554:	009696b3          	sll	a3,a3,s1
80002558:	00dcecb3          	or	s9,s9,a3
8000255c:	015459b3          	srl	s3,s0,s5
80002560:	00941433          	sll	s0,s0,s1
80002564:	015bdab3          	srl	s5,s7,s5
80002568:	008aeab3          	or	s5,s5,s0
8000256c:	010cd413          	srli	s0,s9,0x10
80002570:	00040593          	mv	a1,s0
80002574:	00098513          	mv	a0,s3
80002578:	00961933          	sll	s2,a2,s1
8000257c:	6dc000ef          	jal	ra,80002c58 <__umodsi3>
80002580:	00050a13          	mv	s4,a0
80002584:	00040593          	mv	a1,s0
80002588:	00098513          	mv	a0,s3
8000258c:	010c9b13          	slli	s6,s9,0x10
80002590:	680000ef          	jal	ra,80002c10 <__udivsi3>
80002594:	010b5b13          	srli	s6,s6,0x10
80002598:	00050993          	mv	s3,a0
8000259c:	00050593          	mv	a1,a0
800025a0:	000b0513          	mv	a0,s6
800025a4:	640000ef          	jal	ra,80002be4 <__mulsi3>
800025a8:	010a1a13          	slli	s4,s4,0x10
800025ac:	010ad713          	srli	a4,s5,0x10
800025b0:	00ea6733          	or	a4,s4,a4
800025b4:	00098c13          	mv	s8,s3
800025b8:	00a77e63          	bgeu	a4,a0,800025d4 <__udivdi3+0x4b8>
800025bc:	01970733          	add	a4,a4,s9
800025c0:	fff98c13          	addi	s8,s3,-1
800025c4:	01976863          	bltu	a4,s9,800025d4 <__udivdi3+0x4b8>
800025c8:	00a77663          	bgeu	a4,a0,800025d4 <__udivdi3+0x4b8>
800025cc:	ffe98c13          	addi	s8,s3,-2
800025d0:	01970733          	add	a4,a4,s9
800025d4:	40a709b3          	sub	s3,a4,a0
800025d8:	00040593          	mv	a1,s0
800025dc:	00098513          	mv	a0,s3
800025e0:	678000ef          	jal	ra,80002c58 <__umodsi3>
800025e4:	00040593          	mv	a1,s0
800025e8:	00050a13          	mv	s4,a0
800025ec:	00098513          	mv	a0,s3
800025f0:	620000ef          	jal	ra,80002c10 <__udivsi3>
800025f4:	010a9413          	slli	s0,s5,0x10
800025f8:	00050993          	mv	s3,a0
800025fc:	00050593          	mv	a1,a0
80002600:	010a1a13          	slli	s4,s4,0x10
80002604:	000b0513          	mv	a0,s6
80002608:	01045413          	srli	s0,s0,0x10
8000260c:	5d8000ef          	jal	ra,80002be4 <__mulsi3>
80002610:	008a6433          	or	s0,s4,s0
80002614:	00098613          	mv	a2,s3
80002618:	00a47e63          	bgeu	s0,a0,80002634 <__udivdi3+0x518>
8000261c:	01940433          	add	s0,s0,s9
80002620:	fff98613          	addi	a2,s3,-1
80002624:	01946863          	bltu	s0,s9,80002634 <__udivdi3+0x518>
80002628:	00a47663          	bgeu	s0,a0,80002634 <__udivdi3+0x518>
8000262c:	ffe98613          	addi	a2,s3,-2
80002630:	01940433          	add	s0,s0,s9
80002634:	010c1793          	slli	a5,s8,0x10
80002638:	00010e37          	lui	t3,0x10
8000263c:	00c7e7b3          	or	a5,a5,a2
80002640:	fffe0313          	addi	t1,t3,-1 # ffff <buflen.2941+0xffbf>
80002644:	0067f8b3          	and	a7,a5,t1
80002648:	00697333          	and	t1,s2,t1
8000264c:	40a40433          	sub	s0,s0,a0
80002650:	0107de93          	srli	t4,a5,0x10
80002654:	01095913          	srli	s2,s2,0x10
80002658:	00088513          	mv	a0,a7
8000265c:	00030593          	mv	a1,t1
80002660:	584000ef          	jal	ra,80002be4 <__mulsi3>
80002664:	00050813          	mv	a6,a0
80002668:	00090593          	mv	a1,s2
8000266c:	00088513          	mv	a0,a7
80002670:	574000ef          	jal	ra,80002be4 <__mulsi3>
80002674:	00050893          	mv	a7,a0
80002678:	00030593          	mv	a1,t1
8000267c:	000e8513          	mv	a0,t4
80002680:	564000ef          	jal	ra,80002be4 <__mulsi3>
80002684:	00050313          	mv	t1,a0
80002688:	00090593          	mv	a1,s2
8000268c:	000e8513          	mv	a0,t4
80002690:	554000ef          	jal	ra,80002be4 <__mulsi3>
80002694:	01085713          	srli	a4,a6,0x10
80002698:	006888b3          	add	a7,a7,t1
8000269c:	01170733          	add	a4,a4,a7
800026a0:	00050693          	mv	a3,a0
800026a4:	00677463          	bgeu	a4,t1,800026ac <__udivdi3+0x590>
800026a8:	01c506b3          	add	a3,a0,t3
800026ac:	01075513          	srli	a0,a4,0x10
800026b0:	00d506b3          	add	a3,a0,a3
800026b4:	02d46663          	bltu	s0,a3,800026e0 <__udivdi3+0x5c4>
800026b8:	bcd412e3          	bne	s0,a3,8000227c <__udivdi3+0x160>
800026bc:	00010537          	lui	a0,0x10
800026c0:	fff50513          	addi	a0,a0,-1 # ffff <buflen.2941+0xffbf>
800026c4:	00a77733          	and	a4,a4,a0
800026c8:	01071713          	slli	a4,a4,0x10
800026cc:	00a87833          	and	a6,a6,a0
800026d0:	009b9bb3          	sll	s7,s7,s1
800026d4:	01070733          	add	a4,a4,a6
800026d8:	00000493          	li	s1,0
800026dc:	ccebfae3          	bgeu	s7,a4,800023b0 <__udivdi3+0x294>
800026e0:	fff78793          	addi	a5,a5,-1 # ffffff <buflen.2941+0xffffbf>
800026e4:	b99ff06f          	j	8000227c <__udivdi3+0x160>
800026e8:	00000493          	li	s1,0
800026ec:	00000793          	li	a5,0
800026f0:	cc1ff06f          	j	800023b0 <__udivdi3+0x294>

800026f4 <__umoddi3>:
800026f4:	fd010113          	addi	sp,sp,-48
800026f8:	02812423          	sw	s0,40(sp)
800026fc:	02912223          	sw	s1,36(sp)
80002700:	03212023          	sw	s2,32(sp)
80002704:	01612823          	sw	s6,16(sp)
80002708:	02112623          	sw	ra,44(sp)
8000270c:	01312e23          	sw	s3,28(sp)
80002710:	01412c23          	sw	s4,24(sp)
80002714:	01512a23          	sw	s5,20(sp)
80002718:	01712623          	sw	s7,12(sp)
8000271c:	01812423          	sw	s8,8(sp)
80002720:	01912223          	sw	s9,4(sp)
80002724:	01a12023          	sw	s10,0(sp)
80002728:	00050913          	mv	s2,a0
8000272c:	00058b13          	mv	s6,a1
80002730:	00050413          	mv	s0,a0
80002734:	00058493          	mv	s1,a1
80002738:	26069c63          	bnez	a3,800029b0 <__umoddi3+0x2bc>
8000273c:	80003ab7          	lui	s5,0x80003
80002740:	00060a13          	mv	s4,a2
80002744:	00068993          	mv	s3,a3
80002748:	f80a8a93          	addi	s5,s5,-128 # 80002f80 <__global_pointer$+0xfffff14c>
8000274c:	14c5f263          	bgeu	a1,a2,80002890 <__umoddi3+0x19c>
80002750:	000107b7          	lui	a5,0x10
80002754:	12f67463          	bgeu	a2,a5,8000287c <__umoddi3+0x188>
80002758:	0ff00793          	li	a5,255
8000275c:	00c7f463          	bgeu	a5,a2,80002764 <__umoddi3+0x70>
80002760:	00800993          	li	s3,8
80002764:	013657b3          	srl	a5,a2,s3
80002768:	00fa8ab3          	add	s5,s5,a5
8000276c:	000ac783          	lbu	a5,0(s5)
80002770:	02000713          	li	a4,32
80002774:	013787b3          	add	a5,a5,s3
80002778:	40f709b3          	sub	s3,a4,a5
8000277c:	00f70c63          	beq	a4,a5,80002794 <__umoddi3+0xa0>
80002780:	013b15b3          	sll	a1,s6,s3
80002784:	00f957b3          	srl	a5,s2,a5
80002788:	01361a33          	sll	s4,a2,s3
8000278c:	00b7e4b3          	or	s1,a5,a1
80002790:	01391433          	sll	s0,s2,s3
80002794:	010a5a93          	srli	s5,s4,0x10
80002798:	000a8593          	mv	a1,s5
8000279c:	00048513          	mv	a0,s1
800027a0:	4b8000ef          	jal	ra,80002c58 <__umodsi3>
800027a4:	00050913          	mv	s2,a0
800027a8:	000a8593          	mv	a1,s5
800027ac:	010a1b13          	slli	s6,s4,0x10
800027b0:	00048513          	mv	a0,s1
800027b4:	45c000ef          	jal	ra,80002c10 <__udivsi3>
800027b8:	010b5b13          	srli	s6,s6,0x10
800027bc:	00050593          	mv	a1,a0
800027c0:	000b0513          	mv	a0,s6
800027c4:	420000ef          	jal	ra,80002be4 <__mulsi3>
800027c8:	01091913          	slli	s2,s2,0x10
800027cc:	01045793          	srli	a5,s0,0x10
800027d0:	00f967b3          	or	a5,s2,a5
800027d4:	00a7fa63          	bgeu	a5,a0,800027e8 <__umoddi3+0xf4>
800027d8:	014787b3          	add	a5,a5,s4
800027dc:	0147e663          	bltu	a5,s4,800027e8 <__umoddi3+0xf4>
800027e0:	00a7f463          	bgeu	a5,a0,800027e8 <__umoddi3+0xf4>
800027e4:	014787b3          	add	a5,a5,s4
800027e8:	40a784b3          	sub	s1,a5,a0
800027ec:	000a8593          	mv	a1,s5
800027f0:	00048513          	mv	a0,s1
800027f4:	464000ef          	jal	ra,80002c58 <__umodsi3>
800027f8:	00050913          	mv	s2,a0
800027fc:	000a8593          	mv	a1,s5
80002800:	00048513          	mv	a0,s1
80002804:	40c000ef          	jal	ra,80002c10 <__udivsi3>
80002808:	01041413          	slli	s0,s0,0x10
8000280c:	00050593          	mv	a1,a0
80002810:	01091913          	slli	s2,s2,0x10
80002814:	000b0513          	mv	a0,s6
80002818:	01045413          	srli	s0,s0,0x10
8000281c:	3c8000ef          	jal	ra,80002be4 <__mulsi3>
80002820:	00896433          	or	s0,s2,s0
80002824:	00a47a63          	bgeu	s0,a0,80002838 <__umoddi3+0x144>
80002828:	01440433          	add	s0,s0,s4
8000282c:	01446663          	bltu	s0,s4,80002838 <__umoddi3+0x144>
80002830:	00a47463          	bgeu	s0,a0,80002838 <__umoddi3+0x144>
80002834:	01440433          	add	s0,s0,s4
80002838:	40a40433          	sub	s0,s0,a0
8000283c:	01345533          	srl	a0,s0,s3
80002840:	00000593          	li	a1,0
80002844:	02c12083          	lw	ra,44(sp)
80002848:	02812403          	lw	s0,40(sp)
8000284c:	02412483          	lw	s1,36(sp)
80002850:	02012903          	lw	s2,32(sp)
80002854:	01c12983          	lw	s3,28(sp)
80002858:	01812a03          	lw	s4,24(sp)
8000285c:	01412a83          	lw	s5,20(sp)
80002860:	01012b03          	lw	s6,16(sp)
80002864:	00c12b83          	lw	s7,12(sp)
80002868:	00812c03          	lw	s8,8(sp)
8000286c:	00412c83          	lw	s9,4(sp)
80002870:	00012d03          	lw	s10,0(sp)
80002874:	03010113          	addi	sp,sp,48
80002878:	00008067          	ret
8000287c:	010007b7          	lui	a5,0x1000
80002880:	01000993          	li	s3,16
80002884:	eef660e3          	bltu	a2,a5,80002764 <__umoddi3+0x70>
80002888:	01800993          	li	s3,24
8000288c:	ed9ff06f          	j	80002764 <__umoddi3+0x70>
80002890:	00061a63          	bnez	a2,800028a4 <__umoddi3+0x1b0>
80002894:	00000593          	li	a1,0
80002898:	00100513          	li	a0,1
8000289c:	374000ef          	jal	ra,80002c10 <__udivsi3>
800028a0:	00050a13          	mv	s4,a0
800028a4:	000107b7          	lui	a5,0x10
800028a8:	0efa7a63          	bgeu	s4,a5,8000299c <__umoddi3+0x2a8>
800028ac:	0ff00793          	li	a5,255
800028b0:	0147f463          	bgeu	a5,s4,800028b8 <__umoddi3+0x1c4>
800028b4:	00800993          	li	s3,8
800028b8:	013a57b3          	srl	a5,s4,s3
800028bc:	00fa8ab3          	add	s5,s5,a5
800028c0:	000ac783          	lbu	a5,0(s5)
800028c4:	02000713          	li	a4,32
800028c8:	414b04b3          	sub	s1,s6,s4
800028cc:	013787b3          	add	a5,a5,s3
800028d0:	40f709b3          	sub	s3,a4,a5
800028d4:	ecf700e3          	beq	a4,a5,80002794 <__umoddi3+0xa0>
800028d8:	013a1a33          	sll	s4,s4,s3
800028dc:	00fb5ab3          	srl	s5,s6,a5
800028e0:	013b15b3          	sll	a1,s6,s3
800028e4:	00f957b3          	srl	a5,s2,a5
800028e8:	010a5493          	srli	s1,s4,0x10
800028ec:	00b7eb33          	or	s6,a5,a1
800028f0:	000a8513          	mv	a0,s5
800028f4:	00048593          	mv	a1,s1
800028f8:	360000ef          	jal	ra,80002c58 <__umodsi3>
800028fc:	00048593          	mv	a1,s1
80002900:	01391433          	sll	s0,s2,s3
80002904:	010a1b93          	slli	s7,s4,0x10
80002908:	00050913          	mv	s2,a0
8000290c:	000a8513          	mv	a0,s5
80002910:	300000ef          	jal	ra,80002c10 <__udivsi3>
80002914:	010bdb93          	srli	s7,s7,0x10
80002918:	00050593          	mv	a1,a0
8000291c:	000b8513          	mv	a0,s7
80002920:	2c4000ef          	jal	ra,80002be4 <__mulsi3>
80002924:	01091913          	slli	s2,s2,0x10
80002928:	010b5793          	srli	a5,s6,0x10
8000292c:	00f967b3          	or	a5,s2,a5
80002930:	00a7fa63          	bgeu	a5,a0,80002944 <__umoddi3+0x250>
80002934:	014787b3          	add	a5,a5,s4
80002938:	0147e663          	bltu	a5,s4,80002944 <__umoddi3+0x250>
8000293c:	00a7f463          	bgeu	a5,a0,80002944 <__umoddi3+0x250>
80002940:	014787b3          	add	a5,a5,s4
80002944:	40a78ab3          	sub	s5,a5,a0
80002948:	00048593          	mv	a1,s1
8000294c:	000a8513          	mv	a0,s5
80002950:	308000ef          	jal	ra,80002c58 <__umodsi3>
80002954:	00050913          	mv	s2,a0
80002958:	00048593          	mv	a1,s1
8000295c:	000a8513          	mv	a0,s5
80002960:	2b0000ef          	jal	ra,80002c10 <__udivsi3>
80002964:	00050593          	mv	a1,a0
80002968:	000b8513          	mv	a0,s7
8000296c:	278000ef          	jal	ra,80002be4 <__mulsi3>
80002970:	010b1593          	slli	a1,s6,0x10
80002974:	01091913          	slli	s2,s2,0x10
80002978:	0105d593          	srli	a1,a1,0x10
8000297c:	00b965b3          	or	a1,s2,a1
80002980:	00a5fa63          	bgeu	a1,a0,80002994 <__umoddi3+0x2a0>
80002984:	014585b3          	add	a1,a1,s4
80002988:	0145e663          	bltu	a1,s4,80002994 <__umoddi3+0x2a0>
8000298c:	00a5f463          	bgeu	a1,a0,80002994 <__umoddi3+0x2a0>
80002990:	014585b3          	add	a1,a1,s4
80002994:	40a584b3          	sub	s1,a1,a0
80002998:	dfdff06f          	j	80002794 <__umoddi3+0xa0>
8000299c:	010007b7          	lui	a5,0x1000
800029a0:	01000993          	li	s3,16
800029a4:	f0fa6ae3          	bltu	s4,a5,800028b8 <__umoddi3+0x1c4>
800029a8:	01800993          	li	s3,24
800029ac:	f0dff06f          	j	800028b8 <__umoddi3+0x1c4>
800029b0:	e8d5eae3          	bltu	a1,a3,80002844 <__umoddi3+0x150>
800029b4:	000107b7          	lui	a5,0x10
800029b8:	04f6fc63          	bgeu	a3,a5,80002a10 <__umoddi3+0x31c>
800029bc:	0ff00a93          	li	s5,255
800029c0:	00dab533          	sltu	a0,s5,a3
800029c4:	00351513          	slli	a0,a0,0x3
800029c8:	800037b7          	lui	a5,0x80003
800029cc:	00a6d733          	srl	a4,a3,a0
800029d0:	f8078793          	addi	a5,a5,-128 # 80002f80 <__global_pointer$+0xfffff14c>
800029d4:	00e787b3          	add	a5,a5,a4
800029d8:	0007ca83          	lbu	s5,0(a5)
800029dc:	02000793          	li	a5,32
800029e0:	00aa8ab3          	add	s5,s5,a0
800029e4:	41578a33          	sub	s4,a5,s5
800029e8:	03579e63          	bne	a5,s5,80002a24 <__umoddi3+0x330>
800029ec:	0166e463          	bltu	a3,s6,800029f4 <__umoddi3+0x300>
800029f0:	00c96a63          	bltu	s2,a2,80002a04 <__umoddi3+0x310>
800029f4:	40c90433          	sub	s0,s2,a2
800029f8:	40db05b3          	sub	a1,s6,a3
800029fc:	008934b3          	sltu	s1,s2,s0
80002a00:	409584b3          	sub	s1,a1,s1
80002a04:	00040513          	mv	a0,s0
80002a08:	00048593          	mv	a1,s1
80002a0c:	e39ff06f          	j	80002844 <__umoddi3+0x150>
80002a10:	010007b7          	lui	a5,0x1000
80002a14:	01000513          	li	a0,16
80002a18:	faf6e8e3          	bltu	a3,a5,800029c8 <__umoddi3+0x2d4>
80002a1c:	01800513          	li	a0,24
80002a20:	fa9ff06f          	j	800029c8 <__umoddi3+0x2d4>
80002a24:	014696b3          	sll	a3,a3,s4
80002a28:	015657b3          	srl	a5,a2,s5
80002a2c:	00d7ecb3          	or	s9,a5,a3
80002a30:	015b5433          	srl	s0,s6,s5
80002a34:	014b15b3          	sll	a1,s6,s4
80002a38:	010cdb93          	srli	s7,s9,0x10
80002a3c:	01595b33          	srl	s6,s2,s5
80002a40:	00bb6b33          	or	s6,s6,a1
80002a44:	00040513          	mv	a0,s0
80002a48:	000b8593          	mv	a1,s7
80002a4c:	01461d33          	sll	s10,a2,s4
80002a50:	208000ef          	jal	ra,80002c58 <__umodsi3>
80002a54:	00050993          	mv	s3,a0
80002a58:	000b8593          	mv	a1,s7
80002a5c:	00040513          	mv	a0,s0
80002a60:	010c9c13          	slli	s8,s9,0x10
80002a64:	1ac000ef          	jal	ra,80002c10 <__udivsi3>
80002a68:	010c5c13          	srli	s8,s8,0x10
80002a6c:	00050593          	mv	a1,a0
80002a70:	014914b3          	sll	s1,s2,s4
80002a74:	00050913          	mv	s2,a0
80002a78:	000c0513          	mv	a0,s8
80002a7c:	168000ef          	jal	ra,80002be4 <__mulsi3>
80002a80:	01099993          	slli	s3,s3,0x10
80002a84:	010b5713          	srli	a4,s6,0x10
80002a88:	00e9e733          	or	a4,s3,a4
80002a8c:	00090413          	mv	s0,s2
80002a90:	00a77e63          	bgeu	a4,a0,80002aac <__umoddi3+0x3b8>
80002a94:	01970733          	add	a4,a4,s9
80002a98:	fff90413          	addi	s0,s2,-1
80002a9c:	01976863          	bltu	a4,s9,80002aac <__umoddi3+0x3b8>
80002aa0:	00a77663          	bgeu	a4,a0,80002aac <__umoddi3+0x3b8>
80002aa4:	ffe90413          	addi	s0,s2,-2
80002aa8:	01970733          	add	a4,a4,s9
80002aac:	40a70933          	sub	s2,a4,a0
80002ab0:	000b8593          	mv	a1,s7
80002ab4:	00090513          	mv	a0,s2
80002ab8:	1a0000ef          	jal	ra,80002c58 <__umodsi3>
80002abc:	00050993          	mv	s3,a0
80002ac0:	000b8593          	mv	a1,s7
80002ac4:	00090513          	mv	a0,s2
80002ac8:	148000ef          	jal	ra,80002c10 <__udivsi3>
80002acc:	00050913          	mv	s2,a0
80002ad0:	00050593          	mv	a1,a0
80002ad4:	000c0513          	mv	a0,s8
80002ad8:	10c000ef          	jal	ra,80002be4 <__mulsi3>
80002adc:	010b1713          	slli	a4,s6,0x10
80002ae0:	01099993          	slli	s3,s3,0x10
80002ae4:	01075713          	srli	a4,a4,0x10
80002ae8:	00e9e733          	or	a4,s3,a4
80002aec:	00090793          	mv	a5,s2
80002af0:	00a77e63          	bgeu	a4,a0,80002b0c <__umoddi3+0x418>
80002af4:	01970733          	add	a4,a4,s9
80002af8:	fff90793          	addi	a5,s2,-1
80002afc:	01976863          	bltu	a4,s9,80002b0c <__umoddi3+0x418>
80002b00:	00a77663          	bgeu	a4,a0,80002b0c <__umoddi3+0x418>
80002b04:	ffe90793          	addi	a5,s2,-2
80002b08:	01970733          	add	a4,a4,s9
80002b0c:	00010eb7          	lui	t4,0x10
80002b10:	01041413          	slli	s0,s0,0x10
80002b14:	40a70833          	sub	a6,a4,a0
80002b18:	00f46433          	or	s0,s0,a5
80002b1c:	fffe8713          	addi	a4,t4,-1 # ffff <buflen.2941+0xffbf>
80002b20:	00e478b3          	and	a7,s0,a4
80002b24:	00ed7733          	and	a4,s10,a4
80002b28:	01045413          	srli	s0,s0,0x10
80002b2c:	010d5e13          	srli	t3,s10,0x10
80002b30:	00088513          	mv	a0,a7
80002b34:	00070593          	mv	a1,a4
80002b38:	0ac000ef          	jal	ra,80002be4 <__mulsi3>
80002b3c:	00050793          	mv	a5,a0
80002b40:	000e0593          	mv	a1,t3
80002b44:	00088513          	mv	a0,a7
80002b48:	09c000ef          	jal	ra,80002be4 <__mulsi3>
80002b4c:	00050893          	mv	a7,a0
80002b50:	00070593          	mv	a1,a4
80002b54:	00040513          	mv	a0,s0
80002b58:	08c000ef          	jal	ra,80002be4 <__mulsi3>
80002b5c:	00050313          	mv	t1,a0
80002b60:	000e0593          	mv	a1,t3
80002b64:	00040513          	mv	a0,s0
80002b68:	07c000ef          	jal	ra,80002be4 <__mulsi3>
80002b6c:	0107d713          	srli	a4,a5,0x10
80002b70:	006888b3          	add	a7,a7,t1
80002b74:	01170733          	add	a4,a4,a7
80002b78:	00677463          	bgeu	a4,t1,80002b80 <__umoddi3+0x48c>
80002b7c:	01d50533          	add	a0,a0,t4
80002b80:	01075593          	srli	a1,a4,0x10
80002b84:	00a585b3          	add	a1,a1,a0
80002b88:	00010537          	lui	a0,0x10
80002b8c:	fff50513          	addi	a0,a0,-1 # ffff <buflen.2941+0xffbf>
80002b90:	00a77733          	and	a4,a4,a0
80002b94:	01071713          	slli	a4,a4,0x10
80002b98:	00a7f7b3          	and	a5,a5,a0
80002b9c:	00f707b3          	add	a5,a4,a5
80002ba0:	00b86663          	bltu	a6,a1,80002bac <__umoddi3+0x4b8>
80002ba4:	00b81e63          	bne	a6,a1,80002bc0 <__umoddi3+0x4cc>
80002ba8:	00f4fc63          	bgeu	s1,a5,80002bc0 <__umoddi3+0x4cc>
80002bac:	41a78633          	sub	a2,a5,s10
80002bb0:	00c7b7b3          	sltu	a5,a5,a2
80002bb4:	019787b3          	add	a5,a5,s9
80002bb8:	40f585b3          	sub	a1,a1,a5
80002bbc:	00060793          	mv	a5,a2
80002bc0:	40f487b3          	sub	a5,s1,a5
80002bc4:	00f4b4b3          	sltu	s1,s1,a5
80002bc8:	40b805b3          	sub	a1,a6,a1
80002bcc:	409585b3          	sub	a1,a1,s1
80002bd0:	01559433          	sll	s0,a1,s5
80002bd4:	0147d7b3          	srl	a5,a5,s4
80002bd8:	00f46533          	or	a0,s0,a5
80002bdc:	0145d5b3          	srl	a1,a1,s4
80002be0:	c65ff06f          	j	80002844 <__umoddi3+0x150>

80002be4 <__mulsi3>:
80002be4:	00050613          	mv	a2,a0
80002be8:	00000513          	li	a0,0
80002bec:	0015f693          	andi	a3,a1,1
80002bf0:	00068463          	beqz	a3,80002bf8 <__mulsi3+0x14>
80002bf4:	00c50533          	add	a0,a0,a2
80002bf8:	0015d593          	srli	a1,a1,0x1
80002bfc:	00161613          	slli	a2,a2,0x1
80002c00:	fe0596e3          	bnez	a1,80002bec <__mulsi3+0x8>
80002c04:	00008067          	ret

80002c08 <__divsi3>:
80002c08:	06054063          	bltz	a0,80002c68 <__umodsi3+0x10>
80002c0c:	0605c663          	bltz	a1,80002c78 <__umodsi3+0x20>

80002c10 <__udivsi3>:
80002c10:	00058613          	mv	a2,a1
80002c14:	00050593          	mv	a1,a0
80002c18:	fff00513          	li	a0,-1
80002c1c:	02060c63          	beqz	a2,80002c54 <__udivsi3+0x44>
80002c20:	00100693          	li	a3,1
80002c24:	00b67a63          	bgeu	a2,a1,80002c38 <__udivsi3+0x28>
80002c28:	00c05863          	blez	a2,80002c38 <__udivsi3+0x28>
80002c2c:	00161613          	slli	a2,a2,0x1
80002c30:	00169693          	slli	a3,a3,0x1
80002c34:	feb66ae3          	bltu	a2,a1,80002c28 <__udivsi3+0x18>
80002c38:	00000513          	li	a0,0
80002c3c:	00c5e663          	bltu	a1,a2,80002c48 <__udivsi3+0x38>
80002c40:	40c585b3          	sub	a1,a1,a2
80002c44:	00d56533          	or	a0,a0,a3
80002c48:	0016d693          	srli	a3,a3,0x1
80002c4c:	00165613          	srli	a2,a2,0x1
80002c50:	fe0696e3          	bnez	a3,80002c3c <__udivsi3+0x2c>
80002c54:	00008067          	ret

80002c58 <__umodsi3>:
80002c58:	00008293          	mv	t0,ra
80002c5c:	fb5ff0ef          	jal	ra,80002c10 <__udivsi3>
80002c60:	00058513          	mv	a0,a1
80002c64:	00028067          	jr	t0
80002c68:	40a00533          	neg	a0,a0
80002c6c:	0005d863          	bgez	a1,80002c7c <__umodsi3+0x24>
80002c70:	40b005b3          	neg	a1,a1
80002c74:	f9dff06f          	j	80002c10 <__udivsi3>
80002c78:	40b005b3          	neg	a1,a1
80002c7c:	00008293          	mv	t0,ra
80002c80:	f91ff0ef          	jal	ra,80002c10 <__udivsi3>
80002c84:	40a00533          	neg	a0,a0
80002c88:	00028067          	jr	t0

80002c8c <__modsi3>:
80002c8c:	00008293          	mv	t0,ra
80002c90:	0005ca63          	bltz	a1,80002ca4 <__modsi3+0x18>
80002c94:	00054c63          	bltz	a0,80002cac <__modsi3+0x20>
80002c98:	f79ff0ef          	jal	ra,80002c10 <__udivsi3>
80002c9c:	00058513          	mv	a0,a1
80002ca0:	00028067          	jr	t0
80002ca4:	40b005b3          	neg	a1,a1
80002ca8:	fe0558e3          	bgez	a0,80002c98 <__modsi3+0xc>
80002cac:	40a00533          	neg	a0,a0
80002cb0:	f61ff0ef          	jal	ra,80002c10 <__udivsi3>
80002cb4:	40b00533          	neg	a0,a1
80002cb8:	00028067          	jr	t0

Disassembly of section .text.startup:

80002cbc <main>:
80002cbc:	e5010113          	addi	sp,sp,-432
80002cc0:	1a812423          	sw	s0,424(sp)
80002cc4:	1b212023          	sw	s2,416(sp)
80002cc8:	19612823          	sw	s6,400(sp)
80002ccc:	00000917          	auipc	s2,0x0
80002cd0:	64890913          	addi	s2,s2,1608 # 80003314 <input_data2>
80002cd4:	00000417          	auipc	s0,0x0
80002cd8:	4b040413          	addi	s0,s0,1200 # 80003184 <input_data1>
80002cdc:	00010b13          	mv	s6,sp
80002ce0:	1a912223          	sw	s1,420(sp)
80002ce4:	19312e23          	sw	s3,412(sp)
80002ce8:	19412c23          	sw	s4,408(sp)
80002cec:	19512a23          	sw	s5,404(sp)
80002cf0:	1a112623          	sw	ra,428(sp)
80002cf4:	00090a93          	mv	s5,s2
80002cf8:	000b0a13          	mv	s4,s6
80002cfc:	00090993          	mv	s3,s2
80002d00:	00040493          	mv	s1,s0
80002d04:	0009a583          	lw	a1,0(s3)
80002d08:	0004a503          	lw	a0,0(s1)
80002d0c:	00448493          	addi	s1,s1,4
80002d10:	00498993          	addi	s3,s3,4
80002d14:	b34fe0ef          	jal	ra,80001048 <multiply>
80002d18:	00aa2023          	sw	a0,0(s4)
80002d1c:	004a0a13          	addi	s4,s4,4
80002d20:	ff5492e3          	bne	s1,s5,80002d04 <main+0x48>
80002d24:	00100513          	li	a0,1
80002d28:	961fe0ef          	jal	ra,80001688 <setStats>
80002d2c:	000b0493          	mv	s1,s6
80002d30:	00092583          	lw	a1,0(s2)
80002d34:	00042503          	lw	a0,0(s0)
80002d38:	00440413          	addi	s0,s0,4
80002d3c:	00490913          	addi	s2,s2,4
80002d40:	b08fe0ef          	jal	ra,80001048 <multiply>
80002d44:	00a4a023          	sw	a0,0(s1)
80002d48:	00448493          	addi	s1,s1,4
80002d4c:	ff5412e3          	bne	s0,s5,80002d30 <main+0x74>
80002d50:	00000513          	li	a0,0
80002d54:	935fe0ef          	jal	ra,80001688 <setStats>
80002d58:	00000797          	auipc	a5,0x0
80002d5c:	74c78793          	addi	a5,a5,1868 # 800034a4 <verify_data>
80002d60:	00000513          	li	a0,0
80002d64:	06400813          	li	a6,100
80002d68:	000b2683          	lw	a3,0(s6)
80002d6c:	0007a703          	lw	a4,0(a5)
80002d70:	004b2583          	lw	a1,4(s6)
80002d74:	0047a603          	lw	a2,4(a5)
80002d78:	04e69263          	bne	a3,a4,80002dbc <main+0x100>
80002d7c:	00250513          	addi	a0,a0,2
80002d80:	00c59a63          	bne	a1,a2,80002d94 <main+0xd8>
80002d84:	008b0b13          	addi	s6,s6,8
80002d88:	00878793          	addi	a5,a5,8
80002d8c:	fd051ee3          	bne	a0,a6,80002d68 <main+0xac>
80002d90:	00000513          	li	a0,0
80002d94:	1ac12083          	lw	ra,428(sp)
80002d98:	1a812403          	lw	s0,424(sp)
80002d9c:	1a412483          	lw	s1,420(sp)
80002da0:	1a012903          	lw	s2,416(sp)
80002da4:	19c12983          	lw	s3,412(sp)
80002da8:	19812a03          	lw	s4,408(sp)
80002dac:	19412a83          	lw	s5,404(sp)
80002db0:	19012b03          	lw	s6,400(sp)
80002db4:	1b010113          	addi	sp,sp,432
80002db8:	00008067          	ret
80002dbc:	00150513          	addi	a0,a0,1
80002dc0:	fd5ff06f          	j	80002d94 <main+0xd8>
80002dc4:	ff010113          	addi	sp,sp,-16
80002dc8:	00000517          	auipc	a0,0x0
80002dcc:	03c50513          	addi	a0,a0,60 # 80002e04 <main+0x148>
80002dd0:	00112623          	sw	ra,12(sp)
80002dd4:	971fe0ef          	jal	ra,80001744 <printstr>
80002dd8:	00c12083          	lw	ra,12(sp)
80002ddc:	fff00513          	li	a0,-1
80002de0:	01010113          	addi	sp,sp,16
80002de4:	00008067          	ret

Disassembly of section .data:

80003184 <input_data1>:
80003184:	0029                	c.nop	10
80003186:	0000                	unimp
80003188:	01c6                	slli	gp,gp,0x11
8000318a:	0000                	unimp
8000318c:	0341                	addi	t1,t1,16
8000318e:	0000                	unimp
80003190:	0000014f          	fnmadd.s	ft2,ft0,ft0,ft0,rne
80003194:	0234                	addi	a3,sp,264
80003196:	0000                	unimp
80003198:	0001                	nop
8000319a:	0000                	unimp
8000319c:	000000bb          	0xbb
800031a0:	03dd                	addi	t2,t2,23
800031a2:	0000                	unimp
800031a4:	02ed                	addi	t0,t0,27
800031a6:	0000                	unimp
800031a8:	016d                	addi	sp,sp,27
800031aa:	0000                	unimp
800031ac:	015e                	slli	sp,sp,0x17
800031ae:	0000                	unimp
800031b0:	023c                	addi	a5,sp,264
800031b2:	0000                	unimp
800031b4:	0084                	addi	s1,sp,64
800031b6:	0000                	unimp
800031b8:	0040                	addi	s0,sp,4
800031ba:	0000                	unimp
800031bc:	03b5                	addi	t2,t2,13
800031be:	0000                	unimp
800031c0:	0099                	addi	ra,ra,6
800031c2:	0000                	unimp
800031c4:	0248                	addi	a0,sp,260
800031c6:	0000                	unimp
800031c8:	00d8                	addi	a4,sp,68
800031ca:	0000                	unimp
800031cc:	0325                	addi	t1,t1,9
800031ce:	0000                	unimp
800031d0:	008c                	addi	a1,sp,64
800031d2:	0000                	unimp
800031d4:	026d                	addi	tp,tp,27
800031d6:	0000                	unimp
800031d8:	00d2                	slli	ra,ra,0x14
800031da:	0000                	unimp
800031dc:	0006                	c.slli	zero,0x1
800031de:	0000                	unimp
800031e0:	023c                	addi	a5,sp,264
800031e2:	0000                	unimp
800031e4:	000003a3          	sb	zero,7(zero) # 7 <buf.2940+0x7>
800031e8:	00000153          	fadd.s	ft2,ft0,ft0,rne
800031ec:	037a                	slli	t1,t1,0x1e
800031ee:	0000                	unimp
800031f0:	0251                	addi	tp,tp,20
800031f2:	0000                	unimp
800031f4:	0188                	addi	a0,sp,192
800031f6:	0000                	unimp
800031f8:	0382                	c.slli64	t2
800031fa:	0000                	unimp
800031fc:	02b6                	slli	t0,t0,0xd
800031fe:	0000                	unimp
80003200:	00e4                	addi	s1,sp,76
80003202:	0000                	unimp
80003204:	03c1                	addi	t2,t2,16
80003206:	0000                	unimp
80003208:	000c                	0xc
8000320a:	0000                	unimp
8000320c:	006e                	c.slli	zero,0x1b
8000320e:	0000                	unimp
80003210:	00000373          	0x373
80003214:	0074                	addi	a3,sp,12
80003216:	0000                	unimp
80003218:	02ee                	slli	t0,t0,0x1b
8000321a:	0000                	unimp
8000321c:	0128                	addi	a0,sp,136
8000321e:	0000                	unimp
80003220:	0286                	slli	t0,t0,0x1
80003222:	0000                	unimp
80003224:	01aa                	slli	gp,gp,0xa
80003226:	0000                	unimp
80003228:	01f4                	addi	a3,sp,204
8000322a:	0000                	unimp
8000322c:	013a                	slli	sp,sp,0xe
8000322e:	0000                	unimp
80003230:	01b4                	addi	a3,sp,200
80003232:	0000                	unimp
80003234:	00000293          	li	t0,0
80003238:	02bd                	addi	t0,t0,15
8000323a:	0000                	unimp
8000323c:	0306                	slli	t1,t1,0x1
8000323e:	0000                	unimp
80003240:	032c                	addi	a1,sp,392
80003242:	0000                	unimp
80003244:	0000013f 000003d5 	0x3d50000013f
8000324c:	02a6                	slli	t0,t0,0x9
8000324e:	0000                	unimp
80003250:	0096                	slli	ra,ra,0x5
80003252:	0000                	unimp
80003254:	0000036b          	0x36b
80003258:	02b8                	addi	a4,sp,328
8000325a:	0000                	unimp
8000325c:	0178                	addi	a4,sp,140
8000325e:	0000                	unimp
80003260:	0234                	addi	a3,sp,264
80003262:	0000                	unimp
80003264:	01da                	slli	gp,gp,0x16
80003266:	0000                	unimp
80003268:	0110                	addi	a2,sp,128
8000326a:	0000                	unimp
8000326c:	03aa                	slli	t2,t2,0xa
8000326e:	0000                	unimp
80003270:	0102                	c.slli64	sp
80003272:	0000                	unimp
80003274:	0000021b          	0x21b
80003278:	00000287          	0x287
8000327c:	0239                	addi	tp,tp,14
8000327e:	0000                	unimp
80003280:	01fd                	addi	gp,gp,31
80003282:	0000                	unimp
80003284:	000000cb          	fnmsub.s	ft1,ft0,ft0,ft0,rne
80003288:	0058                	addi	a4,sp,4
8000328a:	0000                	unimp
8000328c:	0118                	addi	a4,sp,128
8000328e:	0000                	unimp
80003290:	000002bf 000002f7 	0x2f7000002bf
80003298:	029d                	addi	t0,t0,7
8000329a:	0000                	unimp
8000329c:	025e                	slli	tp,tp,0x17
8000329e:	0000                	unimp
800032a0:	00000177          	0x177
800032a4:	01ff                	0x1ff
800032a6:	0000                	unimp
800032a8:	00000227          	0x227
800032ac:	0291                	addi	t0,t0,4
800032ae:	0000                	unimp
800032b0:	03a8                	addi	a0,sp,456
800032b2:	0000                	unimp
800032b4:	000000c3          	fmadd.s	ft1,ft0,ft0,ft0,rne
800032b8:	0250                	addi	a2,sp,260
800032ba:	0000                	unimp
800032bc:	0051                	c.nop	20
800032be:	0000                	unimp
800032c0:	0239                	addi	tp,tp,14
800032c2:	0000                	unimp
800032c4:	0000010b          	0x10b
800032c8:	03b8                	addi	a4,sp,456
800032ca:	0000                	unimp
800032cc:	00e5                	addi	ra,ra,25
800032ce:	0000                	unimp
800032d0:	0320                	addi	s0,sp,392
800032d2:	0000                	unimp
800032d4:	0151                	addi	sp,sp,20
800032d6:	0000                	unimp
800032d8:	0248                	addi	a0,sp,260
800032da:	0000                	unimp
800032dc:	03b0                	addi	a2,sp,456
800032de:	0000                	unimp
800032e0:	00000283          	lb	t0,0(zero) # 0 <buf.2940>
800032e4:	0386                	slli	t2,t2,0x1
800032e6:	0000                	unimp
800032e8:	0170                	addi	a2,sp,140
800032ea:	0000                	unimp
800032ec:	00f1                	addi	ra,ra,28
800032ee:	0000                	unimp
800032f0:	01e9                	addi	gp,gp,26
800032f2:	0000                	unimp
800032f4:	0391                	addi	t2,t2,4
800032f6:	0000                	unimp
800032f8:	0148                	addi	a0,sp,132
800032fa:	0000                	unimp
800032fc:	033a                	slli	t1,t1,0xe
800032fe:	0000                	unimp
80003300:	0139                	addi	sp,sp,14
80003302:	0000                	unimp
80003304:	03a5                	addi	t2,t2,9
80003306:	0000                	unimp
80003308:	0250                	addi	a2,sp,260
8000330a:	0000                	unimp
8000330c:	03d9                	addi	t2,t2,22
8000330e:	0000                	unimp
80003310:	0184                	addi	s1,sp,192
80003312:	0000                	unimp

80003314 <input_data2>:
80003314:	000000c3          	fmadd.s	ft1,ft0,ft0,ft0,rne
80003318:	021f 0000 03c0      	0x3c00000021f
8000331e:	0000                	unimp
80003320:	0289                	addi	t0,t0,2
80003322:	0000                	unimp
80003324:	0236                	slli	tp,tp,0xd
80003326:	0000                	unimp
80003328:	000003d3          	fadd.s	ft7,ft0,ft0,rne
8000332c:	015e                	slli	sp,sp,0x17
8000332e:	0000                	unimp
80003330:	03e5                	addi	t2,t2,25
80003332:	0000                	unimp
80003334:	0289                	addi	t0,t0,2
80003336:	0000                	unimp
80003338:	032e                	slli	t1,t1,0xb
8000333a:	0000                	unimp
8000333c:	0291                	addi	t0,t0,4
8000333e:	0000                	unimp
80003340:	0000004f          	fnmadd.s	ft0,ft0,ft0,ft0,rne
80003344:	00b5                	addi	ra,ra,13
80003346:	0000                	unimp
80003348:	00d0                	addi	a2,sp,68
8000334a:	0000                	unimp
8000334c:	0000006f          	j	8000334c <input_data2+0x38>
80003350:	03e6                	slli	t2,t2,0x19
80003352:	0000                	unimp
80003354:	0000035b          	0x35b
80003358:	0275                	addi	tp,tp,29
8000335a:	0000                	unimp
8000335c:	0041                	c.nop	16
8000335e:	0000                	unimp
80003360:	0000034f          	fnmadd.s	ft6,ft0,ft0,ft0,rne
80003364:	0120                	addi	s0,sp,136
80003366:	0000                	unimp
80003368:	02c0                	addi	s0,sp,324
8000336a:	0000                	unimp
8000336c:	015d                	addi	sp,sp,23
8000336e:	0000                	unimp
80003370:	03e5                	addi	t2,t2,25
80003372:	0000                	unimp
80003374:	008d                	addi	ra,ra,3
80003376:	0000                	unimp
80003378:	00fd                	addi	ra,ra,31
8000337a:	0000                	unimp
8000337c:	0389                	addi	t2,t2,2
8000337e:	0000                	unimp
80003380:	000002cb          	fnmsub.s	ft5,ft0,ft0,ft0,rne
80003384:	0376                	slli	t1,t1,0x1d
80003386:	0000                	unimp
80003388:	01ae                	slli	gp,gp,0xb
8000338a:	0000                	unimp
8000338c:	0108                	addi	a0,sp,128
8000338e:	0000                	unimp
80003390:	019f 0000 0240      	0x2400000019f
80003396:	0000                	unimp
80003398:	021a                	slli	tp,tp,0x6
8000339a:	0000                	unimp
8000339c:	000003d3          	fadd.s	ft7,ft0,ft0,rne
800033a0:	02bc                	addi	a5,sp,328
800033a2:	0000                	unimp
800033a4:	02f9                	addi	t0,t0,30
800033a6:	0000                	unimp
800033a8:	0004                	0x4
800033aa:	0000                	unimp
800033ac:	00f1                	addi	ra,ra,28
800033ae:	0000                	unimp
800033b0:	01ee                	slli	gp,gp,0x1b
800033b2:	0000                	unimp
800033b4:	01de                	slli	gp,gp,0x17
800033b6:	0000                	unimp
800033b8:	0064                	addi	s1,sp,12
800033ba:	0000                	unimp
800033bc:	000001f3          	0x1f3
800033c0:	0360                	addi	s0,sp,396
800033c2:	0000                	unimp
800033c4:	00000193          	li	gp,0
800033c8:	02b5                	addi	t0,t0,13
800033ca:	0000                	unimp
800033cc:	00de                	slli	ra,ra,0x17
800033ce:	0000                	unimp
800033d0:	01a0                	addi	s0,sp,200
800033d2:	0000                	unimp
800033d4:	01bc                	addi	a5,sp,200
800033d6:	0000                	unimp
800033d8:	0128                	addi	a0,sp,136
800033da:	0000                	unimp
800033dc:	02d1                	addi	t0,t0,20
800033de:	0000                	unimp
800033e0:	011d                	addi	sp,sp,7
800033e2:	0000                	unimp
800033e4:	02a4                	addi	s1,sp,328
800033e6:	0000                	unimp
800033e8:	026c                	addi	a1,sp,268
800033ea:	0000                	unimp
800033ec:	013d                	addi	sp,sp,15
800033ee:	0000                	unimp
800033f0:	004e                	c.slli	zero,0x13
800033f2:	0000                	unimp
800033f4:	00e0                	addi	s0,sp,76
800033f6:	0000                	unimp
800033f8:	015f 0000 03a9      	0x3a90000015f
800033fe:	0000                	unimp
80003400:	021c                	addi	a5,sp,256
80003402:	0000                	unimp
80003404:	0120                	addi	s0,sp,136
80003406:	0000                	unimp
80003408:	0286                	slli	t0,t0,0x1
8000340a:	0000                	unimp
8000340c:	00000077          	0x77
80003410:	00a9                	addi	ra,ra,10
80003412:	0000                	unimp
80003414:	00000267          	jalr	tp,zero # 0 <buf.2940>
80003418:	0000020f          	0x20f
8000341c:	025e                	slli	tp,tp,0x17
8000341e:	0000                	unimp
80003420:	0121                	addi	sp,sp,8
80003422:	0000                	unimp
80003424:	0185                	addi	gp,gp,1
80003426:	0000                	unimp
80003428:	031c                	addi	a5,sp,384
8000342a:	0000                	unimp
8000342c:	015f 0000 0321      	0x3210000015f
80003432:	0000                	unimp
80003434:	000001c7          	fmsub.s	ft3,ft0,ft0,ft0,rne
80003438:	02d0                	addi	a2,sp,324
8000343a:	0000                	unimp
8000343c:	0116                	slli	sp,sp,0x5
8000343e:	0000                	unimp
80003440:	02f6                	slli	t0,t0,0x1d
80003442:	0000                	unimp
80003444:	0000016f          	jal	sp,80003444 <input_data2+0x130>
80003448:	02e9                	addi	t0,t0,26
8000344a:	0000                	unimp
8000344c:	0166                	slli	sp,sp,0x19
8000344e:	0000                	unimp
80003450:	005c                	addi	a5,sp,4
80003452:	0000                	unimp
80003454:	0248                	addi	a0,sp,260
80003456:	0000                	unimp
80003458:	03dd                	addi	t2,t2,23
8000345a:	0000                	unimp
8000345c:	003e                	c.slli	zero,0xf
8000345e:	0000                	unimp
80003460:	0000010f          	0x10f
80003464:	03d9                	addi	t2,t2,22
80003466:	0000                	unimp
80003468:	0355                	addi	t1,t1,21
8000346a:	0000                	unimp
8000346c:	00000193          	li	gp,0
80003470:	0314                	addi	a3,sp,384
80003472:	0000                	unimp
80003474:	015a                	slli	sp,sp,0x16
80003476:	0000                	unimp
80003478:	00000213          	li	tp,0
8000347c:	0205                	addi	tp,tp,1
8000347e:	0000                	unimp
80003480:	00de                	slli	ra,ra,0x17
80003482:	0000                	unimp
80003484:	0000022f          	0x22f
80003488:	01cd                	addi	gp,gp,19
8000348a:	0000                	unimp
8000348c:	038c                	addi	a1,sp,448
8000348e:	0000                	unimp
80003490:	00f1                	addi	ra,ra,28
80003492:	0000                	unimp
80003494:	00000307          	0x307
80003498:	0166                	slli	sp,sp,0x19
8000349a:	0000                	unimp
8000349c:	00ff                	0xff
8000349e:	0000                	unimp
800034a0:	014c                	addi	a1,sp,132
800034a2:	0000                	unimp

800034a4 <verify_data>:
800034a4:	00001f3b          	0x1f3b
800034a8:	c2fa                	sw	t5,68(sp)
800034aa:	33c00003          	lb	zero,828(zero) # 33c <buflen.2941+0x2fc>
800034ae:	000c                	0xc
800034b0:	00035147          	fmsub.s	ft2,ft6,ft0,ft0,unknown
800034b4:	def8                	sw	a4,124(a3)
800034b6:	0004                	0x4
800034b8:	000003d3          	fadd.s	ft7,ft0,ft0,rne
800034bc:	ffaa                	fsw	fa0,252(sp)
800034be:	0000                	unimp
800034c0:	0bb1                	addi	s7,s7,12
800034c2:	6ad5000f          	0x6ad5000f
800034c6:	88960007          	0x88960007
800034ca:	0004                	0x4
800034cc:	823e                	mv	tp,a5
800034ce:	b0840003          	lb	zero,-1272(s0)
800034d2:	0000                	unimp
800034d4:	5d54                	lw	a3,60(a0)
800034d6:	0000                	unimp
800034d8:	3400                	fld	fs0,40(s0)
800034da:	0000                	unimp
800034dc:	00019b7b          	0x19b7b
800034e0:	5476                	lw	s0,124(sp)
800034e2:	0002                	c.slli64	zero
800034e4:	a798                	fsd	fa4,8(a5)
800034e6:	12b80007          	0x12b80007
800034ea:	0002                	c.slli64	zero
800034ec:	cc65                	beqz	s0,800035e4 <verify_data+0x140>
800034ee:	0000                	unimp
800034f0:	cf34                	sw	a3,88(a4)
800034f2:	0001                	nop
800034f4:	baa0                	fsd	fs0,112(a3)
800034f6:	0002                	c.slli64	zero
800034f8:	4180                	lw	s0,0(a1)
800034fa:	0002                	c.slli64	zero
800034fc:	082e                	slli	a6,a6,0xb
800034fe:	0000                	unimp
80003500:	b3ac                	fsd	fa1,96(a5)
80003502:	0008                	0x8
80003504:	000200c7          	fmsub.s	ft1,ft4,ft0,ft0,rne
80003508:	00014f07          	flq	ft10,0(sp)
8000350c:	4a4a                	lw	s4,144(sp)
8000350e:	000c                	0xc
80003510:	0006783b          	0x6783b
80003514:	4cb0                	lw	a2,88(s1)
80003516:	0005                	c.nop	1
80003518:	e45c                	fsw	fa5,12(s0)
8000351a:	0005                	c.nop	1
8000351c:	cbb0                	sw	a2,80(a5)
8000351e:	0002                	c.slli64	zero
80003520:	719c                	flw	fa5,32(a1)
80003522:	0001                	nop
80003524:	7240                	flw	fs0,36(a2)
80003526:	0008                	0x8
80003528:	1938                	addi	a4,sp,184
8000352a:	0000                	unimp
8000352c:	a4aa                	fsd	fa0,72(sp)
8000352e:	0001                	nop
80003530:	6e74                	flw	fa3,92(a2)
80003532:	0009                	c.nop	2
80003534:	58d4                	lw	a3,52(s1)
80003536:	0001                	nop
80003538:	0bb8                	addi	a4,sp,472
8000353a:	0000                	unimp
8000353c:	16a8                	addi	a0,sp,872
8000353e:	0001                	nop
80003540:	de94                	sw	a3,56(a3)
80003542:	0004                	0x4
80003544:	1b6c                	addi	a1,sp,444
80003546:	c3500003          	lb	zero,-971(zero) # fffffc35 <__global_pointer$+0x7fffbe01>
8000354a:	0000                	unimp
8000354c:	640e                	flw	fs0,192(sp)
8000354e:	0002                	c.slli64	zero
80003550:	bf80                	fsd	fs0,56(a5)
80003552:	0005                	c.nop	1
80003554:	0d69                	addi	s10,s10,26
80003556:	0004                	0x4
80003558:	69a1                	lui	s3,0x8
8000355a:	9f340007          	0x9f340007
8000355e:	0002                	c.slli64	zero
80003560:	2780                	fld	fs0,8(a5)
80003562:	0005                	c.nop	1
80003564:	2944                	fld	fs1,144(a0)
80003566:	0002                	c.slli64	zero
80003568:	6e48                	flw	fa0,28(a2)
8000356a:	0004                	0x4
8000356c:	7586                	flw	fa1,96(sp)
8000356e:	a6fe0007          	0xa6fe0007
80003572:	0000                	unimp
80003574:	068c                	addi	a1,sp,832
80003576:	0009                	c.nop	2
80003578:	95a0                	0x95a0
8000357a:	0006                	c.slli	zero,0x1
8000357c:	d198                	sw	a4,32(a1)
8000357e:	0001                	nop
80003580:	abd8                	fsd	fa4,144(a5)
80003582:	0000                	unimp
80003584:	9ec0                	0x9ec0
80003586:	0001                	nop
80003588:	74f0                	flw	fa2,108(s1)
8000358a:	0001                	nop
8000358c:	693a                	flw	fs2,140(sp)
8000358e:	000d                	c.nop	3
80003590:	2038                	fld	fa4,64(s0)
80003592:	0002                	c.slli64	zero
80003594:	5e60                	lw	s0,124(a2)
80003596:	0002                	c.slli64	zero
80003598:	60aa                	flw	ft1,136(sp)
8000359a:	0006                	c.slli	zero,0x1
8000359c:	087f                	0x87f
8000359e:	0001                	nop
800035a0:	5005                	c.li	zero,-31
800035a2:	0001                	nop
800035a4:	e7ad                	bnez	a5,8000360e <verify_data+0x16a>
800035a6:	0001                	nop
800035a8:	b528                	fsd	fa0,104(a0)
800035aa:	0000                	unimp
800035ac:	96d0                	0x96d0
800035ae:	0002                	c.slli64	zero
800035b0:	199f 0003 8153      	0x81530003199f
800035b6:	0004                	0x4
800035b8:	202c                	fld	fa1,64(s0)
800035ba:	0008                	0x8
800035bc:	3ee2                	fld	ft9,56(sp)
800035be:	95570003          	lb	zero,-1707(a4)
800035c2:	0004                	0x4
800035c4:	8c39                	xor	s0,s0,a4
800035c6:	0db00003          	lb	zero,219(zero) # db <buflen.2941+0x9b>
800035ca:	0006                	c.slli	zero,0x1
800035cc:	c976                	sw	t4,144(sp)
800035ce:	0002                	c.slli64	zero
800035d0:	d370                	sw	a2,100(a4)
800035d2:	000a                	c.slli	zero,0x2
800035d4:	178d                	addi	a5,a5,-29
800035d6:	0001                	nop
800035d8:	bad0                	fsd	fa2,176(a3)
800035da:	0006                	c.slli	zero,0x1
800035dc:	7146                	flw	ft2,112(sp)
800035de:	0000                	unimp
800035e0:	cc7c                	sw	a5,92(s0)
800035e2:	0000                	unimp
800035e4:	6118                	flw	fa4,0(a0)
800035e6:	0002                	c.slli64	zero
800035e8:	5dd8                	lw	a4,60(a1)
800035ea:	000e                	c.slli	zero,0x3
800035ec:	3776                	fld	fa4,376(sp)
800035ee:	0000                	unimp
800035f0:	4ee0                	lw	s0,92(a3)
800035f2:	10a90003          	lb	zero,266(s2)
800035f6:	0005                	c.nop	1
800035f8:	99e8                	0x99e8
800035fa:	ce100007          	0xce100007
800035fe:	0005                	c.nop	1
80003600:	bb3c                	fsd	fa5,112(a4)
80003602:	c31c0007          	0xc31c0007
80003606:	0004                	0x4
80003608:	fb50                	fsw	fa2,52(a4)
8000360a:	0002                	c.slli64	zero
8000360c:	e6b5                	bnez	a3,80003678 <_tdata_begin+0x34>
8000360e:	0001                	nop
80003610:	a80e                	fsd	ft3,16(sp)
80003612:	0001                	nop
80003614:	c99f 0007 4ea8      	0x4ea80007c99f
8000361a:	0002                	c.slli64	zero
8000361c:	71b8                	flw	fa4,96(a1)
8000361e:	26a9000b          	0x26a9000b
80003622:	0001                	nop
80003624:	000b0883          	lb	a7,0(s6)
80003628:	3be0                	fld	fs0,240(a5)
8000362a:	d5270003          	lb	zero,-686(a4)
8000362e:	f7300003          	lb	zero,-141(zero) # ffffff73 <__global_pointer$+0x7fffc13f>
80003632:	0001                	nop
