
qsort.riscv:     file format elf32-littleriscv


Disassembly of section .text.init:

80000000 <_start>:
80000000:	00000093          	li	ra,0
80000004:	00000113          	li	sp,0
80000008:	00000193          	li	gp,0
8000000c:	00000213          	li	tp,0
80000010:	00000293          	li	t0,0
80000014:	00000313          	li	t1,0
80000018:	00000393          	li	t2,0
8000001c:	00000413          	li	s0,0
80000020:	00000493          	li	s1,0
80000024:	00000513          	li	a0,0
80000028:	00000593          	li	a1,0
8000002c:	00000613          	li	a2,0
80000030:	00000693          	li	a3,0
80000034:	00000713          	li	a4,0
80000038:	00000793          	li	a5,0
8000003c:	00000813          	li	a6,0
80000040:	00000893          	li	a7,0
80000044:	00000913          	li	s2,0
80000048:	00000993          	li	s3,0
8000004c:	00000a13          	li	s4,0
80000050:	00000a93          	li	s5,0
80000054:	00000b13          	li	s6,0
80000058:	00000b93          	li	s7,0
8000005c:	00000c13          	li	s8,0
80000060:	00000c93          	li	s9,0
80000064:	00000d13          	li	s10,0
80000068:	00000d93          	li	s11,0
8000006c:	00000e13          	li	t3,0
80000070:	00000e93          	li	t4,0
80000074:	00000f13          	li	t5,0
80000078:	00000f93          	li	t6,0
8000007c:	0001e2b7          	lui	t0,0x1e
80000080:	3002a073          	csrs	mstatus,t0
80000084:	00100293          	li	t0,1
80000088:	01f29293          	slli	t0,t0,0x1f
8000008c:	0002ca63          	bltz	t0,800000a0 <_start+0xa0>
80000090:	00100513          	li	a0,1
80000094:	00001297          	auipc	t0,0x1
80000098:	f6a2a623          	sw	a0,-148(t0) # 80001000 <tohost>
8000009c:	ff5ff06f          	j	80000090 <_start+0x90>
800000a0:	00000297          	auipc	t0,0x0
800000a4:	04028293          	addi	t0,t0,64 # 800000e0 <trap_entry>
800000a8:	30529073          	csrw	mtvec,t0
800000ac:	00008197          	auipc	gp,0x8
800000b0:	9f018193          	addi	gp,gp,-1552 # 80007a9c <__global_pointer$>
800000b4:	86318213          	addi	tp,gp,-1949 # 800072ff <_end+0x3f>
800000b8:	fc027213          	andi	tp,tp,-64
800000bc:	f1402573          	csrr	a0,mhartid
800000c0:	00100593          	li	a1,1
800000c4:	00b57063          	bgeu	a0,a1,800000c4 <_start+0xc4>
800000c8:	01151613          	slli	a2,a0,0x11
800000cc:	00c20233          	add	tp,tp,a2
800000d0:	00150113          	addi	sp,a0,1
800000d4:	01111113          	slli	sp,sp,0x11
800000d8:	00410133          	add	sp,sp,tp
800000dc:	2350106f          	j	80001b10 <_init>

800000e0 <trap_entry>:
800000e0:	ef010113          	addi	sp,sp,-272
800000e4:	00112223          	sw	ra,4(sp)
800000e8:	00212423          	sw	sp,8(sp)
800000ec:	00312623          	sw	gp,12(sp)
800000f0:	00412823          	sw	tp,16(sp)
800000f4:	00512a23          	sw	t0,20(sp)
800000f8:	00612c23          	sw	t1,24(sp)
800000fc:	00712e23          	sw	t2,28(sp)
80000100:	02812023          	sw	s0,32(sp)
80000104:	02912223          	sw	s1,36(sp)
80000108:	02a12423          	sw	a0,40(sp)
8000010c:	02b12623          	sw	a1,44(sp)
80000110:	02c12823          	sw	a2,48(sp)
80000114:	02d12a23          	sw	a3,52(sp)
80000118:	02e12c23          	sw	a4,56(sp)
8000011c:	02f12e23          	sw	a5,60(sp)
80000120:	05012023          	sw	a6,64(sp)
80000124:	05112223          	sw	a7,68(sp)
80000128:	05212423          	sw	s2,72(sp)
8000012c:	05312623          	sw	s3,76(sp)
80000130:	05412823          	sw	s4,80(sp)
80000134:	05512a23          	sw	s5,84(sp)
80000138:	05612c23          	sw	s6,88(sp)
8000013c:	05712e23          	sw	s7,92(sp)
80000140:	07812023          	sw	s8,96(sp)
80000144:	07912223          	sw	s9,100(sp)
80000148:	07a12423          	sw	s10,104(sp)
8000014c:	07b12623          	sw	s11,108(sp)
80000150:	07c12823          	sw	t3,112(sp)
80000154:	07d12a23          	sw	t4,116(sp)
80000158:	07e12c23          	sw	t5,120(sp)
8000015c:	07f12e23          	sw	t6,124(sp)
80000160:	34202573          	csrr	a0,mcause
80000164:	341025f3          	csrr	a1,mepc
80000168:	00010613          	mv	a2,sp
8000016c:	734010ef          	jal	ra,800018a0 <handle_trap>
80000170:	34151073          	csrw	mepc,a0
80000174:	000022b7          	lui	t0,0x2
80000178:	80028293          	addi	t0,t0,-2048 # 1800 <buflen.2941+0x17c0>
8000017c:	3002a073          	csrs	mstatus,t0
80000180:	00412083          	lw	ra,4(sp)
80000184:	00812103          	lw	sp,8(sp)
80000188:	00c12183          	lw	gp,12(sp)
8000018c:	01012203          	lw	tp,16(sp)
80000190:	01412283          	lw	t0,20(sp)
80000194:	01812303          	lw	t1,24(sp)
80000198:	01c12383          	lw	t2,28(sp)
8000019c:	02012403          	lw	s0,32(sp)
800001a0:	02412483          	lw	s1,36(sp)
800001a4:	02812503          	lw	a0,40(sp)
800001a8:	02c12583          	lw	a1,44(sp)
800001ac:	03012603          	lw	a2,48(sp)
800001b0:	03412683          	lw	a3,52(sp)
800001b4:	03812703          	lw	a4,56(sp)
800001b8:	03c12783          	lw	a5,60(sp)
800001bc:	04012803          	lw	a6,64(sp)
800001c0:	04412883          	lw	a7,68(sp)
800001c4:	04812903          	lw	s2,72(sp)
800001c8:	04c12983          	lw	s3,76(sp)
800001cc:	05012a03          	lw	s4,80(sp)
800001d0:	05412a83          	lw	s5,84(sp)
800001d4:	05812b03          	lw	s6,88(sp)
800001d8:	05c12b83          	lw	s7,92(sp)
800001dc:	06012c03          	lw	s8,96(sp)
800001e0:	06412c83          	lw	s9,100(sp)
800001e4:	06812d03          	lw	s10,104(sp)
800001e8:	06c12d83          	lw	s11,108(sp)
800001ec:	07012e03          	lw	t3,112(sp)
800001f0:	07412e83          	lw	t4,116(sp)
800001f4:	07812f03          	lw	t5,120(sp)
800001f8:	07c12f83          	lw	t6,124(sp)
800001fc:	11010113          	addi	sp,sp,272
80000200:	30200073          	mret

Disassembly of section .text:

80001048 <verify.constprop.0>:
80001048:	00050793          	mv	a5,a0
8000104c:	00004717          	auipc	a4,0x4
80001050:	25070713          	addi	a4,a4,592 # 8000529c <input_data>
80001054:	00000513          	li	a0,0
80001058:	00072603          	lw	a2,0(a4)
8000105c:	0007a683          	lw	a3,0(a5)
80001060:	00472803          	lw	a6,4(a4)
80001064:	0047a583          	lw	a1,4(a5)
80001068:	02d61263          	bne	a2,a3,8000108c <verify.constprop.0+0x44>
8000106c:	00250513          	addi	a0,a0,2
80001070:	80050693          	addi	a3,a0,-2048
80001074:	00b81a63          	bne	a6,a1,80001088 <verify.constprop.0+0x40>
80001078:	00870713          	addi	a4,a4,8
8000107c:	00878793          	addi	a5,a5,8
80001080:	fc069ce3          	bnez	a3,80001058 <verify.constprop.0+0x10>
80001084:	00000513          	li	a0,0
80001088:	00008067          	ret
8000108c:	00150513          	addi	a0,a0,1
80001090:	00008067          	ret

80001094 <sort>:
80001094:	f3010113          	addi	sp,sp,-208
80001098:	00251513          	slli	a0,a0,0x2
8000109c:	00810f13          	addi	t5,sp,8
800010a0:	40000fb7          	lui	t6,0x40000
800010a4:	00058e93          	mv	t4,a1
800010a8:	00a588b3          	add	a7,a1,a0
800010ac:	000f0313          	mv	t1,t5
800010b0:	00458593          	addi	a1,a1,4
800010b4:	02400e13          	li	t3,36
800010b8:	ffff8f93          	addi	t6,t6,-1 # 3fffffff <buflen.2941+0x3fffffbf>
800010bc:	40b887b3          	sub	a5,a7,a1
800010c0:	04fe4863          	blt	t3,a5,80001110 <sort+0x7c>
800010c4:	ffc58613          	addi	a2,a1,-4
800010c8:	0315f863          	bgeu	a1,a7,800010f8 <sort+0x64>
800010cc:	0005a683          	lw	a3,0(a1)
800010d0:	00058793          	mv	a5,a1
800010d4:	0100006f          	j	800010e4 <sort+0x50>
800010d8:	00e7a023          	sw	a4,0(a5)
800010dc:	ffc78793          	addi	a5,a5,-4
800010e0:	00f60663          	beq	a2,a5,800010ec <sort+0x58>
800010e4:	ffc7a703          	lw	a4,-4(a5)
800010e8:	fee6c8e3          	blt	a3,a4,800010d8 <sort+0x44>
800010ec:	00d7a023          	sw	a3,0(a5)
800010f0:	00458593          	addi	a1,a1,4
800010f4:	fd15ece3          	bltu	a1,a7,800010cc <sort+0x38>
800010f8:	11e30c63          	beq	t1,t5,80001210 <sort+0x17c>
800010fc:	00032883          	lw	a7,0(t1)
80001100:	ffc32583          	lw	a1,-4(t1)
80001104:	ff830313          	addi	t1,t1,-8
80001108:	40b887b3          	sub	a5,a7,a1
8000110c:	fafe5ce3          	bge	t3,a5,800010c4 <sort+0x30>
80001110:	41d587b3          	sub	a5,a1,t4
80001114:	41d88733          	sub	a4,a7,t4
80001118:	4027d793          	srai	a5,a5,0x2
8000111c:	40275713          	srai	a4,a4,0x2
80001120:	00e78733          	add	a4,a5,a4
80001124:	01f75793          	srli	a5,a4,0x1f
80001128:	00e787b3          	add	a5,a5,a4
8000112c:	4017d793          	srai	a5,a5,0x1
80001130:	01f787b3          	add	a5,a5,t6
80001134:	00279793          	slli	a5,a5,0x2
80001138:	0005a703          	lw	a4,0(a1)
8000113c:	00fe87b3          	add	a5,t4,a5
80001140:	0007a683          	lw	a3,0(a5)
80001144:	00e7a023          	sw	a4,0(a5)
80001148:	ffc5a703          	lw	a4,-4(a1)
8000114c:	00d5a023          	sw	a3,0(a1)
80001150:	ffc8a783          	lw	a5,-4(a7)
80001154:	00e7da63          	bge	a5,a4,80001168 <sort+0xd4>
80001158:	fef5ae23          	sw	a5,-4(a1)
8000115c:	fee8ae23          	sw	a4,-4(a7)
80001160:	0005a683          	lw	a3,0(a1)
80001164:	00070793          	mv	a5,a4
80001168:	00d7d863          	bge	a5,a3,80001178 <sort+0xe4>
8000116c:	00f5a023          	sw	a5,0(a1)
80001170:	fed8ae23          	sw	a3,-4(a7)
80001174:	0005a683          	lw	a3,0(a1)
80001178:	ffc5a783          	lw	a5,-4(a1)
8000117c:	00f6d863          	bge	a3,a5,8000118c <sort+0xf8>
80001180:	fed5ae23          	sw	a3,-4(a1)
80001184:	00f5a023          	sw	a5,0(a1)
80001188:	00078693          	mv	a3,a5
8000118c:	00458513          	addi	a0,a1,4
80001190:	00088793          	mv	a5,a7
80001194:	00052803          	lw	a6,0(a0)
80001198:	00450513          	addi	a0,a0,4
8000119c:	fed84ce3          	blt	a6,a3,80001194 <sort+0x100>
800011a0:	ff87a703          	lw	a4,-8(a5)
800011a4:	00078613          	mv	a2,a5
800011a8:	ffc78793          	addi	a5,a5,-4
800011ac:	fee6cae3          	blt	a3,a4,800011a0 <sort+0x10c>
800011b0:	00a7e863          	bltu	a5,a0,800011c0 <sort+0x12c>
800011b4:	fee52e23          	sw	a4,-4(a0)
800011b8:	ff07ae23          	sw	a6,-4(a5)
800011bc:	fd9ff06f          	j	80001194 <sort+0x100>
800011c0:	40a88833          	sub	a6,a7,a0
800011c4:	00e5a023          	sw	a4,0(a1)
800011c8:	40285713          	srai	a4,a6,0x2
800011cc:	40b78833          	sub	a6,a5,a1
800011d0:	fed7ae23          	sw	a3,-4(a5)
800011d4:	00170793          	addi	a5,a4,1
800011d8:	40285713          	srai	a4,a6,0x2
800011dc:	00830693          	addi	a3,t1,8
800011e0:	ff860613          	addi	a2,a2,-8
800011e4:	00e7cc63          	blt	a5,a4,800011fc <sort+0x168>
800011e8:	01132423          	sw	a7,8(t1)
800011ec:	00a32223          	sw	a0,4(t1)
800011f0:	00060893          	mv	a7,a2
800011f4:	00068313          	mv	t1,a3
800011f8:	ec5ff06f          	j	800010bc <sort+0x28>
800011fc:	00b32223          	sw	a1,4(t1)
80001200:	00c32423          	sw	a2,8(t1)
80001204:	00050593          	mv	a1,a0
80001208:	00068313          	mv	t1,a3
8000120c:	eb1ff06f          	j	800010bc <sort+0x28>
80001210:	0d010113          	addi	sp,sp,208
80001214:	00008067          	ret

80001218 <vprintfmt>:
80001218:	eb010113          	addi	sp,sp,-336
8000121c:	13912223          	sw	s9,292(sp)
80001220:	40000cb7          	lui	s9,0x40000
80001224:	fffc8793          	addi	a5,s9,-1 # 3fffffff <buflen.2941+0x3fffffbf>
80001228:	14812423          	sw	s0,328(sp)
8000122c:	14912223          	sw	s1,324(sp)
80001230:	15212023          	sw	s2,320(sp)
80001234:	13512a23          	sw	s5,308(sp)
80001238:	14112623          	sw	ra,332(sp)
8000123c:	13312e23          	sw	s3,316(sp)
80001240:	13412c23          	sw	s4,312(sp)
80001244:	13612823          	sw	s6,304(sp)
80001248:	13712623          	sw	s7,300(sp)
8000124c:	13812423          	sw	s8,296(sp)
80001250:	13a12023          	sw	s10,288(sp)
80001254:	11b12e23          	sw	s11,284(sp)
80001258:	00050913          	mv	s2,a0
8000125c:	00058493          	mv	s1,a1
80001260:	00060413          	mv	s0,a2
80001264:	00d12423          	sw	a3,8(sp)
80001268:	02500a93          	li	s5,37
8000126c:	00f12623          	sw	a5,12(sp)
80001270:	0140006f          	j	80001284 <vprintfmt+0x6c>
80001274:	06050463          	beqz	a0,800012dc <vprintfmt+0xc4>
80001278:	00048593          	mv	a1,s1
8000127c:	00140413          	addi	s0,s0,1
80001280:	000900e7          	jalr	s2
80001284:	00044503          	lbu	a0,0(s0)
80001288:	ff5516e3          	bne	a0,s5,80001274 <vprintfmt+0x5c>
8000128c:	00144683          	lbu	a3,1(s0)
80001290:	00140d93          	addi	s11,s0,1
80001294:	000d8713          	mv	a4,s11
80001298:	02000b93          	li	s7,32
8000129c:	fff00993          	li	s3,-1
800012a0:	fff00a13          	li	s4,-1
800012a4:	00000593          	li	a1,0
800012a8:	05500613          	li	a2,85
800012ac:	00900513          	li	a0,9
800012b0:	fdd68793          	addi	a5,a3,-35
800012b4:	0ff7f793          	andi	a5,a5,255
800012b8:	00170413          	addi	s0,a4,1
800012bc:	06f66c63          	bltu	a2,a5,80001334 <vprintfmt+0x11c>
800012c0:	00002817          	auipc	a6,0x2
800012c4:	c8080813          	addi	a6,a6,-896 # 80002f40 <main+0xe0>
800012c8:	00279793          	slli	a5,a5,0x2
800012cc:	010787b3          	add	a5,a5,a6
800012d0:	0007a783          	lw	a5,0(a5)
800012d4:	010787b3          	add	a5,a5,a6
800012d8:	00078067          	jr	a5
800012dc:	14c12083          	lw	ra,332(sp)
800012e0:	14812403          	lw	s0,328(sp)
800012e4:	14412483          	lw	s1,324(sp)
800012e8:	14012903          	lw	s2,320(sp)
800012ec:	13c12983          	lw	s3,316(sp)
800012f0:	13812a03          	lw	s4,312(sp)
800012f4:	13412a83          	lw	s5,308(sp)
800012f8:	13012b03          	lw	s6,304(sp)
800012fc:	12c12b83          	lw	s7,300(sp)
80001300:	12812c03          	lw	s8,296(sp)
80001304:	12412c83          	lw	s9,292(sp)
80001308:	12012d03          	lw	s10,288(sp)
8000130c:	11c12d83          	lw	s11,284(sp)
80001310:	15010113          	addi	sp,sp,336
80001314:	00008067          	ret
80001318:	00068b93          	mv	s7,a3
8000131c:	00174683          	lbu	a3,1(a4)
80001320:	00040713          	mv	a4,s0
80001324:	00170413          	addi	s0,a4,1
80001328:	fdd68793          	addi	a5,a3,-35
8000132c:	0ff7f793          	andi	a5,a5,255
80001330:	f8f678e3          	bgeu	a2,a5,800012c0 <vprintfmt+0xa8>
80001334:	00048593          	mv	a1,s1
80001338:	02500513          	li	a0,37
8000133c:	000900e7          	jalr	s2
80001340:	000d8413          	mv	s0,s11
80001344:	f41ff06f          	j	80001284 <vprintfmt+0x6c>
80001348:	00174803          	lbu	a6,1(a4)
8000134c:	fd068993          	addi	s3,a3,-48
80001350:	00040713          	mv	a4,s0
80001354:	fd080793          	addi	a5,a6,-48
80001358:	00080693          	mv	a3,a6
8000135c:	02f56663          	bltu	a0,a5,80001388 <vprintfmt+0x170>
80001360:	00299793          	slli	a5,s3,0x2
80001364:	013789b3          	add	s3,a5,s3
80001368:	00170713          	addi	a4,a4,1
8000136c:	00199993          	slli	s3,s3,0x1
80001370:	010989b3          	add	s3,s3,a6
80001374:	00074803          	lbu	a6,0(a4)
80001378:	fd098993          	addi	s3,s3,-48
8000137c:	fd080793          	addi	a5,a6,-48
80001380:	00080693          	mv	a3,a6
80001384:	fcf57ee3          	bgeu	a0,a5,80001360 <vprintfmt+0x148>
80001388:	f20a54e3          	bgez	s4,800012b0 <vprintfmt+0x98>
8000138c:	00098a13          	mv	s4,s3
80001390:	fff00993          	li	s3,-1
80001394:	f1dff06f          	j	800012b0 <vprintfmt+0x98>
80001398:	00174683          	lbu	a3,1(a4)
8000139c:	00040713          	mv	a4,s0
800013a0:	f11ff06f          	j	800012b0 <vprintfmt+0x98>
800013a4:	00048593          	mv	a1,s1
800013a8:	02500513          	li	a0,37
800013ac:	000900e7          	jalr	s2
800013b0:	ed5ff06f          	j	80001284 <vprintfmt+0x6c>
800013b4:	00812783          	lw	a5,8(sp)
800013b8:	00174683          	lbu	a3,1(a4)
800013bc:	00040713          	mv	a4,s0
800013c0:	0007a983          	lw	s3,0(a5)
800013c4:	00478793          	addi	a5,a5,4
800013c8:	00f12423          	sw	a5,8(sp)
800013cc:	fbdff06f          	j	80001388 <vprintfmt+0x170>
800013d0:	03000513          	li	a0,48
800013d4:	00048593          	mv	a1,s1
800013d8:	000900e7          	jalr	s2
800013dc:	00048593          	mv	a1,s1
800013e0:	07800513          	li	a0,120
800013e4:	000900e7          	jalr	s2
800013e8:	00812783          	lw	a5,8(sp)
800013ec:	01000c13          	li	s8,16
800013f0:	00012223          	sw	zero,4(sp)
800013f4:	00478713          	addi	a4,a5,4
800013f8:	00812783          	lw	a5,8(sp)
800013fc:	00000d93          	li	s11,0
80001400:	0007a983          	lw	s3,0(a5)
80001404:	00e12423          	sw	a4,8(sp)
80001408:	000c0613          	mv	a2,s8
8000140c:	00000693          	li	a3,0
80001410:	00098513          	mv	a0,s3
80001414:	000d8593          	mv	a1,s11
80001418:	480010ef          	jal	ra,80002898 <__umoddi3>
8000141c:	00a12823          	sw	a0,16(sp)
80001420:	00000793          	li	a5,0
80001424:	00050c93          	mv	s9,a0
80001428:	23b78063          	beq	a5,s11,80001648 <vprintfmt+0x430>
8000142c:	01410b13          	addi	s6,sp,20
80001430:	00100d13          	li	s10,1
80001434:	000c0613          	mv	a2,s8
80001438:	00000693          	li	a3,0
8000143c:	00098513          	mv	a0,s3
80001440:	000d8593          	mv	a1,s11
80001444:	67d000ef          	jal	ra,800022c0 <__udivdi3>
80001448:	000c0613          	mv	a2,s8
8000144c:	00000693          	li	a3,0
80001450:	00050993          	mv	s3,a0
80001454:	00058d93          	mv	s11,a1
80001458:	440010ef          	jal	ra,80002898 <__umoddi3>
8000145c:	00412783          	lw	a5,4(sp)
80001460:	00ab2023          	sw	a0,0(s6)
80001464:	01a12023          	sw	s10,0(sp)
80001468:	00050c93          	mv	s9,a0
8000146c:	004b0b13          	addi	s6,s6,4
80001470:	001d0d13          	addi	s10,s10,1
80001474:	fdb790e3          	bne	a5,s11,80001434 <vprintfmt+0x21c>
80001478:	fb89fee3          	bgeu	s3,s8,80001434 <vprintfmt+0x21c>
8000147c:	014d5c63          	bge	s10,s4,80001494 <vprintfmt+0x27c>
80001480:	fffa0a13          	addi	s4,s4,-1
80001484:	00048593          	mv	a1,s1
80001488:	000b8513          	mv	a0,s7
8000148c:	000900e7          	jalr	s2
80001490:	ff4d48e3          	blt	s10,s4,80001480 <vprintfmt+0x268>
80001494:	00012783          	lw	a5,0(sp)
80001498:	00c12703          	lw	a4,12(sp)
8000149c:	00900993          	li	s3,9
800014a0:	00e78a33          	add	s4,a5,a4
800014a4:	002a1a13          	slli	s4,s4,0x2
800014a8:	01010793          	addi	a5,sp,16
800014ac:	01478a33          	add	s4,a5,s4
800014b0:	00c0006f          	j	800014bc <vprintfmt+0x2a4>
800014b4:	000a2c83          	lw	s9,0(s4)
800014b8:	ffca0a13          	addi	s4,s4,-4
800014bc:	0199b7b3          	sltu	a5,s3,s9
800014c0:	40f007b3          	neg	a5,a5
800014c4:	0277f793          	andi	a5,a5,39
800014c8:	03078793          	addi	a5,a5,48
800014cc:	01978533          	add	a0,a5,s9
800014d0:	00048593          	mv	a1,s1
800014d4:	000900e7          	jalr	s2
800014d8:	00c10793          	addi	a5,sp,12
800014dc:	fd479ce3          	bne	a5,s4,800014b4 <vprintfmt+0x29c>
800014e0:	da5ff06f          	j	80001284 <vprintfmt+0x6c>
800014e4:	00100793          	li	a5,1
800014e8:	16b7cc63          	blt	a5,a1,80001660 <vprintfmt+0x448>
800014ec:	00812703          	lw	a4,8(sp)
800014f0:	00470793          	addi	a5,a4,4
800014f4:	18058663          	beqz	a1,80001680 <vprintfmt+0x468>
800014f8:	00072983          	lw	s3,0(a4)
800014fc:	00f12423          	sw	a5,8(sp)
80001500:	41f9dc13          	srai	s8,s3,0x1f
80001504:	180c4e63          	bltz	s8,800016a0 <vprintfmt+0x488>
80001508:	000c0d93          	mv	s11,s8
8000150c:	00012223          	sw	zero,4(sp)
80001510:	00a00c13          	li	s8,10
80001514:	ef5ff06f          	j	80001408 <vprintfmt+0x1f0>
80001518:	01000c13          	li	s8,16
8000151c:	00012223          	sw	zero,4(sp)
80001520:	00100793          	li	a5,1
80001524:	10b7c263          	blt	a5,a1,80001628 <vprintfmt+0x410>
80001528:	00812783          	lw	a5,8(sp)
8000152c:	00478713          	addi	a4,a5,4
80001530:	ec9ff06f          	j	800013f8 <vprintfmt+0x1e0>
80001534:	00812783          	lw	a5,8(sp)
80001538:	0007ad83          	lw	s11,0(a5)
8000153c:	00478b13          	addi	s6,a5,4
80001540:	180d8463          	beqz	s11,800016c8 <vprintfmt+0x4b0>
80001544:	09405863          	blez	s4,800015d4 <vprintfmt+0x3bc>
80001548:	02d00793          	li	a5,45
8000154c:	04fb9e63          	bne	s7,a5,800015a8 <vprintfmt+0x390>
80001550:	000dc503          	lbu	a0,0(s11)
80001554:	02050863          	beqz	a0,80001584 <vprintfmt+0x36c>
80001558:	fff00b93          	li	s7,-1
8000155c:	0009c663          	bltz	s3,80001568 <vprintfmt+0x350>
80001560:	fff98993          	addi	s3,s3,-1
80001564:	01798e63          	beq	s3,s7,80001580 <vprintfmt+0x368>
80001568:	00048593          	mv	a1,s1
8000156c:	001d8d93          	addi	s11,s11,1
80001570:	000900e7          	jalr	s2
80001574:	000dc503          	lbu	a0,0(s11)
80001578:	fffa0a13          	addi	s4,s4,-1
8000157c:	fe0510e3          	bnez	a0,8000155c <vprintfmt+0x344>
80001580:	01405c63          	blez	s4,80001598 <vprintfmt+0x380>
80001584:	fffa0a13          	addi	s4,s4,-1
80001588:	00048593          	mv	a1,s1
8000158c:	02000513          	li	a0,32
80001590:	000900e7          	jalr	s2
80001594:	fe0a18e3          	bnez	s4,80001584 <vprintfmt+0x36c>
80001598:	01612423          	sw	s6,8(sp)
8000159c:	ce9ff06f          	j	80001284 <vprintfmt+0x6c>
800015a0:	00002d97          	auipc	s11,0x2
800015a4:	960d8d93          	addi	s11,s11,-1696 # 80002f00 <main+0xa0>
800015a8:	000d8793          	mv	a5,s11
800015ac:	013d86b3          	add	a3,s11,s3
800015b0:	00099863          	bnez	s3,800015c0 <vprintfmt+0x3a8>
800015b4:	1340006f          	j	800016e8 <vprintfmt+0x4d0>
800015b8:	00178793          	addi	a5,a5,1
800015bc:	00d78663          	beq	a5,a3,800015c8 <vprintfmt+0x3b0>
800015c0:	0007c703          	lbu	a4,0(a5)
800015c4:	fe071ae3          	bnez	a4,800015b8 <vprintfmt+0x3a0>
800015c8:	41b787b3          	sub	a5,a5,s11
800015cc:	40fa0a33          	sub	s4,s4,a5
800015d0:	11404c63          	bgtz	s4,800016e8 <vprintfmt+0x4d0>
800015d4:	000dc503          	lbu	a0,0(s11)
800015d8:	fc0500e3          	beqz	a0,80001598 <vprintfmt+0x380>
800015dc:	fff00b93          	li	s7,-1
800015e0:	f7dff06f          	j	8000155c <vprintfmt+0x344>
800015e4:	fffa4793          	not	a5,s4
800015e8:	41f7d793          	srai	a5,a5,0x1f
800015ec:	00174683          	lbu	a3,1(a4)
800015f0:	00fa7a33          	and	s4,s4,a5
800015f4:	00040713          	mv	a4,s0
800015f8:	cb9ff06f          	j	800012b0 <vprintfmt+0x98>
800015fc:	00812783          	lw	a5,8(sp)
80001600:	00048593          	mv	a1,s1
80001604:	0007a503          	lw	a0,0(a5)
80001608:	00478b13          	addi	s6,a5,4
8000160c:	000900e7          	jalr	s2
80001610:	01612423          	sw	s6,8(sp)
80001614:	c71ff06f          	j	80001284 <vprintfmt+0x6c>
80001618:	00174683          	lbu	a3,1(a4)
8000161c:	00158593          	addi	a1,a1,1
80001620:	00040713          	mv	a4,s0
80001624:	c8dff06f          	j	800012b0 <vprintfmt+0x98>
80001628:	00812783          	lw	a5,8(sp)
8000162c:	00778b13          	addi	s6,a5,7
80001630:	ff8b7b13          	andi	s6,s6,-8
80001634:	008b0793          	addi	a5,s6,8
80001638:	000b2983          	lw	s3,0(s6)
8000163c:	004b2d83          	lw	s11,4(s6)
80001640:	00f12423          	sw	a5,8(sp)
80001644:	dc5ff06f          	j	80001408 <vprintfmt+0x1f0>
80001648:	df89f2e3          	bgeu	s3,s8,8000142c <vprintfmt+0x214>
8000164c:	00100793          	li	a5,1
80001650:	00012023          	sw	zero,0(sp)
80001654:	00100d13          	li	s10,1
80001658:	e347c4e3          	blt	a5,s4,80001480 <vprintfmt+0x268>
8000165c:	e39ff06f          	j	80001494 <vprintfmt+0x27c>
80001660:	00812783          	lw	a5,8(sp)
80001664:	00778b13          	addi	s6,a5,7
80001668:	ff8b7b13          	andi	s6,s6,-8
8000166c:	008b0793          	addi	a5,s6,8
80001670:	000b2983          	lw	s3,0(s6)
80001674:	004b2c03          	lw	s8,4(s6)
80001678:	00f12423          	sw	a5,8(sp)
8000167c:	e89ff06f          	j	80001504 <vprintfmt+0x2ec>
80001680:	00812703          	lw	a4,8(sp)
80001684:	e75ff06f          	j	800014f8 <vprintfmt+0x2e0>
80001688:	00800c13          	li	s8,8
8000168c:	00012223          	sw	zero,4(sp)
80001690:	e91ff06f          	j	80001520 <vprintfmt+0x308>
80001694:	00a00c13          	li	s8,10
80001698:	00012223          	sw	zero,4(sp)
8000169c:	e85ff06f          	j	80001520 <vprintfmt+0x308>
800016a0:	00048593          	mv	a1,s1
800016a4:	02d00513          	li	a0,45
800016a8:	000900e7          	jalr	s2
800016ac:	01303733          	snez	a4,s3
800016b0:	418007b3          	neg	a5,s8
800016b4:	413009b3          	neg	s3,s3
800016b8:	40e78db3          	sub	s11,a5,a4
800016bc:	00a00c13          	li	s8,10
800016c0:	00012223          	sw	zero,4(sp)
800016c4:	d45ff06f          	j	80001408 <vprintfmt+0x1f0>
800016c8:	01405663          	blez	s4,800016d4 <vprintfmt+0x4bc>
800016cc:	02d00793          	li	a5,45
800016d0:	ecfb98e3          	bne	s7,a5,800015a0 <vprintfmt+0x388>
800016d4:	00002d97          	auipc	s11,0x2
800016d8:	82cd8d93          	addi	s11,s11,-2004 # 80002f00 <main+0xa0>
800016dc:	02800513          	li	a0,40
800016e0:	fff00b93          	li	s7,-1
800016e4:	e79ff06f          	j	8000155c <vprintfmt+0x344>
800016e8:	fffa0a13          	addi	s4,s4,-1
800016ec:	00048593          	mv	a1,s1
800016f0:	000b8513          	mv	a0,s7
800016f4:	000900e7          	jalr	s2
800016f8:	ec0a0ee3          	beqz	s4,800015d4 <vprintfmt+0x3bc>
800016fc:	fffa0a13          	addi	s4,s4,-1
80001700:	00048593          	mv	a1,s1
80001704:	000b8513          	mv	a0,s7
80001708:	000900e7          	jalr	s2
8000170c:	fc0a1ee3          	bnez	s4,800016e8 <vprintfmt+0x4d0>
80001710:	ec5ff06f          	j	800015d4 <vprintfmt+0x3bc>

80001714 <sprintf_putch.3055>:
80001714:	0005a783          	lw	a5,0(a1)
80001718:	00a78023          	sb	a0,0(a5)
8000171c:	0005a783          	lw	a5,0(a1)
80001720:	00178793          	addi	a5,a5,1
80001724:	00f5a023          	sw	a5,0(a1)
80001728:	00008067          	ret

8000172c <syscall.constprop.0>:
8000172c:	f8010113          	addi	sp,sp,-128
80001730:	03f10813          	addi	a6,sp,63
80001734:	fc087813          	andi	a6,a6,-64
80001738:	04000713          	li	a4,64
8000173c:	00e82023          	sw	a4,0(a6)
80001740:	00000793          	li	a5,0
80001744:	00f82223          	sw	a5,4(a6)
80001748:	00100713          	li	a4,1
8000174c:	00e82423          	sw	a4,8(a6)
80001750:	00000793          	li	a5,0
80001754:	00f82623          	sw	a5,12(a6)
80001758:	00a82823          	sw	a0,16(a6)
8000175c:	00b82a23          	sw	a1,20(a6)
80001760:	00c82c23          	sw	a2,24(a6)
80001764:	00d82e23          	sw	a3,28(a6)
80001768:	0ff0000f          	fence
8000176c:	00000697          	auipc	a3,0x0
80001770:	89468693          	addi	a3,a3,-1900 # 80001000 <tohost>
80001774:	0106a023          	sw	a6,0(a3)
80001778:	00000793          	li	a5,0
8000177c:	00f6a223          	sw	a5,4(a3)
80001780:	00000697          	auipc	a3,0x0
80001784:	8c068693          	addi	a3,a3,-1856 # 80001040 <fromhost>
80001788:	0006a703          	lw	a4,0(a3)
8000178c:	0046a783          	lw	a5,4(a3)
80001790:	00f76733          	or	a4,a4,a5
80001794:	fe070ae3          	beqz	a4,80001788 <syscall.constprop.0+0x5c>
80001798:	00000713          	li	a4,0
8000179c:	00e6a023          	sw	a4,0(a3)
800017a0:	00000793          	li	a5,0
800017a4:	00f6a223          	sw	a5,4(a3)
800017a8:	0ff0000f          	fence
800017ac:	00082503          	lw	a0,0(a6)
800017b0:	00482583          	lw	a1,4(a6)
800017b4:	08010113          	addi	sp,sp,128
800017b8:	00008067          	ret

800017bc <putchar>:
800017bc:	ff010113          	addi	sp,sp,-16
800017c0:	00812423          	sw	s0,8(sp)
800017c4:	04022583          	lw	a1,64(tp) # 40 <buflen.2941>
800017c8:	00020793          	mv	a5,tp
800017cc:	00112623          	sw	ra,12(sp)
800017d0:	00b787b3          	add	a5,a5,a1
800017d4:	00158613          	addi	a2,a1,1
800017d8:	00a78023          	sb	a0,0(a5)
800017dc:	04c22023          	sw	a2,64(tp) # 40 <buflen.2941>
800017e0:	00a00793          	li	a5,10
800017e4:	02f50063          	beq	a0,a5,80001804 <putchar+0x48>
800017e8:	04000793          	li	a5,64
800017ec:	00f60c63          	beq	a2,a5,80001804 <putchar+0x48>
800017f0:	00c12083          	lw	ra,12(sp)
800017f4:	00812403          	lw	s0,8(sp)
800017f8:	00000513          	li	a0,0
800017fc:	01010113          	addi	sp,sp,16
80001800:	00008067          	ret
80001804:	41f65693          	srai	a3,a2,0x1f
80001808:	00020513          	mv	a0,tp
8000180c:	00000593          	li	a1,0
80001810:	f1dff0ef          	jal	ra,8000172c <syscall.constprop.0>
80001814:	00c12083          	lw	ra,12(sp)
80001818:	04022023          	sw	zero,64(tp) # 40 <buflen.2941>
8000181c:	00812403          	lw	s0,8(sp)
80001820:	00000513          	li	a0,0
80001824:	01010113          	addi	sp,sp,16
80001828:	00008067          	ret

8000182c <setStats>:
8000182c:	b0002773          	csrr	a4,mcycle
80001830:	00006797          	auipc	a5,0x6
80001834:	a7478793          	addi	a5,a5,-1420 # 800072a4 <counters>
80001838:	00051e63          	bnez	a0,80001854 <setStats+0x28>
8000183c:	0007a683          	lw	a3,0(a5)
80001840:	00001617          	auipc	a2,0x1
80001844:	6c860613          	addi	a2,a2,1736 # 80002f08 <main+0xa8>
80001848:	00006597          	auipc	a1,0x6
8000184c:	a4c5aa23          	sw	a2,-1452(a1) # 8000729c <counter_names>
80001850:	40d70733          	sub	a4,a4,a3
80001854:	00e7a023          	sw	a4,0(a5)
80001858:	b0202773          	csrr	a4,minstret
8000185c:	00051e63          	bnez	a0,80001878 <setStats+0x4c>
80001860:	0047a683          	lw	a3,4(a5)
80001864:	00001617          	auipc	a2,0x1
80001868:	6ac60613          	addi	a2,a2,1708 # 80002f10 <main+0xb0>
8000186c:	00006597          	auipc	a1,0x6
80001870:	a2c5aa23          	sw	a2,-1484(a1) # 800072a0 <counter_names+0x4>
80001874:	40d70733          	sub	a4,a4,a3
80001878:	00e7a223          	sw	a4,4(a5)
8000187c:	00008067          	ret

80001880 <tohost_exit>:
80001880:	00151693          	slli	a3,a0,0x1
80001884:	0016e713          	ori	a4,a3,1
80001888:	fffff697          	auipc	a3,0xfffff
8000188c:	77868693          	addi	a3,a3,1912 # 80001000 <tohost>
80001890:	00000793          	li	a5,0
80001894:	00e6a023          	sw	a4,0(a3)
80001898:	00f6a223          	sw	a5,4(a3)
8000189c:	0000006f          	j	8000189c <tohost_exit+0x1c>

800018a0 <handle_trap>:
800018a0:	00001637          	lui	a2,0x1
800018a4:	fffff797          	auipc	a5,0xfffff
800018a8:	75c78793          	addi	a5,a5,1884 # 80001000 <tohost>
800018ac:	a7360613          	addi	a2,a2,-1421 # a73 <buflen.2941+0xa33>
800018b0:	00000693          	li	a3,0
800018b4:	00c7a023          	sw	a2,0(a5)
800018b8:	00d7a223          	sw	a3,4(a5)
800018bc:	0000006f          	j	800018bc <handle_trap+0x1c>

800018c0 <exit>:
800018c0:	ff010113          	addi	sp,sp,-16
800018c4:	00112623          	sw	ra,12(sp)
800018c8:	fb9ff0ef          	jal	ra,80001880 <tohost_exit>

800018cc <abort>:
800018cc:	fffff797          	auipc	a5,0xfffff
800018d0:	73478793          	addi	a5,a5,1844 # 80001000 <tohost>
800018d4:	10d00613          	li	a2,269
800018d8:	00000693          	li	a3,0
800018dc:	00c7a023          	sw	a2,0(a5)
800018e0:	00d7a223          	sw	a3,4(a5)
800018e4:	0000006f          	j	800018e4 <abort+0x18>

800018e8 <printstr>:
800018e8:	00054783          	lbu	a5,0(a0)
800018ec:	02078263          	beqz	a5,80001910 <printstr+0x28>
800018f0:	00050613          	mv	a2,a0
800018f4:	00164783          	lbu	a5,1(a2)
800018f8:	00160613          	addi	a2,a2,1
800018fc:	fe079ce3          	bnez	a5,800018f4 <printstr+0xc>
80001900:	40a60633          	sub	a2,a2,a0
80001904:	00000693          	li	a3,0
80001908:	00000593          	li	a1,0
8000190c:	e21ff06f          	j	8000172c <syscall.constprop.0>
80001910:	00000613          	li	a2,0
80001914:	00000693          	li	a3,0
80001918:	00000593          	li	a1,0
8000191c:	e11ff06f          	j	8000172c <syscall.constprop.0>

80001920 <thread_entry>:
80001920:	00051063          	bnez	a0,80001920 <thread_entry>
80001924:	00008067          	ret

80001928 <printhex>:
80001928:	fd010113          	addi	sp,sp,-48
8000192c:	00050713          	mv	a4,a0
80001930:	02112623          	sw	ra,44(sp)
80001934:	00c10513          	addi	a0,sp,12
80001938:	01b10613          	addi	a2,sp,27
8000193c:	00900813          	li	a6,9
80001940:	0080006f          	j	80001948 <printhex+0x20>
80001944:	00078613          	mv	a2,a5
80001948:	00f77793          	andi	a5,a4,15
8000194c:	00f837b3          	sltu	a5,a6,a5
80001950:	40f007b3          	neg	a5,a5
80001954:	0277f793          	andi	a5,a5,39
80001958:	00f77693          	andi	a3,a4,15
8000195c:	03078793          	addi	a5,a5,48
80001960:	00f687b3          	add	a5,a3,a5
80001964:	00f60023          	sb	a5,0(a2)
80001968:	01c59693          	slli	a3,a1,0x1c
8000196c:	00475713          	srli	a4,a4,0x4
80001970:	fff60793          	addi	a5,a2,-1
80001974:	00e6e733          	or	a4,a3,a4
80001978:	0045d593          	srli	a1,a1,0x4
8000197c:	fcc514e3          	bne	a0,a2,80001944 <printhex+0x1c>
80001980:	00010e23          	sb	zero,28(sp)
80001984:	f65ff0ef          	jal	ra,800018e8 <printstr>
80001988:	02c12083          	lw	ra,44(sp)
8000198c:	03010113          	addi	sp,sp,48
80001990:	00008067          	ret

80001994 <printf>:
80001994:	fc010113          	addi	sp,sp,-64
80001998:	02410313          	addi	t1,sp,36
8000199c:	00050e13          	mv	t3,a0
800019a0:	02b12223          	sw	a1,36(sp)
800019a4:	02c12423          	sw	a2,40(sp)
800019a8:	02d12623          	sw	a3,44(sp)
800019ac:	00000517          	auipc	a0,0x0
800019b0:	e1050513          	addi	a0,a0,-496 # 800017bc <putchar>
800019b4:	00030693          	mv	a3,t1
800019b8:	000e0613          	mv	a2,t3
800019bc:	00000593          	li	a1,0
800019c0:	00112e23          	sw	ra,28(sp)
800019c4:	02e12823          	sw	a4,48(sp)
800019c8:	02f12a23          	sw	a5,52(sp)
800019cc:	03012c23          	sw	a6,56(sp)
800019d0:	03112e23          	sw	a7,60(sp)
800019d4:	00612623          	sw	t1,12(sp)
800019d8:	841ff0ef          	jal	ra,80001218 <vprintfmt>
800019dc:	01c12083          	lw	ra,28(sp)
800019e0:	00000513          	li	a0,0
800019e4:	04010113          	addi	sp,sp,64
800019e8:	00008067          	ret

800019ec <sprintf>:
800019ec:	fb010113          	addi	sp,sp,-80
800019f0:	03810313          	addi	t1,sp,56
800019f4:	02812423          	sw	s0,40(sp)
800019f8:	00a12623          	sw	a0,12(sp)
800019fc:	02c12c23          	sw	a2,56(sp)
80001a00:	02d12e23          	sw	a3,60(sp)
80001a04:	00050413          	mv	s0,a0
80001a08:	00058613          	mv	a2,a1
80001a0c:	00000517          	auipc	a0,0x0
80001a10:	d0850513          	addi	a0,a0,-760 # 80001714 <sprintf_putch.3055>
80001a14:	00c10593          	addi	a1,sp,12
80001a18:	00030693          	mv	a3,t1
80001a1c:	02112623          	sw	ra,44(sp)
80001a20:	04f12223          	sw	a5,68(sp)
80001a24:	04e12023          	sw	a4,64(sp)
80001a28:	05012423          	sw	a6,72(sp)
80001a2c:	05112623          	sw	a7,76(sp)
80001a30:	00612e23          	sw	t1,28(sp)
80001a34:	fe4ff0ef          	jal	ra,80001218 <vprintfmt>
80001a38:	00c12783          	lw	a5,12(sp)
80001a3c:	00078023          	sb	zero,0(a5)
80001a40:	00c12503          	lw	a0,12(sp)
80001a44:	02c12083          	lw	ra,44(sp)
80001a48:	40850533          	sub	a0,a0,s0
80001a4c:	02812403          	lw	s0,40(sp)
80001a50:	05010113          	addi	sp,sp,80
80001a54:	00008067          	ret

80001a58 <memcpy>:
80001a58:	00c5e7b3          	or	a5,a1,a2
80001a5c:	00f567b3          	or	a5,a0,a5
80001a60:	0037f793          	andi	a5,a5,3
80001a64:	00c506b3          	add	a3,a0,a2
80001a68:	02078463          	beqz	a5,80001a90 <memcpy+0x38>
80001a6c:	00c58633          	add	a2,a1,a2
80001a70:	00050793          	mv	a5,a0
80001a74:	02d57e63          	bgeu	a0,a3,80001ab0 <memcpy+0x58>
80001a78:	0005c703          	lbu	a4,0(a1)
80001a7c:	00158593          	addi	a1,a1,1
80001a80:	00178793          	addi	a5,a5,1
80001a84:	fee78fa3          	sb	a4,-1(a5)
80001a88:	feb618e3          	bne	a2,a1,80001a78 <memcpy+0x20>
80001a8c:	00008067          	ret
80001a90:	fed57ee3          	bgeu	a0,a3,80001a8c <memcpy+0x34>
80001a94:	00050793          	mv	a5,a0
80001a98:	0005a703          	lw	a4,0(a1)
80001a9c:	00478793          	addi	a5,a5,4
80001aa0:	00458593          	addi	a1,a1,4
80001aa4:	fee7ae23          	sw	a4,-4(a5)
80001aa8:	fed7e8e3          	bltu	a5,a3,80001a98 <memcpy+0x40>
80001aac:	00008067          	ret
80001ab0:	00008067          	ret

80001ab4 <memset>:
80001ab4:	00c567b3          	or	a5,a0,a2
80001ab8:	0037f793          	andi	a5,a5,3
80001abc:	00c50633          	add	a2,a0,a2
80001ac0:	02078063          	beqz	a5,80001ae0 <memset+0x2c>
80001ac4:	0ff5f593          	andi	a1,a1,255
80001ac8:	00050793          	mv	a5,a0
80001acc:	04c57063          	bgeu	a0,a2,80001b0c <memset+0x58>
80001ad0:	00178793          	addi	a5,a5,1
80001ad4:	feb78fa3          	sb	a1,-1(a5)
80001ad8:	fef61ce3          	bne	a2,a5,80001ad0 <memset+0x1c>
80001adc:	00008067          	ret
80001ae0:	0ff5f593          	andi	a1,a1,255
80001ae4:	00859713          	slli	a4,a1,0x8
80001ae8:	00e5e733          	or	a4,a1,a4
80001aec:	01071793          	slli	a5,a4,0x10
80001af0:	00f76733          	or	a4,a4,a5
80001af4:	fec574e3          	bgeu	a0,a2,80001adc <memset+0x28>
80001af8:	00050793          	mv	a5,a0
80001afc:	00478793          	addi	a5,a5,4
80001b00:	fee7ae23          	sw	a4,-4(a5)
80001b04:	fec7ece3          	bltu	a5,a2,80001afc <memset+0x48>
80001b08:	00008067          	ret
80001b0c:	00008067          	ret

80001b10 <_init>:
80001b10:	f6010113          	addi	sp,sp,-160
80001b14:	00005797          	auipc	a5,0x5
80001b18:	79878793          	addi	a5,a5,1944 # 800072ac <_tdata_begin>
80001b1c:	09412423          	sw	s4,136(sp)
80001b20:	00005a17          	auipc	s4,0x5
80001b24:	78ca0a13          	addi	s4,s4,1932 # 800072ac <_tdata_begin>
80001b28:	09312623          	sw	s3,140(sp)
80001b2c:	40fa09b3          	sub	s3,s4,a5
80001b30:	08912a23          	sw	s1,148(sp)
80001b34:	09212823          	sw	s2,144(sp)
80001b38:	00050493          	mv	s1,a0
80001b3c:	00058913          	mv	s2,a1
80001b40:	00020513          	mv	a0,tp
80001b44:	00078593          	mv	a1,a5
80001b48:	00098613          	mv	a2,s3
80001b4c:	08112e23          	sw	ra,156(sp)
80001b50:	08812c23          	sw	s0,152(sp)
80001b54:	09512223          	sw	s5,132(sp)
80001b58:	00020a93          	mv	s5,tp
80001b5c:	efdff0ef          	jal	ra,80001a58 <memcpy>
80001b60:	86818613          	addi	a2,gp,-1944 # 80007304 <_tbss_end>
80001b64:	41460633          	sub	a2,a2,s4
80001b68:	00000593          	li	a1,0
80001b6c:	013a8533          	add	a0,s5,s3
80001b70:	f45ff0ef          	jal	ra,80001ab4 <memset>
80001b74:	00090593          	mv	a1,s2
80001b78:	00048513          	mv	a0,s1
80001b7c:	da5ff0ef          	jal	ra,80001920 <thread_entry>
80001b80:	00000593          	li	a1,0
80001b84:	00000513          	li	a0,0
80001b88:	2d8010ef          	jal	ra,80002e60 <main>
80001b8c:	00005917          	auipc	s2,0x5
80001b90:	71890913          	addi	s2,s2,1816 # 800072a4 <counters>
80001b94:	00092683          	lw	a3,0(s2)
80001b98:	03f10413          	addi	s0,sp,63
80001b9c:	fc047413          	andi	s0,s0,-64
80001ba0:	00050493          	mv	s1,a0
80001ba4:	04069463          	bnez	a3,80001bec <_init+0xdc>
80001ba8:	00492683          	lw	a3,4(s2)
80001bac:	00069663          	bnez	a3,80001bb8 <_init+0xa8>
80001bb0:	00048513          	mv	a0,s1
80001bb4:	ccdff0ef          	jal	ra,80001880 <tohost_exit>
80001bb8:	00040913          	mv	s2,s0
80001bbc:	00005997          	auipc	s3,0x5
80001bc0:	6e098993          	addi	s3,s3,1760 # 8000729c <counter_names>
80001bc4:	0049a603          	lw	a2,4(s3)
80001bc8:	00090513          	mv	a0,s2
80001bcc:	00001597          	auipc	a1,0x1
80001bd0:	36858593          	addi	a1,a1,872 # 80002f34 <main+0xd4>
80001bd4:	e19ff0ef          	jal	ra,800019ec <sprintf>
80001bd8:	00a90933          	add	s2,s2,a0
80001bdc:	fd240ae3          	beq	s0,s2,80001bb0 <_init+0xa0>
80001be0:	00040513          	mv	a0,s0
80001be4:	d05ff0ef          	jal	ra,800018e8 <printstr>
80001be8:	fc9ff06f          	j	80001bb0 <_init+0xa0>
80001bec:	00005997          	auipc	s3,0x5
80001bf0:	6b098993          	addi	s3,s3,1712 # 8000729c <counter_names>
80001bf4:	0009a603          	lw	a2,0(s3)
80001bf8:	00001597          	auipc	a1,0x1
80001bfc:	33c58593          	addi	a1,a1,828 # 80002f34 <main+0xd4>
80001c00:	00040513          	mv	a0,s0
80001c04:	de9ff0ef          	jal	ra,800019ec <sprintf>
80001c08:	00492683          	lw	a3,4(s2)
80001c0c:	00a40933          	add	s2,s0,a0
80001c10:	fc0686e3          	beqz	a3,80001bdc <_init+0xcc>
80001c14:	fb1ff06f          	j	80001bc4 <_init+0xb4>

80001c18 <strlen>:
80001c18:	00054783          	lbu	a5,0(a0)
80001c1c:	00078e63          	beqz	a5,80001c38 <strlen+0x20>
80001c20:	00050793          	mv	a5,a0
80001c24:	0017c703          	lbu	a4,1(a5)
80001c28:	00178793          	addi	a5,a5,1
80001c2c:	fe071ce3          	bnez	a4,80001c24 <strlen+0xc>
80001c30:	40a78533          	sub	a0,a5,a0
80001c34:	00008067          	ret
80001c38:	00000513          	li	a0,0
80001c3c:	00008067          	ret

80001c40 <strnlen>:
80001c40:	00050613          	mv	a2,a0
80001c44:	00b606b3          	add	a3,a2,a1
80001c48:	00058513          	mv	a0,a1
80001c4c:	00060793          	mv	a5,a2
80001c50:	00059863          	bnez	a1,80001c60 <strnlen+0x20>
80001c54:	01c0006f          	j	80001c70 <strnlen+0x30>
80001c58:	00178793          	addi	a5,a5,1
80001c5c:	00f68863          	beq	a3,a5,80001c6c <strnlen+0x2c>
80001c60:	0007c703          	lbu	a4,0(a5)
80001c64:	fe071ae3          	bnez	a4,80001c58 <strnlen+0x18>
80001c68:	40c78533          	sub	a0,a5,a2
80001c6c:	00008067          	ret
80001c70:	00008067          	ret

80001c74 <strcmp>:
80001c74:	00054783          	lbu	a5,0(a0)
80001c78:	00158593          	addi	a1,a1,1
80001c7c:	00150513          	addi	a0,a0,1
80001c80:	fff5c703          	lbu	a4,-1(a1)
80001c84:	00078863          	beqz	a5,80001c94 <strcmp+0x20>
80001c88:	fee786e3          	beq	a5,a4,80001c74 <strcmp>
80001c8c:	40e78533          	sub	a0,a5,a4
80001c90:	00008067          	ret
80001c94:	00000793          	li	a5,0
80001c98:	ff5ff06f          	j	80001c8c <strcmp+0x18>

80001c9c <strcpy>:
80001c9c:	00050793          	mv	a5,a0
80001ca0:	0005c703          	lbu	a4,0(a1)
80001ca4:	00178793          	addi	a5,a5,1
80001ca8:	00158593          	addi	a1,a1,1
80001cac:	fee78fa3          	sb	a4,-1(a5)
80001cb0:	fe0718e3          	bnez	a4,80001ca0 <strcpy+0x4>
80001cb4:	00008067          	ret

80001cb8 <atol>:
80001cb8:	00054703          	lbu	a4,0(a0)
80001cbc:	02000693          	li	a3,32
80001cc0:	00050793          	mv	a5,a0
80001cc4:	00d71863          	bne	a4,a3,80001cd4 <atol+0x1c>
80001cc8:	0017c703          	lbu	a4,1(a5)
80001ccc:	00178793          	addi	a5,a5,1
80001cd0:	fed70ce3          	beq	a4,a3,80001cc8 <atol+0x10>
80001cd4:	02d00693          	li	a3,45
80001cd8:	06d70063          	beq	a4,a3,80001d38 <atol+0x80>
80001cdc:	02b00693          	li	a3,43
80001ce0:	04d70063          	beq	a4,a3,80001d20 <atol+0x68>
80001ce4:	0007c683          	lbu	a3,0(a5)
80001ce8:	00000593          	li	a1,0
80001cec:	04068263          	beqz	a3,80001d30 <atol+0x78>
80001cf0:	00000513          	li	a0,0
80001cf4:	00178793          	addi	a5,a5,1
80001cf8:	fd068613          	addi	a2,a3,-48
80001cfc:	00251713          	slli	a4,a0,0x2
80001d00:	0007c683          	lbu	a3,0(a5)
80001d04:	00a70533          	add	a0,a4,a0
80001d08:	00151513          	slli	a0,a0,0x1
80001d0c:	00a60533          	add	a0,a2,a0
80001d10:	fe0692e3          	bnez	a3,80001cf4 <atol+0x3c>
80001d14:	02058063          	beqz	a1,80001d34 <atol+0x7c>
80001d18:	40a00533          	neg	a0,a0
80001d1c:	00008067          	ret
80001d20:	0017c683          	lbu	a3,1(a5)
80001d24:	00000593          	li	a1,0
80001d28:	00178793          	addi	a5,a5,1
80001d2c:	fc0692e3          	bnez	a3,80001cf0 <atol+0x38>
80001d30:	00000513          	li	a0,0
80001d34:	00008067          	ret
80001d38:	0017c683          	lbu	a3,1(a5)
80001d3c:	00100593          	li	a1,1
80001d40:	00178793          	addi	a5,a5,1
80001d44:	fa0696e3          	bnez	a3,80001cf0 <atol+0x38>
80001d48:	00000513          	li	a0,0
80001d4c:	fe9ff06f          	j	80001d34 <atol+0x7c>

80001d50 <__moddi3>:
80001d50:	fc010113          	addi	sp,sp,-64
80001d54:	02912a23          	sw	s1,52(sp)
80001d58:	01712e23          	sw	s7,28(sp)
80001d5c:	01912a23          	sw	s9,20(sp)
80001d60:	02112e23          	sw	ra,60(sp)
80001d64:	02812c23          	sw	s0,56(sp)
80001d68:	03212823          	sw	s2,48(sp)
80001d6c:	03312623          	sw	s3,44(sp)
80001d70:	03412423          	sw	s4,40(sp)
80001d74:	03512223          	sw	s5,36(sp)
80001d78:	03612023          	sw	s6,32(sp)
80001d7c:	01812c23          	sw	s8,24(sp)
80001d80:	01a12823          	sw	s10,16(sp)
80001d84:	01b12623          	sw	s11,12(sp)
80001d88:	00050b93          	mv	s7,a0
80001d8c:	00058c93          	mv	s9,a1
80001d90:	00000493          	li	s1,0
80001d94:	0005dc63          	bgez	a1,80001dac <__moddi3+0x5c>
80001d98:	00a037b3          	snez	a5,a0
80001d9c:	40b00933          	neg	s2,a1
80001da0:	40f90cb3          	sub	s9,s2,a5
80001da4:	40a00bb3          	neg	s7,a0
80001da8:	fff00493          	li	s1,-1
80001dac:	0006da63          	bgez	a3,80001dc0 <__moddi3+0x70>
80001db0:	00c03933          	snez	s2,a2
80001db4:	40d007b3          	neg	a5,a3
80001db8:	412786b3          	sub	a3,a5,s2
80001dbc:	40c00633          	neg	a2,a2
80001dc0:	00060a93          	mv	s5,a2
80001dc4:	00068993          	mv	s3,a3
80001dc8:	000b8413          	mv	s0,s7
80001dcc:	000c8913          	mv	s2,s9
80001dd0:	2a069863          	bnez	a3,80002080 <__moddi3+0x330>
80001dd4:	80003a37          	lui	s4,0x80003
80001dd8:	098a0a13          	addi	s4,s4,152 # 80003098 <__global_pointer$+0xffffb5fc>
80001ddc:	14ccfe63          	bgeu	s9,a2,80001f38 <__moddi3+0x1e8>
80001de0:	000107b7          	lui	a5,0x10
80001de4:	14f67063          	bgeu	a2,a5,80001f24 <__moddi3+0x1d4>
80001de8:	0ff00793          	li	a5,255
80001dec:	00c7f463          	bgeu	a5,a2,80001df4 <__moddi3+0xa4>
80001df0:	00800993          	li	s3,8
80001df4:	013657b3          	srl	a5,a2,s3
80001df8:	00fa0a33          	add	s4,s4,a5
80001dfc:	000a4783          	lbu	a5,0(s4)
80001e00:	02000713          	li	a4,32
80001e04:	013787b3          	add	a5,a5,s3
80001e08:	40f709b3          	sub	s3,a4,a5
80001e0c:	00f70c63          	beq	a4,a5,80001e24 <__moddi3+0xd4>
80001e10:	013c96b3          	sll	a3,s9,s3
80001e14:	00fbd7b3          	srl	a5,s7,a5
80001e18:	01361ab3          	sll	s5,a2,s3
80001e1c:	00d7e933          	or	s2,a5,a3
80001e20:	013b9433          	sll	s0,s7,s3
80001e24:	010adb13          	srli	s6,s5,0x10
80001e28:	000b0593          	mv	a1,s6
80001e2c:	00090513          	mv	a0,s2
80001e30:	7cd000ef          	jal	ra,80002dfc <__umodsi3>
80001e34:	010a9b93          	slli	s7,s5,0x10
80001e38:	00050a13          	mv	s4,a0
80001e3c:	010bdb93          	srli	s7,s7,0x10
80001e40:	000b0593          	mv	a1,s6
80001e44:	00090513          	mv	a0,s2
80001e48:	76d000ef          	jal	ra,80002db4 <__udivsi3>
80001e4c:	00050593          	mv	a1,a0
80001e50:	000b8513          	mv	a0,s7
80001e54:	735000ef          	jal	ra,80002d88 <__mulsi3>
80001e58:	010a1a13          	slli	s4,s4,0x10
80001e5c:	01045793          	srli	a5,s0,0x10
80001e60:	00fa67b3          	or	a5,s4,a5
80001e64:	00a7fa63          	bgeu	a5,a0,80001e78 <__moddi3+0x128>
80001e68:	015787b3          	add	a5,a5,s5
80001e6c:	0157e663          	bltu	a5,s5,80001e78 <__moddi3+0x128>
80001e70:	00a7f463          	bgeu	a5,a0,80001e78 <__moddi3+0x128>
80001e74:	015787b3          	add	a5,a5,s5
80001e78:	40a78933          	sub	s2,a5,a0
80001e7c:	000b0593          	mv	a1,s6
80001e80:	00090513          	mv	a0,s2
80001e84:	779000ef          	jal	ra,80002dfc <__umodsi3>
80001e88:	00050a13          	mv	s4,a0
80001e8c:	000b0593          	mv	a1,s6
80001e90:	00090513          	mv	a0,s2
80001e94:	721000ef          	jal	ra,80002db4 <__udivsi3>
80001e98:	01041413          	slli	s0,s0,0x10
80001e9c:	00050593          	mv	a1,a0
80001ea0:	010a1a13          	slli	s4,s4,0x10
80001ea4:	000b8513          	mv	a0,s7
80001ea8:	01045413          	srli	s0,s0,0x10
80001eac:	6dd000ef          	jal	ra,80002d88 <__mulsi3>
80001eb0:	008a6433          	or	s0,s4,s0
80001eb4:	00a47a63          	bgeu	s0,a0,80001ec8 <__moddi3+0x178>
80001eb8:	01540433          	add	s0,s0,s5
80001ebc:	01546663          	bltu	s0,s5,80001ec8 <__moddi3+0x178>
80001ec0:	00a47463          	bgeu	s0,a0,80001ec8 <__moddi3+0x178>
80001ec4:	01540433          	add	s0,s0,s5
80001ec8:	40a40433          	sub	s0,s0,a0
80001ecc:	01345533          	srl	a0,s0,s3
80001ed0:	00000593          	li	a1,0
80001ed4:	00048a63          	beqz	s1,80001ee8 <__moddi3+0x198>
80001ed8:	00a037b3          	snez	a5,a0
80001edc:	40b006b3          	neg	a3,a1
80001ee0:	40f685b3          	sub	a1,a3,a5
80001ee4:	40a00533          	neg	a0,a0
80001ee8:	03c12083          	lw	ra,60(sp)
80001eec:	03812403          	lw	s0,56(sp)
80001ef0:	03412483          	lw	s1,52(sp)
80001ef4:	03012903          	lw	s2,48(sp)
80001ef8:	02c12983          	lw	s3,44(sp)
80001efc:	02812a03          	lw	s4,40(sp)
80001f00:	02412a83          	lw	s5,36(sp)
80001f04:	02012b03          	lw	s6,32(sp)
80001f08:	01c12b83          	lw	s7,28(sp)
80001f0c:	01812c03          	lw	s8,24(sp)
80001f10:	01412c83          	lw	s9,20(sp)
80001f14:	01012d03          	lw	s10,16(sp)
80001f18:	00c12d83          	lw	s11,12(sp)
80001f1c:	04010113          	addi	sp,sp,64
80001f20:	00008067          	ret
80001f24:	010007b7          	lui	a5,0x1000
80001f28:	01000993          	li	s3,16
80001f2c:	ecf664e3          	bltu	a2,a5,80001df4 <__moddi3+0xa4>
80001f30:	01800993          	li	s3,24
80001f34:	ec1ff06f          	j	80001df4 <__moddi3+0xa4>
80001f38:	00061a63          	bnez	a2,80001f4c <__moddi3+0x1fc>
80001f3c:	00000593          	li	a1,0
80001f40:	00100513          	li	a0,1
80001f44:	671000ef          	jal	ra,80002db4 <__udivsi3>
80001f48:	00050a93          	mv	s5,a0
80001f4c:	000107b7          	lui	a5,0x10
80001f50:	04fafc63          	bgeu	s5,a5,80001fa8 <__moddi3+0x258>
80001f54:	0ff00793          	li	a5,255
80001f58:	0157f463          	bgeu	a5,s5,80001f60 <__moddi3+0x210>
80001f5c:	00800993          	li	s3,8
80001f60:	013ad7b3          	srl	a5,s5,s3
80001f64:	00fa0a33          	add	s4,s4,a5
80001f68:	000a4783          	lbu	a5,0(s4)
80001f6c:	02000713          	li	a4,32
80001f70:	013787b3          	add	a5,a5,s3
80001f74:	40f709b3          	sub	s3,a4,a5
80001f78:	04f71263          	bne	a4,a5,80001fbc <__moddi3+0x26c>
80001f7c:	415c8cb3          	sub	s9,s9,s5
80001f80:	010adb13          	srli	s6,s5,0x10
80001f84:	000b0593          	mv	a1,s6
80001f88:	000c8513          	mv	a0,s9
80001f8c:	671000ef          	jal	ra,80002dfc <__umodsi3>
80001f90:	010a9b93          	slli	s7,s5,0x10
80001f94:	00050a13          	mv	s4,a0
80001f98:	010bdb93          	srli	s7,s7,0x10
80001f9c:	000b0593          	mv	a1,s6
80001fa0:	000c8513          	mv	a0,s9
80001fa4:	ea5ff06f          	j	80001e48 <__moddi3+0xf8>
80001fa8:	010007b7          	lui	a5,0x1000
80001fac:	01000993          	li	s3,16
80001fb0:	fafae8e3          	bltu	s5,a5,80001f60 <__moddi3+0x210>
80001fb4:	01800993          	li	s3,24
80001fb8:	fa9ff06f          	j	80001f60 <__moddi3+0x210>
80001fbc:	013a9ab3          	sll	s5,s5,s3
80001fc0:	00fcdb33          	srl	s6,s9,a5
80001fc4:	010ad913          	srli	s2,s5,0x10
80001fc8:	00fbd7b3          	srl	a5,s7,a5
80001fcc:	013c96b3          	sll	a3,s9,s3
80001fd0:	00090593          	mv	a1,s2
80001fd4:	000b0513          	mv	a0,s6
80001fd8:	00d7ec33          	or	s8,a5,a3
80001fdc:	621000ef          	jal	ra,80002dfc <__umodsi3>
80001fe0:	00050a13          	mv	s4,a0
80001fe4:	00090593          	mv	a1,s2
80001fe8:	013b9433          	sll	s0,s7,s3
80001fec:	000b0513          	mv	a0,s6
80001ff0:	010a9b93          	slli	s7,s5,0x10
80001ff4:	5c1000ef          	jal	ra,80002db4 <__udivsi3>
80001ff8:	010bdb93          	srli	s7,s7,0x10
80001ffc:	00050593          	mv	a1,a0
80002000:	000b8513          	mv	a0,s7
80002004:	585000ef          	jal	ra,80002d88 <__mulsi3>
80002008:	010a1a13          	slli	s4,s4,0x10
8000200c:	010c5793          	srli	a5,s8,0x10
80002010:	00fa67b3          	or	a5,s4,a5
80002014:	00a7fa63          	bgeu	a5,a0,80002028 <__moddi3+0x2d8>
80002018:	015787b3          	add	a5,a5,s5
8000201c:	0157e663          	bltu	a5,s5,80002028 <__moddi3+0x2d8>
80002020:	00a7f463          	bgeu	a5,a0,80002028 <__moddi3+0x2d8>
80002024:	015787b3          	add	a5,a5,s5
80002028:	40a78b33          	sub	s6,a5,a0
8000202c:	00090593          	mv	a1,s2
80002030:	000b0513          	mv	a0,s6
80002034:	5c9000ef          	jal	ra,80002dfc <__umodsi3>
80002038:	00050a13          	mv	s4,a0
8000203c:	00090593          	mv	a1,s2
80002040:	000b0513          	mv	a0,s6
80002044:	571000ef          	jal	ra,80002db4 <__udivsi3>
80002048:	00050593          	mv	a1,a0
8000204c:	000b8513          	mv	a0,s7
80002050:	539000ef          	jal	ra,80002d88 <__mulsi3>
80002054:	010c1693          	slli	a3,s8,0x10
80002058:	010a1a13          	slli	s4,s4,0x10
8000205c:	0106d693          	srli	a3,a3,0x10
80002060:	00da66b3          	or	a3,s4,a3
80002064:	00a6fa63          	bgeu	a3,a0,80002078 <__moddi3+0x328>
80002068:	015686b3          	add	a3,a3,s5
8000206c:	0156e663          	bltu	a3,s5,80002078 <__moddi3+0x328>
80002070:	00a6f463          	bgeu	a3,a0,80002078 <__moddi3+0x328>
80002074:	015686b3          	add	a3,a3,s5
80002078:	40a68cb3          	sub	s9,a3,a0
8000207c:	f05ff06f          	j	80001f80 <__moddi3+0x230>
80002080:	00dcf863          	bgeu	s9,a3,80002090 <__moddi3+0x340>
80002084:	000b8513          	mv	a0,s7
80002088:	000c8593          	mv	a1,s9
8000208c:	e49ff06f          	j	80001ed4 <__moddi3+0x184>
80002090:	000107b7          	lui	a5,0x10
80002094:	04f6fc63          	bgeu	a3,a5,800020ec <__moddi3+0x39c>
80002098:	0ff00b13          	li	s6,255
8000209c:	00db3533          	sltu	a0,s6,a3
800020a0:	00351513          	slli	a0,a0,0x3
800020a4:	800037b7          	lui	a5,0x80003
800020a8:	00a6d733          	srl	a4,a3,a0
800020ac:	09878793          	addi	a5,a5,152 # 80003098 <__global_pointer$+0xffffb5fc>
800020b0:	00e787b3          	add	a5,a5,a4
800020b4:	0007cb03          	lbu	s6,0(a5)
800020b8:	02000793          	li	a5,32
800020bc:	00ab0b33          	add	s6,s6,a0
800020c0:	41678a33          	sub	s4,a5,s6
800020c4:	03679e63          	bne	a5,s6,80002100 <__moddi3+0x3b0>
800020c8:	0196e463          	bltu	a3,s9,800020d0 <__moddi3+0x380>
800020cc:	00cbea63          	bltu	s7,a2,800020e0 <__moddi3+0x390>
800020d0:	40cb8433          	sub	s0,s7,a2
800020d4:	40dc86b3          	sub	a3,s9,a3
800020d8:	008bbbb3          	sltu	s7,s7,s0
800020dc:	41768933          	sub	s2,a3,s7
800020e0:	00040513          	mv	a0,s0
800020e4:	00090593          	mv	a1,s2
800020e8:	dedff06f          	j	80001ed4 <__moddi3+0x184>
800020ec:	010007b7          	lui	a5,0x1000
800020f0:	01000513          	li	a0,16
800020f4:	faf6e8e3          	bltu	a3,a5,800020a4 <__moddi3+0x354>
800020f8:	01800513          	li	a0,24
800020fc:	fa9ff06f          	j	800020a4 <__moddi3+0x354>
80002100:	016657b3          	srl	a5,a2,s6
80002104:	014696b3          	sll	a3,a3,s4
80002108:	00d7ed33          	or	s10,a5,a3
8000210c:	016cd433          	srl	s0,s9,s6
80002110:	010d5c13          	srli	s8,s10,0x10
80002114:	014c96b3          	sll	a3,s9,s4
80002118:	016bd933          	srl	s2,s7,s6
8000211c:	000c0593          	mv	a1,s8
80002120:	00040513          	mv	a0,s0
80002124:	00d96933          	or	s2,s2,a3
80002128:	01461db3          	sll	s11,a2,s4
8000212c:	4d1000ef          	jal	ra,80002dfc <__umodsi3>
80002130:	00050a93          	mv	s5,a0
80002134:	000c0593          	mv	a1,s8
80002138:	00040513          	mv	a0,s0
8000213c:	010d1c93          	slli	s9,s10,0x10
80002140:	475000ef          	jal	ra,80002db4 <__udivsi3>
80002144:	010cdc93          	srli	s9,s9,0x10
80002148:	00050413          	mv	s0,a0
8000214c:	00050593          	mv	a1,a0
80002150:	000c8513          	mv	a0,s9
80002154:	435000ef          	jal	ra,80002d88 <__mulsi3>
80002158:	010a9a93          	slli	s5,s5,0x10
8000215c:	01095713          	srli	a4,s2,0x10
80002160:	00eae733          	or	a4,s5,a4
80002164:	014b9bb3          	sll	s7,s7,s4
80002168:	00040a93          	mv	s5,s0
8000216c:	00a77e63          	bgeu	a4,a0,80002188 <__moddi3+0x438>
80002170:	01a70733          	add	a4,a4,s10
80002174:	fff40a93          	addi	s5,s0,-1
80002178:	01a76863          	bltu	a4,s10,80002188 <__moddi3+0x438>
8000217c:	00a77663          	bgeu	a4,a0,80002188 <__moddi3+0x438>
80002180:	ffe40a93          	addi	s5,s0,-2
80002184:	01a70733          	add	a4,a4,s10
80002188:	40a709b3          	sub	s3,a4,a0
8000218c:	000c0593          	mv	a1,s8
80002190:	00098513          	mv	a0,s3
80002194:	469000ef          	jal	ra,80002dfc <__umodsi3>
80002198:	00050413          	mv	s0,a0
8000219c:	000c0593          	mv	a1,s8
800021a0:	00098513          	mv	a0,s3
800021a4:	411000ef          	jal	ra,80002db4 <__udivsi3>
800021a8:	00050993          	mv	s3,a0
800021ac:	00050593          	mv	a1,a0
800021b0:	000c8513          	mv	a0,s9
800021b4:	3d5000ef          	jal	ra,80002d88 <__mulsi3>
800021b8:	01091693          	slli	a3,s2,0x10
800021bc:	01041413          	slli	s0,s0,0x10
800021c0:	0106d693          	srli	a3,a3,0x10
800021c4:	00d466b3          	or	a3,s0,a3
800021c8:	00098793          	mv	a5,s3
800021cc:	00a6fe63          	bgeu	a3,a0,800021e8 <__moddi3+0x498>
800021d0:	01a686b3          	add	a3,a3,s10
800021d4:	fff98793          	addi	a5,s3,-1
800021d8:	01a6e863          	bltu	a3,s10,800021e8 <__moddi3+0x498>
800021dc:	00a6f663          	bgeu	a3,a0,800021e8 <__moddi3+0x498>
800021e0:	ffe98793          	addi	a5,s3,-2
800021e4:	01a686b3          	add	a3,a3,s10
800021e8:	00010337          	lui	t1,0x10
800021ec:	010a9a93          	slli	s5,s5,0x10
800021f0:	00faeab3          	or	s5,s5,a5
800021f4:	fff30813          	addi	a6,t1,-1 # ffff <buflen.2941+0xffbf>
800021f8:	010af733          	and	a4,s5,a6
800021fc:	010df833          	and	a6,s11,a6
80002200:	40a68933          	sub	s2,a3,a0
80002204:	010ada93          	srli	s5,s5,0x10
80002208:	010dd893          	srli	a7,s11,0x10
8000220c:	00070513          	mv	a0,a4
80002210:	00080593          	mv	a1,a6
80002214:	375000ef          	jal	ra,80002d88 <__mulsi3>
80002218:	00050793          	mv	a5,a0
8000221c:	00088593          	mv	a1,a7
80002220:	00070513          	mv	a0,a4
80002224:	365000ef          	jal	ra,80002d88 <__mulsi3>
80002228:	00050713          	mv	a4,a0
8000222c:	00080593          	mv	a1,a6
80002230:	000a8513          	mv	a0,s5
80002234:	355000ef          	jal	ra,80002d88 <__mulsi3>
80002238:	00050813          	mv	a6,a0
8000223c:	00088593          	mv	a1,a7
80002240:	000a8513          	mv	a0,s5
80002244:	345000ef          	jal	ra,80002d88 <__mulsi3>
80002248:	01070733          	add	a4,a4,a6
8000224c:	0107d693          	srli	a3,a5,0x10
80002250:	00d70733          	add	a4,a4,a3
80002254:	01077463          	bgeu	a4,a6,8000225c <__moddi3+0x50c>
80002258:	00650533          	add	a0,a0,t1
8000225c:	01075593          	srli	a1,a4,0x10
80002260:	00a585b3          	add	a1,a1,a0
80002264:	00010537          	lui	a0,0x10
80002268:	fff50513          	addi	a0,a0,-1 # ffff <buflen.2941+0xffbf>
8000226c:	00a77733          	and	a4,a4,a0
80002270:	01071713          	slli	a4,a4,0x10
80002274:	00a7f7b3          	and	a5,a5,a0
80002278:	00f707b3          	add	a5,a4,a5
8000227c:	00b96663          	bltu	s2,a1,80002288 <__moddi3+0x538>
80002280:	00b91e63          	bne	s2,a1,8000229c <__moddi3+0x54c>
80002284:	00fbfc63          	bgeu	s7,a5,8000229c <__moddi3+0x54c>
80002288:	41b78633          	sub	a2,a5,s11
8000228c:	00c7b7b3          	sltu	a5,a5,a2
80002290:	01a787b3          	add	a5,a5,s10
80002294:	40f585b3          	sub	a1,a1,a5
80002298:	00060793          	mv	a5,a2
8000229c:	40fb87b3          	sub	a5,s7,a5
800022a0:	00fbbbb3          	sltu	s7,s7,a5
800022a4:	40b905b3          	sub	a1,s2,a1
800022a8:	417585b3          	sub	a1,a1,s7
800022ac:	01659433          	sll	s0,a1,s6
800022b0:	0147d7b3          	srl	a5,a5,s4
800022b4:	00f46533          	or	a0,s0,a5
800022b8:	0145d5b3          	srl	a1,a1,s4
800022bc:	c19ff06f          	j	80001ed4 <__moddi3+0x184>

800022c0 <__udivdi3>:
800022c0:	fd010113          	addi	sp,sp,-48
800022c4:	02812423          	sw	s0,40(sp)
800022c8:	01712623          	sw	s7,12(sp)
800022cc:	02112623          	sw	ra,44(sp)
800022d0:	02912223          	sw	s1,36(sp)
800022d4:	03212023          	sw	s2,32(sp)
800022d8:	01312e23          	sw	s3,28(sp)
800022dc:	01412c23          	sw	s4,24(sp)
800022e0:	01512a23          	sw	s5,20(sp)
800022e4:	01612823          	sw	s6,16(sp)
800022e8:	01812423          	sw	s8,8(sp)
800022ec:	01912223          	sw	s9,4(sp)
800022f0:	00050b93          	mv	s7,a0
800022f4:	00058413          	mv	s0,a1
800022f8:	38069c63          	bnez	a3,80002690 <__udivdi3+0x3d0>
800022fc:	800034b7          	lui	s1,0x80003
80002300:	00060913          	mv	s2,a2
80002304:	00050a13          	mv	s4,a0
80002308:	09848493          	addi	s1,s1,152 # 80003098 <__global_pointer$+0xffffb5fc>
8000230c:	12c5f863          	bgeu	a1,a2,8000243c <__udivdi3+0x17c>
80002310:	000107b7          	lui	a5,0x10
80002314:	00058c13          	mv	s8,a1
80002318:	10f67863          	bgeu	a2,a5,80002428 <__udivdi3+0x168>
8000231c:	0ff00713          	li	a4,255
80002320:	00c73733          	sltu	a4,a4,a2
80002324:	00371713          	slli	a4,a4,0x3
80002328:	00e657b3          	srl	a5,a2,a4
8000232c:	00f484b3          	add	s1,s1,a5
80002330:	0004c683          	lbu	a3,0(s1)
80002334:	00e68733          	add	a4,a3,a4
80002338:	02000693          	li	a3,32
8000233c:	40e687b3          	sub	a5,a3,a4
80002340:	00e68c63          	beq	a3,a4,80002358 <__udivdi3+0x98>
80002344:	00f41433          	sll	s0,s0,a5
80002348:	00ebd733          	srl	a4,s7,a4
8000234c:	00f61933          	sll	s2,a2,a5
80002350:	00876c33          	or	s8,a4,s0
80002354:	00fb9a33          	sll	s4,s7,a5
80002358:	01095b13          	srli	s6,s2,0x10
8000235c:	000b0593          	mv	a1,s6
80002360:	000c0513          	mv	a0,s8
80002364:	299000ef          	jal	ra,80002dfc <__umodsi3>
80002368:	00050493          	mv	s1,a0
8000236c:	000b0593          	mv	a1,s6
80002370:	01091a93          	slli	s5,s2,0x10
80002374:	000c0513          	mv	a0,s8
80002378:	23d000ef          	jal	ra,80002db4 <__udivsi3>
8000237c:	010ada93          	srli	s5,s5,0x10
80002380:	00050413          	mv	s0,a0
80002384:	00050593          	mv	a1,a0
80002388:	000a8513          	mv	a0,s5
8000238c:	1fd000ef          	jal	ra,80002d88 <__mulsi3>
80002390:	01049493          	slli	s1,s1,0x10
80002394:	010a5713          	srli	a4,s4,0x10
80002398:	00e4e733          	or	a4,s1,a4
8000239c:	00040993          	mv	s3,s0
800023a0:	00a77e63          	bgeu	a4,a0,800023bc <__udivdi3+0xfc>
800023a4:	01270733          	add	a4,a4,s2
800023a8:	fff40993          	addi	s3,s0,-1
800023ac:	01276863          	bltu	a4,s2,800023bc <__udivdi3+0xfc>
800023b0:	00a77663          	bgeu	a4,a0,800023bc <__udivdi3+0xfc>
800023b4:	ffe40993          	addi	s3,s0,-2
800023b8:	01270733          	add	a4,a4,s2
800023bc:	40a70433          	sub	s0,a4,a0
800023c0:	000b0593          	mv	a1,s6
800023c4:	00040513          	mv	a0,s0
800023c8:	235000ef          	jal	ra,80002dfc <__umodsi3>
800023cc:	00050493          	mv	s1,a0
800023d0:	000b0593          	mv	a1,s6
800023d4:	00040513          	mv	a0,s0
800023d8:	1dd000ef          	jal	ra,80002db4 <__udivsi3>
800023dc:	010a1a13          	slli	s4,s4,0x10
800023e0:	00050413          	mv	s0,a0
800023e4:	00050593          	mv	a1,a0
800023e8:	01049493          	slli	s1,s1,0x10
800023ec:	000a8513          	mv	a0,s5
800023f0:	010a5a13          	srli	s4,s4,0x10
800023f4:	195000ef          	jal	ra,80002d88 <__mulsi3>
800023f8:	0144ea33          	or	s4,s1,s4
800023fc:	00040613          	mv	a2,s0
80002400:	00aa7c63          	bgeu	s4,a0,80002418 <__udivdi3+0x158>
80002404:	01490a33          	add	s4,s2,s4
80002408:	fff40613          	addi	a2,s0,-1
8000240c:	012a6663          	bltu	s4,s2,80002418 <__udivdi3+0x158>
80002410:	00aa7463          	bgeu	s4,a0,80002418 <__udivdi3+0x158>
80002414:	ffe40613          	addi	a2,s0,-2
80002418:	01099793          	slli	a5,s3,0x10
8000241c:	00c7e7b3          	or	a5,a5,a2
80002420:	00000493          	li	s1,0
80002424:	1300006f          	j	80002554 <__udivdi3+0x294>
80002428:	010007b7          	lui	a5,0x1000
8000242c:	01000713          	li	a4,16
80002430:	eef66ce3          	bltu	a2,a5,80002328 <__udivdi3+0x68>
80002434:	01800713          	li	a4,24
80002438:	ef1ff06f          	j	80002328 <__udivdi3+0x68>
8000243c:	00068993          	mv	s3,a3
80002440:	00061a63          	bnez	a2,80002454 <__udivdi3+0x194>
80002444:	00000593          	li	a1,0
80002448:	00100513          	li	a0,1
8000244c:	169000ef          	jal	ra,80002db4 <__udivsi3>
80002450:	00050913          	mv	s2,a0
80002454:	000107b7          	lui	a5,0x10
80002458:	12f97c63          	bgeu	s2,a5,80002590 <__udivdi3+0x2d0>
8000245c:	0ff00793          	li	a5,255
80002460:	0127f463          	bgeu	a5,s2,80002468 <__udivdi3+0x1a8>
80002464:	00800993          	li	s3,8
80002468:	013957b3          	srl	a5,s2,s3
8000246c:	00f484b3          	add	s1,s1,a5
80002470:	0004c783          	lbu	a5,0(s1)
80002474:	02000693          	li	a3,32
80002478:	013787b3          	add	a5,a5,s3
8000247c:	40f68733          	sub	a4,a3,a5
80002480:	12f69263          	bne	a3,a5,800025a4 <__udivdi3+0x2e4>
80002484:	41240433          	sub	s0,s0,s2
80002488:	00100493          	li	s1,1
8000248c:	01095a93          	srli	s5,s2,0x10
80002490:	000a8593          	mv	a1,s5
80002494:	00040513          	mv	a0,s0
80002498:	165000ef          	jal	ra,80002dfc <__umodsi3>
8000249c:	00050993          	mv	s3,a0
800024a0:	000a8593          	mv	a1,s5
800024a4:	00040513          	mv	a0,s0
800024a8:	01091b13          	slli	s6,s2,0x10
800024ac:	109000ef          	jal	ra,80002db4 <__udivsi3>
800024b0:	010b5b13          	srli	s6,s6,0x10
800024b4:	00050413          	mv	s0,a0
800024b8:	00050593          	mv	a1,a0
800024bc:	000b0513          	mv	a0,s6
800024c0:	0c9000ef          	jal	ra,80002d88 <__mulsi3>
800024c4:	01099993          	slli	s3,s3,0x10
800024c8:	010a5713          	srli	a4,s4,0x10
800024cc:	00e9e733          	or	a4,s3,a4
800024d0:	00040b93          	mv	s7,s0
800024d4:	00a77e63          	bgeu	a4,a0,800024f0 <__udivdi3+0x230>
800024d8:	01270733          	add	a4,a4,s2
800024dc:	fff40b93          	addi	s7,s0,-1
800024e0:	01276863          	bltu	a4,s2,800024f0 <__udivdi3+0x230>
800024e4:	00a77663          	bgeu	a4,a0,800024f0 <__udivdi3+0x230>
800024e8:	ffe40b93          	addi	s7,s0,-2
800024ec:	01270733          	add	a4,a4,s2
800024f0:	40a70433          	sub	s0,a4,a0
800024f4:	000a8593          	mv	a1,s5
800024f8:	00040513          	mv	a0,s0
800024fc:	101000ef          	jal	ra,80002dfc <__umodsi3>
80002500:	00050993          	mv	s3,a0
80002504:	000a8593          	mv	a1,s5
80002508:	00040513          	mv	a0,s0
8000250c:	0a9000ef          	jal	ra,80002db4 <__udivsi3>
80002510:	010a1a13          	slli	s4,s4,0x10
80002514:	00050413          	mv	s0,a0
80002518:	00050593          	mv	a1,a0
8000251c:	01099993          	slli	s3,s3,0x10
80002520:	000b0513          	mv	a0,s6
80002524:	010a5a13          	srli	s4,s4,0x10
80002528:	061000ef          	jal	ra,80002d88 <__mulsi3>
8000252c:	0149ea33          	or	s4,s3,s4
80002530:	00040613          	mv	a2,s0
80002534:	00aa7c63          	bgeu	s4,a0,8000254c <__udivdi3+0x28c>
80002538:	01490a33          	add	s4,s2,s4
8000253c:	fff40613          	addi	a2,s0,-1
80002540:	012a6663          	bltu	s4,s2,8000254c <__udivdi3+0x28c>
80002544:	00aa7463          	bgeu	s4,a0,8000254c <__udivdi3+0x28c>
80002548:	ffe40613          	addi	a2,s0,-2
8000254c:	010b9793          	slli	a5,s7,0x10
80002550:	00c7e7b3          	or	a5,a5,a2
80002554:	00078513          	mv	a0,a5
80002558:	00048593          	mv	a1,s1
8000255c:	02c12083          	lw	ra,44(sp)
80002560:	02812403          	lw	s0,40(sp)
80002564:	02412483          	lw	s1,36(sp)
80002568:	02012903          	lw	s2,32(sp)
8000256c:	01c12983          	lw	s3,28(sp)
80002570:	01812a03          	lw	s4,24(sp)
80002574:	01412a83          	lw	s5,20(sp)
80002578:	01012b03          	lw	s6,16(sp)
8000257c:	00c12b83          	lw	s7,12(sp)
80002580:	00812c03          	lw	s8,8(sp)
80002584:	00412c83          	lw	s9,4(sp)
80002588:	03010113          	addi	sp,sp,48
8000258c:	00008067          	ret
80002590:	010007b7          	lui	a5,0x1000
80002594:	01000993          	li	s3,16
80002598:	ecf968e3          	bltu	s2,a5,80002468 <__udivdi3+0x1a8>
8000259c:	01800993          	li	s3,24
800025a0:	ec9ff06f          	j	80002468 <__udivdi3+0x1a8>
800025a4:	00e91933          	sll	s2,s2,a4
800025a8:	00f459b3          	srl	s3,s0,a5
800025ac:	00fbd7b3          	srl	a5,s7,a5
800025b0:	00e41433          	sll	s0,s0,a4
800025b4:	0087eab3          	or	s5,a5,s0
800025b8:	01095413          	srli	s0,s2,0x10
800025bc:	00040593          	mv	a1,s0
800025c0:	00098513          	mv	a0,s3
800025c4:	00eb9a33          	sll	s4,s7,a4
800025c8:	035000ef          	jal	ra,80002dfc <__umodsi3>
800025cc:	00050493          	mv	s1,a0
800025d0:	00040593          	mv	a1,s0
800025d4:	00098513          	mv	a0,s3
800025d8:	01091b13          	slli	s6,s2,0x10
800025dc:	7d8000ef          	jal	ra,80002db4 <__udivsi3>
800025e0:	010b5b13          	srli	s6,s6,0x10
800025e4:	00050993          	mv	s3,a0
800025e8:	00050593          	mv	a1,a0
800025ec:	000b0513          	mv	a0,s6
800025f0:	798000ef          	jal	ra,80002d88 <__mulsi3>
800025f4:	01049493          	slli	s1,s1,0x10
800025f8:	010ad793          	srli	a5,s5,0x10
800025fc:	00f4e7b3          	or	a5,s1,a5
80002600:	00098b93          	mv	s7,s3
80002604:	00a7fe63          	bgeu	a5,a0,80002620 <__udivdi3+0x360>
80002608:	012787b3          	add	a5,a5,s2
8000260c:	fff98b93          	addi	s7,s3,-1
80002610:	0127e863          	bltu	a5,s2,80002620 <__udivdi3+0x360>
80002614:	00a7f663          	bgeu	a5,a0,80002620 <__udivdi3+0x360>
80002618:	ffe98b93          	addi	s7,s3,-2
8000261c:	012787b3          	add	a5,a5,s2
80002620:	40a789b3          	sub	s3,a5,a0
80002624:	00040593          	mv	a1,s0
80002628:	00098513          	mv	a0,s3
8000262c:	7d0000ef          	jal	ra,80002dfc <__umodsi3>
80002630:	00040593          	mv	a1,s0
80002634:	00050493          	mv	s1,a0
80002638:	00098513          	mv	a0,s3
8000263c:	778000ef          	jal	ra,80002db4 <__udivsi3>
80002640:	010a9413          	slli	s0,s5,0x10
80002644:	00050993          	mv	s3,a0
80002648:	00050593          	mv	a1,a0
8000264c:	01049493          	slli	s1,s1,0x10
80002650:	000b0513          	mv	a0,s6
80002654:	01045413          	srli	s0,s0,0x10
80002658:	730000ef          	jal	ra,80002d88 <__mulsi3>
8000265c:	0084e433          	or	s0,s1,s0
80002660:	00098793          	mv	a5,s3
80002664:	00a47e63          	bgeu	s0,a0,80002680 <__udivdi3+0x3c0>
80002668:	01240433          	add	s0,s0,s2
8000266c:	fff98793          	addi	a5,s3,-1
80002670:	01246863          	bltu	s0,s2,80002680 <__udivdi3+0x3c0>
80002674:	00a47663          	bgeu	s0,a0,80002680 <__udivdi3+0x3c0>
80002678:	ffe98793          	addi	a5,s3,-2
8000267c:	01240433          	add	s0,s0,s2
80002680:	010b9493          	slli	s1,s7,0x10
80002684:	40a40433          	sub	s0,s0,a0
80002688:	00f4e4b3          	or	s1,s1,a5
8000268c:	e01ff06f          	j	8000248c <__udivdi3+0x1cc>
80002690:	1ed5ee63          	bltu	a1,a3,8000288c <__udivdi3+0x5cc>
80002694:	000107b7          	lui	a5,0x10
80002698:	04f6f463          	bgeu	a3,a5,800026e0 <__udivdi3+0x420>
8000269c:	0ff00a93          	li	s5,255
800026a0:	00dab733          	sltu	a4,s5,a3
800026a4:	00371713          	slli	a4,a4,0x3
800026a8:	800037b7          	lui	a5,0x80003
800026ac:	00e6d5b3          	srl	a1,a3,a4
800026b0:	09878793          	addi	a5,a5,152 # 80003098 <__global_pointer$+0xffffb5fc>
800026b4:	00b787b3          	add	a5,a5,a1
800026b8:	0007ca83          	lbu	s5,0(a5)
800026bc:	02000793          	li	a5,32
800026c0:	00ea8ab3          	add	s5,s5,a4
800026c4:	415784b3          	sub	s1,a5,s5
800026c8:	03579663          	bne	a5,s5,800026f4 <__udivdi3+0x434>
800026cc:	00100793          	li	a5,1
800026d0:	e886e2e3          	bltu	a3,s0,80002554 <__udivdi3+0x294>
800026d4:	00cbb7b3          	sltu	a5,s7,a2
800026d8:	0017c793          	xori	a5,a5,1
800026dc:	e79ff06f          	j	80002554 <__udivdi3+0x294>
800026e0:	010007b7          	lui	a5,0x1000
800026e4:	01000713          	li	a4,16
800026e8:	fcf6e0e3          	bltu	a3,a5,800026a8 <__udivdi3+0x3e8>
800026ec:	01800713          	li	a4,24
800026f0:	fb9ff06f          	j	800026a8 <__udivdi3+0x3e8>
800026f4:	01565cb3          	srl	s9,a2,s5
800026f8:	009696b3          	sll	a3,a3,s1
800026fc:	00dcecb3          	or	s9,s9,a3
80002700:	015459b3          	srl	s3,s0,s5
80002704:	00941433          	sll	s0,s0,s1
80002708:	015bdab3          	srl	s5,s7,s5
8000270c:	008aeab3          	or	s5,s5,s0
80002710:	010cd413          	srli	s0,s9,0x10
80002714:	00040593          	mv	a1,s0
80002718:	00098513          	mv	a0,s3
8000271c:	00961933          	sll	s2,a2,s1
80002720:	6dc000ef          	jal	ra,80002dfc <__umodsi3>
80002724:	00050a13          	mv	s4,a0
80002728:	00040593          	mv	a1,s0
8000272c:	00098513          	mv	a0,s3
80002730:	010c9b13          	slli	s6,s9,0x10
80002734:	680000ef          	jal	ra,80002db4 <__udivsi3>
80002738:	010b5b13          	srli	s6,s6,0x10
8000273c:	00050993          	mv	s3,a0
80002740:	00050593          	mv	a1,a0
80002744:	000b0513          	mv	a0,s6
80002748:	640000ef          	jal	ra,80002d88 <__mulsi3>
8000274c:	010a1a13          	slli	s4,s4,0x10
80002750:	010ad713          	srli	a4,s5,0x10
80002754:	00ea6733          	or	a4,s4,a4
80002758:	00098c13          	mv	s8,s3
8000275c:	00a77e63          	bgeu	a4,a0,80002778 <__udivdi3+0x4b8>
80002760:	01970733          	add	a4,a4,s9
80002764:	fff98c13          	addi	s8,s3,-1
80002768:	01976863          	bltu	a4,s9,80002778 <__udivdi3+0x4b8>
8000276c:	00a77663          	bgeu	a4,a0,80002778 <__udivdi3+0x4b8>
80002770:	ffe98c13          	addi	s8,s3,-2
80002774:	01970733          	add	a4,a4,s9
80002778:	40a709b3          	sub	s3,a4,a0
8000277c:	00040593          	mv	a1,s0
80002780:	00098513          	mv	a0,s3
80002784:	678000ef          	jal	ra,80002dfc <__umodsi3>
80002788:	00040593          	mv	a1,s0
8000278c:	00050a13          	mv	s4,a0
80002790:	00098513          	mv	a0,s3
80002794:	620000ef          	jal	ra,80002db4 <__udivsi3>
80002798:	010a9413          	slli	s0,s5,0x10
8000279c:	00050993          	mv	s3,a0
800027a0:	00050593          	mv	a1,a0
800027a4:	010a1a13          	slli	s4,s4,0x10
800027a8:	000b0513          	mv	a0,s6
800027ac:	01045413          	srli	s0,s0,0x10
800027b0:	5d8000ef          	jal	ra,80002d88 <__mulsi3>
800027b4:	008a6433          	or	s0,s4,s0
800027b8:	00098613          	mv	a2,s3
800027bc:	00a47e63          	bgeu	s0,a0,800027d8 <__udivdi3+0x518>
800027c0:	01940433          	add	s0,s0,s9
800027c4:	fff98613          	addi	a2,s3,-1
800027c8:	01946863          	bltu	s0,s9,800027d8 <__udivdi3+0x518>
800027cc:	00a47663          	bgeu	s0,a0,800027d8 <__udivdi3+0x518>
800027d0:	ffe98613          	addi	a2,s3,-2
800027d4:	01940433          	add	s0,s0,s9
800027d8:	010c1793          	slli	a5,s8,0x10
800027dc:	00010e37          	lui	t3,0x10
800027e0:	00c7e7b3          	or	a5,a5,a2
800027e4:	fffe0313          	addi	t1,t3,-1 # ffff <buflen.2941+0xffbf>
800027e8:	0067f8b3          	and	a7,a5,t1
800027ec:	00697333          	and	t1,s2,t1
800027f0:	40a40433          	sub	s0,s0,a0
800027f4:	0107de93          	srli	t4,a5,0x10
800027f8:	01095913          	srli	s2,s2,0x10
800027fc:	00088513          	mv	a0,a7
80002800:	00030593          	mv	a1,t1
80002804:	584000ef          	jal	ra,80002d88 <__mulsi3>
80002808:	00050813          	mv	a6,a0
8000280c:	00090593          	mv	a1,s2
80002810:	00088513          	mv	a0,a7
80002814:	574000ef          	jal	ra,80002d88 <__mulsi3>
80002818:	00050893          	mv	a7,a0
8000281c:	00030593          	mv	a1,t1
80002820:	000e8513          	mv	a0,t4
80002824:	564000ef          	jal	ra,80002d88 <__mulsi3>
80002828:	00050313          	mv	t1,a0
8000282c:	00090593          	mv	a1,s2
80002830:	000e8513          	mv	a0,t4
80002834:	554000ef          	jal	ra,80002d88 <__mulsi3>
80002838:	01085713          	srli	a4,a6,0x10
8000283c:	006888b3          	add	a7,a7,t1
80002840:	01170733          	add	a4,a4,a7
80002844:	00050693          	mv	a3,a0
80002848:	00677463          	bgeu	a4,t1,80002850 <__udivdi3+0x590>
8000284c:	01c506b3          	add	a3,a0,t3
80002850:	01075513          	srli	a0,a4,0x10
80002854:	00d506b3          	add	a3,a0,a3
80002858:	02d46663          	bltu	s0,a3,80002884 <__udivdi3+0x5c4>
8000285c:	bcd412e3          	bne	s0,a3,80002420 <__udivdi3+0x160>
80002860:	00010537          	lui	a0,0x10
80002864:	fff50513          	addi	a0,a0,-1 # ffff <buflen.2941+0xffbf>
80002868:	00a77733          	and	a4,a4,a0
8000286c:	01071713          	slli	a4,a4,0x10
80002870:	00a87833          	and	a6,a6,a0
80002874:	009b9bb3          	sll	s7,s7,s1
80002878:	01070733          	add	a4,a4,a6
8000287c:	00000493          	li	s1,0
80002880:	ccebfae3          	bgeu	s7,a4,80002554 <__udivdi3+0x294>
80002884:	fff78793          	addi	a5,a5,-1 # ffffff <buflen.2941+0xffffbf>
80002888:	b99ff06f          	j	80002420 <__udivdi3+0x160>
8000288c:	00000493          	li	s1,0
80002890:	00000793          	li	a5,0
80002894:	cc1ff06f          	j	80002554 <__udivdi3+0x294>

80002898 <__umoddi3>:
80002898:	fd010113          	addi	sp,sp,-48
8000289c:	02812423          	sw	s0,40(sp)
800028a0:	02912223          	sw	s1,36(sp)
800028a4:	03212023          	sw	s2,32(sp)
800028a8:	01612823          	sw	s6,16(sp)
800028ac:	02112623          	sw	ra,44(sp)
800028b0:	01312e23          	sw	s3,28(sp)
800028b4:	01412c23          	sw	s4,24(sp)
800028b8:	01512a23          	sw	s5,20(sp)
800028bc:	01712623          	sw	s7,12(sp)
800028c0:	01812423          	sw	s8,8(sp)
800028c4:	01912223          	sw	s9,4(sp)
800028c8:	01a12023          	sw	s10,0(sp)
800028cc:	00050913          	mv	s2,a0
800028d0:	00058b13          	mv	s6,a1
800028d4:	00050413          	mv	s0,a0
800028d8:	00058493          	mv	s1,a1
800028dc:	26069c63          	bnez	a3,80002b54 <__umoddi3+0x2bc>
800028e0:	80003ab7          	lui	s5,0x80003
800028e4:	00060a13          	mv	s4,a2
800028e8:	00068993          	mv	s3,a3
800028ec:	098a8a93          	addi	s5,s5,152 # 80003098 <__global_pointer$+0xffffb5fc>
800028f0:	14c5f263          	bgeu	a1,a2,80002a34 <__umoddi3+0x19c>
800028f4:	000107b7          	lui	a5,0x10
800028f8:	12f67463          	bgeu	a2,a5,80002a20 <__umoddi3+0x188>
800028fc:	0ff00793          	li	a5,255
80002900:	00c7f463          	bgeu	a5,a2,80002908 <__umoddi3+0x70>
80002904:	00800993          	li	s3,8
80002908:	013657b3          	srl	a5,a2,s3
8000290c:	00fa8ab3          	add	s5,s5,a5
80002910:	000ac783          	lbu	a5,0(s5)
80002914:	02000713          	li	a4,32
80002918:	013787b3          	add	a5,a5,s3
8000291c:	40f709b3          	sub	s3,a4,a5
80002920:	00f70c63          	beq	a4,a5,80002938 <__umoddi3+0xa0>
80002924:	013b15b3          	sll	a1,s6,s3
80002928:	00f957b3          	srl	a5,s2,a5
8000292c:	01361a33          	sll	s4,a2,s3
80002930:	00b7e4b3          	or	s1,a5,a1
80002934:	01391433          	sll	s0,s2,s3
80002938:	010a5a93          	srli	s5,s4,0x10
8000293c:	000a8593          	mv	a1,s5
80002940:	00048513          	mv	a0,s1
80002944:	4b8000ef          	jal	ra,80002dfc <__umodsi3>
80002948:	00050913          	mv	s2,a0
8000294c:	000a8593          	mv	a1,s5
80002950:	010a1b13          	slli	s6,s4,0x10
80002954:	00048513          	mv	a0,s1
80002958:	45c000ef          	jal	ra,80002db4 <__udivsi3>
8000295c:	010b5b13          	srli	s6,s6,0x10
80002960:	00050593          	mv	a1,a0
80002964:	000b0513          	mv	a0,s6
80002968:	420000ef          	jal	ra,80002d88 <__mulsi3>
8000296c:	01091913          	slli	s2,s2,0x10
80002970:	01045793          	srli	a5,s0,0x10
80002974:	00f967b3          	or	a5,s2,a5
80002978:	00a7fa63          	bgeu	a5,a0,8000298c <__umoddi3+0xf4>
8000297c:	014787b3          	add	a5,a5,s4
80002980:	0147e663          	bltu	a5,s4,8000298c <__umoddi3+0xf4>
80002984:	00a7f463          	bgeu	a5,a0,8000298c <__umoddi3+0xf4>
80002988:	014787b3          	add	a5,a5,s4
8000298c:	40a784b3          	sub	s1,a5,a0
80002990:	000a8593          	mv	a1,s5
80002994:	00048513          	mv	a0,s1
80002998:	464000ef          	jal	ra,80002dfc <__umodsi3>
8000299c:	00050913          	mv	s2,a0
800029a0:	000a8593          	mv	a1,s5
800029a4:	00048513          	mv	a0,s1
800029a8:	40c000ef          	jal	ra,80002db4 <__udivsi3>
800029ac:	01041413          	slli	s0,s0,0x10
800029b0:	00050593          	mv	a1,a0
800029b4:	01091913          	slli	s2,s2,0x10
800029b8:	000b0513          	mv	a0,s6
800029bc:	01045413          	srli	s0,s0,0x10
800029c0:	3c8000ef          	jal	ra,80002d88 <__mulsi3>
800029c4:	00896433          	or	s0,s2,s0
800029c8:	00a47a63          	bgeu	s0,a0,800029dc <__umoddi3+0x144>
800029cc:	01440433          	add	s0,s0,s4
800029d0:	01446663          	bltu	s0,s4,800029dc <__umoddi3+0x144>
800029d4:	00a47463          	bgeu	s0,a0,800029dc <__umoddi3+0x144>
800029d8:	01440433          	add	s0,s0,s4
800029dc:	40a40433          	sub	s0,s0,a0
800029e0:	01345533          	srl	a0,s0,s3
800029e4:	00000593          	li	a1,0
800029e8:	02c12083          	lw	ra,44(sp)
800029ec:	02812403          	lw	s0,40(sp)
800029f0:	02412483          	lw	s1,36(sp)
800029f4:	02012903          	lw	s2,32(sp)
800029f8:	01c12983          	lw	s3,28(sp)
800029fc:	01812a03          	lw	s4,24(sp)
80002a00:	01412a83          	lw	s5,20(sp)
80002a04:	01012b03          	lw	s6,16(sp)
80002a08:	00c12b83          	lw	s7,12(sp)
80002a0c:	00812c03          	lw	s8,8(sp)
80002a10:	00412c83          	lw	s9,4(sp)
80002a14:	00012d03          	lw	s10,0(sp)
80002a18:	03010113          	addi	sp,sp,48
80002a1c:	00008067          	ret
80002a20:	010007b7          	lui	a5,0x1000
80002a24:	01000993          	li	s3,16
80002a28:	eef660e3          	bltu	a2,a5,80002908 <__umoddi3+0x70>
80002a2c:	01800993          	li	s3,24
80002a30:	ed9ff06f          	j	80002908 <__umoddi3+0x70>
80002a34:	00061a63          	bnez	a2,80002a48 <__umoddi3+0x1b0>
80002a38:	00000593          	li	a1,0
80002a3c:	00100513          	li	a0,1
80002a40:	374000ef          	jal	ra,80002db4 <__udivsi3>
80002a44:	00050a13          	mv	s4,a0
80002a48:	000107b7          	lui	a5,0x10
80002a4c:	0efa7a63          	bgeu	s4,a5,80002b40 <__umoddi3+0x2a8>
80002a50:	0ff00793          	li	a5,255
80002a54:	0147f463          	bgeu	a5,s4,80002a5c <__umoddi3+0x1c4>
80002a58:	00800993          	li	s3,8
80002a5c:	013a57b3          	srl	a5,s4,s3
80002a60:	00fa8ab3          	add	s5,s5,a5
80002a64:	000ac783          	lbu	a5,0(s5)
80002a68:	02000713          	li	a4,32
80002a6c:	414b04b3          	sub	s1,s6,s4
80002a70:	013787b3          	add	a5,a5,s3
80002a74:	40f709b3          	sub	s3,a4,a5
80002a78:	ecf700e3          	beq	a4,a5,80002938 <__umoddi3+0xa0>
80002a7c:	013a1a33          	sll	s4,s4,s3
80002a80:	00fb5ab3          	srl	s5,s6,a5
80002a84:	013b15b3          	sll	a1,s6,s3
80002a88:	00f957b3          	srl	a5,s2,a5
80002a8c:	010a5493          	srli	s1,s4,0x10
80002a90:	00b7eb33          	or	s6,a5,a1
80002a94:	000a8513          	mv	a0,s5
80002a98:	00048593          	mv	a1,s1
80002a9c:	360000ef          	jal	ra,80002dfc <__umodsi3>
80002aa0:	00048593          	mv	a1,s1
80002aa4:	01391433          	sll	s0,s2,s3
80002aa8:	010a1b93          	slli	s7,s4,0x10
80002aac:	00050913          	mv	s2,a0
80002ab0:	000a8513          	mv	a0,s5
80002ab4:	300000ef          	jal	ra,80002db4 <__udivsi3>
80002ab8:	010bdb93          	srli	s7,s7,0x10
80002abc:	00050593          	mv	a1,a0
80002ac0:	000b8513          	mv	a0,s7
80002ac4:	2c4000ef          	jal	ra,80002d88 <__mulsi3>
80002ac8:	01091913          	slli	s2,s2,0x10
80002acc:	010b5793          	srli	a5,s6,0x10
80002ad0:	00f967b3          	or	a5,s2,a5
80002ad4:	00a7fa63          	bgeu	a5,a0,80002ae8 <__umoddi3+0x250>
80002ad8:	014787b3          	add	a5,a5,s4
80002adc:	0147e663          	bltu	a5,s4,80002ae8 <__umoddi3+0x250>
80002ae0:	00a7f463          	bgeu	a5,a0,80002ae8 <__umoddi3+0x250>
80002ae4:	014787b3          	add	a5,a5,s4
80002ae8:	40a78ab3          	sub	s5,a5,a0
80002aec:	00048593          	mv	a1,s1
80002af0:	000a8513          	mv	a0,s5
80002af4:	308000ef          	jal	ra,80002dfc <__umodsi3>
80002af8:	00050913          	mv	s2,a0
80002afc:	00048593          	mv	a1,s1
80002b00:	000a8513          	mv	a0,s5
80002b04:	2b0000ef          	jal	ra,80002db4 <__udivsi3>
80002b08:	00050593          	mv	a1,a0
80002b0c:	000b8513          	mv	a0,s7
80002b10:	278000ef          	jal	ra,80002d88 <__mulsi3>
80002b14:	010b1593          	slli	a1,s6,0x10
80002b18:	01091913          	slli	s2,s2,0x10
80002b1c:	0105d593          	srli	a1,a1,0x10
80002b20:	00b965b3          	or	a1,s2,a1
80002b24:	00a5fa63          	bgeu	a1,a0,80002b38 <__umoddi3+0x2a0>
80002b28:	014585b3          	add	a1,a1,s4
80002b2c:	0145e663          	bltu	a1,s4,80002b38 <__umoddi3+0x2a0>
80002b30:	00a5f463          	bgeu	a1,a0,80002b38 <__umoddi3+0x2a0>
80002b34:	014585b3          	add	a1,a1,s4
80002b38:	40a584b3          	sub	s1,a1,a0
80002b3c:	dfdff06f          	j	80002938 <__umoddi3+0xa0>
80002b40:	010007b7          	lui	a5,0x1000
80002b44:	01000993          	li	s3,16
80002b48:	f0fa6ae3          	bltu	s4,a5,80002a5c <__umoddi3+0x1c4>
80002b4c:	01800993          	li	s3,24
80002b50:	f0dff06f          	j	80002a5c <__umoddi3+0x1c4>
80002b54:	e8d5eae3          	bltu	a1,a3,800029e8 <__umoddi3+0x150>
80002b58:	000107b7          	lui	a5,0x10
80002b5c:	04f6fc63          	bgeu	a3,a5,80002bb4 <__umoddi3+0x31c>
80002b60:	0ff00a93          	li	s5,255
80002b64:	00dab533          	sltu	a0,s5,a3
80002b68:	00351513          	slli	a0,a0,0x3
80002b6c:	800037b7          	lui	a5,0x80003
80002b70:	00a6d733          	srl	a4,a3,a0
80002b74:	09878793          	addi	a5,a5,152 # 80003098 <__global_pointer$+0xffffb5fc>
80002b78:	00e787b3          	add	a5,a5,a4
80002b7c:	0007ca83          	lbu	s5,0(a5)
80002b80:	02000793          	li	a5,32
80002b84:	00aa8ab3          	add	s5,s5,a0
80002b88:	41578a33          	sub	s4,a5,s5
80002b8c:	03579e63          	bne	a5,s5,80002bc8 <__umoddi3+0x330>
80002b90:	0166e463          	bltu	a3,s6,80002b98 <__umoddi3+0x300>
80002b94:	00c96a63          	bltu	s2,a2,80002ba8 <__umoddi3+0x310>
80002b98:	40c90433          	sub	s0,s2,a2
80002b9c:	40db05b3          	sub	a1,s6,a3
80002ba0:	008934b3          	sltu	s1,s2,s0
80002ba4:	409584b3          	sub	s1,a1,s1
80002ba8:	00040513          	mv	a0,s0
80002bac:	00048593          	mv	a1,s1
80002bb0:	e39ff06f          	j	800029e8 <__umoddi3+0x150>
80002bb4:	010007b7          	lui	a5,0x1000
80002bb8:	01000513          	li	a0,16
80002bbc:	faf6e8e3          	bltu	a3,a5,80002b6c <__umoddi3+0x2d4>
80002bc0:	01800513          	li	a0,24
80002bc4:	fa9ff06f          	j	80002b6c <__umoddi3+0x2d4>
80002bc8:	014696b3          	sll	a3,a3,s4
80002bcc:	015657b3          	srl	a5,a2,s5
80002bd0:	00d7ecb3          	or	s9,a5,a3
80002bd4:	015b5433          	srl	s0,s6,s5
80002bd8:	014b15b3          	sll	a1,s6,s4
80002bdc:	010cdb93          	srli	s7,s9,0x10
80002be0:	01595b33          	srl	s6,s2,s5
80002be4:	00bb6b33          	or	s6,s6,a1
80002be8:	00040513          	mv	a0,s0
80002bec:	000b8593          	mv	a1,s7
80002bf0:	01461d33          	sll	s10,a2,s4
80002bf4:	208000ef          	jal	ra,80002dfc <__umodsi3>
80002bf8:	00050993          	mv	s3,a0
80002bfc:	000b8593          	mv	a1,s7
80002c00:	00040513          	mv	a0,s0
80002c04:	010c9c13          	slli	s8,s9,0x10
80002c08:	1ac000ef          	jal	ra,80002db4 <__udivsi3>
80002c0c:	010c5c13          	srli	s8,s8,0x10
80002c10:	00050593          	mv	a1,a0
80002c14:	014914b3          	sll	s1,s2,s4
80002c18:	00050913          	mv	s2,a0
80002c1c:	000c0513          	mv	a0,s8
80002c20:	168000ef          	jal	ra,80002d88 <__mulsi3>
80002c24:	01099993          	slli	s3,s3,0x10
80002c28:	010b5713          	srli	a4,s6,0x10
80002c2c:	00e9e733          	or	a4,s3,a4
80002c30:	00090413          	mv	s0,s2
80002c34:	00a77e63          	bgeu	a4,a0,80002c50 <__umoddi3+0x3b8>
80002c38:	01970733          	add	a4,a4,s9
80002c3c:	fff90413          	addi	s0,s2,-1
80002c40:	01976863          	bltu	a4,s9,80002c50 <__umoddi3+0x3b8>
80002c44:	00a77663          	bgeu	a4,a0,80002c50 <__umoddi3+0x3b8>
80002c48:	ffe90413          	addi	s0,s2,-2
80002c4c:	01970733          	add	a4,a4,s9
80002c50:	40a70933          	sub	s2,a4,a0
80002c54:	000b8593          	mv	a1,s7
80002c58:	00090513          	mv	a0,s2
80002c5c:	1a0000ef          	jal	ra,80002dfc <__umodsi3>
80002c60:	00050993          	mv	s3,a0
80002c64:	000b8593          	mv	a1,s7
80002c68:	00090513          	mv	a0,s2
80002c6c:	148000ef          	jal	ra,80002db4 <__udivsi3>
80002c70:	00050913          	mv	s2,a0
80002c74:	00050593          	mv	a1,a0
80002c78:	000c0513          	mv	a0,s8
80002c7c:	10c000ef          	jal	ra,80002d88 <__mulsi3>
80002c80:	010b1713          	slli	a4,s6,0x10
80002c84:	01099993          	slli	s3,s3,0x10
80002c88:	01075713          	srli	a4,a4,0x10
80002c8c:	00e9e733          	or	a4,s3,a4
80002c90:	00090793          	mv	a5,s2
80002c94:	00a77e63          	bgeu	a4,a0,80002cb0 <__umoddi3+0x418>
80002c98:	01970733          	add	a4,a4,s9
80002c9c:	fff90793          	addi	a5,s2,-1
80002ca0:	01976863          	bltu	a4,s9,80002cb0 <__umoddi3+0x418>
80002ca4:	00a77663          	bgeu	a4,a0,80002cb0 <__umoddi3+0x418>
80002ca8:	ffe90793          	addi	a5,s2,-2
80002cac:	01970733          	add	a4,a4,s9
80002cb0:	00010eb7          	lui	t4,0x10
80002cb4:	01041413          	slli	s0,s0,0x10
80002cb8:	40a70833          	sub	a6,a4,a0
80002cbc:	00f46433          	or	s0,s0,a5
80002cc0:	fffe8713          	addi	a4,t4,-1 # ffff <buflen.2941+0xffbf>
80002cc4:	00e478b3          	and	a7,s0,a4
80002cc8:	00ed7733          	and	a4,s10,a4
80002ccc:	01045413          	srli	s0,s0,0x10
80002cd0:	010d5e13          	srli	t3,s10,0x10
80002cd4:	00088513          	mv	a0,a7
80002cd8:	00070593          	mv	a1,a4
80002cdc:	0ac000ef          	jal	ra,80002d88 <__mulsi3>
80002ce0:	00050793          	mv	a5,a0
80002ce4:	000e0593          	mv	a1,t3
80002ce8:	00088513          	mv	a0,a7
80002cec:	09c000ef          	jal	ra,80002d88 <__mulsi3>
80002cf0:	00050893          	mv	a7,a0
80002cf4:	00070593          	mv	a1,a4
80002cf8:	00040513          	mv	a0,s0
80002cfc:	08c000ef          	jal	ra,80002d88 <__mulsi3>
80002d00:	00050313          	mv	t1,a0
80002d04:	000e0593          	mv	a1,t3
80002d08:	00040513          	mv	a0,s0
80002d0c:	07c000ef          	jal	ra,80002d88 <__mulsi3>
80002d10:	0107d713          	srli	a4,a5,0x10
80002d14:	006888b3          	add	a7,a7,t1
80002d18:	01170733          	add	a4,a4,a7
80002d1c:	00677463          	bgeu	a4,t1,80002d24 <__umoddi3+0x48c>
80002d20:	01d50533          	add	a0,a0,t4
80002d24:	01075593          	srli	a1,a4,0x10
80002d28:	00a585b3          	add	a1,a1,a0
80002d2c:	00010537          	lui	a0,0x10
80002d30:	fff50513          	addi	a0,a0,-1 # ffff <buflen.2941+0xffbf>
80002d34:	00a77733          	and	a4,a4,a0
80002d38:	01071713          	slli	a4,a4,0x10
80002d3c:	00a7f7b3          	and	a5,a5,a0
80002d40:	00f707b3          	add	a5,a4,a5
80002d44:	00b86663          	bltu	a6,a1,80002d50 <__umoddi3+0x4b8>
80002d48:	00b81e63          	bne	a6,a1,80002d64 <__umoddi3+0x4cc>
80002d4c:	00f4fc63          	bgeu	s1,a5,80002d64 <__umoddi3+0x4cc>
80002d50:	41a78633          	sub	a2,a5,s10
80002d54:	00c7b7b3          	sltu	a5,a5,a2
80002d58:	019787b3          	add	a5,a5,s9
80002d5c:	40f585b3          	sub	a1,a1,a5
80002d60:	00060793          	mv	a5,a2
80002d64:	40f487b3          	sub	a5,s1,a5
80002d68:	00f4b4b3          	sltu	s1,s1,a5
80002d6c:	40b805b3          	sub	a1,a6,a1
80002d70:	409585b3          	sub	a1,a1,s1
80002d74:	01559433          	sll	s0,a1,s5
80002d78:	0147d7b3          	srl	a5,a5,s4
80002d7c:	00f46533          	or	a0,s0,a5
80002d80:	0145d5b3          	srl	a1,a1,s4
80002d84:	c65ff06f          	j	800029e8 <__umoddi3+0x150>

80002d88 <__mulsi3>:
80002d88:	00050613          	mv	a2,a0
80002d8c:	00000513          	li	a0,0
80002d90:	0015f693          	andi	a3,a1,1
80002d94:	00068463          	beqz	a3,80002d9c <__mulsi3+0x14>
80002d98:	00c50533          	add	a0,a0,a2
80002d9c:	0015d593          	srli	a1,a1,0x1
80002da0:	00161613          	slli	a2,a2,0x1
80002da4:	fe0596e3          	bnez	a1,80002d90 <__mulsi3+0x8>
80002da8:	00008067          	ret

80002dac <__divsi3>:
80002dac:	06054063          	bltz	a0,80002e0c <__umodsi3+0x10>
80002db0:	0605c663          	bltz	a1,80002e1c <__umodsi3+0x20>

80002db4 <__udivsi3>:
80002db4:	00058613          	mv	a2,a1
80002db8:	00050593          	mv	a1,a0
80002dbc:	fff00513          	li	a0,-1
80002dc0:	02060c63          	beqz	a2,80002df8 <__udivsi3+0x44>
80002dc4:	00100693          	li	a3,1
80002dc8:	00b67a63          	bgeu	a2,a1,80002ddc <__udivsi3+0x28>
80002dcc:	00c05863          	blez	a2,80002ddc <__udivsi3+0x28>
80002dd0:	00161613          	slli	a2,a2,0x1
80002dd4:	00169693          	slli	a3,a3,0x1
80002dd8:	feb66ae3          	bltu	a2,a1,80002dcc <__udivsi3+0x18>
80002ddc:	00000513          	li	a0,0
80002de0:	00c5e663          	bltu	a1,a2,80002dec <__udivsi3+0x38>
80002de4:	40c585b3          	sub	a1,a1,a2
80002de8:	00d56533          	or	a0,a0,a3
80002dec:	0016d693          	srli	a3,a3,0x1
80002df0:	00165613          	srli	a2,a2,0x1
80002df4:	fe0696e3          	bnez	a3,80002de0 <__udivsi3+0x2c>
80002df8:	00008067          	ret

80002dfc <__umodsi3>:
80002dfc:	00008293          	mv	t0,ra
80002e00:	fb5ff0ef          	jal	ra,80002db4 <__udivsi3>
80002e04:	00058513          	mv	a0,a1
80002e08:	00028067          	jr	t0
80002e0c:	40a00533          	neg	a0,a0
80002e10:	0005d863          	bgez	a1,80002e20 <__umodsi3+0x24>
80002e14:	40b005b3          	neg	a1,a1
80002e18:	f9dff06f          	j	80002db4 <__udivsi3>
80002e1c:	40b005b3          	neg	a1,a1
80002e20:	00008293          	mv	t0,ra
80002e24:	f91ff0ef          	jal	ra,80002db4 <__udivsi3>
80002e28:	40a00533          	neg	a0,a0
80002e2c:	00028067          	jr	t0

80002e30 <__modsi3>:
80002e30:	00008293          	mv	t0,ra
80002e34:	0005ca63          	bltz	a1,80002e48 <__modsi3+0x18>
80002e38:	00054c63          	bltz	a0,80002e50 <__modsi3+0x20>
80002e3c:	f79ff0ef          	jal	ra,80002db4 <__udivsi3>
80002e40:	00058513          	mv	a0,a1
80002e44:	00028067          	jr	t0
80002e48:	40b005b3          	neg	a1,a1
80002e4c:	fe0558e3          	bgez	a0,80002e3c <__modsi3+0xc>
80002e50:	40a00533          	neg	a0,a0
80002e54:	f61ff0ef          	jal	ra,80002db4 <__udivsi3>
80002e58:	40b00533          	neg	a0,a1
80002e5c:	00028067          	jr	t0

Disassembly of section .text.startup:

80002e60 <main>:
80002e60:	ff010113          	addi	sp,sp,-16
80002e64:	00812423          	sw	s0,8(sp)
80002e68:	00001437          	lui	s0,0x1
80002e6c:	80040513          	addi	a0,s0,-2048 # 800 <buflen.2941+0x7c0>
80002e70:	00000597          	auipc	a1,0x0
80002e74:	42c58593          	addi	a1,a1,1068 # 8000329c <verify_data>
80002e78:	00112623          	sw	ra,12(sp)
80002e7c:	a18fe0ef          	jal	ra,80001094 <sort>
80002e80:	00002517          	auipc	a0,0x2
80002e84:	41c50513          	addi	a0,a0,1052 # 8000529c <input_data>
80002e88:	9c0fe0ef          	jal	ra,80001048 <verify.constprop.0>
80002e8c:	00050c63          	beqz	a0,80002ea4 <main+0x44>
80002e90:	00c12083          	lw	ra,12(sp)
80002e94:	00812403          	lw	s0,8(sp)
80002e98:	00100513          	li	a0,1
80002e9c:	01010113          	addi	sp,sp,16
80002ea0:	00008067          	ret
80002ea4:	00100513          	li	a0,1
80002ea8:	985fe0ef          	jal	ra,8000182c <setStats>
80002eac:	80040513          	addi	a0,s0,-2048
80002eb0:	00002597          	auipc	a1,0x2
80002eb4:	3ec58593          	addi	a1,a1,1004 # 8000529c <input_data>
80002eb8:	9dcfe0ef          	jal	ra,80001094 <sort>
80002ebc:	00000513          	li	a0,0
80002ec0:	96dfe0ef          	jal	ra,8000182c <setStats>
80002ec4:	00812403          	lw	s0,8(sp)
80002ec8:	00c12083          	lw	ra,12(sp)
80002ecc:	00000517          	auipc	a0,0x0
80002ed0:	3d050513          	addi	a0,a0,976 # 8000329c <verify_data>
80002ed4:	01010113          	addi	sp,sp,16
80002ed8:	970fe06f          	j	80001048 <verify.constprop.0>
80002edc:	ff010113          	addi	sp,sp,-16
80002ee0:	00000517          	auipc	a0,0x0
80002ee4:	03c50513          	addi	a0,a0,60 # 80002f1c <main+0xbc>
80002ee8:	00112623          	sw	ra,12(sp)
80002eec:	9fdfe0ef          	jal	ra,800018e8 <printstr>
80002ef0:	00c12083          	lw	ra,12(sp)
80002ef4:	fff00513          	li	a0,-1
80002ef8:	01010113          	addi	sp,sp,16
80002efc:	00008067          	ret

Disassembly of section .data:

8000329c <verify_data>:
8000329c:	000a8b27          	0xa8b27
800032a0:	bef4                	fsd	fa3,248(a3)
800032a2:	000d                	c.nop	3
800032a4:	83c4                	0x83c4
800032a6:	0021                	c.nop	8
800032a8:	9b62                	add	s6,s6,s8
800032aa:	0026                	c.slli	zero,0x9
800032ac:	0030356f          	jal	a0,80006aae <input_data+0x1812>
800032b0:	be92                	fsd	ft4,376(sp)
800032b2:	0035                	c.nop	13
800032b4:	0039e5ef          	jal	a1,800a1ab6 <__global_pointer$+0x9a01a>
800032b8:	82bc                	0x82bc
800032ba:	003d                	c.nop	15
800032bc:	02d6                	slli	t0,t0,0x15
800032be:	0051                	c.nop	20
800032c0:	d704                	sw	s1,40(a4)
800032c2:	0051                	c.nop	20
800032c4:	00949033          	sll	zero,s1,s1
800032c8:	1df9                	addi	s11,s11,-2
800032ca:	779600af          	0x779600af
800032ce:	00c2                	slli	ra,ra,0x10
800032d0:	1040                	addi	s0,sp,36
800032d2:	00c4                	addi	s1,sp,68
800032d4:	00c56a53          	fadd.s	fs4,fa0,fa2,unknown
800032d8:	1f1d                	addi	t5,t5,-25
800032da:	00c9                	addi	ra,ra,18
800032dc:	00d3e7bb          	0xd3e7bb
800032e0:	8b4c                	0x8b4c
800032e2:	459500d7          	0x459500d7
800032e6:	00d9                	addi	ra,ra,22
800032e8:	6bd8                	flw	fa4,20(a5)
800032ea:	00fa                	slli	ra,ra,0x1e
800032ec:	0125630f          	0x125630f
800032f0:	ffb9                	bnez	a5,8000324e <__clz_tab+0x1b6>
800032f2:	013a                	slli	sp,sp,0xe
800032f4:	d932                	sw	a2,176(sp)
800032f6:	0144                	addi	s1,sp,132
800032f8:	c7f5                	beqz	a5,800033e4 <verify_data+0x148>
800032fa:	0151                	addi	sp,sp,20
800032fc:	54ee                	lw	s1,248(sp)
800032fe:	5b5b015b          	0x5b5b015b
80003302:	00ad0163          	beq	s10,a0,80003304 <verify_data+0x68>
80003306:	0174                	addi	a3,sp,140
80003308:	fa95                	bnez	a3,8000323c <__clz_tab+0x1a4>
8000330a:	018a                	slli	gp,gp,0x2
8000330c:	30b0                	fld	fa2,96(s1)
8000330e:	0191                	addi	gp,gp,4
80003310:	019736cb          	fnmsub.s	fa3,fa4,fs9,ft0,rup
80003314:	befe                	fsd	ft11,376(sp)
80003316:	01a1                	addi	gp,gp,8
80003318:	9418                	0x9418
8000331a:	01a4                	addi	s1,sp,200
8000331c:	2a85                	jal	8000348c <verify_data+0x1f0>
8000331e:	532401af          	0x532401af
80003322:	e9c701b7          	lui	gp,0xe9c70
80003326:	01d8                	addi	a4,sp,196
80003328:	01db5cd7          	0x1db5cd7
8000332c:	c8a5                	beqz	s1,8000339c <verify_data+0x100>
8000332e:	01e1                	addi	gp,gp,24
80003330:	2134                	fld	fa3,64(a0)
80003332:	01e2                	slli	gp,gp,0x18
80003334:	2442                	fld	fs0,16(sp)
80003336:	021f 2b34 0223      	0x2232b34021f
8000333c:	d6fc                	sw	a5,108(a3)
8000333e:	0234                	addi	a3,sp,264
80003340:	bdad                	j	800031ba <__clz_tab+0x122>
80003342:	0236                	slli	tp,tp,0xd
80003344:	4c36                	lw	s8,76(sp)
80003346:	024d                	addi	tp,tp,19
80003348:	8266                	mv	tp,s9
8000334a:	027c                	addi	a5,sp,268
8000334c:	31ca                	fld	ft3,176(sp)
8000334e:	0281                	addi	t0,t0,0
80003350:	b6de                	fsd	fs7,360(sp)
80003352:	029e                	slli	t0,t0,0x7
80003354:	b6a6                	fsd	fs1,360(sp)
80003356:	02cd                	addi	t0,t0,19
80003358:	127d                	addi	tp,tp,-1
8000335a:	02d4                	addi	a3,sp,324
8000335c:	3e02                	fld	ft8,32(sp)
8000335e:	02d4                	addi	a3,sp,324
80003360:	02e12ea7          	fsw	fa4,61(sp)
80003364:	4258                	lw	a4,4(a2)
80003366:	02e8                	addi	a0,sp,332
80003368:	03065ce3          	bge	a2,a6,80003ba0 <verify_data+0x904>
8000336c:	b802                	fsd	ft0,48(sp)
8000336e:	0309                	addi	t1,t1,2
80003370:	c325                	beqz	a4,800033d0 <verify_data+0x134>
80003372:	0314                	addi	a3,sp,384
80003374:	f686                	fsw	ft1,108(sp)
80003376:	0335                	addi	t1,t1,13
80003378:	472e                	lw	a4,200(sp)
8000337a:	034e                	slli	t1,t1,0x13
8000337c:	705c                	flw	fa5,36(s0)
8000337e:	55e00377          	0x55e00377
80003382:	0378                	addi	a4,sp,396
80003384:	2382                	fld	ft7,0(sp)
80003386:	038a                	slli	t2,t2,0x2
80003388:	b6cd                	j	80002f6a <main+0x10a>
8000338a:	b922039b          	0xb922039b
8000338e:	03ad                	addi	t2,t2,11
80003390:	3e1f 03b5 08ea      	0x8ea03b53e1f
80003396:	03c5                	addi	t2,t2,17
80003398:	b410                	fsd	fa2,40(s0)
8000339a:	03dc                	addi	a5,sp,452
8000339c:	ea69                	bnez	a2,8000346e <verify_data+0x1d2>
8000339e:	a10703f7          	0xa10703f7
800033a2:	040e                	slli	s0,s0,0x3
800033a4:	aaf4                	fsd	fa3,208(a3)
800033a6:	041e                	slli	s0,s0,0x7
800033a8:	6f58                	flw	fa4,28(a4)
800033aa:	042a                	slli	s0,s0,0xa
800033ac:	042c2c93          	slti	s9,s8,66
800033b0:	c4c2                	sw	a6,72(sp)
800033b2:	0439                	addi	s0,s0,14
800033b4:	82a8                	0x82a8
800033b6:	e231044f          	fnmadd.d	fs0,ft2,ft3,ft8,rne
800033ba:	0456                	slli	s0,s0,0x15
800033bc:	f6c6                	fsw	fa7,108(sp)
800033be:	0458                	addi	a4,sp,516
800033c0:	b2da                	fsd	fs6,352(sp)
800033c2:	0476                	slli	s0,s0,0x1d
800033c4:	7e24                	flw	fs1,120(a2)
800033c6:	0486                	slli	s1,s1,0x1
800033c8:	86b6                	mv	a3,a3
800033ca:	0498                	addi	a4,sp,576
800033cc:	49b6                	lw	s3,76(sp)
800033ce:	049e                	slli	s1,s1,0x7
800033d0:	80f2                	mv	ra,t3
800033d2:	9c1c04ab          	0x9c1c04ab
800033d6:	04c9                	addi	s1,s1,18
800033d8:	deea                	sw	s10,124(sp)
800033da:	04ca                	slli	s1,s1,0x12
800033dc:	04d2734b          	0x4d2734b
800033e0:	04da198b          	0x4da198b
800033e4:	a428                	fsd	fa0,72(s0)
800033e6:	04f0                	addi	a2,sp,588
800033e8:	d981                	beqz	a1,800032f8 <verify_data+0x5c>
800033ea:	3571050f          	0x3571050f
800033ee:	053d                	addi	a0,a0,15
800033f0:	5552                	lw	a0,52(sp)
800033f2:	24a4054b          	0x24a4054b
800033f6:	0554                	addi	a3,sp,644
800033f8:	415f 055e 41a4      	0x41a4055e415f
800033fe:	f25c056f          	jal	a0,7ffc4322 <buflen.2941+0x7ffc42e2>
80003402:	057f                	0x57f
80003404:	058545bf 0588efda 	0x588efda058545bf
8000340c:	058dfb67          	0x58dfb67
80003410:	05a5ef07          	0x5a5ef07
80003414:	1220                	addi	s0,sp,296
80003416:	05b5                	addi	a1,a1,13
80003418:	6e11                	lui	t3,0x4
8000341a:	05ee                	slli	a1,a1,0x1b
8000341c:	a4ed                	j	80003706 <verify_data+0x46a>
8000341e:	063c                	addi	a5,sp,776
80003420:	0340                	addi	s0,sp,388
80003422:	063e                	slli	a2,a2,0xf
80003424:	091f 0648 d5d4      	0xd5d40648091f
8000342a:	0654                	addi	a3,sp,772
8000342c:	065a84b7          	lui	s1,0x65a8
80003430:	06622783          	lw	a5,102(tp) # 66 <buflen.2941+0x26>
80003434:	2422                	fld	fs0,8(sp)
80003436:	47c40663          	beq	s0,t3,800038a2 <verify_data+0x606>
8000343a:	0670                	addi	a2,sp,780
8000343c:	3ad6                	fld	fs5,368(sp)
8000343e:	0675                	addi	a2,a2,29
80003440:	417f                	0x417f
80003442:	0676                	slli	a2,a2,0x1d
80003444:	895f 0679 c100      	0xc1000679895f
8000344a:	067f                	0x67f
8000344c:	3ee4                	fld	fs1,248(a3)
8000344e:	86480687          	0x86480687
80003452:	06ad                	addi	a3,a3,11
80003454:	e19d                	bnez	a1,8000347a <verify_data+0x1de>
80003456:	06b6                	slli	a3,a3,0xd
80003458:	06c34b8b          	0x6c34b8b
8000345c:	1870                	addi	a2,sp,60
8000345e:	06c5                	addi	a3,a3,17
80003460:	9628                	0x9628
80003462:	06ce                	slli	a3,a3,0x13
80003464:	02e2                	slli	t0,t0,0x18
80003466:	b7c306db          	0xb7c306db
8000346a:	06f5                	addi	a3,a3,29
8000346c:	3fc0                	fld	fs0,184(a5)
8000346e:	06fd                	addi	a3,a3,31
80003470:	8f21                	xor	a4,a4,s0
80003472:	06fd                	addi	a3,a3,31
80003474:	f79f 0704 25d6      	0x25d60704f79f
8000347a:	071c                	addi	a5,sp,896
8000347c:	d1ee                	sw	s11,224(sp)
8000347e:	0721                	addi	a4,a4,8
80003480:	07477a3f 075a3493 	0x75a349307477a3f
80003488:	076267bf 079f193f 	0x79f193f076267bf
80003490:	afe9                	j	80003c6a <verify_data+0x9ce>
80003492:	07a1                	addi	a5,a5,8
80003494:	a8fc                	fsd	fa5,208(s1)
80003496:	154507bf 7b3807d5 	0x7b3807d5154507bf
8000349e:	07f9                	addi	a5,a5,30
800034a0:	08039873          	csrrw	a6,0x80,t2
800034a4:	2215                	jal	800035c8 <verify_data+0x32c>
800034a6:	080c                	addi	a1,sp,16
800034a8:	49ca                	lw	s3,144(sp)
800034aa:	0816                	slli	a6,a6,0x5
800034ac:	082b2a17          	auipc	s4,0x82b2
800034b0:	9b68                	0x9b68
800034b2:	0836                	slli	a6,a6,0xd
800034b4:	8469                	srai	s0,s0,0x1a
800034b6:	0850                	addi	a2,sp,20
800034b8:	08606c9b          	0x8606c9b
800034bc:	da71                	beqz	a2,80003490 <verify_data+0x1f4>
800034be:	08ad                	addi	a7,a7,11
800034c0:	08b3d3db          	0x8b3d3db
800034c4:	09fd                	addi	s3,s3,31
800034c6:	08d4                	addi	a3,sp,84
800034c8:	08da5b6b          	0x8da5b6b
800034cc:	2c11                	jal	800036e0 <verify_data+0x444>
800034ce:	08e4                	addi	s1,sp,92
800034d0:	08fe3757          	0x8fe3757
800034d4:	6d30                	flw	fa2,88(a0)
800034d6:	0906                	slli	s2,s2,0x1
800034d8:	8185                	srli	a1,a1,0x1
800034da:	03e50913          	addi	s2,a0,62
800034de:	094a                	slli	s2,s2,0x12
800034e0:	f9c1                	bnez	a1,80003470 <verify_data+0x1d4>
800034e2:	f94f0953          	0xf94f0953
800034e6:	89600957          	0x89600957
800034ea:	099f 54b6 09a0      	0x9a054b6099f
800034f0:	b5b6                	fsd	fa3,232(sp)
800034f2:	09bc                	addi	a5,sp,216
800034f4:	09fe3077          	0x9fe3077
800034f8:	4130                	lw	a2,64(a0)
800034fa:	379b0a0f          	0x379b0a0f
800034fe:	d3450a17          	auipc	s4,0xd3450
80003502:	0a1d                	addi	s4,s4,7
80003504:	4a15                	li	s4,5
80003506:	0a26                	slli	s4,s4,0x9
80003508:	2f1a                	fld	ft10,384(sp)
8000350a:	0a42                	slli	s4,s4,0x10
8000350c:	0a50ba03          	0xa50ba03
80003510:	53d9                	li	t2,-10
80003512:	0a5c                	addi	a5,sp,276
80003514:	48d2                	lw	a7,20(sp)
80003516:	0a60                	addi	s0,sp,284
80003518:	0a6dc44f          	fnmadd.d	fs0,fs11,ft6,ft1,rmm
8000351c:	c97f                	0xc97f
8000351e:	0a79                	addi	s4,s4,30
80003520:	2930                	fld	fa2,80(a0)
80003522:	ea250a7b          	0xea250a7b
80003526:	0a7d                	addi	s4,s4,31
80003528:	5874                	lw	a3,116(s0)
8000352a:	0a8e                	slli	s5,s5,0x3
8000352c:	d099                	beqz	s1,80003432 <verify_data+0x196>
8000352e:	0aa9                	addi	s5,s5,10
80003530:	f591                	bnez	a1,8000343c <verify_data+0x1a0>
80003532:	0ac2                	slli	s5,s5,0x10
80003534:	0ac3bca3          	0xac3bca3
80003538:	8142                	mv	sp,a6
8000353a:	0ad2                	slli	s5,s5,0x14
8000353c:	3aae                	fld	fs5,232(sp)
8000353e:	0ae2                	slli	s5,s5,0x18
80003540:	ba5a                	fsd	fs6,304(sp)
80003542:	0af2                	slli	s5,s5,0x1c
80003544:	0b0fe933          	0xb0fe933
80003548:	eae8                	fsw	fa0,84(a3)
8000354a:	0b10                	addi	a2,sp,400
8000354c:	d360                	sw	s0,100(a4)
8000354e:	0b15                	addi	s6,s6,5
80003550:	dbe0                	sw	s0,116(a5)
80003552:	dcd00b17          	auipc	s6,0xdcd00
80003556:	0b18                	addi	a4,sp,400
80003558:	e892                	fsw	ft4,80(sp)
8000355a:	0b34                	addi	a3,sp,408
8000355c:	0b5676e3          	bgeu	a2,s5,80003e08 <verify_data+0xb6c>
80003560:	5a9a                	lw	s5,164(sp)
80003562:	7c260b5b          	0x7c260b5b
80003566:	0b5f 4814 0b8e      	0xb8e48140b5f
8000356c:	3f66                	fld	ft10,120(sp)
8000356e:	0ba5                	addi	s7,s7,9
80003570:	db0a                	sw	sp,180(sp)
80003572:	0bb4                	addi	a3,sp,472
80003574:	b420                	fsd	fs0,104(s0)
80003576:	0bcc                	addi	a1,sp,468
80003578:	16b9                	addi	a3,a3,-18
8000357a:	0bd0                	addi	a2,sp,468
8000357c:	cd60                	sw	s0,92(a0)
8000357e:	0bd0                	addi	a2,sp,468
80003580:	0919                	addi	s2,s2,6
80003582:	0bed                	addi	s7,s7,27
80003584:	9f16                	add	t5,t5,t0
80003586:	f2ea0bef          	jal	s7,7ffa3cb4 <buflen.2941+0x7ffa3c74>
8000358a:	0c11                	addi	s8,s8,4
8000358c:	0c30a657          	0xc30a657
80003590:	2cec                	fld	fa1,216(s1)
80003592:	0c38                	addi	a4,sp,536
80003594:	0c514963          	blt	sp,t0,80003666 <verify_data+0x3ca>
80003598:	45e2                	lw	a1,24(sp)
8000359a:	0c68                	addi	a0,sp,540
8000359c:	6fc0                	flw	fs0,28(a5)
8000359e:	0c6c                	addi	a1,sp,540
800035a0:	d928                	sw	a0,112(a0)
800035a2:	0c85                	addi	s9,s9,1
800035a4:	c4ff                	0xc4ff
800035a6:	366e0c8f          	0x366e0c8f
800035aa:	0c92                	slli	s9,s9,0x4
800035ac:	90c0                	0x90c0
800035ae:	65910ca3          	sb	s9,1625(sp)
800035b2:	75090caf          	0x75090caf
800035b6:	0ccc                	addi	a1,sp,596
800035b8:	ea80                	fsw	fs0,16(a3)
800035ba:	0cd0                	addi	a2,sp,596
800035bc:	8aa1                	andi	a3,a3,8
800035be:	0ce6                	slli	s9,s9,0x19
800035c0:	68ec                	flw	fa1,84(s1)
800035c2:	0ce8                	addi	a0,sp,604
800035c4:	cc9f 0cfa a7e9      	0xa7e90cfacc9f
800035ca:	0d08                	addi	a0,sp,656
800035cc:	3b0a                	fld	fs6,160(sp)
800035ce:	0d31                	addi	s10,s10,12
800035d0:	0d36494b          	0xd36494b
800035d4:	88d1                	andi	s1,s1,20
800035d6:	9e8b0d43          	fmadd.q	fs10,fs6,fs0,fs3,rne
800035da:	0d6a                	slli	s10,s10,0x1a
800035dc:	18cd                	addi	a7,a7,-13
800035de:	7e030d77          	0x7e030d77
800035e2:	85140d77          	0x85140d77
800035e6:	90d40d83          	lb	s11,-1779(s0)
800035ea:	507c0d83          	lb	s11,1287(s8)
800035ee:	0d86                	slli	s11,s11,0x1
800035f0:	0d8789af          	0xd8789af
800035f4:	0d8e43d3          	0xd8e43d3
800035f8:	05ac                	addi	a1,sp,712
800035fa:	0d95                	addi	s11,s11,5
800035fc:	a911                	j	80003a10 <verify_data+0x774>
800035fe:	0da5                	addi	s11,s11,9
80003600:	1500                	addi	s0,sp,672
80003602:	0db4                	addi	a3,sp,728
80003604:	b6ca                	fsd	fs2,360(sp)
80003606:	0dba                	slli	s11,s11,0xe
80003608:	323a                	fld	ft4,424(sp)
8000360a:	8d110dbf a4550dc7 	0xa4550dc78d110dbf
80003612:	0dd6                	slli	s11,s11,0x15
80003614:	27b1                	jal	80003d60 <verify_data+0xac4>
80003616:	124f0df3          	0x124f0df3
8000361a:	0e1e                	slli	t3,t3,0x7
8000361c:	0e20a51b          	0xe20a51b
80003620:	d8e0                	sw	s0,116(s1)
80003622:	3b240e33          	0x3b240e33
80003626:	0e38                	addi	a4,sp,792
80003628:	f698                	fsw	fa4,40(a3)
8000362a:	0e4d                	addi	t3,t3,19
8000362c:	0e578ce3          	beq	a5,t0,80003f24 <verify_data+0xc88>
80003630:	b631                	j	8000313c <__clz_tab+0xa4>
80003632:	0e64                	addi	s1,sp,796
80003634:	938a                	add	t2,t2,sp
80003636:	0e65                	addi	t3,t3,25
80003638:	3a1d                	jal	80002f6e <main+0x10e>
8000363a:	0e68                	addi	a0,sp,796
8000363c:	f848                	fsw	fa0,52(s0)
8000363e:	0e95                	addi	t4,t4,5
80003640:	06c9                	addi	a3,a3,18
80003642:	0e9a                	slli	t4,t4,0x6
80003644:	83b2                	mv	t2,a2
80003646:	0e9f a14b 0ebc      	0xebca14b0e9f
8000364c:	be14                	fsd	fa3,56(a2)
8000364e:	c3680ebf 1ec70ebf 	0x1ec70ebfc3680ebf
80003656:	0ee2                	slli	t4,t4,0x18
80003658:	0ee70b53          	fsub.q	fs6,fa4,fa4,rne
8000365c:	ab91                	j	80003bb0 <verify_data+0x914>
8000365e:	0ee8                	addi	a0,sp,860
80003660:	db66                	sw	s9,180(sp)
80003662:	0ef1                	addi	t4,t4,28
80003664:	cfda                	sw	s6,220(sp)
80003666:	cd000ef3          	0xcd000ef3
8000366a:	0efd                	addi	t4,t4,31
8000366c:	2f3e                	fld	ft10,456(sp)
8000366e:	0f22                	slli	t5,t5,0x8
80003670:	73da                	flw	ft7,180(sp)
80003672:	0f36                	slli	t5,t5,0xd
80003674:	760e                	flw	fa2,224(sp)
80003676:	0f45                	addi	t5,t5,17
80003678:	61f6                	flw	ft3,92(sp)
8000367a:	9eb70f4f          	fnmadd.q	ft10,fa4,fa1,fs3,rne
8000367e:	0f5c                	addi	a5,sp,916
80003680:	0f637b73          	csrrci	s6,0xf6,6
80003684:	c1b1                	beqz	a1,800036c8 <verify_data+0x42c>
80003686:	dcbd0f7b          	0xdcbd0f7b
8000368a:	5fc40f7b          	0x5fc40f7b
8000368e:	82b70f83          	lb	t6,-2005(a4)
80003692:	0f89                	addi	t6,t6,2
80003694:	9338                	0x9338
80003696:	0f89                	addi	t6,t6,2
80003698:	0f8b5fbf 0f97096e 	0xf97096e0f8b5fbf
800036a0:	1efe                	slli	t4,t4,0x3f
800036a2:	0fd1                	addi	t6,t6,20
800036a4:	c2dc                	sw	a5,4(a3)
800036a6:	0fec                	addi	a1,sp,988
800036a8:	b0dc                	fsd	fa5,160(s1)
800036aa:	0ffa                	slli	t6,t6,0x1e
800036ac:	2d4e                	fld	fs10,208(sp)
800036ae:	233d100b          	0x233d100b
800036b2:	101e                	c.slli	zero,0x27
800036b4:	10244d23          	0x10244d23
800036b8:	f81f 1034 4c25      	0x4c251034f81f
800036be:	1060                	addi	s0,sp,44
800036c0:	45f5                	li	a1,29
800036c2:	108a                	slli	ra,ra,0x22
800036c4:	0f29                	addi	t5,t5,10
800036c6:	1091                	addi	ra,ra,-28
800036c8:	0db2                	slli	s11,s11,0xc
800036ca:	10a5                	addi	ra,ra,-23
800036cc:	8f9a                	mv	t6,t1
800036ce:	10c4                	addi	s1,sp,100
800036d0:	10e4ceaf          	0x10e4ceaf
800036d4:	8979                	andi	a0,a0,30
800036d6:	dde610f7          	0xdde610f7
800036da:	1122                	slli	sp,sp,0x28
800036dc:	112b5d0f          	0x112b5d0f
800036e0:	43c8                	lw	a0,4(a5)
800036e2:	1144                	addi	s1,sp,164
800036e4:	dc36                	sw	a3,56(sp)
800036e6:	115c                	addi	a5,sp,164
800036e8:	7eec                	flw	fa1,124(a3)
800036ea:	1178                	addi	a4,sp,172
800036ec:	0002                	c.slli64	zero
800036ee:	1189                	addi	gp,gp,-30
800036f0:	119f8227          	0x119f8227
800036f4:	4fc8                	lw	a0,28(a5)
800036f6:	182611cf          	fnmadd.s	ft3,fa2,ft2,ft3,rtz
800036fa:	11da                	slli	gp,gp,0x36
800036fc:	8de8                	0x8de8
800036fe:	11e4                	addi	s1,sp,236
80003700:	12e0                	addi	s0,sp,364
80003702:	3fa611eb          	0x3fa611eb
80003706:	11f6                	slli	gp,gp,0x3d
80003708:	04bd                	addi	s1,s1,15
8000370a:	2b6111fb          	0x2b6111fb
8000370e:	824211fb          	0x824211fb
80003712:	51f61203          	lh	tp,1311(a2)
80003716:	121c                	addi	a5,sp,288
80003718:	acb4                	fsd	fa3,88(s1)
8000371a:	1220                	addi	s0,sp,296
8000371c:	e474                	fsw	fa3,76(s0)
8000371e:	1221                	addi	tp,tp,-24
80003720:	321c                	fld	fa5,32(a2)
80003722:	1225                	addi	tp,tp,-23
80003724:	671f 1235 6343      	0x63431235671f
8000372a:	1239                	addi	tp,tp,-18
8000372c:	c895                	beqz	s1,80003760 <verify_data+0x4c4>
8000372e:	63be125b          	0x63be125b
80003732:	1266                	slli	tp,tp,0x39
80003734:	6746                	flw	fa4,80(sp)
80003736:	1268                	addi	a0,sp,300
80003738:	c920                	sw	s0,80(a0)
8000373a:	1268                	addi	a0,sp,300
8000373c:	6408                	flw	fa0,8(s0)
8000373e:	127e                	slli	tp,tp,0x3f
80003740:	6db5                	lui	s11,0xd
80003742:	1744128b          	0x1744128b
80003746:	12dd                	addi	t0,t0,-9
80003748:	12f40083          	lb	ra,303(s0)
8000374c:	bfaa                	fsd	fa0,504(sp)
8000374e:	12ff                	0x12ff
80003750:	e741                	bnez	a4,800037d8 <verify_data+0x53c>
80003752:	1314                	addi	a3,sp,416
80003754:	c0ac                	sw	a1,64(s1)
80003756:	133c                	addi	a5,sp,424
80003758:	2441                	jal	800039d8 <verify_data+0x73c>
8000375a:	0e9b1353          	fsub.q	ft6,fs6,fs1,rtz
8000375e:	1364                	addi	s1,sp,428
80003760:	136948cb          	fnmsub.d	fa7,fs2,fs6,ft2,rmm
80003764:	4dd8                	lw	a4,28(a1)
80003766:	1395                	addi	t2,t2,-27
80003768:	e4b2                	fsw	fa2,72(sp)
8000376a:	139c                	addi	a5,sp,480
8000376c:	db86                	sw	ra,244(sp)
8000376e:	a26a13a7          	0xa26a13a7
80003772:	13b2                	slli	t2,t2,0x2c
80003774:	13bf00c7          	fmsub.d	ft1,ft10,fs11,ft2,rne
80003778:	13ccfe2f          	0x13ccfe2f
8000377c:	b436                	fsd	fa3,40(sp)
8000377e:	13e5                	addi	t2,t2,-7
80003780:	13e702e3          	beq	a4,t5,800040a4 <verify_data+0xe08>
80003784:	0138                	addi	a4,sp,136
80003786:	13e9                	addi	t2,t2,-6
80003788:	a794                	fsd	fa3,8(a5)
8000378a:	13fe                	slli	t2,t2,0x3f
8000378c:	140a3777          	0x140a3777
80003790:	98ae                	add	a7,a7,a1
80003792:	142d                	addi	s0,s0,-21
80003794:	8655                	srai	a2,a2,0x15
80003796:	bdd61447          	0xbdd61447
8000379a:	144a                	slli	s0,s0,0x32
8000379c:	81a2                	mv	gp,s0
8000379e:	145a                	slli	s0,s0,0x36
800037a0:	145d8bd7          	0x145d8bd7
800037a4:	14624fa3          	0x14624fa3
800037a8:	5a5e                	lw	s4,244(sp)
800037aa:	1472                	slli	s0,s0,0x3c
800037ac:	14739627          	0x14739627
800037b0:	2e08                	fld	fa0,24(a2)
800037b2:	147c                	addi	a5,sp,556
800037b4:	e22a                	fsw	fa0,4(sp)
800037b6:	1488                	addi	a0,sp,608
800037b8:	2630                	fld	fa2,72(a2)
800037ba:	148e                	slli	s1,s1,0x23
800037bc:	14a8aca7          	fsw	fa0,345(a7)
800037c0:	108a                	slli	ra,ra,0x22
800037c2:	14c0                	addi	s0,sp,612
800037c4:	14d11f33          	0x14d11f33
800037c8:	14df5beb          	0x14df5beb
800037cc:	26d6                	fld	fa3,336(sp)
800037ce:	caae14f7          	0xcaae14f7
800037d2:	1518                	addi	a4,sp,672
800037d4:	3f1e                	fld	ft10,480(sp)
800037d6:	1532                	slli	a0,a0,0x2c
800037d8:	7742                	flw	fa4,48(sp)
800037da:	1540                	addi	s0,sp,676
800037dc:	1541dfdb          	0x1541dfdb
800037e0:	63a5                	lui	t2,0x9
800037e2:	1542                	slli	a0,a0,0x30
800037e4:	1fe2                	slli	t6,t6,0x38
800037e6:	1571                	addi	a0,a0,-4
800037e8:	d1f1                	beqz	a1,800037ac <verify_data+0x510>
800037ea:	157e                	slli	a0,a0,0x3f
800037ec:	18e0                	addi	s0,sp,124
800037ee:	159f b440 15aa      	0x15aab440159f
800037f4:	15bb2fe7          	0x15bb2fe7
800037f8:	a9d0                	fsd	fa2,144(a1)
800037fa:	a7d115bb          	0xa7d115bb
800037fe:	15c5                	addi	a1,a1,-15
80003800:	7f16                	flw	ft10,100(sp)
80003802:	15ce                	slli	a1,a1,0x33
80003804:	68b2                	flw	fa7,12(sp)
80003806:	0f8915db          	0xf8915db
8000380a:	15ee                	slli	a1,a1,0x3b
8000380c:	15f77ee7          	0x15f77ee7
80003810:	15fcce2f          	0x15fcce2f
80003814:	12d6                	slli	t0,t0,0x35
80003816:	1629                	addi	a2,a2,-22
80003818:	8dc1                	or	a1,a1,s0
8000381a:	1630                	addi	a2,sp,808
8000381c:	5f2d                	li	t5,-21
8000381e:	eb5f1633          	0xeb5f1633
80003822:	fd611633          	0xfd611633
80003826:	163e                	slli	a2,a2,0x2f
80003828:	2ff2                	fld	ft11,280(sp)
8000382a:	1640                	addi	s0,sp,804
8000382c:	379a                	fld	fa5,416(sp)
8000382e:	39421667          	0x39421667
80003832:	1675                	addi	a2,a2,-3
80003834:	bf1f 1695 42fc      	0x42fc1695bf1f
8000383a:	169e                	slli	a3,a3,0x27
8000383c:	6ad2                	flw	fs5,20(sp)
8000383e:	0ad616a7          	0xad616a7
80003842:	534b16b7          	lui	a3,0x534b1
80003846:	16be                	slli	a3,a3,0x2f
80003848:	d8e5                	beqz	s1,80003838 <verify_data+0x59c>
8000384a:	4eab16c3          	fmadd.q	fa3,fs6,fa0,fs1,rtz
8000384e:	098116cb          	fnmsub.s	fa3,ft2,fs8,ft1,rtz
80003852:	1700                	addi	s0,sp,928
80003854:	1692                	slli	a3,a3,0x24
80003856:	170d                	addi	a4,a4,-29
80003858:	1621                	addi	a2,a2,-24
8000385a:	1712                	slli	a4,a4,0x24
8000385c:	17155447          	fmsub.q	fs0,fa0,fa7,ft2,unknown
80003860:	7b35                	lui	s6,0xfffed
80003862:	171a                	slli	a4,a4,0x26
80003864:	172d75a3          	0x172d75a3
80003868:	3a26                	fld	fs4,104(sp)
8000386a:	46e31733          	0x46e31733
8000386e:	174a                	slli	a4,a4,0x32
80003870:	1753184b          	fnmsub.q	fa6,ft6,fs5,ft2,rtz
80003874:	b7d5                	j	80003858 <verify_data+0x5bc>
80003876:	1790                	addi	a2,sp,992
80003878:	394c                	fld	fa1,176(a0)
8000387a:	17bc                	addi	a5,sp,1000
8000387c:	bb4a                	fsd	fs2,432(sp)
8000387e:	17bc                	addi	a5,sp,1000
80003880:	e6da                	fsw	fs6,76(sp)
80003882:	17c6                	slli	a5,a5,0x31
80003884:	ff59                	bnez	a4,80003822 <verify_data+0x586>
80003886:	17c9                	addi	a5,a5,-14
80003888:	3abd                	jal	80003206 <__clz_tab+0x16e>
8000388a:	61c617cf          	fnmadd.s	fa5,fa2,ft8,fa2,rtz
8000388e:	974017d7          	0x974017d7
80003892:	17ed                	addi	a5,a5,-5
80003894:	eeec                	fsw	fa1,92(a3)
80003896:	1802                	slli	a6,a6,0x20
80003898:	10d2                	slli	ra,ra,0x34
8000389a:	1aef180b          	0x1aef180b
8000389e:	184e                	slli	a6,a6,0x33
800038a0:	8e8d                	sub	a3,a3,a1
800038a2:	188c                	addi	a1,sp,112
800038a4:	c656                	sw	s5,12(sp)
800038a6:	189e                	slli	a7,a7,0x27
800038a8:	a1ce                	fsd	fs3,192(sp)
800038aa:	18d2                	slli	a7,a7,0x34
800038ac:	9675                	srai	a2,a2,0x3d
800038ae:	3dfe18e3          	bne	t3,t6,8000447e <verify_data+0x11e2>
800038b2:	18fa                	slli	a7,a7,0x3e
800038b4:	19de                	slli	s3,s3,0x37
800038b6:	b28018fb          	0xb28018fb
800038ba:	1900                	addi	s0,sp,176
800038bc:	4ff0                	lw	a2,92(a5)
800038be:	190a                	slli	s2,s2,0x22
800038c0:	191afacb          	fnmsub.s	fs5,fs5,fa7,ft3
800038c4:	ed44                	fsw	fs1,28(a0)
800038c6:	0a531927          	0xa531927
800038ca:	b1bf193b          	0xb1bf193b
800038ce:	194e                	slli	s2,s2,0x33
800038d0:	19a2b58b          	0x19a2b58b
800038d4:	5cc9                	li	s9,-14
800038d6:	19c1                	addi	s3,s3,-16
800038d8:	1980                	addi	s0,sp,240
800038da:	19c9                	addi	s3,s3,-14
800038dc:	19cee96b          	0x19cee96b
800038e0:	59f1                	li	s3,-4
800038e2:	19d5                	addi	s3,s3,-11
800038e4:	4af1                	li	s5,28
800038e6:	306d19eb          	0x306d19eb
800038ea:	19f1                	addi	s3,s3,-4
800038ec:	f8f2                	fsw	ft8,112(sp)
800038ee:	19f1                	addi	s3,s3,-4
800038f0:	1886                	slli	a7,a7,0x21
800038f2:	1a04                	addi	s1,sp,304
800038f4:	af00                	fsd	fs0,24(a4)
800038f6:	1a05                	addi	s4,s4,-31
800038f8:	1a067347          	fmsub.d	ft6,fa2,ft0,ft3
800038fc:	efe9                	bnez	a5,800039d6 <verify_data+0x73a>
800038fe:	1a16                	slli	s4,s4,0x25
80003900:	34a2                	fld	fs1,40(sp)
80003902:	1a26                	slli	s4,s4,0x29
80003904:	6680                	flw	fs0,8(a3)
80003906:	1a72                	slli	s4,s4,0x3c
80003908:	6a3e                	flw	fs4,204(sp)
8000390a:	1a7c                	addi	a5,sp,316
8000390c:	1a9b193f 1ab845a1 	0x1ab845a11a9b193f
80003914:	c174                	sw	a3,68(a0)
80003916:	1abe                	slli	s5,s5,0x2f
80003918:	8f99                	sub	a5,a5,a4
8000391a:	1ae8                	addi	a0,sp,380
8000391c:	88d5                	andi	s1,s1,21
8000391e:	1afe                	slli	s5,s5,0x3f
80003920:	fbb4                	fsw	fa3,112(a5)
80003922:	1b14                	addi	a3,sp,432
80003924:	2e78                	fld	fa4,216(a2)
80003926:	1b16                	slli	s6,s6,0x25
80003928:	1b1ae0d3          	fdiv.d	ft1,fs5,fa7,unknown
8000392c:	d252                	sw	s4,36(sp)
8000392e:	0fbf1b2b          	0xfbf1b2b
80003932:	1b35                	addi	s6,s6,-19
80003934:	fb86                	fsw	ft1,244(sp)
80003936:	1b60                	addi	s0,sp,444
80003938:	1b717563          	bgeu	sp,s7,80003ae2 <verify_data+0x846>
8000393c:	ab66                	fsd	fs9,400(sp)
8000393e:	1b78                	addi	a4,sp,444
80003940:	0f16                	slli	t5,t5,0x5
80003942:	1b81                	addi	s7,s7,-32
80003944:	1b825af3          	csrrwi	s5,0x1b8,4
80003948:	e83e                	fsw	fa5,16(sp)
8000394a:	1b94                	addi	a3,sp,496
8000394c:	a632                	fsd	fa2,264(sp)
8000394e:	1b96                	slli	s7,s7,0x25
80003950:	1baab177          	0x1baab177
80003954:	1bb4383f 1bb928d5 	0x1bb928d51bb4383f
8000395c:	0309                	addi	t1,t1,2
8000395e:	1c05                	addi	s8,s8,-31
80003960:	84d0                	0x84d0
80003962:	1c2d                	addi	s8,s8,-21
80003964:	1c2f74ab          	0x1c2f74ab
80003968:	4355                	li	t1,21
8000396a:	1c36                	slli	s8,s8,0x2d
8000396c:	4b00                	lw	s0,16(a4)
8000396e:	a9601c73          	csrrw	s8,0xa96,zero
80003972:	1c74                	addi	a3,sp,572
80003974:	b4a9                	j	800033be <verify_data+0x122>
80003976:	1c88                	addi	a0,sp,624
80003978:	0ac5                	addi	s5,s5,17
8000397a:	1cb4                	addi	a3,sp,632
8000397c:	12d4                	addi	a3,sp,356
8000397e:	1cb4                	addi	a3,sp,632
80003980:	bb55                	j	80003734 <verify_data+0x498>
80003982:	1cc8                	addi	a0,sp,628
80003984:	1ccf4e3b          	0x1ccf4e3b
80003988:	000d                	c.nop	3
8000398a:	1cf5                	addi	s9,s9,-3
8000398c:	4c05                	li	s8,1
8000398e:	1cfa                	slli	s9,s9,0x3e
80003990:	88a1                	andi	s1,s1,8
80003992:	1cfa                	slli	s9,s9,0x3e
80003994:	9565                	srai	a0,a0,0x39
80003996:	1d14                	addi	a3,sp,688
80003998:	da5f 1d42 1082      	0x10821d42da5f
8000399e:	71bc1d5b          	0x71bc1d5b
800039a2:	97091d77          	0x97091d77
800039a6:	1d82                	slli	s11,s11,0x20
800039a8:	daea                	sw	s10,116(sp)
800039aa:	1dac                	addi	a1,sp,760
800039ac:	9829                	andi	s0,s0,-22
800039ae:	1db9                	addi	s11,s11,-18
800039b0:	d75f 1dcb 2524      	0x25241dcbd75f
800039b6:	9af51dd3          	0x9af51dd3
800039ba:	1dd8                	addi	a4,sp,756
800039bc:	8a44                	0x8a44
800039be:	daf91def          	jal	s11,7ff9576c <buflen.2941+0x7ff9572c>
800039c2:	1df0                	addi	a2,sp,764
800039c4:	6e48                	flw	fa0,28(a2)
800039c6:	1df4                	addi	a3,sp,764
800039c8:	c9c9                	beqz	a1,80003a5a <verify_data+0x7be>
800039ca:	1e00                	addi	s0,sp,816
800039cc:	d51d                	beqz	a0,800038fa <verify_data+0x65e>
800039ce:	1e08                	addi	a0,sp,816
800039d0:	1e300f6b          	0x1e300f6b
800039d4:	25de                	fld	fa1,464(sp)
800039d6:	1e45                	addi	t3,t3,-15
800039d8:	8062                	c.mv	zero,s8
800039da:	1e46                	slli	t3,t3,0x31
800039dc:	1e48192b          	0x1e48192b
800039e0:	7f46                	flw	ft10,112(sp)
800039e2:	1e58                	addi	a4,sp,820
800039e4:	1641                	addi	a2,a2,-16
800039e6:	1e62                	slli	t3,t3,0x38
800039e8:	47e8                	lw	a0,76(a5)
800039ea:	1e6d                	addi	t3,t3,-5
800039ec:	932c                	0x932c
800039ee:	1e6d                	addi	t3,t3,-5
800039f0:	0b6e                	slli	s6,s6,0x1b
800039f2:	1e8c                	addi	a1,sp,880
800039f4:	e911                	bnez	a0,80003a08 <verify_data+0x76c>
800039f6:	540d1e93          	0x540d1e93
800039fa:	1e9c                	addi	a5,sp,880
800039fc:	1e9ca763          	0x1e9ca763
80003a00:	49c4                	lw	s1,20(a1)
80003a02:	1ea6                	slli	t4,t4,0x29
80003a04:	f87d                	bnez	s0,800039fa <verify_data+0x75e>
80003a06:	1eb0                	addi	a2,sp,888
80003a08:	98ac                	0x98ac
80003a0a:	1eb8                	addi	a4,sp,888
80003a0c:	a950                	fsd	fa2,144(a0)
80003a0e:	1ebe                	slli	t4,t4,0x2f
80003a10:	8110                	0x8110
80003a12:	1edc                	addi	a5,sp,884
80003a14:	2d32                	fld	fs10,264(sp)
80003a16:	1ee1                	addi	t4,t4,-8
80003a18:	4855                	li	a6,21
80003a1a:	1ef2                	slli	t4,t4,0x3c
80003a1c:	1ef490c3          	fmadd.q	ft1,fs1,fa5,ft3,rtz
80003a20:	1ef9fd23          	0x1ef9fd23
80003a24:	9906                	add	s2,s2,ra
80003a26:	5e7e1f03          	lh	t5,1511(t3) # 45e7 <buflen.2941+0x45a7>
80003a2a:	1f06                	slli	t5,t5,0x21
80003a2c:	3d39                	jal	8000384a <verify_data+0x5ae>
80003a2e:	1f09                	addi	t5,t5,-30
80003a30:	8905                	andi	a0,a0,1
80003a32:	1f1f 5071 1f23      	0x1f2350711f1f
80003a38:	1f407de7          	0x1f407de7
80003a3c:	1c49                	addi	s8,s8,-14
80003a3e:	1f54                	addi	a3,sp,948
80003a40:	0239                	addi	tp,tp,14
80003a42:	1f79                	addi	t5,t5,-2
80003a44:	1f8b77b7          	lui	a5,0x1f8b7
80003a48:	96fd                	srai	a3,a3,0x3f
80003a4a:	1f98                	addi	a4,sp,1008
80003a4c:	b1ee                	fsd	fs11,224(sp)
80003a4e:	cd531fb7          	lui	t6,0xcd531
80003a52:	1fbc                	addi	a5,sp,1016
80003a54:	7b61                	lui	s6,0xffff8
80003a56:	1fc6                	slli	t6,t6,0x31
80003a58:	0dde                	slli	s11,s11,0x17
80003a5a:	1fda                	slli	t6,t6,0x36
80003a5c:	16f9                	addi	a3,a3,-2
80003a5e:	1ff0                	addi	a2,sp,1020
80003a60:	adc6                	fsd	fa7,216(sp)
80003a62:	73bb1ff3          	csrrw	t6,0x73b,s6
80003a66:	201f 0c4c 2027      	0x20270c4c201f
80003a6c:	202edda7          	0x202edda7
80003a70:	202fd7d7          	0x202fd7d7
80003a74:	2c8c                	fld	fa1,24(s1)
80003a76:	2031                	jal	80003a82 <verify_data+0x7e6>
80003a78:	46f4                	lw	a3,76(a3)
80003a7a:	203e                	fld	ft0,456(sp)
80003a7c:	8ed1                	or	a3,a3,a2
80003a7e:	0db82057          	0xdb82057
80003a82:	206c                	fld	fa1,192(s0)
80003a84:	7fd8                	flw	fa4,60(a5)
80003a86:	207a                	fld	ft0,408(sp)
80003a88:	0d30                	addi	a2,sp,664
80003a8a:	207d                	jal	80003b38 <verify_data+0x89c>
80003a8c:	3aed                	jal	80003486 <verify_data+0x1ea>
80003a8e:	2085                	jal	80003aee <verify_data+0x852>
80003a90:	7fc9                	lui	t6,0xffff2
80003a92:	2090                	fld	fa2,0(s1)
80003a94:	78d4                	flw	fa3,52(s1)
80003a96:	f31d20b3          	0xf31d20b3
80003a9a:	20bc                	fld	fa5,64(s1)
80003a9c:	7518                	flw	fa4,40(a0)
80003a9e:	20d0                	fld	fa2,128(s1)
80003aa0:	cf61                	beqz	a4,80003b78 <verify_data+0x8dc>
80003aa2:	e50320fb          	0xe50320fb
80003aa6:	2128                	fld	fa0,64(a0)
80003aa8:	7078                	flw	fa4,100(s0)
80003aaa:	2159                	jal	80003f30 <verify_data+0xc94>
80003aac:	0b52                	slli	s6,s6,0x14
80003aae:	9d30216b          	0x9d30216b
80003ab2:	218e                	fld	ft3,192(sp)
80003ab4:	81de                	mv	gp,s7
80003ab6:	03af21af          	amoadd.w.rl	gp,s10,(t5)
80003aba:	a15d21bf f16e21d7 	0xf16e21d7a15d21bf
80003ac2:	21e4                	fld	fs1,192(a1)
80003ac4:	21f8bbe7          	0x21f8bbe7
80003ac8:	757d                	lui	a0,0xfffff
80003aca:	2212                	fld	ft4,256(sp)
80003acc:	221bb1f3          	csrrc	gp,0x221,s7
80003ad0:	27e4                	fld	fs1,200(a5)
80003ad2:	223a                	fld	ft4,392(sp)
80003ad4:	e330                	fsw	fa2,64(a4)
80003ad6:	2262                	fld	ft4,24(sp)
80003ad8:	226a2ea7          	fsw	ft6,573(s4) # 5345373b <buflen.2941+0x534536fb>
80003adc:	9562                	add	a0,a0,s8
80003ade:	226a                	fld	ft4,152(sp)
80003ae0:	227f96f7          	0x227f96f7
80003ae4:	810a                	mv	sp,sp
80003ae6:	2285                	jal	80003c46 <verify_data+0x9aa>
80003ae8:	22992e4b          	fnmsub.d	ft8,fs2,fs1,ft4,rdn
80003aec:	aa91                	j	80003c40 <verify_data+0x9a4>
80003aee:	229c                	fld	fa5,0(a3)
80003af0:	9608                	0x9608
80003af2:	22c1                	jal	80003cb2 <verify_data+0xa16>
80003af4:	fb81                	bnez	a5,80003a04 <verify_data+0x768>
80003af6:	22e0                	fld	fs0,192(a3)
80003af8:	ab60                	fsd	fs0,208(a4)
80003afa:	22ea                	fld	ft5,152(sp)
80003afc:	2fa9                	jal	80004256 <verify_data+0xfba>
80003afe:	231c                	fld	fa5,0(a4)
80003b00:	39df 2335 4e2b      	0x4e2b233539df
80003b06:	2349                	jal	80004088 <verify_data+0xdec>
80003b08:	c94a                	sw	s2,144(sp)
80003b0a:	234c                	fld	fa1,128(a4)
80003b0c:	23688f3b          	0x23688f3b
80003b10:	278e                	fld	fa5,192(sp)
80003b12:	2374                	fld	fa3,192(a4)
80003b14:	ed70                	fsw	fa2,92(a0)
80003b16:	2381                	jal	80004056 <verify_data+0xdba>
80003b18:	04c5                	addi	s1,s1,17
80003b1a:	239c                	fld	fa5,0(a5)
80003b1c:	034d                	addi	t1,t1,19
80003b1e:	23a5                	jal	80004086 <verify_data+0xdea>
80003b20:	6a30                	flw	fa2,80(a2)
80003b22:	a2f223e7          	0xa2f223e7
80003b26:	7ca623ef          	jal	t2,800662f0 <__global_pointer$+0x5e854>
80003b2a:	e3c123f3          	csrrs	t2,0xe3c,sp
80003b2e:	23fe                	fld	ft7,472(sp)
80003b30:	240481ab          	0x240481ab
80003b34:	37ea                	fld	fa5,184(sp)
80003b36:	491c240f          	0x491c240f
80003b3a:	2435                	jal	80003d66 <verify_data+0xaca>
80003b3c:	b44a                	fsd	fs2,40(sp)
80003b3e:	2439                	jal	80003d4c <verify_data+0xab0>
80003b40:	cd3e                	sw	a5,152(sp)
80003b42:	247e                	fld	fs0,472(sp)
80003b44:	490d                	li	s2,3
80003b46:	249c                	fld	fa5,8(s1)
80003b48:	3ecd                	jal	8000373a <verify_data+0x49e>
80003b4a:	24a2                	fld	fs1,8(sp)
80003b4c:	5cb5                	li	s9,-19
80003b4e:	66c324b3          	0x66c324b3
80003b52:	24d2                	fld	fs1,272(sp)
80003b54:	24d5dd8b          	0x24d5dd8b
80003b58:	81fd                	srli	a1,a1,0x1f
80003b5a:	24d8                	fld	fa4,136(s1)
80003b5c:	5376                	lw	t1,124(sp)
80003b5e:	24e0                	fld	fs0,200(s1)
80003b60:	bbfa                	fsd	ft10,496(sp)
80003b62:	3a3624eb          	0x3a3624eb
80003b66:	24ec                	fld	fa1,200(s1)
80003b68:	05f9                	addi	a1,a1,30
80003b6a:	24f4                	fld	fa3,200(s1)
80003b6c:	0b3d                	addi	s6,s6,15
80003b6e:	24fc                	fld	fa5,200(s1)
80003b70:	c3bd                	beqz	a5,80003bd6 <verify_data+0x93a>
80003b72:	2511                	jal	80004176 <verify_data+0xeda>
80003b74:	b685                	j	800036d4 <verify_data+0x438>
80003b76:	2514                	fld	fa3,8(a0)
80003b78:	90ea                	add	ra,ra,s10
80003b7a:	2515                	jal	8000419e <verify_data+0xf02>
80003b7c:	76c0                	flw	fs0,44(a3)
80003b7e:	252c                	fld	fa1,72(a0)
80003b80:	18b0                	addi	a2,sp,120
80003b82:	2530                	fld	fa2,72(a0)
80003b84:	dc48                	sw	a0,60(s0)
80003b86:	253a                	fld	fa0,392(sp)
80003b88:	625f 253c d083      	0xd083253c625f
80003b8e:	e0d6253f 5203254f 	0x5203254fe0d6253f
80003b96:	2575                	jal	80004242 <verify_data+0xfa6>
80003b98:	0af0                	addi	a2,sp,348
80003b9a:	a39e2593          	slti	a1,t3,-1479
80003b9e:	259c                	fld	fa5,8(a1)
80003ba0:	648d                	lui	s1,0x3
80003ba2:	25a2                	fld	fa1,8(sp)
80003ba4:	25aa979b          	0x25aa979b
80003ba8:	e378                	fsw	fa4,68(a4)
80003baa:	25b4                	fld	fa3,72(a1)
80003bac:	25bbf907          	0x25bbf907
80003bb0:	7b4a                	flw	fs6,176(sp)
80003bb2:	25be                	fld	fa1,456(sp)
80003bb4:	ff86                	fsw	ft1,252(sp)
80003bb6:	eb4f25ef          	jal	a1,7fff626a <buflen.2941+0x7fff622a>
80003bba:	2601                	jal	80003eba <verify_data+0xc1e>
80003bbc:	a9bd                	j	8000403a <verify_data+0xd9e>
80003bbe:	2609                	jal	80003ec0 <verify_data+0xc24>
80003bc0:	5fae                	lw	t6,232(sp)
80003bc2:	2632                	fld	fa2,264(sp)
80003bc4:	2540                	fld	fs0,136(a0)
80003bc6:	83a92667          	0x83a92667
80003bca:	afc1266f          	jal	a2,7ff15ec6 <buflen.2941+0x7ff15e86>
80003bce:	78e9268b          	0x78e9268b
80003bd2:	26ba                	fld	fa3,392(sp)
80003bd4:	0b60                	addi	s0,sp,412
80003bd6:	26c6                	fld	fa3,80(sp)
80003bd8:	a9e2                	fsd	fs8,208(sp)
80003bda:	26d5                	jal	80003fbe <verify_data+0xd22>
80003bdc:	ed86                	fsw	ft1,216(sp)
80003bde:	26d8                	fld	fa4,136(a3)
80003be0:	ebc4                	fsw	fs1,20(a5)
80003be2:	26dd                	jal	80003fc8 <verify_data+0xd2c>
80003be4:	e848                	fsw	fa0,20(s0)
80003be6:	26e2                	fld	fa3,24(sp)
80003be8:	26ecc43f 26f58add 	0x26f58add26ecc43f
80003bf0:	2ad8                	fld	fa4,144(a3)
80003bf2:	2709                	jal	800042f4 <verify_data+0x1058>
80003bf4:	9280                	0x9280
80003bf6:	270d                	jal	80004318 <verify_data+0x107c>
80003bf8:	4fba                	lw	t6,140(sp)
80003bfa:	2711                	jal	800042fe <verify_data+0x1062>
80003bfc:	53c2                	lw	t2,48(sp)
80003bfe:	2728                	fld	fa0,72(a4)
80003c00:	272cdbc7          	fmsub.q	fs7,fs9,fs2,ft4,unknown
80003c04:	ec5c                	fsw	fa5,28(s0)
80003c06:	276a                	fld	fa4,152(sp)
80003c08:	bfb6                	fsd	fa3,504(sp)
80003c0a:	2799                	jal	80004350 <verify_data+0x10b4>
80003c0c:	27ac473b          	0x27ac473b
80003c10:	e2fd                	bnez	a3,80003cf6 <verify_data+0xa5a>
80003c12:	dfd027bb          	0xdfd027bb
80003c16:	27f8                	fld	fa4,200(a5)
80003c18:	280b98c7          	fmsub.s	fa7,fs7,ft0,ft5,rtz
80003c1c:	d6ad                	beqz	a3,80003b86 <verify_data+0x8ea>
80003c1e:	2812                	fld	fa6,256(sp)
80003c20:	281bbd27          	fsd	ft1,666(s7)
80003c24:	fe11                	bnez	a2,80003b40 <verify_data+0x8a4>
80003c26:	2828                	fld	fa0,80(s0)
80003c28:	49a5                	li	s3,9
80003c2a:	2835                	jal	80003c66 <verify_data+0x9ca>
80003c2c:	10f8                	addi	a4,sp,108
80003c2e:	2844                	fld	fs1,144(s0)
80003c30:	2845d05b          	0x2845d05b
80003c34:	9189                	srli	a1,a1,0x22
80003c36:	285d                	jal	80003cec <verify_data+0xa50>
80003c38:	2870b66f          	jal	a2,8000f6be <__global_pointer$+0x7c22>
80003c3c:	a34d                	j	800041de <verify_data+0xf42>
80003c3e:	2880                	fld	fs0,16(s1)
80003c40:	9bfd                	andi	a5,a5,-1
80003c42:	288a                	fld	fa7,128(sp)
80003c44:	c5f0                	sw	a2,76(a1)
80003c46:	28a6                	fld	fa7,72(sp)
80003c48:	c1b4                	sw	a3,64(a1)
80003c4a:	f15328bb          	0xf15328bb
80003c4e:	28bd                	jal	80003ccc <verify_data+0xa30>
80003c50:	5d55                	li	s10,-11
80003c52:	28d4                	fld	fa3,144(s1)
80003c54:	b431                	j	80003660 <verify_data+0x3c4>
80003c56:	25ea28ef          	jal	a7,800a5eb4 <__global_pointer$+0x9e418>
80003c5a:	2901                	jal	8000406a <verify_data+0xdce>
80003c5c:	290737e7          	0x290737e7
80003c60:	6c64                	flw	fs1,92(s0)
80003c62:	2909                	jal	80004074 <verify_data+0xdd8>
80003c64:	292b6803          	0x292b6803
80003c68:	de5d                	beqz	a2,80003c26 <verify_data+0x98a>
80003c6a:	292c                	fld	fa1,80(a0)
80003c6c:	292dc637          	lui	a2,0x292dc
80003c70:	4190                	lw	a2,0(a1)
80003c72:	2931                	jal	8000408e <verify_data+0xdf2>
80003c74:	fc5d                	bnez	s0,80003c32 <verify_data+0x996>
80003c76:	9857294b          	fnmsub.s	fs2,fa4,ft5,fs3,rdn
80003c7a:	2959                	jal	80004110 <verify_data+0xe74>
80003c7c:	28ae                	fld	fa7,200(sp)
80003c7e:	297c                	fld	fa5,208(a0)
80003c80:	297efd5b          	0x297efd5b
80003c84:	f432                	fsw	fa2,40(sp)
80003c86:	2982                	fld	fs3,0(sp)
80003c88:	d515                	beqz	a0,80003bb4 <verify_data+0x918>
80003c8a:	2995                	jal	800040fe <verify_data+0xe62>
80003c8c:	daa0                	sw	s0,112(a3)
80003c8e:	986b2997          	auipc	s3,0x986b2
80003c92:	2998                	fld	fa4,16(a1)
80003c94:	29a4b67b          	0x29a4b67b
80003c98:	29c439a7          	fsd	ft8,659(s0)
80003c9c:	29d70e33          	0x29d70e33
80003ca0:	7a22                	flw	fs4,40(sp)
80003ca2:	29dd                	jal	80004198 <verify_data+0xefc>
80003ca4:	eae5                	bnez	a3,80003d94 <verify_data+0xaf8>
80003ca6:	29e8                	fld	fa0,208(a1)
80003ca8:	35ba                	fld	fa1,424(sp)
80003caa:	2a0d                	jal	80003ddc <verify_data+0xb40>
80003cac:	2a12718f          	0x2a12718f
80003cb0:	2885                	jal	80003d20 <verify_data+0xa84>
80003cb2:	2a1a                	fld	fs4,384(sp)
80003cb4:	4eda                	lw	t4,148(sp)
80003cb6:	2a21                	jal	80003dce <verify_data+0xb32>
80003cb8:	2a22a5e3          	0x2a22a5e3
80003cbc:	6ac2                	flw	fs5,16(sp)
80003cbe:	2a4c                	fld	fa1,144(a2)
80003cc0:	2a8f6b6f          	jal	s6,800f9f68 <__global_pointer$+0xf24cc>
80003cc4:	bc82                	fsd	ft0,120(sp)
80003cc6:	2a95                	jal	80003e3a <verify_data+0xb9e>
80003cc8:	6351                	lui	t1,0x14
80003cca:	2aac                	fld	fa1,80(a3)
80003ccc:	74f2                	flw	fs1,60(sp)
80003cce:	2aca                	fld	fs5,144(sp)
80003cd0:	832c                	0x832c
80003cd2:	4d282aef          	jal	s5,800861a4 <__global_pointer$+0x7e708>
80003cd6:	2afa                	fld	fs5,408(sp)
80003cd8:	9719                	srai	a4,a4,0x26
80003cda:	2b01                	jal	800041ea <verify_data+0xf4e>
80003cdc:	2b0b5427          	0x2b0b5427
80003ce0:	d0ed                	beqz	s1,80003cc2 <verify_data+0xa26>
80003ce2:	2b0c                	fld	fa1,16(a4)
80003ce4:	261f 2b0e deec      	0xdeec2b0e261f
80003cea:	2b16                	fld	fs6,320(sp)
80003cec:	0b2a                	slli	s6,s6,0xa
80003cee:	2b1d                	jal	80004224 <verify_data+0xf88>
80003cf0:	4dbe                	lw	s11,204(sp)
80003cf2:	2b26                	fld	fs6,72(sp)
80003cf4:	0c12                	slli	s8,s8,0x4
80003cf6:	2b48                	fld	fa0,144(a4)
80003cf8:	2488                	fld	fa0,8(s1)
80003cfa:	1c4b2b53          	0x1c4b2b53
80003cfe:	2b5e                	fld	fs6,464(sp)
80003d00:	e58d                	bnez	a1,80003d2a <verify_data+0xa8e>
80003d02:	2b7a                	fld	fs6,408(sp)
80003d04:	6fa2                	flw	ft11,8(sp)
80003d06:	4d812b7b          	0x4d812b7b
80003d0a:	2b84                	fld	fs1,16(a5)
80003d0c:	70c8                	flw	fa0,36(s1)
80003d0e:	5d0d2b87          	flw	fs7,1488(s10)
80003d12:	2b89                	jal	80004264 <verify_data+0xfc8>
80003d14:	d1e1                	beqz	a1,80003cd4 <verify_data+0xa38>
80003d16:	6ca02b8f          	0x6ca02b8f
80003d1a:	d24e2b9b          	0xd24e2b9b
80003d1e:	2b9d                	jal	80004294 <verify_data+0xff8>
80003d20:	5d49                	li	s10,-14
80003d22:	35dc2ba7          	fsw	ft9,855(s8)
80003d26:	2ba8                	fld	fa0,80(a5)
80003d28:	6a49                	lui	s4,0x12
80003d2a:	2be5                	jal	80004322 <verify_data+0x1086>
80003d2c:	7d20                	flw	fs0,120(a0)
80003d2e:	a3052bf3          	csrrs	s7,0xa30,a0
80003d32:	2bf5                	jal	8000432e <verify_data+0x1092>
80003d34:	64c0                	flw	fs0,12(s1)
80003d36:	58672c07          	flw	fs8,1414(a4)
80003d3a:	2c15                	jal	80003f6e <verify_data+0xcd2>
80003d3c:	aecc                	fsd	fa1,152(a3)
80003d3e:	f5572c23          	sw	s5,-168(a4)
80003d42:	94b82c2b          	0x94b82c2b
80003d46:	2c2d                	jal	80003f80 <verify_data+0xce4>
80003d48:	2c3cdaab          	0x2c3cdaab
80003d4c:	0379                	addi	t1,t1,30
80003d4e:	2c52                	fld	fs8,272(sp)
80003d50:	2c54a803          	lw	a6,709(s1) # 32c5 <buflen.2941+0x3285>
80003d54:	983d                	andi	s0,s0,-17
80003d56:	2c6a                	fld	fs8,152(sp)
80003d58:	aaad                	j	80003ed2 <verify_data+0xc36>
80003d5a:	5cab2c73          	csrrs	s8,0x5ca,s6
80003d5e:	9f222c8f          	0x9f222c8f
80003d62:	2c9d                	jal	80003fd8 <verify_data+0xd3c>
80003d64:	2c45                	jal	80004014 <verify_data+0xd78>
80003d66:	b88a2cab          	0xb88a2cab
80003d6a:	2cbd                	jal	80003fe8 <verify_data+0xd4c>
80003d6c:	2cc21eab          	0x2cc21eab
80003d70:	ddc4                	sw	s1,60(a1)
80003d72:	2cd0                	fld	fa2,152(s1)
80003d74:	8849                	andi	s0,s0,18
80003d76:	2cd8                	fld	fa4,152(s1)
80003d78:	2ce66627          	0x2ce66627
80003d7c:	6b72                	flw	fs6,28(sp)
80003d7e:	2cf4                	fld	fa3,216(s1)
80003d80:	e584                	fsw	fs1,8(a1)
80003d82:	2cf4                	fld	fa3,216(s1)
80003d84:	ceea                	sw	s10,92(sp)
80003d86:	2cfe                	fld	fs9,472(sp)
80003d88:	d921                	beqz	a0,80003cd8 <verify_data+0xa3c>
80003d8a:	2d08                	fld	fa0,24(a0)
80003d8c:	9006                	c.add	zero,ra
80003d8e:	2d0c                	fld	fa1,24(a0)
80003d90:	2d2aea73          	csrrsi	s4,0x2d2,21
80003d94:	8c8c                	0x8c8c
80003d96:	2d2d                	jal	800043d0 <verify_data+0x1134>
80003d98:	d426                	sw	s1,40(sp)
80003d9a:	2d30                	fld	fa2,88(a0)
80003d9c:	eda1                	bnez	a1,80003df4 <verify_data+0xb58>
80003d9e:	2d68                	fld	fa0,216(a0)
80003da0:	2d73d15b          	0x2d73d15b
80003da4:	7cb6                	flw	fs9,108(sp)
80003da6:	fe492d97          	auipc	s11,0xfe492
80003daa:	ddde2d97          	auipc	s11,0xddde2
80003dae:	2d9e                	fld	fs11,448(sp)
80003db0:	ac55                	j	80004064 <verify_data+0xdc8>
80003db2:	0f762da3          	sw	s7,251(a2) # 292dc0fb <buflen.2941+0x292dc0bb>
80003db6:	ec892dbb          	0xec892dbb
80003dba:	2dc4                	fld	fs1,152(a1)
80003dbc:	95c4                	0x95c4
80003dbe:	2dc9                	jal	80004490 <verify_data+0x11f4>
80003dc0:	17e0                	addi	s0,sp,1004
80003dc2:	2dd6                	fld	fs11,336(sp)
80003dc4:	2deb91bf 2df3dfcb 	0x2df3dfcb2deb91bf
80003dcc:	2e04b247          	fmsub.q	ft4,fs1,ft0,ft5,rup
80003dd0:	9db6                	add	s11,s11,a3
80003dd2:	77ef2e07          	flw	ft8,1918(t5)
80003dd6:	0dbb2e0b          	0xdbb2e0b
80003dda:	2e16                	fld	ft8,320(sp)
80003ddc:	b07f                	0xb07f
80003dde:	2e56                	fld	ft8,336(sp)
80003de0:	0f7c                	addi	a5,sp,924
80003de2:	2e6a                	fld	ft8,152(sp)
80003de4:	2e6c133b          	0x2e6c133b
80003de8:	078a                	slli	a5,a5,0x2
80003dea:	2e70                	fld	fa2,216(a2)
80003dec:	26e2                	fld	fa3,24(sp)
80003dee:	2eb2                	fld	ft9,264(sp)
80003df0:	3bb4                	fld	fa3,112(a5)
80003df2:	2ed0                	fld	fa2,152(a3)
80003df4:	4040                	lw	s0,4(s0)
80003df6:	2ed9                	jal	800041cc <verify_data+0xf30>
80003df8:	f2c1                	bnez	a3,80003d78 <verify_data+0xadc>
80003dfa:	2edd                	jal	800041f0 <verify_data+0xf54>
80003dfc:	0df8                	addi	a4,sp,732
80003dfe:	2ee2                	fld	ft9,24(sp)
80003e00:	2eea494b          	fnmsub.q	fs2,fs4,fa4,ft5,rmm
80003e04:	def5                	beqz	a3,80003e00 <verify_data+0xb64>
80003e06:	2ef0                	fld	fa2,216(a3)
80003e08:	8746                	mv	a4,a7
80003e0a:	2ef5                	jal	80004206 <verify_data+0xf6a>
80003e0c:	9bd8                	0x9bd8
80003e0e:	2ef6                	fld	ft9,344(sp)
80003e10:	5b1f 2f1a 9f26      	0x9f262f1a5b1f
80003e16:	2f24                	fld	fs1,88(a4)
80003e18:	9259                	srli	a2,a2,0x36
80003e1a:	2f28                	fld	fa0,88(a4)
80003e1c:	91a6                	add	gp,gp,s1
80003e1e:	ef642f2b          	0xef642f2b
80003e22:	b4642f4b          	0xb4642f4b
80003e26:	2f70                	fld	fa2,216(a4)
80003e28:	2c50                	fld	fa2,152(s0)
80003e2a:	2f82                	fld	ft11,0(sp)
80003e2c:	5026                	0x5026
80003e2e:	d1cb2f97          	auipc	t6,0xd1cb2
80003e32:	b6d42fa7          	fsw	fa3,-1153(s0)
80003e36:	2faa                	fld	ft11,136(sp)
80003e38:	2fb80fd7          	0x2fb80fd7
80003e3c:	21dc                	fld	fa5,128(a1)
80003e3e:	2fb9                	jal	8000459c <verify_data+0x1300>
80003e40:	2fbefe13          	andi	t3,t4,763
80003e44:	2fc79aeb          	0x2fc79aeb
80003e48:	2fcade4f          	fnmadd.q	ft8,fs5,ft8,ft5,unknown
80003e4c:	b366                	fsd	fs9,416(sp)
80003e4e:	2fd8                	fld	fa4,152(a5)
80003e50:	2ff1affb          	0x2ff1affb
80003e54:	30107333          	0x30107333
80003e58:	301453e7          	0x301453e7
80003e5c:	3014dbb7          	lui	s7,0x3014d
80003e60:	94ee                	add	s1,s1,s11
80003e62:	3041                	jal	800036e2 <verify_data+0x446>
80003e64:	86c8                	0x86c8
80003e66:	304d                	jal	80003708 <verify_data+0x46c>
80003e68:	81e5                	srli	a1,a1,0x19
80003e6a:	93fd304f          	fnmadd.d	ft0,fs10,ft11,fs2,rup
80003e6e:	89643067          	0x89643067
80003e72:	306a                	fld	ft0,184(sp)
80003e74:	2809                	jal	80003e86 <verify_data+0xbea>
80003e76:	3401306b          	0x3401306b
80003e7a:	307d                	jal	80003728 <verify_data+0x48c>
80003e7c:	46b2                	lw	a3,12(sp)
80003e7e:	3089                	jal	800036c0 <verify_data+0x424>
80003e80:	9914                	0x9914
80003e82:	3095                	jal	800036e6 <verify_data+0x44a>
80003e84:	cd5f 30b8 735e      	0x735e30b8cd5f
80003e8a:	30ee                	fld	ft1,248(sp)
80003e8c:	d0d4                	sw	a3,36(s1)
80003e8e:	30f6                	fld	ft1,376(sp)
80003e90:	6af4                	flw	fa3,84(a3)
80003e92:	3108                	fld	fa0,32(a0)
80003e94:	1d65                	addi	s10,s10,-7
80003e96:	3116                	fld	ft2,352(sp)
80003e98:	31529973          	csrrw	s2,0x315,t0
80003e9c:	3170694b          	fnmsub.s	fs2,ft0,fs7,ft6,unknown
80003ea0:	31766a3f 3181e05e 	0x3181e05e31766a3f
80003ea8:	318c2ea3          	sw	s8,797(s8)
80003eac:	318c39e7          	0x318c39e7
80003eb0:	8c7a                	mv	s8,t5
80003eb2:	3198                	fld	fa4,32(a1)
80003eb4:	dfc5                	beqz	a5,80003e6c <verify_data+0xbd0>
80003eb6:	31a6                	fld	ft3,104(sp)
80003eb8:	31bc1683          	lh	a3,795(s8)
80003ebc:	0fec                	addi	a1,sp,988
80003ebe:	31c6                	fld	ft3,112(sp)
80003ec0:	d196                	sw	t0,224(sp)
80003ec2:	31cc                	fld	fa1,160(a1)
80003ec4:	0a74                	addi	a3,sp,284
80003ec6:	31d9                	jal	80003b8c <verify_data+0x8f0>
80003ec8:	58ee                	lw	a7,248(sp)
80003eca:	fa4731e3          	0xfa4731e3
80003ece:	100a31e3          	0x100a31e3
80003ed2:	31ec                	fld	fa1,224(a1)
80003ed4:	de75                	beqz	a2,80003ed0 <verify_data+0xc34>
80003ed6:	3209                	jal	800037d8 <verify_data+0x53c>
80003ed8:	3213004b          	fnmsub.d	ft0,ft6,ft1,ft6,rne
80003edc:	6e71                	lui	t3,0x1c
80003ede:	324a                	fld	ft4,176(sp)
80003ee0:	324f49f7          	0x324f49f7
80003ee4:	5676                	lw	a2,124(sp)
80003ee6:	3268                	fld	fa0,224(a2)
80003ee8:	e084                	fsw	fs1,0(s1)
80003eea:	326e                	fld	ft4,248(sp)
80003eec:	dd86                	sw	ra,248(sp)
80003eee:	3276                	fld	ft4,376(sp)
80003ef0:	19a6                	slli	s3,s3,0x29
80003ef2:	3280                	fld	fs0,32(a3)
80003ef4:	9e1e                	add	t3,t3,t2
80003ef6:	328d                	jal	80003858 <verify_data+0x5bc>
80003ef8:	32919983          	lh	s3,809(gp) # e9c70329 <__global_pointer$+0x69c6888d>
80003efc:	2dde                	fld	fs11,464(sp)
80003efe:	32a2                	fld	ft5,40(sp)
80003f00:	24ff                	0x24ff
80003f02:	32be                	fld	ft5,488(sp)
80003f04:	29b6                	fld	fs3,328(sp)
80003f06:	32c4                	fld	fs1,160(a3)
80003f08:	a565                	j	800045b0 <verify_data+0x1314>
80003f0a:	32cd                	jal	800038ec <verify_data+0x650>
80003f0c:	6a74                	flw	fa3,84(a2)
80003f0e:	32ce                	fld	ft5,240(sp)
80003f10:	3d32                	fld	fs10,296(sp)
80003f12:	32d5                	jal	800038f6 <verify_data+0x65a>
80003f14:	127e                	slli	tp,tp,0x3f
80003f16:	32e0                	fld	fs0,224(a3)
80003f18:	32ee431b          	0x32ee431b
80003f1c:	e815                	bnez	s0,80003f50 <verify_data+0xcb4>
80003f1e:	ffd432f7          	0xffd432f7
80003f22:	330e                	fld	ft6,224(sp)
80003f24:	4b8a                	lw	s7,128(sp)
80003f26:	3312                	fld	ft6,288(sp)
80003f28:	33226d3b          	0x33226d3b
80003f2c:	bb69                	j	80003cc6 <verify_data+0xa2a>
80003f2e:	3324                	fld	fs1,96(a4)
80003f30:	57fc                	lw	a5,108(a5)
80003f32:	3326                	fld	ft6,104(sp)
80003f34:	3085                	jal	80003794 <verify_data+0x4f8>
80003f36:	3339                	jal	80003c44 <verify_data+0x9a8>
80003f38:	a3bc                	fsd	fa5,64(a5)
80003f3a:	333c                	fld	fa5,96(a4)
80003f3c:	3348100b          	0x3348100b
80003f40:	bf5f 3378 37b1      	0x37b13378bf5f
80003f46:	337a                	fld	ft6,440(sp)
80003f48:	9944                	0x9944
80003f4a:	339f 69aa 33a5      	0x33a569aa339f
80003f50:	26c9                	jal	80004312 <verify_data+0x1076>
80003f52:	d57033ab          	0xd57033ab
80003f56:	33ac                	fld	fa1,96(a5)
80003f58:	f61d                	bnez	a2,80003e86 <verify_data+0xbea>
80003f5a:	33b6                	fld	ft7,360(sp)
80003f5c:	e796                	fsw	ft5,204(sp)
80003f5e:	33d8                	fld	fa4,160(a5)
80003f60:	33f842cb          	fnmsub.d	ft5,fa6,ft11,ft6,rmm
80003f64:	34127047          	0x34127047
80003f68:	3417d43b          	0x3417d43b
80003f6c:	86a9                	srai	a3,a3,0xa
80003f6e:	341a                	fld	fs0,416(sp)
80003f70:	342ec987          	flq	fs3,834(t4)
80003f74:	b01d                	j	8000379a <verify_data+0x4fe>
80003f76:	3438                	fld	fa4,104(s0)
80003f78:	c77a                	sw	t5,140(sp)
80003f7a:	345f 935e 3460      	0x3460935e345f
80003f80:	b74e                	fsd	fs3,424(sp)
80003f82:	3462                	fld	fs0,56(sp)
80003f84:	47ff                	0x47ff
80003f86:	346a                	fld	fs0,184(sp)
80003f88:	e798                	fsw	fa4,8(a5)
80003f8a:	346c                	fld	fa1,232(s0)
80003f8c:	e0a8                	fsw	fa0,64(s1)
80003f8e:	3471                	jal	80003a1a <verify_data+0x77e>
80003f90:	b34e                	fsd	fs3,416(sp)
80003f92:	347a                	fld	fs0,440(sp)
80003f94:	347e3b97          	auipc	s7,0x347e3
80003f98:	3491fb3f 34968f93 	0x34968f933491fb3f
80003fa0:	3499a707          	flw	fa4,841(s3) # 186b5fd7 <buflen.2941+0x186b5f97>
80003fa4:	5b28                	lw	a0,112(a4)
80003fa6:	34cd                	jal	80003a88 <verify_data+0x7ec>
80003fa8:	3644                	fld	fs1,168(a2)
80003faa:	34de                	fld	fs1,496(sp)
80003fac:	6341                	lui	t1,0x10
80003fae:	5cce34eb          	0x5cce34eb
80003fb2:	6b953513          	sltiu	a0,a0,1721
80003fb6:	3526                	fld	fa0,104(sp)
80003fb8:	99c5                	andi	a1,a1,-15
80003fba:	2e883533          	0x2e883533
80003fbe:	3539                	jal	80003dcc <verify_data+0xb30>
80003fc0:	b79f 353e 36c6      	0x36c6353eb79f
80003fc6:	b68b3543          	fmadd.q	fa0,fs6,fs0,fs6,rup
80003fca:	3548                	fld	fa0,168(a0)
80003fcc:	1a2c                	addi	a1,sp,312
80003fce:	3555                	jal	80003e72 <verify_data+0xbd6>
80003fd0:	a8ed                	j	800040ca <verify_data+0xe2e>
80003fd2:	d7583557          	0xd7583557
80003fd6:	3559                	jal	80003e5c <verify_data+0xbc0>
80003fd8:	3150                	fld	fa2,160(a0)
80003fda:	3561                	jal	80003e62 <verify_data+0xbc6>
80003fdc:	05a2                	slli	a1,a1,0x8
80003fde:	3594                	fld	fa3,40(a1)
80003fe0:	35ae                	fld	fa1,232(sp)
80003fe2:	35c0                	fld	fs0,168(a1)
80003fe4:	5411                	li	s0,-28
80003fe6:	35e6                	fld	fa1,120(sp)
80003fe8:	360e2f13          	slti	t5,t3,864
80003fec:	3615d7bf 36182d7f 	0x36182d7f3615d7bf
80003ff4:	69d9                	lui	s3,0x16
80003ff6:	3632                	fld	fa2,296(sp)
80003ff8:	93c9                	srli	a5,a5,0x32
80003ffa:	3634                	fld	fa3,104(a2)
80003ffc:	d420                	sw	s0,104(s0)
80003ffe:	d5de3647          	0xd5de3647
80004002:	3661                	jal	80003b8a <verify_data+0x8ee>
80004004:	5b94                	lw	a3,48(a5)
80004006:	3688                	fld	fa0,40(a3)
80004008:	42ad                	li	t0,11
8000400a:	3698                	fld	fa4,40(a3)
8000400c:	2b51                	jal	800045a0 <verify_data+0x1304>
8000400e:	369a                	fld	fa3,416(sp)
80004010:	10ae                	slli	ra,ra,0x2b
80004012:	36b0                	fld	fa2,104(a3)
80004014:	36bd5793          	0x36bd5793
80004018:	36d21197          	auipc	gp,0x36d21
8000401c:	181a                	slli	a6,a6,0x26
8000401e:	36ee                	fld	fa3,248(sp)
80004020:	712a                	flw	ft2,168(sp)
80004022:	2af736f7          	0x2af736f7
80004026:	953f370b          	0x953f370b
8000402a:	6219370f          	0x6219370f
8000402e:	99ac371b          	0x99ac371b
80004032:	42b9372b          	0x42b9372b
80004036:	3731                	jal	80003f42 <verify_data+0xca6>
80004038:	b46e                	fsd	fs11,40(sp)
8000403a:	3734                	fld	fa3,104(a4)
8000403c:	f7b8                	fsw	fa4,104(a5)
8000403e:	98ff373f e5553741 	0xe555374198ff373f
80004046:	3748                	fld	fa0,168(a4)
80004048:	3752e6c7          	fmsub.q	fa3,ft5,fs5,ft6,unknown
8000404c:	375ced43          	fmadd.q	fs10,fs9,fs5,ft6,unknown
80004050:	c88e                	sw	gp,80(sp)
80004052:	3764                	fld	fs1,232(a4)
80004054:	3774479b          	0x3774479b
80004058:	a8b1                	j	800040b4 <verify_data+0xe18>
8000405a:	a7273793          	sltiu	a5,a4,-1422
8000405e:	37a5                	jal	80003fc6 <verify_data+0xd2a>
80004060:	37a6bc03          	0x37a6bc03
80004064:	74e5                	lui	s1,0xffff9
80004066:	37ac                	fld	fa1,104(a5)
80004068:	66c0                	flw	fs0,12(a3)
8000406a:	37b6                	fld	fa5,360(sp)
8000406c:	7574                	flw	fa3,108(a0)
8000406e:	37c2                	fld	fa5,48(sp)
80004070:	37c3b8f7          	0x37c3b8f7
80004074:	7da5                	lui	s11,0xfffe9
80004076:	37c5                	jal	80004056 <verify_data+0xdba>
80004078:	37c94eb3          	0x37c94eb3
8000407c:	b958                	fsd	fa4,176(a0)
8000407e:	37da                	fld	fa5,432(sp)
80004080:	626c                	flw	fa1,68(a2)
80004082:	37e8                	fld	fa0,232(a5)
80004084:	8c39                	xor	s0,s0,a4
80004086:	37e8                	fld	fa0,232(a5)
80004088:	9834                	0x9834
8000408a:	37ff                	0x37ff
8000408c:	b6ea                	fsd	fs10,360(sp)
8000408e:	381d                	jal	800038c4 <verify_data+0x628>
80004090:	b3cd                	j	80003e72 <verify_data+0xbd6>
80004092:	3834                	fld	fa3,112(s0)
80004094:	578e                	lw	a5,224(sp)
80004096:	3842                	fld	fa6,48(sp)
80004098:	20f1                	jal	80004164 <verify_data+0xec8>
8000409a:	384a                	fld	fa6,176(sp)
8000409c:	092d                	addi	s2,s2,11
8000409e:	3862                	fld	fa6,56(sp)
800040a0:	38679167          	0x38679167
800040a4:	4d02                	lw	s10,0(sp)
800040a6:	3869                	jal	80003940 <verify_data+0x6a4>
800040a8:	386a4a27          	fsq	ft6,916(s4) # 12394 <buflen.2941+0x12354>
800040ac:	cfc9                	beqz	a5,80004146 <verify_data+0xeaa>
800040ae:	c145388b          	0xc145388b
800040b2:	3890                	fld	fa2,48(s1)
800040b4:	3893fc2f          	0x3893fc2f
800040b8:	ffda                	fsw	fs6,252(sp)
800040ba:	389f 05d1 38b3      	0x38b305d1389f
800040c0:	38b93c73          	csrrc	s8,0x38b,s2
800040c4:	f23d                	bnez	a2,8000402a <verify_data+0xd8e>
800040c6:	38ca                	fld	fa7,176(sp)
800040c8:	7b46                	flw	fs6,112(sp)
800040ca:	023138d3          	fadd.d	fa7,ft2,ft3,rup
800040ce:	a07c38db          	0xa07c38db
800040d2:	db9c38e3          	0xdb9c38e3
800040d6:	38ea                	fld	fa7,184(sp)
800040d8:	4292                	lw	t0,4(sp)
800040da:	3b0338eb          	0x3b0338eb
800040de:	bd26390b          	0xbd26390b
800040e2:	3925                	jal	80003d1a <verify_data+0xa7e>
800040e4:	9561                	srai	a0,a0,0x38
800040e6:	392e                	fld	fs2,232(sp)
800040e8:	6cd4                	flw	fa3,28(s1)
800040ea:	c9d63947          	fmsub.s	fs2,fa2,ft9,fs9,rup
800040ee:	397a                	fld	fs2,440(sp)
800040f0:	35c4                	fld	fs1,168(a1)
800040f2:	398c                	fld	fa1,48(a1)
800040f4:	398d5073          	csrwi	0x398,26
800040f8:	399987cf          	fnmadd.s	fa5,fs3,fs9,ft7,rne
800040fc:	737c                	flw	fa5,100(a4)
800040fe:	eec339bf 6d6839c2 	0x6d6839c2eec339bf
80004106:	39c6                	fld	fs3,112(sp)
80004108:	3b7f                	0x3b7f
8000410a:	674339c7          	fmsub.q	fs3,ft6,fs4,fa2,rup
8000410e:	39c9                	jal	80003de0 <verify_data+0xb44>
80004110:	fdf6                	fsw	ft9,248(sp)
80004112:	708e39d3          	0x708e39d3
80004116:	39f0                	fld	fa2,240(a1)
80004118:	6835                	lui	a6,0xd
8000411a:	3a04                	fld	fs1,48(a2)
8000411c:	493e                	lw	s2,204(sp)
8000411e:	3a06                	fld	fs4,96(sp)
80004120:	56e2                	lw	a3,56(sp)
80004122:	3a06                	fld	fs4,96(sp)
80004124:	3a0a8c2b          	0x3a0a8c2b
80004128:	cef4                	sw	a3,92(a3)
8000412a:	3a2c                	fld	fa1,112(a2)
8000412c:	8a86                	mv	s5,ra
8000412e:	3a2d                	jal	80003a68 <verify_data+0x7cc>
80004130:	c658                	sw	a4,12(a2)
80004132:	3a42                	fld	fs4,48(sp)
80004134:	3a49aebb          	0x3a49aebb
80004138:	de5c                	sw	a5,60(a2)
8000413a:	3a4e                	fld	fs4,240(sp)
8000413c:	56ec                	lw	a1,108(a3)
8000413e:	3a74                	fld	fa3,240(a2)
80004140:	c985                	beqz	a1,80004170 <verify_data+0xed4>
80004142:	3a76                	fld	fs4,376(sp)
80004144:	3a980e8b          	0x3a980e8b
80004148:	3aba90eb          	0x3aba90eb
8000414c:	3ac8d43b          	0x3ac8d43b
80004150:	0afe                	slli	s5,s5,0x1f
80004152:	3ae0                	fld	fs0,240(a3)
80004154:	4361                	li	t1,24
80004156:	3aea                	fld	fs5,184(sp)
80004158:	3b13e5b7          	lui	a1,0x3b13e
8000415c:	cef1                	beqz	a3,80004238 <verify_data+0xf9c>
8000415e:	3b1e                	fld	fs6,480(sp)
80004160:	fafd                	bnez	a3,80004156 <verify_data+0xeba>
80004162:	3b26                	fld	fs6,104(sp)
80004164:	fdc5                	bnez	a1,8000411c <verify_data+0xe80>
80004166:	fc5c3b37          	lui	s6,0xfc5c3
8000416a:	af763b3b          	0xaf763b3b
8000416e:	ed023b43          	0xed023b43
80004172:	3b76                	fld	fs6,376(sp)
80004174:	7cce                	flw	fs9,240(sp)
80004176:	3b8a                	fld	fs7,160(sp)
80004178:	07e4                	addi	s1,sp,972
8000417a:	d0de3b8f          	0xd0de3b8f
8000417e:	3b90                	fld	fa2,48(a5)
80004180:	3b99408f          	0x3b99408f
80004184:	3eb0                	fld	fa2,120(a3)
80004186:	3c06                	fld	fs8,96(sp)
80004188:	e4c1                	bnez	s1,80004210 <verify_data+0xf74>
8000418a:	3c39                	jal	80003ba8 <verify_data+0x90c>
8000418c:	02ec                	addi	a1,sp,332
8000418e:	3c49                	jal	80003c20 <verify_data+0x984>
80004190:	de19                	beqz	a2,800040ae <verify_data+0xe12>
80004192:	3c49                	jal	80003c24 <verify_data+0x988>
80004194:	bdbd                	j	80004012 <verify_data+0xd76>
80004196:	3a763c4b          	fnmsub.d	fs8,fa2,ft7,ft7,rup
8000419a:	e86b3c5b          	0xe86b3c5b
8000419e:	3c6e                	fld	fs8,248(sp)
800041a0:	1752                	slli	a4,a4,0x34
800041a2:	3c96                	fld	fs9,352(sp)
800041a4:	3c985217          	auipc	tp,0x3c985
800041a8:	8b6a                	mv	s6,s10
800041aa:	3ccc                	fld	fa1,184(s1)
800041ac:	71b9                	lui	gp,0xfffee
800041ae:	a1413cdb          	0xa1413cdb
800041b2:	0d013cf7          	0xd013cf7
800041b6:	3d1a                	fld	fs10,416(sp)
800041b8:	bfe5                	j	800041b0 <verify_data+0xf14>
800041ba:	3d2c                	fld	fa1,120(a0)
800041bc:	54be                	lw	s1,236(sp)
800041be:	3d2d                	jal	80003ff8 <verify_data+0xd5c>
800041c0:	5ae1                	li	s5,-8
800041c2:	3d42                	fld	fs10,48(sp)
800041c4:	3d4262f7          	0x3d4262f7
800041c8:	1d74                	addi	a3,sp,700
800041ca:	3d4e                	fld	fs10,240(sp)
800041cc:	8d0c                	0x8d0c
800041ce:	3d52                	fld	fs10,304(sp)
800041d0:	56d6                	lw	a3,116(sp)
800041d2:	3d54                	fld	fa3,184(a0)
800041d4:	fb3a                	fsw	fa4,180(sp)
800041d6:	742a3d57          	0x742a3d57
800041da:	3d5a                	fld	fs10,432(sp)
800041dc:	00fc                	addi	a5,sp,76
800041de:	3d62                	fld	fs10,56(sp)
800041e0:	592a                	lw	s2,168(sp)
800041e2:	3d7d                	jal	800040a0 <verify_data+0xe04>
800041e4:	7fc4                	flw	fs1,60(a5)
800041e6:	3d8e                	fld	fs11,224(sp)
800041e8:	3d9105a3          	sb	s9,971(sp)
800041ec:	38e6                	fld	fa7,120(sp)
800041ee:	3da0                	fld	fs0,120(a1)
800041f0:	ffa0                	fsw	fs0,120(a5)
800041f2:	3db1                	jal	8000404e <verify_data+0xdb2>
800041f4:	3dbf7153          	0x3dbf7153
800041f8:	50ad                	li	ra,-21
800041fa:	e9283dd7          	0xe9283dd7
800041fe:	3dde                	fld	fs11,496(sp)
80004200:	4c2e                	lw	s8,200(sp)
80004202:	b7773deb          	0xb7773deb
80004206:	0a4d3e27          	fsd	ft4,188(s10)
8000420a:	3e2a                	fld	ft8,168(sp)
8000420c:	f67f                	0xf67f
8000420e:	3e38                	fld	fa4,120(a2)
80004210:	3e3b8743          	fmadd.q	fa4,fs7,ft3,ft7,rne
80004214:	3e5303f7          	0x3e5303f7
80004218:	79d1                	lui	s3,0xffff4
8000421a:	17143e53          	fmul.q	ft8,fs0,fa7,rup
8000421e:	3e6d                	jal	80003dd8 <verify_data+0xb3c>
80004220:	99ec                	0x99ec
80004222:	3e85                	jal	80003d92 <verify_data+0xaf6>
80004224:	b8b0                	fsd	fa2,112(s1)
80004226:	3e8d                	jal	80003d98 <verify_data+0xafc>
80004228:	6ce8                	flw	fa0,92(s1)
8000422a:	8b753e9b          	0x8b753e9b
8000422e:	3e9d                	jal	80003da4 <verify_data+0xb08>
80004230:	ccad                	beqz	s1,800042aa <verify_data+0x100e>
80004232:	c5723ea7          	fsd	fs7,-931(tp) # bc988e01 <__global_pointer$+0x3c981365>
80004236:	99263ed3          	0x99263ed3
8000423a:	3f00                	fld	fs0,56(a4)
8000423c:	227f                	0x227f
8000423e:	3f1a                	fld	ft10,416(sp)
80004240:	1b75                	addi	s6,s6,-3
80004242:	3f1e                	fld	ft10,480(sp)
80004244:	c5ee                	sw	s11,200(sp)
80004246:	3f4a                	fld	ft10,176(sp)
80004248:	204c                	fld	fa1,128(s0)
8000424a:	3f66                	fld	ft10,120(sp)
8000424c:	7168                	flw	fa0,100(a0)
8000424e:	d17c3f67          	0xd17c3f67
80004252:	e53c3f67          	0xe53c3f67
80004256:	3f68                	fld	fa0,248(a4)
80004258:	b11e                	fsd	ft7,160(sp)
8000425a:	3f7c                	fld	fa5,248(a4)
8000425c:	f425                	bnez	s0,800041c4 <verify_data+0xf28>
8000425e:	3f81                	jal	800041ae <verify_data+0xf12>
80004260:	156e                	slli	a0,a0,0x3b
80004262:	3f8a                	fld	ft11,160(sp)
80004264:	3f95e34b          	fnmsub.q	ft6,fa1,fs9,ft7,unknown
80004268:	f67d                	bnez	a2,80004256 <verify_data+0xfba>
8000426a:	3fa4                	fld	fs1,120(a5)
8000426c:	5aa8                	lw	a0,112(a3)
8000426e:	3fb1                	jal	800041ca <verify_data+0xf2e>
80004270:	91b1                	srli	a1,a1,0x2c
80004272:	3fb4                	fld	fa3,120(a5)
80004274:	83ba                	mv	t2,a4
80004276:	3fbe                	fld	ft11,488(sp)
80004278:	4afd                	li	s5,31
8000427a:	3fff                	0x3fff
8000427c:	fa46                	fsw	fa7,52(sp)
8000427e:	4001                	c.li	zero,0
80004280:	1229                	addi	tp,tp,-22
80004282:	d5c84007          	flq	ft0,-676(a6) # cd5c <buflen.2941+0xcd1c>
80004286:	401e                	0x401e
80004288:	7e40                	flw	fs0,60(a2)
8000428a:	4025                	c.li	zero,9
8000428c:	4043fd5b          	0x4043fd5b
80004290:	405d5a9b          	0x405d5a9b
80004294:	a050                	fsd	fa2,128(s0)
80004296:	4085                	li	ra,1
80004298:	345c                	fld	fa5,168(s0)
8000429a:	7651408b          	0x7651408b
8000429e:	c4ff408b          	0xc4ff408b
800042a2:	40b0                	lw	a2,64(s1)
800042a4:	4885                	li	a7,1
800042a6:	40cd                	li	ra,19
800042a8:	0d2d                	addi	s10,s10,11
800042aa:	40ce                	lw	ra,208(sp)
800042ac:	24f2                	fld	fs1,280(sp)
800042ae:	40ce                	lw	ra,208(sp)
800042b0:	cc41                	beqz	s0,80004348 <verify_data+0x10ac>
800042b2:	40d2                	lw	ra,20(sp)
800042b4:	a17a                	fsd	ft10,128(sp)
800042b6:	40d5                	li	ra,21
800042b8:	0dea                	slli	s11,s11,0x1a
800042ba:	a95e40ef          	jal	ra,7ffe8d4e <buflen.2941+0x7ffe8d0e>
800042be:	ad3840f3          	0xad3840f3
800042c2:	40f9                	li	ra,30
800042c4:	f865                	bnez	s0,800042b4 <verify_data+0x1018>
800042c6:	40fd                	li	ra,31
800042c8:	40fed847          	fmsub.s	fa6,ft9,fa5,fs0,unknown
800042cc:	411c6f63          	bltu	s8,a7,800046ea <verify_data+0x144e>
800042d0:	41240a87          	0x41240a87
800042d4:	6f6a                	flw	ft10,152(sp)
800042d6:	4139                	li	sp,14
800042d8:	3ab2                	fld	fs5,296(sp)
800042da:	413d                	li	sp,15
800042dc:	88ae                	mv	a7,a1
800042de:	414a                	lw	sp,144(sp)
800042e0:	58f0                	lw	a2,116(s1)
800042e2:	418e                	lw	gp,192(sp)
800042e4:	4ba0                	lw	s0,80(a5)
800042e6:	4191                	li	gp,4
800042e8:	07d4                	addi	a3,sp,964
800042ea:	4192                	lw	gp,4(sp)
800042ec:	41aaf2ef          	jal	t0,800b3706 <__global_pointer$+0xabc6a>
800042f0:	2be4                	fld	fs1,208(a5)
800042f2:	41ae                	lw	gp,200(sp)
800042f4:	a764                	fsd	fs1,200(a4)
800042f6:	41b5                	li	gp,13
800042f8:	65ff                	0x65ff
800042fa:	41b8                	lw	a4,64(a1)
800042fc:	a514                	fsd	fa3,8(a0)
800042fe:	41be                	lw	gp,204(sp)
80004300:	94ba                	add	s1,s1,a4
80004302:	41f6                	lw	gp,92(sp)
80004304:	422f2997          	auipc	s3,0x422f2
80004308:	c726                	sw	s1,140(sp)
8000430a:	a0e2423b          	0xa0e2423b
8000430e:	4248                	lw	a0,4(a2)
80004310:	f095                	bnez	s1,80004234 <verify_data+0xf98>
80004312:	4252                	lw	tp,20(sp)
80004314:	9e80                	0x9e80
80004316:	4261                	li	tp,24
80004318:	8d86                	mv	s11,ra
8000431a:	42d0                	lw	a2,4(a3)
8000431c:	42d7b4a3          	0x42d7b4a3
80004320:	42dd5013          	srai	zero,s10,0x2d
80004324:	42dfc0af          	0x42dfc0af
80004328:	1664                	addi	s1,sp,812
8000432a:	42ec                	lw	a1,68(a3)
8000432c:	aca1                	j	80004584 <verify_data+0x12e8>
8000432e:	42f4                	lw	a3,68(a3)
80004330:	1936                	slli	s2,s2,0x2d
80004332:	42f8                	lw	a4,68(a3)
80004334:	430fbce7          	0x430fbce7
80004338:	b1f5                	j	80004024 <verify_data+0xd88>
8000433a:	431a                	lw	t1,132(sp)
8000433c:	aba4                	fsd	fs1,80(a5)
8000433e:	431d                	li	t1,7
80004340:	4d99                	li	s11,6
80004342:	8fd1432f          	0x8fd1432f
80004346:	433a                	lw	t1,140(sp)
80004348:	9488                	0x9488
8000434a:	4349                	li	t1,18
8000434c:	6781                	0x6781
8000434e:	c7ab4367          	0xc7ab4367
80004352:	0f3a4373          	0xf3a4373
80004356:	4382                	lw	t2,0(sp)
80004358:	7015                	c.lui	zero,0xfffe5
8000435a:	19f2438f          	0x19f2438f
8000435e:	4396                	lw	t2,68(sp)
80004360:	4adc                	lw	a5,20(a3)
80004362:	439a                	lw	t2,132(sp)
80004364:	d65f 43b2 0354      	0x35443b2d65f
8000436a:	43ba                	lw	t2,140(sp)
8000436c:	6d74                	flw	fa3,92(a0)
8000436e:	0be443bb          	0xbe443bb
80004372:	43cd                	li	t2,19
80004374:	43e409b7          	lui	s3,0x43e40
80004378:	3234                	fld	fa3,96(a2)
8000437a:	43e6                	lw	t2,88(sp)
8000437c:	247f                	0x247f
8000437e:	22f943f3          	0x22f943f3
80004382:	43fe                	lw	t2,220(sp)
80004384:	5c12                	lw	s8,36(sp)
80004386:	99ca4423          	0x99ca4423
8000438a:	4428                	lw	a0,72(s0)
8000438c:	d032                	sw	a2,32(sp)
8000438e:	442d                	li	s0,11
80004390:	5118                	lw	a4,32(a0)
80004392:	4430                	lw	a2,72(s0)
80004394:	463a                	lw	a2,140(sp)
80004396:	443a                	lw	s0,140(sp)
80004398:	44630ba3          	sb	t1,1111(t1) # 10457 <buflen.2941+0x10417>
8000439c:	ef61                	bnez	a4,80004474 <verify_data+0x11d8>
8000439e:	4469                	li	s0,26
800043a0:	4477c207          	flq	ft4,1095(a5) # 1f8b7447 <buflen.2941+0x1f8b7407>
800043a4:	1402                	slli	s0,s0,0x20
800043a6:	447e                	lw	s0,220(sp)
800043a8:	82a8                	0x82a8
800043aa:	3cf24497          	auipc	s1,0x3cf24
800043ae:	79ab44af          	0x79ab44af
800043b2:	44b0                	lw	a2,72(s1)
800043b4:	7ed5                	lui	t4,0xffff5
800043b6:	44d5                	li	s1,21
800043b8:	e886                	fsw	ft1,80(sp)
800043ba:	44de                	lw	s1,212(sp)
800043bc:	44e034f3          	csrrc	s1,0x44e,zero
800043c0:	be30                	fsd	fa2,120(a2)
800043c2:	980f44f3          	0x980f44f3
800043c6:	4500                	lw	s0,8(a0)
800043c8:	3ef5                	jal	80003fc4 <verify_data+0xd28>
800043ca:	451f 4e25 4520      	0x45204e25451f
800043d0:	a5a0                	fsd	fs0,72(a1)
800043d2:	4522                	lw	a0,8(sp)
800043d4:	bf66                	fsd	fs9,440(sp)
800043d6:	4524                	lw	s1,72(a0)
800043d8:	452708a7          	0x452708a7
800043dc:	45288ea3          	sb	s2,1117(a7)
800043e0:	452947fb          	0x452947fb
800043e4:	6738                	flw	fa4,72(a4)
800043e6:	452c                	lw	a1,72(a0)
800043e8:	4f90                	lw	a2,24(a5)
800043ea:	453c                	lw	a5,72(a0)
800043ec:	14c2                	slli	s1,s1,0x30
800043ee:	454d                	li	a0,19
800043f0:	4f41                	li	t5,16
800043f2:	39da4577          	0x39da4577
800043f6:	2dac4583          	lbu	a1,730(s8)
800043fa:	4592                	lw	a1,4(sp)
800043fc:	45a55e33          	0x45a55e33
80004400:	8575                	srai	a0,a0,0x1d
80004402:	45b2                	lw	a1,12(sp)
80004404:	91ea                	add	gp,gp,s10
80004406:	45c4                	lw	s1,12(a1)
80004408:	601e                	flw	ft0,196(sp)
8000440a:	45c8                	lw	a0,12(a1)
8000440c:	d378                	sw	a4,100(a4)
8000440e:	45cc                	lw	a1,12(a1)
80004410:	45da2b4b          	0x45da2b4b
80004414:	45dfbae3          	0x45dfbae3
80004418:	60d8                	flw	fa4,4(s1)
8000441a:	22c245f7          	0x22c245f7
8000441e:	45f8                	lw	a4,76(a1)
80004420:	c688                	sw	a0,8(a3)
80004422:	4602                	lw	a2,0(sp)
80004424:	2449                	jal	800046a6 <verify_data+0x140a>
80004426:	4609                	li	a2,2
80004428:	952d                	srai	a0,a0,0x2b
8000442a:	4616                	lw	a2,68(sp)
8000442c:	2b82                	fld	fs7,0(sp)
8000442e:	4638                	lw	a4,72(a2)
80004430:	d58c                	sw	a1,40(a1)
80004432:	463a                	lw	a2,140(sp)
80004434:	20ae                	fld	ft1,200(sp)
80004436:	464e                	lw	a2,208(sp)
80004438:	5558                	lw	a4,44(a0)
8000443a:	4656                	lw	a2,84(sp)
8000443c:	465d649b          	0x465d649b
80004440:	8db4                	0x8db4
80004442:	3a7a4667          	0x3a7a4667
80004446:	468a                	lw	a3,128(sp)
80004448:	fa54                	fsw	fa3,52(a2)
8000444a:	469a                	lw	a3,132(sp)
8000444c:	42ff                	0x42ff
8000444e:	46ae                	lw	a3,200(sp)
80004450:	46d09d13          	0x46d09d13
80004454:	46dadd13          	0x46dadd13
80004458:	db78                	sw	a4,116(a4)
8000445a:	46e0                	lw	s0,76(a3)
8000445c:	a1b8                	fsd	fa4,64(a1)
8000445e:	8a9e46e3          	blt	t3,s1,80003d0a <verify_data+0xa6e>
80004462:	6c8346fb          	0x6c8346fb
80004466:	46fe                	lw	a3,220(sp)
80004468:	0e38                	addi	a4,sp,792
8000446a:	4705                	li	a4,1
8000446c:	dae5                	beqz	a3,8000445c <verify_data+0x11c0>
8000446e:	470e                	lw	a4,192(sp)
80004470:	9f7d                	0x9f7d
80004472:	d0aa472b          	0xd0aa472b
80004476:	4735                	li	a4,13
80004478:	47c5                	li	a5,17
8000447a:	ead3476b          	0xead3476b
8000447e:	1b49476b          	0x1b49476b
80004482:	4775                	li	a4,29
80004484:	229c                	fld	fa5,0(a3)
80004486:	477c                	lw	a5,76(a4)
80004488:	4797b60f          	0x4797b60f
8000448c:	479820a3          	sw	s9,1121(a6)
80004490:	ddb4                	sw	a3,120(a1)
80004492:	479f 3740 47a5      	0x47a53740479f
80004498:	8ad5                	andi	a3,a3,21
8000449a:	155447a7          	fsq	fs5,335(s0)
8000449e:	47ba                	lw	a5,140(sp)
800044a0:	0524                	addi	s1,sp,648
800044a2:	47c2                	lw	a5,16(sp)
800044a4:	b8f5                	j	80003da0 <verify_data+0xb04>
800044a6:	47d2                	lw	a5,20(sp)
800044a8:	d05f 47da 8286      	0x828647dad05f
800044ae:	47e0                	lw	s0,76(a5)
800044b0:	b732                	fsd	fa2,424(sp)
800044b2:	47e6                	lw	a5,88(sp)
800044b4:	481bd9f3          	csrrwi	s3,0x481,23
800044b8:	0125                	addi	sp,sp,9
800044ba:	481f 3db3 4847      	0x48473db3481f
800044c0:	8551                	srai	a0,a0,0x14
800044c2:	484c                	lw	a1,20(s0)
800044c4:	f4ee                	fsw	fs11,104(sp)
800044c6:	4861                	li	a6,24
800044c8:	adb0                	fsd	fa2,88(a1)
800044ca:	486a                	lw	a6,152(sp)
800044cc:	6559                	lui	a0,0x16
800044ce:	486c                	lw	a1,84(s0)
800044d0:	0341                	addi	t1,t1,16
800044d2:	486d                	li	a6,27
800044d4:	4881f2b7          	lui	t0,0x4881f
800044d8:	36f5                	jal	800040c4 <verify_data+0xe28>
800044da:	4896                	lw	a7,68(sp)
800044dc:	2d61                	jal	80004b74 <verify_data+0x18d8>
800044de:	48a1                	li	a7,8
800044e0:	48bfb5ef          	jal	a1,8010016a <__global_pointer$+0xf86ce>
800044e4:	b06d                	j	80003d8e <verify_data+0xaf2>
800044e6:	48c5                	li	a7,17
800044e8:	a2c4                	fsd	fs1,128(a3)
800044ea:	48c8                	lw	a0,20(s1)
800044ec:	48d2104f          	fnmadd.s	ft0,ft4,fa3,fs1,rtz
800044f0:	48deb2b3          	0x48deb2b3
800044f4:	c11e                	sw	t2,128(sp)
800044f6:	48ec                	lw	a1,84(s1)
800044f8:	48ee3bd3          	0x48ee3bd3
800044fc:	662c                	flw	fa1,72(a2)
800044fe:	48ee                	lw	a7,216(sp)
80004500:	493e456f          	jal	a0,800e9192 <__global_pointer$+0xe16f6>
80004504:	2b3c                	fld	fa5,80(a4)
80004506:	44f24957          	0x44f24957
8000450a:	4961                	li	s2,24
8000450c:	d92d                	beqz	a0,8000447e <verify_data+0x11e2>
8000450e:	4961                	li	s2,24
80004510:	49635f53          	0x49635f53
80004514:	523d                	li	tp,-17
80004516:	4969                	li	s2,26
80004518:	ccf5                	beqz	s1,80004614 <verify_data+0x1378>
8000451a:	496d                	li	s2,27
8000451c:	49777d6b          	0x49777d6b
80004520:	f754                	fsw	fa3,44(a4)
80004522:	497d                	li	s2,31
80004524:	6fb9                	lui	t6,0xe
80004526:	497e                	lw	s2,220(sp)
80004528:	c139                	beqz	a0,8000456e <verify_data+0x12d2>
8000452a:	c342498f          	0xc342498f
8000452e:	cba1499b          	0xcba1499b
80004532:	49b049e3          	bgtz	s11,800051c4 <verify_data+0x1f28>
80004536:	49ed                	li	s3,27
80004538:	4a41b0ab          	0x4a41b0ab
8000453c:	4a5ba023          	sw	t0,1184(s7) # b47e7434 <__global_pointer$+0x347df998>
80004540:	8c9f 4a73 0635      	0x6354a738c9f
80004546:	4a75                	li	s4,29
80004548:	fd96                	fsw	ft5,248(sp)
8000454a:	4a86                	lw	s5,64(sp)
8000454c:	ca59                	beqz	a2,800045e2 <verify_data+0x1346>
8000454e:	4ad5                	li	s5,21
80004550:	4699                	li	a3,6
80004552:	4add                	li	s5,23
80004554:	5c10                	lw	a2,56(s0)
80004556:	4adf bad6 4ae2      	0x4ae2bad64adf
8000455c:	0a4e                	slli	s4,s4,0x13
8000455e:	4af4                	lw	a3,84(a3)
80004560:	4b27318b          	0x4b27318b
80004564:	af6d                	j	80004d1e <verify_data+0x1a82>
80004566:	4b3e                	lw	s6,204(sp)
80004568:	4b8786af          	0x4b8786af
8000456c:	3372                	fld	ft6,312(sp)
8000456e:	4bae                	lw	s7,200(sp)
80004570:	91ec                	0x91ec
80004572:	d9bb4bc7          	fmsub.s	fs7,fs6,fs11,fs11,rmm
80004576:	058c4be3          	blt	s8,s8,80004dcc <verify_data+0x1b30>
8000457a:	9b834bef          	jal	s7,7ff38732 <buflen.2941+0x7ff386f2>
8000457e:	4bf2                	lw	s7,28(sp)
80004580:	5c1f 4bf6 040c      	0x40c4bf65c1f
80004586:	4c04                	lw	s1,24(s0)
80004588:	97d2                	add	a5,a5,s4
8000458a:	4c06                	lw	s8,64(sp)
8000458c:	58c2                	lw	a7,48(sp)
8000458e:	4c11                	li	s8,4
80004590:	8cce                	mv	s9,s3
80004592:	4c2d                	li	s8,11
80004594:	4c38983f 4c38dab4 	0x4c38dab44c38983f
8000459c:	4c3ceec7          	0x4c3ceec7
800045a0:	f69e                	fsw	ft7,108(sp)
800045a2:	4c4a                	lw	s8,144(sp)
800045a4:	465f 4c61 7db2      	0x7db24c61465f
800045aa:	e8004c9b          	0xe8004c9b
800045ae:	4cb5                	li	s9,13
800045b0:	acda                	fsd	fs6,88(sp)
800045b2:	4cb8                	lw	a4,88(s1)
800045b4:	4cc2bb0b          	0x4cc2bb0b
800045b8:	c236                	sw	a3,4(sp)
800045ba:	47684ccf          	fnmadd.q	fs9,fa6,fs6,fs0,rmm
800045be:	4cd9                	li	s9,22
800045c0:	4ced7143          	0x4ced7143
800045c4:	a049                	j	80004646 <verify_data+0x13aa>
800045c6:	4cf2                	lw	s9,28(sp)
800045c8:	7b64                	flw	fs1,116(a4)
800045ca:	2ba04cf3          	0x2ba04cf3
800045ce:	4cf4                	lw	a3,92(s1)
800045d0:	cad2                	sw	s4,84(sp)
800045d2:	4cf9                	li	s9,30
800045d4:	1e4c                	addi	a1,sp,820
800045d6:	aadb4d03          	lbu	s10,-1363(s6) # fc5c2aad <__global_pointer$+0x7c5bb011>
800045da:	4d08                	lw	a0,24(a0)
800045dc:	4d130333          	0x4d130333
800045e0:	345f 4d2e 799b      	0x799b4d2e345f
800045e6:	4d4c                	lw	a1,28(a0)
800045e8:	f848                	fsw	fa0,52(s0)
800045ea:	4d60                	lw	s0,92(a0)
800045ec:	5bb8                	lw	a4,112(a5)
800045ee:	1a904d77          	0x1a904d77
800045f2:	4d9f fe51 4da5      	0x4da5fe514d9f
800045f8:	6f29                	lui	t5,0xa
800045fa:	4db5                	li	s11,13
800045fc:	cec0                	sw	s0,28(a3)
800045fe:	4dc9                	li	s11,18
80004600:	4e03cf67          	0x4e03cf67
80004604:	b8a4                	fsd	fs1,112(s1)
80004606:	82044e17          	auipc	t3,0x82044
8000460a:	4e34                	lw	a3,88(a2)
8000460c:	b850                	fsd	fa2,176(s0)
8000460e:	4e3a                	lw	t3,140(sp)
80004610:	4e448da7          	0x4e448da7
80004614:	4e4c9107          	0x4e4c9107
80004618:	1808                	addi	a0,sp,48
8000461a:	4e50                	lw	a2,28(a2)
8000461c:	6961                	lui	s2,0x18
8000461e:	4e72                	lw	t3,28(sp)
80004620:	0276                	slli	tp,tp,0x1d
80004622:	4e81                	li	t4,0
80004624:	e729                	bnez	a4,8000466e <verify_data+0x13d2>
80004626:	4e82                	lw	t4,0(sp)
80004628:	94d2                	add	s1,s1,s4
8000462a:	d2144e8f          	0xd2144e8f
8000462e:	4e9c                	lw	a5,24(a3)
80004630:	4eaa874f          	fnmadd.q	fa4,fs5,fa0,fs1,rne
80004634:	8f85                	sub	a5,a5,s1
80004636:	4eca                	lw	t4,144(sp)
80004638:	687e                	flw	fa6,220(sp)
8000463a:	4ed0                	lw	a2,28(a3)
8000463c:	4ed6bee3          	0x4ed6bee3
80004640:	9124                	0x9124
80004642:	85ea4ee7          	0x85ea4ee7
80004646:	4eec                	lw	a1,92(a3)
80004648:	aeb6                	fsd	fa3,344(sp)
8000464a:	4ef5                	li	t4,29
8000464c:	4efa053b          	0x4efa053b
80004650:	2d0a                	fld	fs10,128(sp)
80004652:	6b084efb          	0x6b084efb
80004656:	4f09                	li	t5,2
80004658:	d49f 4f2b 2e2c      	0x2e2c4f2bd49f
8000465e:	4f35                	li	t5,13
80004660:	4c14                	lw	a3,24(s0)
80004662:	82e34f5b          	0x82e34f5b
80004666:	4f5e                	lw	t5,212(sp)
80004668:	7e0c                	flw	fa1,56(a2)
8000466a:	4f6a                	lw	t5,152(sp)
8000466c:	d6f6                	sw	t4,108(sp)
8000466e:	2e644f6b          	0x2e644f6b
80004672:	4f6e                	lw	t5,216(sp)
80004674:	4f730137          	lui	sp,0x4f730
80004678:	0661                	addi	a2,a2,24
8000467a:	4f80                	lw	s0,24(a5)
8000467c:	4e44                	lw	s1,28(a2)
8000467e:	4f90                	lw	a2,24(a5)
80004680:	177e                	slli	a4,a4,0x3f
80004682:	4f96                	lw	t6,68(sp)
80004684:	08d9                	addi	a7,a7,22
80004686:	6eff4f97          	auipc	t6,0x6eff4
8000468a:	4f9c                	lw	a5,24(a5)
8000468c:	9f10                	0x9f10
8000468e:	4f9f 6481 4fa3      	0x4fa364814f9f
80004694:	94c6                	add	s1,s1,a7
80004696:	4fa9                	li	t6,10
80004698:	3271                	jal	80004024 <verify_data+0xd88>
8000469a:	a3944fb7          	lui	t6,0xa3944
8000469e:	4fc1                	li	t6,16
800046a0:	fda0                	fsw	fs0,120(a1)
800046a2:	44314fd3          	0x44314fd3
800046a6:	4fed                	li	t6,27
800046a8:	b9ad                	j	80004322 <verify_data+0x1086>
800046aa:	501d                	c.li	zero,-25
800046ac:	495f 502b d8ac      	0xd8ac502b495f
800046b2:	5030                	lw	a2,96(s0)
800046b4:	503866b3          	0x503866b3
800046b8:	259f 503a ed35      	0xed35503a259f
800046be:	504d                	c.li	zero,-13
800046c0:	5c0d                	li	s8,-29
800046c2:	505e                	0x505e
800046c4:	8da5                	xor	a1,a1,s1
800046c6:	505e                	0x505e
800046c8:	5615                	li	a2,-27
800046ca:	5081                	li	ra,-32
800046cc:	9ad6                	add	s5,s5,s5
800046ce:	50a2                	lw	ra,40(sp)
800046d0:	5896                	lw	a7,100(sp)
800046d2:	636650a7          	0x636650a7
800046d6:	50b4                	lw	a3,96(s1)
800046d8:	fc05                	bnez	s0,80004610 <verify_data+0x1374>
800046da:	50c4                	lw	s1,36(s1)
800046dc:	a0ae                	fsd	fa1,64(sp)
800046de:	50c9                	li	ra,-14
800046e0:	50dfdaef          	jal	s5,801023ec <__global_pointer$+0xfa950>
800046e4:	67d5                	lui	a5,0x15
800046e6:	511f 6762 5120      	0x51206762511f
800046ec:	b562                	fsd	fs8,168(sp)
800046ee:	5162                	lw	sp,56(sp)
800046f0:	eb98                	fsw	fa4,16(a5)
800046f2:	5185                	li	gp,-31
800046f4:	518d9d7b          	0x518d9d7b
800046f8:	9932                	add	s2,s2,a2
800046fa:	51b0                	lw	a2,96(a1)
800046fc:	a63a                	fsd	fa4,264(sp)
800046fe:	51c9                	li	gp,-14
80004700:	3fa1                	jal	80004658 <verify_data+0x13bc>
80004702:	51e5                	li	gp,-7
80004704:	7c82                	flw	fs9,32(sp)
80004706:	049e51e7          	0x49e51e7
8000470a:	51fc                	lw	a5,100(a1)
8000470c:	8b7a                	mv	s6,t5
8000470e:	5222                	lw	tp,40(sp)
80004710:	5235d287          	0x5235d287
80004714:	e641                	bnez	a2,8000479c <verify_data+0x1500>
80004716:	5238                	lw	a4,96(a2)
80004718:	10ed                	addi	ra,ra,-5
8000471a:	5241                	li	tp,-16
8000471c:	34f5                	jal	80004208 <verify_data+0xf6c>
8000471e:	5266                	lw	tp,120(sp)
80004720:	52670823          	sb	t1,1328(a4)
80004724:	52680fd7          	0x52680fd7
80004728:	4906                	lw	s2,64(sp)
8000472a:	526d                	li	tp,-5
8000472c:	9a3e                	add	s4,s4,a5
8000472e:	adf35273          	csrrwi	tp,0xadf,6
80004732:	5278                	lw	a4,100(a2)
80004734:	5282f6af          	0x5282f6af
80004738:	b9a9                	j	80004392 <verify_data+0x10f6>
8000473a:	9ede5297          	auipc	t0,0x9ede5
8000473e:	52a0                	lw	s0,96(a3)
80004740:	47ea                	lw	a5,152(sp)
80004742:	52a2                	lw	t0,40(sp)
80004744:	8c68                	0x8c68
80004746:	52ac                	lw	a1,96(a3)
80004748:	2390                	fld	fa2,0(a5)
8000474a:	52b9                	li	t0,-18
8000474c:	cb54                	sw	a3,20(a4)
8000474e:	52c6                	lw	t0,112(sp)
80004750:	52d6793b          	0x52d6793b
80004754:	52d9061b          	0x52d9061b
80004758:	52da5463          	bge	s4,a3,80004c80 <verify_data+0x19e4>
8000475c:	e6d4                	fsw	fa3,12(a3)
8000475e:	52dd                	li	t0,-9
80004760:	6649                	lui	a2,0x12
80004762:	52de                	lw	t0,244(sp)
80004764:	02a1                	addi	t0,t0,8
80004766:	52e1                	li	t0,-8
80004768:	bc78                	fsd	fa4,248(s0)
8000476a:	70bb52e3          	bge	s6,a1,8000566e <input_data+0x3d2>
8000476e:	52ea                	lw	t0,184(sp)
80004770:	9892                	add	a7,a7,tp
80004772:	52f5                	li	t0,-3
80004774:	b766                	fsd	fs9,424(sp)
80004776:	52fa                	lw	t0,188(sp)
80004778:	5324eef7          	0x5324eef7
8000477c:	5328610f          	0x5328610f
80004780:	6e6c                	flw	fa1,92(a2)
80004782:	532a                	lw	t1,168(sp)
80004784:	5f7c                	lw	a5,124(a4)
80004786:	50f6533f 167d536d 	0x167d536d50f6533f
8000478e:	5370                	lw	a2,100(a4)
80004790:	537361cf          	fnmadd.d	ft3,ft6,fs7,fa0,unknown
80004794:	53807c37          	lui	s8,0x53807
80004798:	538275d3          	0x538275d3
8000479c:	8780                	0x8780
8000479e:	5390                	lw	a2,32(a5)
800047a0:	099e                	slli	s3,s3,0x7
800047a2:	539c                	lw	a5,32(a5)
800047a4:	53a33aef          	jal	s5,80037cde <__global_pointer$+0x30242>
800047a8:	da66                	sw	s9,52(sp)
800047aa:	70b553ab          	0x70b553ab
800047ae:	53ba                	lw	t2,172(sp)
800047b0:	53c8cb9b          	0x53c8cb9b
800047b4:	53ca3e2f          	0x53ca3e2f
800047b8:	8d40                	0x8d40
800047ba:	53de                	lw	t2,244(sp)
800047bc:	53f8a88b          	0x53f8a88b
800047c0:	a9d0                	fsd	fa2,144(a1)
800047c2:	a88853fb          	0xa88853fb
800047c6:	5431                	li	s0,-20
800047c8:	ce4c                	sw	a1,28(a2)
800047ca:	5445                	li	s0,-15
800047cc:	148d                	addi	s1,s1,-29
800047ce:	544a                	lw	s0,176(sp)
800047d0:	6075                	c.lui	zero,0x1d
800047d2:	544a                	lw	s0,176(sp)
800047d4:	2416                	fld	fs0,320(sp)
800047d6:	545d                	li	s0,-9
800047d8:	0c00                	addi	s0,sp,528
800047da:	547c                	lw	a5,108(s0)
800047dc:	e13c                	fsw	fa5,64(a0)
800047de:	547e                	lw	s0,252(sp)
800047e0:	d742                	sw	a6,172(sp)
800047e2:	af9c54af          	0xaf9c54af
800047e6:	54ec                	lw	a1,108(s1)
800047e8:	a2b4                	fsd	fa3,64(a3)
800047ea:	54ed                	li	s1,-5
800047ec:	6adf 5506 fc8e      	0xfc8e55066adf
800047f2:	5515                	li	a0,-27
800047f4:	f601                	bnez	a2,800046fc <verify_data+0x1460>
800047f6:	5520                	lw	s0,104(a0)
800047f8:	9b08                	0x9b08
800047fa:	5548                	lw	a0,44(a0)
800047fc:	5552d8af          	0x5552d8af
80004800:	5557c007          	flq	ft0,1365(a5) # 15555 <buflen.2941+0x15515>
80004804:	5579cfa7          	fsq	fs7,1375(s3) # 43e4055f <buflen.2941+0x43e4051f>
80004808:	5582c697          	auipc	a3,0x5582c
8000480c:	7b2e                	flw	fs6,232(sp)
8000480e:	5595                	li	a1,-27
80004810:	1f9c                	addi	a5,sp,1008
80004812:	55a9                	li	a1,-22
80004814:	e12a                	fsw	fa0,128(sp)
80004816:	55d6                	lw	a1,116(sp)
80004818:	4c62                	lw	s8,24(sp)
8000481a:	55f0                	lw	a2,108(a1)
8000481c:	56126e87          	0x56126e87
80004820:	ddb0                	sw	a2,120(a1)
80004822:	5612                	lw	a2,36(sp)
80004824:	657f                	0x657f
80004826:	5624                	lw	s1,104(a2)
80004828:	35e2                	fld	fa1,56(sp)
8000482a:	5625                	li	a2,-23
8000482c:	54c2                	lw	s1,48(sp)
8000482e:	5626                	lw	a2,104(sp)
80004830:	5646a03f 564cd780 	0x564cd7805646a03f
80004838:	dc38                	sw	a4,120(s0)
8000483a:	567a                	lw	a2,188(sp)
8000483c:	5680bd3f 56834290 	0x568342905680bd3f
80004844:	17e6                	slli	a5,a5,0x39
80004846:	56a1                	li	a3,-24
80004848:	56be5ff3          	csrrwi	t6,0x56b,28
8000484c:	16b2                	slli	a3,a3,0x2c
8000484e:	56c5                	li	a3,-15
80004850:	263e                	fld	fa2,456(sp)
80004852:	56df 1c4d 56f8      	0x56f81c4d56df
80004858:	b0b9                	j	800040a6 <verify_data+0xe0a>
8000485a:	56f8                	lw	a4,108(a3)
8000485c:	3468                	fld	fa0,232(s0)
8000485e:	56fe                	lw	a3,252(sp)
80004860:	0bc1                	addi	s7,s7,16
80004862:	5700                	lw	s0,40(a4)
80004864:	4838                	lw	a4,80(s0)
80004866:	02115727          	0x2115727
8000486a:	572c                	lw	a1,104(a4)
8000486c:	3a00                	fld	fs0,48(a2)
8000486e:	5730                	lw	a2,104(a4)
80004870:	6a81                	0x6a81
80004872:	5732                	lw	a4,44(sp)
80004874:	5737b9e3          	0x5737b9e3
80004878:	08ff                	0x8ff
8000487a:	c149576b          	0xc149576b
8000487e:	6483576b          	0x6483576b
80004882:	5776                	lw	a4,124(sp)
80004884:	5511                	li	a0,-28
80004886:	c65d5787          	0xc65d5787
8000488a:	57a2                	lw	a5,40(sp)
8000488c:	b06e                	fsd	fs11,32(sp)
8000488e:	b82b57af          	0xb82b57af
80004892:	57b4                	lw	a3,104(a5)
80004894:	ceb2                	sw	a2,92(sp)
80004896:	57b6                	lw	a5,108(sp)
80004898:	973c                	0x973c
8000489a:	57c5                	li	a5,-15
8000489c:	57cebc73          	csrrc	s8,0x57c,t4
800048a0:	6a2e                	flw	fs4,200(sp)
800048a2:	73e657d7          	0x73e657d7
800048a6:	57f4                	lw	a3,108(a5)
800048a8:	2e9a                	fld	ft9,384(sp)
800048aa:	f556583b          	0xf556583b
800048ae:	b0c8583b          	0xb0c8583b
800048b2:	583d                	li	a6,-17
800048b4:	86a0                	0x86a0
800048b6:	5864                	lw	s1,116(s0)
800048b8:	9850                	0x9850
800048ba:	588e                	lw	a7,224(sp)
800048bc:	a0ea                	fsd	fs10,64(sp)
800048be:	4ae3589b          	0x4ae3589b
800048c2:	01ab58ab          	0x1ab58ab
800048c6:	236f58cb          	fnmsub.d	fa7,ft10,fs6,ft4,unknown
800048ca:	58e6                	lw	a7,120(sp)
800048cc:	3434                	fld	fa3,104(s0)
800048ce:	917d58ef          	jal	a7,7ffda1e4 <buflen.2941+0x7ffda1a4>
