
rsort.riscv:     file format elf32-littleriscv


Disassembly of section .text.init:

80000000 <_start>:
80000000:	00000093          	li	ra,0
80000004:	00000113          	li	sp,0
80000008:	00000193          	li	gp,0
8000000c:	00000213          	li	tp,0
80000010:	00000293          	li	t0,0
80000014:	00000313          	li	t1,0
80000018:	00000393          	li	t2,0
8000001c:	00000413          	li	s0,0
80000020:	00000493          	li	s1,0
80000024:	00000513          	li	a0,0
80000028:	00000593          	li	a1,0
8000002c:	00000613          	li	a2,0
80000030:	00000693          	li	a3,0
80000034:	00000713          	li	a4,0
80000038:	00000793          	li	a5,0
8000003c:	00000813          	li	a6,0
80000040:	00000893          	li	a7,0
80000044:	00000913          	li	s2,0
80000048:	00000993          	li	s3,0
8000004c:	00000a13          	li	s4,0
80000050:	00000a93          	li	s5,0
80000054:	00000b13          	li	s6,0
80000058:	00000b93          	li	s7,0
8000005c:	00000c13          	li	s8,0
80000060:	00000c93          	li	s9,0
80000064:	00000d13          	li	s10,0
80000068:	00000d93          	li	s11,0
8000006c:	00000e13          	li	t3,0
80000070:	00000e93          	li	t4,0
80000074:	00000f13          	li	t5,0
80000078:	00000f93          	li	t6,0
8000007c:	0001e2b7          	lui	t0,0x1e
80000080:	3002a073          	csrs	mstatus,t0
80000084:	00100293          	li	t0,1
80000088:	01f29293          	slli	t0,t0,0x1f
8000008c:	0002ca63          	bltz	t0,800000a0 <_start+0xa0>
80000090:	00100513          	li	a0,1
80000094:	00001297          	auipc	t0,0x1
80000098:	f6a2a623          	sw	a0,-148(t0) # 80001000 <tohost>
8000009c:	ff5ff06f          	j	80000090 <_start+0x90>
800000a0:	00000297          	auipc	t0,0x0
800000a4:	04428293          	addi	t0,t0,68 # 800000e4 <trap_entry>
800000a8:	30529073          	csrw	mtvec,t0
800000ac:	00008197          	auipc	gp,0x8
800000b0:	b9418193          	addi	gp,gp,-1132 # 80007c40 <__global_pointer$>
800000b4:	00009217          	auipc	tp,0x9
800000b8:	40b20213          	addi	tp,tp,1035 # 800094bf <_end+0x3f>
800000bc:	fc027213          	andi	tp,tp,-64
800000c0:	f1402573          	csrr	a0,mhartid
800000c4:	00100593          	li	a1,1
800000c8:	00b57063          	bgeu	a0,a1,800000c8 <_start+0xc8>
800000cc:	01151613          	slli	a2,a0,0x11
800000d0:	00c20233          	add	tp,tp,a2
800000d4:	00150113          	addi	sp,a0,1
800000d8:	01111113          	slli	sp,sp,0x11
800000dc:	00410133          	add	sp,sp,tp
800000e0:	3c10106f          	j	80001ca0 <_init>

800000e4 <trap_entry>:
800000e4:	ef010113          	addi	sp,sp,-272
800000e8:	00112223          	sw	ra,4(sp)
800000ec:	00212423          	sw	sp,8(sp)
800000f0:	00312623          	sw	gp,12(sp)
800000f4:	00412823          	sw	tp,16(sp)
800000f8:	00512a23          	sw	t0,20(sp)
800000fc:	00612c23          	sw	t1,24(sp)
80000100:	00712e23          	sw	t2,28(sp)
80000104:	02812023          	sw	s0,32(sp)
80000108:	02912223          	sw	s1,36(sp)
8000010c:	02a12423          	sw	a0,40(sp)
80000110:	02b12623          	sw	a1,44(sp)
80000114:	02c12823          	sw	a2,48(sp)
80000118:	02d12a23          	sw	a3,52(sp)
8000011c:	02e12c23          	sw	a4,56(sp)
80000120:	02f12e23          	sw	a5,60(sp)
80000124:	05012023          	sw	a6,64(sp)
80000128:	05112223          	sw	a7,68(sp)
8000012c:	05212423          	sw	s2,72(sp)
80000130:	05312623          	sw	s3,76(sp)
80000134:	05412823          	sw	s4,80(sp)
80000138:	05512a23          	sw	s5,84(sp)
8000013c:	05612c23          	sw	s6,88(sp)
80000140:	05712e23          	sw	s7,92(sp)
80000144:	07812023          	sw	s8,96(sp)
80000148:	07912223          	sw	s9,100(sp)
8000014c:	07a12423          	sw	s10,104(sp)
80000150:	07b12623          	sw	s11,108(sp)
80000154:	07c12823          	sw	t3,112(sp)
80000158:	07d12a23          	sw	t4,116(sp)
8000015c:	07e12c23          	sw	t5,120(sp)
80000160:	07f12e23          	sw	t6,124(sp)
80000164:	34202573          	csrr	a0,mcause
80000168:	341025f3          	csrr	a1,mepc
8000016c:	00010613          	mv	a2,sp
80000170:	0c1010ef          	jal	ra,80001a30 <handle_trap>
80000174:	34151073          	csrw	mepc,a0
80000178:	000022b7          	lui	t0,0x2
8000017c:	80028293          	addi	t0,t0,-2048 # 1800 <buflen.2941+0x17c0>
80000180:	3002a073          	csrs	mstatus,t0
80000184:	00412083          	lw	ra,4(sp)
80000188:	00812103          	lw	sp,8(sp)
8000018c:	00c12183          	lw	gp,12(sp)
80000190:	01012203          	lw	tp,16(sp)
80000194:	01412283          	lw	t0,20(sp)
80000198:	01812303          	lw	t1,24(sp)
8000019c:	01c12383          	lw	t2,28(sp)
800001a0:	02012403          	lw	s0,32(sp)
800001a4:	02412483          	lw	s1,36(sp)
800001a8:	02812503          	lw	a0,40(sp)
800001ac:	02c12583          	lw	a1,44(sp)
800001b0:	03012603          	lw	a2,48(sp)
800001b4:	03412683          	lw	a3,52(sp)
800001b8:	03812703          	lw	a4,56(sp)
800001bc:	03c12783          	lw	a5,60(sp)
800001c0:	04012803          	lw	a6,64(sp)
800001c4:	04412883          	lw	a7,68(sp)
800001c8:	04812903          	lw	s2,72(sp)
800001cc:	04c12983          	lw	s3,76(sp)
800001d0:	05012a03          	lw	s4,80(sp)
800001d4:	05412a83          	lw	s5,84(sp)
800001d8:	05812b03          	lw	s6,88(sp)
800001dc:	05c12b83          	lw	s7,92(sp)
800001e0:	06012c03          	lw	s8,96(sp)
800001e4:	06412c83          	lw	s9,100(sp)
800001e8:	06812d03          	lw	s10,104(sp)
800001ec:	06c12d83          	lw	s11,108(sp)
800001f0:	07012e03          	lw	t3,112(sp)
800001f4:	07412e83          	lw	t4,116(sp)
800001f8:	07812f03          	lw	t5,120(sp)
800001fc:	07c12f83          	lw	t6,124(sp)
80000200:	11010113          	addi	sp,sp,272
80000204:	30200073          	mret

Disassembly of section .text:

80001048 <verify.constprop.0>:
80001048:	00050793          	mv	a5,a0
8000104c:	00004717          	auipc	a4,0x4
80001050:	3f470713          	addi	a4,a4,1012 # 80005440 <input_data>
80001054:	00000513          	li	a0,0
80001058:	00072603          	lw	a2,0(a4)
8000105c:	0007a683          	lw	a3,0(a5)
80001060:	00472803          	lw	a6,4(a4)
80001064:	0047a583          	lw	a1,4(a5)
80001068:	02d61263          	bne	a2,a3,8000108c <verify.constprop.0+0x44>
8000106c:	00250513          	addi	a0,a0,2
80001070:	80050693          	addi	a3,a0,-2048
80001074:	00b81a63          	bne	a6,a1,80001088 <verify.constprop.0+0x40>
80001078:	00870713          	addi	a4,a4,8
8000107c:	00878793          	addi	a5,a5,8
80001080:	fc069ce3          	bnez	a3,80001058 <verify.constprop.0+0x10>
80001084:	00000513          	li	a0,0
80001088:	00008067          	ret
8000108c:	00150513          	addi	a0,a0,1
80001090:	00008067          	ret

80001094 <sort>:
80001094:	00251313          	slli	t1,a0,0x2
80001098:	ff330713          	addi	a4,t1,-13
8000109c:	ff030793          	addi	a5,t1,-16
800010a0:	bd010113          	addi	sp,sp,-1072
800010a4:	ff077e93          	andi	t4,a4,-16
800010a8:	fff7c793          	not	a5,a5
800010ac:	00060513          	mv	a0,a2
800010b0:	ff430393          	addi	t2,t1,-12
800010b4:	00030613          	mv	a2,t1
800010b8:	00010813          	mv	a6,sp
800010bc:	42812623          	sw	s0,1068(sp)
800010c0:	42912423          	sw	s1,1064(sp)
800010c4:	43212223          	sw	s2,1060(sp)
800010c8:	43312023          	sw	s3,1056(sp)
800010cc:	41412e23          	sw	s4,1052(sp)
800010d0:	41512c23          	sw	s5,1048(sp)
800010d4:	41612a23          	sw	s6,1044(sp)
800010d8:	41712823          	sw	s7,1040(sp)
800010dc:	41812623          	sw	s8,1036(sp)
800010e0:	41912423          	sw	s9,1032(sp)
800010e4:	41a12223          	sw	s10,1028(sp)
800010e8:	00058293          	mv	t0,a1
800010ec:	ffc30313          	addi	t1,t1,-4
800010f0:	00880f93          	addi	t6,a6,8
800010f4:	40080713          	addi	a4,a6,1024
800010f8:	00000893          	li	a7,0
800010fc:	010e8e93          	addi	t4,t4,16
80001100:	ff07fe13          	andi	t3,a5,-16
80001104:	02000f13          	li	t5,32
80001108:	00080793          	mv	a5,a6
8000110c:	0007a023          	sw	zero,0(a5)
80001110:	00478793          	addi	a5,a5,4
80001114:	fee79ce3          	bne	a5,a4,8000110c <sort+0x78>
80001118:	00758933          	add	s2,a1,t2
8000111c:	2925f263          	bgeu	a1,s2,800013a0 <sort+0x30c>
80001120:	00058493          	mv	s1,a1
80001124:	0004a983          	lw	s3,0(s1)
80001128:	0044a403          	lw	s0,4(s1)
8000112c:	0084a683          	lw	a3,8(s1)
80001130:	0119d9b3          	srl	s3,s3,a7
80001134:	0ff9f993          	andi	s3,s3,255
80001138:	00299993          	slli	s3,s3,0x2
8000113c:	013809b3          	add	s3,a6,s3
80001140:	0009aa03          	lw	s4,0(s3)
80001144:	01145433          	srl	s0,s0,a7
80001148:	0ff47413          	andi	s0,s0,255
8000114c:	001a0a13          	addi	s4,s4,1
80001150:	00241413          	slli	s0,s0,0x2
80001154:	00c4a783          	lw	a5,12(s1)
80001158:	00880433          	add	s0,a6,s0
8000115c:	0149a023          	sw	s4,0(s3)
80001160:	00042983          	lw	s3,0(s0)
80001164:	0116d6b3          	srl	a3,a3,a7
80001168:	0ff6f693          	andi	a3,a3,255
8000116c:	00198993          	addi	s3,s3,1
80001170:	00269693          	slli	a3,a3,0x2
80001174:	01342023          	sw	s3,0(s0)
80001178:	00d806b3          	add	a3,a6,a3
8000117c:	0006a403          	lw	s0,0(a3)
80001180:	0117d7b3          	srl	a5,a5,a7
80001184:	0ff7f793          	andi	a5,a5,255
80001188:	00140413          	addi	s0,s0,1
8000118c:	00279793          	slli	a5,a5,0x2
80001190:	0086a023          	sw	s0,0(a3)
80001194:	00f807b3          	add	a5,a6,a5
80001198:	0007a683          	lw	a3,0(a5)
8000119c:	01048493          	addi	s1,s1,16
800011a0:	00168693          	addi	a3,a3,1
800011a4:	00d7a023          	sw	a3,0(a5)
800011a8:	f724eee3          	bltu	s1,s2,80001124 <sort+0x90>
800011ac:	01d586b3          	add	a3,a1,t4
800011b0:	00c584b3          	add	s1,a1,a2
800011b4:	0296f663          	bgeu	a3,s1,800011e0 <sort+0x14c>
800011b8:	0006a783          	lw	a5,0(a3)
800011bc:	00468693          	addi	a3,a3,4
800011c0:	0117d7b3          	srl	a5,a5,a7
800011c4:	0ff7f793          	andi	a5,a5,255
800011c8:	00279793          	slli	a5,a5,0x2
800011cc:	00f807b3          	add	a5,a6,a5
800011d0:	0007a403          	lw	s0,0(a5)
800011d4:	00140413          	addi	s0,s0,1
800011d8:	0087a023          	sw	s0,0(a5)
800011dc:	fc96eee3          	bltu	a3,s1,800011b8 <sort+0x124>
800011e0:	00482403          	lw	s0,4(a6)
800011e4:	00082683          	lw	a3,0(a6)
800011e8:	000f8793          	mv	a5,t6
800011ec:	00d40433          	add	s0,s0,a3
800011f0:	00882223          	sw	s0,4(a6)
800011f4:	0007a683          	lw	a3,0(a5)
800011f8:	0047a483          	lw	s1,4(a5)
800011fc:	00878793          	addi	a5,a5,8
80001200:	00d406b3          	add	a3,s0,a3
80001204:	00968433          	add	s0,a3,s1
80001208:	fed7ac23          	sw	a3,-8(a5)
8000120c:	fe87ae23          	sw	s0,-4(a5)
80001210:	fee792e3          	bne	a5,a4,800011f4 <sort+0x160>
80001214:	00658933          	add	s2,a1,t1
80001218:	00c58993          	addi	s3,a1,12
8000121c:	0d396263          	bltu	s2,s3,800012e0 <sort+0x24c>
80001220:	00090413          	mv	s0,s2
80001224:	00042a83          	lw	s5,0(s0)
80001228:	ffc42a03          	lw	s4,-4(s0)
8000122c:	ff842483          	lw	s1,-8(s0)
80001230:	011ad6b3          	srl	a3,s5,a7
80001234:	0ff6f693          	andi	a3,a3,255
80001238:	00269693          	slli	a3,a3,0x2
8000123c:	00d806b3          	add	a3,a6,a3
80001240:	0006ac03          	lw	s8,0(a3)
80001244:	011a57b3          	srl	a5,s4,a7
80001248:	0ff7f793          	andi	a5,a5,255
8000124c:	fffc0b93          	addi	s7,s8,-1
80001250:	00279793          	slli	a5,a5,0x2
80001254:	ff442b03          	lw	s6,-12(s0)
80001258:	00f807b3          	add	a5,a6,a5
8000125c:	0176a023          	sw	s7,0(a3)
80001260:	0007ac83          	lw	s9,0(a5)
80001264:	0114d6b3          	srl	a3,s1,a7
80001268:	0ff6f693          	andi	a3,a3,255
8000126c:	fffc8b93          	addi	s7,s9,-1
80001270:	00269693          	slli	a3,a3,0x2
80001274:	0177a023          	sw	s7,0(a5)
80001278:	00d806b3          	add	a3,a6,a3
8000127c:	0006ab83          	lw	s7,0(a3)
80001280:	011b57b3          	srl	a5,s6,a7
80001284:	0ff7f793          	andi	a5,a5,255
80001288:	fffb8d13          	addi	s10,s7,-1
8000128c:	00279793          	slli	a5,a5,0x2
80001290:	01a6a023          	sw	s10,0(a3)
80001294:	00f807b3          	add	a5,a6,a5
80001298:	0007a683          	lw	a3,0(a5)
8000129c:	002c1c13          	slli	s8,s8,0x2
800012a0:	01850c33          	add	s8,a0,s8
800012a4:	fff68d13          	addi	s10,a3,-1
800012a8:	01a7a023          	sw	s10,0(a5)
800012ac:	002c9c93          	slli	s9,s9,0x2
800012b0:	ff5c2e23          	sw	s5,-4(s8)
800012b4:	01950cb3          	add	s9,a0,s9
800012b8:	002b9b93          	slli	s7,s7,0x2
800012bc:	ff4cae23          	sw	s4,-4(s9)
800012c0:	01750bb3          	add	s7,a0,s7
800012c4:	00269693          	slli	a3,a3,0x2
800012c8:	fe9bae23          	sw	s1,-4(s7)
800012cc:	00d506b3          	add	a3,a0,a3
800012d0:	ff66ae23          	sw	s6,-4(a3)
800012d4:	ff040413          	addi	s0,s0,-16
800012d8:	f53476e3          	bgeu	s0,s3,80001224 <sort+0x190>
800012dc:	01c90933          	add	s2,s2,t3
800012e0:	02b96e63          	bltu	s2,a1,8000131c <sort+0x288>
800012e4:	00092783          	lw	a5,0(s2)
800012e8:	ffc90913          	addi	s2,s2,-4
800012ec:	0117d7b3          	srl	a5,a5,a7
800012f0:	0ff7f793          	andi	a5,a5,255
800012f4:	00279793          	slli	a5,a5,0x2
800012f8:	00f807b3          	add	a5,a6,a5
800012fc:	0007a683          	lw	a3,0(a5)
80001300:	fff68693          	addi	a3,a3,-1
80001304:	00d7a023          	sw	a3,0(a5)
80001308:	00492783          	lw	a5,4(s2)
8000130c:	00269693          	slli	a3,a3,0x2
80001310:	00d506b3          	add	a3,a0,a3
80001314:	00f6a023          	sw	a5,0(a3)
80001318:	fcb976e3          	bgeu	s2,a1,800012e4 <sort+0x250>
8000131c:	00888893          	addi	a7,a7,8
80001320:	01e88a63          	beq	a7,t5,80001334 <sort+0x2a0>
80001324:	00058793          	mv	a5,a1
80001328:	00050593          	mv	a1,a0
8000132c:	00078513          	mv	a0,a5
80001330:	dd9ff06f          	j	80001108 <sort+0x74>
80001334:	02a28c63          	beq	t0,a0,8000136c <sort+0x2d8>
80001338:	42c12403          	lw	s0,1068(sp)
8000133c:	42812483          	lw	s1,1064(sp)
80001340:	42412903          	lw	s2,1060(sp)
80001344:	42012983          	lw	s3,1056(sp)
80001348:	41c12a03          	lw	s4,1052(sp)
8000134c:	41812a83          	lw	s5,1048(sp)
80001350:	41412b03          	lw	s6,1044(sp)
80001354:	41012b83          	lw	s7,1040(sp)
80001358:	40c12c03          	lw	s8,1036(sp)
8000135c:	40812c83          	lw	s9,1032(sp)
80001360:	40412d03          	lw	s10,1028(sp)
80001364:	43010113          	addi	sp,sp,1072
80001368:	0810006f          	j	80001be8 <memcpy>
8000136c:	42c12403          	lw	s0,1068(sp)
80001370:	42812483          	lw	s1,1064(sp)
80001374:	42412903          	lw	s2,1060(sp)
80001378:	42012983          	lw	s3,1056(sp)
8000137c:	41c12a03          	lw	s4,1052(sp)
80001380:	41812a83          	lw	s5,1048(sp)
80001384:	41412b03          	lw	s6,1044(sp)
80001388:	41012b83          	lw	s7,1040(sp)
8000138c:	40c12c03          	lw	s8,1036(sp)
80001390:	40812c83          	lw	s9,1032(sp)
80001394:	40412d03          	lw	s10,1028(sp)
80001398:	43010113          	addi	sp,sp,1072
8000139c:	00008067          	ret
800013a0:	00058693          	mv	a3,a1
800013a4:	e0dff06f          	j	800011b0 <sort+0x11c>

800013a8 <vprintfmt>:
800013a8:	eb010113          	addi	sp,sp,-336
800013ac:	13912223          	sw	s9,292(sp)
800013b0:	40000cb7          	lui	s9,0x40000
800013b4:	fffc8793          	addi	a5,s9,-1 # 3fffffff <buflen.2941+0x3fffffbf>
800013b8:	14812423          	sw	s0,328(sp)
800013bc:	14912223          	sw	s1,324(sp)
800013c0:	15212023          	sw	s2,320(sp)
800013c4:	13512a23          	sw	s5,308(sp)
800013c8:	14112623          	sw	ra,332(sp)
800013cc:	13312e23          	sw	s3,316(sp)
800013d0:	13412c23          	sw	s4,312(sp)
800013d4:	13612823          	sw	s6,304(sp)
800013d8:	13712623          	sw	s7,300(sp)
800013dc:	13812423          	sw	s8,296(sp)
800013e0:	13a12023          	sw	s10,288(sp)
800013e4:	11b12e23          	sw	s11,284(sp)
800013e8:	00050913          	mv	s2,a0
800013ec:	00058493          	mv	s1,a1
800013f0:	00060413          	mv	s0,a2
800013f4:	00d12423          	sw	a3,8(sp)
800013f8:	02500a93          	li	s5,37
800013fc:	00f12623          	sw	a5,12(sp)
80001400:	0140006f          	j	80001414 <vprintfmt+0x6c>
80001404:	06050463          	beqz	a0,8000146c <vprintfmt+0xc4>
80001408:	00048593          	mv	a1,s1
8000140c:	00140413          	addi	s0,s0,1
80001410:	000900e7          	jalr	s2
80001414:	00044503          	lbu	a0,0(s0)
80001418:	ff5516e3          	bne	a0,s5,80001404 <vprintfmt+0x5c>
8000141c:	00144683          	lbu	a3,1(s0)
80001420:	00140d93          	addi	s11,s0,1
80001424:	000d8713          	mv	a4,s11
80001428:	02000b93          	li	s7,32
8000142c:	fff00993          	li	s3,-1
80001430:	fff00a13          	li	s4,-1
80001434:	00000593          	li	a1,0
80001438:	05500613          	li	a2,85
8000143c:	00900513          	li	a0,9
80001440:	fdd68793          	addi	a5,a3,-35
80001444:	0ff7f793          	andi	a5,a5,255
80001448:	00170413          	addi	s0,a4,1
8000144c:	06f66c63          	bltu	a2,a5,800014c4 <vprintfmt+0x11c>
80001450:	00002817          	auipc	a6,0x2
80001454:	c9480813          	addi	a6,a6,-876 # 800030e4 <main+0xf0>
80001458:	00279793          	slli	a5,a5,0x2
8000145c:	010787b3          	add	a5,a5,a6
80001460:	0007a783          	lw	a5,0(a5)
80001464:	010787b3          	add	a5,a5,a6
80001468:	00078067          	jr	a5
8000146c:	14c12083          	lw	ra,332(sp)
80001470:	14812403          	lw	s0,328(sp)
80001474:	14412483          	lw	s1,324(sp)
80001478:	14012903          	lw	s2,320(sp)
8000147c:	13c12983          	lw	s3,316(sp)
80001480:	13812a03          	lw	s4,312(sp)
80001484:	13412a83          	lw	s5,308(sp)
80001488:	13012b03          	lw	s6,304(sp)
8000148c:	12c12b83          	lw	s7,300(sp)
80001490:	12812c03          	lw	s8,296(sp)
80001494:	12412c83          	lw	s9,292(sp)
80001498:	12012d03          	lw	s10,288(sp)
8000149c:	11c12d83          	lw	s11,284(sp)
800014a0:	15010113          	addi	sp,sp,336
800014a4:	00008067          	ret
800014a8:	00068b93          	mv	s7,a3
800014ac:	00174683          	lbu	a3,1(a4)
800014b0:	00040713          	mv	a4,s0
800014b4:	00170413          	addi	s0,a4,1
800014b8:	fdd68793          	addi	a5,a3,-35
800014bc:	0ff7f793          	andi	a5,a5,255
800014c0:	f8f678e3          	bgeu	a2,a5,80001450 <vprintfmt+0xa8>
800014c4:	00048593          	mv	a1,s1
800014c8:	02500513          	li	a0,37
800014cc:	000900e7          	jalr	s2
800014d0:	000d8413          	mv	s0,s11
800014d4:	f41ff06f          	j	80001414 <vprintfmt+0x6c>
800014d8:	00174803          	lbu	a6,1(a4)
800014dc:	fd068993          	addi	s3,a3,-48
800014e0:	00040713          	mv	a4,s0
800014e4:	fd080793          	addi	a5,a6,-48
800014e8:	00080693          	mv	a3,a6
800014ec:	02f56663          	bltu	a0,a5,80001518 <vprintfmt+0x170>
800014f0:	00299793          	slli	a5,s3,0x2
800014f4:	013789b3          	add	s3,a5,s3
800014f8:	00170713          	addi	a4,a4,1
800014fc:	00199993          	slli	s3,s3,0x1
80001500:	010989b3          	add	s3,s3,a6
80001504:	00074803          	lbu	a6,0(a4)
80001508:	fd098993          	addi	s3,s3,-48
8000150c:	fd080793          	addi	a5,a6,-48
80001510:	00080693          	mv	a3,a6
80001514:	fcf57ee3          	bgeu	a0,a5,800014f0 <vprintfmt+0x148>
80001518:	f20a54e3          	bgez	s4,80001440 <vprintfmt+0x98>
8000151c:	00098a13          	mv	s4,s3
80001520:	fff00993          	li	s3,-1
80001524:	f1dff06f          	j	80001440 <vprintfmt+0x98>
80001528:	00174683          	lbu	a3,1(a4)
8000152c:	00040713          	mv	a4,s0
80001530:	f11ff06f          	j	80001440 <vprintfmt+0x98>
80001534:	00048593          	mv	a1,s1
80001538:	02500513          	li	a0,37
8000153c:	000900e7          	jalr	s2
80001540:	ed5ff06f          	j	80001414 <vprintfmt+0x6c>
80001544:	00812783          	lw	a5,8(sp)
80001548:	00174683          	lbu	a3,1(a4)
8000154c:	00040713          	mv	a4,s0
80001550:	0007a983          	lw	s3,0(a5)
80001554:	00478793          	addi	a5,a5,4
80001558:	00f12423          	sw	a5,8(sp)
8000155c:	fbdff06f          	j	80001518 <vprintfmt+0x170>
80001560:	03000513          	li	a0,48
80001564:	00048593          	mv	a1,s1
80001568:	000900e7          	jalr	s2
8000156c:	00048593          	mv	a1,s1
80001570:	07800513          	li	a0,120
80001574:	000900e7          	jalr	s2
80001578:	00812783          	lw	a5,8(sp)
8000157c:	01000c13          	li	s8,16
80001580:	00012223          	sw	zero,4(sp)
80001584:	00478713          	addi	a4,a5,4
80001588:	00812783          	lw	a5,8(sp)
8000158c:	00000d93          	li	s11,0
80001590:	0007a983          	lw	s3,0(a5)
80001594:	00e12423          	sw	a4,8(sp)
80001598:	000c0613          	mv	a2,s8
8000159c:	00000693          	li	a3,0
800015a0:	00098513          	mv	a0,s3
800015a4:	000d8593          	mv	a1,s11
800015a8:	484010ef          	jal	ra,80002a2c <__umoddi3>
800015ac:	00a12823          	sw	a0,16(sp)
800015b0:	00000793          	li	a5,0
800015b4:	00050c93          	mv	s9,a0
800015b8:	23b78063          	beq	a5,s11,800017d8 <vprintfmt+0x430>
800015bc:	01410b13          	addi	s6,sp,20
800015c0:	00100d13          	li	s10,1
800015c4:	000c0613          	mv	a2,s8
800015c8:	00000693          	li	a3,0
800015cc:	00098513          	mv	a0,s3
800015d0:	000d8593          	mv	a1,s11
800015d4:	681000ef          	jal	ra,80002454 <__udivdi3>
800015d8:	000c0613          	mv	a2,s8
800015dc:	00000693          	li	a3,0
800015e0:	00050993          	mv	s3,a0
800015e4:	00058d93          	mv	s11,a1
800015e8:	444010ef          	jal	ra,80002a2c <__umoddi3>
800015ec:	00412783          	lw	a5,4(sp)
800015f0:	00ab2023          	sw	a0,0(s6)
800015f4:	01a12023          	sw	s10,0(sp)
800015f8:	00050c93          	mv	s9,a0
800015fc:	004b0b13          	addi	s6,s6,4
80001600:	001d0d13          	addi	s10,s10,1
80001604:	fdb790e3          	bne	a5,s11,800015c4 <vprintfmt+0x21c>
80001608:	fb89fee3          	bgeu	s3,s8,800015c4 <vprintfmt+0x21c>
8000160c:	014d5c63          	bge	s10,s4,80001624 <vprintfmt+0x27c>
80001610:	fffa0a13          	addi	s4,s4,-1
80001614:	00048593          	mv	a1,s1
80001618:	000b8513          	mv	a0,s7
8000161c:	000900e7          	jalr	s2
80001620:	ff4d48e3          	blt	s10,s4,80001610 <vprintfmt+0x268>
80001624:	00012783          	lw	a5,0(sp)
80001628:	00c12703          	lw	a4,12(sp)
8000162c:	00900993          	li	s3,9
80001630:	00e78a33          	add	s4,a5,a4
80001634:	002a1a13          	slli	s4,s4,0x2
80001638:	01010793          	addi	a5,sp,16
8000163c:	01478a33          	add	s4,a5,s4
80001640:	00c0006f          	j	8000164c <vprintfmt+0x2a4>
80001644:	000a2c83          	lw	s9,0(s4)
80001648:	ffca0a13          	addi	s4,s4,-4
8000164c:	0199b7b3          	sltu	a5,s3,s9
80001650:	40f007b3          	neg	a5,a5
80001654:	0277f793          	andi	a5,a5,39
80001658:	03078793          	addi	a5,a5,48
8000165c:	01978533          	add	a0,a5,s9
80001660:	00048593          	mv	a1,s1
80001664:	000900e7          	jalr	s2
80001668:	00c10793          	addi	a5,sp,12
8000166c:	fd479ce3          	bne	a5,s4,80001644 <vprintfmt+0x29c>
80001670:	da5ff06f          	j	80001414 <vprintfmt+0x6c>
80001674:	00100793          	li	a5,1
80001678:	16b7cc63          	blt	a5,a1,800017f0 <vprintfmt+0x448>
8000167c:	00812703          	lw	a4,8(sp)
80001680:	00470793          	addi	a5,a4,4
80001684:	18058663          	beqz	a1,80001810 <vprintfmt+0x468>
80001688:	00072983          	lw	s3,0(a4)
8000168c:	00f12423          	sw	a5,8(sp)
80001690:	41f9dc13          	srai	s8,s3,0x1f
80001694:	180c4e63          	bltz	s8,80001830 <vprintfmt+0x488>
80001698:	000c0d93          	mv	s11,s8
8000169c:	00012223          	sw	zero,4(sp)
800016a0:	00a00c13          	li	s8,10
800016a4:	ef5ff06f          	j	80001598 <vprintfmt+0x1f0>
800016a8:	01000c13          	li	s8,16
800016ac:	00012223          	sw	zero,4(sp)
800016b0:	00100793          	li	a5,1
800016b4:	10b7c263          	blt	a5,a1,800017b8 <vprintfmt+0x410>
800016b8:	00812783          	lw	a5,8(sp)
800016bc:	00478713          	addi	a4,a5,4
800016c0:	ec9ff06f          	j	80001588 <vprintfmt+0x1e0>
800016c4:	00812783          	lw	a5,8(sp)
800016c8:	0007ad83          	lw	s11,0(a5)
800016cc:	00478b13          	addi	s6,a5,4
800016d0:	180d8463          	beqz	s11,80001858 <vprintfmt+0x4b0>
800016d4:	09405863          	blez	s4,80001764 <vprintfmt+0x3bc>
800016d8:	02d00793          	li	a5,45
800016dc:	04fb9e63          	bne	s7,a5,80001738 <vprintfmt+0x390>
800016e0:	000dc503          	lbu	a0,0(s11)
800016e4:	02050863          	beqz	a0,80001714 <vprintfmt+0x36c>
800016e8:	fff00b93          	li	s7,-1
800016ec:	0009c663          	bltz	s3,800016f8 <vprintfmt+0x350>
800016f0:	fff98993          	addi	s3,s3,-1
800016f4:	01798e63          	beq	s3,s7,80001710 <vprintfmt+0x368>
800016f8:	00048593          	mv	a1,s1
800016fc:	001d8d93          	addi	s11,s11,1
80001700:	000900e7          	jalr	s2
80001704:	000dc503          	lbu	a0,0(s11)
80001708:	fffa0a13          	addi	s4,s4,-1
8000170c:	fe0510e3          	bnez	a0,800016ec <vprintfmt+0x344>
80001710:	01405c63          	blez	s4,80001728 <vprintfmt+0x380>
80001714:	fffa0a13          	addi	s4,s4,-1
80001718:	00048593          	mv	a1,s1
8000171c:	02000513          	li	a0,32
80001720:	000900e7          	jalr	s2
80001724:	fe0a18e3          	bnez	s4,80001714 <vprintfmt+0x36c>
80001728:	01612423          	sw	s6,8(sp)
8000172c:	ce9ff06f          	j	80001414 <vprintfmt+0x6c>
80001730:	00002d97          	auipc	s11,0x2
80001734:	974d8d93          	addi	s11,s11,-1676 # 800030a4 <main+0xb0>
80001738:	000d8793          	mv	a5,s11
8000173c:	013d86b3          	add	a3,s11,s3
80001740:	00099863          	bnez	s3,80001750 <vprintfmt+0x3a8>
80001744:	1340006f          	j	80001878 <vprintfmt+0x4d0>
80001748:	00178793          	addi	a5,a5,1
8000174c:	00d78663          	beq	a5,a3,80001758 <vprintfmt+0x3b0>
80001750:	0007c703          	lbu	a4,0(a5)
80001754:	fe071ae3          	bnez	a4,80001748 <vprintfmt+0x3a0>
80001758:	41b787b3          	sub	a5,a5,s11
8000175c:	40fa0a33          	sub	s4,s4,a5
80001760:	11404c63          	bgtz	s4,80001878 <vprintfmt+0x4d0>
80001764:	000dc503          	lbu	a0,0(s11)
80001768:	fc0500e3          	beqz	a0,80001728 <vprintfmt+0x380>
8000176c:	fff00b93          	li	s7,-1
80001770:	f7dff06f          	j	800016ec <vprintfmt+0x344>
80001774:	fffa4793          	not	a5,s4
80001778:	41f7d793          	srai	a5,a5,0x1f
8000177c:	00174683          	lbu	a3,1(a4)
80001780:	00fa7a33          	and	s4,s4,a5
80001784:	00040713          	mv	a4,s0
80001788:	cb9ff06f          	j	80001440 <vprintfmt+0x98>
8000178c:	00812783          	lw	a5,8(sp)
80001790:	00048593          	mv	a1,s1
80001794:	0007a503          	lw	a0,0(a5)
80001798:	00478b13          	addi	s6,a5,4
8000179c:	000900e7          	jalr	s2
800017a0:	01612423          	sw	s6,8(sp)
800017a4:	c71ff06f          	j	80001414 <vprintfmt+0x6c>
800017a8:	00174683          	lbu	a3,1(a4)
800017ac:	00158593          	addi	a1,a1,1
800017b0:	00040713          	mv	a4,s0
800017b4:	c8dff06f          	j	80001440 <vprintfmt+0x98>
800017b8:	00812783          	lw	a5,8(sp)
800017bc:	00778b13          	addi	s6,a5,7
800017c0:	ff8b7b13          	andi	s6,s6,-8
800017c4:	008b0793          	addi	a5,s6,8
800017c8:	000b2983          	lw	s3,0(s6)
800017cc:	004b2d83          	lw	s11,4(s6)
800017d0:	00f12423          	sw	a5,8(sp)
800017d4:	dc5ff06f          	j	80001598 <vprintfmt+0x1f0>
800017d8:	df89f2e3          	bgeu	s3,s8,800015bc <vprintfmt+0x214>
800017dc:	00100793          	li	a5,1
800017e0:	00012023          	sw	zero,0(sp)
800017e4:	00100d13          	li	s10,1
800017e8:	e347c4e3          	blt	a5,s4,80001610 <vprintfmt+0x268>
800017ec:	e39ff06f          	j	80001624 <vprintfmt+0x27c>
800017f0:	00812783          	lw	a5,8(sp)
800017f4:	00778b13          	addi	s6,a5,7
800017f8:	ff8b7b13          	andi	s6,s6,-8
800017fc:	008b0793          	addi	a5,s6,8
80001800:	000b2983          	lw	s3,0(s6)
80001804:	004b2c03          	lw	s8,4(s6)
80001808:	00f12423          	sw	a5,8(sp)
8000180c:	e89ff06f          	j	80001694 <vprintfmt+0x2ec>
80001810:	00812703          	lw	a4,8(sp)
80001814:	e75ff06f          	j	80001688 <vprintfmt+0x2e0>
80001818:	00800c13          	li	s8,8
8000181c:	00012223          	sw	zero,4(sp)
80001820:	e91ff06f          	j	800016b0 <vprintfmt+0x308>
80001824:	00a00c13          	li	s8,10
80001828:	00012223          	sw	zero,4(sp)
8000182c:	e85ff06f          	j	800016b0 <vprintfmt+0x308>
80001830:	00048593          	mv	a1,s1
80001834:	02d00513          	li	a0,45
80001838:	000900e7          	jalr	s2
8000183c:	01303733          	snez	a4,s3
80001840:	418007b3          	neg	a5,s8
80001844:	413009b3          	neg	s3,s3
80001848:	40e78db3          	sub	s11,a5,a4
8000184c:	00a00c13          	li	s8,10
80001850:	00012223          	sw	zero,4(sp)
80001854:	d45ff06f          	j	80001598 <vprintfmt+0x1f0>
80001858:	01405663          	blez	s4,80001864 <vprintfmt+0x4bc>
8000185c:	02d00793          	li	a5,45
80001860:	ecfb98e3          	bne	s7,a5,80001730 <vprintfmt+0x388>
80001864:	00002d97          	auipc	s11,0x2
80001868:	840d8d93          	addi	s11,s11,-1984 # 800030a4 <main+0xb0>
8000186c:	02800513          	li	a0,40
80001870:	fff00b93          	li	s7,-1
80001874:	e79ff06f          	j	800016ec <vprintfmt+0x344>
80001878:	fffa0a13          	addi	s4,s4,-1
8000187c:	00048593          	mv	a1,s1
80001880:	000b8513          	mv	a0,s7
80001884:	000900e7          	jalr	s2
80001888:	ec0a0ee3          	beqz	s4,80001764 <vprintfmt+0x3bc>
8000188c:	fffa0a13          	addi	s4,s4,-1
80001890:	00048593          	mv	a1,s1
80001894:	000b8513          	mv	a0,s7
80001898:	000900e7          	jalr	s2
8000189c:	fc0a1ee3          	bnez	s4,80001878 <vprintfmt+0x4d0>
800018a0:	ec5ff06f          	j	80001764 <vprintfmt+0x3bc>

800018a4 <sprintf_putch.3055>:
800018a4:	0005a783          	lw	a5,0(a1)
800018a8:	00a78023          	sb	a0,0(a5)
800018ac:	0005a783          	lw	a5,0(a1)
800018b0:	00178793          	addi	a5,a5,1
800018b4:	00f5a023          	sw	a5,0(a1)
800018b8:	00008067          	ret

800018bc <syscall.constprop.0>:
800018bc:	f8010113          	addi	sp,sp,-128
800018c0:	03f10813          	addi	a6,sp,63
800018c4:	fc087813          	andi	a6,a6,-64
800018c8:	04000713          	li	a4,64
800018cc:	00e82023          	sw	a4,0(a6)
800018d0:	00000793          	li	a5,0
800018d4:	00f82223          	sw	a5,4(a6)
800018d8:	00100713          	li	a4,1
800018dc:	00e82423          	sw	a4,8(a6)
800018e0:	00000793          	li	a5,0
800018e4:	00f82623          	sw	a5,12(a6)
800018e8:	00a82823          	sw	a0,16(a6)
800018ec:	00b82a23          	sw	a1,20(a6)
800018f0:	00c82c23          	sw	a2,24(a6)
800018f4:	00d82e23          	sw	a3,28(a6)
800018f8:	0ff0000f          	fence
800018fc:	fffff697          	auipc	a3,0xfffff
80001900:	70468693          	addi	a3,a3,1796 # 80001000 <tohost>
80001904:	0106a023          	sw	a6,0(a3)
80001908:	00000793          	li	a5,0
8000190c:	00f6a223          	sw	a5,4(a3)
80001910:	fffff697          	auipc	a3,0xfffff
80001914:	73068693          	addi	a3,a3,1840 # 80001040 <fromhost>
80001918:	0006a703          	lw	a4,0(a3)
8000191c:	0046a783          	lw	a5,4(a3)
80001920:	00f76733          	or	a4,a4,a5
80001924:	fe070ae3          	beqz	a4,80001918 <syscall.constprop.0+0x5c>
80001928:	00000713          	li	a4,0
8000192c:	00e6a023          	sw	a4,0(a3)
80001930:	00000793          	li	a5,0
80001934:	00f6a223          	sw	a5,4(a3)
80001938:	0ff0000f          	fence
8000193c:	00082503          	lw	a0,0(a6)
80001940:	00482583          	lw	a1,4(a6)
80001944:	08010113          	addi	sp,sp,128
80001948:	00008067          	ret

8000194c <putchar>:
8000194c:	ff010113          	addi	sp,sp,-16
80001950:	00812423          	sw	s0,8(sp)
80001954:	04022583          	lw	a1,64(tp) # 40 <buflen.2941>
80001958:	00020793          	mv	a5,tp
8000195c:	00112623          	sw	ra,12(sp)
80001960:	00b787b3          	add	a5,a5,a1
80001964:	00158613          	addi	a2,a1,1
80001968:	00a78023          	sb	a0,0(a5)
8000196c:	04c22023          	sw	a2,64(tp) # 40 <buflen.2941>
80001970:	00a00793          	li	a5,10
80001974:	02f50063          	beq	a0,a5,80001994 <putchar+0x48>
80001978:	04000793          	li	a5,64
8000197c:	00f60c63          	beq	a2,a5,80001994 <putchar+0x48>
80001980:	00c12083          	lw	ra,12(sp)
80001984:	00812403          	lw	s0,8(sp)
80001988:	00000513          	li	a0,0
8000198c:	01010113          	addi	sp,sp,16
80001990:	00008067          	ret
80001994:	41f65693          	srai	a3,a2,0x1f
80001998:	00020513          	mv	a0,tp
8000199c:	00000593          	li	a1,0
800019a0:	f1dff0ef          	jal	ra,800018bc <syscall.constprop.0>
800019a4:	00c12083          	lw	ra,12(sp)
800019a8:	04022023          	sw	zero,64(tp) # 40 <buflen.2941>
800019ac:	00812403          	lw	s0,8(sp)
800019b0:	00000513          	li	a0,0
800019b4:	01010113          	addi	sp,sp,16
800019b8:	00008067          	ret

800019bc <setStats>:
800019bc:	b0002773          	csrr	a4,mcycle
800019c0:	00006797          	auipc	a5,0x6
800019c4:	a8878793          	addi	a5,a5,-1400 # 80007448 <counters>
800019c8:	00051e63          	bnez	a0,800019e4 <setStats+0x28>
800019cc:	0007a683          	lw	a3,0(a5)
800019d0:	00001617          	auipc	a2,0x1
800019d4:	6dc60613          	addi	a2,a2,1756 # 800030ac <main+0xb8>
800019d8:	00006597          	auipc	a1,0x6
800019dc:	a6c5a423          	sw	a2,-1432(a1) # 80007440 <counter_names>
800019e0:	40d70733          	sub	a4,a4,a3
800019e4:	00e7a023          	sw	a4,0(a5)
800019e8:	b0202773          	csrr	a4,minstret
800019ec:	00051e63          	bnez	a0,80001a08 <setStats+0x4c>
800019f0:	0047a683          	lw	a3,4(a5)
800019f4:	00001617          	auipc	a2,0x1
800019f8:	6c060613          	addi	a2,a2,1728 # 800030b4 <main+0xc0>
800019fc:	00006597          	auipc	a1,0x6
80001a00:	a4c5a423          	sw	a2,-1464(a1) # 80007444 <counter_names+0x4>
80001a04:	40d70733          	sub	a4,a4,a3
80001a08:	00e7a223          	sw	a4,4(a5)
80001a0c:	00008067          	ret

80001a10 <tohost_exit>:
80001a10:	00151693          	slli	a3,a0,0x1
80001a14:	0016e713          	ori	a4,a3,1
80001a18:	fffff697          	auipc	a3,0xfffff
80001a1c:	5e868693          	addi	a3,a3,1512 # 80001000 <tohost>
80001a20:	00000793          	li	a5,0
80001a24:	00e6a023          	sw	a4,0(a3)
80001a28:	00f6a223          	sw	a5,4(a3)
80001a2c:	0000006f          	j	80001a2c <tohost_exit+0x1c>

80001a30 <handle_trap>:
80001a30:	00001637          	lui	a2,0x1
80001a34:	fffff797          	auipc	a5,0xfffff
80001a38:	5cc78793          	addi	a5,a5,1484 # 80001000 <tohost>
80001a3c:	a7360613          	addi	a2,a2,-1421 # a73 <buflen.2941+0xa33>
80001a40:	00000693          	li	a3,0
80001a44:	00c7a023          	sw	a2,0(a5)
80001a48:	00d7a223          	sw	a3,4(a5)
80001a4c:	0000006f          	j	80001a4c <handle_trap+0x1c>

80001a50 <exit>:
80001a50:	ff010113          	addi	sp,sp,-16
80001a54:	00112623          	sw	ra,12(sp)
80001a58:	fb9ff0ef          	jal	ra,80001a10 <tohost_exit>

80001a5c <abort>:
80001a5c:	fffff797          	auipc	a5,0xfffff
80001a60:	5a478793          	addi	a5,a5,1444 # 80001000 <tohost>
80001a64:	10d00613          	li	a2,269
80001a68:	00000693          	li	a3,0
80001a6c:	00c7a023          	sw	a2,0(a5)
80001a70:	00d7a223          	sw	a3,4(a5)
80001a74:	0000006f          	j	80001a74 <abort+0x18>

80001a78 <printstr>:
80001a78:	00054783          	lbu	a5,0(a0)
80001a7c:	02078263          	beqz	a5,80001aa0 <printstr+0x28>
80001a80:	00050613          	mv	a2,a0
80001a84:	00164783          	lbu	a5,1(a2)
80001a88:	00160613          	addi	a2,a2,1
80001a8c:	fe079ce3          	bnez	a5,80001a84 <printstr+0xc>
80001a90:	40a60633          	sub	a2,a2,a0
80001a94:	00000693          	li	a3,0
80001a98:	00000593          	li	a1,0
80001a9c:	e21ff06f          	j	800018bc <syscall.constprop.0>
80001aa0:	00000613          	li	a2,0
80001aa4:	00000693          	li	a3,0
80001aa8:	00000593          	li	a1,0
80001aac:	e11ff06f          	j	800018bc <syscall.constprop.0>

80001ab0 <thread_entry>:
80001ab0:	00051063          	bnez	a0,80001ab0 <thread_entry>
80001ab4:	00008067          	ret

80001ab8 <printhex>:
80001ab8:	fd010113          	addi	sp,sp,-48
80001abc:	00050713          	mv	a4,a0
80001ac0:	02112623          	sw	ra,44(sp)
80001ac4:	00c10513          	addi	a0,sp,12
80001ac8:	01b10613          	addi	a2,sp,27
80001acc:	00900813          	li	a6,9
80001ad0:	0080006f          	j	80001ad8 <printhex+0x20>
80001ad4:	00078613          	mv	a2,a5
80001ad8:	00f77793          	andi	a5,a4,15
80001adc:	00f837b3          	sltu	a5,a6,a5
80001ae0:	40f007b3          	neg	a5,a5
80001ae4:	0277f793          	andi	a5,a5,39
80001ae8:	00f77693          	andi	a3,a4,15
80001aec:	03078793          	addi	a5,a5,48
80001af0:	00f687b3          	add	a5,a3,a5
80001af4:	00f60023          	sb	a5,0(a2)
80001af8:	01c59693          	slli	a3,a1,0x1c
80001afc:	00475713          	srli	a4,a4,0x4
80001b00:	fff60793          	addi	a5,a2,-1
80001b04:	00e6e733          	or	a4,a3,a4
80001b08:	0045d593          	srli	a1,a1,0x4
80001b0c:	fcc514e3          	bne	a0,a2,80001ad4 <printhex+0x1c>
80001b10:	00010e23          	sb	zero,28(sp)
80001b14:	f65ff0ef          	jal	ra,80001a78 <printstr>
80001b18:	02c12083          	lw	ra,44(sp)
80001b1c:	03010113          	addi	sp,sp,48
80001b20:	00008067          	ret

80001b24 <printf>:
80001b24:	fc010113          	addi	sp,sp,-64
80001b28:	02410313          	addi	t1,sp,36
80001b2c:	00050e13          	mv	t3,a0
80001b30:	02b12223          	sw	a1,36(sp)
80001b34:	02c12423          	sw	a2,40(sp)
80001b38:	02d12623          	sw	a3,44(sp)
80001b3c:	00000517          	auipc	a0,0x0
80001b40:	e1050513          	addi	a0,a0,-496 # 8000194c <putchar>
80001b44:	00030693          	mv	a3,t1
80001b48:	000e0613          	mv	a2,t3
80001b4c:	00000593          	li	a1,0
80001b50:	00112e23          	sw	ra,28(sp)
80001b54:	02e12823          	sw	a4,48(sp)
80001b58:	02f12a23          	sw	a5,52(sp)
80001b5c:	03012c23          	sw	a6,56(sp)
80001b60:	03112e23          	sw	a7,60(sp)
80001b64:	00612623          	sw	t1,12(sp)
80001b68:	841ff0ef          	jal	ra,800013a8 <vprintfmt>
80001b6c:	01c12083          	lw	ra,28(sp)
80001b70:	00000513          	li	a0,0
80001b74:	04010113          	addi	sp,sp,64
80001b78:	00008067          	ret

80001b7c <sprintf>:
80001b7c:	fb010113          	addi	sp,sp,-80
80001b80:	03810313          	addi	t1,sp,56
80001b84:	02812423          	sw	s0,40(sp)
80001b88:	00a12623          	sw	a0,12(sp)
80001b8c:	02c12c23          	sw	a2,56(sp)
80001b90:	02d12e23          	sw	a3,60(sp)
80001b94:	00050413          	mv	s0,a0
80001b98:	00058613          	mv	a2,a1
80001b9c:	00000517          	auipc	a0,0x0
80001ba0:	d0850513          	addi	a0,a0,-760 # 800018a4 <sprintf_putch.3055>
80001ba4:	00c10593          	addi	a1,sp,12
80001ba8:	00030693          	mv	a3,t1
80001bac:	02112623          	sw	ra,44(sp)
80001bb0:	04f12223          	sw	a5,68(sp)
80001bb4:	04e12023          	sw	a4,64(sp)
80001bb8:	05012423          	sw	a6,72(sp)
80001bbc:	05112623          	sw	a7,76(sp)
80001bc0:	00612e23          	sw	t1,28(sp)
80001bc4:	fe4ff0ef          	jal	ra,800013a8 <vprintfmt>
80001bc8:	00c12783          	lw	a5,12(sp)
80001bcc:	00078023          	sb	zero,0(a5)
80001bd0:	00c12503          	lw	a0,12(sp)
80001bd4:	02c12083          	lw	ra,44(sp)
80001bd8:	40850533          	sub	a0,a0,s0
80001bdc:	02812403          	lw	s0,40(sp)
80001be0:	05010113          	addi	sp,sp,80
80001be4:	00008067          	ret

80001be8 <memcpy>:
80001be8:	00c5e7b3          	or	a5,a1,a2
80001bec:	00f567b3          	or	a5,a0,a5
80001bf0:	0037f793          	andi	a5,a5,3
80001bf4:	00c506b3          	add	a3,a0,a2
80001bf8:	02078463          	beqz	a5,80001c20 <memcpy+0x38>
80001bfc:	00c58633          	add	a2,a1,a2
80001c00:	00050793          	mv	a5,a0
80001c04:	02d57e63          	bgeu	a0,a3,80001c40 <memcpy+0x58>
80001c08:	0005c703          	lbu	a4,0(a1)
80001c0c:	00158593          	addi	a1,a1,1
80001c10:	00178793          	addi	a5,a5,1
80001c14:	fee78fa3          	sb	a4,-1(a5)
80001c18:	feb618e3          	bne	a2,a1,80001c08 <memcpy+0x20>
80001c1c:	00008067          	ret
80001c20:	fed57ee3          	bgeu	a0,a3,80001c1c <memcpy+0x34>
80001c24:	00050793          	mv	a5,a0
80001c28:	0005a703          	lw	a4,0(a1)
80001c2c:	00478793          	addi	a5,a5,4
80001c30:	00458593          	addi	a1,a1,4
80001c34:	fee7ae23          	sw	a4,-4(a5)
80001c38:	fed7e8e3          	bltu	a5,a3,80001c28 <memcpy+0x40>
80001c3c:	00008067          	ret
80001c40:	00008067          	ret

80001c44 <memset>:
80001c44:	00c567b3          	or	a5,a0,a2
80001c48:	0037f793          	andi	a5,a5,3
80001c4c:	00c50633          	add	a2,a0,a2
80001c50:	02078063          	beqz	a5,80001c70 <memset+0x2c>
80001c54:	0ff5f593          	andi	a1,a1,255
80001c58:	00050793          	mv	a5,a0
80001c5c:	04c57063          	bgeu	a0,a2,80001c9c <memset+0x58>
80001c60:	00178793          	addi	a5,a5,1
80001c64:	feb78fa3          	sb	a1,-1(a5)
80001c68:	fef61ce3          	bne	a2,a5,80001c60 <memset+0x1c>
80001c6c:	00008067          	ret
80001c70:	0ff5f593          	andi	a1,a1,255
80001c74:	00859713          	slli	a4,a1,0x8
80001c78:	00e5e733          	or	a4,a1,a4
80001c7c:	01071793          	slli	a5,a4,0x10
80001c80:	00f76733          	or	a4,a4,a5
80001c84:	fec574e3          	bgeu	a0,a2,80001c6c <memset+0x28>
80001c88:	00050793          	mv	a5,a0
80001c8c:	00478793          	addi	a5,a5,4
80001c90:	fee7ae23          	sw	a4,-4(a5)
80001c94:	fec7ece3          	bltu	a5,a2,80001c8c <memset+0x48>
80001c98:	00008067          	ret
80001c9c:	00008067          	ret

80001ca0 <_init>:
80001ca0:	f6010113          	addi	sp,sp,-160
80001ca4:	00007797          	auipc	a5,0x7
80001ca8:	7ac78793          	addi	a5,a5,1964 # 80009450 <_tdata_begin>
80001cac:	09412423          	sw	s4,136(sp)
80001cb0:	00007a17          	auipc	s4,0x7
80001cb4:	7a0a0a13          	addi	s4,s4,1952 # 80009450 <_tdata_begin>
80001cb8:	09312623          	sw	s3,140(sp)
80001cbc:	40fa09b3          	sub	s3,s4,a5
80001cc0:	08912a23          	sw	s1,148(sp)
80001cc4:	09212823          	sw	s2,144(sp)
80001cc8:	00050493          	mv	s1,a0
80001ccc:	00058913          	mv	s2,a1
80001cd0:	00020513          	mv	a0,tp
80001cd4:	00078593          	mv	a1,a5
80001cd8:	00098613          	mv	a2,s3
80001cdc:	08112e23          	sw	ra,156(sp)
80001ce0:	08812c23          	sw	s0,152(sp)
80001ce4:	09512223          	sw	s5,132(sp)
80001ce8:	00020a93          	mv	s5,tp
80001cec:	efdff0ef          	jal	ra,80001be8 <memcpy>
80001cf0:	00007617          	auipc	a2,0x7
80001cf4:	7d460613          	addi	a2,a2,2004 # 800094c4 <_tbss_end>
80001cf8:	41460633          	sub	a2,a2,s4
80001cfc:	00000593          	li	a1,0
80001d00:	013a8533          	add	a0,s5,s3
80001d04:	f41ff0ef          	jal	ra,80001c44 <memset>
80001d08:	00090593          	mv	a1,s2
80001d0c:	00048513          	mv	a0,s1
80001d10:	da1ff0ef          	jal	ra,80001ab0 <thread_entry>
80001d14:	00000593          	li	a1,0
80001d18:	00000513          	li	a0,0
80001d1c:	2d8010ef          	jal	ra,80002ff4 <main>
80001d20:	00005917          	auipc	s2,0x5
80001d24:	72890913          	addi	s2,s2,1832 # 80007448 <counters>
80001d28:	00092683          	lw	a3,0(s2)
80001d2c:	03f10413          	addi	s0,sp,63
80001d30:	fc047413          	andi	s0,s0,-64
80001d34:	00050493          	mv	s1,a0
80001d38:	04069463          	bnez	a3,80001d80 <_init+0xe0>
80001d3c:	00492683          	lw	a3,4(s2)
80001d40:	00069663          	bnez	a3,80001d4c <_init+0xac>
80001d44:	00048513          	mv	a0,s1
80001d48:	cc9ff0ef          	jal	ra,80001a10 <tohost_exit>
80001d4c:	00040913          	mv	s2,s0
80001d50:	00005997          	auipc	s3,0x5
80001d54:	6f098993          	addi	s3,s3,1776 # 80007440 <counter_names>
80001d58:	0049a603          	lw	a2,4(s3)
80001d5c:	00090513          	mv	a0,s2
80001d60:	00001597          	auipc	a1,0x1
80001d64:	37858593          	addi	a1,a1,888 # 800030d8 <main+0xe4>
80001d68:	e15ff0ef          	jal	ra,80001b7c <sprintf>
80001d6c:	00a90933          	add	s2,s2,a0
80001d70:	fd240ae3          	beq	s0,s2,80001d44 <_init+0xa4>
80001d74:	00040513          	mv	a0,s0
80001d78:	d01ff0ef          	jal	ra,80001a78 <printstr>
80001d7c:	fc9ff06f          	j	80001d44 <_init+0xa4>
80001d80:	00005997          	auipc	s3,0x5
80001d84:	6c098993          	addi	s3,s3,1728 # 80007440 <counter_names>
80001d88:	0009a603          	lw	a2,0(s3)
80001d8c:	00001597          	auipc	a1,0x1
80001d90:	34c58593          	addi	a1,a1,844 # 800030d8 <main+0xe4>
80001d94:	00040513          	mv	a0,s0
80001d98:	de5ff0ef          	jal	ra,80001b7c <sprintf>
80001d9c:	00492683          	lw	a3,4(s2)
80001da0:	00a40933          	add	s2,s0,a0
80001da4:	fc0686e3          	beqz	a3,80001d70 <_init+0xd0>
80001da8:	fb1ff06f          	j	80001d58 <_init+0xb8>

80001dac <strlen>:
80001dac:	00054783          	lbu	a5,0(a0)
80001db0:	00078e63          	beqz	a5,80001dcc <strlen+0x20>
80001db4:	00050793          	mv	a5,a0
80001db8:	0017c703          	lbu	a4,1(a5)
80001dbc:	00178793          	addi	a5,a5,1
80001dc0:	fe071ce3          	bnez	a4,80001db8 <strlen+0xc>
80001dc4:	40a78533          	sub	a0,a5,a0
80001dc8:	00008067          	ret
80001dcc:	00000513          	li	a0,0
80001dd0:	00008067          	ret

80001dd4 <strnlen>:
80001dd4:	00050613          	mv	a2,a0
80001dd8:	00b606b3          	add	a3,a2,a1
80001ddc:	00058513          	mv	a0,a1
80001de0:	00060793          	mv	a5,a2
80001de4:	00059863          	bnez	a1,80001df4 <strnlen+0x20>
80001de8:	01c0006f          	j	80001e04 <strnlen+0x30>
80001dec:	00178793          	addi	a5,a5,1
80001df0:	00f68863          	beq	a3,a5,80001e00 <strnlen+0x2c>
80001df4:	0007c703          	lbu	a4,0(a5)
80001df8:	fe071ae3          	bnez	a4,80001dec <strnlen+0x18>
80001dfc:	40c78533          	sub	a0,a5,a2
80001e00:	00008067          	ret
80001e04:	00008067          	ret

80001e08 <strcmp>:
80001e08:	00054783          	lbu	a5,0(a0)
80001e0c:	00158593          	addi	a1,a1,1
80001e10:	00150513          	addi	a0,a0,1
80001e14:	fff5c703          	lbu	a4,-1(a1)
80001e18:	00078863          	beqz	a5,80001e28 <strcmp+0x20>
80001e1c:	fee786e3          	beq	a5,a4,80001e08 <strcmp>
80001e20:	40e78533          	sub	a0,a5,a4
80001e24:	00008067          	ret
80001e28:	00000793          	li	a5,0
80001e2c:	ff5ff06f          	j	80001e20 <strcmp+0x18>

80001e30 <strcpy>:
80001e30:	00050793          	mv	a5,a0
80001e34:	0005c703          	lbu	a4,0(a1)
80001e38:	00178793          	addi	a5,a5,1
80001e3c:	00158593          	addi	a1,a1,1
80001e40:	fee78fa3          	sb	a4,-1(a5)
80001e44:	fe0718e3          	bnez	a4,80001e34 <strcpy+0x4>
80001e48:	00008067          	ret

80001e4c <atol>:
80001e4c:	00054703          	lbu	a4,0(a0)
80001e50:	02000693          	li	a3,32
80001e54:	00050793          	mv	a5,a0
80001e58:	00d71863          	bne	a4,a3,80001e68 <atol+0x1c>
80001e5c:	0017c703          	lbu	a4,1(a5)
80001e60:	00178793          	addi	a5,a5,1
80001e64:	fed70ce3          	beq	a4,a3,80001e5c <atol+0x10>
80001e68:	02d00693          	li	a3,45
80001e6c:	06d70063          	beq	a4,a3,80001ecc <atol+0x80>
80001e70:	02b00693          	li	a3,43
80001e74:	04d70063          	beq	a4,a3,80001eb4 <atol+0x68>
80001e78:	0007c683          	lbu	a3,0(a5)
80001e7c:	00000593          	li	a1,0
80001e80:	04068263          	beqz	a3,80001ec4 <atol+0x78>
80001e84:	00000513          	li	a0,0
80001e88:	00178793          	addi	a5,a5,1
80001e8c:	fd068613          	addi	a2,a3,-48
80001e90:	00251713          	slli	a4,a0,0x2
80001e94:	0007c683          	lbu	a3,0(a5)
80001e98:	00a70533          	add	a0,a4,a0
80001e9c:	00151513          	slli	a0,a0,0x1
80001ea0:	00a60533          	add	a0,a2,a0
80001ea4:	fe0692e3          	bnez	a3,80001e88 <atol+0x3c>
80001ea8:	02058063          	beqz	a1,80001ec8 <atol+0x7c>
80001eac:	40a00533          	neg	a0,a0
80001eb0:	00008067          	ret
80001eb4:	0017c683          	lbu	a3,1(a5)
80001eb8:	00000593          	li	a1,0
80001ebc:	00178793          	addi	a5,a5,1
80001ec0:	fc0692e3          	bnez	a3,80001e84 <atol+0x38>
80001ec4:	00000513          	li	a0,0
80001ec8:	00008067          	ret
80001ecc:	0017c683          	lbu	a3,1(a5)
80001ed0:	00100593          	li	a1,1
80001ed4:	00178793          	addi	a5,a5,1
80001ed8:	fa0696e3          	bnez	a3,80001e84 <atol+0x38>
80001edc:	00000513          	li	a0,0
80001ee0:	fe9ff06f          	j	80001ec8 <atol+0x7c>

80001ee4 <__moddi3>:
80001ee4:	fc010113          	addi	sp,sp,-64
80001ee8:	02912a23          	sw	s1,52(sp)
80001eec:	01712e23          	sw	s7,28(sp)
80001ef0:	01912a23          	sw	s9,20(sp)
80001ef4:	02112e23          	sw	ra,60(sp)
80001ef8:	02812c23          	sw	s0,56(sp)
80001efc:	03212823          	sw	s2,48(sp)
80001f00:	03312623          	sw	s3,44(sp)
80001f04:	03412423          	sw	s4,40(sp)
80001f08:	03512223          	sw	s5,36(sp)
80001f0c:	03612023          	sw	s6,32(sp)
80001f10:	01812c23          	sw	s8,24(sp)
80001f14:	01a12823          	sw	s10,16(sp)
80001f18:	01b12623          	sw	s11,12(sp)
80001f1c:	00050b93          	mv	s7,a0
80001f20:	00058c93          	mv	s9,a1
80001f24:	00000493          	li	s1,0
80001f28:	0005dc63          	bgez	a1,80001f40 <__moddi3+0x5c>
80001f2c:	00a037b3          	snez	a5,a0
80001f30:	40b00933          	neg	s2,a1
80001f34:	40f90cb3          	sub	s9,s2,a5
80001f38:	40a00bb3          	neg	s7,a0
80001f3c:	fff00493          	li	s1,-1
80001f40:	0006da63          	bgez	a3,80001f54 <__moddi3+0x70>
80001f44:	00c03933          	snez	s2,a2
80001f48:	40d007b3          	neg	a5,a3
80001f4c:	412786b3          	sub	a3,a5,s2
80001f50:	40c00633          	neg	a2,a2
80001f54:	00060a93          	mv	s5,a2
80001f58:	00068993          	mv	s3,a3
80001f5c:	000b8413          	mv	s0,s7
80001f60:	000c8913          	mv	s2,s9
80001f64:	2a069863          	bnez	a3,80002214 <__moddi3+0x330>
80001f68:	80003a37          	lui	s4,0x80003
80001f6c:	23ca0a13          	addi	s4,s4,572 # 8000323c <_tbss_end+0xffff9d78>
80001f70:	14ccfe63          	bgeu	s9,a2,800020cc <__moddi3+0x1e8>
80001f74:	000107b7          	lui	a5,0x10
80001f78:	14f67063          	bgeu	a2,a5,800020b8 <__moddi3+0x1d4>
80001f7c:	0ff00793          	li	a5,255
80001f80:	00c7f463          	bgeu	a5,a2,80001f88 <__moddi3+0xa4>
80001f84:	00800993          	li	s3,8
80001f88:	013657b3          	srl	a5,a2,s3
80001f8c:	00fa0a33          	add	s4,s4,a5
80001f90:	000a4783          	lbu	a5,0(s4)
80001f94:	02000713          	li	a4,32
80001f98:	013787b3          	add	a5,a5,s3
80001f9c:	40f709b3          	sub	s3,a4,a5
80001fa0:	00f70c63          	beq	a4,a5,80001fb8 <__moddi3+0xd4>
80001fa4:	013c96b3          	sll	a3,s9,s3
80001fa8:	00fbd7b3          	srl	a5,s7,a5
80001fac:	01361ab3          	sll	s5,a2,s3
80001fb0:	00d7e933          	or	s2,a5,a3
80001fb4:	013b9433          	sll	s0,s7,s3
80001fb8:	010adb13          	srli	s6,s5,0x10
80001fbc:	000b0593          	mv	a1,s6
80001fc0:	00090513          	mv	a0,s2
80001fc4:	7cd000ef          	jal	ra,80002f90 <__umodsi3>
80001fc8:	010a9b93          	slli	s7,s5,0x10
80001fcc:	00050a13          	mv	s4,a0
80001fd0:	010bdb93          	srli	s7,s7,0x10
80001fd4:	000b0593          	mv	a1,s6
80001fd8:	00090513          	mv	a0,s2
80001fdc:	76d000ef          	jal	ra,80002f48 <__udivsi3>
80001fe0:	00050593          	mv	a1,a0
80001fe4:	000b8513          	mv	a0,s7
80001fe8:	735000ef          	jal	ra,80002f1c <__mulsi3>
80001fec:	010a1a13          	slli	s4,s4,0x10
80001ff0:	01045793          	srli	a5,s0,0x10
80001ff4:	00fa67b3          	or	a5,s4,a5
80001ff8:	00a7fa63          	bgeu	a5,a0,8000200c <__moddi3+0x128>
80001ffc:	015787b3          	add	a5,a5,s5
80002000:	0157e663          	bltu	a5,s5,8000200c <__moddi3+0x128>
80002004:	00a7f463          	bgeu	a5,a0,8000200c <__moddi3+0x128>
80002008:	015787b3          	add	a5,a5,s5
8000200c:	40a78933          	sub	s2,a5,a0
80002010:	000b0593          	mv	a1,s6
80002014:	00090513          	mv	a0,s2
80002018:	779000ef          	jal	ra,80002f90 <__umodsi3>
8000201c:	00050a13          	mv	s4,a0
80002020:	000b0593          	mv	a1,s6
80002024:	00090513          	mv	a0,s2
80002028:	721000ef          	jal	ra,80002f48 <__udivsi3>
8000202c:	01041413          	slli	s0,s0,0x10
80002030:	00050593          	mv	a1,a0
80002034:	010a1a13          	slli	s4,s4,0x10
80002038:	000b8513          	mv	a0,s7
8000203c:	01045413          	srli	s0,s0,0x10
80002040:	6dd000ef          	jal	ra,80002f1c <__mulsi3>
80002044:	008a6433          	or	s0,s4,s0
80002048:	00a47a63          	bgeu	s0,a0,8000205c <__moddi3+0x178>
8000204c:	01540433          	add	s0,s0,s5
80002050:	01546663          	bltu	s0,s5,8000205c <__moddi3+0x178>
80002054:	00a47463          	bgeu	s0,a0,8000205c <__moddi3+0x178>
80002058:	01540433          	add	s0,s0,s5
8000205c:	40a40433          	sub	s0,s0,a0
80002060:	01345533          	srl	a0,s0,s3
80002064:	00000593          	li	a1,0
80002068:	00048a63          	beqz	s1,8000207c <__moddi3+0x198>
8000206c:	00a037b3          	snez	a5,a0
80002070:	40b006b3          	neg	a3,a1
80002074:	40f685b3          	sub	a1,a3,a5
80002078:	40a00533          	neg	a0,a0
8000207c:	03c12083          	lw	ra,60(sp)
80002080:	03812403          	lw	s0,56(sp)
80002084:	03412483          	lw	s1,52(sp)
80002088:	03012903          	lw	s2,48(sp)
8000208c:	02c12983          	lw	s3,44(sp)
80002090:	02812a03          	lw	s4,40(sp)
80002094:	02412a83          	lw	s5,36(sp)
80002098:	02012b03          	lw	s6,32(sp)
8000209c:	01c12b83          	lw	s7,28(sp)
800020a0:	01812c03          	lw	s8,24(sp)
800020a4:	01412c83          	lw	s9,20(sp)
800020a8:	01012d03          	lw	s10,16(sp)
800020ac:	00c12d83          	lw	s11,12(sp)
800020b0:	04010113          	addi	sp,sp,64
800020b4:	00008067          	ret
800020b8:	010007b7          	lui	a5,0x1000
800020bc:	01000993          	li	s3,16
800020c0:	ecf664e3          	bltu	a2,a5,80001f88 <__moddi3+0xa4>
800020c4:	01800993          	li	s3,24
800020c8:	ec1ff06f          	j	80001f88 <__moddi3+0xa4>
800020cc:	00061a63          	bnez	a2,800020e0 <__moddi3+0x1fc>
800020d0:	00000593          	li	a1,0
800020d4:	00100513          	li	a0,1
800020d8:	671000ef          	jal	ra,80002f48 <__udivsi3>
800020dc:	00050a93          	mv	s5,a0
800020e0:	000107b7          	lui	a5,0x10
800020e4:	04fafc63          	bgeu	s5,a5,8000213c <__moddi3+0x258>
800020e8:	0ff00793          	li	a5,255
800020ec:	0157f463          	bgeu	a5,s5,800020f4 <__moddi3+0x210>
800020f0:	00800993          	li	s3,8
800020f4:	013ad7b3          	srl	a5,s5,s3
800020f8:	00fa0a33          	add	s4,s4,a5
800020fc:	000a4783          	lbu	a5,0(s4)
80002100:	02000713          	li	a4,32
80002104:	013787b3          	add	a5,a5,s3
80002108:	40f709b3          	sub	s3,a4,a5
8000210c:	04f71263          	bne	a4,a5,80002150 <__moddi3+0x26c>
80002110:	415c8cb3          	sub	s9,s9,s5
80002114:	010adb13          	srli	s6,s5,0x10
80002118:	000b0593          	mv	a1,s6
8000211c:	000c8513          	mv	a0,s9
80002120:	671000ef          	jal	ra,80002f90 <__umodsi3>
80002124:	010a9b93          	slli	s7,s5,0x10
80002128:	00050a13          	mv	s4,a0
8000212c:	010bdb93          	srli	s7,s7,0x10
80002130:	000b0593          	mv	a1,s6
80002134:	000c8513          	mv	a0,s9
80002138:	ea5ff06f          	j	80001fdc <__moddi3+0xf8>
8000213c:	010007b7          	lui	a5,0x1000
80002140:	01000993          	li	s3,16
80002144:	fafae8e3          	bltu	s5,a5,800020f4 <__moddi3+0x210>
80002148:	01800993          	li	s3,24
8000214c:	fa9ff06f          	j	800020f4 <__moddi3+0x210>
80002150:	013a9ab3          	sll	s5,s5,s3
80002154:	00fcdb33          	srl	s6,s9,a5
80002158:	010ad913          	srli	s2,s5,0x10
8000215c:	00fbd7b3          	srl	a5,s7,a5
80002160:	013c96b3          	sll	a3,s9,s3
80002164:	00090593          	mv	a1,s2
80002168:	000b0513          	mv	a0,s6
8000216c:	00d7ec33          	or	s8,a5,a3
80002170:	621000ef          	jal	ra,80002f90 <__umodsi3>
80002174:	00050a13          	mv	s4,a0
80002178:	00090593          	mv	a1,s2
8000217c:	013b9433          	sll	s0,s7,s3
80002180:	000b0513          	mv	a0,s6
80002184:	010a9b93          	slli	s7,s5,0x10
80002188:	5c1000ef          	jal	ra,80002f48 <__udivsi3>
8000218c:	010bdb93          	srli	s7,s7,0x10
80002190:	00050593          	mv	a1,a0
80002194:	000b8513          	mv	a0,s7
80002198:	585000ef          	jal	ra,80002f1c <__mulsi3>
8000219c:	010a1a13          	slli	s4,s4,0x10
800021a0:	010c5793          	srli	a5,s8,0x10
800021a4:	00fa67b3          	or	a5,s4,a5
800021a8:	00a7fa63          	bgeu	a5,a0,800021bc <__moddi3+0x2d8>
800021ac:	015787b3          	add	a5,a5,s5
800021b0:	0157e663          	bltu	a5,s5,800021bc <__moddi3+0x2d8>
800021b4:	00a7f463          	bgeu	a5,a0,800021bc <__moddi3+0x2d8>
800021b8:	015787b3          	add	a5,a5,s5
800021bc:	40a78b33          	sub	s6,a5,a0
800021c0:	00090593          	mv	a1,s2
800021c4:	000b0513          	mv	a0,s6
800021c8:	5c9000ef          	jal	ra,80002f90 <__umodsi3>
800021cc:	00050a13          	mv	s4,a0
800021d0:	00090593          	mv	a1,s2
800021d4:	000b0513          	mv	a0,s6
800021d8:	571000ef          	jal	ra,80002f48 <__udivsi3>
800021dc:	00050593          	mv	a1,a0
800021e0:	000b8513          	mv	a0,s7
800021e4:	539000ef          	jal	ra,80002f1c <__mulsi3>
800021e8:	010c1693          	slli	a3,s8,0x10
800021ec:	010a1a13          	slli	s4,s4,0x10
800021f0:	0106d693          	srli	a3,a3,0x10
800021f4:	00da66b3          	or	a3,s4,a3
800021f8:	00a6fa63          	bgeu	a3,a0,8000220c <__moddi3+0x328>
800021fc:	015686b3          	add	a3,a3,s5
80002200:	0156e663          	bltu	a3,s5,8000220c <__moddi3+0x328>
80002204:	00a6f463          	bgeu	a3,a0,8000220c <__moddi3+0x328>
80002208:	015686b3          	add	a3,a3,s5
8000220c:	40a68cb3          	sub	s9,a3,a0
80002210:	f05ff06f          	j	80002114 <__moddi3+0x230>
80002214:	00dcf863          	bgeu	s9,a3,80002224 <__moddi3+0x340>
80002218:	000b8513          	mv	a0,s7
8000221c:	000c8593          	mv	a1,s9
80002220:	e49ff06f          	j	80002068 <__moddi3+0x184>
80002224:	000107b7          	lui	a5,0x10
80002228:	04f6fc63          	bgeu	a3,a5,80002280 <__moddi3+0x39c>
8000222c:	0ff00b13          	li	s6,255
80002230:	00db3533          	sltu	a0,s6,a3
80002234:	00351513          	slli	a0,a0,0x3
80002238:	800037b7          	lui	a5,0x80003
8000223c:	00a6d733          	srl	a4,a3,a0
80002240:	23c78793          	addi	a5,a5,572 # 8000323c <_tbss_end+0xffff9d78>
80002244:	00e787b3          	add	a5,a5,a4
80002248:	0007cb03          	lbu	s6,0(a5)
8000224c:	02000793          	li	a5,32
80002250:	00ab0b33          	add	s6,s6,a0
80002254:	41678a33          	sub	s4,a5,s6
80002258:	03679e63          	bne	a5,s6,80002294 <__moddi3+0x3b0>
8000225c:	0196e463          	bltu	a3,s9,80002264 <__moddi3+0x380>
80002260:	00cbea63          	bltu	s7,a2,80002274 <__moddi3+0x390>
80002264:	40cb8433          	sub	s0,s7,a2
80002268:	40dc86b3          	sub	a3,s9,a3
8000226c:	008bbbb3          	sltu	s7,s7,s0
80002270:	41768933          	sub	s2,a3,s7
80002274:	00040513          	mv	a0,s0
80002278:	00090593          	mv	a1,s2
8000227c:	dedff06f          	j	80002068 <__moddi3+0x184>
80002280:	010007b7          	lui	a5,0x1000
80002284:	01000513          	li	a0,16
80002288:	faf6e8e3          	bltu	a3,a5,80002238 <__moddi3+0x354>
8000228c:	01800513          	li	a0,24
80002290:	fa9ff06f          	j	80002238 <__moddi3+0x354>
80002294:	016657b3          	srl	a5,a2,s6
80002298:	014696b3          	sll	a3,a3,s4
8000229c:	00d7ed33          	or	s10,a5,a3
800022a0:	016cd433          	srl	s0,s9,s6
800022a4:	010d5c13          	srli	s8,s10,0x10
800022a8:	014c96b3          	sll	a3,s9,s4
800022ac:	016bd933          	srl	s2,s7,s6
800022b0:	000c0593          	mv	a1,s8
800022b4:	00040513          	mv	a0,s0
800022b8:	00d96933          	or	s2,s2,a3
800022bc:	01461db3          	sll	s11,a2,s4
800022c0:	4d1000ef          	jal	ra,80002f90 <__umodsi3>
800022c4:	00050a93          	mv	s5,a0
800022c8:	000c0593          	mv	a1,s8
800022cc:	00040513          	mv	a0,s0
800022d0:	010d1c93          	slli	s9,s10,0x10
800022d4:	475000ef          	jal	ra,80002f48 <__udivsi3>
800022d8:	010cdc93          	srli	s9,s9,0x10
800022dc:	00050413          	mv	s0,a0
800022e0:	00050593          	mv	a1,a0
800022e4:	000c8513          	mv	a0,s9
800022e8:	435000ef          	jal	ra,80002f1c <__mulsi3>
800022ec:	010a9a93          	slli	s5,s5,0x10
800022f0:	01095713          	srli	a4,s2,0x10
800022f4:	00eae733          	or	a4,s5,a4
800022f8:	014b9bb3          	sll	s7,s7,s4
800022fc:	00040a93          	mv	s5,s0
80002300:	00a77e63          	bgeu	a4,a0,8000231c <__moddi3+0x438>
80002304:	01a70733          	add	a4,a4,s10
80002308:	fff40a93          	addi	s5,s0,-1
8000230c:	01a76863          	bltu	a4,s10,8000231c <__moddi3+0x438>
80002310:	00a77663          	bgeu	a4,a0,8000231c <__moddi3+0x438>
80002314:	ffe40a93          	addi	s5,s0,-2
80002318:	01a70733          	add	a4,a4,s10
8000231c:	40a709b3          	sub	s3,a4,a0
80002320:	000c0593          	mv	a1,s8
80002324:	00098513          	mv	a0,s3
80002328:	469000ef          	jal	ra,80002f90 <__umodsi3>
8000232c:	00050413          	mv	s0,a0
80002330:	000c0593          	mv	a1,s8
80002334:	00098513          	mv	a0,s3
80002338:	411000ef          	jal	ra,80002f48 <__udivsi3>
8000233c:	00050993          	mv	s3,a0
80002340:	00050593          	mv	a1,a0
80002344:	000c8513          	mv	a0,s9
80002348:	3d5000ef          	jal	ra,80002f1c <__mulsi3>
8000234c:	01091693          	slli	a3,s2,0x10
80002350:	01041413          	slli	s0,s0,0x10
80002354:	0106d693          	srli	a3,a3,0x10
80002358:	00d466b3          	or	a3,s0,a3
8000235c:	00098793          	mv	a5,s3
80002360:	00a6fe63          	bgeu	a3,a0,8000237c <__moddi3+0x498>
80002364:	01a686b3          	add	a3,a3,s10
80002368:	fff98793          	addi	a5,s3,-1
8000236c:	01a6e863          	bltu	a3,s10,8000237c <__moddi3+0x498>
80002370:	00a6f663          	bgeu	a3,a0,8000237c <__moddi3+0x498>
80002374:	ffe98793          	addi	a5,s3,-2
80002378:	01a686b3          	add	a3,a3,s10
8000237c:	00010337          	lui	t1,0x10
80002380:	010a9a93          	slli	s5,s5,0x10
80002384:	00faeab3          	or	s5,s5,a5
80002388:	fff30813          	addi	a6,t1,-1 # ffff <buflen.2941+0xffbf>
8000238c:	010af733          	and	a4,s5,a6
80002390:	010df833          	and	a6,s11,a6
80002394:	40a68933          	sub	s2,a3,a0
80002398:	010ada93          	srli	s5,s5,0x10
8000239c:	010dd893          	srli	a7,s11,0x10
800023a0:	00070513          	mv	a0,a4
800023a4:	00080593          	mv	a1,a6
800023a8:	375000ef          	jal	ra,80002f1c <__mulsi3>
800023ac:	00050793          	mv	a5,a0
800023b0:	00088593          	mv	a1,a7
800023b4:	00070513          	mv	a0,a4
800023b8:	365000ef          	jal	ra,80002f1c <__mulsi3>
800023bc:	00050713          	mv	a4,a0
800023c0:	00080593          	mv	a1,a6
800023c4:	000a8513          	mv	a0,s5
800023c8:	355000ef          	jal	ra,80002f1c <__mulsi3>
800023cc:	00050813          	mv	a6,a0
800023d0:	00088593          	mv	a1,a7
800023d4:	000a8513          	mv	a0,s5
800023d8:	345000ef          	jal	ra,80002f1c <__mulsi3>
800023dc:	01070733          	add	a4,a4,a6
800023e0:	0107d693          	srli	a3,a5,0x10
800023e4:	00d70733          	add	a4,a4,a3
800023e8:	01077463          	bgeu	a4,a6,800023f0 <__moddi3+0x50c>
800023ec:	00650533          	add	a0,a0,t1
800023f0:	01075593          	srli	a1,a4,0x10
800023f4:	00a585b3          	add	a1,a1,a0
800023f8:	00010537          	lui	a0,0x10
800023fc:	fff50513          	addi	a0,a0,-1 # ffff <buflen.2941+0xffbf>
80002400:	00a77733          	and	a4,a4,a0
80002404:	01071713          	slli	a4,a4,0x10
80002408:	00a7f7b3          	and	a5,a5,a0
8000240c:	00f707b3          	add	a5,a4,a5
80002410:	00b96663          	bltu	s2,a1,8000241c <__moddi3+0x538>
80002414:	00b91e63          	bne	s2,a1,80002430 <__moddi3+0x54c>
80002418:	00fbfc63          	bgeu	s7,a5,80002430 <__moddi3+0x54c>
8000241c:	41b78633          	sub	a2,a5,s11
80002420:	00c7b7b3          	sltu	a5,a5,a2
80002424:	01a787b3          	add	a5,a5,s10
80002428:	40f585b3          	sub	a1,a1,a5
8000242c:	00060793          	mv	a5,a2
80002430:	40fb87b3          	sub	a5,s7,a5
80002434:	00fbbbb3          	sltu	s7,s7,a5
80002438:	40b905b3          	sub	a1,s2,a1
8000243c:	417585b3          	sub	a1,a1,s7
80002440:	01659433          	sll	s0,a1,s6
80002444:	0147d7b3          	srl	a5,a5,s4
80002448:	00f46533          	or	a0,s0,a5
8000244c:	0145d5b3          	srl	a1,a1,s4
80002450:	c19ff06f          	j	80002068 <__moddi3+0x184>

80002454 <__udivdi3>:
80002454:	fd010113          	addi	sp,sp,-48
80002458:	02812423          	sw	s0,40(sp)
8000245c:	01712623          	sw	s7,12(sp)
80002460:	02112623          	sw	ra,44(sp)
80002464:	02912223          	sw	s1,36(sp)
80002468:	03212023          	sw	s2,32(sp)
8000246c:	01312e23          	sw	s3,28(sp)
80002470:	01412c23          	sw	s4,24(sp)
80002474:	01512a23          	sw	s5,20(sp)
80002478:	01612823          	sw	s6,16(sp)
8000247c:	01812423          	sw	s8,8(sp)
80002480:	01912223          	sw	s9,4(sp)
80002484:	00050b93          	mv	s7,a0
80002488:	00058413          	mv	s0,a1
8000248c:	38069c63          	bnez	a3,80002824 <__udivdi3+0x3d0>
80002490:	800034b7          	lui	s1,0x80003
80002494:	00060913          	mv	s2,a2
80002498:	00050a13          	mv	s4,a0
8000249c:	23c48493          	addi	s1,s1,572 # 8000323c <_tbss_end+0xffff9d78>
800024a0:	12c5f863          	bgeu	a1,a2,800025d0 <__udivdi3+0x17c>
800024a4:	000107b7          	lui	a5,0x10
800024a8:	00058c13          	mv	s8,a1
800024ac:	10f67863          	bgeu	a2,a5,800025bc <__udivdi3+0x168>
800024b0:	0ff00713          	li	a4,255
800024b4:	00c73733          	sltu	a4,a4,a2
800024b8:	00371713          	slli	a4,a4,0x3
800024bc:	00e657b3          	srl	a5,a2,a4
800024c0:	00f484b3          	add	s1,s1,a5
800024c4:	0004c683          	lbu	a3,0(s1)
800024c8:	00e68733          	add	a4,a3,a4
800024cc:	02000693          	li	a3,32
800024d0:	40e687b3          	sub	a5,a3,a4
800024d4:	00e68c63          	beq	a3,a4,800024ec <__udivdi3+0x98>
800024d8:	00f41433          	sll	s0,s0,a5
800024dc:	00ebd733          	srl	a4,s7,a4
800024e0:	00f61933          	sll	s2,a2,a5
800024e4:	00876c33          	or	s8,a4,s0
800024e8:	00fb9a33          	sll	s4,s7,a5
800024ec:	01095b13          	srli	s6,s2,0x10
800024f0:	000b0593          	mv	a1,s6
800024f4:	000c0513          	mv	a0,s8
800024f8:	299000ef          	jal	ra,80002f90 <__umodsi3>
800024fc:	00050493          	mv	s1,a0
80002500:	000b0593          	mv	a1,s6
80002504:	01091a93          	slli	s5,s2,0x10
80002508:	000c0513          	mv	a0,s8
8000250c:	23d000ef          	jal	ra,80002f48 <__udivsi3>
80002510:	010ada93          	srli	s5,s5,0x10
80002514:	00050413          	mv	s0,a0
80002518:	00050593          	mv	a1,a0
8000251c:	000a8513          	mv	a0,s5
80002520:	1fd000ef          	jal	ra,80002f1c <__mulsi3>
80002524:	01049493          	slli	s1,s1,0x10
80002528:	010a5713          	srli	a4,s4,0x10
8000252c:	00e4e733          	or	a4,s1,a4
80002530:	00040993          	mv	s3,s0
80002534:	00a77e63          	bgeu	a4,a0,80002550 <__udivdi3+0xfc>
80002538:	01270733          	add	a4,a4,s2
8000253c:	fff40993          	addi	s3,s0,-1
80002540:	01276863          	bltu	a4,s2,80002550 <__udivdi3+0xfc>
80002544:	00a77663          	bgeu	a4,a0,80002550 <__udivdi3+0xfc>
80002548:	ffe40993          	addi	s3,s0,-2
8000254c:	01270733          	add	a4,a4,s2
80002550:	40a70433          	sub	s0,a4,a0
80002554:	000b0593          	mv	a1,s6
80002558:	00040513          	mv	a0,s0
8000255c:	235000ef          	jal	ra,80002f90 <__umodsi3>
80002560:	00050493          	mv	s1,a0
80002564:	000b0593          	mv	a1,s6
80002568:	00040513          	mv	a0,s0
8000256c:	1dd000ef          	jal	ra,80002f48 <__udivsi3>
80002570:	010a1a13          	slli	s4,s4,0x10
80002574:	00050413          	mv	s0,a0
80002578:	00050593          	mv	a1,a0
8000257c:	01049493          	slli	s1,s1,0x10
80002580:	000a8513          	mv	a0,s5
80002584:	010a5a13          	srli	s4,s4,0x10
80002588:	195000ef          	jal	ra,80002f1c <__mulsi3>
8000258c:	0144ea33          	or	s4,s1,s4
80002590:	00040613          	mv	a2,s0
80002594:	00aa7c63          	bgeu	s4,a0,800025ac <__udivdi3+0x158>
80002598:	01490a33          	add	s4,s2,s4
8000259c:	fff40613          	addi	a2,s0,-1
800025a0:	012a6663          	bltu	s4,s2,800025ac <__udivdi3+0x158>
800025a4:	00aa7463          	bgeu	s4,a0,800025ac <__udivdi3+0x158>
800025a8:	ffe40613          	addi	a2,s0,-2
800025ac:	01099793          	slli	a5,s3,0x10
800025b0:	00c7e7b3          	or	a5,a5,a2
800025b4:	00000493          	li	s1,0
800025b8:	1300006f          	j	800026e8 <__udivdi3+0x294>
800025bc:	010007b7          	lui	a5,0x1000
800025c0:	01000713          	li	a4,16
800025c4:	eef66ce3          	bltu	a2,a5,800024bc <__udivdi3+0x68>
800025c8:	01800713          	li	a4,24
800025cc:	ef1ff06f          	j	800024bc <__udivdi3+0x68>
800025d0:	00068993          	mv	s3,a3
800025d4:	00061a63          	bnez	a2,800025e8 <__udivdi3+0x194>
800025d8:	00000593          	li	a1,0
800025dc:	00100513          	li	a0,1
800025e0:	169000ef          	jal	ra,80002f48 <__udivsi3>
800025e4:	00050913          	mv	s2,a0
800025e8:	000107b7          	lui	a5,0x10
800025ec:	12f97c63          	bgeu	s2,a5,80002724 <__udivdi3+0x2d0>
800025f0:	0ff00793          	li	a5,255
800025f4:	0127f463          	bgeu	a5,s2,800025fc <__udivdi3+0x1a8>
800025f8:	00800993          	li	s3,8
800025fc:	013957b3          	srl	a5,s2,s3
80002600:	00f484b3          	add	s1,s1,a5
80002604:	0004c783          	lbu	a5,0(s1)
80002608:	02000693          	li	a3,32
8000260c:	013787b3          	add	a5,a5,s3
80002610:	40f68733          	sub	a4,a3,a5
80002614:	12f69263          	bne	a3,a5,80002738 <__udivdi3+0x2e4>
80002618:	41240433          	sub	s0,s0,s2
8000261c:	00100493          	li	s1,1
80002620:	01095a93          	srli	s5,s2,0x10
80002624:	000a8593          	mv	a1,s5
80002628:	00040513          	mv	a0,s0
8000262c:	165000ef          	jal	ra,80002f90 <__umodsi3>
80002630:	00050993          	mv	s3,a0
80002634:	000a8593          	mv	a1,s5
80002638:	00040513          	mv	a0,s0
8000263c:	01091b13          	slli	s6,s2,0x10
80002640:	109000ef          	jal	ra,80002f48 <__udivsi3>
80002644:	010b5b13          	srli	s6,s6,0x10
80002648:	00050413          	mv	s0,a0
8000264c:	00050593          	mv	a1,a0
80002650:	000b0513          	mv	a0,s6
80002654:	0c9000ef          	jal	ra,80002f1c <__mulsi3>
80002658:	01099993          	slli	s3,s3,0x10
8000265c:	010a5713          	srli	a4,s4,0x10
80002660:	00e9e733          	or	a4,s3,a4
80002664:	00040b93          	mv	s7,s0
80002668:	00a77e63          	bgeu	a4,a0,80002684 <__udivdi3+0x230>
8000266c:	01270733          	add	a4,a4,s2
80002670:	fff40b93          	addi	s7,s0,-1
80002674:	01276863          	bltu	a4,s2,80002684 <__udivdi3+0x230>
80002678:	00a77663          	bgeu	a4,a0,80002684 <__udivdi3+0x230>
8000267c:	ffe40b93          	addi	s7,s0,-2
80002680:	01270733          	add	a4,a4,s2
80002684:	40a70433          	sub	s0,a4,a0
80002688:	000a8593          	mv	a1,s5
8000268c:	00040513          	mv	a0,s0
80002690:	101000ef          	jal	ra,80002f90 <__umodsi3>
80002694:	00050993          	mv	s3,a0
80002698:	000a8593          	mv	a1,s5
8000269c:	00040513          	mv	a0,s0
800026a0:	0a9000ef          	jal	ra,80002f48 <__udivsi3>
800026a4:	010a1a13          	slli	s4,s4,0x10
800026a8:	00050413          	mv	s0,a0
800026ac:	00050593          	mv	a1,a0
800026b0:	01099993          	slli	s3,s3,0x10
800026b4:	000b0513          	mv	a0,s6
800026b8:	010a5a13          	srli	s4,s4,0x10
800026bc:	061000ef          	jal	ra,80002f1c <__mulsi3>
800026c0:	0149ea33          	or	s4,s3,s4
800026c4:	00040613          	mv	a2,s0
800026c8:	00aa7c63          	bgeu	s4,a0,800026e0 <__udivdi3+0x28c>
800026cc:	01490a33          	add	s4,s2,s4
800026d0:	fff40613          	addi	a2,s0,-1
800026d4:	012a6663          	bltu	s4,s2,800026e0 <__udivdi3+0x28c>
800026d8:	00aa7463          	bgeu	s4,a0,800026e0 <__udivdi3+0x28c>
800026dc:	ffe40613          	addi	a2,s0,-2
800026e0:	010b9793          	slli	a5,s7,0x10
800026e4:	00c7e7b3          	or	a5,a5,a2
800026e8:	00078513          	mv	a0,a5
800026ec:	00048593          	mv	a1,s1
800026f0:	02c12083          	lw	ra,44(sp)
800026f4:	02812403          	lw	s0,40(sp)
800026f8:	02412483          	lw	s1,36(sp)
800026fc:	02012903          	lw	s2,32(sp)
80002700:	01c12983          	lw	s3,28(sp)
80002704:	01812a03          	lw	s4,24(sp)
80002708:	01412a83          	lw	s5,20(sp)
8000270c:	01012b03          	lw	s6,16(sp)
80002710:	00c12b83          	lw	s7,12(sp)
80002714:	00812c03          	lw	s8,8(sp)
80002718:	00412c83          	lw	s9,4(sp)
8000271c:	03010113          	addi	sp,sp,48
80002720:	00008067          	ret
80002724:	010007b7          	lui	a5,0x1000
80002728:	01000993          	li	s3,16
8000272c:	ecf968e3          	bltu	s2,a5,800025fc <__udivdi3+0x1a8>
80002730:	01800993          	li	s3,24
80002734:	ec9ff06f          	j	800025fc <__udivdi3+0x1a8>
80002738:	00e91933          	sll	s2,s2,a4
8000273c:	00f459b3          	srl	s3,s0,a5
80002740:	00fbd7b3          	srl	a5,s7,a5
80002744:	00e41433          	sll	s0,s0,a4
80002748:	0087eab3          	or	s5,a5,s0
8000274c:	01095413          	srli	s0,s2,0x10
80002750:	00040593          	mv	a1,s0
80002754:	00098513          	mv	a0,s3
80002758:	00eb9a33          	sll	s4,s7,a4
8000275c:	035000ef          	jal	ra,80002f90 <__umodsi3>
80002760:	00050493          	mv	s1,a0
80002764:	00040593          	mv	a1,s0
80002768:	00098513          	mv	a0,s3
8000276c:	01091b13          	slli	s6,s2,0x10
80002770:	7d8000ef          	jal	ra,80002f48 <__udivsi3>
80002774:	010b5b13          	srli	s6,s6,0x10
80002778:	00050993          	mv	s3,a0
8000277c:	00050593          	mv	a1,a0
80002780:	000b0513          	mv	a0,s6
80002784:	798000ef          	jal	ra,80002f1c <__mulsi3>
80002788:	01049493          	slli	s1,s1,0x10
8000278c:	010ad793          	srli	a5,s5,0x10
80002790:	00f4e7b3          	or	a5,s1,a5
80002794:	00098b93          	mv	s7,s3
80002798:	00a7fe63          	bgeu	a5,a0,800027b4 <__udivdi3+0x360>
8000279c:	012787b3          	add	a5,a5,s2
800027a0:	fff98b93          	addi	s7,s3,-1
800027a4:	0127e863          	bltu	a5,s2,800027b4 <__udivdi3+0x360>
800027a8:	00a7f663          	bgeu	a5,a0,800027b4 <__udivdi3+0x360>
800027ac:	ffe98b93          	addi	s7,s3,-2
800027b0:	012787b3          	add	a5,a5,s2
800027b4:	40a789b3          	sub	s3,a5,a0
800027b8:	00040593          	mv	a1,s0
800027bc:	00098513          	mv	a0,s3
800027c0:	7d0000ef          	jal	ra,80002f90 <__umodsi3>
800027c4:	00040593          	mv	a1,s0
800027c8:	00050493          	mv	s1,a0
800027cc:	00098513          	mv	a0,s3
800027d0:	778000ef          	jal	ra,80002f48 <__udivsi3>
800027d4:	010a9413          	slli	s0,s5,0x10
800027d8:	00050993          	mv	s3,a0
800027dc:	00050593          	mv	a1,a0
800027e0:	01049493          	slli	s1,s1,0x10
800027e4:	000b0513          	mv	a0,s6
800027e8:	01045413          	srli	s0,s0,0x10
800027ec:	730000ef          	jal	ra,80002f1c <__mulsi3>
800027f0:	0084e433          	or	s0,s1,s0
800027f4:	00098793          	mv	a5,s3
800027f8:	00a47e63          	bgeu	s0,a0,80002814 <__udivdi3+0x3c0>
800027fc:	01240433          	add	s0,s0,s2
80002800:	fff98793          	addi	a5,s3,-1
80002804:	01246863          	bltu	s0,s2,80002814 <__udivdi3+0x3c0>
80002808:	00a47663          	bgeu	s0,a0,80002814 <__udivdi3+0x3c0>
8000280c:	ffe98793          	addi	a5,s3,-2
80002810:	01240433          	add	s0,s0,s2
80002814:	010b9493          	slli	s1,s7,0x10
80002818:	40a40433          	sub	s0,s0,a0
8000281c:	00f4e4b3          	or	s1,s1,a5
80002820:	e01ff06f          	j	80002620 <__udivdi3+0x1cc>
80002824:	1ed5ee63          	bltu	a1,a3,80002a20 <__udivdi3+0x5cc>
80002828:	000107b7          	lui	a5,0x10
8000282c:	04f6f463          	bgeu	a3,a5,80002874 <__udivdi3+0x420>
80002830:	0ff00a93          	li	s5,255
80002834:	00dab733          	sltu	a4,s5,a3
80002838:	00371713          	slli	a4,a4,0x3
8000283c:	800037b7          	lui	a5,0x80003
80002840:	00e6d5b3          	srl	a1,a3,a4
80002844:	23c78793          	addi	a5,a5,572 # 8000323c <_tbss_end+0xffff9d78>
80002848:	00b787b3          	add	a5,a5,a1
8000284c:	0007ca83          	lbu	s5,0(a5)
80002850:	02000793          	li	a5,32
80002854:	00ea8ab3          	add	s5,s5,a4
80002858:	415784b3          	sub	s1,a5,s5
8000285c:	03579663          	bne	a5,s5,80002888 <__udivdi3+0x434>
80002860:	00100793          	li	a5,1
80002864:	e886e2e3          	bltu	a3,s0,800026e8 <__udivdi3+0x294>
80002868:	00cbb7b3          	sltu	a5,s7,a2
8000286c:	0017c793          	xori	a5,a5,1
80002870:	e79ff06f          	j	800026e8 <__udivdi3+0x294>
80002874:	010007b7          	lui	a5,0x1000
80002878:	01000713          	li	a4,16
8000287c:	fcf6e0e3          	bltu	a3,a5,8000283c <__udivdi3+0x3e8>
80002880:	01800713          	li	a4,24
80002884:	fb9ff06f          	j	8000283c <__udivdi3+0x3e8>
80002888:	01565cb3          	srl	s9,a2,s5
8000288c:	009696b3          	sll	a3,a3,s1
80002890:	00dcecb3          	or	s9,s9,a3
80002894:	015459b3          	srl	s3,s0,s5
80002898:	00941433          	sll	s0,s0,s1
8000289c:	015bdab3          	srl	s5,s7,s5
800028a0:	008aeab3          	or	s5,s5,s0
800028a4:	010cd413          	srli	s0,s9,0x10
800028a8:	00040593          	mv	a1,s0
800028ac:	00098513          	mv	a0,s3
800028b0:	00961933          	sll	s2,a2,s1
800028b4:	6dc000ef          	jal	ra,80002f90 <__umodsi3>
800028b8:	00050a13          	mv	s4,a0
800028bc:	00040593          	mv	a1,s0
800028c0:	00098513          	mv	a0,s3
800028c4:	010c9b13          	slli	s6,s9,0x10
800028c8:	680000ef          	jal	ra,80002f48 <__udivsi3>
800028cc:	010b5b13          	srli	s6,s6,0x10
800028d0:	00050993          	mv	s3,a0
800028d4:	00050593          	mv	a1,a0
800028d8:	000b0513          	mv	a0,s6
800028dc:	640000ef          	jal	ra,80002f1c <__mulsi3>
800028e0:	010a1a13          	slli	s4,s4,0x10
800028e4:	010ad713          	srli	a4,s5,0x10
800028e8:	00ea6733          	or	a4,s4,a4
800028ec:	00098c13          	mv	s8,s3
800028f0:	00a77e63          	bgeu	a4,a0,8000290c <__udivdi3+0x4b8>
800028f4:	01970733          	add	a4,a4,s9
800028f8:	fff98c13          	addi	s8,s3,-1
800028fc:	01976863          	bltu	a4,s9,8000290c <__udivdi3+0x4b8>
80002900:	00a77663          	bgeu	a4,a0,8000290c <__udivdi3+0x4b8>
80002904:	ffe98c13          	addi	s8,s3,-2
80002908:	01970733          	add	a4,a4,s9
8000290c:	40a709b3          	sub	s3,a4,a0
80002910:	00040593          	mv	a1,s0
80002914:	00098513          	mv	a0,s3
80002918:	678000ef          	jal	ra,80002f90 <__umodsi3>
8000291c:	00040593          	mv	a1,s0
80002920:	00050a13          	mv	s4,a0
80002924:	00098513          	mv	a0,s3
80002928:	620000ef          	jal	ra,80002f48 <__udivsi3>
8000292c:	010a9413          	slli	s0,s5,0x10
80002930:	00050993          	mv	s3,a0
80002934:	00050593          	mv	a1,a0
80002938:	010a1a13          	slli	s4,s4,0x10
8000293c:	000b0513          	mv	a0,s6
80002940:	01045413          	srli	s0,s0,0x10
80002944:	5d8000ef          	jal	ra,80002f1c <__mulsi3>
80002948:	008a6433          	or	s0,s4,s0
8000294c:	00098613          	mv	a2,s3
80002950:	00a47e63          	bgeu	s0,a0,8000296c <__udivdi3+0x518>
80002954:	01940433          	add	s0,s0,s9
80002958:	fff98613          	addi	a2,s3,-1
8000295c:	01946863          	bltu	s0,s9,8000296c <__udivdi3+0x518>
80002960:	00a47663          	bgeu	s0,a0,8000296c <__udivdi3+0x518>
80002964:	ffe98613          	addi	a2,s3,-2
80002968:	01940433          	add	s0,s0,s9
8000296c:	010c1793          	slli	a5,s8,0x10
80002970:	00010e37          	lui	t3,0x10
80002974:	00c7e7b3          	or	a5,a5,a2
80002978:	fffe0313          	addi	t1,t3,-1 # ffff <buflen.2941+0xffbf>
8000297c:	0067f8b3          	and	a7,a5,t1
80002980:	00697333          	and	t1,s2,t1
80002984:	40a40433          	sub	s0,s0,a0
80002988:	0107de93          	srli	t4,a5,0x10
8000298c:	01095913          	srli	s2,s2,0x10
80002990:	00088513          	mv	a0,a7
80002994:	00030593          	mv	a1,t1
80002998:	584000ef          	jal	ra,80002f1c <__mulsi3>
8000299c:	00050813          	mv	a6,a0
800029a0:	00090593          	mv	a1,s2
800029a4:	00088513          	mv	a0,a7
800029a8:	574000ef          	jal	ra,80002f1c <__mulsi3>
800029ac:	00050893          	mv	a7,a0
800029b0:	00030593          	mv	a1,t1
800029b4:	000e8513          	mv	a0,t4
800029b8:	564000ef          	jal	ra,80002f1c <__mulsi3>
800029bc:	00050313          	mv	t1,a0
800029c0:	00090593          	mv	a1,s2
800029c4:	000e8513          	mv	a0,t4
800029c8:	554000ef          	jal	ra,80002f1c <__mulsi3>
800029cc:	01085713          	srli	a4,a6,0x10
800029d0:	006888b3          	add	a7,a7,t1
800029d4:	01170733          	add	a4,a4,a7
800029d8:	00050693          	mv	a3,a0
800029dc:	00677463          	bgeu	a4,t1,800029e4 <__udivdi3+0x590>
800029e0:	01c506b3          	add	a3,a0,t3
800029e4:	01075513          	srli	a0,a4,0x10
800029e8:	00d506b3          	add	a3,a0,a3
800029ec:	02d46663          	bltu	s0,a3,80002a18 <__udivdi3+0x5c4>
800029f0:	bcd412e3          	bne	s0,a3,800025b4 <__udivdi3+0x160>
800029f4:	00010537          	lui	a0,0x10
800029f8:	fff50513          	addi	a0,a0,-1 # ffff <buflen.2941+0xffbf>
800029fc:	00a77733          	and	a4,a4,a0
80002a00:	01071713          	slli	a4,a4,0x10
80002a04:	00a87833          	and	a6,a6,a0
80002a08:	009b9bb3          	sll	s7,s7,s1
80002a0c:	01070733          	add	a4,a4,a6
80002a10:	00000493          	li	s1,0
80002a14:	ccebfae3          	bgeu	s7,a4,800026e8 <__udivdi3+0x294>
80002a18:	fff78793          	addi	a5,a5,-1 # ffffff <buflen.2941+0xffffbf>
80002a1c:	b99ff06f          	j	800025b4 <__udivdi3+0x160>
80002a20:	00000493          	li	s1,0
80002a24:	00000793          	li	a5,0
80002a28:	cc1ff06f          	j	800026e8 <__udivdi3+0x294>

80002a2c <__umoddi3>:
80002a2c:	fd010113          	addi	sp,sp,-48
80002a30:	02812423          	sw	s0,40(sp)
80002a34:	02912223          	sw	s1,36(sp)
80002a38:	03212023          	sw	s2,32(sp)
80002a3c:	01612823          	sw	s6,16(sp)
80002a40:	02112623          	sw	ra,44(sp)
80002a44:	01312e23          	sw	s3,28(sp)
80002a48:	01412c23          	sw	s4,24(sp)
80002a4c:	01512a23          	sw	s5,20(sp)
80002a50:	01712623          	sw	s7,12(sp)
80002a54:	01812423          	sw	s8,8(sp)
80002a58:	01912223          	sw	s9,4(sp)
80002a5c:	01a12023          	sw	s10,0(sp)
80002a60:	00050913          	mv	s2,a0
80002a64:	00058b13          	mv	s6,a1
80002a68:	00050413          	mv	s0,a0
80002a6c:	00058493          	mv	s1,a1
80002a70:	26069c63          	bnez	a3,80002ce8 <__umoddi3+0x2bc>
80002a74:	80003ab7          	lui	s5,0x80003
80002a78:	00060a13          	mv	s4,a2
80002a7c:	00068993          	mv	s3,a3
80002a80:	23ca8a93          	addi	s5,s5,572 # 8000323c <_tbss_end+0xffff9d78>
80002a84:	14c5f263          	bgeu	a1,a2,80002bc8 <__umoddi3+0x19c>
80002a88:	000107b7          	lui	a5,0x10
80002a8c:	12f67463          	bgeu	a2,a5,80002bb4 <__umoddi3+0x188>
80002a90:	0ff00793          	li	a5,255
80002a94:	00c7f463          	bgeu	a5,a2,80002a9c <__umoddi3+0x70>
80002a98:	00800993          	li	s3,8
80002a9c:	013657b3          	srl	a5,a2,s3
80002aa0:	00fa8ab3          	add	s5,s5,a5
80002aa4:	000ac783          	lbu	a5,0(s5)
80002aa8:	02000713          	li	a4,32
80002aac:	013787b3          	add	a5,a5,s3
80002ab0:	40f709b3          	sub	s3,a4,a5
80002ab4:	00f70c63          	beq	a4,a5,80002acc <__umoddi3+0xa0>
80002ab8:	013b15b3          	sll	a1,s6,s3
80002abc:	00f957b3          	srl	a5,s2,a5
80002ac0:	01361a33          	sll	s4,a2,s3
80002ac4:	00b7e4b3          	or	s1,a5,a1
80002ac8:	01391433          	sll	s0,s2,s3
80002acc:	010a5a93          	srli	s5,s4,0x10
80002ad0:	000a8593          	mv	a1,s5
80002ad4:	00048513          	mv	a0,s1
80002ad8:	4b8000ef          	jal	ra,80002f90 <__umodsi3>
80002adc:	00050913          	mv	s2,a0
80002ae0:	000a8593          	mv	a1,s5
80002ae4:	010a1b13          	slli	s6,s4,0x10
80002ae8:	00048513          	mv	a0,s1
80002aec:	45c000ef          	jal	ra,80002f48 <__udivsi3>
80002af0:	010b5b13          	srli	s6,s6,0x10
80002af4:	00050593          	mv	a1,a0
80002af8:	000b0513          	mv	a0,s6
80002afc:	420000ef          	jal	ra,80002f1c <__mulsi3>
80002b00:	01091913          	slli	s2,s2,0x10
80002b04:	01045793          	srli	a5,s0,0x10
80002b08:	00f967b3          	or	a5,s2,a5
80002b0c:	00a7fa63          	bgeu	a5,a0,80002b20 <__umoddi3+0xf4>
80002b10:	014787b3          	add	a5,a5,s4
80002b14:	0147e663          	bltu	a5,s4,80002b20 <__umoddi3+0xf4>
80002b18:	00a7f463          	bgeu	a5,a0,80002b20 <__umoddi3+0xf4>
80002b1c:	014787b3          	add	a5,a5,s4
80002b20:	40a784b3          	sub	s1,a5,a0
80002b24:	000a8593          	mv	a1,s5
80002b28:	00048513          	mv	a0,s1
80002b2c:	464000ef          	jal	ra,80002f90 <__umodsi3>
80002b30:	00050913          	mv	s2,a0
80002b34:	000a8593          	mv	a1,s5
80002b38:	00048513          	mv	a0,s1
80002b3c:	40c000ef          	jal	ra,80002f48 <__udivsi3>
80002b40:	01041413          	slli	s0,s0,0x10
80002b44:	00050593          	mv	a1,a0
80002b48:	01091913          	slli	s2,s2,0x10
80002b4c:	000b0513          	mv	a0,s6
80002b50:	01045413          	srli	s0,s0,0x10
80002b54:	3c8000ef          	jal	ra,80002f1c <__mulsi3>
80002b58:	00896433          	or	s0,s2,s0
80002b5c:	00a47a63          	bgeu	s0,a0,80002b70 <__umoddi3+0x144>
80002b60:	01440433          	add	s0,s0,s4
80002b64:	01446663          	bltu	s0,s4,80002b70 <__umoddi3+0x144>
80002b68:	00a47463          	bgeu	s0,a0,80002b70 <__umoddi3+0x144>
80002b6c:	01440433          	add	s0,s0,s4
80002b70:	40a40433          	sub	s0,s0,a0
80002b74:	01345533          	srl	a0,s0,s3
80002b78:	00000593          	li	a1,0
80002b7c:	02c12083          	lw	ra,44(sp)
80002b80:	02812403          	lw	s0,40(sp)
80002b84:	02412483          	lw	s1,36(sp)
80002b88:	02012903          	lw	s2,32(sp)
80002b8c:	01c12983          	lw	s3,28(sp)
80002b90:	01812a03          	lw	s4,24(sp)
80002b94:	01412a83          	lw	s5,20(sp)
80002b98:	01012b03          	lw	s6,16(sp)
80002b9c:	00c12b83          	lw	s7,12(sp)
80002ba0:	00812c03          	lw	s8,8(sp)
80002ba4:	00412c83          	lw	s9,4(sp)
80002ba8:	00012d03          	lw	s10,0(sp)
80002bac:	03010113          	addi	sp,sp,48
80002bb0:	00008067          	ret
80002bb4:	010007b7          	lui	a5,0x1000
80002bb8:	01000993          	li	s3,16
80002bbc:	eef660e3          	bltu	a2,a5,80002a9c <__umoddi3+0x70>
80002bc0:	01800993          	li	s3,24
80002bc4:	ed9ff06f          	j	80002a9c <__umoddi3+0x70>
80002bc8:	00061a63          	bnez	a2,80002bdc <__umoddi3+0x1b0>
80002bcc:	00000593          	li	a1,0
80002bd0:	00100513          	li	a0,1
80002bd4:	374000ef          	jal	ra,80002f48 <__udivsi3>
80002bd8:	00050a13          	mv	s4,a0
80002bdc:	000107b7          	lui	a5,0x10
80002be0:	0efa7a63          	bgeu	s4,a5,80002cd4 <__umoddi3+0x2a8>
80002be4:	0ff00793          	li	a5,255
80002be8:	0147f463          	bgeu	a5,s4,80002bf0 <__umoddi3+0x1c4>
80002bec:	00800993          	li	s3,8
80002bf0:	013a57b3          	srl	a5,s4,s3
80002bf4:	00fa8ab3          	add	s5,s5,a5
80002bf8:	000ac783          	lbu	a5,0(s5)
80002bfc:	02000713          	li	a4,32
80002c00:	414b04b3          	sub	s1,s6,s4
80002c04:	013787b3          	add	a5,a5,s3
80002c08:	40f709b3          	sub	s3,a4,a5
80002c0c:	ecf700e3          	beq	a4,a5,80002acc <__umoddi3+0xa0>
80002c10:	013a1a33          	sll	s4,s4,s3
80002c14:	00fb5ab3          	srl	s5,s6,a5
80002c18:	013b15b3          	sll	a1,s6,s3
80002c1c:	00f957b3          	srl	a5,s2,a5
80002c20:	010a5493          	srli	s1,s4,0x10
80002c24:	00b7eb33          	or	s6,a5,a1
80002c28:	000a8513          	mv	a0,s5
80002c2c:	00048593          	mv	a1,s1
80002c30:	360000ef          	jal	ra,80002f90 <__umodsi3>
80002c34:	00048593          	mv	a1,s1
80002c38:	01391433          	sll	s0,s2,s3
80002c3c:	010a1b93          	slli	s7,s4,0x10
80002c40:	00050913          	mv	s2,a0
80002c44:	000a8513          	mv	a0,s5
80002c48:	300000ef          	jal	ra,80002f48 <__udivsi3>
80002c4c:	010bdb93          	srli	s7,s7,0x10
80002c50:	00050593          	mv	a1,a0
80002c54:	000b8513          	mv	a0,s7
80002c58:	2c4000ef          	jal	ra,80002f1c <__mulsi3>
80002c5c:	01091913          	slli	s2,s2,0x10
80002c60:	010b5793          	srli	a5,s6,0x10
80002c64:	00f967b3          	or	a5,s2,a5
80002c68:	00a7fa63          	bgeu	a5,a0,80002c7c <__umoddi3+0x250>
80002c6c:	014787b3          	add	a5,a5,s4
80002c70:	0147e663          	bltu	a5,s4,80002c7c <__umoddi3+0x250>
80002c74:	00a7f463          	bgeu	a5,a0,80002c7c <__umoddi3+0x250>
80002c78:	014787b3          	add	a5,a5,s4
80002c7c:	40a78ab3          	sub	s5,a5,a0
80002c80:	00048593          	mv	a1,s1
80002c84:	000a8513          	mv	a0,s5
80002c88:	308000ef          	jal	ra,80002f90 <__umodsi3>
80002c8c:	00050913          	mv	s2,a0
80002c90:	00048593          	mv	a1,s1
80002c94:	000a8513          	mv	a0,s5
80002c98:	2b0000ef          	jal	ra,80002f48 <__udivsi3>
80002c9c:	00050593          	mv	a1,a0
80002ca0:	000b8513          	mv	a0,s7
80002ca4:	278000ef          	jal	ra,80002f1c <__mulsi3>
80002ca8:	010b1593          	slli	a1,s6,0x10
80002cac:	01091913          	slli	s2,s2,0x10
80002cb0:	0105d593          	srli	a1,a1,0x10
80002cb4:	00b965b3          	or	a1,s2,a1
80002cb8:	00a5fa63          	bgeu	a1,a0,80002ccc <__umoddi3+0x2a0>
80002cbc:	014585b3          	add	a1,a1,s4
80002cc0:	0145e663          	bltu	a1,s4,80002ccc <__umoddi3+0x2a0>
80002cc4:	00a5f463          	bgeu	a1,a0,80002ccc <__umoddi3+0x2a0>
80002cc8:	014585b3          	add	a1,a1,s4
80002ccc:	40a584b3          	sub	s1,a1,a0
80002cd0:	dfdff06f          	j	80002acc <__umoddi3+0xa0>
80002cd4:	010007b7          	lui	a5,0x1000
80002cd8:	01000993          	li	s3,16
80002cdc:	f0fa6ae3          	bltu	s4,a5,80002bf0 <__umoddi3+0x1c4>
80002ce0:	01800993          	li	s3,24
80002ce4:	f0dff06f          	j	80002bf0 <__umoddi3+0x1c4>
80002ce8:	e8d5eae3          	bltu	a1,a3,80002b7c <__umoddi3+0x150>
80002cec:	000107b7          	lui	a5,0x10
80002cf0:	04f6fc63          	bgeu	a3,a5,80002d48 <__umoddi3+0x31c>
80002cf4:	0ff00a93          	li	s5,255
80002cf8:	00dab533          	sltu	a0,s5,a3
80002cfc:	00351513          	slli	a0,a0,0x3
80002d00:	800037b7          	lui	a5,0x80003
80002d04:	00a6d733          	srl	a4,a3,a0
80002d08:	23c78793          	addi	a5,a5,572 # 8000323c <_tbss_end+0xffff9d78>
80002d0c:	00e787b3          	add	a5,a5,a4
80002d10:	0007ca83          	lbu	s5,0(a5)
80002d14:	02000793          	li	a5,32
80002d18:	00aa8ab3          	add	s5,s5,a0
80002d1c:	41578a33          	sub	s4,a5,s5
80002d20:	03579e63          	bne	a5,s5,80002d5c <__umoddi3+0x330>
80002d24:	0166e463          	bltu	a3,s6,80002d2c <__umoddi3+0x300>
80002d28:	00c96a63          	bltu	s2,a2,80002d3c <__umoddi3+0x310>
80002d2c:	40c90433          	sub	s0,s2,a2
80002d30:	40db05b3          	sub	a1,s6,a3
80002d34:	008934b3          	sltu	s1,s2,s0
80002d38:	409584b3          	sub	s1,a1,s1
80002d3c:	00040513          	mv	a0,s0
80002d40:	00048593          	mv	a1,s1
80002d44:	e39ff06f          	j	80002b7c <__umoddi3+0x150>
80002d48:	010007b7          	lui	a5,0x1000
80002d4c:	01000513          	li	a0,16
80002d50:	faf6e8e3          	bltu	a3,a5,80002d00 <__umoddi3+0x2d4>
80002d54:	01800513          	li	a0,24
80002d58:	fa9ff06f          	j	80002d00 <__umoddi3+0x2d4>
80002d5c:	014696b3          	sll	a3,a3,s4
80002d60:	015657b3          	srl	a5,a2,s5
80002d64:	00d7ecb3          	or	s9,a5,a3
80002d68:	015b5433          	srl	s0,s6,s5
80002d6c:	014b15b3          	sll	a1,s6,s4
80002d70:	010cdb93          	srli	s7,s9,0x10
80002d74:	01595b33          	srl	s6,s2,s5
80002d78:	00bb6b33          	or	s6,s6,a1
80002d7c:	00040513          	mv	a0,s0
80002d80:	000b8593          	mv	a1,s7
80002d84:	01461d33          	sll	s10,a2,s4
80002d88:	208000ef          	jal	ra,80002f90 <__umodsi3>
80002d8c:	00050993          	mv	s3,a0
80002d90:	000b8593          	mv	a1,s7
80002d94:	00040513          	mv	a0,s0
80002d98:	010c9c13          	slli	s8,s9,0x10
80002d9c:	1ac000ef          	jal	ra,80002f48 <__udivsi3>
80002da0:	010c5c13          	srli	s8,s8,0x10
80002da4:	00050593          	mv	a1,a0
80002da8:	014914b3          	sll	s1,s2,s4
80002dac:	00050913          	mv	s2,a0
80002db0:	000c0513          	mv	a0,s8
80002db4:	168000ef          	jal	ra,80002f1c <__mulsi3>
80002db8:	01099993          	slli	s3,s3,0x10
80002dbc:	010b5713          	srli	a4,s6,0x10
80002dc0:	00e9e733          	or	a4,s3,a4
80002dc4:	00090413          	mv	s0,s2
80002dc8:	00a77e63          	bgeu	a4,a0,80002de4 <__umoddi3+0x3b8>
80002dcc:	01970733          	add	a4,a4,s9
80002dd0:	fff90413          	addi	s0,s2,-1
80002dd4:	01976863          	bltu	a4,s9,80002de4 <__umoddi3+0x3b8>
80002dd8:	00a77663          	bgeu	a4,a0,80002de4 <__umoddi3+0x3b8>
80002ddc:	ffe90413          	addi	s0,s2,-2
80002de0:	01970733          	add	a4,a4,s9
80002de4:	40a70933          	sub	s2,a4,a0
80002de8:	000b8593          	mv	a1,s7
80002dec:	00090513          	mv	a0,s2
80002df0:	1a0000ef          	jal	ra,80002f90 <__umodsi3>
80002df4:	00050993          	mv	s3,a0
80002df8:	000b8593          	mv	a1,s7
80002dfc:	00090513          	mv	a0,s2
80002e00:	148000ef          	jal	ra,80002f48 <__udivsi3>
80002e04:	00050913          	mv	s2,a0
80002e08:	00050593          	mv	a1,a0
80002e0c:	000c0513          	mv	a0,s8
80002e10:	10c000ef          	jal	ra,80002f1c <__mulsi3>
80002e14:	010b1713          	slli	a4,s6,0x10
80002e18:	01099993          	slli	s3,s3,0x10
80002e1c:	01075713          	srli	a4,a4,0x10
80002e20:	00e9e733          	or	a4,s3,a4
80002e24:	00090793          	mv	a5,s2
80002e28:	00a77e63          	bgeu	a4,a0,80002e44 <__umoddi3+0x418>
80002e2c:	01970733          	add	a4,a4,s9
80002e30:	fff90793          	addi	a5,s2,-1
80002e34:	01976863          	bltu	a4,s9,80002e44 <__umoddi3+0x418>
80002e38:	00a77663          	bgeu	a4,a0,80002e44 <__umoddi3+0x418>
80002e3c:	ffe90793          	addi	a5,s2,-2
80002e40:	01970733          	add	a4,a4,s9
80002e44:	00010eb7          	lui	t4,0x10
80002e48:	01041413          	slli	s0,s0,0x10
80002e4c:	40a70833          	sub	a6,a4,a0
80002e50:	00f46433          	or	s0,s0,a5
80002e54:	fffe8713          	addi	a4,t4,-1 # ffff <buflen.2941+0xffbf>
80002e58:	00e478b3          	and	a7,s0,a4
80002e5c:	00ed7733          	and	a4,s10,a4
80002e60:	01045413          	srli	s0,s0,0x10
80002e64:	010d5e13          	srli	t3,s10,0x10
80002e68:	00088513          	mv	a0,a7
80002e6c:	00070593          	mv	a1,a4
80002e70:	0ac000ef          	jal	ra,80002f1c <__mulsi3>
80002e74:	00050793          	mv	a5,a0
80002e78:	000e0593          	mv	a1,t3
80002e7c:	00088513          	mv	a0,a7
80002e80:	09c000ef          	jal	ra,80002f1c <__mulsi3>
80002e84:	00050893          	mv	a7,a0
80002e88:	00070593          	mv	a1,a4
80002e8c:	00040513          	mv	a0,s0
80002e90:	08c000ef          	jal	ra,80002f1c <__mulsi3>
80002e94:	00050313          	mv	t1,a0
80002e98:	000e0593          	mv	a1,t3
80002e9c:	00040513          	mv	a0,s0
80002ea0:	07c000ef          	jal	ra,80002f1c <__mulsi3>
80002ea4:	0107d713          	srli	a4,a5,0x10
80002ea8:	006888b3          	add	a7,a7,t1
80002eac:	01170733          	add	a4,a4,a7
80002eb0:	00677463          	bgeu	a4,t1,80002eb8 <__umoddi3+0x48c>
80002eb4:	01d50533          	add	a0,a0,t4
80002eb8:	01075593          	srli	a1,a4,0x10
80002ebc:	00a585b3          	add	a1,a1,a0
80002ec0:	00010537          	lui	a0,0x10
80002ec4:	fff50513          	addi	a0,a0,-1 # ffff <buflen.2941+0xffbf>
80002ec8:	00a77733          	and	a4,a4,a0
80002ecc:	01071713          	slli	a4,a4,0x10
80002ed0:	00a7f7b3          	and	a5,a5,a0
80002ed4:	00f707b3          	add	a5,a4,a5
80002ed8:	00b86663          	bltu	a6,a1,80002ee4 <__umoddi3+0x4b8>
80002edc:	00b81e63          	bne	a6,a1,80002ef8 <__umoddi3+0x4cc>
80002ee0:	00f4fc63          	bgeu	s1,a5,80002ef8 <__umoddi3+0x4cc>
80002ee4:	41a78633          	sub	a2,a5,s10
80002ee8:	00c7b7b3          	sltu	a5,a5,a2
80002eec:	019787b3          	add	a5,a5,s9
80002ef0:	40f585b3          	sub	a1,a1,a5
80002ef4:	00060793          	mv	a5,a2
80002ef8:	40f487b3          	sub	a5,s1,a5
80002efc:	00f4b4b3          	sltu	s1,s1,a5
80002f00:	40b805b3          	sub	a1,a6,a1
80002f04:	409585b3          	sub	a1,a1,s1
80002f08:	01559433          	sll	s0,a1,s5
80002f0c:	0147d7b3          	srl	a5,a5,s4
80002f10:	00f46533          	or	a0,s0,a5
80002f14:	0145d5b3          	srl	a1,a1,s4
80002f18:	c65ff06f          	j	80002b7c <__umoddi3+0x150>

80002f1c <__mulsi3>:
80002f1c:	00050613          	mv	a2,a0
80002f20:	00000513          	li	a0,0
80002f24:	0015f693          	andi	a3,a1,1
80002f28:	00068463          	beqz	a3,80002f30 <__mulsi3+0x14>
80002f2c:	00c50533          	add	a0,a0,a2
80002f30:	0015d593          	srli	a1,a1,0x1
80002f34:	00161613          	slli	a2,a2,0x1
80002f38:	fe0596e3          	bnez	a1,80002f24 <__mulsi3+0x8>
80002f3c:	00008067          	ret

80002f40 <__divsi3>:
80002f40:	06054063          	bltz	a0,80002fa0 <__umodsi3+0x10>
80002f44:	0605c663          	bltz	a1,80002fb0 <__umodsi3+0x20>

80002f48 <__udivsi3>:
80002f48:	00058613          	mv	a2,a1
80002f4c:	00050593          	mv	a1,a0
80002f50:	fff00513          	li	a0,-1
80002f54:	02060c63          	beqz	a2,80002f8c <__udivsi3+0x44>
80002f58:	00100693          	li	a3,1
80002f5c:	00b67a63          	bgeu	a2,a1,80002f70 <__udivsi3+0x28>
80002f60:	00c05863          	blez	a2,80002f70 <__udivsi3+0x28>
80002f64:	00161613          	slli	a2,a2,0x1
80002f68:	00169693          	slli	a3,a3,0x1
80002f6c:	feb66ae3          	bltu	a2,a1,80002f60 <__udivsi3+0x18>
80002f70:	00000513          	li	a0,0
80002f74:	00c5e663          	bltu	a1,a2,80002f80 <__udivsi3+0x38>
80002f78:	40c585b3          	sub	a1,a1,a2
80002f7c:	00d56533          	or	a0,a0,a3
80002f80:	0016d693          	srli	a3,a3,0x1
80002f84:	00165613          	srli	a2,a2,0x1
80002f88:	fe0696e3          	bnez	a3,80002f74 <__udivsi3+0x2c>
80002f8c:	00008067          	ret

80002f90 <__umodsi3>:
80002f90:	00008293          	mv	t0,ra
80002f94:	fb5ff0ef          	jal	ra,80002f48 <__udivsi3>
80002f98:	00058513          	mv	a0,a1
80002f9c:	00028067          	jr	t0
80002fa0:	40a00533          	neg	a0,a0
80002fa4:	0005d863          	bgez	a1,80002fb4 <__umodsi3+0x24>
80002fa8:	40b005b3          	neg	a1,a1
80002fac:	f9dff06f          	j	80002f48 <__udivsi3>
80002fb0:	40b005b3          	neg	a1,a1
80002fb4:	00008293          	mv	t0,ra
80002fb8:	f91ff0ef          	jal	ra,80002f48 <__udivsi3>
80002fbc:	40a00533          	neg	a0,a0
80002fc0:	00028067          	jr	t0

80002fc4 <__modsi3>:
80002fc4:	00008293          	mv	t0,ra
80002fc8:	0005ca63          	bltz	a1,80002fdc <__modsi3+0x18>
80002fcc:	00054c63          	bltz	a0,80002fe4 <__modsi3+0x20>
80002fd0:	f79ff0ef          	jal	ra,80002f48 <__udivsi3>
80002fd4:	00058513          	mv	a0,a1
80002fd8:	00028067          	jr	t0
80002fdc:	40b005b3          	neg	a1,a1
80002fe0:	fe0558e3          	bgez	a0,80002fd0 <__modsi3+0xc>
80002fe4:	40a00533          	neg	a0,a0
80002fe8:	f61ff0ef          	jal	ra,80002f48 <__udivsi3>
80002fec:	40b00533          	neg	a0,a1
80002ff0:	00028067          	jr	t0

Disassembly of section .text.startup:

80002ff4 <main>:
80002ff4:	ff010113          	addi	sp,sp,-16
80002ff8:	00812423          	sw	s0,8(sp)
80002ffc:	00001437          	lui	s0,0x1
80003000:	80040513          	addi	a0,s0,-2048 # 800 <buflen.2941+0x7c0>
80003004:	00004617          	auipc	a2,0x4
80003008:	44c60613          	addi	a2,a2,1100 # 80007450 <scratch.2002>
8000300c:	00000597          	auipc	a1,0x0
80003010:	43458593          	addi	a1,a1,1076 # 80003440 <verify_data>
80003014:	00112623          	sw	ra,12(sp)
80003018:	87cfe0ef          	jal	ra,80001094 <sort>
8000301c:	00002517          	auipc	a0,0x2
80003020:	42450513          	addi	a0,a0,1060 # 80005440 <input_data>
80003024:	824fe0ef          	jal	ra,80001048 <verify.constprop.0>
80003028:	00050c63          	beqz	a0,80003040 <main+0x4c>
8000302c:	00c12083          	lw	ra,12(sp)
80003030:	00812403          	lw	s0,8(sp)
80003034:	00100513          	li	a0,1
80003038:	01010113          	addi	sp,sp,16
8000303c:	00008067          	ret
80003040:	00100513          	li	a0,1
80003044:	979fe0ef          	jal	ra,800019bc <setStats>
80003048:	80040513          	addi	a0,s0,-2048
8000304c:	00004617          	auipc	a2,0x4
80003050:	40460613          	addi	a2,a2,1028 # 80007450 <scratch.2002>
80003054:	00002597          	auipc	a1,0x2
80003058:	3ec58593          	addi	a1,a1,1004 # 80005440 <input_data>
8000305c:	838fe0ef          	jal	ra,80001094 <sort>
80003060:	00000513          	li	a0,0
80003064:	959fe0ef          	jal	ra,800019bc <setStats>
80003068:	00812403          	lw	s0,8(sp)
8000306c:	00c12083          	lw	ra,12(sp)
80003070:	00000517          	auipc	a0,0x0
80003074:	3d050513          	addi	a0,a0,976 # 80003440 <verify_data>
80003078:	01010113          	addi	sp,sp,16
8000307c:	fcdfd06f          	j	80001048 <verify.constprop.0>
80003080:	ff010113          	addi	sp,sp,-16
80003084:	00000517          	auipc	a0,0x0
80003088:	03c50513          	addi	a0,a0,60 # 800030c0 <main+0xcc>
8000308c:	00112623          	sw	ra,12(sp)
80003090:	9e9fe0ef          	jal	ra,80001a78 <printstr>
80003094:	00c12083          	lw	ra,12(sp)
80003098:	fff00513          	li	a0,-1
8000309c:	01010113          	addi	sp,sp,16
800030a0:	00008067          	ret

Disassembly of section .data:

80003440 <verify_data>:
80003440:	000a8b27          	0xa8b27
80003444:	bef4                	fsd	fa3,248(a3)
80003446:	000d                	c.nop	3
80003448:	83c4                	0x83c4
8000344a:	0021                	c.nop	8
8000344c:	9b62                	add	s6,s6,s8
8000344e:	0026                	c.slli	zero,0x9
80003450:	0030356f          	jal	a0,80006c52 <input_data+0x1812>
80003454:	be92                	fsd	ft4,376(sp)
80003456:	0035                	c.nop	13
80003458:	0039e5ef          	jal	a1,800a1c5a <_tbss_end+0x98796>
8000345c:	82bc                	0x82bc
8000345e:	003d                	c.nop	15
80003460:	02d6                	slli	t0,t0,0x15
80003462:	0051                	c.nop	20
80003464:	d704                	sw	s1,40(a4)
80003466:	0051                	c.nop	20
80003468:	00949033          	sll	zero,s1,s1
8000346c:	1df9                	addi	s11,s11,-2
8000346e:	779600af          	0x779600af
80003472:	00c2                	slli	ra,ra,0x10
80003474:	1040                	addi	s0,sp,36
80003476:	00c4                	addi	s1,sp,68
80003478:	00c56a53          	fadd.s	fs4,fa0,fa2,unknown
8000347c:	1f1d                	addi	t5,t5,-25
8000347e:	00c9                	addi	ra,ra,18
80003480:	00d3e7bb          	0xd3e7bb
80003484:	8b4c                	0x8b4c
80003486:	459500d7          	0x459500d7
8000348a:	00d9                	addi	ra,ra,22
8000348c:	6bd8                	flw	fa4,20(a5)
8000348e:	00fa                	slli	ra,ra,0x1e
80003490:	0125630f          	0x125630f
80003494:	ffb9                	bnez	a5,800033f2 <__clz_tab+0x1b6>
80003496:	013a                	slli	sp,sp,0xe
80003498:	d932                	sw	a2,176(sp)
8000349a:	0144                	addi	s1,sp,132
8000349c:	c7f5                	beqz	a5,80003588 <verify_data+0x148>
8000349e:	0151                	addi	sp,sp,20
800034a0:	54ee                	lw	s1,248(sp)
800034a2:	5b5b015b          	0x5b5b015b
800034a6:	00ad0163          	beq	s10,a0,800034a8 <verify_data+0x68>
800034aa:	0174                	addi	a3,sp,140
800034ac:	fa95                	bnez	a3,800033e0 <__clz_tab+0x1a4>
800034ae:	018a                	slli	gp,gp,0x2
800034b0:	30b0                	fld	fa2,96(s1)
800034b2:	0191                	addi	gp,gp,4
800034b4:	019736cb          	fnmsub.s	fa3,fa4,fs9,ft0,rup
800034b8:	befe                	fsd	ft11,376(sp)
800034ba:	01a1                	addi	gp,gp,8
800034bc:	9418                	0x9418
800034be:	01a4                	addi	s1,sp,200
800034c0:	2a85                	jal	80003630 <verify_data+0x1f0>
800034c2:	532401af          	0x532401af
800034c6:	e9c701b7          	lui	gp,0xe9c70
800034ca:	01d8                	addi	a4,sp,196
800034cc:	01db5cd7          	0x1db5cd7
800034d0:	c8a5                	beqz	s1,80003540 <verify_data+0x100>
800034d2:	01e1                	addi	gp,gp,24
800034d4:	2134                	fld	fa3,64(a0)
800034d6:	01e2                	slli	gp,gp,0x18
800034d8:	2442                	fld	fs0,16(sp)
800034da:	021f 2b34 0223      	0x2232b34021f
800034e0:	d6fc                	sw	a5,108(a3)
800034e2:	0234                	addi	a3,sp,264
800034e4:	bdad                	j	8000335e <__clz_tab+0x122>
800034e6:	0236                	slli	tp,tp,0xd
800034e8:	4c36                	lw	s8,76(sp)
800034ea:	024d                	addi	tp,tp,19
800034ec:	8266                	mv	tp,s9
800034ee:	027c                	addi	a5,sp,268
800034f0:	31ca                	fld	ft3,176(sp)
800034f2:	0281                	addi	t0,t0,0
800034f4:	b6de                	fsd	fs7,360(sp)
800034f6:	029e                	slli	t0,t0,0x7
800034f8:	b6a6                	fsd	fs1,360(sp)
800034fa:	02cd                	addi	t0,t0,19
800034fc:	127d                	addi	tp,tp,-1
800034fe:	02d4                	addi	a3,sp,324
80003500:	3e02                	fld	ft8,32(sp)
80003502:	02d4                	addi	a3,sp,324
80003504:	02e12ea7          	fsw	fa4,61(sp)
80003508:	4258                	lw	a4,4(a2)
8000350a:	02e8                	addi	a0,sp,332
8000350c:	03065ce3          	bge	a2,a6,80003d44 <verify_data+0x904>
80003510:	b802                	fsd	ft0,48(sp)
80003512:	0309                	addi	t1,t1,2
80003514:	c325                	beqz	a4,80003574 <verify_data+0x134>
80003516:	0314                	addi	a3,sp,384
80003518:	f686                	fsw	ft1,108(sp)
8000351a:	0335                	addi	t1,t1,13
8000351c:	472e                	lw	a4,200(sp)
8000351e:	034e                	slli	t1,t1,0x13
80003520:	705c                	flw	fa5,36(s0)
80003522:	55e00377          	0x55e00377
80003526:	0378                	addi	a4,sp,396
80003528:	2382                	fld	ft7,0(sp)
8000352a:	038a                	slli	t2,t2,0x2
8000352c:	b6cd                	j	8000310e <main+0x11a>
8000352e:	b922039b          	0xb922039b
80003532:	03ad                	addi	t2,t2,11
80003534:	3e1f 03b5 08ea      	0x8ea03b53e1f
8000353a:	03c5                	addi	t2,t2,17
8000353c:	b410                	fsd	fa2,40(s0)
8000353e:	03dc                	addi	a5,sp,452
80003540:	ea69                	bnez	a2,80003612 <verify_data+0x1d2>
80003542:	a10703f7          	0xa10703f7
80003546:	040e                	slli	s0,s0,0x3
80003548:	aaf4                	fsd	fa3,208(a3)
8000354a:	041e                	slli	s0,s0,0x7
8000354c:	6f58                	flw	fa4,28(a4)
8000354e:	042a                	slli	s0,s0,0xa
80003550:	042c2c93          	slti	s9,s8,66
80003554:	c4c2                	sw	a6,72(sp)
80003556:	0439                	addi	s0,s0,14
80003558:	82a8                	0x82a8
8000355a:	e231044f          	fnmadd.d	fs0,ft2,ft3,ft8,rne
8000355e:	0456                	slli	s0,s0,0x15
80003560:	f6c6                	fsw	fa7,108(sp)
80003562:	0458                	addi	a4,sp,516
80003564:	b2da                	fsd	fs6,352(sp)
80003566:	0476                	slli	s0,s0,0x1d
80003568:	7e24                	flw	fs1,120(a2)
8000356a:	0486                	slli	s1,s1,0x1
8000356c:	86b6                	mv	a3,a3
8000356e:	0498                	addi	a4,sp,576
80003570:	49b6                	lw	s3,76(sp)
80003572:	049e                	slli	s1,s1,0x7
80003574:	80f2                	mv	ra,t3
80003576:	9c1c04ab          	0x9c1c04ab
8000357a:	04c9                	addi	s1,s1,18
8000357c:	deea                	sw	s10,124(sp)
8000357e:	04ca                	slli	s1,s1,0x12
80003580:	04d2734b          	0x4d2734b
80003584:	04da198b          	0x4da198b
80003588:	a428                	fsd	fa0,72(s0)
8000358a:	04f0                	addi	a2,sp,588
8000358c:	d981                	beqz	a1,8000349c <verify_data+0x5c>
8000358e:	3571050f          	0x3571050f
80003592:	053d                	addi	a0,a0,15
80003594:	5552                	lw	a0,52(sp)
80003596:	24a4054b          	0x24a4054b
8000359a:	0554                	addi	a3,sp,644
8000359c:	415f 055e 41a4      	0x41a4055e415f
800035a2:	f25c056f          	jal	a0,7ffc44c6 <buflen.2941+0x7ffc4486>
800035a6:	057f                	0x57f
800035a8:	058545bf 0588efda 	0x588efda058545bf
800035b0:	058dfb67          	0x58dfb67
800035b4:	05a5ef07          	0x5a5ef07
800035b8:	1220                	addi	s0,sp,296
800035ba:	05b5                	addi	a1,a1,13
800035bc:	6e11                	lui	t3,0x4
800035be:	05ee                	slli	a1,a1,0x1b
800035c0:	a4ed                	j	800038aa <verify_data+0x46a>
800035c2:	063c                	addi	a5,sp,776
800035c4:	0340                	addi	s0,sp,388
800035c6:	063e                	slli	a2,a2,0xf
800035c8:	091f 0648 d5d4      	0xd5d40648091f
800035ce:	0654                	addi	a3,sp,772
800035d0:	065a84b7          	lui	s1,0x65a8
800035d4:	06622783          	lw	a5,102(tp) # 66 <buflen.2941+0x26>
800035d8:	2422                	fld	fs0,8(sp)
800035da:	47c40663          	beq	s0,t3,80003a46 <verify_data+0x606>
800035de:	0670                	addi	a2,sp,780
800035e0:	3ad6                	fld	fs5,368(sp)
800035e2:	0675                	addi	a2,a2,29
800035e4:	417f                	0x417f
800035e6:	0676                	slli	a2,a2,0x1d
800035e8:	895f 0679 c100      	0xc1000679895f
800035ee:	067f                	0x67f
800035f0:	3ee4                	fld	fs1,248(a3)
800035f2:	86480687          	0x86480687
800035f6:	06ad                	addi	a3,a3,11
800035f8:	e19d                	bnez	a1,8000361e <verify_data+0x1de>
800035fa:	06b6                	slli	a3,a3,0xd
800035fc:	06c34b8b          	0x6c34b8b
80003600:	1870                	addi	a2,sp,60
80003602:	06c5                	addi	a3,a3,17
80003604:	9628                	0x9628
80003606:	06ce                	slli	a3,a3,0x13
80003608:	02e2                	slli	t0,t0,0x18
8000360a:	b7c306db          	0xb7c306db
8000360e:	06f5                	addi	a3,a3,29
80003610:	3fc0                	fld	fs0,184(a5)
80003612:	06fd                	addi	a3,a3,31
80003614:	8f21                	xor	a4,a4,s0
80003616:	06fd                	addi	a3,a3,31
80003618:	f79f 0704 25d6      	0x25d60704f79f
8000361e:	071c                	addi	a5,sp,896
80003620:	d1ee                	sw	s11,224(sp)
80003622:	0721                	addi	a4,a4,8
80003624:	07477a3f 075a3493 	0x75a349307477a3f
8000362c:	076267bf 079f193f 	0x79f193f076267bf
80003634:	afe9                	j	80003e0e <verify_data+0x9ce>
80003636:	07a1                	addi	a5,a5,8
80003638:	a8fc                	fsd	fa5,208(s1)
8000363a:	154507bf 7b3807d5 	0x7b3807d5154507bf
80003642:	07f9                	addi	a5,a5,30
80003644:	08039873          	csrrw	a6,0x80,t2
80003648:	2215                	jal	8000376c <verify_data+0x32c>
8000364a:	080c                	addi	a1,sp,16
8000364c:	49ca                	lw	s3,144(sp)
8000364e:	0816                	slli	a6,a6,0x5
80003650:	082b2a17          	auipc	s4,0x82b2
80003654:	9b68                	0x9b68
80003656:	0836                	slli	a6,a6,0xd
80003658:	8469                	srai	s0,s0,0x1a
8000365a:	0850                	addi	a2,sp,20
8000365c:	08606c9b          	0x8606c9b
80003660:	da71                	beqz	a2,80003634 <verify_data+0x1f4>
80003662:	08ad                	addi	a7,a7,11
80003664:	08b3d3db          	0x8b3d3db
80003668:	09fd                	addi	s3,s3,31
8000366a:	08d4                	addi	a3,sp,84
8000366c:	08da5b6b          	0x8da5b6b
80003670:	2c11                	jal	80003884 <verify_data+0x444>
80003672:	08e4                	addi	s1,sp,92
80003674:	08fe3757          	0x8fe3757
80003678:	6d30                	flw	fa2,88(a0)
8000367a:	0906                	slli	s2,s2,0x1
8000367c:	8185                	srli	a1,a1,0x1
8000367e:	03e50913          	addi	s2,a0,62
80003682:	094a                	slli	s2,s2,0x12
80003684:	f9c1                	bnez	a1,80003614 <verify_data+0x1d4>
80003686:	f94f0953          	0xf94f0953
8000368a:	89600957          	0x89600957
8000368e:	099f 54b6 09a0      	0x9a054b6099f
80003694:	b5b6                	fsd	fa3,232(sp)
80003696:	09bc                	addi	a5,sp,216
80003698:	09fe3077          	0x9fe3077
8000369c:	4130                	lw	a2,64(a0)
8000369e:	379b0a0f          	0x379b0a0f
800036a2:	d3450a17          	auipc	s4,0xd3450
800036a6:	0a1d                	addi	s4,s4,7
800036a8:	4a15                	li	s4,5
800036aa:	0a26                	slli	s4,s4,0x9
800036ac:	2f1a                	fld	ft10,384(sp)
800036ae:	0a42                	slli	s4,s4,0x10
800036b0:	0a50ba03          	0xa50ba03
800036b4:	53d9                	li	t2,-10
800036b6:	0a5c                	addi	a5,sp,276
800036b8:	48d2                	lw	a7,20(sp)
800036ba:	0a60                	addi	s0,sp,284
800036bc:	0a6dc44f          	fnmadd.d	fs0,fs11,ft6,ft1,rmm
800036c0:	c97f                	0xc97f
800036c2:	0a79                	addi	s4,s4,30
800036c4:	2930                	fld	fa2,80(a0)
800036c6:	ea250a7b          	0xea250a7b
800036ca:	0a7d                	addi	s4,s4,31
800036cc:	5874                	lw	a3,116(s0)
800036ce:	0a8e                	slli	s5,s5,0x3
800036d0:	d099                	beqz	s1,800035d6 <verify_data+0x196>
800036d2:	0aa9                	addi	s5,s5,10
800036d4:	f591                	bnez	a1,800035e0 <verify_data+0x1a0>
800036d6:	0ac2                	slli	s5,s5,0x10
800036d8:	0ac3bca3          	0xac3bca3
800036dc:	8142                	mv	sp,a6
800036de:	0ad2                	slli	s5,s5,0x14
800036e0:	3aae                	fld	fs5,232(sp)
800036e2:	0ae2                	slli	s5,s5,0x18
800036e4:	ba5a                	fsd	fs6,304(sp)
800036e6:	0af2                	slli	s5,s5,0x1c
800036e8:	0b0fe933          	0xb0fe933
800036ec:	eae8                	fsw	fa0,84(a3)
800036ee:	0b10                	addi	a2,sp,400
800036f0:	d360                	sw	s0,100(a4)
800036f2:	0b15                	addi	s6,s6,5
800036f4:	dbe0                	sw	s0,116(a5)
800036f6:	dcd00b17          	auipc	s6,0xdcd00
800036fa:	0b18                	addi	a4,sp,400
800036fc:	e892                	fsw	ft4,80(sp)
800036fe:	0b34                	addi	a3,sp,408
80003700:	0b5676e3          	bgeu	a2,s5,80003fac <verify_data+0xb6c>
80003704:	5a9a                	lw	s5,164(sp)
80003706:	7c260b5b          	0x7c260b5b
8000370a:	0b5f 4814 0b8e      	0xb8e48140b5f
80003710:	3f66                	fld	ft10,120(sp)
80003712:	0ba5                	addi	s7,s7,9
80003714:	db0a                	sw	sp,180(sp)
80003716:	0bb4                	addi	a3,sp,472
80003718:	b420                	fsd	fs0,104(s0)
8000371a:	0bcc                	addi	a1,sp,468
8000371c:	16b9                	addi	a3,a3,-18
8000371e:	0bd0                	addi	a2,sp,468
80003720:	cd60                	sw	s0,92(a0)
80003722:	0bd0                	addi	a2,sp,468
80003724:	0919                	addi	s2,s2,6
80003726:	0bed                	addi	s7,s7,27
80003728:	9f16                	add	t5,t5,t0
8000372a:	f2ea0bef          	jal	s7,7ffa3e58 <buflen.2941+0x7ffa3e18>
8000372e:	0c11                	addi	s8,s8,4
80003730:	0c30a657          	0xc30a657
80003734:	2cec                	fld	fa1,216(s1)
80003736:	0c38                	addi	a4,sp,536
80003738:	0c514963          	blt	sp,t0,8000380a <verify_data+0x3ca>
8000373c:	45e2                	lw	a1,24(sp)
8000373e:	0c68                	addi	a0,sp,540
80003740:	6fc0                	flw	fs0,28(a5)
80003742:	0c6c                	addi	a1,sp,540
80003744:	d928                	sw	a0,112(a0)
80003746:	0c85                	addi	s9,s9,1
80003748:	c4ff                	0xc4ff
8000374a:	366e0c8f          	0x366e0c8f
8000374e:	0c92                	slli	s9,s9,0x4
80003750:	90c0                	0x90c0
80003752:	65910ca3          	sb	s9,1625(sp)
80003756:	75090caf          	0x75090caf
8000375a:	0ccc                	addi	a1,sp,596
8000375c:	ea80                	fsw	fs0,16(a3)
8000375e:	0cd0                	addi	a2,sp,596
80003760:	8aa1                	andi	a3,a3,8
80003762:	0ce6                	slli	s9,s9,0x19
80003764:	68ec                	flw	fa1,84(s1)
80003766:	0ce8                	addi	a0,sp,604
80003768:	cc9f 0cfa a7e9      	0xa7e90cfacc9f
8000376e:	0d08                	addi	a0,sp,656
80003770:	3b0a                	fld	fs6,160(sp)
80003772:	0d31                	addi	s10,s10,12
80003774:	0d36494b          	0xd36494b
80003778:	88d1                	andi	s1,s1,20
8000377a:	9e8b0d43          	fmadd.q	fs10,fs6,fs0,fs3,rne
8000377e:	0d6a                	slli	s10,s10,0x1a
80003780:	18cd                	addi	a7,a7,-13
80003782:	7e030d77          	0x7e030d77
80003786:	85140d77          	0x85140d77
8000378a:	90d40d83          	lb	s11,-1779(s0)
8000378e:	507c0d83          	lb	s11,1287(s8)
80003792:	0d86                	slli	s11,s11,0x1
80003794:	0d8789af          	0xd8789af
80003798:	0d8e43d3          	0xd8e43d3
8000379c:	05ac                	addi	a1,sp,712
8000379e:	0d95                	addi	s11,s11,5
800037a0:	a911                	j	80003bb4 <verify_data+0x774>
800037a2:	0da5                	addi	s11,s11,9
800037a4:	1500                	addi	s0,sp,672
800037a6:	0db4                	addi	a3,sp,728
800037a8:	b6ca                	fsd	fs2,360(sp)
800037aa:	0dba                	slli	s11,s11,0xe
800037ac:	323a                	fld	ft4,424(sp)
800037ae:	8d110dbf a4550dc7 	0xa4550dc78d110dbf
800037b6:	0dd6                	slli	s11,s11,0x15
800037b8:	27b1                	jal	80003f04 <verify_data+0xac4>
800037ba:	124f0df3          	0x124f0df3
800037be:	0e1e                	slli	t3,t3,0x7
800037c0:	0e20a51b          	0xe20a51b
800037c4:	d8e0                	sw	s0,116(s1)
800037c6:	3b240e33          	0x3b240e33
800037ca:	0e38                	addi	a4,sp,792
800037cc:	f698                	fsw	fa4,40(a3)
800037ce:	0e4d                	addi	t3,t3,19
800037d0:	0e578ce3          	beq	a5,t0,800040c8 <verify_data+0xc88>
800037d4:	b631                	j	800032e0 <__clz_tab+0xa4>
800037d6:	0e64                	addi	s1,sp,796
800037d8:	938a                	add	t2,t2,sp
800037da:	0e65                	addi	t3,t3,25
800037dc:	3a1d                	jal	80003112 <main+0x11e>
800037de:	0e68                	addi	a0,sp,796
800037e0:	f848                	fsw	fa0,52(s0)
800037e2:	0e95                	addi	t4,t4,5
800037e4:	06c9                	addi	a3,a3,18
800037e6:	0e9a                	slli	t4,t4,0x6
800037e8:	83b2                	mv	t2,a2
800037ea:	0e9f a14b 0ebc      	0xebca14b0e9f
800037f0:	be14                	fsd	fa3,56(a2)
800037f2:	c3680ebf 1ec70ebf 	0x1ec70ebfc3680ebf
800037fa:	0ee2                	slli	t4,t4,0x18
800037fc:	0ee70b53          	fsub.q	fs6,fa4,fa4,rne
80003800:	ab91                	j	80003d54 <verify_data+0x914>
80003802:	0ee8                	addi	a0,sp,860
80003804:	db66                	sw	s9,180(sp)
80003806:	0ef1                	addi	t4,t4,28
80003808:	cfda                	sw	s6,220(sp)
8000380a:	cd000ef3          	0xcd000ef3
8000380e:	0efd                	addi	t4,t4,31
80003810:	2f3e                	fld	ft10,456(sp)
80003812:	0f22                	slli	t5,t5,0x8
80003814:	73da                	flw	ft7,180(sp)
80003816:	0f36                	slli	t5,t5,0xd
80003818:	760e                	flw	fa2,224(sp)
8000381a:	0f45                	addi	t5,t5,17
8000381c:	61f6                	flw	ft3,92(sp)
8000381e:	9eb70f4f          	fnmadd.q	ft10,fa4,fa1,fs3,rne
80003822:	0f5c                	addi	a5,sp,916
80003824:	0f637b73          	csrrci	s6,0xf6,6
80003828:	c1b1                	beqz	a1,8000386c <verify_data+0x42c>
8000382a:	dcbd0f7b          	0xdcbd0f7b
8000382e:	5fc40f7b          	0x5fc40f7b
80003832:	82b70f83          	lb	t6,-2005(a4)
80003836:	0f89                	addi	t6,t6,2
80003838:	9338                	0x9338
8000383a:	0f89                	addi	t6,t6,2
8000383c:	0f8b5fbf 0f97096e 	0xf97096e0f8b5fbf
80003844:	1efe                	slli	t4,t4,0x3f
80003846:	0fd1                	addi	t6,t6,20
80003848:	c2dc                	sw	a5,4(a3)
8000384a:	0fec                	addi	a1,sp,988
8000384c:	b0dc                	fsd	fa5,160(s1)
8000384e:	0ffa                	slli	t6,t6,0x1e
80003850:	2d4e                	fld	fs10,208(sp)
80003852:	233d100b          	0x233d100b
80003856:	101e                	c.slli	zero,0x27
80003858:	10244d23          	0x10244d23
8000385c:	f81f 1034 4c25      	0x4c251034f81f
80003862:	1060                	addi	s0,sp,44
80003864:	45f5                	li	a1,29
80003866:	108a                	slli	ra,ra,0x22
80003868:	0f29                	addi	t5,t5,10
8000386a:	1091                	addi	ra,ra,-28
8000386c:	0db2                	slli	s11,s11,0xc
8000386e:	10a5                	addi	ra,ra,-23
80003870:	8f9a                	mv	t6,t1
80003872:	10c4                	addi	s1,sp,100
80003874:	10e4ceaf          	0x10e4ceaf
80003878:	8979                	andi	a0,a0,30
8000387a:	dde610f7          	0xdde610f7
8000387e:	1122                	slli	sp,sp,0x28
80003880:	112b5d0f          	0x112b5d0f
80003884:	43c8                	lw	a0,4(a5)
80003886:	1144                	addi	s1,sp,164
80003888:	dc36                	sw	a3,56(sp)
8000388a:	115c                	addi	a5,sp,164
8000388c:	7eec                	flw	fa1,124(a3)
8000388e:	1178                	addi	a4,sp,172
80003890:	0002                	c.slli64	zero
80003892:	1189                	addi	gp,gp,-30
80003894:	119f8227          	0x119f8227
80003898:	4fc8                	lw	a0,28(a5)
8000389a:	182611cf          	fnmadd.s	ft3,fa2,ft2,ft3,rtz
8000389e:	11da                	slli	gp,gp,0x36
800038a0:	8de8                	0x8de8
800038a2:	11e4                	addi	s1,sp,236
800038a4:	12e0                	addi	s0,sp,364
800038a6:	3fa611eb          	0x3fa611eb
800038aa:	11f6                	slli	gp,gp,0x3d
800038ac:	04bd                	addi	s1,s1,15
800038ae:	2b6111fb          	0x2b6111fb
800038b2:	824211fb          	0x824211fb
800038b6:	51f61203          	lh	tp,1311(a2)
800038ba:	121c                	addi	a5,sp,288
800038bc:	acb4                	fsd	fa3,88(s1)
800038be:	1220                	addi	s0,sp,296
800038c0:	e474                	fsw	fa3,76(s0)
800038c2:	1221                	addi	tp,tp,-24
800038c4:	321c                	fld	fa5,32(a2)
800038c6:	1225                	addi	tp,tp,-23
800038c8:	671f 1235 6343      	0x63431235671f
800038ce:	1239                	addi	tp,tp,-18
800038d0:	c895                	beqz	s1,80003904 <verify_data+0x4c4>
800038d2:	63be125b          	0x63be125b
800038d6:	1266                	slli	tp,tp,0x39
800038d8:	6746                	flw	fa4,80(sp)
800038da:	1268                	addi	a0,sp,300
800038dc:	c920                	sw	s0,80(a0)
800038de:	1268                	addi	a0,sp,300
800038e0:	6408                	flw	fa0,8(s0)
800038e2:	127e                	slli	tp,tp,0x3f
800038e4:	6db5                	lui	s11,0xd
800038e6:	1744128b          	0x1744128b
800038ea:	12dd                	addi	t0,t0,-9
800038ec:	12f40083          	lb	ra,303(s0)
800038f0:	bfaa                	fsd	fa0,504(sp)
800038f2:	12ff                	0x12ff
800038f4:	e741                	bnez	a4,8000397c <verify_data+0x53c>
800038f6:	1314                	addi	a3,sp,416
800038f8:	c0ac                	sw	a1,64(s1)
800038fa:	133c                	addi	a5,sp,424
800038fc:	2441                	jal	80003b7c <verify_data+0x73c>
800038fe:	0e9b1353          	fsub.q	ft6,fs6,fs1,rtz
80003902:	1364                	addi	s1,sp,428
80003904:	136948cb          	fnmsub.d	fa7,fs2,fs6,ft2,rmm
80003908:	4dd8                	lw	a4,28(a1)
8000390a:	1395                	addi	t2,t2,-27
8000390c:	e4b2                	fsw	fa2,72(sp)
8000390e:	139c                	addi	a5,sp,480
80003910:	db86                	sw	ra,244(sp)
80003912:	a26a13a7          	0xa26a13a7
80003916:	13b2                	slli	t2,t2,0x2c
80003918:	13bf00c7          	fmsub.d	ft1,ft10,fs11,ft2,rne
8000391c:	13ccfe2f          	0x13ccfe2f
80003920:	b436                	fsd	fa3,40(sp)
80003922:	13e5                	addi	t2,t2,-7
80003924:	13e702e3          	beq	a4,t5,80004248 <verify_data+0xe08>
80003928:	0138                	addi	a4,sp,136
8000392a:	13e9                	addi	t2,t2,-6
8000392c:	a794                	fsd	fa3,8(a5)
8000392e:	13fe                	slli	t2,t2,0x3f
80003930:	140a3777          	0x140a3777
80003934:	98ae                	add	a7,a7,a1
80003936:	142d                	addi	s0,s0,-21
80003938:	8655                	srai	a2,a2,0x15
8000393a:	bdd61447          	0xbdd61447
8000393e:	144a                	slli	s0,s0,0x32
80003940:	81a2                	mv	gp,s0
80003942:	145a                	slli	s0,s0,0x36
80003944:	145d8bd7          	0x145d8bd7
80003948:	14624fa3          	0x14624fa3
8000394c:	5a5e                	lw	s4,244(sp)
8000394e:	1472                	slli	s0,s0,0x3c
80003950:	14739627          	0x14739627
80003954:	2e08                	fld	fa0,24(a2)
80003956:	147c                	addi	a5,sp,556
80003958:	e22a                	fsw	fa0,4(sp)
8000395a:	1488                	addi	a0,sp,608
8000395c:	2630                	fld	fa2,72(a2)
8000395e:	148e                	slli	s1,s1,0x23
80003960:	14a8aca7          	fsw	fa0,345(a7)
80003964:	108a                	slli	ra,ra,0x22
80003966:	14c0                	addi	s0,sp,612
80003968:	14d11f33          	0x14d11f33
8000396c:	14df5beb          	0x14df5beb
80003970:	26d6                	fld	fa3,336(sp)
80003972:	caae14f7          	0xcaae14f7
80003976:	1518                	addi	a4,sp,672
80003978:	3f1e                	fld	ft10,480(sp)
8000397a:	1532                	slli	a0,a0,0x2c
8000397c:	7742                	flw	fa4,48(sp)
8000397e:	1540                	addi	s0,sp,676
80003980:	1541dfdb          	0x1541dfdb
80003984:	63a5                	lui	t2,0x9
80003986:	1542                	slli	a0,a0,0x30
80003988:	1fe2                	slli	t6,t6,0x38
8000398a:	1571                	addi	a0,a0,-4
8000398c:	d1f1                	beqz	a1,80003950 <verify_data+0x510>
8000398e:	157e                	slli	a0,a0,0x3f
80003990:	18e0                	addi	s0,sp,124
80003992:	159f b440 15aa      	0x15aab440159f
80003998:	15bb2fe7          	0x15bb2fe7
8000399c:	a9d0                	fsd	fa2,144(a1)
8000399e:	a7d115bb          	0xa7d115bb
800039a2:	15c5                	addi	a1,a1,-15
800039a4:	7f16                	flw	ft10,100(sp)
800039a6:	15ce                	slli	a1,a1,0x33
800039a8:	68b2                	flw	fa7,12(sp)
800039aa:	0f8915db          	0xf8915db
800039ae:	15ee                	slli	a1,a1,0x3b
800039b0:	15f77ee7          	0x15f77ee7
800039b4:	15fcce2f          	0x15fcce2f
800039b8:	12d6                	slli	t0,t0,0x35
800039ba:	1629                	addi	a2,a2,-22
800039bc:	8dc1                	or	a1,a1,s0
800039be:	1630                	addi	a2,sp,808
800039c0:	5f2d                	li	t5,-21
800039c2:	eb5f1633          	0xeb5f1633
800039c6:	fd611633          	0xfd611633
800039ca:	163e                	slli	a2,a2,0x2f
800039cc:	2ff2                	fld	ft11,280(sp)
800039ce:	1640                	addi	s0,sp,804
800039d0:	379a                	fld	fa5,416(sp)
800039d2:	39421667          	0x39421667
800039d6:	1675                	addi	a2,a2,-3
800039d8:	bf1f 1695 42fc      	0x42fc1695bf1f
800039de:	169e                	slli	a3,a3,0x27
800039e0:	6ad2                	flw	fs5,20(sp)
800039e2:	0ad616a7          	0xad616a7
800039e6:	534b16b7          	lui	a3,0x534b1
800039ea:	16be                	slli	a3,a3,0x2f
800039ec:	d8e5                	beqz	s1,800039dc <verify_data+0x59c>
800039ee:	4eab16c3          	fmadd.q	fa3,fs6,fa0,fs1,rtz
800039f2:	098116cb          	fnmsub.s	fa3,ft2,fs8,ft1,rtz
800039f6:	1700                	addi	s0,sp,928
800039f8:	1692                	slli	a3,a3,0x24
800039fa:	170d                	addi	a4,a4,-29
800039fc:	1621                	addi	a2,a2,-24
800039fe:	1712                	slli	a4,a4,0x24
80003a00:	17155447          	fmsub.q	fs0,fa0,fa7,ft2,unknown
80003a04:	7b35                	lui	s6,0xfffed
80003a06:	171a                	slli	a4,a4,0x26
80003a08:	172d75a3          	0x172d75a3
80003a0c:	3a26                	fld	fs4,104(sp)
80003a0e:	46e31733          	0x46e31733
80003a12:	174a                	slli	a4,a4,0x32
80003a14:	1753184b          	fnmsub.q	fa6,ft6,fs5,ft2,rtz
80003a18:	b7d5                	j	800039fc <verify_data+0x5bc>
80003a1a:	1790                	addi	a2,sp,992
80003a1c:	394c                	fld	fa1,176(a0)
80003a1e:	17bc                	addi	a5,sp,1000
80003a20:	bb4a                	fsd	fs2,432(sp)
80003a22:	17bc                	addi	a5,sp,1000
80003a24:	e6da                	fsw	fs6,76(sp)
80003a26:	17c6                	slli	a5,a5,0x31
80003a28:	ff59                	bnez	a4,800039c6 <verify_data+0x586>
80003a2a:	17c9                	addi	a5,a5,-14
80003a2c:	3abd                	jal	800033aa <__clz_tab+0x16e>
80003a2e:	61c617cf          	fnmadd.s	fa5,fa2,ft8,fa2,rtz
80003a32:	974017d7          	0x974017d7
80003a36:	17ed                	addi	a5,a5,-5
80003a38:	eeec                	fsw	fa1,92(a3)
80003a3a:	1802                	slli	a6,a6,0x20
80003a3c:	10d2                	slli	ra,ra,0x34
80003a3e:	1aef180b          	0x1aef180b
80003a42:	184e                	slli	a6,a6,0x33
80003a44:	8e8d                	sub	a3,a3,a1
80003a46:	188c                	addi	a1,sp,112
80003a48:	c656                	sw	s5,12(sp)
80003a4a:	189e                	slli	a7,a7,0x27
80003a4c:	a1ce                	fsd	fs3,192(sp)
80003a4e:	18d2                	slli	a7,a7,0x34
80003a50:	9675                	srai	a2,a2,0x3d
80003a52:	3dfe18e3          	bne	t3,t6,80004622 <verify_data+0x11e2>
80003a56:	18fa                	slli	a7,a7,0x3e
80003a58:	19de                	slli	s3,s3,0x37
80003a5a:	b28018fb          	0xb28018fb
80003a5e:	1900                	addi	s0,sp,176
80003a60:	4ff0                	lw	a2,92(a5)
80003a62:	190a                	slli	s2,s2,0x22
80003a64:	191afacb          	fnmsub.s	fs5,fs5,fa7,ft3
80003a68:	ed44                	fsw	fs1,28(a0)
80003a6a:	0a531927          	0xa531927
80003a6e:	b1bf193b          	0xb1bf193b
80003a72:	194e                	slli	s2,s2,0x33
80003a74:	19a2b58b          	0x19a2b58b
80003a78:	5cc9                	li	s9,-14
80003a7a:	19c1                	addi	s3,s3,-16
80003a7c:	1980                	addi	s0,sp,240
80003a7e:	19c9                	addi	s3,s3,-14
80003a80:	19cee96b          	0x19cee96b
80003a84:	59f1                	li	s3,-4
80003a86:	19d5                	addi	s3,s3,-11
80003a88:	4af1                	li	s5,28
80003a8a:	306d19eb          	0x306d19eb
80003a8e:	19f1                	addi	s3,s3,-4
80003a90:	f8f2                	fsw	ft8,112(sp)
80003a92:	19f1                	addi	s3,s3,-4
80003a94:	1886                	slli	a7,a7,0x21
80003a96:	1a04                	addi	s1,sp,304
80003a98:	af00                	fsd	fs0,24(a4)
80003a9a:	1a05                	addi	s4,s4,-31
80003a9c:	1a067347          	fmsub.d	ft6,fa2,ft0,ft3
80003aa0:	efe9                	bnez	a5,80003b7a <verify_data+0x73a>
80003aa2:	1a16                	slli	s4,s4,0x25
80003aa4:	34a2                	fld	fs1,40(sp)
80003aa6:	1a26                	slli	s4,s4,0x29
80003aa8:	6680                	flw	fs0,8(a3)
80003aaa:	1a72                	slli	s4,s4,0x3c
80003aac:	6a3e                	flw	fs4,204(sp)
80003aae:	1a7c                	addi	a5,sp,316
80003ab0:	1a9b193f 1ab845a1 	0x1ab845a11a9b193f
80003ab8:	c174                	sw	a3,68(a0)
80003aba:	1abe                	slli	s5,s5,0x2f
80003abc:	8f99                	sub	a5,a5,a4
80003abe:	1ae8                	addi	a0,sp,380
80003ac0:	88d5                	andi	s1,s1,21
80003ac2:	1afe                	slli	s5,s5,0x3f
80003ac4:	fbb4                	fsw	fa3,112(a5)
80003ac6:	1b14                	addi	a3,sp,432
80003ac8:	2e78                	fld	fa4,216(a2)
80003aca:	1b16                	slli	s6,s6,0x25
80003acc:	1b1ae0d3          	fdiv.d	ft1,fs5,fa7,unknown
80003ad0:	d252                	sw	s4,36(sp)
80003ad2:	0fbf1b2b          	0xfbf1b2b
80003ad6:	1b35                	addi	s6,s6,-19
80003ad8:	fb86                	fsw	ft1,244(sp)
80003ada:	1b60                	addi	s0,sp,444
80003adc:	1b717563          	bgeu	sp,s7,80003c86 <verify_data+0x846>
80003ae0:	ab66                	fsd	fs9,400(sp)
80003ae2:	1b78                	addi	a4,sp,444
80003ae4:	0f16                	slli	t5,t5,0x5
80003ae6:	1b81                	addi	s7,s7,-32
80003ae8:	1b825af3          	csrrwi	s5,0x1b8,4
80003aec:	e83e                	fsw	fa5,16(sp)
80003aee:	1b94                	addi	a3,sp,496
80003af0:	a632                	fsd	fa2,264(sp)
80003af2:	1b96                	slli	s7,s7,0x25
80003af4:	1baab177          	0x1baab177
80003af8:	1bb4383f 1bb928d5 	0x1bb928d51bb4383f
80003b00:	0309                	addi	t1,t1,2
80003b02:	1c05                	addi	s8,s8,-31
80003b04:	84d0                	0x84d0
80003b06:	1c2d                	addi	s8,s8,-21
80003b08:	1c2f74ab          	0x1c2f74ab
80003b0c:	4355                	li	t1,21
80003b0e:	1c36                	slli	s8,s8,0x2d
80003b10:	4b00                	lw	s0,16(a4)
80003b12:	a9601c73          	csrrw	s8,0xa96,zero
80003b16:	1c74                	addi	a3,sp,572
80003b18:	b4a9                	j	80003562 <verify_data+0x122>
80003b1a:	1c88                	addi	a0,sp,624
80003b1c:	0ac5                	addi	s5,s5,17
80003b1e:	1cb4                	addi	a3,sp,632
80003b20:	12d4                	addi	a3,sp,356
80003b22:	1cb4                	addi	a3,sp,632
80003b24:	bb55                	j	800038d8 <verify_data+0x498>
80003b26:	1cc8                	addi	a0,sp,628
80003b28:	1ccf4e3b          	0x1ccf4e3b
80003b2c:	000d                	c.nop	3
80003b2e:	1cf5                	addi	s9,s9,-3
80003b30:	4c05                	li	s8,1
80003b32:	1cfa                	slli	s9,s9,0x3e
80003b34:	88a1                	andi	s1,s1,8
80003b36:	1cfa                	slli	s9,s9,0x3e
80003b38:	9565                	srai	a0,a0,0x39
80003b3a:	1d14                	addi	a3,sp,688
80003b3c:	da5f 1d42 1082      	0x10821d42da5f
80003b42:	71bc1d5b          	0x71bc1d5b
80003b46:	97091d77          	0x97091d77
80003b4a:	1d82                	slli	s11,s11,0x20
80003b4c:	daea                	sw	s10,116(sp)
80003b4e:	1dac                	addi	a1,sp,760
80003b50:	9829                	andi	s0,s0,-22
80003b52:	1db9                	addi	s11,s11,-18
80003b54:	d75f 1dcb 2524      	0x25241dcbd75f
80003b5a:	9af51dd3          	0x9af51dd3
80003b5e:	1dd8                	addi	a4,sp,756
80003b60:	8a44                	0x8a44
80003b62:	daf91def          	jal	s11,7ff95910 <buflen.2941+0x7ff958d0>
80003b66:	1df0                	addi	a2,sp,764
80003b68:	6e48                	flw	fa0,28(a2)
80003b6a:	1df4                	addi	a3,sp,764
80003b6c:	c9c9                	beqz	a1,80003bfe <verify_data+0x7be>
80003b6e:	1e00                	addi	s0,sp,816
80003b70:	d51d                	beqz	a0,80003a9e <verify_data+0x65e>
80003b72:	1e08                	addi	a0,sp,816
80003b74:	1e300f6b          	0x1e300f6b
80003b78:	25de                	fld	fa1,464(sp)
80003b7a:	1e45                	addi	t3,t3,-15
80003b7c:	8062                	c.mv	zero,s8
80003b7e:	1e46                	slli	t3,t3,0x31
80003b80:	1e48192b          	0x1e48192b
80003b84:	7f46                	flw	ft10,112(sp)
80003b86:	1e58                	addi	a4,sp,820
80003b88:	1641                	addi	a2,a2,-16
80003b8a:	1e62                	slli	t3,t3,0x38
80003b8c:	47e8                	lw	a0,76(a5)
80003b8e:	1e6d                	addi	t3,t3,-5
80003b90:	932c                	0x932c
80003b92:	1e6d                	addi	t3,t3,-5
80003b94:	0b6e                	slli	s6,s6,0x1b
80003b96:	1e8c                	addi	a1,sp,880
80003b98:	e911                	bnez	a0,80003bac <verify_data+0x76c>
80003b9a:	540d1e93          	0x540d1e93
80003b9e:	1e9c                	addi	a5,sp,880
80003ba0:	1e9ca763          	0x1e9ca763
80003ba4:	49c4                	lw	s1,20(a1)
80003ba6:	1ea6                	slli	t4,t4,0x29
80003ba8:	f87d                	bnez	s0,80003b9e <verify_data+0x75e>
80003baa:	1eb0                	addi	a2,sp,888
80003bac:	98ac                	0x98ac
80003bae:	1eb8                	addi	a4,sp,888
80003bb0:	a950                	fsd	fa2,144(a0)
80003bb2:	1ebe                	slli	t4,t4,0x2f
80003bb4:	8110                	0x8110
80003bb6:	1edc                	addi	a5,sp,884
80003bb8:	2d32                	fld	fs10,264(sp)
80003bba:	1ee1                	addi	t4,t4,-8
80003bbc:	4855                	li	a6,21
80003bbe:	1ef2                	slli	t4,t4,0x3c
80003bc0:	1ef490c3          	fmadd.q	ft1,fs1,fa5,ft3,rtz
80003bc4:	1ef9fd23          	0x1ef9fd23
80003bc8:	9906                	add	s2,s2,ra
80003bca:	5e7e1f03          	lh	t5,1511(t3) # 45e7 <buflen.2941+0x45a7>
80003bce:	1f06                	slli	t5,t5,0x21
80003bd0:	3d39                	jal	800039ee <verify_data+0x5ae>
80003bd2:	1f09                	addi	t5,t5,-30
80003bd4:	8905                	andi	a0,a0,1
80003bd6:	1f1f 5071 1f23      	0x1f2350711f1f
80003bdc:	1f407de7          	0x1f407de7
80003be0:	1c49                	addi	s8,s8,-14
80003be2:	1f54                	addi	a3,sp,948
80003be4:	0239                	addi	tp,tp,14
80003be6:	1f79                	addi	t5,t5,-2
80003be8:	1f8b77b7          	lui	a5,0x1f8b7
80003bec:	96fd                	srai	a3,a3,0x3f
80003bee:	1f98                	addi	a4,sp,1008
80003bf0:	b1ee                	fsd	fs11,224(sp)
80003bf2:	cd531fb7          	lui	t6,0xcd531
80003bf6:	1fbc                	addi	a5,sp,1016
80003bf8:	7b61                	lui	s6,0xffff8
80003bfa:	1fc6                	slli	t6,t6,0x31
80003bfc:	0dde                	slli	s11,s11,0x17
80003bfe:	1fda                	slli	t6,t6,0x36
80003c00:	16f9                	addi	a3,a3,-2
80003c02:	1ff0                	addi	a2,sp,1020
80003c04:	adc6                	fsd	fa7,216(sp)
80003c06:	73bb1ff3          	csrrw	t6,0x73b,s6
80003c0a:	201f 0c4c 2027      	0x20270c4c201f
80003c10:	202edda7          	0x202edda7
80003c14:	202fd7d7          	0x202fd7d7
80003c18:	2c8c                	fld	fa1,24(s1)
80003c1a:	2031                	jal	80003c26 <verify_data+0x7e6>
80003c1c:	46f4                	lw	a3,76(a3)
80003c1e:	203e                	fld	ft0,456(sp)
80003c20:	8ed1                	or	a3,a3,a2
80003c22:	0db82057          	0xdb82057
80003c26:	206c                	fld	fa1,192(s0)
80003c28:	7fd8                	flw	fa4,60(a5)
80003c2a:	207a                	fld	ft0,408(sp)
80003c2c:	0d30                	addi	a2,sp,664
80003c2e:	207d                	jal	80003cdc <verify_data+0x89c>
80003c30:	3aed                	jal	8000362a <verify_data+0x1ea>
80003c32:	2085                	jal	80003c92 <verify_data+0x852>
80003c34:	7fc9                	lui	t6,0xffff2
80003c36:	2090                	fld	fa2,0(s1)
80003c38:	78d4                	flw	fa3,52(s1)
80003c3a:	f31d20b3          	0xf31d20b3
80003c3e:	20bc                	fld	fa5,64(s1)
80003c40:	7518                	flw	fa4,40(a0)
80003c42:	20d0                	fld	fa2,128(s1)
80003c44:	cf61                	beqz	a4,80003d1c <verify_data+0x8dc>
80003c46:	e50320fb          	0xe50320fb
80003c4a:	2128                	fld	fa0,64(a0)
80003c4c:	7078                	flw	fa4,100(s0)
80003c4e:	2159                	jal	800040d4 <verify_data+0xc94>
80003c50:	0b52                	slli	s6,s6,0x14
80003c52:	9d30216b          	0x9d30216b
80003c56:	218e                	fld	ft3,192(sp)
80003c58:	81de                	mv	gp,s7
80003c5a:	03af21af          	amoadd.w.rl	gp,s10,(t5)
80003c5e:	a15d21bf f16e21d7 	0xf16e21d7a15d21bf
80003c66:	21e4                	fld	fs1,192(a1)
80003c68:	21f8bbe7          	0x21f8bbe7
80003c6c:	757d                	lui	a0,0xfffff
80003c6e:	2212                	fld	ft4,256(sp)
80003c70:	221bb1f3          	csrrc	gp,0x221,s7
80003c74:	27e4                	fld	fs1,200(a5)
80003c76:	223a                	fld	ft4,392(sp)
80003c78:	e330                	fsw	fa2,64(a4)
80003c7a:	2262                	fld	ft4,24(sp)
80003c7c:	226a2ea7          	fsw	ft6,573(s4) # 534538df <buflen.2941+0x5345389f>
80003c80:	9562                	add	a0,a0,s8
80003c82:	226a                	fld	ft4,152(sp)
80003c84:	227f96f7          	0x227f96f7
80003c88:	810a                	mv	sp,sp
80003c8a:	2285                	jal	80003dea <verify_data+0x9aa>
80003c8c:	22992e4b          	fnmsub.d	ft8,fs2,fs1,ft4,rdn
80003c90:	aa91                	j	80003de4 <verify_data+0x9a4>
80003c92:	229c                	fld	fa5,0(a3)
80003c94:	9608                	0x9608
80003c96:	22c1                	jal	80003e56 <verify_data+0xa16>
80003c98:	fb81                	bnez	a5,80003ba8 <verify_data+0x768>
80003c9a:	22e0                	fld	fs0,192(a3)
80003c9c:	ab60                	fsd	fs0,208(a4)
80003c9e:	22ea                	fld	ft5,152(sp)
80003ca0:	2fa9                	jal	800043fa <verify_data+0xfba>
80003ca2:	231c                	fld	fa5,0(a4)
80003ca4:	39df 2335 4e2b      	0x4e2b233539df
80003caa:	2349                	jal	8000422c <verify_data+0xdec>
80003cac:	c94a                	sw	s2,144(sp)
80003cae:	234c                	fld	fa1,128(a4)
80003cb0:	23688f3b          	0x23688f3b
80003cb4:	278e                	fld	fa5,192(sp)
80003cb6:	2374                	fld	fa3,192(a4)
80003cb8:	ed70                	fsw	fa2,92(a0)
80003cba:	2381                	jal	800041fa <verify_data+0xdba>
80003cbc:	04c5                	addi	s1,s1,17
80003cbe:	239c                	fld	fa5,0(a5)
80003cc0:	034d                	addi	t1,t1,19
80003cc2:	23a5                	jal	8000422a <verify_data+0xdea>
80003cc4:	6a30                	flw	fa2,80(a2)
80003cc6:	a2f223e7          	0xa2f223e7
80003cca:	7ca623ef          	jal	t2,80066494 <_tbss_end+0x5cfd0>
80003cce:	e3c123f3          	csrrs	t2,0xe3c,sp
80003cd2:	23fe                	fld	ft7,472(sp)
80003cd4:	240481ab          	0x240481ab
80003cd8:	37ea                	fld	fa5,184(sp)
80003cda:	491c240f          	0x491c240f
80003cde:	2435                	jal	80003f0a <verify_data+0xaca>
80003ce0:	b44a                	fsd	fs2,40(sp)
80003ce2:	2439                	jal	80003ef0 <verify_data+0xab0>
80003ce4:	cd3e                	sw	a5,152(sp)
80003ce6:	247e                	fld	fs0,472(sp)
80003ce8:	490d                	li	s2,3
80003cea:	249c                	fld	fa5,8(s1)
80003cec:	3ecd                	jal	800038de <verify_data+0x49e>
80003cee:	24a2                	fld	fs1,8(sp)
80003cf0:	5cb5                	li	s9,-19
80003cf2:	66c324b3          	0x66c324b3
80003cf6:	24d2                	fld	fs1,272(sp)
80003cf8:	24d5dd8b          	0x24d5dd8b
80003cfc:	81fd                	srli	a1,a1,0x1f
80003cfe:	24d8                	fld	fa4,136(s1)
80003d00:	5376                	lw	t1,124(sp)
80003d02:	24e0                	fld	fs0,200(s1)
80003d04:	bbfa                	fsd	ft10,496(sp)
80003d06:	3a3624eb          	0x3a3624eb
80003d0a:	24ec                	fld	fa1,200(s1)
80003d0c:	05f9                	addi	a1,a1,30
80003d0e:	24f4                	fld	fa3,200(s1)
80003d10:	0b3d                	addi	s6,s6,15
80003d12:	24fc                	fld	fa5,200(s1)
80003d14:	c3bd                	beqz	a5,80003d7a <verify_data+0x93a>
80003d16:	2511                	jal	8000431a <verify_data+0xeda>
80003d18:	b685                	j	80003878 <verify_data+0x438>
80003d1a:	2514                	fld	fa3,8(a0)
80003d1c:	90ea                	add	ra,ra,s10
80003d1e:	2515                	jal	80004342 <verify_data+0xf02>
80003d20:	76c0                	flw	fs0,44(a3)
80003d22:	252c                	fld	fa1,72(a0)
80003d24:	18b0                	addi	a2,sp,120
80003d26:	2530                	fld	fa2,72(a0)
80003d28:	dc48                	sw	a0,60(s0)
80003d2a:	253a                	fld	fa0,392(sp)
80003d2c:	625f 253c d083      	0xd083253c625f
80003d32:	e0d6253f 5203254f 	0x5203254fe0d6253f
80003d3a:	2575                	jal	800043e6 <verify_data+0xfa6>
80003d3c:	0af0                	addi	a2,sp,348
80003d3e:	a39e2593          	slti	a1,t3,-1479
80003d42:	259c                	fld	fa5,8(a1)
80003d44:	648d                	lui	s1,0x3
80003d46:	25a2                	fld	fa1,8(sp)
80003d48:	25aa979b          	0x25aa979b
80003d4c:	e378                	fsw	fa4,68(a4)
80003d4e:	25b4                	fld	fa3,72(a1)
80003d50:	25bbf907          	0x25bbf907
80003d54:	7b4a                	flw	fs6,176(sp)
80003d56:	25be                	fld	fa1,456(sp)
80003d58:	ff86                	fsw	ft1,252(sp)
80003d5a:	eb4f25ef          	jal	a1,7fff640e <buflen.2941+0x7fff63ce>
80003d5e:	2601                	jal	8000405e <verify_data+0xc1e>
80003d60:	a9bd                	j	800041de <verify_data+0xd9e>
80003d62:	2609                	jal	80004064 <verify_data+0xc24>
80003d64:	5fae                	lw	t6,232(sp)
80003d66:	2632                	fld	fa2,264(sp)
80003d68:	2540                	fld	fs0,136(a0)
80003d6a:	83a92667          	0x83a92667
80003d6e:	afc1266f          	jal	a2,7ff1606a <buflen.2941+0x7ff1602a>
80003d72:	78e9268b          	0x78e9268b
80003d76:	26ba                	fld	fa3,392(sp)
80003d78:	0b60                	addi	s0,sp,412
80003d7a:	26c6                	fld	fa3,80(sp)
80003d7c:	a9e2                	fsd	fs8,208(sp)
80003d7e:	26d5                	jal	80004162 <verify_data+0xd22>
80003d80:	ed86                	fsw	ft1,216(sp)
80003d82:	26d8                	fld	fa4,136(a3)
80003d84:	ebc4                	fsw	fs1,20(a5)
80003d86:	26dd                	jal	8000416c <verify_data+0xd2c>
80003d88:	e848                	fsw	fa0,20(s0)
80003d8a:	26e2                	fld	fa3,24(sp)
80003d8c:	26ecc43f 26f58add 	0x26f58add26ecc43f
80003d94:	2ad8                	fld	fa4,144(a3)
80003d96:	2709                	jal	80004498 <verify_data+0x1058>
80003d98:	9280                	0x9280
80003d9a:	270d                	jal	800044bc <verify_data+0x107c>
80003d9c:	4fba                	lw	t6,140(sp)
80003d9e:	2711                	jal	800044a2 <verify_data+0x1062>
80003da0:	53c2                	lw	t2,48(sp)
80003da2:	2728                	fld	fa0,72(a4)
80003da4:	272cdbc7          	fmsub.q	fs7,fs9,fs2,ft4,unknown
80003da8:	ec5c                	fsw	fa5,28(s0)
80003daa:	276a                	fld	fa4,152(sp)
80003dac:	bfb6                	fsd	fa3,504(sp)
80003dae:	2799                	jal	800044f4 <verify_data+0x10b4>
80003db0:	27ac473b          	0x27ac473b
80003db4:	e2fd                	bnez	a3,80003e9a <verify_data+0xa5a>
80003db6:	dfd027bb          	0xdfd027bb
80003dba:	27f8                	fld	fa4,200(a5)
80003dbc:	280b98c7          	fmsub.s	fa7,fs7,ft0,ft5,rtz
80003dc0:	d6ad                	beqz	a3,80003d2a <verify_data+0x8ea>
80003dc2:	2812                	fld	fa6,256(sp)
80003dc4:	281bbd27          	fsd	ft1,666(s7)
80003dc8:	fe11                	bnez	a2,80003ce4 <verify_data+0x8a4>
80003dca:	2828                	fld	fa0,80(s0)
80003dcc:	49a5                	li	s3,9
80003dce:	2835                	jal	80003e0a <verify_data+0x9ca>
80003dd0:	10f8                	addi	a4,sp,108
80003dd2:	2844                	fld	fs1,144(s0)
80003dd4:	2845d05b          	0x2845d05b
80003dd8:	9189                	srli	a1,a1,0x22
80003dda:	285d                	jal	80003e90 <verify_data+0xa50>
80003ddc:	2870b66f          	jal	a2,8000f862 <_tbss_end+0x639e>
80003de0:	a34d                	j	80004382 <verify_data+0xf42>
80003de2:	2880                	fld	fs0,16(s1)
80003de4:	9bfd                	andi	a5,a5,-1
80003de6:	288a                	fld	fa7,128(sp)
80003de8:	c5f0                	sw	a2,76(a1)
80003dea:	28a6                	fld	fa7,72(sp)
80003dec:	c1b4                	sw	a3,64(a1)
80003dee:	f15328bb          	0xf15328bb
80003df2:	28bd                	jal	80003e70 <verify_data+0xa30>
80003df4:	5d55                	li	s10,-11
80003df6:	28d4                	fld	fa3,144(s1)
80003df8:	b431                	j	80003804 <verify_data+0x3c4>
80003dfa:	25ea28ef          	jal	a7,800a6058 <_tbss_end+0x9cb94>
80003dfe:	2901                	jal	8000420e <verify_data+0xdce>
80003e00:	290737e7          	0x290737e7
80003e04:	6c64                	flw	fs1,92(s0)
80003e06:	2909                	jal	80004218 <verify_data+0xdd8>
80003e08:	292b6803          	0x292b6803
80003e0c:	de5d                	beqz	a2,80003dca <verify_data+0x98a>
80003e0e:	292c                	fld	fa1,80(a0)
80003e10:	292dc637          	lui	a2,0x292dc
80003e14:	4190                	lw	a2,0(a1)
80003e16:	2931                	jal	80004232 <verify_data+0xdf2>
80003e18:	fc5d                	bnez	s0,80003dd6 <verify_data+0x996>
80003e1a:	9857294b          	fnmsub.s	fs2,fa4,ft5,fs3,rdn
80003e1e:	2959                	jal	800042b4 <verify_data+0xe74>
80003e20:	28ae                	fld	fa7,200(sp)
80003e22:	297c                	fld	fa5,208(a0)
80003e24:	297efd5b          	0x297efd5b
80003e28:	f432                	fsw	fa2,40(sp)
80003e2a:	2982                	fld	fs3,0(sp)
80003e2c:	d515                	beqz	a0,80003d58 <verify_data+0x918>
80003e2e:	2995                	jal	800042a2 <verify_data+0xe62>
80003e30:	daa0                	sw	s0,112(a3)
80003e32:	986b2997          	auipc	s3,0x986b2
80003e36:	2998                	fld	fa4,16(a1)
80003e38:	29a4b67b          	0x29a4b67b
80003e3c:	29c439a7          	fsd	ft8,659(s0)
80003e40:	29d70e33          	0x29d70e33
80003e44:	7a22                	flw	fs4,40(sp)
80003e46:	29dd                	jal	8000433c <verify_data+0xefc>
80003e48:	eae5                	bnez	a3,80003f38 <verify_data+0xaf8>
80003e4a:	29e8                	fld	fa0,208(a1)
80003e4c:	35ba                	fld	fa1,424(sp)
80003e4e:	2a0d                	jal	80003f80 <verify_data+0xb40>
80003e50:	2a12718f          	0x2a12718f
80003e54:	2885                	jal	80003ec4 <verify_data+0xa84>
80003e56:	2a1a                	fld	fs4,384(sp)
80003e58:	4eda                	lw	t4,148(sp)
80003e5a:	2a21                	jal	80003f72 <verify_data+0xb32>
80003e5c:	2a22a5e3          	0x2a22a5e3
80003e60:	6ac2                	flw	fs5,16(sp)
80003e62:	2a4c                	fld	fa1,144(a2)
80003e64:	2a8f6b6f          	jal	s6,800fa10c <_tbss_end+0xf0c48>
80003e68:	bc82                	fsd	ft0,120(sp)
80003e6a:	2a95                	jal	80003fde <verify_data+0xb9e>
80003e6c:	6351                	lui	t1,0x14
80003e6e:	2aac                	fld	fa1,80(a3)
80003e70:	74f2                	flw	fs1,60(sp)
80003e72:	2aca                	fld	fs5,144(sp)
80003e74:	832c                	0x832c
80003e76:	4d282aef          	jal	s5,80086348 <_tbss_end+0x7ce84>
80003e7a:	2afa                	fld	fs5,408(sp)
80003e7c:	9719                	srai	a4,a4,0x26
80003e7e:	2b01                	jal	8000438e <verify_data+0xf4e>
80003e80:	2b0b5427          	0x2b0b5427
80003e84:	d0ed                	beqz	s1,80003e66 <verify_data+0xa26>
80003e86:	2b0c                	fld	fa1,16(a4)
80003e88:	261f 2b0e deec      	0xdeec2b0e261f
80003e8e:	2b16                	fld	fs6,320(sp)
80003e90:	0b2a                	slli	s6,s6,0xa
80003e92:	2b1d                	jal	800043c8 <verify_data+0xf88>
80003e94:	4dbe                	lw	s11,204(sp)
80003e96:	2b26                	fld	fs6,72(sp)
80003e98:	0c12                	slli	s8,s8,0x4
80003e9a:	2b48                	fld	fa0,144(a4)
80003e9c:	2488                	fld	fa0,8(s1)
80003e9e:	1c4b2b53          	0x1c4b2b53
80003ea2:	2b5e                	fld	fs6,464(sp)
80003ea4:	e58d                	bnez	a1,80003ece <verify_data+0xa8e>
80003ea6:	2b7a                	fld	fs6,408(sp)
80003ea8:	6fa2                	flw	ft11,8(sp)
80003eaa:	4d812b7b          	0x4d812b7b
80003eae:	2b84                	fld	fs1,16(a5)
80003eb0:	70c8                	flw	fa0,36(s1)
80003eb2:	5d0d2b87          	flw	fs7,1488(s10)
80003eb6:	2b89                	jal	80004408 <verify_data+0xfc8>
80003eb8:	d1e1                	beqz	a1,80003e78 <verify_data+0xa38>
80003eba:	6ca02b8f          	0x6ca02b8f
80003ebe:	d24e2b9b          	0xd24e2b9b
80003ec2:	2b9d                	jal	80004438 <verify_data+0xff8>
80003ec4:	5d49                	li	s10,-14
80003ec6:	35dc2ba7          	fsw	ft9,855(s8)
80003eca:	2ba8                	fld	fa0,80(a5)
80003ecc:	6a49                	lui	s4,0x12
80003ece:	2be5                	jal	800044c6 <verify_data+0x1086>
80003ed0:	7d20                	flw	fs0,120(a0)
80003ed2:	a3052bf3          	csrrs	s7,0xa30,a0
80003ed6:	2bf5                	jal	800044d2 <verify_data+0x1092>
80003ed8:	64c0                	flw	fs0,12(s1)
80003eda:	58672c07          	flw	fs8,1414(a4)
80003ede:	2c15                	jal	80004112 <verify_data+0xcd2>
80003ee0:	aecc                	fsd	fa1,152(a3)
80003ee2:	f5572c23          	sw	s5,-168(a4)
80003ee6:	94b82c2b          	0x94b82c2b
80003eea:	2c2d                	jal	80004124 <verify_data+0xce4>
80003eec:	2c3cdaab          	0x2c3cdaab
80003ef0:	0379                	addi	t1,t1,30
80003ef2:	2c52                	fld	fs8,272(sp)
80003ef4:	2c54a803          	lw	a6,709(s1) # 32c5 <buflen.2941+0x3285>
80003ef8:	983d                	andi	s0,s0,-17
80003efa:	2c6a                	fld	fs8,152(sp)
80003efc:	aaad                	j	80004076 <verify_data+0xc36>
80003efe:	5cab2c73          	csrrs	s8,0x5ca,s6
80003f02:	9f222c8f          	0x9f222c8f
80003f06:	2c9d                	jal	8000417c <verify_data+0xd3c>
80003f08:	2c45                	jal	800041b8 <verify_data+0xd78>
80003f0a:	b88a2cab          	0xb88a2cab
80003f0e:	2cbd                	jal	8000418c <verify_data+0xd4c>
80003f10:	2cc21eab          	0x2cc21eab
80003f14:	ddc4                	sw	s1,60(a1)
80003f16:	2cd0                	fld	fa2,152(s1)
80003f18:	8849                	andi	s0,s0,18
80003f1a:	2cd8                	fld	fa4,152(s1)
80003f1c:	2ce66627          	0x2ce66627
80003f20:	6b72                	flw	fs6,28(sp)
80003f22:	2cf4                	fld	fa3,216(s1)
80003f24:	e584                	fsw	fs1,8(a1)
80003f26:	2cf4                	fld	fa3,216(s1)
80003f28:	ceea                	sw	s10,92(sp)
80003f2a:	2cfe                	fld	fs9,472(sp)
80003f2c:	d921                	beqz	a0,80003e7c <verify_data+0xa3c>
80003f2e:	2d08                	fld	fa0,24(a0)
80003f30:	9006                	c.add	zero,ra
80003f32:	2d0c                	fld	fa1,24(a0)
80003f34:	2d2aea73          	csrrsi	s4,0x2d2,21
80003f38:	8c8c                	0x8c8c
80003f3a:	2d2d                	jal	80004574 <verify_data+0x1134>
80003f3c:	d426                	sw	s1,40(sp)
80003f3e:	2d30                	fld	fa2,88(a0)
80003f40:	eda1                	bnez	a1,80003f98 <verify_data+0xb58>
80003f42:	2d68                	fld	fa0,216(a0)
80003f44:	2d73d15b          	0x2d73d15b
80003f48:	7cb6                	flw	fs9,108(sp)
80003f4a:	fe492d97          	auipc	s11,0xfe492
80003f4e:	ddde2d97          	auipc	s11,0xddde2
80003f52:	2d9e                	fld	fs11,448(sp)
80003f54:	ac55                	j	80004208 <verify_data+0xdc8>
80003f56:	0f762da3          	sw	s7,251(a2) # 292dc0fb <buflen.2941+0x292dc0bb>
80003f5a:	ec892dbb          	0xec892dbb
80003f5e:	2dc4                	fld	fs1,152(a1)
80003f60:	95c4                	0x95c4
80003f62:	2dc9                	jal	80004634 <verify_data+0x11f4>
80003f64:	17e0                	addi	s0,sp,1004
80003f66:	2dd6                	fld	fs11,336(sp)
80003f68:	2deb91bf 2df3dfcb 	0x2df3dfcb2deb91bf
80003f70:	2e04b247          	fmsub.q	ft4,fs1,ft0,ft5,rup
80003f74:	9db6                	add	s11,s11,a3
80003f76:	77ef2e07          	flw	ft8,1918(t5)
80003f7a:	0dbb2e0b          	0xdbb2e0b
80003f7e:	2e16                	fld	ft8,320(sp)
80003f80:	b07f                	0xb07f
80003f82:	2e56                	fld	ft8,336(sp)
80003f84:	0f7c                	addi	a5,sp,924
80003f86:	2e6a                	fld	ft8,152(sp)
80003f88:	2e6c133b          	0x2e6c133b
80003f8c:	078a                	slli	a5,a5,0x2
80003f8e:	2e70                	fld	fa2,216(a2)
80003f90:	26e2                	fld	fa3,24(sp)
80003f92:	2eb2                	fld	ft9,264(sp)
80003f94:	3bb4                	fld	fa3,112(a5)
80003f96:	2ed0                	fld	fa2,152(a3)
80003f98:	4040                	lw	s0,4(s0)
80003f9a:	2ed9                	jal	80004370 <verify_data+0xf30>
80003f9c:	f2c1                	bnez	a3,80003f1c <verify_data+0xadc>
80003f9e:	2edd                	jal	80004394 <verify_data+0xf54>
80003fa0:	0df8                	addi	a4,sp,732
80003fa2:	2ee2                	fld	ft9,24(sp)
80003fa4:	2eea494b          	fnmsub.q	fs2,fs4,fa4,ft5,rmm
80003fa8:	def5                	beqz	a3,80003fa4 <verify_data+0xb64>
80003faa:	2ef0                	fld	fa2,216(a3)
80003fac:	8746                	mv	a4,a7
80003fae:	2ef5                	jal	800043aa <verify_data+0xf6a>
80003fb0:	9bd8                	0x9bd8
80003fb2:	2ef6                	fld	ft9,344(sp)
80003fb4:	5b1f 2f1a 9f26      	0x9f262f1a5b1f
80003fba:	2f24                	fld	fs1,88(a4)
80003fbc:	9259                	srli	a2,a2,0x36
80003fbe:	2f28                	fld	fa0,88(a4)
80003fc0:	91a6                	add	gp,gp,s1
80003fc2:	ef642f2b          	0xef642f2b
80003fc6:	b4642f4b          	0xb4642f4b
80003fca:	2f70                	fld	fa2,216(a4)
80003fcc:	2c50                	fld	fa2,152(s0)
80003fce:	2f82                	fld	ft11,0(sp)
80003fd0:	5026                	0x5026
80003fd2:	d1cb2f97          	auipc	t6,0xd1cb2
80003fd6:	b6d42fa7          	fsw	fa3,-1153(s0)
80003fda:	2faa                	fld	ft11,136(sp)
80003fdc:	2fb80fd7          	0x2fb80fd7
80003fe0:	21dc                	fld	fa5,128(a1)
80003fe2:	2fb9                	jal	80004740 <verify_data+0x1300>
80003fe4:	2fbefe13          	andi	t3,t4,763
80003fe8:	2fc79aeb          	0x2fc79aeb
80003fec:	2fcade4f          	fnmadd.q	ft8,fs5,ft8,ft5,unknown
80003ff0:	b366                	fsd	fs9,416(sp)
80003ff2:	2fd8                	fld	fa4,152(a5)
80003ff4:	2ff1affb          	0x2ff1affb
80003ff8:	30107333          	0x30107333
80003ffc:	301453e7          	0x301453e7
80004000:	3014dbb7          	lui	s7,0x3014d
80004004:	94ee                	add	s1,s1,s11
80004006:	3041                	jal	80003886 <verify_data+0x446>
80004008:	86c8                	0x86c8
8000400a:	304d                	jal	800038ac <verify_data+0x46c>
8000400c:	81e5                	srli	a1,a1,0x19
8000400e:	93fd304f          	fnmadd.d	ft0,fs10,ft11,fs2,rup
80004012:	89643067          	0x89643067
80004016:	306a                	fld	ft0,184(sp)
80004018:	2809                	jal	8000402a <verify_data+0xbea>
8000401a:	3401306b          	0x3401306b
8000401e:	307d                	jal	800038cc <verify_data+0x48c>
80004020:	46b2                	lw	a3,12(sp)
80004022:	3089                	jal	80003864 <verify_data+0x424>
80004024:	9914                	0x9914
80004026:	3095                	jal	8000388a <verify_data+0x44a>
80004028:	cd5f 30b8 735e      	0x735e30b8cd5f
8000402e:	30ee                	fld	ft1,248(sp)
80004030:	d0d4                	sw	a3,36(s1)
80004032:	30f6                	fld	ft1,376(sp)
80004034:	6af4                	flw	fa3,84(a3)
80004036:	3108                	fld	fa0,32(a0)
80004038:	1d65                	addi	s10,s10,-7
8000403a:	3116                	fld	ft2,352(sp)
8000403c:	31529973          	csrrw	s2,0x315,t0
80004040:	3170694b          	fnmsub.s	fs2,ft0,fs7,ft6,unknown
80004044:	31766a3f 3181e05e 	0x3181e05e31766a3f
8000404c:	318c2ea3          	sw	s8,797(s8)
80004050:	318c39e7          	0x318c39e7
80004054:	8c7a                	mv	s8,t5
80004056:	3198                	fld	fa4,32(a1)
80004058:	dfc5                	beqz	a5,80004010 <verify_data+0xbd0>
8000405a:	31a6                	fld	ft3,104(sp)
8000405c:	31bc1683          	lh	a3,795(s8)
80004060:	0fec                	addi	a1,sp,988
80004062:	31c6                	fld	ft3,112(sp)
80004064:	d196                	sw	t0,224(sp)
80004066:	31cc                	fld	fa1,160(a1)
80004068:	0a74                	addi	a3,sp,284
8000406a:	31d9                	jal	80003d30 <verify_data+0x8f0>
8000406c:	58ee                	lw	a7,248(sp)
8000406e:	fa4731e3          	0xfa4731e3
80004072:	100a31e3          	0x100a31e3
80004076:	31ec                	fld	fa1,224(a1)
80004078:	de75                	beqz	a2,80004074 <verify_data+0xc34>
8000407a:	3209                	jal	8000397c <verify_data+0x53c>
8000407c:	3213004b          	fnmsub.d	ft0,ft6,ft1,ft6,rne
80004080:	6e71                	lui	t3,0x1c
80004082:	324a                	fld	ft4,176(sp)
80004084:	324f49f7          	0x324f49f7
80004088:	5676                	lw	a2,124(sp)
8000408a:	3268                	fld	fa0,224(a2)
8000408c:	e084                	fsw	fs1,0(s1)
8000408e:	326e                	fld	ft4,248(sp)
80004090:	dd86                	sw	ra,248(sp)
80004092:	3276                	fld	ft4,376(sp)
80004094:	19a6                	slli	s3,s3,0x29
80004096:	3280                	fld	fs0,32(a3)
80004098:	9e1e                	add	t3,t3,t2
8000409a:	328d                	jal	800039fc <verify_data+0x5bc>
8000409c:	32919983          	lh	s3,809(gp) # e9c70329 <_tbss_end+0x69c66e65>
800040a0:	2dde                	fld	fs11,464(sp)
800040a2:	32a2                	fld	ft5,40(sp)
800040a4:	24ff                	0x24ff
800040a6:	32be                	fld	ft5,488(sp)
800040a8:	29b6                	fld	fs3,328(sp)
800040aa:	32c4                	fld	fs1,160(a3)
800040ac:	a565                	j	80004754 <verify_data+0x1314>
800040ae:	32cd                	jal	80003a90 <verify_data+0x650>
800040b0:	6a74                	flw	fa3,84(a2)
800040b2:	32ce                	fld	ft5,240(sp)
800040b4:	3d32                	fld	fs10,296(sp)
800040b6:	32d5                	jal	80003a9a <verify_data+0x65a>
800040b8:	127e                	slli	tp,tp,0x3f
800040ba:	32e0                	fld	fs0,224(a3)
800040bc:	32ee431b          	0x32ee431b
800040c0:	e815                	bnez	s0,800040f4 <verify_data+0xcb4>
800040c2:	ffd432f7          	0xffd432f7
800040c6:	330e                	fld	ft6,224(sp)
800040c8:	4b8a                	lw	s7,128(sp)
800040ca:	3312                	fld	ft6,288(sp)
800040cc:	33226d3b          	0x33226d3b
800040d0:	bb69                	j	80003e6a <verify_data+0xa2a>
800040d2:	3324                	fld	fs1,96(a4)
800040d4:	57fc                	lw	a5,108(a5)
800040d6:	3326                	fld	ft6,104(sp)
800040d8:	3085                	jal	80003938 <verify_data+0x4f8>
800040da:	3339                	jal	80003de8 <verify_data+0x9a8>
800040dc:	a3bc                	fsd	fa5,64(a5)
800040de:	333c                	fld	fa5,96(a4)
800040e0:	3348100b          	0x3348100b
800040e4:	bf5f 3378 37b1      	0x37b13378bf5f
800040ea:	337a                	fld	ft6,440(sp)
800040ec:	9944                	0x9944
800040ee:	339f 69aa 33a5      	0x33a569aa339f
800040f4:	26c9                	jal	800044b6 <verify_data+0x1076>
800040f6:	d57033ab          	0xd57033ab
800040fa:	33ac                	fld	fa1,96(a5)
800040fc:	f61d                	bnez	a2,8000402a <verify_data+0xbea>
800040fe:	33b6                	fld	ft7,360(sp)
80004100:	e796                	fsw	ft5,204(sp)
80004102:	33d8                	fld	fa4,160(a5)
80004104:	33f842cb          	fnmsub.d	ft5,fa6,ft11,ft6,rmm
80004108:	34127047          	0x34127047
8000410c:	3417d43b          	0x3417d43b
80004110:	86a9                	srai	a3,a3,0xa
80004112:	341a                	fld	fs0,416(sp)
80004114:	342ec987          	flq	fs3,834(t4)
80004118:	b01d                	j	8000393e <verify_data+0x4fe>
8000411a:	3438                	fld	fa4,104(s0)
8000411c:	c77a                	sw	t5,140(sp)
8000411e:	345f 935e 3460      	0x3460935e345f
80004124:	b74e                	fsd	fs3,424(sp)
80004126:	3462                	fld	fs0,56(sp)
80004128:	47ff                	0x47ff
8000412a:	346a                	fld	fs0,184(sp)
8000412c:	e798                	fsw	fa4,8(a5)
8000412e:	346c                	fld	fa1,232(s0)
80004130:	e0a8                	fsw	fa0,64(s1)
80004132:	3471                	jal	80003bbe <verify_data+0x77e>
80004134:	b34e                	fsd	fs3,416(sp)
80004136:	347a                	fld	fs0,440(sp)
80004138:	347e3b97          	auipc	s7,0x347e3
8000413c:	3491fb3f 34968f93 	0x34968f933491fb3f
80004144:	3499a707          	flw	fa4,841(s3) # 186b617b <buflen.2941+0x186b613b>
80004148:	5b28                	lw	a0,112(a4)
8000414a:	34cd                	jal	80003c2c <verify_data+0x7ec>
8000414c:	3644                	fld	fs1,168(a2)
8000414e:	34de                	fld	fs1,496(sp)
80004150:	6341                	lui	t1,0x10
80004152:	5cce34eb          	0x5cce34eb
80004156:	6b953513          	sltiu	a0,a0,1721
8000415a:	3526                	fld	fa0,104(sp)
8000415c:	99c5                	andi	a1,a1,-15
8000415e:	2e883533          	0x2e883533
80004162:	3539                	jal	80003f70 <verify_data+0xb30>
80004164:	b79f 353e 36c6      	0x36c6353eb79f
8000416a:	b68b3543          	fmadd.q	fa0,fs6,fs0,fs6,rup
8000416e:	3548                	fld	fa0,168(a0)
80004170:	1a2c                	addi	a1,sp,312
80004172:	3555                	jal	80004016 <verify_data+0xbd6>
80004174:	a8ed                	j	8000426e <verify_data+0xe2e>
80004176:	d7583557          	0xd7583557
8000417a:	3559                	jal	80004000 <verify_data+0xbc0>
8000417c:	3150                	fld	fa2,160(a0)
8000417e:	3561                	jal	80004006 <verify_data+0xbc6>
80004180:	05a2                	slli	a1,a1,0x8
80004182:	3594                	fld	fa3,40(a1)
80004184:	35ae                	fld	fa1,232(sp)
80004186:	35c0                	fld	fs0,168(a1)
80004188:	5411                	li	s0,-28
8000418a:	35e6                	fld	fa1,120(sp)
8000418c:	360e2f13          	slti	t5,t3,864
80004190:	3615d7bf 36182d7f 	0x36182d7f3615d7bf
80004198:	69d9                	lui	s3,0x16
8000419a:	3632                	fld	fa2,296(sp)
8000419c:	93c9                	srli	a5,a5,0x32
8000419e:	3634                	fld	fa3,104(a2)
800041a0:	d420                	sw	s0,104(s0)
800041a2:	d5de3647          	0xd5de3647
800041a6:	3661                	jal	80003d2e <verify_data+0x8ee>
800041a8:	5b94                	lw	a3,48(a5)
800041aa:	3688                	fld	fa0,40(a3)
800041ac:	42ad                	li	t0,11
800041ae:	3698                	fld	fa4,40(a3)
800041b0:	2b51                	jal	80004744 <verify_data+0x1304>
800041b2:	369a                	fld	fa3,416(sp)
800041b4:	10ae                	slli	ra,ra,0x2b
800041b6:	36b0                	fld	fa2,104(a3)
800041b8:	36bd5793          	0x36bd5793
800041bc:	36d21197          	auipc	gp,0x36d21
800041c0:	181a                	slli	a6,a6,0x26
800041c2:	36ee                	fld	fa3,248(sp)
800041c4:	712a                	flw	ft2,168(sp)
800041c6:	2af736f7          	0x2af736f7
800041ca:	953f370b          	0x953f370b
800041ce:	6219370f          	0x6219370f
800041d2:	99ac371b          	0x99ac371b
800041d6:	42b9372b          	0x42b9372b
800041da:	3731                	jal	800040e6 <verify_data+0xca6>
800041dc:	b46e                	fsd	fs11,40(sp)
800041de:	3734                	fld	fa3,104(a4)
800041e0:	f7b8                	fsw	fa4,104(a5)
800041e2:	98ff373f e5553741 	0xe555374198ff373f
800041ea:	3748                	fld	fa0,168(a4)
800041ec:	3752e6c7          	fmsub.q	fa3,ft5,fs5,ft6,unknown
800041f0:	375ced43          	fmadd.q	fs10,fs9,fs5,ft6,unknown
800041f4:	c88e                	sw	gp,80(sp)
800041f6:	3764                	fld	fs1,232(a4)
800041f8:	3774479b          	0x3774479b
800041fc:	a8b1                	j	80004258 <verify_data+0xe18>
800041fe:	a7273793          	sltiu	a5,a4,-1422
80004202:	37a5                	jal	8000416a <verify_data+0xd2a>
80004204:	37a6bc03          	0x37a6bc03
80004208:	74e5                	lui	s1,0xffff9
8000420a:	37ac                	fld	fa1,104(a5)
8000420c:	66c0                	flw	fs0,12(a3)
8000420e:	37b6                	fld	fa5,360(sp)
80004210:	7574                	flw	fa3,108(a0)
80004212:	37c2                	fld	fa5,48(sp)
80004214:	37c3b8f7          	0x37c3b8f7
80004218:	7da5                	lui	s11,0xfffe9
8000421a:	37c5                	jal	800041fa <verify_data+0xdba>
8000421c:	37c94eb3          	0x37c94eb3
80004220:	b958                	fsd	fa4,176(a0)
80004222:	37da                	fld	fa5,432(sp)
80004224:	626c                	flw	fa1,68(a2)
80004226:	37e8                	fld	fa0,232(a5)
80004228:	8c39                	xor	s0,s0,a4
8000422a:	37e8                	fld	fa0,232(a5)
8000422c:	9834                	0x9834
8000422e:	37ff                	0x37ff
80004230:	b6ea                	fsd	fs10,360(sp)
80004232:	381d                	jal	80003a68 <verify_data+0x628>
80004234:	b3cd                	j	80004016 <verify_data+0xbd6>
80004236:	3834                	fld	fa3,112(s0)
80004238:	578e                	lw	a5,224(sp)
8000423a:	3842                	fld	fa6,48(sp)
8000423c:	20f1                	jal	80004308 <verify_data+0xec8>
8000423e:	384a                	fld	fa6,176(sp)
80004240:	092d                	addi	s2,s2,11
80004242:	3862                	fld	fa6,56(sp)
80004244:	38679167          	0x38679167
80004248:	4d02                	lw	s10,0(sp)
8000424a:	3869                	jal	80003ae4 <verify_data+0x6a4>
8000424c:	386a4a27          	fsq	ft6,916(s4) # 12394 <buflen.2941+0x12354>
80004250:	cfc9                	beqz	a5,800042ea <verify_data+0xeaa>
80004252:	c145388b          	0xc145388b
80004256:	3890                	fld	fa2,48(s1)
80004258:	3893fc2f          	0x3893fc2f
8000425c:	ffda                	fsw	fs6,252(sp)
8000425e:	389f 05d1 38b3      	0x38b305d1389f
80004264:	38b93c73          	csrrc	s8,0x38b,s2
80004268:	f23d                	bnez	a2,800041ce <verify_data+0xd8e>
8000426a:	38ca                	fld	fa7,176(sp)
8000426c:	7b46                	flw	fs6,112(sp)
8000426e:	023138d3          	fadd.d	fa7,ft2,ft3,rup
80004272:	a07c38db          	0xa07c38db
80004276:	db9c38e3          	0xdb9c38e3
8000427a:	38ea                	fld	fa7,184(sp)
8000427c:	4292                	lw	t0,4(sp)
8000427e:	3b0338eb          	0x3b0338eb
80004282:	bd26390b          	0xbd26390b
80004286:	3925                	jal	80003ebe <verify_data+0xa7e>
80004288:	9561                	srai	a0,a0,0x38
8000428a:	392e                	fld	fs2,232(sp)
8000428c:	6cd4                	flw	fa3,28(s1)
8000428e:	c9d63947          	fmsub.s	fs2,fa2,ft9,fs9,rup
80004292:	397a                	fld	fs2,440(sp)
80004294:	35c4                	fld	fs1,168(a1)
80004296:	398c                	fld	fa1,48(a1)
80004298:	398d5073          	csrwi	0x398,26
8000429c:	399987cf          	fnmadd.s	fa5,fs3,fs9,ft7,rne
800042a0:	737c                	flw	fa5,100(a4)
800042a2:	eec339bf 6d6839c2 	0x6d6839c2eec339bf
800042aa:	39c6                	fld	fs3,112(sp)
800042ac:	3b7f                	0x3b7f
800042ae:	674339c7          	fmsub.q	fs3,ft6,fs4,fa2,rup
800042b2:	39c9                	jal	80003f84 <verify_data+0xb44>
800042b4:	fdf6                	fsw	ft9,248(sp)
800042b6:	708e39d3          	0x708e39d3
800042ba:	39f0                	fld	fa2,240(a1)
800042bc:	6835                	lui	a6,0xd
800042be:	3a04                	fld	fs1,48(a2)
800042c0:	493e                	lw	s2,204(sp)
800042c2:	3a06                	fld	fs4,96(sp)
800042c4:	56e2                	lw	a3,56(sp)
800042c6:	3a06                	fld	fs4,96(sp)
800042c8:	3a0a8c2b          	0x3a0a8c2b
800042cc:	cef4                	sw	a3,92(a3)
800042ce:	3a2c                	fld	fa1,112(a2)
800042d0:	8a86                	mv	s5,ra
800042d2:	3a2d                	jal	80003c0c <verify_data+0x7cc>
800042d4:	c658                	sw	a4,12(a2)
800042d6:	3a42                	fld	fs4,48(sp)
800042d8:	3a49aebb          	0x3a49aebb
800042dc:	de5c                	sw	a5,60(a2)
800042de:	3a4e                	fld	fs4,240(sp)
800042e0:	56ec                	lw	a1,108(a3)
800042e2:	3a74                	fld	fa3,240(a2)
800042e4:	c985                	beqz	a1,80004314 <verify_data+0xed4>
800042e6:	3a76                	fld	fs4,376(sp)
800042e8:	3a980e8b          	0x3a980e8b
800042ec:	3aba90eb          	0x3aba90eb
800042f0:	3ac8d43b          	0x3ac8d43b
800042f4:	0afe                	slli	s5,s5,0x1f
800042f6:	3ae0                	fld	fs0,240(a3)
800042f8:	4361                	li	t1,24
800042fa:	3aea                	fld	fs5,184(sp)
800042fc:	3b13e5b7          	lui	a1,0x3b13e
80004300:	cef1                	beqz	a3,800043dc <verify_data+0xf9c>
80004302:	3b1e                	fld	fs6,480(sp)
80004304:	fafd                	bnez	a3,800042fa <verify_data+0xeba>
80004306:	3b26                	fld	fs6,104(sp)
80004308:	fdc5                	bnez	a1,800042c0 <verify_data+0xe80>
8000430a:	fc5c3b37          	lui	s6,0xfc5c3
8000430e:	af763b3b          	0xaf763b3b
80004312:	ed023b43          	0xed023b43
80004316:	3b76                	fld	fs6,376(sp)
80004318:	7cce                	flw	fs9,240(sp)
8000431a:	3b8a                	fld	fs7,160(sp)
8000431c:	07e4                	addi	s1,sp,972
8000431e:	d0de3b8f          	0xd0de3b8f
80004322:	3b90                	fld	fa2,48(a5)
80004324:	3b99408f          	0x3b99408f
80004328:	3eb0                	fld	fa2,120(a3)
8000432a:	3c06                	fld	fs8,96(sp)
8000432c:	e4c1                	bnez	s1,800043b4 <verify_data+0xf74>
8000432e:	3c39                	jal	80003d4c <verify_data+0x90c>
80004330:	02ec                	addi	a1,sp,332
80004332:	3c49                	jal	80003dc4 <verify_data+0x984>
80004334:	de19                	beqz	a2,80004252 <verify_data+0xe12>
80004336:	3c49                	jal	80003dc8 <verify_data+0x988>
80004338:	bdbd                	j	800041b6 <verify_data+0xd76>
8000433a:	3a763c4b          	fnmsub.d	fs8,fa2,ft7,ft7,rup
8000433e:	e86b3c5b          	0xe86b3c5b
80004342:	3c6e                	fld	fs8,248(sp)
80004344:	1752                	slli	a4,a4,0x34
80004346:	3c96                	fld	fs9,352(sp)
80004348:	3c985217          	auipc	tp,0x3c985
8000434c:	8b6a                	mv	s6,s10
8000434e:	3ccc                	fld	fa1,184(s1)
80004350:	71b9                	lui	gp,0xfffee
80004352:	a1413cdb          	0xa1413cdb
80004356:	0d013cf7          	0xd013cf7
8000435a:	3d1a                	fld	fs10,416(sp)
8000435c:	bfe5                	j	80004354 <verify_data+0xf14>
8000435e:	3d2c                	fld	fa1,120(a0)
80004360:	54be                	lw	s1,236(sp)
80004362:	3d2d                	jal	8000419c <verify_data+0xd5c>
80004364:	5ae1                	li	s5,-8
80004366:	3d42                	fld	fs10,48(sp)
80004368:	3d4262f7          	0x3d4262f7
8000436c:	1d74                	addi	a3,sp,700
8000436e:	3d4e                	fld	fs10,240(sp)
80004370:	8d0c                	0x8d0c
80004372:	3d52                	fld	fs10,304(sp)
80004374:	56d6                	lw	a3,116(sp)
80004376:	3d54                	fld	fa3,184(a0)
80004378:	fb3a                	fsw	fa4,180(sp)
8000437a:	742a3d57          	0x742a3d57
8000437e:	3d5a                	fld	fs10,432(sp)
80004380:	00fc                	addi	a5,sp,76
80004382:	3d62                	fld	fs10,56(sp)
80004384:	592a                	lw	s2,168(sp)
80004386:	3d7d                	jal	80004244 <verify_data+0xe04>
80004388:	7fc4                	flw	fs1,60(a5)
8000438a:	3d8e                	fld	fs11,224(sp)
8000438c:	3d9105a3          	sb	s9,971(sp)
80004390:	38e6                	fld	fa7,120(sp)
80004392:	3da0                	fld	fs0,120(a1)
80004394:	ffa0                	fsw	fs0,120(a5)
80004396:	3db1                	jal	800041f2 <verify_data+0xdb2>
80004398:	3dbf7153          	0x3dbf7153
8000439c:	50ad                	li	ra,-21
8000439e:	e9283dd7          	0xe9283dd7
800043a2:	3dde                	fld	fs11,496(sp)
800043a4:	4c2e                	lw	s8,200(sp)
800043a6:	b7773deb          	0xb7773deb
800043aa:	0a4d3e27          	fsd	ft4,188(s10)
800043ae:	3e2a                	fld	ft8,168(sp)
800043b0:	f67f                	0xf67f
800043b2:	3e38                	fld	fa4,120(a2)
800043b4:	3e3b8743          	fmadd.q	fa4,fs7,ft3,ft7,rne
800043b8:	3e5303f7          	0x3e5303f7
800043bc:	79d1                	lui	s3,0xffff4
800043be:	17143e53          	fmul.q	ft8,fs0,fa7,rup
800043c2:	3e6d                	jal	80003f7c <verify_data+0xb3c>
800043c4:	99ec                	0x99ec
800043c6:	3e85                	jal	80003f36 <verify_data+0xaf6>
800043c8:	b8b0                	fsd	fa2,112(s1)
800043ca:	3e8d                	jal	80003f3c <verify_data+0xafc>
800043cc:	6ce8                	flw	fa0,92(s1)
800043ce:	8b753e9b          	0x8b753e9b
800043d2:	3e9d                	jal	80003f48 <verify_data+0xb08>
800043d4:	ccad                	beqz	s1,8000444e <verify_data+0x100e>
800043d6:	c5723ea7          	fsd	fs7,-931(tp) # bc988fa5 <_tbss_end+0x3c97fae1>
800043da:	99263ed3          	0x99263ed3
800043de:	3f00                	fld	fs0,56(a4)
800043e0:	227f                	0x227f
800043e2:	3f1a                	fld	ft10,416(sp)
800043e4:	1b75                	addi	s6,s6,-3
800043e6:	3f1e                	fld	ft10,480(sp)
800043e8:	c5ee                	sw	s11,200(sp)
800043ea:	3f4a                	fld	ft10,176(sp)
800043ec:	204c                	fld	fa1,128(s0)
800043ee:	3f66                	fld	ft10,120(sp)
800043f0:	7168                	flw	fa0,100(a0)
800043f2:	d17c3f67          	0xd17c3f67
800043f6:	e53c3f67          	0xe53c3f67
800043fa:	3f68                	fld	fa0,248(a4)
800043fc:	b11e                	fsd	ft7,160(sp)
800043fe:	3f7c                	fld	fa5,248(a4)
80004400:	f425                	bnez	s0,80004368 <verify_data+0xf28>
80004402:	3f81                	jal	80004352 <verify_data+0xf12>
80004404:	156e                	slli	a0,a0,0x3b
80004406:	3f8a                	fld	ft11,160(sp)
80004408:	3f95e34b          	fnmsub.q	ft6,fa1,fs9,ft7,unknown
8000440c:	f67d                	bnez	a2,800043fa <verify_data+0xfba>
8000440e:	3fa4                	fld	fs1,120(a5)
80004410:	5aa8                	lw	a0,112(a3)
80004412:	3fb1                	jal	8000436e <verify_data+0xf2e>
80004414:	91b1                	srli	a1,a1,0x2c
80004416:	3fb4                	fld	fa3,120(a5)
80004418:	83ba                	mv	t2,a4
8000441a:	3fbe                	fld	ft11,488(sp)
8000441c:	4afd                	li	s5,31
8000441e:	3fff                	0x3fff
80004420:	fa46                	fsw	fa7,52(sp)
80004422:	4001                	c.li	zero,0
80004424:	1229                	addi	tp,tp,-22
80004426:	d5c84007          	flq	ft0,-676(a6) # cd5c <buflen.2941+0xcd1c>
8000442a:	401e                	0x401e
8000442c:	7e40                	flw	fs0,60(a2)
8000442e:	4025                	c.li	zero,9
80004430:	4043fd5b          	0x4043fd5b
80004434:	405d5a9b          	0x405d5a9b
80004438:	a050                	fsd	fa2,128(s0)
8000443a:	4085                	li	ra,1
8000443c:	345c                	fld	fa5,168(s0)
8000443e:	7651408b          	0x7651408b
80004442:	c4ff408b          	0xc4ff408b
80004446:	40b0                	lw	a2,64(s1)
80004448:	4885                	li	a7,1
8000444a:	40cd                	li	ra,19
8000444c:	0d2d                	addi	s10,s10,11
8000444e:	40ce                	lw	ra,208(sp)
80004450:	24f2                	fld	fs1,280(sp)
80004452:	40ce                	lw	ra,208(sp)
80004454:	cc41                	beqz	s0,800044ec <verify_data+0x10ac>
80004456:	40d2                	lw	ra,20(sp)
80004458:	a17a                	fsd	ft10,128(sp)
8000445a:	40d5                	li	ra,21
8000445c:	0dea                	slli	s11,s11,0x1a
8000445e:	a95e40ef          	jal	ra,7ffe8ef2 <buflen.2941+0x7ffe8eb2>
80004462:	ad3840f3          	0xad3840f3
80004466:	40f9                	li	ra,30
80004468:	f865                	bnez	s0,80004458 <verify_data+0x1018>
8000446a:	40fd                	li	ra,31
8000446c:	40fed847          	fmsub.s	fa6,ft9,fa5,fs0,unknown
80004470:	411c6f63          	bltu	s8,a7,8000488e <verify_data+0x144e>
80004474:	41240a87          	0x41240a87
80004478:	6f6a                	flw	ft10,152(sp)
8000447a:	4139                	li	sp,14
8000447c:	3ab2                	fld	fs5,296(sp)
8000447e:	413d                	li	sp,15
80004480:	88ae                	mv	a7,a1
80004482:	414a                	lw	sp,144(sp)
80004484:	58f0                	lw	a2,116(s1)
80004486:	418e                	lw	gp,192(sp)
80004488:	4ba0                	lw	s0,80(a5)
8000448a:	4191                	li	gp,4
8000448c:	07d4                	addi	a3,sp,964
8000448e:	4192                	lw	gp,4(sp)
80004490:	41aaf2ef          	jal	t0,800b38aa <_tbss_end+0xaa3e6>
80004494:	2be4                	fld	fs1,208(a5)
80004496:	41ae                	lw	gp,200(sp)
80004498:	a764                	fsd	fs1,200(a4)
8000449a:	41b5                	li	gp,13
8000449c:	65ff                	0x65ff
8000449e:	41b8                	lw	a4,64(a1)
800044a0:	a514                	fsd	fa3,8(a0)
800044a2:	41be                	lw	gp,204(sp)
800044a4:	94ba                	add	s1,s1,a4
800044a6:	41f6                	lw	gp,92(sp)
800044a8:	422f2997          	auipc	s3,0x422f2
800044ac:	c726                	sw	s1,140(sp)
800044ae:	a0e2423b          	0xa0e2423b
800044b2:	4248                	lw	a0,4(a2)
800044b4:	f095                	bnez	s1,800043d8 <verify_data+0xf98>
800044b6:	4252                	lw	tp,20(sp)
800044b8:	9e80                	0x9e80
800044ba:	4261                	li	tp,24
800044bc:	8d86                	mv	s11,ra
800044be:	42d0                	lw	a2,4(a3)
800044c0:	42d7b4a3          	0x42d7b4a3
800044c4:	42dd5013          	srai	zero,s10,0x2d
800044c8:	42dfc0af          	0x42dfc0af
800044cc:	1664                	addi	s1,sp,812
800044ce:	42ec                	lw	a1,68(a3)
800044d0:	aca1                	j	80004728 <verify_data+0x12e8>
800044d2:	42f4                	lw	a3,68(a3)
800044d4:	1936                	slli	s2,s2,0x2d
800044d6:	42f8                	lw	a4,68(a3)
800044d8:	430fbce7          	0x430fbce7
800044dc:	b1f5                	j	800041c8 <verify_data+0xd88>
800044de:	431a                	lw	t1,132(sp)
800044e0:	aba4                	fsd	fs1,80(a5)
800044e2:	431d                	li	t1,7
800044e4:	4d99                	li	s11,6
800044e6:	8fd1432f          	0x8fd1432f
800044ea:	433a                	lw	t1,140(sp)
800044ec:	9488                	0x9488
800044ee:	4349                	li	t1,18
800044f0:	6781                	0x6781
800044f2:	c7ab4367          	0xc7ab4367
800044f6:	0f3a4373          	0xf3a4373
800044fa:	4382                	lw	t2,0(sp)
800044fc:	7015                	c.lui	zero,0xfffe5
800044fe:	19f2438f          	0x19f2438f
80004502:	4396                	lw	t2,68(sp)
80004504:	4adc                	lw	a5,20(a3)
80004506:	439a                	lw	t2,132(sp)
80004508:	d65f 43b2 0354      	0x35443b2d65f
8000450e:	43ba                	lw	t2,140(sp)
80004510:	6d74                	flw	fa3,92(a0)
80004512:	0be443bb          	0xbe443bb
80004516:	43cd                	li	t2,19
80004518:	43e409b7          	lui	s3,0x43e40
8000451c:	3234                	fld	fa3,96(a2)
8000451e:	43e6                	lw	t2,88(sp)
80004520:	247f                	0x247f
80004522:	22f943f3          	0x22f943f3
80004526:	43fe                	lw	t2,220(sp)
80004528:	5c12                	lw	s8,36(sp)
8000452a:	99ca4423          	0x99ca4423
8000452e:	4428                	lw	a0,72(s0)
80004530:	d032                	sw	a2,32(sp)
80004532:	442d                	li	s0,11
80004534:	5118                	lw	a4,32(a0)
80004536:	4430                	lw	a2,72(s0)
80004538:	463a                	lw	a2,140(sp)
8000453a:	443a                	lw	s0,140(sp)
8000453c:	44630ba3          	sb	t1,1111(t1) # 10457 <buflen.2941+0x10417>
80004540:	ef61                	bnez	a4,80004618 <verify_data+0x11d8>
80004542:	4469                	li	s0,26
80004544:	4477c207          	flq	ft4,1095(a5) # 1f8b7447 <buflen.2941+0x1f8b7407>
80004548:	1402                	slli	s0,s0,0x20
8000454a:	447e                	lw	s0,220(sp)
8000454c:	82a8                	0x82a8
8000454e:	3cf24497          	auipc	s1,0x3cf24
80004552:	79ab44af          	0x79ab44af
80004556:	44b0                	lw	a2,72(s1)
80004558:	7ed5                	lui	t4,0xffff5
8000455a:	44d5                	li	s1,21
8000455c:	e886                	fsw	ft1,80(sp)
8000455e:	44de                	lw	s1,212(sp)
80004560:	44e034f3          	csrrc	s1,0x44e,zero
80004564:	be30                	fsd	fa2,120(a2)
80004566:	980f44f3          	0x980f44f3
8000456a:	4500                	lw	s0,8(a0)
8000456c:	3ef5                	jal	80004168 <verify_data+0xd28>
8000456e:	451f 4e25 4520      	0x45204e25451f
80004574:	a5a0                	fsd	fs0,72(a1)
80004576:	4522                	lw	a0,8(sp)
80004578:	bf66                	fsd	fs9,440(sp)
8000457a:	4524                	lw	s1,72(a0)
8000457c:	452708a7          	0x452708a7
80004580:	45288ea3          	sb	s2,1117(a7)
80004584:	452947fb          	0x452947fb
80004588:	6738                	flw	fa4,72(a4)
8000458a:	452c                	lw	a1,72(a0)
8000458c:	4f90                	lw	a2,24(a5)
8000458e:	453c                	lw	a5,72(a0)
80004590:	14c2                	slli	s1,s1,0x30
80004592:	454d                	li	a0,19
80004594:	4f41                	li	t5,16
80004596:	39da4577          	0x39da4577
8000459a:	2dac4583          	lbu	a1,730(s8)
8000459e:	4592                	lw	a1,4(sp)
800045a0:	45a55e33          	0x45a55e33
800045a4:	8575                	srai	a0,a0,0x1d
800045a6:	45b2                	lw	a1,12(sp)
800045a8:	91ea                	add	gp,gp,s10
800045aa:	45c4                	lw	s1,12(a1)
800045ac:	601e                	flw	ft0,196(sp)
800045ae:	45c8                	lw	a0,12(a1)
800045b0:	d378                	sw	a4,100(a4)
800045b2:	45cc                	lw	a1,12(a1)
800045b4:	45da2b4b          	0x45da2b4b
800045b8:	45dfbae3          	0x45dfbae3
800045bc:	60d8                	flw	fa4,4(s1)
800045be:	22c245f7          	0x22c245f7
800045c2:	45f8                	lw	a4,76(a1)
800045c4:	c688                	sw	a0,8(a3)
800045c6:	4602                	lw	a2,0(sp)
800045c8:	2449                	jal	8000484a <verify_data+0x140a>
800045ca:	4609                	li	a2,2
800045cc:	952d                	srai	a0,a0,0x2b
800045ce:	4616                	lw	a2,68(sp)
800045d0:	2b82                	fld	fs7,0(sp)
800045d2:	4638                	lw	a4,72(a2)
800045d4:	d58c                	sw	a1,40(a1)
800045d6:	463a                	lw	a2,140(sp)
800045d8:	20ae                	fld	ft1,200(sp)
800045da:	464e                	lw	a2,208(sp)
800045dc:	5558                	lw	a4,44(a0)
800045de:	4656                	lw	a2,84(sp)
800045e0:	465d649b          	0x465d649b
800045e4:	8db4                	0x8db4
800045e6:	3a7a4667          	0x3a7a4667
800045ea:	468a                	lw	a3,128(sp)
800045ec:	fa54                	fsw	fa3,52(a2)
800045ee:	469a                	lw	a3,132(sp)
800045f0:	42ff                	0x42ff
800045f2:	46ae                	lw	a3,200(sp)
800045f4:	46d09d13          	0x46d09d13
800045f8:	46dadd13          	0x46dadd13
800045fc:	db78                	sw	a4,116(a4)
800045fe:	46e0                	lw	s0,76(a3)
80004600:	a1b8                	fsd	fa4,64(a1)
80004602:	8a9e46e3          	blt	t3,s1,80003eae <verify_data+0xa6e>
80004606:	6c8346fb          	0x6c8346fb
8000460a:	46fe                	lw	a3,220(sp)
8000460c:	0e38                	addi	a4,sp,792
8000460e:	4705                	li	a4,1
80004610:	dae5                	beqz	a3,80004600 <verify_data+0x11c0>
80004612:	470e                	lw	a4,192(sp)
80004614:	9f7d                	0x9f7d
80004616:	d0aa472b          	0xd0aa472b
8000461a:	4735                	li	a4,13
8000461c:	47c5                	li	a5,17
8000461e:	ead3476b          	0xead3476b
80004622:	1b49476b          	0x1b49476b
80004626:	4775                	li	a4,29
80004628:	229c                	fld	fa5,0(a3)
8000462a:	477c                	lw	a5,76(a4)
8000462c:	4797b60f          	0x4797b60f
80004630:	479820a3          	sw	s9,1121(a6)
80004634:	ddb4                	sw	a3,120(a1)
80004636:	479f 3740 47a5      	0x47a53740479f
8000463c:	8ad5                	andi	a3,a3,21
8000463e:	155447a7          	fsq	fs5,335(s0)
80004642:	47ba                	lw	a5,140(sp)
80004644:	0524                	addi	s1,sp,648
80004646:	47c2                	lw	a5,16(sp)
80004648:	b8f5                	j	80003f44 <verify_data+0xb04>
8000464a:	47d2                	lw	a5,20(sp)
8000464c:	d05f 47da 8286      	0x828647dad05f
80004652:	47e0                	lw	s0,76(a5)
80004654:	b732                	fsd	fa2,424(sp)
80004656:	47e6                	lw	a5,88(sp)
80004658:	481bd9f3          	csrrwi	s3,0x481,23
8000465c:	0125                	addi	sp,sp,9
8000465e:	481f 3db3 4847      	0x48473db3481f
80004664:	8551                	srai	a0,a0,0x14
80004666:	484c                	lw	a1,20(s0)
80004668:	f4ee                	fsw	fs11,104(sp)
8000466a:	4861                	li	a6,24
8000466c:	adb0                	fsd	fa2,88(a1)
8000466e:	486a                	lw	a6,152(sp)
80004670:	6559                	lui	a0,0x16
80004672:	486c                	lw	a1,84(s0)
80004674:	0341                	addi	t1,t1,16
80004676:	486d                	li	a6,27
80004678:	4881f2b7          	lui	t0,0x4881f
8000467c:	36f5                	jal	80004268 <verify_data+0xe28>
8000467e:	4896                	lw	a7,68(sp)
80004680:	2d61                	jal	80004d18 <verify_data+0x18d8>
80004682:	48a1                	li	a7,8
80004684:	48bfb5ef          	jal	a1,8010030e <_tbss_end+0xf6e4a>
80004688:	b06d                	j	80003f32 <verify_data+0xaf2>
8000468a:	48c5                	li	a7,17
8000468c:	a2c4                	fsd	fs1,128(a3)
8000468e:	48c8                	lw	a0,20(s1)
80004690:	48d2104f          	fnmadd.s	ft0,ft4,fa3,fs1,rtz
80004694:	48deb2b3          	0x48deb2b3
80004698:	c11e                	sw	t2,128(sp)
8000469a:	48ec                	lw	a1,84(s1)
8000469c:	48ee3bd3          	0x48ee3bd3
800046a0:	662c                	flw	fa1,72(a2)
800046a2:	48ee                	lw	a7,216(sp)
800046a4:	493e456f          	jal	a0,800e9336 <_tbss_end+0xdfe72>
800046a8:	2b3c                	fld	fa5,80(a4)
800046aa:	44f24957          	0x44f24957
800046ae:	4961                	li	s2,24
800046b0:	d92d                	beqz	a0,80004622 <verify_data+0x11e2>
800046b2:	4961                	li	s2,24
800046b4:	49635f53          	0x49635f53
800046b8:	523d                	li	tp,-17
800046ba:	4969                	li	s2,26
800046bc:	ccf5                	beqz	s1,800047b8 <verify_data+0x1378>
800046be:	496d                	li	s2,27
800046c0:	49777d6b          	0x49777d6b
800046c4:	f754                	fsw	fa3,44(a4)
800046c6:	497d                	li	s2,31
800046c8:	6fb9                	lui	t6,0xe
800046ca:	497e                	lw	s2,220(sp)
800046cc:	c139                	beqz	a0,80004712 <verify_data+0x12d2>
800046ce:	c342498f          	0xc342498f
800046d2:	cba1499b          	0xcba1499b
800046d6:	49b049e3          	bgtz	s11,80005368 <verify_data+0x1f28>
800046da:	49ed                	li	s3,27
800046dc:	4a41b0ab          	0x4a41b0ab
800046e0:	4a5ba023          	sw	t0,1184(s7) # b47e75d8 <_tbss_end+0x347de114>
800046e4:	8c9f 4a73 0635      	0x6354a738c9f
800046ea:	4a75                	li	s4,29
800046ec:	fd96                	fsw	ft5,248(sp)
800046ee:	4a86                	lw	s5,64(sp)
800046f0:	ca59                	beqz	a2,80004786 <verify_data+0x1346>
800046f2:	4ad5                	li	s5,21
800046f4:	4699                	li	a3,6
800046f6:	4add                	li	s5,23
800046f8:	5c10                	lw	a2,56(s0)
800046fa:	4adf bad6 4ae2      	0x4ae2bad64adf
80004700:	0a4e                	slli	s4,s4,0x13
80004702:	4af4                	lw	a3,84(a3)
80004704:	4b27318b          	0x4b27318b
80004708:	af6d                	j	80004ec2 <verify_data+0x1a82>
8000470a:	4b3e                	lw	s6,204(sp)
8000470c:	4b8786af          	0x4b8786af
80004710:	3372                	fld	ft6,312(sp)
80004712:	4bae                	lw	s7,200(sp)
80004714:	91ec                	0x91ec
80004716:	d9bb4bc7          	fmsub.s	fs7,fs6,fs11,fs11,rmm
8000471a:	058c4be3          	blt	s8,s8,80004f70 <verify_data+0x1b30>
8000471e:	9b834bef          	jal	s7,7ff388d6 <buflen.2941+0x7ff38896>
80004722:	4bf2                	lw	s7,28(sp)
80004724:	5c1f 4bf6 040c      	0x40c4bf65c1f
8000472a:	4c04                	lw	s1,24(s0)
8000472c:	97d2                	add	a5,a5,s4
8000472e:	4c06                	lw	s8,64(sp)
80004730:	58c2                	lw	a7,48(sp)
80004732:	4c11                	li	s8,4
80004734:	8cce                	mv	s9,s3
80004736:	4c2d                	li	s8,11
80004738:	4c38983f 4c38dab4 	0x4c38dab44c38983f
80004740:	4c3ceec7          	0x4c3ceec7
80004744:	f69e                	fsw	ft7,108(sp)
80004746:	4c4a                	lw	s8,144(sp)
80004748:	465f 4c61 7db2      	0x7db24c61465f
8000474e:	e8004c9b          	0xe8004c9b
80004752:	4cb5                	li	s9,13
80004754:	acda                	fsd	fs6,88(sp)
80004756:	4cb8                	lw	a4,88(s1)
80004758:	4cc2bb0b          	0x4cc2bb0b
8000475c:	c236                	sw	a3,4(sp)
8000475e:	47684ccf          	fnmadd.q	fs9,fa6,fs6,fs0,rmm
80004762:	4cd9                	li	s9,22
80004764:	4ced7143          	0x4ced7143
80004768:	a049                	j	800047ea <verify_data+0x13aa>
8000476a:	4cf2                	lw	s9,28(sp)
8000476c:	7b64                	flw	fs1,116(a4)
8000476e:	2ba04cf3          	0x2ba04cf3
80004772:	4cf4                	lw	a3,92(s1)
80004774:	cad2                	sw	s4,84(sp)
80004776:	4cf9                	li	s9,30
80004778:	1e4c                	addi	a1,sp,820
8000477a:	aadb4d03          	lbu	s10,-1363(s6) # fc5c2aad <_tbss_end+0x7c5b95e9>
8000477e:	4d08                	lw	a0,24(a0)
80004780:	4d130333          	0x4d130333
80004784:	345f 4d2e 799b      	0x799b4d2e345f
8000478a:	4d4c                	lw	a1,28(a0)
8000478c:	f848                	fsw	fa0,52(s0)
8000478e:	4d60                	lw	s0,92(a0)
80004790:	5bb8                	lw	a4,112(a5)
80004792:	1a904d77          	0x1a904d77
80004796:	4d9f fe51 4da5      	0x4da5fe514d9f
8000479c:	6f29                	lui	t5,0xa
8000479e:	4db5                	li	s11,13
800047a0:	cec0                	sw	s0,28(a3)
800047a2:	4dc9                	li	s11,18
800047a4:	4e03cf67          	0x4e03cf67
800047a8:	b8a4                	fsd	fs1,112(s1)
800047aa:	82044e17          	auipc	t3,0x82044
800047ae:	4e34                	lw	a3,88(a2)
800047b0:	b850                	fsd	fa2,176(s0)
800047b2:	4e3a                	lw	t3,140(sp)
800047b4:	4e448da7          	0x4e448da7
800047b8:	4e4c9107          	0x4e4c9107
800047bc:	1808                	addi	a0,sp,48
800047be:	4e50                	lw	a2,28(a2)
800047c0:	6961                	lui	s2,0x18
800047c2:	4e72                	lw	t3,28(sp)
800047c4:	0276                	slli	tp,tp,0x1d
800047c6:	4e81                	li	t4,0
800047c8:	e729                	bnez	a4,80004812 <verify_data+0x13d2>
800047ca:	4e82                	lw	t4,0(sp)
800047cc:	94d2                	add	s1,s1,s4
800047ce:	d2144e8f          	0xd2144e8f
800047d2:	4e9c                	lw	a5,24(a3)
800047d4:	4eaa874f          	fnmadd.q	fa4,fs5,fa0,fs1,rne
800047d8:	8f85                	sub	a5,a5,s1
800047da:	4eca                	lw	t4,144(sp)
800047dc:	687e                	flw	fa6,220(sp)
800047de:	4ed0                	lw	a2,28(a3)
800047e0:	4ed6bee3          	0x4ed6bee3
800047e4:	9124                	0x9124
800047e6:	85ea4ee7          	0x85ea4ee7
800047ea:	4eec                	lw	a1,92(a3)
800047ec:	aeb6                	fsd	fa3,344(sp)
800047ee:	4ef5                	li	t4,29
800047f0:	4efa053b          	0x4efa053b
800047f4:	2d0a                	fld	fs10,128(sp)
800047f6:	6b084efb          	0x6b084efb
800047fa:	4f09                	li	t5,2
800047fc:	d49f 4f2b 2e2c      	0x2e2c4f2bd49f
80004802:	4f35                	li	t5,13
80004804:	4c14                	lw	a3,24(s0)
80004806:	82e34f5b          	0x82e34f5b
8000480a:	4f5e                	lw	t5,212(sp)
8000480c:	7e0c                	flw	fa1,56(a2)
8000480e:	4f6a                	lw	t5,152(sp)
80004810:	d6f6                	sw	t4,108(sp)
80004812:	2e644f6b          	0x2e644f6b
80004816:	4f6e                	lw	t5,216(sp)
80004818:	4f730137          	lui	sp,0x4f730
8000481c:	0661                	addi	a2,a2,24
8000481e:	4f80                	lw	s0,24(a5)
80004820:	4e44                	lw	s1,28(a2)
80004822:	4f90                	lw	a2,24(a5)
80004824:	177e                	slli	a4,a4,0x3f
80004826:	4f96                	lw	t6,68(sp)
80004828:	08d9                	addi	a7,a7,22
8000482a:	6eff4f97          	auipc	t6,0x6eff4
8000482e:	4f9c                	lw	a5,24(a5)
80004830:	9f10                	0x9f10
80004832:	4f9f 6481 4fa3      	0x4fa364814f9f
80004838:	94c6                	add	s1,s1,a7
8000483a:	4fa9                	li	t6,10
8000483c:	3271                	jal	800041c8 <verify_data+0xd88>
8000483e:	a3944fb7          	lui	t6,0xa3944
80004842:	4fc1                	li	t6,16
80004844:	fda0                	fsw	fs0,120(a1)
80004846:	44314fd3          	0x44314fd3
8000484a:	4fed                	li	t6,27
8000484c:	b9ad                	j	800044c6 <verify_data+0x1086>
8000484e:	501d                	c.li	zero,-25
80004850:	495f 502b d8ac      	0xd8ac502b495f
80004856:	5030                	lw	a2,96(s0)
80004858:	503866b3          	0x503866b3
8000485c:	259f 503a ed35      	0xed35503a259f
80004862:	504d                	c.li	zero,-13
80004864:	5c0d                	li	s8,-29
80004866:	505e                	0x505e
80004868:	8da5                	xor	a1,a1,s1
8000486a:	505e                	0x505e
8000486c:	5615                	li	a2,-27
8000486e:	5081                	li	ra,-32
80004870:	9ad6                	add	s5,s5,s5
80004872:	50a2                	lw	ra,40(sp)
80004874:	5896                	lw	a7,100(sp)
80004876:	636650a7          	0x636650a7
8000487a:	50b4                	lw	a3,96(s1)
8000487c:	fc05                	bnez	s0,800047b4 <verify_data+0x1374>
8000487e:	50c4                	lw	s1,36(s1)
80004880:	a0ae                	fsd	fa1,64(sp)
80004882:	50c9                	li	ra,-14
80004884:	50dfdaef          	jal	s5,80102590 <_tbss_end+0xf90cc>
80004888:	67d5                	lui	a5,0x15
8000488a:	511f 6762 5120      	0x51206762511f
80004890:	b562                	fsd	fs8,168(sp)
80004892:	5162                	lw	sp,56(sp)
80004894:	eb98                	fsw	fa4,16(a5)
80004896:	5185                	li	gp,-31
80004898:	518d9d7b          	0x518d9d7b
8000489c:	9932                	add	s2,s2,a2
8000489e:	51b0                	lw	a2,96(a1)
800048a0:	a63a                	fsd	fa4,264(sp)
800048a2:	51c9                	li	gp,-14
800048a4:	3fa1                	jal	800047fc <verify_data+0x13bc>
800048a6:	51e5                	li	gp,-7
800048a8:	7c82                	flw	fs9,32(sp)
800048aa:	049e51e7          	0x49e51e7
800048ae:	51fc                	lw	a5,100(a1)
800048b0:	8b7a                	mv	s6,t5
800048b2:	5222                	lw	tp,40(sp)
800048b4:	5235d287          	0x5235d287
800048b8:	e641                	bnez	a2,80004940 <verify_data+0x1500>
800048ba:	5238                	lw	a4,96(a2)
800048bc:	10ed                	addi	ra,ra,-5
800048be:	5241                	li	tp,-16
800048c0:	34f5                	jal	800043ac <verify_data+0xf6c>
800048c2:	5266                	lw	tp,120(sp)
800048c4:	52670823          	sb	t1,1328(a4)
800048c8:	52680fd7          	0x52680fd7
800048cc:	4906                	lw	s2,64(sp)
800048ce:	526d                	li	tp,-5
800048d0:	9a3e                	add	s4,s4,a5
800048d2:	adf35273          	csrrwi	tp,0xadf,6
800048d6:	5278                	lw	a4,100(a2)
800048d8:	5282f6af          	0x5282f6af
800048dc:	b9a9                	j	80004536 <verify_data+0x10f6>
800048de:	9ede5297          	auipc	t0,0x9ede5
800048e2:	52a0                	lw	s0,96(a3)
800048e4:	47ea                	lw	a5,152(sp)
800048e6:	52a2                	lw	t0,40(sp)
800048e8:	8c68                	0x8c68
800048ea:	52ac                	lw	a1,96(a3)
800048ec:	2390                	fld	fa2,0(a5)
800048ee:	52b9                	li	t0,-18
800048f0:	cb54                	sw	a3,20(a4)
800048f2:	52c6                	lw	t0,112(sp)
800048f4:	52d6793b          	0x52d6793b
800048f8:	52d9061b          	0x52d9061b
800048fc:	52da5463          	bge	s4,a3,80004e24 <verify_data+0x19e4>
80004900:	e6d4                	fsw	fa3,12(a3)
80004902:	52dd                	li	t0,-9
80004904:	6649                	lui	a2,0x12
80004906:	52de                	lw	t0,244(sp)
80004908:	02a1                	addi	t0,t0,8
8000490a:	52e1                	li	t0,-8
8000490c:	bc78                	fsd	fa4,248(s0)
8000490e:	70bb52e3          	bge	s6,a1,80005812 <input_data+0x3d2>
80004912:	52ea                	lw	t0,184(sp)
80004914:	9892                	add	a7,a7,tp
80004916:	52f5                	li	t0,-3
80004918:	b766                	fsd	fs9,424(sp)
8000491a:	52fa                	lw	t0,188(sp)
8000491c:	5324eef7          	0x5324eef7
80004920:	5328610f          	0x5328610f
80004924:	6e6c                	flw	fa1,92(a2)
80004926:	532a                	lw	t1,168(sp)
80004928:	5f7c                	lw	a5,124(a4)
8000492a:	50f6533f 167d536d 	0x167d536d50f6533f
80004932:	5370                	lw	a2,100(a4)
80004934:	537361cf          	fnmadd.d	ft3,ft6,fs7,fa0,unknown
80004938:	53807c37          	lui	s8,0x53807
8000493c:	538275d3          	0x538275d3
80004940:	8780                	0x8780
80004942:	5390                	lw	a2,32(a5)
80004944:	099e                	slli	s3,s3,0x7
80004946:	539c                	lw	a5,32(a5)
80004948:	53a33aef          	jal	s5,80037e82 <_tbss_end+0x2e9be>
8000494c:	da66                	sw	s9,52(sp)
8000494e:	70b553ab          	0x70b553ab
80004952:	53ba                	lw	t2,172(sp)
80004954:	53c8cb9b          	0x53c8cb9b
80004958:	53ca3e2f          	0x53ca3e2f
8000495c:	8d40                	0x8d40
8000495e:	53de                	lw	t2,244(sp)
80004960:	53f8a88b          	0x53f8a88b
80004964:	a9d0                	fsd	fa2,144(a1)
80004966:	a88853fb          	0xa88853fb
8000496a:	5431                	li	s0,-20
8000496c:	ce4c                	sw	a1,28(a2)
8000496e:	5445                	li	s0,-15
80004970:	148d                	addi	s1,s1,-29
80004972:	544a                	lw	s0,176(sp)
80004974:	6075                	c.lui	zero,0x1d
