
vvadd.riscv:     file format elf32-littleriscv


Disassembly of section .text.init:

80000000 <_start>:
80000000:	00000093          	li	ra,0
80000004:	00000113          	li	sp,0
80000008:	00000193          	li	gp,0
8000000c:	00000213          	li	tp,0
80000010:	00000293          	li	t0,0
80000014:	00000313          	li	t1,0
80000018:	00000393          	li	t2,0
8000001c:	00000413          	li	s0,0
80000020:	00000493          	li	s1,0
80000024:	00000513          	li	a0,0
80000028:	00000593          	li	a1,0
8000002c:	00000613          	li	a2,0
80000030:	00000693          	li	a3,0
80000034:	00000713          	li	a4,0
80000038:	00000793          	li	a5,0
8000003c:	00000813          	li	a6,0
80000040:	00000893          	li	a7,0
80000044:	00000913          	li	s2,0
80000048:	00000993          	li	s3,0
8000004c:	00000a13          	li	s4,0
80000050:	00000a93          	li	s5,0
80000054:	00000b13          	li	s6,0
80000058:	00000b93          	li	s7,0
8000005c:	00000c13          	li	s8,0
80000060:	00000c93          	li	s9,0
80000064:	00000d13          	li	s10,0
80000068:	00000d93          	li	s11,0
8000006c:	00000e13          	li	t3,0
80000070:	00000e93          	li	t4,0
80000074:	00000f13          	li	t5,0
80000078:	00000f93          	li	t6,0
8000007c:	0001e2b7          	lui	t0,0x1e
80000080:	3002a073          	csrs	mstatus,t0
80000084:	00100293          	li	t0,1
80000088:	01f29293          	slli	t0,t0,0x1f
8000008c:	0002ca63          	bltz	t0,800000a0 <_start+0xa0>
80000090:	00100513          	li	a0,1
80000094:	00001297          	auipc	t0,0x1
80000098:	f6a2a623          	sw	a0,-148(t0) # 80001000 <tohost>
8000009c:	ff5ff06f          	j	80000090 <_start+0x90>
800000a0:	00000297          	auipc	t0,0x0
800000a4:	04028293          	addi	t0,t0,64 # 800000e0 <trap_entry>
800000a8:	30529073          	csrw	mtvec,t0
800000ac:	00004197          	auipc	gp,0x4
800000b0:	6d418193          	addi	gp,gp,1748 # 80004780 <__global_pointer$>
800000b4:	87f18213          	addi	tp,gp,-1921 # 80003fff <_end+0x3f>
800000b8:	fc027213          	andi	tp,tp,-64
800000bc:	f1402573          	csrr	a0,mhartid
800000c0:	00100593          	li	a1,1
800000c4:	00b57063          	bgeu	a0,a1,800000c4 <_start+0xc4>
800000c8:	01151613          	slli	a2,a0,0x11
800000cc:	00c20233          	add	tp,tp,a2
800000d0:	00150113          	addi	sp,a0,1
800000d4:	01111113          	slli	sp,sp,0x11
800000d8:	00410133          	add	sp,sp,tp
800000dc:	0950106f          	j	80001970 <_init>

800000e0 <trap_entry>:
800000e0:	ef010113          	addi	sp,sp,-272
800000e4:	00112223          	sw	ra,4(sp)
800000e8:	00212423          	sw	sp,8(sp)
800000ec:	00312623          	sw	gp,12(sp)
800000f0:	00412823          	sw	tp,16(sp)
800000f4:	00512a23          	sw	t0,20(sp)
800000f8:	00612c23          	sw	t1,24(sp)
800000fc:	00712e23          	sw	t2,28(sp)
80000100:	02812023          	sw	s0,32(sp)
80000104:	02912223          	sw	s1,36(sp)
80000108:	02a12423          	sw	a0,40(sp)
8000010c:	02b12623          	sw	a1,44(sp)
80000110:	02c12823          	sw	a2,48(sp)
80000114:	02d12a23          	sw	a3,52(sp)
80000118:	02e12c23          	sw	a4,56(sp)
8000011c:	02f12e23          	sw	a5,60(sp)
80000120:	05012023          	sw	a6,64(sp)
80000124:	05112223          	sw	a7,68(sp)
80000128:	05212423          	sw	s2,72(sp)
8000012c:	05312623          	sw	s3,76(sp)
80000130:	05412823          	sw	s4,80(sp)
80000134:	05512a23          	sw	s5,84(sp)
80000138:	05612c23          	sw	s6,88(sp)
8000013c:	05712e23          	sw	s7,92(sp)
80000140:	07812023          	sw	s8,96(sp)
80000144:	07912223          	sw	s9,100(sp)
80000148:	07a12423          	sw	s10,104(sp)
8000014c:	07b12623          	sw	s11,108(sp)
80000150:	07c12823          	sw	t3,112(sp)
80000154:	07d12a23          	sw	t4,116(sp)
80000158:	07e12c23          	sw	t5,120(sp)
8000015c:	07f12e23          	sw	t6,124(sp)
80000160:	34202573          	csrr	a0,mcause
80000164:	341025f3          	csrr	a1,mepc
80000168:	00010613          	mv	a2,sp
8000016c:	594010ef          	jal	ra,80001700 <handle_trap>
80000170:	34151073          	csrw	mepc,a0
80000174:	000022b7          	lui	t0,0x2
80000178:	80028293          	addi	t0,t0,-2048 # 1800 <buflen.2941+0x17c0>
8000017c:	3002a073          	csrs	mstatus,t0
80000180:	00412083          	lw	ra,4(sp)
80000184:	00812103          	lw	sp,8(sp)
80000188:	00c12183          	lw	gp,12(sp)
8000018c:	01012203          	lw	tp,16(sp)
80000190:	01412283          	lw	t0,20(sp)
80000194:	01812303          	lw	t1,24(sp)
80000198:	01c12383          	lw	t2,28(sp)
8000019c:	02012403          	lw	s0,32(sp)
800001a0:	02412483          	lw	s1,36(sp)
800001a4:	02812503          	lw	a0,40(sp)
800001a8:	02c12583          	lw	a1,44(sp)
800001ac:	03012603          	lw	a2,48(sp)
800001b0:	03412683          	lw	a3,52(sp)
800001b4:	03812703          	lw	a4,56(sp)
800001b8:	03c12783          	lw	a5,60(sp)
800001bc:	04012803          	lw	a6,64(sp)
800001c0:	04412883          	lw	a7,68(sp)
800001c4:	04812903          	lw	s2,72(sp)
800001c8:	04c12983          	lw	s3,76(sp)
800001cc:	05012a03          	lw	s4,80(sp)
800001d0:	05412a83          	lw	s5,84(sp)
800001d4:	05812b03          	lw	s6,88(sp)
800001d8:	05c12b83          	lw	s7,92(sp)
800001dc:	06012c03          	lw	s8,96(sp)
800001e0:	06412c83          	lw	s9,100(sp)
800001e4:	06812d03          	lw	s10,104(sp)
800001e8:	06c12d83          	lw	s11,108(sp)
800001ec:	07012e03          	lw	t3,112(sp)
800001f0:	07412e83          	lw	t4,116(sp)
800001f4:	07812f03          	lw	t5,120(sp)
800001f8:	07c12f83          	lw	t6,124(sp)
800001fc:	11010113          	addi	sp,sp,272
80000200:	30200073          	mret

Disassembly of section .text:

80001048 <vvadd>:
80001048:	02a05663          	blez	a0,80001074 <vvadd+0x2c>
8000104c:	00251513          	slli	a0,a0,0x2
80001050:	00a58533          	add	a0,a1,a0
80001054:	0005a783          	lw	a5,0(a1)
80001058:	00062703          	lw	a4,0(a2)
8000105c:	00458593          	addi	a1,a1,4
80001060:	00460613          	addi	a2,a2,4
80001064:	00e787b3          	add	a5,a5,a4
80001068:	00f6a023          	sw	a5,0(a3)
8000106c:	00468693          	addi	a3,a3,4
80001070:	fea592e3          	bne	a1,a0,80001054 <vvadd+0xc>
80001074:	00008067          	ret

80001078 <vprintfmt>:
80001078:	eb010113          	addi	sp,sp,-336
8000107c:	13912223          	sw	s9,292(sp)
80001080:	40000cb7          	lui	s9,0x40000
80001084:	fffc8793          	addi	a5,s9,-1 # 3fffffff <buflen.2941+0x3fffffbf>
80001088:	14812423          	sw	s0,328(sp)
8000108c:	14912223          	sw	s1,324(sp)
80001090:	15212023          	sw	s2,320(sp)
80001094:	13512a23          	sw	s5,308(sp)
80001098:	14112623          	sw	ra,332(sp)
8000109c:	13312e23          	sw	s3,316(sp)
800010a0:	13412c23          	sw	s4,312(sp)
800010a4:	13612823          	sw	s6,304(sp)
800010a8:	13712623          	sw	s7,300(sp)
800010ac:	13812423          	sw	s8,296(sp)
800010b0:	13a12023          	sw	s10,288(sp)
800010b4:	11b12e23          	sw	s11,284(sp)
800010b8:	00050913          	mv	s2,a0
800010bc:	00058493          	mv	s1,a1
800010c0:	00060413          	mv	s0,a2
800010c4:	00d12423          	sw	a3,8(sp)
800010c8:	02500a93          	li	s5,37
800010cc:	00f12623          	sw	a5,12(sp)
800010d0:	0140006f          	j	800010e4 <vprintfmt+0x6c>
800010d4:	06050463          	beqz	a0,8000113c <vprintfmt+0xc4>
800010d8:	00048593          	mv	a1,s1
800010dc:	00140413          	addi	s0,s0,1
800010e0:	000900e7          	jalr	s2
800010e4:	00044503          	lbu	a0,0(s0)
800010e8:	ff5516e3          	bne	a0,s5,800010d4 <vprintfmt+0x5c>
800010ec:	00144683          	lbu	a3,1(s0)
800010f0:	00140d93          	addi	s11,s0,1
800010f4:	000d8713          	mv	a4,s11
800010f8:	02000b93          	li	s7,32
800010fc:	fff00993          	li	s3,-1
80001100:	fff00a13          	li	s4,-1
80001104:	00000593          	li	a1,0
80001108:	05500613          	li	a2,85
8000110c:	00900513          	li	a0,9
80001110:	fdd68793          	addi	a5,a3,-35
80001114:	0ff7f793          	andi	a5,a5,255
80001118:	00170413          	addi	s0,a4,1
8000111c:	06f66c63          	bltu	a2,a5,80001194 <vprintfmt+0x11c>
80001120:	00002817          	auipc	a6,0x2
80001124:	cf480813          	addi	a6,a6,-780 # 80002e14 <main+0x154>
80001128:	00279793          	slli	a5,a5,0x2
8000112c:	010787b3          	add	a5,a5,a6
80001130:	0007a783          	lw	a5,0(a5)
80001134:	010787b3          	add	a5,a5,a6
80001138:	00078067          	jr	a5
8000113c:	14c12083          	lw	ra,332(sp)
80001140:	14812403          	lw	s0,328(sp)
80001144:	14412483          	lw	s1,324(sp)
80001148:	14012903          	lw	s2,320(sp)
8000114c:	13c12983          	lw	s3,316(sp)
80001150:	13812a03          	lw	s4,312(sp)
80001154:	13412a83          	lw	s5,308(sp)
80001158:	13012b03          	lw	s6,304(sp)
8000115c:	12c12b83          	lw	s7,300(sp)
80001160:	12812c03          	lw	s8,296(sp)
80001164:	12412c83          	lw	s9,292(sp)
80001168:	12012d03          	lw	s10,288(sp)
8000116c:	11c12d83          	lw	s11,284(sp)
80001170:	15010113          	addi	sp,sp,336
80001174:	00008067          	ret
80001178:	00068b93          	mv	s7,a3
8000117c:	00174683          	lbu	a3,1(a4)
80001180:	00040713          	mv	a4,s0
80001184:	00170413          	addi	s0,a4,1
80001188:	fdd68793          	addi	a5,a3,-35
8000118c:	0ff7f793          	andi	a5,a5,255
80001190:	f8f678e3          	bgeu	a2,a5,80001120 <vprintfmt+0xa8>
80001194:	00048593          	mv	a1,s1
80001198:	02500513          	li	a0,37
8000119c:	000900e7          	jalr	s2
800011a0:	000d8413          	mv	s0,s11
800011a4:	f41ff06f          	j	800010e4 <vprintfmt+0x6c>
800011a8:	00174803          	lbu	a6,1(a4)
800011ac:	fd068993          	addi	s3,a3,-48
800011b0:	00040713          	mv	a4,s0
800011b4:	fd080793          	addi	a5,a6,-48
800011b8:	00080693          	mv	a3,a6
800011bc:	02f56663          	bltu	a0,a5,800011e8 <vprintfmt+0x170>
800011c0:	00299793          	slli	a5,s3,0x2
800011c4:	013789b3          	add	s3,a5,s3
800011c8:	00170713          	addi	a4,a4,1
800011cc:	00199993          	slli	s3,s3,0x1
800011d0:	010989b3          	add	s3,s3,a6
800011d4:	00074803          	lbu	a6,0(a4)
800011d8:	fd098993          	addi	s3,s3,-48
800011dc:	fd080793          	addi	a5,a6,-48
800011e0:	00080693          	mv	a3,a6
800011e4:	fcf57ee3          	bgeu	a0,a5,800011c0 <vprintfmt+0x148>
800011e8:	f20a54e3          	bgez	s4,80001110 <vprintfmt+0x98>
800011ec:	00098a13          	mv	s4,s3
800011f0:	fff00993          	li	s3,-1
800011f4:	f1dff06f          	j	80001110 <vprintfmt+0x98>
800011f8:	00174683          	lbu	a3,1(a4)
800011fc:	00040713          	mv	a4,s0
80001200:	f11ff06f          	j	80001110 <vprintfmt+0x98>
80001204:	00048593          	mv	a1,s1
80001208:	02500513          	li	a0,37
8000120c:	000900e7          	jalr	s2
80001210:	ed5ff06f          	j	800010e4 <vprintfmt+0x6c>
80001214:	00812783          	lw	a5,8(sp)
80001218:	00174683          	lbu	a3,1(a4)
8000121c:	00040713          	mv	a4,s0
80001220:	0007a983          	lw	s3,0(a5)
80001224:	00478793          	addi	a5,a5,4
80001228:	00f12423          	sw	a5,8(sp)
8000122c:	fbdff06f          	j	800011e8 <vprintfmt+0x170>
80001230:	03000513          	li	a0,48
80001234:	00048593          	mv	a1,s1
80001238:	000900e7          	jalr	s2
8000123c:	00048593          	mv	a1,s1
80001240:	07800513          	li	a0,120
80001244:	000900e7          	jalr	s2
80001248:	00812783          	lw	a5,8(sp)
8000124c:	01000c13          	li	s8,16
80001250:	00012223          	sw	zero,4(sp)
80001254:	00478713          	addi	a4,a5,4
80001258:	00812783          	lw	a5,8(sp)
8000125c:	00000d93          	li	s11,0
80001260:	0007a983          	lw	s3,0(a5)
80001264:	00e12423          	sw	a4,8(sp)
80001268:	000c0613          	mv	a2,s8
8000126c:	00000693          	li	a3,0
80001270:	00098513          	mv	a0,s3
80001274:	000d8593          	mv	a1,s11
80001278:	480010ef          	jal	ra,800026f8 <__umoddi3>
8000127c:	00a12823          	sw	a0,16(sp)
80001280:	00000793          	li	a5,0
80001284:	00050c93          	mv	s9,a0
80001288:	23b78063          	beq	a5,s11,800014a8 <vprintfmt+0x430>
8000128c:	01410b13          	addi	s6,sp,20
80001290:	00100d13          	li	s10,1
80001294:	000c0613          	mv	a2,s8
80001298:	00000693          	li	a3,0
8000129c:	00098513          	mv	a0,s3
800012a0:	000d8593          	mv	a1,s11
800012a4:	67d000ef          	jal	ra,80002120 <__udivdi3>
800012a8:	000c0613          	mv	a2,s8
800012ac:	00000693          	li	a3,0
800012b0:	00050993          	mv	s3,a0
800012b4:	00058d93          	mv	s11,a1
800012b8:	440010ef          	jal	ra,800026f8 <__umoddi3>
800012bc:	00412783          	lw	a5,4(sp)
800012c0:	00ab2023          	sw	a0,0(s6)
800012c4:	01a12023          	sw	s10,0(sp)
800012c8:	00050c93          	mv	s9,a0
800012cc:	004b0b13          	addi	s6,s6,4
800012d0:	001d0d13          	addi	s10,s10,1
800012d4:	fdb790e3          	bne	a5,s11,80001294 <vprintfmt+0x21c>
800012d8:	fb89fee3          	bgeu	s3,s8,80001294 <vprintfmt+0x21c>
800012dc:	014d5c63          	bge	s10,s4,800012f4 <vprintfmt+0x27c>
800012e0:	fffa0a13          	addi	s4,s4,-1
800012e4:	00048593          	mv	a1,s1
800012e8:	000b8513          	mv	a0,s7
800012ec:	000900e7          	jalr	s2
800012f0:	ff4d48e3          	blt	s10,s4,800012e0 <vprintfmt+0x268>
800012f4:	00012783          	lw	a5,0(sp)
800012f8:	00c12703          	lw	a4,12(sp)
800012fc:	00900993          	li	s3,9
80001300:	00e78a33          	add	s4,a5,a4
80001304:	002a1a13          	slli	s4,s4,0x2
80001308:	01010793          	addi	a5,sp,16
8000130c:	01478a33          	add	s4,a5,s4
80001310:	00c0006f          	j	8000131c <vprintfmt+0x2a4>
80001314:	000a2c83          	lw	s9,0(s4)
80001318:	ffca0a13          	addi	s4,s4,-4
8000131c:	0199b7b3          	sltu	a5,s3,s9
80001320:	40f007b3          	neg	a5,a5
80001324:	0277f793          	andi	a5,a5,39
80001328:	03078793          	addi	a5,a5,48
8000132c:	01978533          	add	a0,a5,s9
80001330:	00048593          	mv	a1,s1
80001334:	000900e7          	jalr	s2
80001338:	00c10793          	addi	a5,sp,12
8000133c:	fd479ce3          	bne	a5,s4,80001314 <vprintfmt+0x29c>
80001340:	da5ff06f          	j	800010e4 <vprintfmt+0x6c>
80001344:	00100793          	li	a5,1
80001348:	16b7cc63          	blt	a5,a1,800014c0 <vprintfmt+0x448>
8000134c:	00812703          	lw	a4,8(sp)
80001350:	00470793          	addi	a5,a4,4
80001354:	18058663          	beqz	a1,800014e0 <vprintfmt+0x468>
80001358:	00072983          	lw	s3,0(a4)
8000135c:	00f12423          	sw	a5,8(sp)
80001360:	41f9dc13          	srai	s8,s3,0x1f
80001364:	180c4e63          	bltz	s8,80001500 <vprintfmt+0x488>
80001368:	000c0d93          	mv	s11,s8
8000136c:	00012223          	sw	zero,4(sp)
80001370:	00a00c13          	li	s8,10
80001374:	ef5ff06f          	j	80001268 <vprintfmt+0x1f0>
80001378:	01000c13          	li	s8,16
8000137c:	00012223          	sw	zero,4(sp)
80001380:	00100793          	li	a5,1
80001384:	10b7c263          	blt	a5,a1,80001488 <vprintfmt+0x410>
80001388:	00812783          	lw	a5,8(sp)
8000138c:	00478713          	addi	a4,a5,4
80001390:	ec9ff06f          	j	80001258 <vprintfmt+0x1e0>
80001394:	00812783          	lw	a5,8(sp)
80001398:	0007ad83          	lw	s11,0(a5)
8000139c:	00478b13          	addi	s6,a5,4
800013a0:	180d8463          	beqz	s11,80001528 <vprintfmt+0x4b0>
800013a4:	09405863          	blez	s4,80001434 <vprintfmt+0x3bc>
800013a8:	02d00793          	li	a5,45
800013ac:	04fb9e63          	bne	s7,a5,80001408 <vprintfmt+0x390>
800013b0:	000dc503          	lbu	a0,0(s11)
800013b4:	02050863          	beqz	a0,800013e4 <vprintfmt+0x36c>
800013b8:	fff00b93          	li	s7,-1
800013bc:	0009c663          	bltz	s3,800013c8 <vprintfmt+0x350>
800013c0:	fff98993          	addi	s3,s3,-1
800013c4:	01798e63          	beq	s3,s7,800013e0 <vprintfmt+0x368>
800013c8:	00048593          	mv	a1,s1
800013cc:	001d8d93          	addi	s11,s11,1
800013d0:	000900e7          	jalr	s2
800013d4:	000dc503          	lbu	a0,0(s11)
800013d8:	fffa0a13          	addi	s4,s4,-1
800013dc:	fe0510e3          	bnez	a0,800013bc <vprintfmt+0x344>
800013e0:	01405c63          	blez	s4,800013f8 <vprintfmt+0x380>
800013e4:	fffa0a13          	addi	s4,s4,-1
800013e8:	00048593          	mv	a1,s1
800013ec:	02000513          	li	a0,32
800013f0:	000900e7          	jalr	s2
800013f4:	fe0a18e3          	bnez	s4,800013e4 <vprintfmt+0x36c>
800013f8:	01612423          	sw	s6,8(sp)
800013fc:	ce9ff06f          	j	800010e4 <vprintfmt+0x6c>
80001400:	00002d97          	auipc	s11,0x2
80001404:	9d4d8d93          	addi	s11,s11,-1580 # 80002dd4 <main+0x114>
80001408:	000d8793          	mv	a5,s11
8000140c:	013d86b3          	add	a3,s11,s3
80001410:	00099863          	bnez	s3,80001420 <vprintfmt+0x3a8>
80001414:	1340006f          	j	80001548 <vprintfmt+0x4d0>
80001418:	00178793          	addi	a5,a5,1
8000141c:	00d78663          	beq	a5,a3,80001428 <vprintfmt+0x3b0>
80001420:	0007c703          	lbu	a4,0(a5)
80001424:	fe071ae3          	bnez	a4,80001418 <vprintfmt+0x3a0>
80001428:	41b787b3          	sub	a5,a5,s11
8000142c:	40fa0a33          	sub	s4,s4,a5
80001430:	11404c63          	bgtz	s4,80001548 <vprintfmt+0x4d0>
80001434:	000dc503          	lbu	a0,0(s11)
80001438:	fc0500e3          	beqz	a0,800013f8 <vprintfmt+0x380>
8000143c:	fff00b93          	li	s7,-1
80001440:	f7dff06f          	j	800013bc <vprintfmt+0x344>
80001444:	fffa4793          	not	a5,s4
80001448:	41f7d793          	srai	a5,a5,0x1f
8000144c:	00174683          	lbu	a3,1(a4)
80001450:	00fa7a33          	and	s4,s4,a5
80001454:	00040713          	mv	a4,s0
80001458:	cb9ff06f          	j	80001110 <vprintfmt+0x98>
8000145c:	00812783          	lw	a5,8(sp)
80001460:	00048593          	mv	a1,s1
80001464:	0007a503          	lw	a0,0(a5)
80001468:	00478b13          	addi	s6,a5,4
8000146c:	000900e7          	jalr	s2
80001470:	01612423          	sw	s6,8(sp)
80001474:	c71ff06f          	j	800010e4 <vprintfmt+0x6c>
80001478:	00174683          	lbu	a3,1(a4)
8000147c:	00158593          	addi	a1,a1,1
80001480:	00040713          	mv	a4,s0
80001484:	c8dff06f          	j	80001110 <vprintfmt+0x98>
80001488:	00812783          	lw	a5,8(sp)
8000148c:	00778b13          	addi	s6,a5,7
80001490:	ff8b7b13          	andi	s6,s6,-8
80001494:	008b0793          	addi	a5,s6,8
80001498:	000b2983          	lw	s3,0(s6)
8000149c:	004b2d83          	lw	s11,4(s6)
800014a0:	00f12423          	sw	a5,8(sp)
800014a4:	dc5ff06f          	j	80001268 <vprintfmt+0x1f0>
800014a8:	df89f2e3          	bgeu	s3,s8,8000128c <vprintfmt+0x214>
800014ac:	00100793          	li	a5,1
800014b0:	00012023          	sw	zero,0(sp)
800014b4:	00100d13          	li	s10,1
800014b8:	e347c4e3          	blt	a5,s4,800012e0 <vprintfmt+0x268>
800014bc:	e39ff06f          	j	800012f4 <vprintfmt+0x27c>
800014c0:	00812783          	lw	a5,8(sp)
800014c4:	00778b13          	addi	s6,a5,7
800014c8:	ff8b7b13          	andi	s6,s6,-8
800014cc:	008b0793          	addi	a5,s6,8
800014d0:	000b2983          	lw	s3,0(s6)
800014d4:	004b2c03          	lw	s8,4(s6)
800014d8:	00f12423          	sw	a5,8(sp)
800014dc:	e89ff06f          	j	80001364 <vprintfmt+0x2ec>
800014e0:	00812703          	lw	a4,8(sp)
800014e4:	e75ff06f          	j	80001358 <vprintfmt+0x2e0>
800014e8:	00800c13          	li	s8,8
800014ec:	00012223          	sw	zero,4(sp)
800014f0:	e91ff06f          	j	80001380 <vprintfmt+0x308>
800014f4:	00a00c13          	li	s8,10
800014f8:	00012223          	sw	zero,4(sp)
800014fc:	e85ff06f          	j	80001380 <vprintfmt+0x308>
80001500:	00048593          	mv	a1,s1
80001504:	02d00513          	li	a0,45
80001508:	000900e7          	jalr	s2
8000150c:	01303733          	snez	a4,s3
80001510:	418007b3          	neg	a5,s8
80001514:	413009b3          	neg	s3,s3
80001518:	40e78db3          	sub	s11,a5,a4
8000151c:	00a00c13          	li	s8,10
80001520:	00012223          	sw	zero,4(sp)
80001524:	d45ff06f          	j	80001268 <vprintfmt+0x1f0>
80001528:	01405663          	blez	s4,80001534 <vprintfmt+0x4bc>
8000152c:	02d00793          	li	a5,45
80001530:	ecfb98e3          	bne	s7,a5,80001400 <vprintfmt+0x388>
80001534:	00002d97          	auipc	s11,0x2
80001538:	8a0d8d93          	addi	s11,s11,-1888 # 80002dd4 <main+0x114>
8000153c:	02800513          	li	a0,40
80001540:	fff00b93          	li	s7,-1
80001544:	e79ff06f          	j	800013bc <vprintfmt+0x344>
80001548:	fffa0a13          	addi	s4,s4,-1
8000154c:	00048593          	mv	a1,s1
80001550:	000b8513          	mv	a0,s7
80001554:	000900e7          	jalr	s2
80001558:	ec0a0ee3          	beqz	s4,80001434 <vprintfmt+0x3bc>
8000155c:	fffa0a13          	addi	s4,s4,-1
80001560:	00048593          	mv	a1,s1
80001564:	000b8513          	mv	a0,s7
80001568:	000900e7          	jalr	s2
8000156c:	fc0a1ee3          	bnez	s4,80001548 <vprintfmt+0x4d0>
80001570:	ec5ff06f          	j	80001434 <vprintfmt+0x3bc>

80001574 <sprintf_putch.3055>:
80001574:	0005a783          	lw	a5,0(a1)
80001578:	00a78023          	sb	a0,0(a5)
8000157c:	0005a783          	lw	a5,0(a1)
80001580:	00178793          	addi	a5,a5,1
80001584:	00f5a023          	sw	a5,0(a1)
80001588:	00008067          	ret

8000158c <syscall.constprop.0>:
8000158c:	f8010113          	addi	sp,sp,-128
80001590:	03f10813          	addi	a6,sp,63
80001594:	fc087813          	andi	a6,a6,-64
80001598:	04000713          	li	a4,64
8000159c:	00e82023          	sw	a4,0(a6)
800015a0:	00000793          	li	a5,0
800015a4:	00f82223          	sw	a5,4(a6)
800015a8:	00100713          	li	a4,1
800015ac:	00e82423          	sw	a4,8(a6)
800015b0:	00000793          	li	a5,0
800015b4:	00f82623          	sw	a5,12(a6)
800015b8:	00a82823          	sw	a0,16(a6)
800015bc:	00b82a23          	sw	a1,20(a6)
800015c0:	00c82c23          	sw	a2,24(a6)
800015c4:	00d82e23          	sw	a3,28(a6)
800015c8:	0ff0000f          	fence
800015cc:	00000697          	auipc	a3,0x0
800015d0:	a3468693          	addi	a3,a3,-1484 # 80001000 <tohost>
800015d4:	0106a023          	sw	a6,0(a3)
800015d8:	00000793          	li	a5,0
800015dc:	00f6a223          	sw	a5,4(a3)
800015e0:	00000697          	auipc	a3,0x0
800015e4:	a6068693          	addi	a3,a3,-1440 # 80001040 <fromhost>
800015e8:	0006a703          	lw	a4,0(a3)
800015ec:	0046a783          	lw	a5,4(a3)
800015f0:	00f76733          	or	a4,a4,a5
800015f4:	fe070ae3          	beqz	a4,800015e8 <syscall.constprop.0+0x5c>
800015f8:	00000713          	li	a4,0
800015fc:	00e6a023          	sw	a4,0(a3)
80001600:	00000793          	li	a5,0
80001604:	00f6a223          	sw	a5,4(a3)
80001608:	0ff0000f          	fence
8000160c:	00082503          	lw	a0,0(a6)
80001610:	00482583          	lw	a1,4(a6)
80001614:	08010113          	addi	sp,sp,128
80001618:	00008067          	ret

8000161c <putchar>:
8000161c:	ff010113          	addi	sp,sp,-16
80001620:	00812423          	sw	s0,8(sp)
80001624:	04022583          	lw	a1,64(tp) # 40 <buflen.2941>
80001628:	00020793          	mv	a5,tp
8000162c:	00112623          	sw	ra,12(sp)
80001630:	00b787b3          	add	a5,a5,a1
80001634:	00158613          	addi	a2,a1,1
80001638:	00a78023          	sb	a0,0(a5)
8000163c:	04c22023          	sw	a2,64(tp) # 40 <buflen.2941>
80001640:	00a00793          	li	a5,10
80001644:	02f50063          	beq	a0,a5,80001664 <putchar+0x48>
80001648:	04000793          	li	a5,64
8000164c:	00f60c63          	beq	a2,a5,80001664 <putchar+0x48>
80001650:	00c12083          	lw	ra,12(sp)
80001654:	00812403          	lw	s0,8(sp)
80001658:	00000513          	li	a0,0
8000165c:	01010113          	addi	sp,sp,16
80001660:	00008067          	ret
80001664:	41f65693          	srai	a3,a2,0x1f
80001668:	00020513          	mv	a0,tp
8000166c:	00000593          	li	a1,0
80001670:	f1dff0ef          	jal	ra,8000158c <syscall.constprop.0>
80001674:	00c12083          	lw	ra,12(sp)
80001678:	04022023          	sw	zero,64(tp) # 40 <buflen.2941>
8000167c:	00812403          	lw	s0,8(sp)
80001680:	00000513          	li	a0,0
80001684:	01010113          	addi	sp,sp,16
80001688:	00008067          	ret

8000168c <setStats>:
8000168c:	b0002773          	csrr	a4,mcycle
80001690:	00003797          	auipc	a5,0x3
80001694:	8f878793          	addi	a5,a5,-1800 # 80003f88 <counters>
80001698:	00051e63          	bnez	a0,800016b4 <setStats+0x28>
8000169c:	0007a683          	lw	a3,0(a5)
800016a0:	00001617          	auipc	a2,0x1
800016a4:	73c60613          	addi	a2,a2,1852 # 80002ddc <main+0x11c>
800016a8:	00003597          	auipc	a1,0x3
800016ac:	8cc5ac23          	sw	a2,-1832(a1) # 80003f80 <counter_names>
800016b0:	40d70733          	sub	a4,a4,a3
800016b4:	00e7a023          	sw	a4,0(a5)
800016b8:	b0202773          	csrr	a4,minstret
800016bc:	00051e63          	bnez	a0,800016d8 <setStats+0x4c>
800016c0:	0047a683          	lw	a3,4(a5)
800016c4:	00001617          	auipc	a2,0x1
800016c8:	72060613          	addi	a2,a2,1824 # 80002de4 <main+0x124>
800016cc:	00003597          	auipc	a1,0x3
800016d0:	8ac5ac23          	sw	a2,-1864(a1) # 80003f84 <counter_names+0x4>
800016d4:	40d70733          	sub	a4,a4,a3
800016d8:	00e7a223          	sw	a4,4(a5)
800016dc:	00008067          	ret

800016e0 <tohost_exit>:
800016e0:	00151693          	slli	a3,a0,0x1
800016e4:	0016e713          	ori	a4,a3,1
800016e8:	00000697          	auipc	a3,0x0
800016ec:	91868693          	addi	a3,a3,-1768 # 80001000 <tohost>
800016f0:	00000793          	li	a5,0
800016f4:	00e6a023          	sw	a4,0(a3)
800016f8:	00f6a223          	sw	a5,4(a3)
800016fc:	0000006f          	j	800016fc <tohost_exit+0x1c>

80001700 <handle_trap>:
80001700:	00001637          	lui	a2,0x1
80001704:	00000797          	auipc	a5,0x0
80001708:	8fc78793          	addi	a5,a5,-1796 # 80001000 <tohost>
8000170c:	a7360613          	addi	a2,a2,-1421 # a73 <buflen.2941+0xa33>
80001710:	00000693          	li	a3,0
80001714:	00c7a023          	sw	a2,0(a5)
80001718:	00d7a223          	sw	a3,4(a5)
8000171c:	0000006f          	j	8000171c <handle_trap+0x1c>

80001720 <exit>:
80001720:	ff010113          	addi	sp,sp,-16
80001724:	00112623          	sw	ra,12(sp)
80001728:	fb9ff0ef          	jal	ra,800016e0 <tohost_exit>

8000172c <abort>:
8000172c:	00000797          	auipc	a5,0x0
80001730:	8d478793          	addi	a5,a5,-1836 # 80001000 <tohost>
80001734:	10d00613          	li	a2,269
80001738:	00000693          	li	a3,0
8000173c:	00c7a023          	sw	a2,0(a5)
80001740:	00d7a223          	sw	a3,4(a5)
80001744:	0000006f          	j	80001744 <abort+0x18>

80001748 <printstr>:
80001748:	00054783          	lbu	a5,0(a0)
8000174c:	02078263          	beqz	a5,80001770 <printstr+0x28>
80001750:	00050613          	mv	a2,a0
80001754:	00164783          	lbu	a5,1(a2)
80001758:	00160613          	addi	a2,a2,1
8000175c:	fe079ce3          	bnez	a5,80001754 <printstr+0xc>
80001760:	40a60633          	sub	a2,a2,a0
80001764:	00000693          	li	a3,0
80001768:	00000593          	li	a1,0
8000176c:	e21ff06f          	j	8000158c <syscall.constprop.0>
80001770:	00000613          	li	a2,0
80001774:	00000693          	li	a3,0
80001778:	00000593          	li	a1,0
8000177c:	e11ff06f          	j	8000158c <syscall.constprop.0>

80001780 <thread_entry>:
80001780:	00051063          	bnez	a0,80001780 <thread_entry>
80001784:	00008067          	ret

80001788 <printhex>:
80001788:	fd010113          	addi	sp,sp,-48
8000178c:	00050713          	mv	a4,a0
80001790:	02112623          	sw	ra,44(sp)
80001794:	00c10513          	addi	a0,sp,12
80001798:	01b10613          	addi	a2,sp,27
8000179c:	00900813          	li	a6,9
800017a0:	0080006f          	j	800017a8 <printhex+0x20>
800017a4:	00078613          	mv	a2,a5
800017a8:	00f77793          	andi	a5,a4,15
800017ac:	00f837b3          	sltu	a5,a6,a5
800017b0:	40f007b3          	neg	a5,a5
800017b4:	0277f793          	andi	a5,a5,39
800017b8:	00f77693          	andi	a3,a4,15
800017bc:	03078793          	addi	a5,a5,48
800017c0:	00f687b3          	add	a5,a3,a5
800017c4:	00f60023          	sb	a5,0(a2)
800017c8:	01c59693          	slli	a3,a1,0x1c
800017cc:	00475713          	srli	a4,a4,0x4
800017d0:	fff60793          	addi	a5,a2,-1
800017d4:	00e6e733          	or	a4,a3,a4
800017d8:	0045d593          	srli	a1,a1,0x4
800017dc:	fcc514e3          	bne	a0,a2,800017a4 <printhex+0x1c>
800017e0:	00010e23          	sb	zero,28(sp)
800017e4:	f65ff0ef          	jal	ra,80001748 <printstr>
800017e8:	02c12083          	lw	ra,44(sp)
800017ec:	03010113          	addi	sp,sp,48
800017f0:	00008067          	ret

800017f4 <printf>:
800017f4:	fc010113          	addi	sp,sp,-64
800017f8:	02410313          	addi	t1,sp,36
800017fc:	00050e13          	mv	t3,a0
80001800:	02b12223          	sw	a1,36(sp)
80001804:	02c12423          	sw	a2,40(sp)
80001808:	02d12623          	sw	a3,44(sp)
8000180c:	00000517          	auipc	a0,0x0
80001810:	e1050513          	addi	a0,a0,-496 # 8000161c <putchar>
80001814:	00030693          	mv	a3,t1
80001818:	000e0613          	mv	a2,t3
8000181c:	00000593          	li	a1,0
80001820:	00112e23          	sw	ra,28(sp)
80001824:	02e12823          	sw	a4,48(sp)
80001828:	02f12a23          	sw	a5,52(sp)
8000182c:	03012c23          	sw	a6,56(sp)
80001830:	03112e23          	sw	a7,60(sp)
80001834:	00612623          	sw	t1,12(sp)
80001838:	841ff0ef          	jal	ra,80001078 <vprintfmt>
8000183c:	01c12083          	lw	ra,28(sp)
80001840:	00000513          	li	a0,0
80001844:	04010113          	addi	sp,sp,64
80001848:	00008067          	ret

8000184c <sprintf>:
8000184c:	fb010113          	addi	sp,sp,-80
80001850:	03810313          	addi	t1,sp,56
80001854:	02812423          	sw	s0,40(sp)
80001858:	00a12623          	sw	a0,12(sp)
8000185c:	02c12c23          	sw	a2,56(sp)
80001860:	02d12e23          	sw	a3,60(sp)
80001864:	00050413          	mv	s0,a0
80001868:	00058613          	mv	a2,a1
8000186c:	00000517          	auipc	a0,0x0
80001870:	d0850513          	addi	a0,a0,-760 # 80001574 <sprintf_putch.3055>
80001874:	00c10593          	addi	a1,sp,12
80001878:	00030693          	mv	a3,t1
8000187c:	02112623          	sw	ra,44(sp)
80001880:	04f12223          	sw	a5,68(sp)
80001884:	04e12023          	sw	a4,64(sp)
80001888:	05012423          	sw	a6,72(sp)
8000188c:	05112623          	sw	a7,76(sp)
80001890:	00612e23          	sw	t1,28(sp)
80001894:	fe4ff0ef          	jal	ra,80001078 <vprintfmt>
80001898:	00c12783          	lw	a5,12(sp)
8000189c:	00078023          	sb	zero,0(a5)
800018a0:	00c12503          	lw	a0,12(sp)
800018a4:	02c12083          	lw	ra,44(sp)
800018a8:	40850533          	sub	a0,a0,s0
800018ac:	02812403          	lw	s0,40(sp)
800018b0:	05010113          	addi	sp,sp,80
800018b4:	00008067          	ret

800018b8 <memcpy>:
800018b8:	00c5e7b3          	or	a5,a1,a2
800018bc:	00f567b3          	or	a5,a0,a5
800018c0:	0037f793          	andi	a5,a5,3
800018c4:	00c506b3          	add	a3,a0,a2
800018c8:	02078463          	beqz	a5,800018f0 <memcpy+0x38>
800018cc:	00c58633          	add	a2,a1,a2
800018d0:	00050793          	mv	a5,a0
800018d4:	02d57e63          	bgeu	a0,a3,80001910 <memcpy+0x58>
800018d8:	0005c703          	lbu	a4,0(a1)
800018dc:	00158593          	addi	a1,a1,1
800018e0:	00178793          	addi	a5,a5,1
800018e4:	fee78fa3          	sb	a4,-1(a5)
800018e8:	feb618e3          	bne	a2,a1,800018d8 <memcpy+0x20>
800018ec:	00008067          	ret
800018f0:	fed57ee3          	bgeu	a0,a3,800018ec <memcpy+0x34>
800018f4:	00050793          	mv	a5,a0
800018f8:	0005a703          	lw	a4,0(a1)
800018fc:	00478793          	addi	a5,a5,4
80001900:	00458593          	addi	a1,a1,4
80001904:	fee7ae23          	sw	a4,-4(a5)
80001908:	fed7e8e3          	bltu	a5,a3,800018f8 <memcpy+0x40>
8000190c:	00008067          	ret
80001910:	00008067          	ret

80001914 <memset>:
80001914:	00c567b3          	or	a5,a0,a2
80001918:	0037f793          	andi	a5,a5,3
8000191c:	00c50633          	add	a2,a0,a2
80001920:	02078063          	beqz	a5,80001940 <memset+0x2c>
80001924:	0ff5f593          	andi	a1,a1,255
80001928:	00050793          	mv	a5,a0
8000192c:	04c57063          	bgeu	a0,a2,8000196c <memset+0x58>
80001930:	00178793          	addi	a5,a5,1
80001934:	feb78fa3          	sb	a1,-1(a5)
80001938:	fef61ce3          	bne	a2,a5,80001930 <memset+0x1c>
8000193c:	00008067          	ret
80001940:	0ff5f593          	andi	a1,a1,255
80001944:	00859713          	slli	a4,a1,0x8
80001948:	00e5e733          	or	a4,a1,a4
8000194c:	01071793          	slli	a5,a4,0x10
80001950:	00f76733          	or	a4,a4,a5
80001954:	fec574e3          	bgeu	a0,a2,8000193c <memset+0x28>
80001958:	00050793          	mv	a5,a0
8000195c:	00478793          	addi	a5,a5,4
80001960:	fee7ae23          	sw	a4,-4(a5)
80001964:	fec7ece3          	bltu	a5,a2,8000195c <memset+0x48>
80001968:	00008067          	ret
8000196c:	00008067          	ret

80001970 <_init>:
80001970:	f6010113          	addi	sp,sp,-160
80001974:	00002797          	auipc	a5,0x2
80001978:	61c78793          	addi	a5,a5,1564 # 80003f90 <_tdata_begin>
8000197c:	09412423          	sw	s4,136(sp)
80001980:	00002a17          	auipc	s4,0x2
80001984:	610a0a13          	addi	s4,s4,1552 # 80003f90 <_tdata_begin>
80001988:	09312623          	sw	s3,140(sp)
8000198c:	40fa09b3          	sub	s3,s4,a5
80001990:	08912a23          	sw	s1,148(sp)
80001994:	09212823          	sw	s2,144(sp)
80001998:	00050493          	mv	s1,a0
8000199c:	00058913          	mv	s2,a1
800019a0:	00020513          	mv	a0,tp
800019a4:	00078593          	mv	a1,a5
800019a8:	00098613          	mv	a2,s3
800019ac:	08112e23          	sw	ra,156(sp)
800019b0:	08812c23          	sw	s0,152(sp)
800019b4:	09512223          	sw	s5,132(sp)
800019b8:	00020a93          	mv	s5,tp
800019bc:	efdff0ef          	jal	ra,800018b8 <memcpy>
800019c0:	88418613          	addi	a2,gp,-1916 # 80004004 <_tbss_end>
800019c4:	41460633          	sub	a2,a2,s4
800019c8:	00000593          	li	a1,0
800019cc:	013a8533          	add	a0,s5,s3
800019d0:	f45ff0ef          	jal	ra,80001914 <memset>
800019d4:	00090593          	mv	a1,s2
800019d8:	00048513          	mv	a0,s1
800019dc:	da5ff0ef          	jal	ra,80001780 <thread_entry>
800019e0:	00000593          	li	a1,0
800019e4:	00000513          	li	a0,0
800019e8:	2d8010ef          	jal	ra,80002cc0 <main>
800019ec:	00002917          	auipc	s2,0x2
800019f0:	59c90913          	addi	s2,s2,1436 # 80003f88 <counters>
800019f4:	00092683          	lw	a3,0(s2)
800019f8:	03f10413          	addi	s0,sp,63
800019fc:	fc047413          	andi	s0,s0,-64
80001a00:	00050493          	mv	s1,a0
80001a04:	04069463          	bnez	a3,80001a4c <_init+0xdc>
80001a08:	00492683          	lw	a3,4(s2)
80001a0c:	00069663          	bnez	a3,80001a18 <_init+0xa8>
80001a10:	00048513          	mv	a0,s1
80001a14:	ccdff0ef          	jal	ra,800016e0 <tohost_exit>
80001a18:	00040913          	mv	s2,s0
80001a1c:	00002997          	auipc	s3,0x2
80001a20:	56498993          	addi	s3,s3,1380 # 80003f80 <counter_names>
80001a24:	0049a603          	lw	a2,4(s3)
80001a28:	00090513          	mv	a0,s2
80001a2c:	00001597          	auipc	a1,0x1
80001a30:	3dc58593          	addi	a1,a1,988 # 80002e08 <main+0x148>
80001a34:	e19ff0ef          	jal	ra,8000184c <sprintf>
80001a38:	00a90933          	add	s2,s2,a0
80001a3c:	fd240ae3          	beq	s0,s2,80001a10 <_init+0xa0>
80001a40:	00040513          	mv	a0,s0
80001a44:	d05ff0ef          	jal	ra,80001748 <printstr>
80001a48:	fc9ff06f          	j	80001a10 <_init+0xa0>
80001a4c:	00002997          	auipc	s3,0x2
80001a50:	53498993          	addi	s3,s3,1332 # 80003f80 <counter_names>
80001a54:	0009a603          	lw	a2,0(s3)
80001a58:	00001597          	auipc	a1,0x1
80001a5c:	3b058593          	addi	a1,a1,944 # 80002e08 <main+0x148>
80001a60:	00040513          	mv	a0,s0
80001a64:	de9ff0ef          	jal	ra,8000184c <sprintf>
80001a68:	00492683          	lw	a3,4(s2)
80001a6c:	00a40933          	add	s2,s0,a0
80001a70:	fc0686e3          	beqz	a3,80001a3c <_init+0xcc>
80001a74:	fb1ff06f          	j	80001a24 <_init+0xb4>

80001a78 <strlen>:
80001a78:	00054783          	lbu	a5,0(a0)
80001a7c:	00078e63          	beqz	a5,80001a98 <strlen+0x20>
80001a80:	00050793          	mv	a5,a0
80001a84:	0017c703          	lbu	a4,1(a5)
80001a88:	00178793          	addi	a5,a5,1
80001a8c:	fe071ce3          	bnez	a4,80001a84 <strlen+0xc>
80001a90:	40a78533          	sub	a0,a5,a0
80001a94:	00008067          	ret
80001a98:	00000513          	li	a0,0
80001a9c:	00008067          	ret

80001aa0 <strnlen>:
80001aa0:	00050613          	mv	a2,a0
80001aa4:	00b606b3          	add	a3,a2,a1
80001aa8:	00058513          	mv	a0,a1
80001aac:	00060793          	mv	a5,a2
80001ab0:	00059863          	bnez	a1,80001ac0 <strnlen+0x20>
80001ab4:	01c0006f          	j	80001ad0 <strnlen+0x30>
80001ab8:	00178793          	addi	a5,a5,1
80001abc:	00f68863          	beq	a3,a5,80001acc <strnlen+0x2c>
80001ac0:	0007c703          	lbu	a4,0(a5)
80001ac4:	fe071ae3          	bnez	a4,80001ab8 <strnlen+0x18>
80001ac8:	40c78533          	sub	a0,a5,a2
80001acc:	00008067          	ret
80001ad0:	00008067          	ret

80001ad4 <strcmp>:
80001ad4:	00054783          	lbu	a5,0(a0)
80001ad8:	00158593          	addi	a1,a1,1
80001adc:	00150513          	addi	a0,a0,1
80001ae0:	fff5c703          	lbu	a4,-1(a1)
80001ae4:	00078863          	beqz	a5,80001af4 <strcmp+0x20>
80001ae8:	fee786e3          	beq	a5,a4,80001ad4 <strcmp>
80001aec:	40e78533          	sub	a0,a5,a4
80001af0:	00008067          	ret
80001af4:	00000793          	li	a5,0
80001af8:	ff5ff06f          	j	80001aec <strcmp+0x18>

80001afc <strcpy>:
80001afc:	00050793          	mv	a5,a0
80001b00:	0005c703          	lbu	a4,0(a1)
80001b04:	00178793          	addi	a5,a5,1
80001b08:	00158593          	addi	a1,a1,1
80001b0c:	fee78fa3          	sb	a4,-1(a5)
80001b10:	fe0718e3          	bnez	a4,80001b00 <strcpy+0x4>
80001b14:	00008067          	ret

80001b18 <atol>:
80001b18:	00054703          	lbu	a4,0(a0)
80001b1c:	02000693          	li	a3,32
80001b20:	00050793          	mv	a5,a0
80001b24:	00d71863          	bne	a4,a3,80001b34 <atol+0x1c>
80001b28:	0017c703          	lbu	a4,1(a5)
80001b2c:	00178793          	addi	a5,a5,1
80001b30:	fed70ce3          	beq	a4,a3,80001b28 <atol+0x10>
80001b34:	02d00693          	li	a3,45
80001b38:	06d70063          	beq	a4,a3,80001b98 <atol+0x80>
80001b3c:	02b00693          	li	a3,43
80001b40:	04d70063          	beq	a4,a3,80001b80 <atol+0x68>
80001b44:	0007c683          	lbu	a3,0(a5)
80001b48:	00000593          	li	a1,0
80001b4c:	04068263          	beqz	a3,80001b90 <atol+0x78>
80001b50:	00000513          	li	a0,0
80001b54:	00178793          	addi	a5,a5,1
80001b58:	fd068613          	addi	a2,a3,-48
80001b5c:	00251713          	slli	a4,a0,0x2
80001b60:	0007c683          	lbu	a3,0(a5)
80001b64:	00a70533          	add	a0,a4,a0
80001b68:	00151513          	slli	a0,a0,0x1
80001b6c:	00a60533          	add	a0,a2,a0
80001b70:	fe0692e3          	bnez	a3,80001b54 <atol+0x3c>
80001b74:	02058063          	beqz	a1,80001b94 <atol+0x7c>
80001b78:	40a00533          	neg	a0,a0
80001b7c:	00008067          	ret
80001b80:	0017c683          	lbu	a3,1(a5)
80001b84:	00000593          	li	a1,0
80001b88:	00178793          	addi	a5,a5,1
80001b8c:	fc0692e3          	bnez	a3,80001b50 <atol+0x38>
80001b90:	00000513          	li	a0,0
80001b94:	00008067          	ret
80001b98:	0017c683          	lbu	a3,1(a5)
80001b9c:	00100593          	li	a1,1
80001ba0:	00178793          	addi	a5,a5,1
80001ba4:	fa0696e3          	bnez	a3,80001b50 <atol+0x38>
80001ba8:	00000513          	li	a0,0
80001bac:	fe9ff06f          	j	80001b94 <atol+0x7c>

80001bb0 <__moddi3>:
80001bb0:	fc010113          	addi	sp,sp,-64
80001bb4:	02912a23          	sw	s1,52(sp)
80001bb8:	01712e23          	sw	s7,28(sp)
80001bbc:	01912a23          	sw	s9,20(sp)
80001bc0:	02112e23          	sw	ra,60(sp)
80001bc4:	02812c23          	sw	s0,56(sp)
80001bc8:	03212823          	sw	s2,48(sp)
80001bcc:	03312623          	sw	s3,44(sp)
80001bd0:	03412423          	sw	s4,40(sp)
80001bd4:	03512223          	sw	s5,36(sp)
80001bd8:	03612023          	sw	s6,32(sp)
80001bdc:	01812c23          	sw	s8,24(sp)
80001be0:	01a12823          	sw	s10,16(sp)
80001be4:	01b12623          	sw	s11,12(sp)
80001be8:	00050b93          	mv	s7,a0
80001bec:	00058c93          	mv	s9,a1
80001bf0:	00000493          	li	s1,0
80001bf4:	0005dc63          	bgez	a1,80001c0c <__moddi3+0x5c>
80001bf8:	00a037b3          	snez	a5,a0
80001bfc:	40b00933          	neg	s2,a1
80001c00:	40f90cb3          	sub	s9,s2,a5
80001c04:	40a00bb3          	neg	s7,a0
80001c08:	fff00493          	li	s1,-1
80001c0c:	0006da63          	bgez	a3,80001c20 <__moddi3+0x70>
80001c10:	00c03933          	snez	s2,a2
80001c14:	40d007b3          	neg	a5,a3
80001c18:	412786b3          	sub	a3,a5,s2
80001c1c:	40c00633          	neg	a2,a2
80001c20:	00060a93          	mv	s5,a2
80001c24:	00068993          	mv	s3,a3
80001c28:	000b8413          	mv	s0,s7
80001c2c:	000c8913          	mv	s2,s9
80001c30:	2a069863          	bnez	a3,80001ee0 <__moddi3+0x330>
80001c34:	80003a37          	lui	s4,0x80003
80001c38:	f6ca0a13          	addi	s4,s4,-148 # 80002f6c <__global_pointer$+0xffffe7ec>
80001c3c:	14ccfe63          	bgeu	s9,a2,80001d98 <__moddi3+0x1e8>
80001c40:	000107b7          	lui	a5,0x10
80001c44:	14f67063          	bgeu	a2,a5,80001d84 <__moddi3+0x1d4>
80001c48:	0ff00793          	li	a5,255
80001c4c:	00c7f463          	bgeu	a5,a2,80001c54 <__moddi3+0xa4>
80001c50:	00800993          	li	s3,8
80001c54:	013657b3          	srl	a5,a2,s3
80001c58:	00fa0a33          	add	s4,s4,a5
80001c5c:	000a4783          	lbu	a5,0(s4)
80001c60:	02000713          	li	a4,32
80001c64:	013787b3          	add	a5,a5,s3
80001c68:	40f709b3          	sub	s3,a4,a5
80001c6c:	00f70c63          	beq	a4,a5,80001c84 <__moddi3+0xd4>
80001c70:	013c96b3          	sll	a3,s9,s3
80001c74:	00fbd7b3          	srl	a5,s7,a5
80001c78:	01361ab3          	sll	s5,a2,s3
80001c7c:	00d7e933          	or	s2,a5,a3
80001c80:	013b9433          	sll	s0,s7,s3
80001c84:	010adb13          	srli	s6,s5,0x10
80001c88:	000b0593          	mv	a1,s6
80001c8c:	00090513          	mv	a0,s2
80001c90:	7cd000ef          	jal	ra,80002c5c <__umodsi3>
80001c94:	010a9b93          	slli	s7,s5,0x10
80001c98:	00050a13          	mv	s4,a0
80001c9c:	010bdb93          	srli	s7,s7,0x10
80001ca0:	000b0593          	mv	a1,s6
80001ca4:	00090513          	mv	a0,s2
80001ca8:	76d000ef          	jal	ra,80002c14 <__udivsi3>
80001cac:	00050593          	mv	a1,a0
80001cb0:	000b8513          	mv	a0,s7
80001cb4:	735000ef          	jal	ra,80002be8 <__mulsi3>
80001cb8:	010a1a13          	slli	s4,s4,0x10
80001cbc:	01045793          	srli	a5,s0,0x10
80001cc0:	00fa67b3          	or	a5,s4,a5
80001cc4:	00a7fa63          	bgeu	a5,a0,80001cd8 <__moddi3+0x128>
80001cc8:	015787b3          	add	a5,a5,s5
80001ccc:	0157e663          	bltu	a5,s5,80001cd8 <__moddi3+0x128>
80001cd0:	00a7f463          	bgeu	a5,a0,80001cd8 <__moddi3+0x128>
80001cd4:	015787b3          	add	a5,a5,s5
80001cd8:	40a78933          	sub	s2,a5,a0
80001cdc:	000b0593          	mv	a1,s6
80001ce0:	00090513          	mv	a0,s2
80001ce4:	779000ef          	jal	ra,80002c5c <__umodsi3>
80001ce8:	00050a13          	mv	s4,a0
80001cec:	000b0593          	mv	a1,s6
80001cf0:	00090513          	mv	a0,s2
80001cf4:	721000ef          	jal	ra,80002c14 <__udivsi3>
80001cf8:	01041413          	slli	s0,s0,0x10
80001cfc:	00050593          	mv	a1,a0
80001d00:	010a1a13          	slli	s4,s4,0x10
80001d04:	000b8513          	mv	a0,s7
80001d08:	01045413          	srli	s0,s0,0x10
80001d0c:	6dd000ef          	jal	ra,80002be8 <__mulsi3>
80001d10:	008a6433          	or	s0,s4,s0
80001d14:	00a47a63          	bgeu	s0,a0,80001d28 <__moddi3+0x178>
80001d18:	01540433          	add	s0,s0,s5
80001d1c:	01546663          	bltu	s0,s5,80001d28 <__moddi3+0x178>
80001d20:	00a47463          	bgeu	s0,a0,80001d28 <__moddi3+0x178>
80001d24:	01540433          	add	s0,s0,s5
80001d28:	40a40433          	sub	s0,s0,a0
80001d2c:	01345533          	srl	a0,s0,s3
80001d30:	00000593          	li	a1,0
80001d34:	00048a63          	beqz	s1,80001d48 <__moddi3+0x198>
80001d38:	00a037b3          	snez	a5,a0
80001d3c:	40b006b3          	neg	a3,a1
80001d40:	40f685b3          	sub	a1,a3,a5
80001d44:	40a00533          	neg	a0,a0
80001d48:	03c12083          	lw	ra,60(sp)
80001d4c:	03812403          	lw	s0,56(sp)
80001d50:	03412483          	lw	s1,52(sp)
80001d54:	03012903          	lw	s2,48(sp)
80001d58:	02c12983          	lw	s3,44(sp)
80001d5c:	02812a03          	lw	s4,40(sp)
80001d60:	02412a83          	lw	s5,36(sp)
80001d64:	02012b03          	lw	s6,32(sp)
80001d68:	01c12b83          	lw	s7,28(sp)
80001d6c:	01812c03          	lw	s8,24(sp)
80001d70:	01412c83          	lw	s9,20(sp)
80001d74:	01012d03          	lw	s10,16(sp)
80001d78:	00c12d83          	lw	s11,12(sp)
80001d7c:	04010113          	addi	sp,sp,64
80001d80:	00008067          	ret
80001d84:	010007b7          	lui	a5,0x1000
80001d88:	01000993          	li	s3,16
80001d8c:	ecf664e3          	bltu	a2,a5,80001c54 <__moddi3+0xa4>
80001d90:	01800993          	li	s3,24
80001d94:	ec1ff06f          	j	80001c54 <__moddi3+0xa4>
80001d98:	00061a63          	bnez	a2,80001dac <__moddi3+0x1fc>
80001d9c:	00000593          	li	a1,0
80001da0:	00100513          	li	a0,1
80001da4:	671000ef          	jal	ra,80002c14 <__udivsi3>
80001da8:	00050a93          	mv	s5,a0
80001dac:	000107b7          	lui	a5,0x10
80001db0:	04fafc63          	bgeu	s5,a5,80001e08 <__moddi3+0x258>
80001db4:	0ff00793          	li	a5,255
80001db8:	0157f463          	bgeu	a5,s5,80001dc0 <__moddi3+0x210>
80001dbc:	00800993          	li	s3,8
80001dc0:	013ad7b3          	srl	a5,s5,s3
80001dc4:	00fa0a33          	add	s4,s4,a5
80001dc8:	000a4783          	lbu	a5,0(s4)
80001dcc:	02000713          	li	a4,32
80001dd0:	013787b3          	add	a5,a5,s3
80001dd4:	40f709b3          	sub	s3,a4,a5
80001dd8:	04f71263          	bne	a4,a5,80001e1c <__moddi3+0x26c>
80001ddc:	415c8cb3          	sub	s9,s9,s5
80001de0:	010adb13          	srli	s6,s5,0x10
80001de4:	000b0593          	mv	a1,s6
80001de8:	000c8513          	mv	a0,s9
80001dec:	671000ef          	jal	ra,80002c5c <__umodsi3>
80001df0:	010a9b93          	slli	s7,s5,0x10
80001df4:	00050a13          	mv	s4,a0
80001df8:	010bdb93          	srli	s7,s7,0x10
80001dfc:	000b0593          	mv	a1,s6
80001e00:	000c8513          	mv	a0,s9
80001e04:	ea5ff06f          	j	80001ca8 <__moddi3+0xf8>
80001e08:	010007b7          	lui	a5,0x1000
80001e0c:	01000993          	li	s3,16
80001e10:	fafae8e3          	bltu	s5,a5,80001dc0 <__moddi3+0x210>
80001e14:	01800993          	li	s3,24
80001e18:	fa9ff06f          	j	80001dc0 <__moddi3+0x210>
80001e1c:	013a9ab3          	sll	s5,s5,s3
80001e20:	00fcdb33          	srl	s6,s9,a5
80001e24:	010ad913          	srli	s2,s5,0x10
80001e28:	00fbd7b3          	srl	a5,s7,a5
80001e2c:	013c96b3          	sll	a3,s9,s3
80001e30:	00090593          	mv	a1,s2
80001e34:	000b0513          	mv	a0,s6
80001e38:	00d7ec33          	or	s8,a5,a3
80001e3c:	621000ef          	jal	ra,80002c5c <__umodsi3>
80001e40:	00050a13          	mv	s4,a0
80001e44:	00090593          	mv	a1,s2
80001e48:	013b9433          	sll	s0,s7,s3
80001e4c:	000b0513          	mv	a0,s6
80001e50:	010a9b93          	slli	s7,s5,0x10
80001e54:	5c1000ef          	jal	ra,80002c14 <__udivsi3>
80001e58:	010bdb93          	srli	s7,s7,0x10
80001e5c:	00050593          	mv	a1,a0
80001e60:	000b8513          	mv	a0,s7
80001e64:	585000ef          	jal	ra,80002be8 <__mulsi3>
80001e68:	010a1a13          	slli	s4,s4,0x10
80001e6c:	010c5793          	srli	a5,s8,0x10
80001e70:	00fa67b3          	or	a5,s4,a5
80001e74:	00a7fa63          	bgeu	a5,a0,80001e88 <__moddi3+0x2d8>
80001e78:	015787b3          	add	a5,a5,s5
80001e7c:	0157e663          	bltu	a5,s5,80001e88 <__moddi3+0x2d8>
80001e80:	00a7f463          	bgeu	a5,a0,80001e88 <__moddi3+0x2d8>
80001e84:	015787b3          	add	a5,a5,s5
80001e88:	40a78b33          	sub	s6,a5,a0
80001e8c:	00090593          	mv	a1,s2
80001e90:	000b0513          	mv	a0,s6
80001e94:	5c9000ef          	jal	ra,80002c5c <__umodsi3>
80001e98:	00050a13          	mv	s4,a0
80001e9c:	00090593          	mv	a1,s2
80001ea0:	000b0513          	mv	a0,s6
80001ea4:	571000ef          	jal	ra,80002c14 <__udivsi3>
80001ea8:	00050593          	mv	a1,a0
80001eac:	000b8513          	mv	a0,s7
80001eb0:	539000ef          	jal	ra,80002be8 <__mulsi3>
80001eb4:	010c1693          	slli	a3,s8,0x10
80001eb8:	010a1a13          	slli	s4,s4,0x10
80001ebc:	0106d693          	srli	a3,a3,0x10
80001ec0:	00da66b3          	or	a3,s4,a3
80001ec4:	00a6fa63          	bgeu	a3,a0,80001ed8 <__moddi3+0x328>
80001ec8:	015686b3          	add	a3,a3,s5
80001ecc:	0156e663          	bltu	a3,s5,80001ed8 <__moddi3+0x328>
80001ed0:	00a6f463          	bgeu	a3,a0,80001ed8 <__moddi3+0x328>
80001ed4:	015686b3          	add	a3,a3,s5
80001ed8:	40a68cb3          	sub	s9,a3,a0
80001edc:	f05ff06f          	j	80001de0 <__moddi3+0x230>
80001ee0:	00dcf863          	bgeu	s9,a3,80001ef0 <__moddi3+0x340>
80001ee4:	000b8513          	mv	a0,s7
80001ee8:	000c8593          	mv	a1,s9
80001eec:	e49ff06f          	j	80001d34 <__moddi3+0x184>
80001ef0:	000107b7          	lui	a5,0x10
80001ef4:	04f6fc63          	bgeu	a3,a5,80001f4c <__moddi3+0x39c>
80001ef8:	0ff00b13          	li	s6,255
80001efc:	00db3533          	sltu	a0,s6,a3
80001f00:	00351513          	slli	a0,a0,0x3
80001f04:	800037b7          	lui	a5,0x80003
80001f08:	00a6d733          	srl	a4,a3,a0
80001f0c:	f6c78793          	addi	a5,a5,-148 # 80002f6c <__global_pointer$+0xffffe7ec>
80001f10:	00e787b3          	add	a5,a5,a4
80001f14:	0007cb03          	lbu	s6,0(a5)
80001f18:	02000793          	li	a5,32
80001f1c:	00ab0b33          	add	s6,s6,a0
80001f20:	41678a33          	sub	s4,a5,s6
80001f24:	03679e63          	bne	a5,s6,80001f60 <__moddi3+0x3b0>
80001f28:	0196e463          	bltu	a3,s9,80001f30 <__moddi3+0x380>
80001f2c:	00cbea63          	bltu	s7,a2,80001f40 <__moddi3+0x390>
80001f30:	40cb8433          	sub	s0,s7,a2
80001f34:	40dc86b3          	sub	a3,s9,a3
80001f38:	008bbbb3          	sltu	s7,s7,s0
80001f3c:	41768933          	sub	s2,a3,s7
80001f40:	00040513          	mv	a0,s0
80001f44:	00090593          	mv	a1,s2
80001f48:	dedff06f          	j	80001d34 <__moddi3+0x184>
80001f4c:	010007b7          	lui	a5,0x1000
80001f50:	01000513          	li	a0,16
80001f54:	faf6e8e3          	bltu	a3,a5,80001f04 <__moddi3+0x354>
80001f58:	01800513          	li	a0,24
80001f5c:	fa9ff06f          	j	80001f04 <__moddi3+0x354>
80001f60:	016657b3          	srl	a5,a2,s6
80001f64:	014696b3          	sll	a3,a3,s4
80001f68:	00d7ed33          	or	s10,a5,a3
80001f6c:	016cd433          	srl	s0,s9,s6
80001f70:	010d5c13          	srli	s8,s10,0x10
80001f74:	014c96b3          	sll	a3,s9,s4
80001f78:	016bd933          	srl	s2,s7,s6
80001f7c:	000c0593          	mv	a1,s8
80001f80:	00040513          	mv	a0,s0
80001f84:	00d96933          	or	s2,s2,a3
80001f88:	01461db3          	sll	s11,a2,s4
80001f8c:	4d1000ef          	jal	ra,80002c5c <__umodsi3>
80001f90:	00050a93          	mv	s5,a0
80001f94:	000c0593          	mv	a1,s8
80001f98:	00040513          	mv	a0,s0
80001f9c:	010d1c93          	slli	s9,s10,0x10
80001fa0:	475000ef          	jal	ra,80002c14 <__udivsi3>
80001fa4:	010cdc93          	srli	s9,s9,0x10
80001fa8:	00050413          	mv	s0,a0
80001fac:	00050593          	mv	a1,a0
80001fb0:	000c8513          	mv	a0,s9
80001fb4:	435000ef          	jal	ra,80002be8 <__mulsi3>
80001fb8:	010a9a93          	slli	s5,s5,0x10
80001fbc:	01095713          	srli	a4,s2,0x10
80001fc0:	00eae733          	or	a4,s5,a4
80001fc4:	014b9bb3          	sll	s7,s7,s4
80001fc8:	00040a93          	mv	s5,s0
80001fcc:	00a77e63          	bgeu	a4,a0,80001fe8 <__moddi3+0x438>
80001fd0:	01a70733          	add	a4,a4,s10
80001fd4:	fff40a93          	addi	s5,s0,-1
80001fd8:	01a76863          	bltu	a4,s10,80001fe8 <__moddi3+0x438>
80001fdc:	00a77663          	bgeu	a4,a0,80001fe8 <__moddi3+0x438>
80001fe0:	ffe40a93          	addi	s5,s0,-2
80001fe4:	01a70733          	add	a4,a4,s10
80001fe8:	40a709b3          	sub	s3,a4,a0
80001fec:	000c0593          	mv	a1,s8
80001ff0:	00098513          	mv	a0,s3
80001ff4:	469000ef          	jal	ra,80002c5c <__umodsi3>
80001ff8:	00050413          	mv	s0,a0
80001ffc:	000c0593          	mv	a1,s8
80002000:	00098513          	mv	a0,s3
80002004:	411000ef          	jal	ra,80002c14 <__udivsi3>
80002008:	00050993          	mv	s3,a0
8000200c:	00050593          	mv	a1,a0
80002010:	000c8513          	mv	a0,s9
80002014:	3d5000ef          	jal	ra,80002be8 <__mulsi3>
80002018:	01091693          	slli	a3,s2,0x10
8000201c:	01041413          	slli	s0,s0,0x10
80002020:	0106d693          	srli	a3,a3,0x10
80002024:	00d466b3          	or	a3,s0,a3
80002028:	00098793          	mv	a5,s3
8000202c:	00a6fe63          	bgeu	a3,a0,80002048 <__moddi3+0x498>
80002030:	01a686b3          	add	a3,a3,s10
80002034:	fff98793          	addi	a5,s3,-1
80002038:	01a6e863          	bltu	a3,s10,80002048 <__moddi3+0x498>
8000203c:	00a6f663          	bgeu	a3,a0,80002048 <__moddi3+0x498>
80002040:	ffe98793          	addi	a5,s3,-2
80002044:	01a686b3          	add	a3,a3,s10
80002048:	00010337          	lui	t1,0x10
8000204c:	010a9a93          	slli	s5,s5,0x10
80002050:	00faeab3          	or	s5,s5,a5
80002054:	fff30813          	addi	a6,t1,-1 # ffff <buflen.2941+0xffbf>
80002058:	010af733          	and	a4,s5,a6
8000205c:	010df833          	and	a6,s11,a6
80002060:	40a68933          	sub	s2,a3,a0
80002064:	010ada93          	srli	s5,s5,0x10
80002068:	010dd893          	srli	a7,s11,0x10
8000206c:	00070513          	mv	a0,a4
80002070:	00080593          	mv	a1,a6
80002074:	375000ef          	jal	ra,80002be8 <__mulsi3>
80002078:	00050793          	mv	a5,a0
8000207c:	00088593          	mv	a1,a7
80002080:	00070513          	mv	a0,a4
80002084:	365000ef          	jal	ra,80002be8 <__mulsi3>
80002088:	00050713          	mv	a4,a0
8000208c:	00080593          	mv	a1,a6
80002090:	000a8513          	mv	a0,s5
80002094:	355000ef          	jal	ra,80002be8 <__mulsi3>
80002098:	00050813          	mv	a6,a0
8000209c:	00088593          	mv	a1,a7
800020a0:	000a8513          	mv	a0,s5
800020a4:	345000ef          	jal	ra,80002be8 <__mulsi3>
800020a8:	01070733          	add	a4,a4,a6
800020ac:	0107d693          	srli	a3,a5,0x10
800020b0:	00d70733          	add	a4,a4,a3
800020b4:	01077463          	bgeu	a4,a6,800020bc <__moddi3+0x50c>
800020b8:	00650533          	add	a0,a0,t1
800020bc:	01075593          	srli	a1,a4,0x10
800020c0:	00a585b3          	add	a1,a1,a0
800020c4:	00010537          	lui	a0,0x10
800020c8:	fff50513          	addi	a0,a0,-1 # ffff <buflen.2941+0xffbf>
800020cc:	00a77733          	and	a4,a4,a0
800020d0:	01071713          	slli	a4,a4,0x10
800020d4:	00a7f7b3          	and	a5,a5,a0
800020d8:	00f707b3          	add	a5,a4,a5
800020dc:	00b96663          	bltu	s2,a1,800020e8 <__moddi3+0x538>
800020e0:	00b91e63          	bne	s2,a1,800020fc <__moddi3+0x54c>
800020e4:	00fbfc63          	bgeu	s7,a5,800020fc <__moddi3+0x54c>
800020e8:	41b78633          	sub	a2,a5,s11
800020ec:	00c7b7b3          	sltu	a5,a5,a2
800020f0:	01a787b3          	add	a5,a5,s10
800020f4:	40f585b3          	sub	a1,a1,a5
800020f8:	00060793          	mv	a5,a2
800020fc:	40fb87b3          	sub	a5,s7,a5
80002100:	00fbbbb3          	sltu	s7,s7,a5
80002104:	40b905b3          	sub	a1,s2,a1
80002108:	417585b3          	sub	a1,a1,s7
8000210c:	01659433          	sll	s0,a1,s6
80002110:	0147d7b3          	srl	a5,a5,s4
80002114:	00f46533          	or	a0,s0,a5
80002118:	0145d5b3          	srl	a1,a1,s4
8000211c:	c19ff06f          	j	80001d34 <__moddi3+0x184>

80002120 <__udivdi3>:
80002120:	fd010113          	addi	sp,sp,-48
80002124:	02812423          	sw	s0,40(sp)
80002128:	01712623          	sw	s7,12(sp)
8000212c:	02112623          	sw	ra,44(sp)
80002130:	02912223          	sw	s1,36(sp)
80002134:	03212023          	sw	s2,32(sp)
80002138:	01312e23          	sw	s3,28(sp)
8000213c:	01412c23          	sw	s4,24(sp)
80002140:	01512a23          	sw	s5,20(sp)
80002144:	01612823          	sw	s6,16(sp)
80002148:	01812423          	sw	s8,8(sp)
8000214c:	01912223          	sw	s9,4(sp)
80002150:	00050b93          	mv	s7,a0
80002154:	00058413          	mv	s0,a1
80002158:	38069c63          	bnez	a3,800024f0 <__udivdi3+0x3d0>
8000215c:	800034b7          	lui	s1,0x80003
80002160:	00060913          	mv	s2,a2
80002164:	00050a13          	mv	s4,a0
80002168:	f6c48493          	addi	s1,s1,-148 # 80002f6c <__global_pointer$+0xffffe7ec>
8000216c:	12c5f863          	bgeu	a1,a2,8000229c <__udivdi3+0x17c>
80002170:	000107b7          	lui	a5,0x10
80002174:	00058c13          	mv	s8,a1
80002178:	10f67863          	bgeu	a2,a5,80002288 <__udivdi3+0x168>
8000217c:	0ff00713          	li	a4,255
80002180:	00c73733          	sltu	a4,a4,a2
80002184:	00371713          	slli	a4,a4,0x3
80002188:	00e657b3          	srl	a5,a2,a4
8000218c:	00f484b3          	add	s1,s1,a5
80002190:	0004c683          	lbu	a3,0(s1)
80002194:	00e68733          	add	a4,a3,a4
80002198:	02000693          	li	a3,32
8000219c:	40e687b3          	sub	a5,a3,a4
800021a0:	00e68c63          	beq	a3,a4,800021b8 <__udivdi3+0x98>
800021a4:	00f41433          	sll	s0,s0,a5
800021a8:	00ebd733          	srl	a4,s7,a4
800021ac:	00f61933          	sll	s2,a2,a5
800021b0:	00876c33          	or	s8,a4,s0
800021b4:	00fb9a33          	sll	s4,s7,a5
800021b8:	01095b13          	srli	s6,s2,0x10
800021bc:	000b0593          	mv	a1,s6
800021c0:	000c0513          	mv	a0,s8
800021c4:	299000ef          	jal	ra,80002c5c <__umodsi3>
800021c8:	00050493          	mv	s1,a0
800021cc:	000b0593          	mv	a1,s6
800021d0:	01091a93          	slli	s5,s2,0x10
800021d4:	000c0513          	mv	a0,s8
800021d8:	23d000ef          	jal	ra,80002c14 <__udivsi3>
800021dc:	010ada93          	srli	s5,s5,0x10
800021e0:	00050413          	mv	s0,a0
800021e4:	00050593          	mv	a1,a0
800021e8:	000a8513          	mv	a0,s5
800021ec:	1fd000ef          	jal	ra,80002be8 <__mulsi3>
800021f0:	01049493          	slli	s1,s1,0x10
800021f4:	010a5713          	srli	a4,s4,0x10
800021f8:	00e4e733          	or	a4,s1,a4
800021fc:	00040993          	mv	s3,s0
80002200:	00a77e63          	bgeu	a4,a0,8000221c <__udivdi3+0xfc>
80002204:	01270733          	add	a4,a4,s2
80002208:	fff40993          	addi	s3,s0,-1
8000220c:	01276863          	bltu	a4,s2,8000221c <__udivdi3+0xfc>
80002210:	00a77663          	bgeu	a4,a0,8000221c <__udivdi3+0xfc>
80002214:	ffe40993          	addi	s3,s0,-2
80002218:	01270733          	add	a4,a4,s2
8000221c:	40a70433          	sub	s0,a4,a0
80002220:	000b0593          	mv	a1,s6
80002224:	00040513          	mv	a0,s0
80002228:	235000ef          	jal	ra,80002c5c <__umodsi3>
8000222c:	00050493          	mv	s1,a0
80002230:	000b0593          	mv	a1,s6
80002234:	00040513          	mv	a0,s0
80002238:	1dd000ef          	jal	ra,80002c14 <__udivsi3>
8000223c:	010a1a13          	slli	s4,s4,0x10
80002240:	00050413          	mv	s0,a0
80002244:	00050593          	mv	a1,a0
80002248:	01049493          	slli	s1,s1,0x10
8000224c:	000a8513          	mv	a0,s5
80002250:	010a5a13          	srli	s4,s4,0x10
80002254:	195000ef          	jal	ra,80002be8 <__mulsi3>
80002258:	0144ea33          	or	s4,s1,s4
8000225c:	00040613          	mv	a2,s0
80002260:	00aa7c63          	bgeu	s4,a0,80002278 <__udivdi3+0x158>
80002264:	01490a33          	add	s4,s2,s4
80002268:	fff40613          	addi	a2,s0,-1
8000226c:	012a6663          	bltu	s4,s2,80002278 <__udivdi3+0x158>
80002270:	00aa7463          	bgeu	s4,a0,80002278 <__udivdi3+0x158>
80002274:	ffe40613          	addi	a2,s0,-2
80002278:	01099793          	slli	a5,s3,0x10
8000227c:	00c7e7b3          	or	a5,a5,a2
80002280:	00000493          	li	s1,0
80002284:	1300006f          	j	800023b4 <__udivdi3+0x294>
80002288:	010007b7          	lui	a5,0x1000
8000228c:	01000713          	li	a4,16
80002290:	eef66ce3          	bltu	a2,a5,80002188 <__udivdi3+0x68>
80002294:	01800713          	li	a4,24
80002298:	ef1ff06f          	j	80002188 <__udivdi3+0x68>
8000229c:	00068993          	mv	s3,a3
800022a0:	00061a63          	bnez	a2,800022b4 <__udivdi3+0x194>
800022a4:	00000593          	li	a1,0
800022a8:	00100513          	li	a0,1
800022ac:	169000ef          	jal	ra,80002c14 <__udivsi3>
800022b0:	00050913          	mv	s2,a0
800022b4:	000107b7          	lui	a5,0x10
800022b8:	12f97c63          	bgeu	s2,a5,800023f0 <__udivdi3+0x2d0>
800022bc:	0ff00793          	li	a5,255
800022c0:	0127f463          	bgeu	a5,s2,800022c8 <__udivdi3+0x1a8>
800022c4:	00800993          	li	s3,8
800022c8:	013957b3          	srl	a5,s2,s3
800022cc:	00f484b3          	add	s1,s1,a5
800022d0:	0004c783          	lbu	a5,0(s1)
800022d4:	02000693          	li	a3,32
800022d8:	013787b3          	add	a5,a5,s3
800022dc:	40f68733          	sub	a4,a3,a5
800022e0:	12f69263          	bne	a3,a5,80002404 <__udivdi3+0x2e4>
800022e4:	41240433          	sub	s0,s0,s2
800022e8:	00100493          	li	s1,1
800022ec:	01095a93          	srli	s5,s2,0x10
800022f0:	000a8593          	mv	a1,s5
800022f4:	00040513          	mv	a0,s0
800022f8:	165000ef          	jal	ra,80002c5c <__umodsi3>
800022fc:	00050993          	mv	s3,a0
80002300:	000a8593          	mv	a1,s5
80002304:	00040513          	mv	a0,s0
80002308:	01091b13          	slli	s6,s2,0x10
8000230c:	109000ef          	jal	ra,80002c14 <__udivsi3>
80002310:	010b5b13          	srli	s6,s6,0x10
80002314:	00050413          	mv	s0,a0
80002318:	00050593          	mv	a1,a0
8000231c:	000b0513          	mv	a0,s6
80002320:	0c9000ef          	jal	ra,80002be8 <__mulsi3>
80002324:	01099993          	slli	s3,s3,0x10
80002328:	010a5713          	srli	a4,s4,0x10
8000232c:	00e9e733          	or	a4,s3,a4
80002330:	00040b93          	mv	s7,s0
80002334:	00a77e63          	bgeu	a4,a0,80002350 <__udivdi3+0x230>
80002338:	01270733          	add	a4,a4,s2
8000233c:	fff40b93          	addi	s7,s0,-1
80002340:	01276863          	bltu	a4,s2,80002350 <__udivdi3+0x230>
80002344:	00a77663          	bgeu	a4,a0,80002350 <__udivdi3+0x230>
80002348:	ffe40b93          	addi	s7,s0,-2
8000234c:	01270733          	add	a4,a4,s2
80002350:	40a70433          	sub	s0,a4,a0
80002354:	000a8593          	mv	a1,s5
80002358:	00040513          	mv	a0,s0
8000235c:	101000ef          	jal	ra,80002c5c <__umodsi3>
80002360:	00050993          	mv	s3,a0
80002364:	000a8593          	mv	a1,s5
80002368:	00040513          	mv	a0,s0
8000236c:	0a9000ef          	jal	ra,80002c14 <__udivsi3>
80002370:	010a1a13          	slli	s4,s4,0x10
80002374:	00050413          	mv	s0,a0
80002378:	00050593          	mv	a1,a0
8000237c:	01099993          	slli	s3,s3,0x10
80002380:	000b0513          	mv	a0,s6
80002384:	010a5a13          	srli	s4,s4,0x10
80002388:	061000ef          	jal	ra,80002be8 <__mulsi3>
8000238c:	0149ea33          	or	s4,s3,s4
80002390:	00040613          	mv	a2,s0
80002394:	00aa7c63          	bgeu	s4,a0,800023ac <__udivdi3+0x28c>
80002398:	01490a33          	add	s4,s2,s4
8000239c:	fff40613          	addi	a2,s0,-1
800023a0:	012a6663          	bltu	s4,s2,800023ac <__udivdi3+0x28c>
800023a4:	00aa7463          	bgeu	s4,a0,800023ac <__udivdi3+0x28c>
800023a8:	ffe40613          	addi	a2,s0,-2
800023ac:	010b9793          	slli	a5,s7,0x10
800023b0:	00c7e7b3          	or	a5,a5,a2
800023b4:	00078513          	mv	a0,a5
800023b8:	00048593          	mv	a1,s1
800023bc:	02c12083          	lw	ra,44(sp)
800023c0:	02812403          	lw	s0,40(sp)
800023c4:	02412483          	lw	s1,36(sp)
800023c8:	02012903          	lw	s2,32(sp)
800023cc:	01c12983          	lw	s3,28(sp)
800023d0:	01812a03          	lw	s4,24(sp)
800023d4:	01412a83          	lw	s5,20(sp)
800023d8:	01012b03          	lw	s6,16(sp)
800023dc:	00c12b83          	lw	s7,12(sp)
800023e0:	00812c03          	lw	s8,8(sp)
800023e4:	00412c83          	lw	s9,4(sp)
800023e8:	03010113          	addi	sp,sp,48
800023ec:	00008067          	ret
800023f0:	010007b7          	lui	a5,0x1000
800023f4:	01000993          	li	s3,16
800023f8:	ecf968e3          	bltu	s2,a5,800022c8 <__udivdi3+0x1a8>
800023fc:	01800993          	li	s3,24
80002400:	ec9ff06f          	j	800022c8 <__udivdi3+0x1a8>
80002404:	00e91933          	sll	s2,s2,a4
80002408:	00f459b3          	srl	s3,s0,a5
8000240c:	00fbd7b3          	srl	a5,s7,a5
80002410:	00e41433          	sll	s0,s0,a4
80002414:	0087eab3          	or	s5,a5,s0
80002418:	01095413          	srli	s0,s2,0x10
8000241c:	00040593          	mv	a1,s0
80002420:	00098513          	mv	a0,s3
80002424:	00eb9a33          	sll	s4,s7,a4
80002428:	035000ef          	jal	ra,80002c5c <__umodsi3>
8000242c:	00050493          	mv	s1,a0
80002430:	00040593          	mv	a1,s0
80002434:	00098513          	mv	a0,s3
80002438:	01091b13          	slli	s6,s2,0x10
8000243c:	7d8000ef          	jal	ra,80002c14 <__udivsi3>
80002440:	010b5b13          	srli	s6,s6,0x10
80002444:	00050993          	mv	s3,a0
80002448:	00050593          	mv	a1,a0
8000244c:	000b0513          	mv	a0,s6
80002450:	798000ef          	jal	ra,80002be8 <__mulsi3>
80002454:	01049493          	slli	s1,s1,0x10
80002458:	010ad793          	srli	a5,s5,0x10
8000245c:	00f4e7b3          	or	a5,s1,a5
80002460:	00098b93          	mv	s7,s3
80002464:	00a7fe63          	bgeu	a5,a0,80002480 <__udivdi3+0x360>
80002468:	012787b3          	add	a5,a5,s2
8000246c:	fff98b93          	addi	s7,s3,-1
80002470:	0127e863          	bltu	a5,s2,80002480 <__udivdi3+0x360>
80002474:	00a7f663          	bgeu	a5,a0,80002480 <__udivdi3+0x360>
80002478:	ffe98b93          	addi	s7,s3,-2
8000247c:	012787b3          	add	a5,a5,s2
80002480:	40a789b3          	sub	s3,a5,a0
80002484:	00040593          	mv	a1,s0
80002488:	00098513          	mv	a0,s3
8000248c:	7d0000ef          	jal	ra,80002c5c <__umodsi3>
80002490:	00040593          	mv	a1,s0
80002494:	00050493          	mv	s1,a0
80002498:	00098513          	mv	a0,s3
8000249c:	778000ef          	jal	ra,80002c14 <__udivsi3>
800024a0:	010a9413          	slli	s0,s5,0x10
800024a4:	00050993          	mv	s3,a0
800024a8:	00050593          	mv	a1,a0
800024ac:	01049493          	slli	s1,s1,0x10
800024b0:	000b0513          	mv	a0,s6
800024b4:	01045413          	srli	s0,s0,0x10
800024b8:	730000ef          	jal	ra,80002be8 <__mulsi3>
800024bc:	0084e433          	or	s0,s1,s0
800024c0:	00098793          	mv	a5,s3
800024c4:	00a47e63          	bgeu	s0,a0,800024e0 <__udivdi3+0x3c0>
800024c8:	01240433          	add	s0,s0,s2
800024cc:	fff98793          	addi	a5,s3,-1
800024d0:	01246863          	bltu	s0,s2,800024e0 <__udivdi3+0x3c0>
800024d4:	00a47663          	bgeu	s0,a0,800024e0 <__udivdi3+0x3c0>
800024d8:	ffe98793          	addi	a5,s3,-2
800024dc:	01240433          	add	s0,s0,s2
800024e0:	010b9493          	slli	s1,s7,0x10
800024e4:	40a40433          	sub	s0,s0,a0
800024e8:	00f4e4b3          	or	s1,s1,a5
800024ec:	e01ff06f          	j	800022ec <__udivdi3+0x1cc>
800024f0:	1ed5ee63          	bltu	a1,a3,800026ec <__udivdi3+0x5cc>
800024f4:	000107b7          	lui	a5,0x10
800024f8:	04f6f463          	bgeu	a3,a5,80002540 <__udivdi3+0x420>
800024fc:	0ff00a93          	li	s5,255
80002500:	00dab733          	sltu	a4,s5,a3
80002504:	00371713          	slli	a4,a4,0x3
80002508:	800037b7          	lui	a5,0x80003
8000250c:	00e6d5b3          	srl	a1,a3,a4
80002510:	f6c78793          	addi	a5,a5,-148 # 80002f6c <__global_pointer$+0xffffe7ec>
80002514:	00b787b3          	add	a5,a5,a1
80002518:	0007ca83          	lbu	s5,0(a5)
8000251c:	02000793          	li	a5,32
80002520:	00ea8ab3          	add	s5,s5,a4
80002524:	415784b3          	sub	s1,a5,s5
80002528:	03579663          	bne	a5,s5,80002554 <__udivdi3+0x434>
8000252c:	00100793          	li	a5,1
80002530:	e886e2e3          	bltu	a3,s0,800023b4 <__udivdi3+0x294>
80002534:	00cbb7b3          	sltu	a5,s7,a2
80002538:	0017c793          	xori	a5,a5,1
8000253c:	e79ff06f          	j	800023b4 <__udivdi3+0x294>
80002540:	010007b7          	lui	a5,0x1000
80002544:	01000713          	li	a4,16
80002548:	fcf6e0e3          	bltu	a3,a5,80002508 <__udivdi3+0x3e8>
8000254c:	01800713          	li	a4,24
80002550:	fb9ff06f          	j	80002508 <__udivdi3+0x3e8>
80002554:	01565cb3          	srl	s9,a2,s5
80002558:	009696b3          	sll	a3,a3,s1
8000255c:	00dcecb3          	or	s9,s9,a3
80002560:	015459b3          	srl	s3,s0,s5
80002564:	00941433          	sll	s0,s0,s1
80002568:	015bdab3          	srl	s5,s7,s5
8000256c:	008aeab3          	or	s5,s5,s0
80002570:	010cd413          	srli	s0,s9,0x10
80002574:	00040593          	mv	a1,s0
80002578:	00098513          	mv	a0,s3
8000257c:	00961933          	sll	s2,a2,s1
80002580:	6dc000ef          	jal	ra,80002c5c <__umodsi3>
80002584:	00050a13          	mv	s4,a0
80002588:	00040593          	mv	a1,s0
8000258c:	00098513          	mv	a0,s3
80002590:	010c9b13          	slli	s6,s9,0x10
80002594:	680000ef          	jal	ra,80002c14 <__udivsi3>
80002598:	010b5b13          	srli	s6,s6,0x10
8000259c:	00050993          	mv	s3,a0
800025a0:	00050593          	mv	a1,a0
800025a4:	000b0513          	mv	a0,s6
800025a8:	640000ef          	jal	ra,80002be8 <__mulsi3>
800025ac:	010a1a13          	slli	s4,s4,0x10
800025b0:	010ad713          	srli	a4,s5,0x10
800025b4:	00ea6733          	or	a4,s4,a4
800025b8:	00098c13          	mv	s8,s3
800025bc:	00a77e63          	bgeu	a4,a0,800025d8 <__udivdi3+0x4b8>
800025c0:	01970733          	add	a4,a4,s9
800025c4:	fff98c13          	addi	s8,s3,-1
800025c8:	01976863          	bltu	a4,s9,800025d8 <__udivdi3+0x4b8>
800025cc:	00a77663          	bgeu	a4,a0,800025d8 <__udivdi3+0x4b8>
800025d0:	ffe98c13          	addi	s8,s3,-2
800025d4:	01970733          	add	a4,a4,s9
800025d8:	40a709b3          	sub	s3,a4,a0
800025dc:	00040593          	mv	a1,s0
800025e0:	00098513          	mv	a0,s3
800025e4:	678000ef          	jal	ra,80002c5c <__umodsi3>
800025e8:	00040593          	mv	a1,s0
800025ec:	00050a13          	mv	s4,a0
800025f0:	00098513          	mv	a0,s3
800025f4:	620000ef          	jal	ra,80002c14 <__udivsi3>
800025f8:	010a9413          	slli	s0,s5,0x10
800025fc:	00050993          	mv	s3,a0
80002600:	00050593          	mv	a1,a0
80002604:	010a1a13          	slli	s4,s4,0x10
80002608:	000b0513          	mv	a0,s6
8000260c:	01045413          	srli	s0,s0,0x10
80002610:	5d8000ef          	jal	ra,80002be8 <__mulsi3>
80002614:	008a6433          	or	s0,s4,s0
80002618:	00098613          	mv	a2,s3
8000261c:	00a47e63          	bgeu	s0,a0,80002638 <__udivdi3+0x518>
80002620:	01940433          	add	s0,s0,s9
80002624:	fff98613          	addi	a2,s3,-1
80002628:	01946863          	bltu	s0,s9,80002638 <__udivdi3+0x518>
8000262c:	00a47663          	bgeu	s0,a0,80002638 <__udivdi3+0x518>
80002630:	ffe98613          	addi	a2,s3,-2
80002634:	01940433          	add	s0,s0,s9
80002638:	010c1793          	slli	a5,s8,0x10
8000263c:	00010e37          	lui	t3,0x10
80002640:	00c7e7b3          	or	a5,a5,a2
80002644:	fffe0313          	addi	t1,t3,-1 # ffff <buflen.2941+0xffbf>
80002648:	0067f8b3          	and	a7,a5,t1
8000264c:	00697333          	and	t1,s2,t1
80002650:	40a40433          	sub	s0,s0,a0
80002654:	0107de93          	srli	t4,a5,0x10
80002658:	01095913          	srli	s2,s2,0x10
8000265c:	00088513          	mv	a0,a7
80002660:	00030593          	mv	a1,t1
80002664:	584000ef          	jal	ra,80002be8 <__mulsi3>
80002668:	00050813          	mv	a6,a0
8000266c:	00090593          	mv	a1,s2
80002670:	00088513          	mv	a0,a7
80002674:	574000ef          	jal	ra,80002be8 <__mulsi3>
80002678:	00050893          	mv	a7,a0
8000267c:	00030593          	mv	a1,t1
80002680:	000e8513          	mv	a0,t4
80002684:	564000ef          	jal	ra,80002be8 <__mulsi3>
80002688:	00050313          	mv	t1,a0
8000268c:	00090593          	mv	a1,s2
80002690:	000e8513          	mv	a0,t4
80002694:	554000ef          	jal	ra,80002be8 <__mulsi3>
80002698:	01085713          	srli	a4,a6,0x10
8000269c:	006888b3          	add	a7,a7,t1
800026a0:	01170733          	add	a4,a4,a7
800026a4:	00050693          	mv	a3,a0
800026a8:	00677463          	bgeu	a4,t1,800026b0 <__udivdi3+0x590>
800026ac:	01c506b3          	add	a3,a0,t3
800026b0:	01075513          	srli	a0,a4,0x10
800026b4:	00d506b3          	add	a3,a0,a3
800026b8:	02d46663          	bltu	s0,a3,800026e4 <__udivdi3+0x5c4>
800026bc:	bcd412e3          	bne	s0,a3,80002280 <__udivdi3+0x160>
800026c0:	00010537          	lui	a0,0x10
800026c4:	fff50513          	addi	a0,a0,-1 # ffff <buflen.2941+0xffbf>
800026c8:	00a77733          	and	a4,a4,a0
800026cc:	01071713          	slli	a4,a4,0x10
800026d0:	00a87833          	and	a6,a6,a0
800026d4:	009b9bb3          	sll	s7,s7,s1
800026d8:	01070733          	add	a4,a4,a6
800026dc:	00000493          	li	s1,0
800026e0:	ccebfae3          	bgeu	s7,a4,800023b4 <__udivdi3+0x294>
800026e4:	fff78793          	addi	a5,a5,-1 # ffffff <buflen.2941+0xffffbf>
800026e8:	b99ff06f          	j	80002280 <__udivdi3+0x160>
800026ec:	00000493          	li	s1,0
800026f0:	00000793          	li	a5,0
800026f4:	cc1ff06f          	j	800023b4 <__udivdi3+0x294>

800026f8 <__umoddi3>:
800026f8:	fd010113          	addi	sp,sp,-48
800026fc:	02812423          	sw	s0,40(sp)
80002700:	02912223          	sw	s1,36(sp)
80002704:	03212023          	sw	s2,32(sp)
80002708:	01612823          	sw	s6,16(sp)
8000270c:	02112623          	sw	ra,44(sp)
80002710:	01312e23          	sw	s3,28(sp)
80002714:	01412c23          	sw	s4,24(sp)
80002718:	01512a23          	sw	s5,20(sp)
8000271c:	01712623          	sw	s7,12(sp)
80002720:	01812423          	sw	s8,8(sp)
80002724:	01912223          	sw	s9,4(sp)
80002728:	01a12023          	sw	s10,0(sp)
8000272c:	00050913          	mv	s2,a0
80002730:	00058b13          	mv	s6,a1
80002734:	00050413          	mv	s0,a0
80002738:	00058493          	mv	s1,a1
8000273c:	26069c63          	bnez	a3,800029b4 <__umoddi3+0x2bc>
80002740:	80003ab7          	lui	s5,0x80003
80002744:	00060a13          	mv	s4,a2
80002748:	00068993          	mv	s3,a3
8000274c:	f6ca8a93          	addi	s5,s5,-148 # 80002f6c <__global_pointer$+0xffffe7ec>
80002750:	14c5f263          	bgeu	a1,a2,80002894 <__umoddi3+0x19c>
80002754:	000107b7          	lui	a5,0x10
80002758:	12f67463          	bgeu	a2,a5,80002880 <__umoddi3+0x188>
8000275c:	0ff00793          	li	a5,255
80002760:	00c7f463          	bgeu	a5,a2,80002768 <__umoddi3+0x70>
80002764:	00800993          	li	s3,8
80002768:	013657b3          	srl	a5,a2,s3
8000276c:	00fa8ab3          	add	s5,s5,a5
80002770:	000ac783          	lbu	a5,0(s5)
80002774:	02000713          	li	a4,32
80002778:	013787b3          	add	a5,a5,s3
8000277c:	40f709b3          	sub	s3,a4,a5
80002780:	00f70c63          	beq	a4,a5,80002798 <__umoddi3+0xa0>
80002784:	013b15b3          	sll	a1,s6,s3
80002788:	00f957b3          	srl	a5,s2,a5
8000278c:	01361a33          	sll	s4,a2,s3
80002790:	00b7e4b3          	or	s1,a5,a1
80002794:	01391433          	sll	s0,s2,s3
80002798:	010a5a93          	srli	s5,s4,0x10
8000279c:	000a8593          	mv	a1,s5
800027a0:	00048513          	mv	a0,s1
800027a4:	4b8000ef          	jal	ra,80002c5c <__umodsi3>
800027a8:	00050913          	mv	s2,a0
800027ac:	000a8593          	mv	a1,s5
800027b0:	010a1b13          	slli	s6,s4,0x10
800027b4:	00048513          	mv	a0,s1
800027b8:	45c000ef          	jal	ra,80002c14 <__udivsi3>
800027bc:	010b5b13          	srli	s6,s6,0x10
800027c0:	00050593          	mv	a1,a0
800027c4:	000b0513          	mv	a0,s6
800027c8:	420000ef          	jal	ra,80002be8 <__mulsi3>
800027cc:	01091913          	slli	s2,s2,0x10
800027d0:	01045793          	srli	a5,s0,0x10
800027d4:	00f967b3          	or	a5,s2,a5
800027d8:	00a7fa63          	bgeu	a5,a0,800027ec <__umoddi3+0xf4>
800027dc:	014787b3          	add	a5,a5,s4
800027e0:	0147e663          	bltu	a5,s4,800027ec <__umoddi3+0xf4>
800027e4:	00a7f463          	bgeu	a5,a0,800027ec <__umoddi3+0xf4>
800027e8:	014787b3          	add	a5,a5,s4
800027ec:	40a784b3          	sub	s1,a5,a0
800027f0:	000a8593          	mv	a1,s5
800027f4:	00048513          	mv	a0,s1
800027f8:	464000ef          	jal	ra,80002c5c <__umodsi3>
800027fc:	00050913          	mv	s2,a0
80002800:	000a8593          	mv	a1,s5
80002804:	00048513          	mv	a0,s1
80002808:	40c000ef          	jal	ra,80002c14 <__udivsi3>
8000280c:	01041413          	slli	s0,s0,0x10
80002810:	00050593          	mv	a1,a0
80002814:	01091913          	slli	s2,s2,0x10
80002818:	000b0513          	mv	a0,s6
8000281c:	01045413          	srli	s0,s0,0x10
80002820:	3c8000ef          	jal	ra,80002be8 <__mulsi3>
80002824:	00896433          	or	s0,s2,s0
80002828:	00a47a63          	bgeu	s0,a0,8000283c <__umoddi3+0x144>
8000282c:	01440433          	add	s0,s0,s4
80002830:	01446663          	bltu	s0,s4,8000283c <__umoddi3+0x144>
80002834:	00a47463          	bgeu	s0,a0,8000283c <__umoddi3+0x144>
80002838:	01440433          	add	s0,s0,s4
8000283c:	40a40433          	sub	s0,s0,a0
80002840:	01345533          	srl	a0,s0,s3
80002844:	00000593          	li	a1,0
80002848:	02c12083          	lw	ra,44(sp)
8000284c:	02812403          	lw	s0,40(sp)
80002850:	02412483          	lw	s1,36(sp)
80002854:	02012903          	lw	s2,32(sp)
80002858:	01c12983          	lw	s3,28(sp)
8000285c:	01812a03          	lw	s4,24(sp)
80002860:	01412a83          	lw	s5,20(sp)
80002864:	01012b03          	lw	s6,16(sp)
80002868:	00c12b83          	lw	s7,12(sp)
8000286c:	00812c03          	lw	s8,8(sp)
80002870:	00412c83          	lw	s9,4(sp)
80002874:	00012d03          	lw	s10,0(sp)
80002878:	03010113          	addi	sp,sp,48
8000287c:	00008067          	ret
80002880:	010007b7          	lui	a5,0x1000
80002884:	01000993          	li	s3,16
80002888:	eef660e3          	bltu	a2,a5,80002768 <__umoddi3+0x70>
8000288c:	01800993          	li	s3,24
80002890:	ed9ff06f          	j	80002768 <__umoddi3+0x70>
80002894:	00061a63          	bnez	a2,800028a8 <__umoddi3+0x1b0>
80002898:	00000593          	li	a1,0
8000289c:	00100513          	li	a0,1
800028a0:	374000ef          	jal	ra,80002c14 <__udivsi3>
800028a4:	00050a13          	mv	s4,a0
800028a8:	000107b7          	lui	a5,0x10
800028ac:	0efa7a63          	bgeu	s4,a5,800029a0 <__umoddi3+0x2a8>
800028b0:	0ff00793          	li	a5,255
800028b4:	0147f463          	bgeu	a5,s4,800028bc <__umoddi3+0x1c4>
800028b8:	00800993          	li	s3,8
800028bc:	013a57b3          	srl	a5,s4,s3
800028c0:	00fa8ab3          	add	s5,s5,a5
800028c4:	000ac783          	lbu	a5,0(s5)
800028c8:	02000713          	li	a4,32
800028cc:	414b04b3          	sub	s1,s6,s4
800028d0:	013787b3          	add	a5,a5,s3
800028d4:	40f709b3          	sub	s3,a4,a5
800028d8:	ecf700e3          	beq	a4,a5,80002798 <__umoddi3+0xa0>
800028dc:	013a1a33          	sll	s4,s4,s3
800028e0:	00fb5ab3          	srl	s5,s6,a5
800028e4:	013b15b3          	sll	a1,s6,s3
800028e8:	00f957b3          	srl	a5,s2,a5
800028ec:	010a5493          	srli	s1,s4,0x10
800028f0:	00b7eb33          	or	s6,a5,a1
800028f4:	000a8513          	mv	a0,s5
800028f8:	00048593          	mv	a1,s1
800028fc:	360000ef          	jal	ra,80002c5c <__umodsi3>
80002900:	00048593          	mv	a1,s1
80002904:	01391433          	sll	s0,s2,s3
80002908:	010a1b93          	slli	s7,s4,0x10
8000290c:	00050913          	mv	s2,a0
80002910:	000a8513          	mv	a0,s5
80002914:	300000ef          	jal	ra,80002c14 <__udivsi3>
80002918:	010bdb93          	srli	s7,s7,0x10
8000291c:	00050593          	mv	a1,a0
80002920:	000b8513          	mv	a0,s7
80002924:	2c4000ef          	jal	ra,80002be8 <__mulsi3>
80002928:	01091913          	slli	s2,s2,0x10
8000292c:	010b5793          	srli	a5,s6,0x10
80002930:	00f967b3          	or	a5,s2,a5
80002934:	00a7fa63          	bgeu	a5,a0,80002948 <__umoddi3+0x250>
80002938:	014787b3          	add	a5,a5,s4
8000293c:	0147e663          	bltu	a5,s4,80002948 <__umoddi3+0x250>
80002940:	00a7f463          	bgeu	a5,a0,80002948 <__umoddi3+0x250>
80002944:	014787b3          	add	a5,a5,s4
80002948:	40a78ab3          	sub	s5,a5,a0
8000294c:	00048593          	mv	a1,s1
80002950:	000a8513          	mv	a0,s5
80002954:	308000ef          	jal	ra,80002c5c <__umodsi3>
80002958:	00050913          	mv	s2,a0
8000295c:	00048593          	mv	a1,s1
80002960:	000a8513          	mv	a0,s5
80002964:	2b0000ef          	jal	ra,80002c14 <__udivsi3>
80002968:	00050593          	mv	a1,a0
8000296c:	000b8513          	mv	a0,s7
80002970:	278000ef          	jal	ra,80002be8 <__mulsi3>
80002974:	010b1593          	slli	a1,s6,0x10
80002978:	01091913          	slli	s2,s2,0x10
8000297c:	0105d593          	srli	a1,a1,0x10
80002980:	00b965b3          	or	a1,s2,a1
80002984:	00a5fa63          	bgeu	a1,a0,80002998 <__umoddi3+0x2a0>
80002988:	014585b3          	add	a1,a1,s4
8000298c:	0145e663          	bltu	a1,s4,80002998 <__umoddi3+0x2a0>
80002990:	00a5f463          	bgeu	a1,a0,80002998 <__umoddi3+0x2a0>
80002994:	014585b3          	add	a1,a1,s4
80002998:	40a584b3          	sub	s1,a1,a0
8000299c:	dfdff06f          	j	80002798 <__umoddi3+0xa0>
800029a0:	010007b7          	lui	a5,0x1000
800029a4:	01000993          	li	s3,16
800029a8:	f0fa6ae3          	bltu	s4,a5,800028bc <__umoddi3+0x1c4>
800029ac:	01800993          	li	s3,24
800029b0:	f0dff06f          	j	800028bc <__umoddi3+0x1c4>
800029b4:	e8d5eae3          	bltu	a1,a3,80002848 <__umoddi3+0x150>
800029b8:	000107b7          	lui	a5,0x10
800029bc:	04f6fc63          	bgeu	a3,a5,80002a14 <__umoddi3+0x31c>
800029c0:	0ff00a93          	li	s5,255
800029c4:	00dab533          	sltu	a0,s5,a3
800029c8:	00351513          	slli	a0,a0,0x3
800029cc:	800037b7          	lui	a5,0x80003
800029d0:	00a6d733          	srl	a4,a3,a0
800029d4:	f6c78793          	addi	a5,a5,-148 # 80002f6c <__global_pointer$+0xffffe7ec>
800029d8:	00e787b3          	add	a5,a5,a4
800029dc:	0007ca83          	lbu	s5,0(a5)
800029e0:	02000793          	li	a5,32
800029e4:	00aa8ab3          	add	s5,s5,a0
800029e8:	41578a33          	sub	s4,a5,s5
800029ec:	03579e63          	bne	a5,s5,80002a28 <__umoddi3+0x330>
800029f0:	0166e463          	bltu	a3,s6,800029f8 <__umoddi3+0x300>
800029f4:	00c96a63          	bltu	s2,a2,80002a08 <__umoddi3+0x310>
800029f8:	40c90433          	sub	s0,s2,a2
800029fc:	40db05b3          	sub	a1,s6,a3
80002a00:	008934b3          	sltu	s1,s2,s0
80002a04:	409584b3          	sub	s1,a1,s1
80002a08:	00040513          	mv	a0,s0
80002a0c:	00048593          	mv	a1,s1
80002a10:	e39ff06f          	j	80002848 <__umoddi3+0x150>
80002a14:	010007b7          	lui	a5,0x1000
80002a18:	01000513          	li	a0,16
80002a1c:	faf6e8e3          	bltu	a3,a5,800029cc <__umoddi3+0x2d4>
80002a20:	01800513          	li	a0,24
80002a24:	fa9ff06f          	j	800029cc <__umoddi3+0x2d4>
80002a28:	014696b3          	sll	a3,a3,s4
80002a2c:	015657b3          	srl	a5,a2,s5
80002a30:	00d7ecb3          	or	s9,a5,a3
80002a34:	015b5433          	srl	s0,s6,s5
80002a38:	014b15b3          	sll	a1,s6,s4
80002a3c:	010cdb93          	srli	s7,s9,0x10
80002a40:	01595b33          	srl	s6,s2,s5
80002a44:	00bb6b33          	or	s6,s6,a1
80002a48:	00040513          	mv	a0,s0
80002a4c:	000b8593          	mv	a1,s7
80002a50:	01461d33          	sll	s10,a2,s4
80002a54:	208000ef          	jal	ra,80002c5c <__umodsi3>
80002a58:	00050993          	mv	s3,a0
80002a5c:	000b8593          	mv	a1,s7
80002a60:	00040513          	mv	a0,s0
80002a64:	010c9c13          	slli	s8,s9,0x10
80002a68:	1ac000ef          	jal	ra,80002c14 <__udivsi3>
80002a6c:	010c5c13          	srli	s8,s8,0x10
80002a70:	00050593          	mv	a1,a0
80002a74:	014914b3          	sll	s1,s2,s4
80002a78:	00050913          	mv	s2,a0
80002a7c:	000c0513          	mv	a0,s8
80002a80:	168000ef          	jal	ra,80002be8 <__mulsi3>
80002a84:	01099993          	slli	s3,s3,0x10
80002a88:	010b5713          	srli	a4,s6,0x10
80002a8c:	00e9e733          	or	a4,s3,a4
80002a90:	00090413          	mv	s0,s2
80002a94:	00a77e63          	bgeu	a4,a0,80002ab0 <__umoddi3+0x3b8>
80002a98:	01970733          	add	a4,a4,s9
80002a9c:	fff90413          	addi	s0,s2,-1
80002aa0:	01976863          	bltu	a4,s9,80002ab0 <__umoddi3+0x3b8>
80002aa4:	00a77663          	bgeu	a4,a0,80002ab0 <__umoddi3+0x3b8>
80002aa8:	ffe90413          	addi	s0,s2,-2
80002aac:	01970733          	add	a4,a4,s9
80002ab0:	40a70933          	sub	s2,a4,a0
80002ab4:	000b8593          	mv	a1,s7
80002ab8:	00090513          	mv	a0,s2
80002abc:	1a0000ef          	jal	ra,80002c5c <__umodsi3>
80002ac0:	00050993          	mv	s3,a0
80002ac4:	000b8593          	mv	a1,s7
80002ac8:	00090513          	mv	a0,s2
80002acc:	148000ef          	jal	ra,80002c14 <__udivsi3>
80002ad0:	00050913          	mv	s2,a0
80002ad4:	00050593          	mv	a1,a0
80002ad8:	000c0513          	mv	a0,s8
80002adc:	10c000ef          	jal	ra,80002be8 <__mulsi3>
80002ae0:	010b1713          	slli	a4,s6,0x10
80002ae4:	01099993          	slli	s3,s3,0x10
80002ae8:	01075713          	srli	a4,a4,0x10
80002aec:	00e9e733          	or	a4,s3,a4
80002af0:	00090793          	mv	a5,s2
80002af4:	00a77e63          	bgeu	a4,a0,80002b10 <__umoddi3+0x418>
80002af8:	01970733          	add	a4,a4,s9
80002afc:	fff90793          	addi	a5,s2,-1
80002b00:	01976863          	bltu	a4,s9,80002b10 <__umoddi3+0x418>
80002b04:	00a77663          	bgeu	a4,a0,80002b10 <__umoddi3+0x418>
80002b08:	ffe90793          	addi	a5,s2,-2
80002b0c:	01970733          	add	a4,a4,s9
80002b10:	00010eb7          	lui	t4,0x10
80002b14:	01041413          	slli	s0,s0,0x10
80002b18:	40a70833          	sub	a6,a4,a0
80002b1c:	00f46433          	or	s0,s0,a5
80002b20:	fffe8713          	addi	a4,t4,-1 # ffff <buflen.2941+0xffbf>
80002b24:	00e478b3          	and	a7,s0,a4
80002b28:	00ed7733          	and	a4,s10,a4
80002b2c:	01045413          	srli	s0,s0,0x10
80002b30:	010d5e13          	srli	t3,s10,0x10
80002b34:	00088513          	mv	a0,a7
80002b38:	00070593          	mv	a1,a4
80002b3c:	0ac000ef          	jal	ra,80002be8 <__mulsi3>
80002b40:	00050793          	mv	a5,a0
80002b44:	000e0593          	mv	a1,t3
80002b48:	00088513          	mv	a0,a7
80002b4c:	09c000ef          	jal	ra,80002be8 <__mulsi3>
80002b50:	00050893          	mv	a7,a0
80002b54:	00070593          	mv	a1,a4
80002b58:	00040513          	mv	a0,s0
80002b5c:	08c000ef          	jal	ra,80002be8 <__mulsi3>
80002b60:	00050313          	mv	t1,a0
80002b64:	000e0593          	mv	a1,t3
80002b68:	00040513          	mv	a0,s0
80002b6c:	07c000ef          	jal	ra,80002be8 <__mulsi3>
80002b70:	0107d713          	srli	a4,a5,0x10
80002b74:	006888b3          	add	a7,a7,t1
80002b78:	01170733          	add	a4,a4,a7
80002b7c:	00677463          	bgeu	a4,t1,80002b84 <__umoddi3+0x48c>
80002b80:	01d50533          	add	a0,a0,t4
80002b84:	01075593          	srli	a1,a4,0x10
80002b88:	00a585b3          	add	a1,a1,a0
80002b8c:	00010537          	lui	a0,0x10
80002b90:	fff50513          	addi	a0,a0,-1 # ffff <buflen.2941+0xffbf>
80002b94:	00a77733          	and	a4,a4,a0
80002b98:	01071713          	slli	a4,a4,0x10
80002b9c:	00a7f7b3          	and	a5,a5,a0
80002ba0:	00f707b3          	add	a5,a4,a5
80002ba4:	00b86663          	bltu	a6,a1,80002bb0 <__umoddi3+0x4b8>
80002ba8:	00b81e63          	bne	a6,a1,80002bc4 <__umoddi3+0x4cc>
80002bac:	00f4fc63          	bgeu	s1,a5,80002bc4 <__umoddi3+0x4cc>
80002bb0:	41a78633          	sub	a2,a5,s10
80002bb4:	00c7b7b3          	sltu	a5,a5,a2
80002bb8:	019787b3          	add	a5,a5,s9
80002bbc:	40f585b3          	sub	a1,a1,a5
80002bc0:	00060793          	mv	a5,a2
80002bc4:	40f487b3          	sub	a5,s1,a5
80002bc8:	00f4b4b3          	sltu	s1,s1,a5
80002bcc:	40b805b3          	sub	a1,a6,a1
80002bd0:	409585b3          	sub	a1,a1,s1
80002bd4:	01559433          	sll	s0,a1,s5
80002bd8:	0147d7b3          	srl	a5,a5,s4
80002bdc:	00f46533          	or	a0,s0,a5
80002be0:	0145d5b3          	srl	a1,a1,s4
80002be4:	c65ff06f          	j	80002848 <__umoddi3+0x150>

80002be8 <__mulsi3>:
80002be8:	00050613          	mv	a2,a0
80002bec:	00000513          	li	a0,0
80002bf0:	0015f693          	andi	a3,a1,1
80002bf4:	00068463          	beqz	a3,80002bfc <__mulsi3+0x14>
80002bf8:	00c50533          	add	a0,a0,a2
80002bfc:	0015d593          	srli	a1,a1,0x1
80002c00:	00161613          	slli	a2,a2,0x1
80002c04:	fe0596e3          	bnez	a1,80002bf0 <__mulsi3+0x8>
80002c08:	00008067          	ret

80002c0c <__divsi3>:
80002c0c:	06054063          	bltz	a0,80002c6c <__umodsi3+0x10>
80002c10:	0605c663          	bltz	a1,80002c7c <__umodsi3+0x20>

80002c14 <__udivsi3>:
80002c14:	00058613          	mv	a2,a1
80002c18:	00050593          	mv	a1,a0
80002c1c:	fff00513          	li	a0,-1
80002c20:	02060c63          	beqz	a2,80002c58 <__udivsi3+0x44>
80002c24:	00100693          	li	a3,1
80002c28:	00b67a63          	bgeu	a2,a1,80002c3c <__udivsi3+0x28>
80002c2c:	00c05863          	blez	a2,80002c3c <__udivsi3+0x28>
80002c30:	00161613          	slli	a2,a2,0x1
80002c34:	00169693          	slli	a3,a3,0x1
80002c38:	feb66ae3          	bltu	a2,a1,80002c2c <__udivsi3+0x18>
80002c3c:	00000513          	li	a0,0
80002c40:	00c5e663          	bltu	a1,a2,80002c4c <__udivsi3+0x38>
80002c44:	40c585b3          	sub	a1,a1,a2
80002c48:	00d56533          	or	a0,a0,a3
80002c4c:	0016d693          	srli	a3,a3,0x1
80002c50:	00165613          	srli	a2,a2,0x1
80002c54:	fe0696e3          	bnez	a3,80002c40 <__udivsi3+0x2c>
80002c58:	00008067          	ret

80002c5c <__umodsi3>:
80002c5c:	00008293          	mv	t0,ra
80002c60:	fb5ff0ef          	jal	ra,80002c14 <__udivsi3>
80002c64:	00058513          	mv	a0,a1
80002c68:	00028067          	jr	t0
80002c6c:	40a00533          	neg	a0,a0
80002c70:	0005d863          	bgez	a1,80002c80 <__umodsi3+0x24>
80002c74:	40b005b3          	neg	a1,a1
80002c78:	f9dff06f          	j	80002c14 <__udivsi3>
80002c7c:	40b005b3          	neg	a1,a1
80002c80:	00008293          	mv	t0,ra
80002c84:	f91ff0ef          	jal	ra,80002c14 <__udivsi3>
80002c88:	40a00533          	neg	a0,a0
80002c8c:	00028067          	jr	t0

80002c90 <__modsi3>:
80002c90:	00008293          	mv	t0,ra
80002c94:	0005ca63          	bltz	a1,80002ca8 <__modsi3+0x18>
80002c98:	00054c63          	bltz	a0,80002cb0 <__modsi3+0x20>
80002c9c:	f79ff0ef          	jal	ra,80002c14 <__udivsi3>
80002ca0:	00058513          	mv	a0,a1
80002ca4:	00028067          	jr	t0
80002ca8:	40b005b3          	neg	a1,a1
80002cac:	fe0558e3          	bgez	a0,80002c9c <__modsi3+0xc>
80002cb0:	40a00533          	neg	a0,a0
80002cb4:	f61ff0ef          	jal	ra,80002c14 <__udivsi3>
80002cb8:	40b00533          	neg	a0,a1
80002cbc:	00028067          	jr	t0

Disassembly of section .text.startup:

80002cc0 <main>:
80002cc0:	b3010113          	addi	sp,sp,-1232
80002cc4:	4c812423          	sw	s0,1224(sp)
80002cc8:	4c912223          	sw	s1,1220(sp)
80002ccc:	4d212023          	sw	s2,1216(sp)
80002cd0:	00000497          	auipc	s1,0x0
80002cd4:	4a048493          	addi	s1,s1,1184 # 80003170 <input1_data>
80002cd8:	00001917          	auipc	s2,0x1
80002cdc:	94890913          	addi	s2,s2,-1720 # 80003620 <input2_data>
80002ce0:	00010413          	mv	s0,sp
80002ce4:	4b312e23          	sw	s3,1212(sp)
80002ce8:	4c112623          	sw	ra,1228(sp)
80002cec:	00090993          	mv	s3,s2
80002cf0:	00040613          	mv	a2,s0
80002cf4:	00090693          	mv	a3,s2
80002cf8:	00048793          	mv	a5,s1
80002cfc:	0007a703          	lw	a4,0(a5) # 1000000 <buflen.2941+0xffffc0>
80002d00:	0006a583          	lw	a1,0(a3)
80002d04:	00478793          	addi	a5,a5,4
80002d08:	00468693          	addi	a3,a3,4
80002d0c:	00b70733          	add	a4,a4,a1
80002d10:	00e62023          	sw	a4,0(a2)
80002d14:	00460613          	addi	a2,a2,4
80002d18:	ff3792e3          	bne	a5,s3,80002cfc <main+0x3c>
80002d1c:	00100513          	li	a0,1
80002d20:	96dfe0ef          	jal	ra,8000168c <setStats>
80002d24:	00040713          	mv	a4,s0
80002d28:	0004a783          	lw	a5,0(s1)
80002d2c:	00092683          	lw	a3,0(s2)
80002d30:	00448493          	addi	s1,s1,4
80002d34:	00490913          	addi	s2,s2,4
80002d38:	00d787b3          	add	a5,a5,a3
80002d3c:	00f72023          	sw	a5,0(a4)
80002d40:	00470713          	addi	a4,a4,4
80002d44:	ff3492e3          	bne	s1,s3,80002d28 <main+0x68>
80002d48:	00000513          	li	a0,0
80002d4c:	941fe0ef          	jal	ra,8000168c <setStats>
80002d50:	00001797          	auipc	a5,0x1
80002d54:	d8078793          	addi	a5,a5,-640 # 80003ad0 <verify_data>
80002d58:	00000513          	li	a0,0
80002d5c:	12c00813          	li	a6,300
80002d60:	00042683          	lw	a3,0(s0)
80002d64:	0007a703          	lw	a4,0(a5)
80002d68:	00442583          	lw	a1,4(s0)
80002d6c:	0047a603          	lw	a2,4(a5)
80002d70:	02e69c63          	bne	a3,a4,80002da8 <main+0xe8>
80002d74:	00250513          	addi	a0,a0,2
80002d78:	00c59a63          	bne	a1,a2,80002d8c <main+0xcc>
80002d7c:	00840413          	addi	s0,s0,8
80002d80:	00878793          	addi	a5,a5,8
80002d84:	fd051ee3          	bne	a0,a6,80002d60 <main+0xa0>
80002d88:	00000513          	li	a0,0
80002d8c:	4cc12083          	lw	ra,1228(sp)
80002d90:	4c812403          	lw	s0,1224(sp)
80002d94:	4c412483          	lw	s1,1220(sp)
80002d98:	4c012903          	lw	s2,1216(sp)
80002d9c:	4bc12983          	lw	s3,1212(sp)
80002da0:	4d010113          	addi	sp,sp,1232
80002da4:	00008067          	ret
80002da8:	00150513          	addi	a0,a0,1
80002dac:	fe1ff06f          	j	80002d8c <main+0xcc>
80002db0:	ff010113          	addi	sp,sp,-16
80002db4:	00000517          	auipc	a0,0x0
80002db8:	03c50513          	addi	a0,a0,60 # 80002df0 <main+0x130>
80002dbc:	00112623          	sw	ra,12(sp)
80002dc0:	989fe0ef          	jal	ra,80001748 <printstr>
80002dc4:	00c12083          	lw	ra,12(sp)
80002dc8:	fff00513          	li	a0,-1
80002dcc:	01010113          	addi	sp,sp,16
80002dd0:	00008067          	ret

Disassembly of section .data:

80003170 <input1_data>:
80003170:	0029                	c.nop	10
80003172:	0000                	unimp
80003174:	0341                	addi	t1,t1,16
80003176:	0000                	unimp
80003178:	0234                	addi	a3,sp,264
8000317a:	0000                	unimp
8000317c:	000000bb          	0xbb
80003180:	02ed                	addi	t0,t0,27
80003182:	0000                	unimp
80003184:	015e                	slli	sp,sp,0x17
80003186:	0000                	unimp
80003188:	0084                	addi	s1,sp,64
8000318a:	0000                	unimp
8000318c:	03b5                	addi	t2,t2,13
8000318e:	0000                	unimp
80003190:	0248                	addi	a0,sp,260
80003192:	0000                	unimp
80003194:	0325                	addi	t1,t1,9
80003196:	0000                	unimp
80003198:	026d                	addi	tp,tp,27
8000319a:	0000                	unimp
8000319c:	0006                	c.slli	zero,0x1
8000319e:	0000                	unimp
800031a0:	000003a3          	sb	zero,7(zero) # 7 <buf.2940+0x7>
800031a4:	037a                	slli	t1,t1,0x1e
800031a6:	0000                	unimp
800031a8:	0188                	addi	a0,sp,192
800031aa:	0000                	unimp
800031ac:	02b6                	slli	t0,t0,0xd
800031ae:	0000                	unimp
800031b0:	03c1                	addi	t2,t2,16
800031b2:	0000                	unimp
800031b4:	006e                	c.slli	zero,0x1b
800031b6:	0000                	unimp
800031b8:	0074                	addi	a3,sp,12
800031ba:	0000                	unimp
800031bc:	0128                	addi	a0,sp,136
800031be:	0000                	unimp
800031c0:	01aa                	slli	gp,gp,0xa
800031c2:	0000                	unimp
800031c4:	013a                	slli	sp,sp,0xe
800031c6:	0000                	unimp
800031c8:	00000293          	li	t0,0
800031cc:	0306                	slli	t1,t1,0x1
800031ce:	0000                	unimp
800031d0:	0000013f 000002a6 	0x2a60000013f
800031d8:	0000036b          	0x36b
800031dc:	0178                	addi	a4,sp,140
800031de:	0000                	unimp
800031e0:	01da                	slli	gp,gp,0x16
800031e2:	0000                	unimp
800031e4:	03aa                	slli	t2,t2,0xa
800031e6:	0000                	unimp
800031e8:	0000021b          	0x21b
800031ec:	0239                	addi	tp,tp,14
800031ee:	0000                	unimp
800031f0:	000000cb          	fnmsub.s	ft1,ft0,ft0,ft0,rne
800031f4:	0118                	addi	a4,sp,128
800031f6:	0000                	unimp
800031f8:	000002f7          	0x2f7
800031fc:	025e                	slli	tp,tp,0x17
800031fe:	0000                	unimp
80003200:	01ff                	0x1ff
80003202:	0000                	unimp
80003204:	0291                	addi	t0,t0,4
80003206:	0000                	unimp
80003208:	000000c3          	fmadd.s	ft1,ft0,ft0,ft0,rne
8000320c:	0051                	c.nop	20
8000320e:	0000                	unimp
80003210:	0000010b          	0x10b
80003214:	00e5                	addi	ra,ra,25
80003216:	0000                	unimp
80003218:	0151                	addi	sp,sp,20
8000321a:	0000                	unimp
8000321c:	03b0                	addi	a2,sp,456
8000321e:	0000                	unimp
80003220:	0386                	slli	t2,t2,0x1
80003222:	0000                	unimp
80003224:	00f1                	addi	ra,ra,28
80003226:	0000                	unimp
80003228:	0391                	addi	t2,t2,4
8000322a:	0000                	unimp
8000322c:	033a                	slli	t1,t1,0xe
8000322e:	0000                	unimp
80003230:	03a5                	addi	t2,t2,9
80003232:	0000                	unimp
80003234:	03d9                	addi	t2,t2,22
80003236:	0000                	unimp
80003238:	000000c3          	fmadd.s	ft1,ft0,ft0,ft0,rne
8000323c:	03c0                	addi	s0,sp,452
8000323e:	0000                	unimp
80003240:	0236                	slli	tp,tp,0xd
80003242:	0000                	unimp
80003244:	015e                	slli	sp,sp,0x17
80003246:	0000                	unimp
80003248:	0289                	addi	t0,t0,2
8000324a:	0000                	unimp
8000324c:	0291                	addi	t0,t0,4
8000324e:	0000                	unimp
80003250:	00b5                	addi	ra,ra,13
80003252:	0000                	unimp
80003254:	0000006f          	j	80003254 <input1_data+0xe4>
80003258:	0000035b          	0x35b
8000325c:	0041                	c.nop	16
8000325e:	0000                	unimp
80003260:	0120                	addi	s0,sp,136
80003262:	0000                	unimp
80003264:	015d                	addi	sp,sp,23
80003266:	0000                	unimp
80003268:	008d                	addi	ra,ra,3
8000326a:	0000                	unimp
8000326c:	0389                	addi	t2,t2,2
8000326e:	0000                	unimp
80003270:	0376                	slli	t1,t1,0x1d
80003272:	0000                	unimp
80003274:	0108                	addi	a0,sp,128
80003276:	0000                	unimp
80003278:	0240                	addi	s0,sp,260
8000327a:	0000                	unimp
8000327c:	000003d3          	fadd.s	ft7,ft0,ft0,rne
80003280:	02f9                	addi	t0,t0,30
80003282:	0000                	unimp
80003284:	00f1                	addi	ra,ra,28
80003286:	0000                	unimp
80003288:	01de                	slli	gp,gp,0x17
8000328a:	0000                	unimp
8000328c:	000001f3          	0x1f3
80003290:	00000193          	li	gp,0
80003294:	00de                	slli	ra,ra,0x17
80003296:	0000                	unimp
80003298:	01bc                	addi	a5,sp,200
8000329a:	0000                	unimp
8000329c:	02d1                	addi	t0,t0,20
8000329e:	0000                	unimp
800032a0:	02a4                	addi	s1,sp,328
800032a2:	0000                	unimp
800032a4:	013d                	addi	sp,sp,15
800032a6:	0000                	unimp
800032a8:	00e0                	addi	s0,sp,76
800032aa:	0000                	unimp
800032ac:	03a9                	addi	t2,t2,10
800032ae:	0000                	unimp
800032b0:	0120                	addi	s0,sp,136
800032b2:	0000                	unimp
800032b4:	00000077          	0x77
800032b8:	00000267          	jalr	tp,zero # 0 <buf.2940>
800032bc:	025e                	slli	tp,tp,0x17
800032be:	0000                	unimp
800032c0:	0185                	addi	gp,gp,1
800032c2:	0000                	unimp
800032c4:	015f 0000 01c7      	0x1c70000015f
800032ca:	0000                	unimp
800032cc:	0116                	slli	sp,sp,0x5
800032ce:	0000                	unimp
800032d0:	0000016f          	jal	sp,800032d0 <input1_data+0x160>
800032d4:	0166                	slli	sp,sp,0x19
800032d6:	0000                	unimp
800032d8:	0248                	addi	a0,sp,260
800032da:	0000                	unimp
800032dc:	003e                	c.slli	zero,0xf
800032de:	0000                	unimp
800032e0:	03d9                	addi	t2,t2,22
800032e2:	0000                	unimp
800032e4:	00000193          	li	gp,0
800032e8:	015a                	slli	sp,sp,0x16
800032ea:	0000                	unimp
800032ec:	0205                	addi	tp,tp,1
800032ee:	0000                	unimp
800032f0:	0000022f          	0x22f
800032f4:	038c                	addi	a1,sp,448
800032f6:	0000                	unimp
800032f8:	00000307          	0x307
800032fc:	00ff                	0xff
800032fe:	0000                	unimp
80003300:	030a                	slli	t1,t1,0x2
80003302:	0000                	unimp
80003304:	0256                	slli	tp,tp,0x15
80003306:	0000                	unimp
80003308:	0000008f          	0x8f
8000330c:	0021                	c.nop	8
8000330e:	0000                	unimp
80003310:	007d                	c.nop	31
80003312:	0000                	unimp
80003314:	03ad                	addi	t2,t2,11
80003316:	0000                	unimp
80003318:	03a5                	addi	t2,t2,9
8000331a:	0000                	unimp
8000331c:	031f 0000 0229      	0x2290000031f
80003322:	0000                	unimp
80003324:	000001af          	0x1af
80003328:	0288                	addi	a0,sp,320
8000332a:	0000                	unimp
8000332c:	03b8                	addi	a4,sp,456
8000332e:	0000                	unimp
80003330:	011f 0000 0013      	0x130000011f
80003336:	0000                	unimp
80003338:	0031                	c.nop	12
8000333a:	0000                	unimp
8000333c:	0056                	c.slli	zero,0x15
8000333e:	0000                	unimp
80003340:	005f 0000 01b9      	0x1b90000005f
80003346:	0000                	unimp
80003348:	0000024b          	fnmsub.s	ft4,ft0,ft0,ft0,rne
8000334c:	0266                	slli	tp,tp,0x19
8000334e:	0000                	unimp
80003350:	017e                	slli	sp,sp,0x1f
80003352:	0000                	unimp
80003354:	0118                	addi	a4,sp,128
80003356:	0000                	unimp
80003358:	0328                	addi	a0,sp,392
8000335a:	0000                	unimp
8000335c:	000003cb          	fnmsub.s	ft7,ft0,ft0,ft0,rne
80003360:	00000333          	add	t1,zero,zero
80003364:	0158                	addi	a4,sp,132
80003366:	0000                	unimp
80003368:	01c2                	slli	gp,gp,0x10
8000336a:	0000                	unimp
8000336c:	0200                	addi	s0,sp,256
8000336e:	0000                	unimp
80003370:	03c5                	addi	t2,t2,17
80003372:	0000                	unimp
80003374:	0000015b          	0x15b
80003378:	0328                	addi	a0,sp,392
8000337a:	0000                	unimp
8000337c:	0372                	slli	t1,t1,0x1c
8000337e:	0000                	unimp
80003380:	0219                	addi	tp,tp,6
80003382:	0000                	unimp
80003384:	03b2                	slli	t2,t2,0xc
80003386:	0000                	unimp
80003388:	02bd                	addi	t0,t0,15
8000338a:	0000                	unimp
8000338c:	0164                	addi	s1,sp,140
8000338e:	0000                	unimp
80003390:	00000237          	lui	tp,0x0
80003394:	0000037b          	0x37b
80003398:	0016                	c.slli	zero,0x5
8000339a:	0000                	unimp
8000339c:	0238                	addi	a4,sp,264
8000339e:	0000                	unimp
800033a0:	0299                	addi	t0,t0,6
800033a2:	0000                	unimp
800033a4:	000001a7          	0x1a7
800033a8:	01b2                	slli	gp,gp,0xc
800033aa:	0000                	unimp
800033ac:	009e                	slli	ra,ra,0x7
800033ae:	0000                	unimp
800033b0:	0002                	c.slli64	zero
800033b2:	0000                	unimp
800033b4:	0054                	addi	a3,sp,4
800033b6:	0000                	unimp
800033b8:	000000f7          	0xf7
800033bc:	0031                	c.nop	12
800033be:	0000                	unimp
800033c0:	000001b3          	add	gp,zero,zero
800033c4:	0318                	addi	a4,sp,384
800033c6:	0000                	unimp
800033c8:	0365                	addi	t1,t1,25
800033ca:	0000                	unimp
800033cc:	01e6                	slli	gp,gp,0x19
800033ce:	0000                	unimp
800033d0:	019e                	slli	gp,gp,0x7
800033d2:	0000                	unimp
800033d4:	0171                	addi	sp,sp,28
800033d6:	0000                	unimp
800033d8:	0224                	addi	s1,sp,264
800033da:	0000                	unimp
800033dc:	0206                	slli	tp,tp,0x1
800033de:	0000                	unimp
800033e0:	0378                	addi	a4,sp,396
800033e2:	0000                	unimp
800033e4:	02aa                	slli	t0,t0,0xa
800033e6:	0000                	unimp
800033e8:	011c                	addi	a5,sp,128
800033ea:	0000                	unimp
800033ec:	0108                	addi	a0,sp,128
800033ee:	0000                	unimp
800033f0:	000001f3          	0x1f3
800033f4:	0122                	slli	sp,sp,0x8
800033f6:	0000                	unimp
800033f8:	0381                	addi	t2,t2,0
800033fa:	0000                	unimp
800033fc:	000000d7          	0xd7
80003400:	000002db          	0x2db
80003404:	02b0                	addi	a2,sp,328
80003406:	0000                	unimp
80003408:	000000fb          	0xfb
8000340c:	0312                	slli	t1,t1,0x4
8000340e:	0000                	unimp
80003410:	0000022b          	0x22b
80003414:	012e                	slli	sp,sp,0xb
80003416:	0000                	unimp
80003418:	0210                	addi	a2,sp,256
8000341a:	0000                	unimp
8000341c:	0220                	addi	s0,sp,264
8000341e:	0000                	unimp
80003420:	0142                	slli	sp,sp,0x10
80003422:	0000                	unimp
80003424:	000003b3          	add	t2,zero,zero
80003428:	011f 0000 0338      	0x3380000011f
8000342e:	0000                	unimp
80003430:	0130                	addi	a2,sp,136
80003432:	0000                	unimp
80003434:	0314                	addi	a3,sp,384
80003436:	0000                	unimp
80003438:	02dd                	addi	t0,t0,23
8000343a:	0000                	unimp
8000343c:	000003bf 0000016e 	0x16e000003bf
80003444:	02d2                	slli	t0,t0,0x14
80003446:	0000                	unimp
80003448:	0126                	slli	sp,sp,0x9
8000344a:	0000                	unimp
8000344c:	000003cf          	fnmadd.s	ft7,ft0,ft0,ft0,rne
80003450:	028d                	addi	t0,t0,3
80003452:	0000                	unimp
80003454:	02ec                	addi	a1,sp,332
80003456:	0000                	unimp
80003458:	0000005b          	0x5b
8000345c:	017a                	slli	sp,sp,0x1e
8000345e:	0000                	unimp
80003460:	0069                	c.nop	26
80003462:	0000                	unimp
80003464:	0066                	c.slli	zero,0x19
80003466:	0000                	unimp
80003468:	017d                	addi	sp,sp,31
8000346a:	0000                	unimp
8000346c:	0000028b          	0x28b
80003470:	0339                	addi	t1,t1,14
80003472:	0000                	unimp
80003474:	0348                	addi	a0,sp,388
80003476:	0000                	unimp
80003478:	0164                	addi	s1,sp,140
8000347a:	0000                	unimp
8000347c:	0094                	addi	a3,sp,64
8000347e:	0000                	unimp
80003480:	0036                	c.slli	zero,0xd
80003482:	0000                	unimp
80003484:	008c                	addi	a1,sp,64
80003486:	0000                	unimp
80003488:	000003bb          	0x3bb
8000348c:	00000157          	0x157
80003490:	0215                	addi	tp,tp,5
80003492:	0000                	unimp
80003494:	02f5                	addi	t0,t0,29
80003496:	0000                	unimp
80003498:	0209                	addi	tp,tp,2
8000349a:	0000                	unimp
8000349c:	0345                	addi	t1,t1,17
8000349e:	0000                	unimp
800034a0:	0250                	addi	a2,sp,260
800034a2:	0000                	unimp
800034a4:	000d                	c.nop	3
800034a6:	0000                	unimp
800034a8:	00ad                	addi	ra,ra,11
800034aa:	0000                	unimp
800034ac:	0000003f 00000079 	0x790000003f
800034b4:	0085                	addi	ra,ra,1
800034b6:	0000                	unimp
800034b8:	02f6                	slli	t0,t0,0x1d
800034ba:	0000                	unimp
800034bc:	0174                	addi	a3,sp,140
800034be:	0000                	unimp
800034c0:	000003b7          	lui	t2,0x0
800034c4:	00000027          	0x27
800034c8:	0081                	addi	ra,ra,0
800034ca:	0000                	unimp
800034cc:	006e                	c.slli	zero,0x1b
800034ce:	0000                	unimp
800034d0:	0000034f          	fnmadd.s	ft6,ft0,ft0,ft0,rne
800034d4:	01b5                	addi	gp,gp,13
800034d6:	0000                	unimp
800034d8:	00ff                	0xff
800034da:	0000                	unimp
800034dc:	010d                	addi	sp,sp,3
800034de:	0000                	unimp
800034e0:	0199                	addi	gp,gp,6
800034e2:	0000                	unimp
800034e4:	0274                	addi	a3,sp,268
800034e6:	0000                	unimp
800034e8:	0000018f          	0x18f
800034ec:	0225                	addi	tp,tp,9
800034ee:	0000                	unimp
800034f0:	02f1                	addi	t0,t0,28
800034f2:	0000                	unimp
800034f4:	0234                	addi	a3,sp,264
800034f6:	0000                	unimp
800034f8:	000000ab          	0xab
800034fc:	00000013          	nop
80003500:	000002d7          	0x2d7
80003504:	01f5                	addi	gp,gp,29
80003506:	0000                	unimp
80003508:	0309                	addi	t1,t1,2
8000350a:	0000                	unimp
8000350c:	0000002b          	0x2b
80003510:	02f1                	addi	t0,t0,28
80003512:	0000                	unimp
80003514:	0051                	c.nop	20
80003516:	0000                	unimp
80003518:	00ca                	slli	ra,ra,0x12
8000351a:	0000                	unimp
8000351c:	0355                	addi	t1,t1,21
8000351e:	0000                	unimp
80003520:	0099                	addi	ra,ra,6
80003522:	0000                	unimp
80003524:	02f8                	addi	a4,sp,332
80003526:	0000                	unimp
80003528:	0165                	addi	sp,sp,25
8000352a:	0000                	unimp
8000352c:	000003af          	0x3af
80003530:	039a                	slli	t2,t2,0x6
80003532:	0000                	unimp
80003534:	0148                	addi	a0,sp,132
80003536:	0000                	unimp
80003538:	01f0                	addi	a2,sp,204
8000353a:	0000                	unimp
8000353c:	01ba                	slli	gp,gp,0xe
8000353e:	0000                	unimp
80003540:	0204                	addi	s1,sp,256
80003542:	0000                	unimp
80003544:	0281                	addi	t0,t0,0
80003546:	0000                	unimp
80003548:	0114                	addi	a3,sp,128
8000354a:	0000                	unimp
8000354c:	0312                	slli	t1,t1,0x4
8000354e:	0000                	unimp
80003550:	0071                	c.nop	28
80003552:	0000                	unimp
80003554:	034a                	slli	t1,t1,0x12
80003556:	0000                	unimp
80003558:	0000038b          	0x38b
8000355c:	00000113          	li	sp,0
80003560:	00ed                	addi	ra,ra,27
80003562:	0000                	unimp
80003564:	0020                	addi	s0,sp,8
80003566:	0000                	unimp
80003568:	0310                	addi	a2,sp,384
8000356a:	0000                	unimp
8000356c:	0235                	addi	tp,tp,13
8000356e:	0000                	unimp
80003570:	0165                	addi	sp,sp,25
80003572:	0000                	unimp
80003574:	00000323          	sb	zero,6(zero) # 6 <buf.2940+0x6>
80003578:	00000333          	add	t1,zero,zero
8000357c:	000002ef          	jal	t0,8000357c <input1_data+0x40c>
80003580:	0118                	addi	a4,sp,128
80003582:	0000                	unimp
80003584:	0055                	c.nop	21
80003586:	0000                	unimp
80003588:	01ca                	slli	gp,gp,0x12
8000358a:	0000                	unimp
8000358c:	01c6                	slli	gp,gp,0x11
8000358e:	0000                	unimp
80003590:	02c6                	slli	t0,t0,0x11
80003592:	0000                	unimp
80003594:	000001cb          	fnmsub.s	ft3,ft0,ft0,ft0,rne
80003598:	0029                	c.nop	10
8000359a:	0000                	unimp
8000359c:	00fd                	addi	ra,ra,31
8000359e:	0000                	unimp
800035a0:	0179                	addi	sp,sp,30
800035a2:	0000                	unimp
800035a4:	01fc                	addi	a5,sp,204
800035a6:	0000                	unimp
800035a8:	02bc                	addi	a5,sp,328
800035aa:	0000                	unimp
800035ac:	035c                	addi	a5,sp,388
800035ae:	0000                	unimp
800035b0:	01e0                	addi	s0,sp,204
800035b2:	0000                	unimp
800035b4:	02e5                	addi	t0,t0,25
800035b6:	0000                	unimp
800035b8:	000001f3          	0x1f3
800035bc:	02c5                	addi	t0,t0,17
800035be:	0000                	unimp
800035c0:	0031                	c.nop	12
800035c2:	0000                	unimp
800035c4:	00000173          	0x173
800035c8:	0369                	addi	t1,t1,26
800035ca:	0000                	unimp
800035cc:	03b1                	addi	t2,t2,12
800035ce:	0000                	unimp
800035d0:	03e0                	addi	s0,sp,460
800035d2:	0000                	unimp
800035d4:	020e                	slli	tp,tp,0x3
800035d6:	0000                	unimp
800035d8:	02d1                	addi	t0,t0,20
800035da:	0000                	unimp
800035dc:	000001b3          	add	gp,zero,zero
800035e0:	00e8                	addi	a0,sp,76
800035e2:	0000                	unimp
800035e4:	01f1                	addi	gp,gp,28
800035e6:	0000                	unimp
800035e8:	02b9                	addi	t0,t0,14
800035ea:	0000                	unimp
800035ec:	001e                	c.slli	zero,0x7
800035ee:	0000                	unimp
800035f0:	015c                	addi	a5,sp,132
800035f2:	0000                	unimp
800035f4:	00fa                	slli	ra,ra,0x1e
800035f6:	0000                	unimp
800035f8:	015e                	slli	sp,sp,0x17
800035fa:	0000                	unimp
800035fc:	00fa                	slli	ra,ra,0x1e
800035fe:	0000                	unimp
80003600:	023d                	addi	tp,tp,15
80003602:	0000                	unimp
80003604:	0310                	addi	a2,sp,384
80003606:	0000                	unimp
80003608:	02ed                	addi	t0,t0,27
8000360a:	0000                	unimp
8000360c:	01f6                	slli	gp,gp,0x1d
8000360e:	0000                	unimp
80003610:	00000337          	lui	t1,0x0
80003614:	033a                	slli	t1,t1,0xe
80003616:	0000                	unimp
80003618:	00aa                	slli	ra,ra,0xa
8000361a:	0000                	unimp
8000361c:	00a0                	addi	s0,sp,72
8000361e:	0000                	unimp

80003620 <input2_data>:
80003620:	01c6                	slli	gp,gp,0x11
80003622:	0000                	unimp
80003624:	0000014f          	fnmadd.s	ft2,ft0,ft0,ft0,rne
80003628:	0001                	nop
8000362a:	0000                	unimp
8000362c:	03dd                	addi	t2,t2,23
8000362e:	0000                	unimp
80003630:	016d                	addi	sp,sp,27
80003632:	0000                	unimp
80003634:	023c                	addi	a5,sp,264
80003636:	0000                	unimp
80003638:	0040                	addi	s0,sp,4
8000363a:	0000                	unimp
8000363c:	0099                	addi	ra,ra,6
8000363e:	0000                	unimp
80003640:	00d8                	addi	a4,sp,68
80003642:	0000                	unimp
80003644:	008c                	addi	a1,sp,64
80003646:	0000                	unimp
80003648:	00d2                	slli	ra,ra,0x14
8000364a:	0000                	unimp
8000364c:	023c                	addi	a5,sp,264
8000364e:	0000                	unimp
80003650:	00000153          	fadd.s	ft2,ft0,ft0,rne
80003654:	0251                	addi	tp,tp,20
80003656:	0000                	unimp
80003658:	0382                	c.slli64	t2
8000365a:	0000                	unimp
8000365c:	00e4                	addi	s1,sp,76
8000365e:	0000                	unimp
80003660:	000c                	0xc
80003662:	0000                	unimp
80003664:	00000373          	0x373
80003668:	02ee                	slli	t0,t0,0x1b
8000366a:	0000                	unimp
8000366c:	0286                	slli	t0,t0,0x1
8000366e:	0000                	unimp
80003670:	01f4                	addi	a3,sp,204
80003672:	0000                	unimp
80003674:	01b4                	addi	a3,sp,200
80003676:	0000                	unimp
80003678:	02bd                	addi	t0,t0,15
8000367a:	0000                	unimp
8000367c:	032c                	addi	a1,sp,392
8000367e:	0000                	unimp
80003680:	03d5                	addi	t2,t2,21
80003682:	0000                	unimp
80003684:	0096                	slli	ra,ra,0x5
80003686:	0000                	unimp
80003688:	02b8                	addi	a4,sp,328
8000368a:	0000                	unimp
8000368c:	0234                	addi	a3,sp,264
8000368e:	0000                	unimp
80003690:	0110                	addi	a2,sp,128
80003692:	0000                	unimp
80003694:	0102                	c.slli64	sp
80003696:	0000                	unimp
80003698:	00000287          	0x287
8000369c:	01fd                	addi	gp,gp,31
8000369e:	0000                	unimp
800036a0:	0058                	addi	a4,sp,4
800036a2:	0000                	unimp
800036a4:	000002bf 0000029d 	0x29d000002bf
800036ac:	00000177          	0x177
800036b0:	00000227          	0x227
800036b4:	03a8                	addi	a0,sp,456
800036b6:	0000                	unimp
800036b8:	0250                	addi	a2,sp,260
800036ba:	0000                	unimp
800036bc:	0239                	addi	tp,tp,14
800036be:	0000                	unimp
800036c0:	03b8                	addi	a4,sp,456
800036c2:	0000                	unimp
800036c4:	0320                	addi	s0,sp,392
800036c6:	0000                	unimp
800036c8:	0248                	addi	a0,sp,260
800036ca:	0000                	unimp
800036cc:	00000283          	lb	t0,0(zero) # 0 <buf.2940>
800036d0:	0170                	addi	a2,sp,140
800036d2:	0000                	unimp
800036d4:	01e9                	addi	gp,gp,26
800036d6:	0000                	unimp
800036d8:	0148                	addi	a0,sp,132
800036da:	0000                	unimp
800036dc:	0139                	addi	sp,sp,14
800036de:	0000                	unimp
800036e0:	0250                	addi	a2,sp,260
800036e2:	0000                	unimp
800036e4:	0184                	addi	s1,sp,192
800036e6:	0000                	unimp
800036e8:	021f 0000 0289      	0x2890000021f
800036ee:	0000                	unimp
800036f0:	000003d3          	fadd.s	ft7,ft0,ft0,rne
800036f4:	03e5                	addi	t2,t2,25
800036f6:	0000                	unimp
800036f8:	032e                	slli	t1,t1,0xb
800036fa:	0000                	unimp
800036fc:	0000004f          	fnmadd.s	ft0,ft0,ft0,ft0,rne
80003700:	00d0                	addi	a2,sp,68
80003702:	0000                	unimp
80003704:	03e6                	slli	t2,t2,0x19
80003706:	0000                	unimp
80003708:	0275                	addi	tp,tp,29
8000370a:	0000                	unimp
8000370c:	0000034f          	fnmadd.s	ft6,ft0,ft0,ft0,rne
80003710:	02c0                	addi	s0,sp,324
80003712:	0000                	unimp
80003714:	03e5                	addi	t2,t2,25
80003716:	0000                	unimp
80003718:	00fd                	addi	ra,ra,31
8000371a:	0000                	unimp
8000371c:	000002cb          	fnmsub.s	ft5,ft0,ft0,ft0,rne
80003720:	01ae                	slli	gp,gp,0xb
80003722:	0000                	unimp
80003724:	019f 0000 021a      	0x21a0000019f
8000372a:	0000                	unimp
8000372c:	02bc                	addi	a5,sp,328
8000372e:	0000                	unimp
80003730:	0004                	0x4
80003732:	0000                	unimp
80003734:	01ee                	slli	gp,gp,0x1b
80003736:	0000                	unimp
80003738:	0064                	addi	s1,sp,12
8000373a:	0000                	unimp
8000373c:	0360                	addi	s0,sp,396
8000373e:	0000                	unimp
80003740:	02b5                	addi	t0,t0,13
80003742:	0000                	unimp
80003744:	01a0                	addi	s0,sp,200
80003746:	0000                	unimp
80003748:	0128                	addi	a0,sp,136
8000374a:	0000                	unimp
8000374c:	011d                	addi	sp,sp,7
8000374e:	0000                	unimp
80003750:	026c                	addi	a1,sp,268
80003752:	0000                	unimp
80003754:	004e                	c.slli	zero,0x13
80003756:	0000                	unimp
80003758:	015f 0000 021c      	0x21c0000015f
8000375e:	0000                	unimp
80003760:	0286                	slli	t0,t0,0x1
80003762:	0000                	unimp
80003764:	00a9                	addi	ra,ra,10
80003766:	0000                	unimp
80003768:	0000020f          	0x20f
8000376c:	0121                	addi	sp,sp,8
8000376e:	0000                	unimp
80003770:	031c                	addi	a5,sp,384
80003772:	0000                	unimp
80003774:	0321                	addi	t1,t1,8
80003776:	0000                	unimp
80003778:	02d0                	addi	a2,sp,324
8000377a:	0000                	unimp
8000377c:	02f6                	slli	t0,t0,0x1d
8000377e:	0000                	unimp
80003780:	02e9                	addi	t0,t0,26
80003782:	0000                	unimp
80003784:	005c                	addi	a5,sp,4
80003786:	0000                	unimp
80003788:	03dd                	addi	t2,t2,23
8000378a:	0000                	unimp
8000378c:	0000010f          	0x10f
80003790:	0355                	addi	t1,t1,21
80003792:	0000                	unimp
80003794:	0314                	addi	a3,sp,384
80003796:	0000                	unimp
80003798:	00000213          	li	tp,0
8000379c:	00de                	slli	ra,ra,0x17
8000379e:	0000                	unimp
800037a0:	01cd                	addi	gp,gp,19
800037a2:	0000                	unimp
800037a4:	00f1                	addi	ra,ra,28
800037a6:	0000                	unimp
800037a8:	0166                	slli	sp,sp,0x19
800037aa:	0000                	unimp
800037ac:	014c                	addi	a1,sp,132
800037ae:	0000                	unimp
800037b0:	02ac                	addi	a1,sp,328
800037b2:	0000                	unimp
800037b4:	02e4                	addi	s1,sp,332
800037b6:	0000                	unimp
800037b8:	01be                	slli	gp,gp,0xf
800037ba:	0000                	unimp
800037bc:	00000137          	lui	sp,0x0
800037c0:	000002e7          	jalr	t0,zero # 0 <buf.2940>
800037c4:	022d                	addi	tp,tp,11
800037c6:	0000                	unimp
800037c8:	01df 0000 022d      	0x22d000001df
800037ce:	0000                	unimp
800037d0:	039d                	addi	t2,t2,7
800037d2:	0000                	unimp
800037d4:	031c                	addi	a5,sp,384
800037d6:	0000                	unimp
800037d8:	0165                	addi	sp,sp,25
800037da:	0000                	unimp
800037dc:	0000037b          	0x37b
800037e0:	029a                	slli	t0,t0,0x6
800037e2:	0000                	unimp
800037e4:	0202                	c.slli64	tp
800037e6:	0000                	unimp
800037e8:	022d                	addi	tp,tp,11
800037ea:	0000                	unimp
800037ec:	0366                	slli	t1,t1,0x19
800037ee:	0000                	unimp
800037f0:	0355                	addi	t1,t1,21
800037f2:	0000                	unimp
800037f4:	01b8                	addi	a4,sp,200
800037f6:	0000                	unimp
800037f8:	003d                	c.nop	15
800037fa:	0000                	unimp
800037fc:	02a6                	slli	t0,t0,0x9
800037fe:	0000                	unimp
80003800:	018c                	addi	a1,sp,192
80003802:	0000                	unimp
80003804:	0009                	c.nop	2
80003806:	0000                	unimp
80003808:	0011                	c.nop	4
8000380a:	0000                	unimp
8000380c:	00aa                	slli	ra,ra,0xa
8000380e:	0000                	unimp
80003810:	00000123          	sb	zero,2(zero) # 2 <buf.2940+0x2>
80003814:	017c                	addi	a5,sp,140
80003816:	0000                	unimp
80003818:	0218                	addi	a4,sp,256
8000381a:	0000                	unimp
8000381c:	00b9                	addi	ra,ra,14
8000381e:	0000                	unimp
80003820:	0395                	addi	t2,t2,5
80003822:	0000                	unimp
80003824:	0000021b          	0x21b
80003828:	000003d7          	0x3d7
8000382c:	00000377          	0x377
80003830:	0036                	c.slli	zero,0xd
80003832:	0000                	unimp
80003834:	0264                	addi	s1,sp,268
80003836:	0000                	unimp
80003838:	000003b7          	lui	t2,0x0
8000383c:	01df 0000 0097      	0x97000001df
80003842:	0000                	unimp
80003844:	00000007          	0x7
80003848:	0281                	addi	t0,t0,0
8000384a:	0000                	unimp
8000384c:	0000014f          	fnmadd.s	ft2,ft0,ft0,ft0,rne
80003850:	02da                	slli	t0,t0,0x16
80003852:	0000                	unimp
80003854:	005f 0000 02d8      	0x2d80000005f
8000385a:	0000                	unimp
8000385c:	0118                	addi	a4,sp,128
8000385e:	0000                	unimp
80003860:	0000018b          	0x18b
80003864:	02b0                	addi	a2,sp,328
80003866:	0000                	unimp
80003868:	0000038f          	0x38f
8000386c:	01dc                	addi	a5,sp,196
8000386e:	0000                	unimp
80003870:	0000032f          	0x32f
80003874:	02d9                	addi	t0,t0,22
80003876:	0000                	unimp
80003878:	0109                	addi	sp,sp,2
8000387a:	0000                	unimp
8000387c:	007f                	0x7f
8000387e:	0000                	unimp
80003880:	00ec                	addi	a1,sp,76
80003882:	0000                	unimp
80003884:	00d6                	slli	ra,ra,0x15
80003886:	0000                	unimp
80003888:	00b4                	addi	a3,sp,72
8000388a:	0000                	unimp
8000388c:	0006                	c.slli	zero,0x1
8000388e:	0000                	unimp
80003890:	000001f7          	0x1f7
80003894:	0254                	addi	a3,sp,260
80003896:	0000                	unimp
80003898:	00ad                	addi	ra,ra,11
8000389a:	0000                	unimp
8000389c:	00000283          	lb	t0,0(zero) # 0 <buf.2940>
800038a0:	015a                	slli	sp,sp,0x16
800038a2:	0000                	unimp
800038a4:	00000257          	0x257
800038a8:	0044                	addi	s1,sp,4
800038aa:	0000                	unimp
800038ac:	0351                	addi	t1,t1,20
800038ae:	0000                	unimp
800038b0:	0292                	slli	t0,t0,0x4
800038b2:	0000                	unimp
800038b4:	0000026b          	0x26b
800038b8:	0079                	c.nop	30
800038ba:	0000                	unimp
800038bc:	00000083          	lb	ra,0(zero) # 0 <buf.2940>
800038c0:	033c                	addi	a5,sp,392
800038c2:	0000                	unimp
800038c4:	0000029b          	0x29b
800038c8:	01b1                	addi	gp,gp,12
800038ca:	0000                	unimp
800038cc:	000001e7          	jalr	gp,zero # 0 <buf.2940>
800038d0:	02f1                	addi	t0,t0,28
800038d2:	0000                	unimp
800038d4:	007d                	c.nop	31
800038d6:	0000                	unimp
800038d8:	0272                	slli	tp,tp,0x1c
800038da:	0000                	unimp
800038dc:	000e                	c.slli	zero,0x3
800038de:	0000                	unimp
800038e0:	000a                	c.slli	zero,0x2
800038e2:	0000                	unimp
800038e4:	00000193          	li	gp,0
800038e8:	006a                	c.slli	zero,0x1a
800038ea:	0000                	unimp
800038ec:	000002bf 00000332 	0x332000002bf
800038f4:	03c4                	addi	s1,sp,452
800038f6:	0000                	unimp
800038f8:	0196                	slli	gp,gp,0x5
800038fa:	0000                	unimp
800038fc:	036a                	slli	t1,t1,0x1a
800038fe:	0000                	unimp
80003900:	0358                	addi	a4,sp,388
80003902:	0000                	unimp
80003904:	0056                	c.slli	zero,0x15
80003906:	0000                	unimp
80003908:	003c                	addi	a5,sp,8
8000390a:	0000                	unimp
8000390c:	0294                	addi	a3,sp,320
8000390e:	0000                	unimp
80003910:	0000029b          	0x29b
80003914:	0099                	addi	ra,ra,6
80003916:	0000                	unimp
80003918:	0079                	c.nop	30
8000391a:	0000                	unimp
8000391c:	0062                	c.slli	zero,0x18
8000391e:	0000                	unimp
80003920:	019c                	addi	a5,sp,192
80003922:	0000                	unimp
80003924:	00ec                	addi	a1,sp,76
80003926:	0000                	unimp
80003928:	000c                	0xc
8000392a:	0000                	unimp
8000392c:	000001a7          	0x1a7
80003930:	03c5                	addi	t2,t2,17
80003932:	0000                	unimp
80003934:	00d8                	addi	a4,sp,68
80003936:	0000                	unimp
80003938:	026d                	addi	tp,tp,27
8000393a:	0000                	unimp
8000393c:	0169                	addi	sp,sp,26
8000393e:	0000                	unimp
80003940:	0399                	addi	t2,t2,6
80003942:	0000                	unimp
80003944:	000002cb          	fnmsub.s	ft5,ft0,ft0,ft0,rne
80003948:	00000287          	0x287
8000394c:	0000012b          	0x12b
80003950:	0376                	slli	t1,t1,0x1d
80003952:	0000                	unimp
80003954:	02aa                	slli	t0,t0,0xa
80003956:	0000                	unimp
80003958:	0024                	addi	s1,sp,8
8000395a:	0000                	unimp
8000395c:	01ed                	addi	gp,gp,27
8000395e:	0000                	unimp
80003960:	00000227          	0x227
80003964:	0219                	addi	tp,tp,6
80003966:	0000                	unimp
80003968:	03c9                	addi	t2,t2,18
8000396a:	0000                	unimp
8000396c:	00000283          	lb	t0,0(zero) # 0 <buf.2940>
80003970:	01b2                	slli	gp,gp,0xc
80003972:	0000                	unimp
80003974:	019f 0000 012f      	0x12f0000019f
8000397a:	0000                	unimp
8000397c:	01b6                	slli	gp,gp,0xd
8000397e:	0000                	unimp
80003980:	035c                	addi	a5,sp,388
80003982:	0000                	unimp
80003984:	000000cb          	fnmsub.s	ft1,ft0,ft0,ft0,rne
80003988:	01de                	slli	gp,gp,0x17
8000398a:	0000                	unimp
8000398c:	03dc                	addi	a5,sp,452
8000398e:	0000                	unimp
80003990:	000002a3          	sb	zero,5(zero) # 5 <buf.2940+0x5>
80003994:	000002cf          	fnmadd.s	ft5,ft0,ft0,ft0,rne
80003998:	03de                	slli	t2,t2,0x17
8000399a:	0000                	unimp
8000399c:	0152                	slli	sp,sp,0x14
8000399e:	0000                	unimp
800039a0:	01c2                	slli	gp,gp,0x10
800039a2:	0000                	unimp
800039a4:	0279                	addi	tp,tp,30
800039a6:	0000                	unimp
800039a8:	0000009b          	0x9b
800039ac:	0286                	slli	t0,t0,0x1
800039ae:	0000                	unimp
800039b0:	01c4                	addi	s1,sp,196
800039b2:	0000                	unimp
800039b4:	000001ab          	0x1ab
800039b8:	01fd                	addi	gp,gp,31
800039ba:	0000                	unimp
800039bc:	03dc                	addi	a5,sp,452
800039be:	0000                	unimp
800039c0:	01aa                	slli	gp,gp,0xa
800039c2:	0000                	unimp
800039c4:	000c                	0xc
800039c6:	0000                	unimp
800039c8:	000001e3          	beqz	zero,800041ca <_tbss_end+0x1c6>
800039cc:	008e                	slli	ra,ra,0x3
800039ce:	0000                	unimp
800039d0:	00000153          	fadd.s	ft2,ft0,ft0,rne
800039d4:	0186                	slli	gp,gp,0x1
800039d6:	0000                	unimp
800039d8:	0032                	c.slli	zero,0xc
800039da:	0000                	unimp
800039dc:	000000ab          	0xab
800039e0:	0259                	addi	tp,tp,22
800039e2:	0000                	unimp
800039e4:	0069                	c.nop	26
800039e6:	0000                	unimp
800039e8:	03c8                	addi	a0,sp,452
800039ea:	0000                	unimp
800039ec:	0079                	c.nop	30
800039ee:	0000                	unimp
800039f0:	0000036f          	jal	t1,800039f0 <input2_data+0x3d0>
800039f4:	0051                	c.nop	20
800039f6:	0000                	unimp
800039f8:	0366                	slli	t1,t1,0x19
800039fa:	0000                	unimp
800039fc:	0258                	addi	a4,sp,260
800039fe:	0000                	unimp
80003a00:	0000025b          	0x25b
80003a04:	00000367          	jalr	t1,zero # 0 <buf.2940>
80003a08:	00000377          	0x377
80003a0c:	0262                	slli	tp,tp,0x18
80003a0e:	0000                	unimp
80003a10:	0194                	addi	a3,sp,192
80003a12:	0000                	unimp
80003a14:	00ea                	slli	ra,ra,0x1a
80003a16:	0000                	unimp
80003a18:	02e9                	addi	t0,t0,26
80003a1a:	0000                	unimp
80003a1c:	020e                	slli	tp,tp,0x3
80003a1e:	0000                	unimp
80003a20:	00000113          	li	sp,0
80003a24:	01b9                	addi	gp,gp,14
80003a26:	0000                	unimp
80003a28:	00e2                	slli	ra,ra,0x18
80003a2a:	0000                	unimp
80003a2c:	02f0                	addi	a2,sp,332
80003a2e:	0000                	unimp
80003a30:	000003af          	0x3af
80003a34:	02d6                	slli	t0,t0,0x15
80003a36:	0000                	unimp
80003a38:	02c5                	addi	t0,t0,17
80003a3a:	0000                	unimp
80003a3c:	00c9                	addi	ra,ra,18
80003a3e:	0000                	unimp
80003a40:	0036                	c.slli	zero,0xd
80003a42:	0000                	unimp
80003a44:	02f6                	slli	t0,t0,0x1d
80003a46:	0000                	unimp
80003a48:	0035                	c.nop	13
80003a4a:	0000                	unimp
80003a4c:	018d                	addi	gp,gp,3
80003a4e:	0000                	unimp
80003a50:	0029                	c.nop	10
80003a52:	0000                	unimp
80003a54:	008d                	addi	ra,ra,3
80003a56:	0000                	unimp
80003a58:	01a0                	addi	s0,sp,200
80003a5a:	0000                	unimp
80003a5c:	000002eb          	0x2eb
80003a60:	000000db          	0xdb
80003a64:	01de                	slli	gp,gp,0x17
80003a66:	0000                	unimp
80003a68:	0302                	c.slli64	t1
80003a6a:	0000                	unimp
80003a6c:	00b4                	addi	a3,sp,72
80003a6e:	0000                	unimp
80003a70:	01e2                	slli	gp,gp,0x18
80003a72:	0000                	unimp
80003a74:	000002b3          	add	t0,zero,zero
80003a78:	02d5                	addi	t0,t0,21
80003a7a:	0000                	unimp
80003a7c:	00ad                	addi	ra,ra,11
80003a7e:	0000                	unimp
80003a80:	00ba                	slli	ra,ra,0xe
80003a82:	0000                	unimp
80003a84:	0392                	slli	t2,t2,0x4
80003a86:	0000                	unimp
80003a88:	0001                	nop
80003a8a:	0000                	unimp
80003a8c:	000003c3          	fmadd.s	ft7,ft0,ft0,ft0,rne
80003a90:	000000f7          	0xf7
80003a94:	01d0                	addi	a2,sp,196
80003a96:	0000                	unimp
80003a98:	016a                	slli	sp,sp,0x1a
80003a9a:	0000                	unimp
80003a9c:	0209                	addi	tp,tp,2
80003a9e:	0000                	unimp
80003aa0:	00e9                	addi	ra,ra,26
80003aa2:	0000                	unimp
80003aa4:	0078                	addi	a4,sp,12
80003aa6:	0000                	unimp
80003aa8:	0028                	addi	a0,sp,8
80003aaa:	0000                	unimp
80003aac:	0000030b          	0x30b
80003ab0:	000000c3          	fmadd.s	ft1,ft0,ft0,ft0,rne
80003ab4:	00a1                	addi	ra,ra,8
80003ab6:	0000                	unimp
80003ab8:	000002e7          	jalr	t0,zero # 0 <buf.2940>
80003abc:	000001b7          	lui	gp,0x0
80003ac0:	00000163          	beqz	zero,80003ac2 <input2_data+0x4a2>
80003ac4:	00000193          	li	gp,0
80003ac8:	008d                	addi	ra,ra,3
80003aca:	0000                	unimp
80003acc:	0279                	addi	tp,tp,30
80003ace:	0000                	unimp

80003ad0 <verify_data>:
80003ad0:	000001ef          	jal	gp,80003ad0 <verify_data>
80003ad4:	0490                	addi	a2,sp,576
80003ad6:	0000                	unimp
80003ad8:	0235                	addi	tp,tp,13
80003ada:	0000                	unimp
80003adc:	0498                	addi	a4,sp,576
80003ade:	0000                	unimp
80003ae0:	045a                	slli	s0,s0,0x16
80003ae2:	0000                	unimp
80003ae4:	039a                	slli	t2,t2,0x6
80003ae6:	0000                	unimp
80003ae8:	00c4                	addi	s1,sp,68
80003aea:	0000                	unimp
80003aec:	044e                	slli	s0,s0,0x13
80003aee:	0000                	unimp
80003af0:	0320                	addi	s0,sp,392
80003af2:	0000                	unimp
80003af4:	03b1                	addi	t2,t2,12
80003af6:	0000                	unimp
80003af8:	0000033f 00000242 	0x2420000033f
80003b00:	04f6                	slli	s1,s1,0x1d
80003b02:	0000                	unimp
80003b04:	000005cb          	fnmsub.s	fa1,ft0,ft0,ft0,rne
80003b08:	050a                	slli	a0,a0,0x2
80003b0a:	0000                	unimp
80003b0c:	039a                	slli	t2,t2,0x6
80003b0e:	0000                	unimp
80003b10:	03cd                	addi	t2,t2,19
80003b12:	0000                	unimp
80003b14:	03e1                	addi	t2,t2,24
80003b16:	0000                	unimp
80003b18:	0362                	slli	t1,t1,0x18
80003b1a:	0000                	unimp
80003b1c:	03ae                	slli	t2,t2,0xb
80003b1e:	0000                	unimp
80003b20:	039e                	slli	t2,t2,0x7
80003b22:	0000                	unimp
80003b24:	02ee                	slli	t0,t0,0x1b
80003b26:	0000                	unimp
80003b28:	0550                	addi	a2,sp,644
80003b2a:	0000                	unimp
80003b2c:	0632                	slli	a2,a2,0xc
80003b2e:	0000                	unimp
80003b30:	0514                	addi	a3,sp,640
80003b32:	0000                	unimp
80003b34:	033c                	addi	a5,sp,392
80003b36:	0000                	unimp
80003b38:	00000623          	sb	zero,12(zero) # c <buf.2940+0xc>
80003b3c:	03ac                	addi	a1,sp,456
80003b3e:	0000                	unimp
80003b40:	02ea                	slli	t0,t0,0x1a
80003b42:	0000                	unimp
80003b44:	04ac                	addi	a1,sp,584
80003b46:	0000                	unimp
80003b48:	04a2                	slli	s1,s1,0x8
80003b4a:	0000                	unimp
80003b4c:	0436                	slli	s0,s0,0xd
80003b4e:	0000                	unimp
80003b50:	00000123          	sb	zero,2(zero) # 2 <buf.2940+0x2>
80003b54:	000003d7          	0x3d7
80003b58:	0594                	addi	a3,sp,704
80003b5a:	0000                	unimp
80003b5c:	03d5                	addi	t2,t2,21
80003b5e:	0000                	unimp
80003b60:	0426                	slli	s0,s0,0x9
80003b62:	0000                	unimp
80003b64:	0639                	addi	a2,a2,14
80003b66:	0000                	unimp
80003b68:	00000313          	li	t1,0
80003b6c:	028a                	slli	t0,t0,0x2
80003b6e:	0000                	unimp
80003b70:	000004c3          	fmadd.s	fs1,ft0,ft0,ft0,rne
80003b74:	0405                	addi	s0,s0,1
80003b76:	0000                	unimp
80003b78:	0399                	addi	t2,t2,6
80003b7a:	0000                	unimp
80003b7c:	00000633          	add	a2,zero,zero
80003b80:	04f6                	slli	s1,s1,0x1d
80003b82:	0000                	unimp
80003b84:	02da                	slli	t0,t0,0x16
80003b86:	0000                	unimp
80003b88:	04d9                	addi	s1,s1,22
80003b8a:	0000                	unimp
80003b8c:	00000473          	0x473
80003b90:	05f5                	addi	a1,a1,29
80003b92:	0000                	unimp
80003b94:	055d                	addi	a0,a0,23
80003b96:	0000                	unimp
80003b98:	02e2                	slli	t0,t0,0x18
80003b9a:	0000                	unimp
80003b9c:	0649                	addi	a2,a2,18
80003b9e:	0000                	unimp
80003ba0:	0609                	addi	a2,a2,2
80003ba2:	0000                	unimp
80003ba4:	00000543          	fmadd.s	fa0,ft0,ft0,ft0,rne
80003ba8:	000005b7          	lui	a1,0x0
80003bac:	02e0                	addi	s0,sp,332
80003bae:	0000                	unimp
80003bb0:	0185                	addi	gp,gp,1
80003bb2:	0000                	unimp
80003bb4:	0455                	addi	s0,s0,21
80003bb6:	0000                	unimp
80003bb8:	05d0                	addi	a2,sp,708
80003bba:	0000                	unimp
80003bbc:	0390                	addi	a2,sp,448
80003bbe:	0000                	unimp
80003bc0:	03e0                	addi	s0,sp,460
80003bc2:	0000                	unimp
80003bc4:	0542                	slli	a0,a0,0x10
80003bc6:	0000                	unimp
80003bc8:	018a                	slli	gp,gp,0x2
80003bca:	0000                	unimp
80003bcc:	0654                	addi	a3,sp,772
80003bce:	0000                	unimp
80003bd0:	0524                	addi	s1,sp,648
80003bd2:	0000                	unimp
80003bd4:	000002a7          	0x2a7
80003bd8:	045a                	slli	s0,s0,0x16
80003bda:	0000                	unimp
80003bdc:	0000068f          	0x68f
80003be0:	02fd                	addi	t0,t0,31
80003be2:	0000                	unimp
80003be4:	02df 0000 0242      	0x242000002df
80003bea:	0000                	unimp
80003bec:	00000553          	fadd.s	fa0,ft0,ft0,rne
80003bf0:	0448                	addi	a0,sp,516
80003bf2:	0000                	unimp
80003bf4:	027e                	slli	tp,tp,0x1f
80003bf6:	0000                	unimp
80003bf8:	02e4                	addi	s1,sp,332
80003bfa:	0000                	unimp
80003bfc:	03ee                	slli	t2,t2,0x1b
80003bfe:	0000                	unimp
80003c00:	0510                	addi	a2,sp,640
80003c02:	0000                	unimp
80003c04:	0000018b          	0x18b
80003c08:	0000023f 000005c5 	0x5c50000023f
80003c10:	03a6                	slli	t2,t2,0x9
80003c12:	0000                	unimp
80003c14:	0120                	addi	s0,sp,136
80003c16:	0000                	unimp
80003c18:	0476                	slli	s0,s0,0x1d
80003c1a:	0000                	unimp
80003c1c:	037f                	0x37f
80003c1e:	0000                	unimp
80003c20:	04a1                	addi	s1,s1,8
80003c22:	0000                	unimp
80003c24:	0480                	addi	s0,sp,576
80003c26:	0000                	unimp
80003c28:	00000497          	auipc	s1,0x0
80003c2c:	040c                	addi	a1,sp,512
80003c2e:	0000                	unimp
80003c30:	0458                	addi	a4,sp,516
80003c32:	0000                	unimp
80003c34:	01c2                	slli	gp,gp,0x10
80003c36:	0000                	unimp
80003c38:	0625                	addi	a2,a2,9
80003c3a:	0000                	unimp
80003c3c:	014d                	addi	sp,sp,19
80003c3e:	0000                	unimp
80003c40:	072e                	slli	a4,a4,0xb
80003c42:	0000                	unimp
80003c44:	000004a7          	0x4a7
80003c48:	036d                	addi	t1,t1,27
80003c4a:	0000                	unimp
80003c4c:	000002e3          	beqz	zero,80004450 <_tbss_end+0x44c>
80003c50:	03fc                	addi	a5,sp,460
80003c52:	0000                	unimp
80003c54:	047d                	addi	s0,s0,31
80003c56:	0000                	unimp
80003c58:	046d                	addi	s0,s0,27
80003c5a:	0000                	unimp
80003c5c:	0000024b          	fnmsub.s	ft4,ft0,ft0,ft0,rne
80003c60:	05b6                	slli	a1,a1,0xd
80003c62:	0000                	unimp
80003c64:	053a                	slli	a0,a0,0xe
80003c66:	0000                	unimp
80003c68:	024d                	addi	tp,tp,19
80003c6a:	0000                	unimp
80003c6c:	0158                	addi	a4,sp,132
80003c6e:	0000                	unimp
80003c70:	0364                	addi	s1,sp,396
80003c72:	0000                	unimp
80003c74:	05da                	slli	a1,a1,0x16
80003c76:	0000                	unimp
80003c78:	0584                	addi	s1,sp,704
80003c7a:	0000                	unimp
80003c7c:	054c                	addi	a1,sp,644
80003c7e:	0000                	unimp
80003c80:	05c6                	slli	a1,a1,0x11
80003c82:	0000                	unimp
80003c84:	000004cb          	fnmsub.s	fs1,ft0,ft0,ft0,rne
80003c88:	03ed                	addi	t2,t2,27
80003c8a:	0000                	unimp
80003c8c:	00000733          	add	a4,zero,zero
80003c90:	03b9                	addi	t2,t2,14
80003c92:	0000                	unimp
80003c94:	0215                	addi	tp,tp,5
80003c96:	0000                	unimp
80003c98:	025e                	slli	tp,tp,0x17
80003c9a:	0000                	unimp
80003c9c:	03bc                	addi	a5,sp,456
80003c9e:	0000                	unimp
80003ca0:	03b4                	addi	a3,sp,456
80003ca2:	0000                	unimp
80003ca4:	0371                	addi	t1,t1,28
80003ca6:	0000                	unimp
80003ca8:	0288                	addi	a0,sp,320
80003caa:	0000                	unimp
80003cac:	050c                	addi	a1,sp,640
80003cae:	0000                	unimp
80003cb0:	030a                	slli	t1,t1,0x2
80003cb2:	0000                	unimp
80003cb4:	0121                	addi	sp,sp,8
80003cb6:	0000                	unimp
80003cb8:	0339                	addi	t1,t1,14
80003cba:	0000                	unimp
80003cbc:	0475                	addi	s0,s0,29
80003cbe:	0000                	unimp
80003cc0:	0456                	slli	s0,s0,0x15
80003cc2:	0000                	unimp
80003cc4:	02d4                	addi	a3,sp,324
80003cc6:	0000                	unimp
80003cc8:	03da                	slli	t2,t2,0x16
80003cca:	0000                	unimp
80003ccc:	02b9                	addi	t0,t0,14
80003cce:	0000                	unimp
80003cd0:	075a                	slli	a4,a4,0x16
80003cd2:	0000                	unimp
80003cd4:	0376                	slli	t1,t1,0x1d
80003cd6:	0000                	unimp
80003cd8:	06ff                	0x6ff
80003cda:	0000                	unimp
80003cdc:	06e9                	addi	a3,a3,26
80003cde:	0000                	unimp
80003ce0:	0000024f          	fnmadd.s	ft4,ft0,ft0,ft0,rne
80003ce4:	0616                	slli	a2,a2,0x5
80003ce6:	0000                	unimp
80003ce8:	0674                	addi	a3,sp,780
80003cea:	0000                	unimp
80003cec:	00000343          	fmadd.s	ft6,ft0,ft0,ft0,rne
80003cf0:	02ce                	slli	t0,t0,0x13
80003cf2:	0000                	unimp
80003cf4:	0382                	c.slli64	t2
80003cf6:	0000                	unimp
80003cf8:	00000297          	auipc	t0,0x0
80003cfc:	00000387          	0x387
80003d00:	00000573          	0x573
80003d04:	0206                	slli	tp,tp,0x1
80003d06:	0000                	unimp
80003d08:	048a                	slli	s1,s1,0x2
80003d0a:	0000                	unimp
80003d0c:	01b6                	slli	gp,gp,0xd
80003d0e:	0000                	unimp
80003d10:	018d                	addi	gp,gp,3
80003d12:	0000                	unimp
80003d14:	0304                	addi	s1,sp,384
80003d16:	0000                	unimp
80003d18:	0486                	slli	s1,s1,0x1
80003d1a:	0000                	unimp
80003d1c:	020d                	addi	tp,tp,3
80003d1e:	0000                	unimp
80003d20:	04e2                	slli	s1,s1,0x18
80003d22:	0000                	unimp
80003d24:	05f1                	addi	a1,a1,28
80003d26:	0000                	unimp
80003d28:	046e                	slli	s0,s0,0x1b
80003d2a:	0000                	unimp
80003d2c:	0265                	addi	tp,tp,25
80003d2e:	0000                	unimp
80003d30:	028a                	slli	t0,t0,0x2
80003d32:	0000                	unimp
80003d34:	00000247          	fmsub.s	ft4,ft0,ft0,ft0,rne
80003d38:	02d8                	addi	a4,sp,324
80003d3a:	0000                	unimp
80003d3c:	020c                	addi	a1,sp,256
80003d3e:	0000                	unimp
80003d40:	0000056f          	jal	a0,80003d40 <verify_data+0x270>
80003d44:	04fe                	slli	s1,s1,0x1f
80003d46:	0000                	unimp
80003d48:	01c9                	addi	gp,gp,18
80003d4a:	0000                	unimp
80003d4c:	0000038b          	0x38b
80003d50:	034d                	addi	t1,t1,19
80003d52:	0000                	unimp
80003d54:	0379                	addi	t1,t1,30
80003d56:	0000                	unimp
80003d58:	03c5                	addi	t2,t2,17
80003d5a:	0000                	unimp
80003d5c:	0428                	addi	a0,sp,520
80003d5e:	0000                	unimp
80003d60:	056d                	addi	a0,a0,27
80003d62:	0000                	unimp
80003d64:	0000051b          	0x51b
80003d68:	0174                	addi	a3,sp,140
80003d6a:	0000                	unimp
80003d6c:	0395                	addi	t2,t2,5
80003d6e:	0000                	unimp
80003d70:	00000567          	jalr	a0,zero # 0 <buf.2940>
80003d74:	03c9                	addi	t2,t2,18
80003d76:	0000                	unimp
80003d78:	03c1                	addi	t2,t2,16
80003d7a:	0000                	unimp
80003d7c:	00000407          	0x407
80003d80:	00000433          	add	s0,zero,zero
80003d84:	0430                	addi	a2,sp,520
80003d86:	0000                	unimp
80003d88:	0391                	addi	t2,t2,4
80003d8a:	0000                	unimp
80003d8c:	0346                	slli	t1,t1,0x11
80003d8e:	0000                	unimp
80003d90:	013a                	slli	sp,sp,0xe
80003d92:	0000                	unimp
80003d94:	000004a7          	0x4a7
80003d98:	00000347          	fmsub.s	ft6,ft0,ft0,ft0,rne
80003d9c:	067e                	slli	a2,a2,0x1f
80003d9e:	0000                	unimp
80003da0:	04a0                	addi	s0,sp,584
80003da2:	0000                	unimp
80003da4:	0696                	slli	a3,a3,0x5
80003da6:	0000                	unimp
80003da8:	02bc                	addi	a5,sp,328
80003daa:	0000                	unimp
80003dac:	0739                	addi	a4,a4,14
80003dae:	0000                	unimp
80003db0:	05e5                	addi	a1,a1,25
80003db2:	0000                	unimp
80003db4:	0342                	slli	t1,t1,0x10
80003db6:	0000                	unimp
80003db8:	00000097          	auipc	ra,0x0
80003dbc:	040e                	slli	s0,s0,0x3
80003dbe:	0000                	unimp
80003dc0:	0304                	addi	s1,sp,384
80003dc2:	0000                	unimp
80003dc4:	00ff                	0xff
80003dc6:	0000                	unimp
80003dc8:	01f6                	slli	gp,gp,0x1d
80003dca:	0000                	unimp
80003dcc:	02ed                	addi	t0,t0,27
80003dce:	0000                	unimp
80003dd0:	04d5                	addi	s1,s1,21
80003dd2:	0000                	unimp
80003dd4:	0434                	addi	a3,sp,520
80003dd6:	0000                	unimp
80003dd8:	0170                	addi	a2,sp,140
80003dda:	0000                	unimp
80003ddc:	0000023b          	0x23b
80003de0:	000003fb          	0x3fb
80003de4:	0164                	addi	s1,sp,140
80003de6:	0000                	unimp
80003de8:	0628                	addi	a0,sp,776
80003dea:	0000                	unimp
80003dec:	02c0                	addi	s0,sp,324
80003dee:	0000                	unimp
80003df0:	05ae                	slli	a1,a1,0xb
80003df2:	0000                	unimp
80003df4:	05c0                	addi	s0,sp,708
80003df6:	0000                	unimp
80003df8:	0490                	addi	a2,sp,576
80003dfa:	0000                	unimp
80003dfc:	0470                	addi	a2,sp,524
80003dfe:	0000                	unimp
80003e00:	05c6                	slli	a1,a1,0x11
80003e02:	0000                	unimp
80003e04:	000002b7          	lui	t0,0x0
80003e08:	00d1                	addi	ra,ra,20
80003e0a:	0000                	unimp
80003e0c:	022c                	addi	a1,sp,264
80003e0e:	0000                	unimp
80003e10:	02a0                	addi	s0,sp,328
80003e12:	0000                	unimp
80003e14:	029e                	slli	t0,t0,0x7
80003e16:	0000                	unimp
80003e18:	000006bf 000003f7 	0x3f7000006bf
80003e20:	0569                	addi	a0,a0,26
80003e22:	0000                	unimp
80003e24:	01c6                	slli	gp,gp,0x11
80003e26:	0000                	unimp
80003e28:	01b0                	addi	a2,sp,200
80003e2a:	0000                	unimp
80003e2c:	0224                	addi	s1,sp,264
80003e2e:	0000                	unimp
80003e30:	000006ab          	0x6ab
80003e34:	0280                	addi	s0,sp,320
80003e36:	0000                	unimp
80003e38:	02dd                	addi	t0,t0,23
80003e3a:	0000                	unimp
80003e3c:	04e9                	addi	s1,s1,26
80003e3e:	0000                	unimp
80003e40:	043c                	addi	a5,sp,520
80003e42:	0000                	unimp
80003e44:	00000543          	fmadd.s	fa0,ft0,ft0,ft0,rne
80003e48:	056d                	addi	a0,a0,27
80003e4a:	0000                	unimp
80003e4c:	00000377          	0x377
80003e50:	000004b3          	add	s1,zero,zero
80003e54:	04ad                	addi	s1,s1,11
80003e56:	0000                	unimp
80003e58:	0146                	slli	sp,sp,0x11
80003e5a:	0000                	unimp
80003e5c:	0299                	addi	t0,t0,6
80003e5e:	0000                	unimp
80003e60:	0000049b          	0x49b
80003e64:	03a0                	addi	s0,sp,456
80003e66:	0000                	unimp
80003e68:	0506                	slli	a0,a0,0x1
80003e6a:	0000                	unimp
80003e6c:	00000407          	0x407
80003e70:	0000049b          	0x49b
80003e74:	005d                	c.nop	23
80003e76:	0000                	unimp
80003e78:	02ad                	addi	t0,t0,11
80003e7a:	0000                	unimp
80003e7c:	000003e3          	beqz	zero,80004682 <_tbss_end+0x67e>
80003e80:	01ec                	addi	a1,sp,204
80003e82:	0000                	unimp
80003e84:	047e                	slli	s0,s0,0x1f
80003e86:	0000                	unimp
80003e88:	00000197          	auipc	gp,0x0
80003e8c:	045a                	slli	s0,s0,0x16
80003e8e:	0000                	unimp
80003e90:	000005f3          	0x5f3
80003e94:	01b1                	addi	gp,gp,12
80003e96:	0000                	unimp
80003e98:	05b8                	addi	a4,sp,712
80003e9a:	0000                	unimp
80003e9c:	00000233          	add	tp,zero,zero
80003ea0:	00000573          	0x573
80003ea4:	02d2                	slli	t0,t0,0x14
80003ea6:	0000                	unimp
80003ea8:	047a                	slli	s0,s0,0x1e
80003eaa:	0000                	unimp
80003eac:	056a                	slli	a0,a0,0x1a
80003eae:	0000                	unimp
80003eb0:	02cc                	addi	a1,sp,324
80003eb2:	0000                	unimp
80003eb4:	06b1                	addi	a3,a3,12
80003eb6:	0000                	unimp
80003eb8:	0702                	c.slli64	a4
80003eba:	0000                	unimp
80003ebc:	0375                	addi	t1,t1,29
80003ebe:	0000                	unimp
80003ec0:	0281                	addi	t0,t0,0
80003ec2:	0000                	unimp
80003ec4:	010a                	slli	sp,sp,0x2
80003ec6:	0000                	unimp
80003ec8:	05f9                	addi	a1,a1,30
80003eca:	0000                	unimp
80003ecc:	00000443          	fmadd.s	fs0,ft0,ft0,ft0,rne
80003ed0:	0278                	addi	a4,sp,268
80003ed2:	0000                	unimp
80003ed4:	04dc                	addi	a5,sp,580
80003ed6:	0000                	unimp
80003ed8:	0415                	addi	s0,s0,5
80003eda:	0000                	unimp
80003edc:	05df 0000 04c7      	0x4c7000005df
80003ee2:	0000                	unimp
80003ee4:	0000032b          	0x32b
80003ee8:	0000048f          	0x48f
80003eec:	0000028f          	0x28f
80003ef0:	02fc                	addi	a5,sp,332
80003ef2:	0000                	unimp
80003ef4:	04c1                	addi	s1,s1,16
80003ef6:	0000                	unimp
80003ef8:	005e                	c.slli	zero,0x17
80003efa:	0000                	unimp
80003efc:	028a                	slli	t0,t0,0x2
80003efe:	0000                	unimp
80003f00:	01a2                	slli	gp,gp,0x8
80003f02:	0000                	unimp
80003f04:	0289                	addi	t0,t0,2
80003f06:	0000                	unimp
80003f08:	045c                	addi	a5,sp,516
80003f0a:	0000                	unimp
80003f0c:	00000647          	fmsub.s	fa2,ft0,ft0,ft0,rne
80003f10:	000002bb          	0x2bb
80003f14:	000004c3          	fmadd.s	fs1,ft0,ft0,ft0,rne
80003f18:	04f5                	addi	s1,s1,29
80003f1a:	0000                	unimp
80003f1c:	0379                	addi	t1,t1,30
80003f1e:	0000                	unimp
80003f20:	00000213          	li	tp,0
80003f24:	0426                	slli	s0,s0,0x9
80003f26:	0000                	unimp
80003f28:	063e                	slli	a2,a2,0xf
80003f2a:	0000                	unimp
80003f2c:	045e                	slli	s0,s0,0x17
80003f2e:	0000                	unimp
80003f30:	049a                	slli	s1,s1,0x6
80003f32:	0000                	unimp
80003f34:	05a0                	addi	s0,sp,712
80003f36:	0000                	unimp
80003f38:	02d2                	slli	t0,t0,0x14
80003f3a:	0000                	unimp
80003f3c:	0576                	slli	a0,a0,0x1d
80003f3e:	0000                	unimp
80003f40:	01df 0000 03c1      	0x3c1000001df
80003f46:	0000                	unimp
80003f48:	00000423          	sb	zero,8(zero) # 8 <buf.2940+0x8>
80003f4c:	00000227          	0x227
80003f50:	0245                	addi	tp,tp,17
80003f52:	0000                	unimp
80003f54:	0172                	slli	sp,sp,0x1c
80003f56:	0000                	unimp
80003f58:	0186                	slli	gp,gp,0x1
80003f5a:	0000                	unimp
80003f5c:	0405                	addi	s0,s0,1
80003f5e:	0000                	unimp
80003f60:	0300                	addi	s0,sp,384
80003f62:	0000                	unimp
80003f64:	03b1                	addi	t2,t2,12
80003f66:	0000                	unimp
80003f68:	05d4                	addi	a3,sp,708
80003f6a:	0000                	unimp
80003f6c:	03ad                	addi	t2,t2,11
80003f6e:	0000                	unimp
80003f70:	049a                	slli	s1,s1,0x6
80003f72:	0000                	unimp
80003f74:	04cd                	addi	s1,s1,19
80003f76:	0000                	unimp
80003f78:	00000137          	lui	sp,0x0
80003f7c:	0319                	addi	t1,t1,6
80003f7e:	0000                	unimp
